{
	"new-contracts/EduVerifyAdmin.sol": {
		"EduVerifyAdmin": {
			"abi": [
				{
					"inputs": [
						{
							"internalType": "address[]",
							"name": "_initialGovernors",
							"type": "address[]"
						}
					],
					"stateMutability": "nonpayable",
					"type": "constructor"
				},
				{
					"anonymous": false,
					"inputs": [
						{
							"indexed": true,
							"internalType": "address",
							"name": "governor",
							"type": "address"
						}
					],
					"name": "GovernorAdded",
					"type": "event"
				},
				{
					"anonymous": false,
					"inputs": [
						{
							"indexed": true,
							"internalType": "address",
							"name": "governor",
							"type": "address"
						}
					],
					"name": "GovernorRemoved",
					"type": "event"
				},
				{
					"anonymous": false,
					"inputs": [
						{
							"indexed": true,
							"internalType": "uint256",
							"name": "proposalId",
							"type": "uint256"
						},
						{
							"indexed": false,
							"internalType": "enum EduVerifyAdmin.Action",
							"name": "action",
							"type": "uint8"
						},
						{
							"indexed": false,
							"internalType": "address",
							"name": "target",
							"type": "address"
						}
					],
					"name": "ProposalCreated",
					"type": "event"
				},
				{
					"anonymous": false,
					"inputs": [
						{
							"indexed": true,
							"internalType": "uint256",
							"name": "proposalId",
							"type": "uint256"
						}
					],
					"name": "ProposalExecuted",
					"type": "event"
				},
				{
					"anonymous": false,
					"inputs": [
						{
							"indexed": true,
							"internalType": "uint256",
							"name": "proposalId",
							"type": "uint256"
						},
						{
							"indexed": true,
							"internalType": "address",
							"name": "voter",
							"type": "address"
						}
					],
					"name": "VoteCast",
					"type": "event"
				},
				{
					"inputs": [],
					"name": "calculateThreshold",
					"outputs": [
						{
							"internalType": "uint256",
							"name": "",
							"type": "uint256"
						}
					],
					"stateMutability": "view",
					"type": "function"
				},
				{
					"inputs": [],
					"name": "eduVerify",
					"outputs": [
						{
							"internalType": "address",
							"name": "",
							"type": "address"
						}
					],
					"stateMutability": "view",
					"type": "function"
				},
				{
					"inputs": [
						{
							"internalType": "uint256",
							"name": "proposalId",
							"type": "uint256"
						}
					],
					"name": "executeProposal",
					"outputs": [],
					"stateMutability": "nonpayable",
					"type": "function"
				},
				{
					"inputs": [
						{
							"internalType": "uint256",
							"name": "proposalId",
							"type": "uint256"
						}
					],
					"name": "getProposalDetails",
					"outputs": [
						{
							"internalType": "enum EduVerifyAdmin.Action",
							"name": "action",
							"type": "uint8"
						},
						{
							"internalType": "address",
							"name": "target",
							"type": "address"
						},
						{
							"internalType": "uint256",
							"name": "yesVotes",
							"type": "uint256"
						},
						{
							"internalType": "uint256",
							"name": "snapshotGovernorCount",
							"type": "uint256"
						},
						{
							"internalType": "bool",
							"name": "executed",
							"type": "bool"
						}
					],
					"stateMutability": "view",
					"type": "function"
				},
				{
					"inputs": [
						{
							"internalType": "uint256",
							"name": "proposalId",
							"type": "uint256"
						}
					],
					"name": "getThresholdForProposal",
					"outputs": [
						{
							"internalType": "uint256",
							"name": "",
							"type": "uint256"
						}
					],
					"stateMutability": "view",
					"type": "function"
				},
				{
					"inputs": [],
					"name": "governorCount",
					"outputs": [
						{
							"internalType": "uint256",
							"name": "",
							"type": "uint256"
						}
					],
					"stateMutability": "view",
					"type": "function"
				},
				{
					"inputs": [
						{
							"internalType": "uint256",
							"name": "",
							"type": "uint256"
						}
					],
					"name": "governors",
					"outputs": [
						{
							"internalType": "address",
							"name": "",
							"type": "address"
						}
					],
					"stateMutability": "view",
					"type": "function"
				},
				{
					"inputs": [
						{
							"internalType": "uint256",
							"name": "proposalId",
							"type": "uint256"
						},
						{
							"internalType": "address",
							"name": "governor",
							"type": "address"
						}
					],
					"name": "hasVoted",
					"outputs": [
						{
							"internalType": "bool",
							"name": "",
							"type": "bool"
						}
					],
					"stateMutability": "view",
					"type": "function"
				},
				{
					"inputs": [
						{
							"internalType": "address",
							"name": "",
							"type": "address"
						}
					],
					"name": "isGovernor",
					"outputs": [
						{
							"internalType": "bool",
							"name": "",
							"type": "bool"
						}
					],
					"stateMutability": "view",
					"type": "function"
				},
				{
					"inputs": [],
					"name": "proposalCount",
					"outputs": [
						{
							"internalType": "uint256",
							"name": "",
							"type": "uint256"
						}
					],
					"stateMutability": "view",
					"type": "function"
				},
				{
					"inputs": [
						{
							"internalType": "uint256",
							"name": "",
							"type": "uint256"
						}
					],
					"name": "proposals",
					"outputs": [
						{
							"internalType": "uint256",
							"name": "id",
							"type": "uint256"
						},
						{
							"internalType": "enum EduVerifyAdmin.Action",
							"name": "action",
							"type": "uint8"
						},
						{
							"internalType": "address",
							"name": "target",
							"type": "address"
						},
						{
							"internalType": "uint256",
							"name": "yesVotes",
							"type": "uint256"
						},
						{
							"internalType": "uint256",
							"name": "snapshotGovernorCount",
							"type": "uint256"
						},
						{
							"internalType": "bool",
							"name": "executed",
							"type": "bool"
						}
					],
					"stateMutability": "view",
					"type": "function"
				},
				{
					"inputs": [
						{
							"internalType": "enum EduVerifyAdmin.Action",
							"name": "action",
							"type": "uint8"
						},
						{
							"internalType": "address",
							"name": "target",
							"type": "address"
						}
					],
					"name": "propose",
					"outputs": [
						{
							"internalType": "uint256",
							"name": "",
							"type": "uint256"
						}
					],
					"stateMutability": "nonpayable",
					"type": "function"
				},
				{
					"inputs": [
						{
							"internalType": "address",
							"name": "_eduVerify",
							"type": "address"
						}
					],
					"name": "setEduVerifyAddress",
					"outputs": [],
					"stateMutability": "nonpayable",
					"type": "function"
				},
				{
					"inputs": [
						{
							"internalType": "uint256",
							"name": "proposalId",
							"type": "uint256"
						}
					],
					"name": "vote",
					"outputs": [],
					"stateMutability": "nonpayable",
					"type": "function"
				}
			],
			"devdoc": {
				"kind": "dev",
				"methods": {},
				"version": 1
			},
			"evm": {
				"assembly": "    /* \"new-contracts/EduVerifyAdmin.sol\":121:6584  contract EduVerifyAdmin {... */\n  mstore(0x40, 0x80)\n    /* \"new-contracts/EduVerifyAdmin.sol\":1892:2382  constructor(address[] memory _initialGovernors) {... */\n  callvalue\n  dup1\n  iszero\n  tag_1\n  jumpi\n  revert(0x00, 0x00)\ntag_1:\n  pop\n  mload(0x40)\n  sub(codesize, bytecodeSize)\n  dup1\n  bytecodeSize\n  dup4\n  codecopy\n  dup2\n  add\n  0x40\n  dup2\n  swap1\n  mstore\n  tag_2\n  swap2\n  tag_3\n  jump\t// in\ntag_2:\n    /* \"new-contracts/EduVerifyAdmin.sol\":1965:1989  _initialGovernors.length */\n  dup1\n  mload\n    /* \"new-contracts/EduVerifyAdmin.sol\":1951:1962  uint length */\n  0x00\n    /* \"new-contracts/EduVerifyAdmin.sol\":1999:2376  for (uint i = 0; i < length;) {... */\ntag_6:\n    /* \"new-contracts/EduVerifyAdmin.sol\":2020:2026  length */\n  dup2\n    /* \"new-contracts/EduVerifyAdmin.sol\":2016:2017  i */\n  dup2\n    /* \"new-contracts/EduVerifyAdmin.sol\":2016:2026  i < length */\n  lt\n    /* \"new-contracts/EduVerifyAdmin.sol\":1999:2376  for (uint i = 0; i < length;) {... */\n  iszero\n  tag_7\n  jumpi\n    /* \"new-contracts/EduVerifyAdmin.sol\":2043:2059  address governor */\n  0x00\n    /* \"new-contracts/EduVerifyAdmin.sol\":2062:2079  _initialGovernors */\n  dup4\n    /* \"new-contracts/EduVerifyAdmin.sol\":2080:2081  i */\n  dup3\n    /* \"new-contracts/EduVerifyAdmin.sol\":2062:2082  _initialGovernors[i] */\n  dup2\n  mload\n  dup2\n  lt\n  tag_10\n  jumpi\n  tag_10\n  tag_11\n  jump\t// in\ntag_10:\n  0x20\n  mul\n  0x20\n  add\n  add\n  mload\n    /* \"new-contracts/EduVerifyAdmin.sol\":2043:2082  address governor = _initialGovernors[i] */\n  swap1\n  pop\n    /* \"new-contracts/EduVerifyAdmin.sol\":2124:2125  0 */\n  0x00\n  sub(shl(0xa0, 0x01), 0x01)\n    /* \"new-contracts/EduVerifyAdmin.sol\":2104:2126  governor != address(0) */\n  and\n    /* \"new-contracts/EduVerifyAdmin.sol\":2104:2112  governor */\n  dup2\n  sub(shl(0xa0, 0x01), 0x01)\n    /* \"new-contracts/EduVerifyAdmin.sol\":2104:2126  governor != address(0) */\n  and\n  sub\n    /* \"new-contracts/EduVerifyAdmin.sol\":2096:2147  require(governor != address(0), \"Invalid governor\") */\n  tag_12\n  jumpi\n  mload(0x40)\n  shl(0xe5, 0x461bcd)\n  dup2\n  mstore\n    /* \"#utility.yul\":1802:1804   */\n  0x20\n    /* \"new-contracts/EduVerifyAdmin.sol\":2096:2147  require(governor != address(0), \"Invalid governor\") */\n  0x04\n  dup3\n  add\n    /* \"#utility.yul\":1784:1805   */\n  mstore\n    /* \"#utility.yul\":1841:1843   */\n  0x10\n    /* \"#utility.yul\":1821:1839   */\n  0x24\n  dup3\n  add\n    /* \"#utility.yul\":1814:1844   */\n  mstore\n  shl(0x81, 0x24b73b30b634b21033b7bb32b93737b9)\n    /* \"#utility.yul\":1860:1878   */\n  0x44\n  dup3\n  add\n    /* \"#utility.yul\":1853:1899   */\n  mstore\n    /* \"#utility.yul\":1916:1934   */\n  0x64\n  add\n    /* \"new-contracts/EduVerifyAdmin.sol\":2096:2147  require(governor != address(0), \"Invalid governor\") */\ntag_13:\n  mload(0x40)\n  dup1\n  swap2\n  sub\n  swap1\n  revert\ntag_12:\n  sub(shl(0xa0, 0x01), 0x01)\n    /* \"new-contracts/EduVerifyAdmin.sol\":2170:2190  isGovernor[governor] */\n  dup2\n  and\n    /* \"new-contracts/EduVerifyAdmin.sol\":2170:2180  isGovernor */\n  0x00\n    /* \"new-contracts/EduVerifyAdmin.sol\":2170:2190  isGovernor[governor] */\n  swap1\n  dup2\n  mstore\n  0x20\n  dup2\n  swap1\n  mstore\n  0x40\n  swap1\n  keccak256\n  sload\n  0xff\n  and\n    /* \"new-contracts/EduVerifyAdmin.sol\":2169:2190  !isGovernor[governor] */\n  iszero\n    /* \"new-contracts/EduVerifyAdmin.sol\":2161:2213  require(!isGovernor[governor], \"Duplicate governor\") */\n  tag_15\n  jumpi\n  mload(0x40)\n  shl(0xe5, 0x461bcd)\n  dup2\n  mstore\n    /* \"#utility.yul\":2147:2149   */\n  0x20\n    /* \"new-contracts/EduVerifyAdmin.sol\":2161:2213  require(!isGovernor[governor], \"Duplicate governor\") */\n  0x04\n  dup3\n  add\n    /* \"#utility.yul\":2129:2150   */\n  mstore\n    /* \"#utility.yul\":2186:2188   */\n  0x12\n    /* \"#utility.yul\":2166:2184   */\n  0x24\n  dup3\n  add\n    /* \"#utility.yul\":2159:2189   */\n  mstore\n  shl(0x71, 0x223ab83634b1b0ba329033b7bb32b93737b9)\n    /* \"#utility.yul\":2205:2223   */\n  0x44\n  dup3\n  add\n    /* \"#utility.yul\":2198:2246   */\n  mstore\n    /* \"#utility.yul\":2263:2281   */\n  0x64\n  add\n    /* \"new-contracts/EduVerifyAdmin.sol\":2161:2213  require(!isGovernor[governor], \"Duplicate governor\") */\n  tag_13\n    /* \"#utility.yul\":1945:2287   */\n  jump\n    /* \"new-contracts/EduVerifyAdmin.sol\":2161:2213  require(!isGovernor[governor], \"Duplicate governor\") */\ntag_15:\n  sub(shl(0xa0, 0x01), 0x01)\n    /* \"new-contracts/EduVerifyAdmin.sol\":2227:2247  isGovernor[governor] */\n  dup2\n  and\n    /* \"new-contracts/EduVerifyAdmin.sol\":2227:2237  isGovernor */\n  0x00\n    /* \"new-contracts/EduVerifyAdmin.sol\":2227:2247  isGovernor[governor] */\n  dup2\n  dup2\n  mstore\n  0x20\n  dup2\n  swap1\n  mstore\n  0x40\n  dup1\n  dup3\n  keccak256\n    /* \"new-contracts/EduVerifyAdmin.sol\":2227:2254  isGovernor[governor] = true */\n  dup1\n  sload\n  not(0xff)\n  and\n    /* \"new-contracts/EduVerifyAdmin.sol\":2250:2254  true */\n  0x01\n    /* \"new-contracts/EduVerifyAdmin.sol\":2227:2254  isGovernor[governor] = true */\n  swap1\n  dup2\n  or\n  swap1\n  swap2\n  sstore\n    /* \"new-contracts/EduVerifyAdmin.sol\":2268:2292  governors.push(governor) */\n  dup1\n  sload\n  dup1\n  dup3\n  add\n  dup3\n  sstore\n  swap1\n  dup4\n  mstore\n  0xb10e2d527612073b26eecdfd717e6a320cf44b4afac2b0732d9fcbe2b7fa0cf6\n  add\n  dup1\n  sload\n  not(sub(shl(0xa0, 0x01), 0x01))\n  and\n  dup5\n  or\n  swap1\n  sstore\n    /* \"new-contracts/EduVerifyAdmin.sol\":2311:2334  GovernorAdded(governor) */\n  mload\n  0xdc5a48d79e2e147530ff63ecdbed5a5a66adb9d5cf339384d5d076da197c40b5\n  swap2\n    /* \"new-contracts/EduVerifyAdmin.sol\":2227:2237  isGovernor */\n  swap1\n    /* \"new-contracts/EduVerifyAdmin.sol\":2311:2334  GovernorAdded(governor) */\n  log2\n  pop\n    /* \"new-contracts/EduVerifyAdmin.sol\":2360:2363  ++i */\n  0x01\n  add\n    /* \"new-contracts/EduVerifyAdmin.sol\":1999:2376  for (uint i = 0; i < length;) {... */\n  jump(tag_6)\ntag_7:\n  pop\n    /* \"new-contracts/EduVerifyAdmin.sol\":1940:2382  {... */\n  pop\n    /* \"new-contracts/EduVerifyAdmin.sol\":1892:2382  constructor(address[] memory _initialGovernors) {... */\n  pop\n    /* \"new-contracts/EduVerifyAdmin.sol\":121:6584  contract EduVerifyAdmin {... */\n  jump(tag_22)\n    /* \"#utility.yul\":14:141   */\ntag_20:\n    /* \"#utility.yul\":75:85   */\n  0x4e487b71\n    /* \"#utility.yul\":70:73   */\n  0xe0\n    /* \"#utility.yul\":66:86   */\n  shl\n    /* \"#utility.yul\":63:64   */\n  0x00\n    /* \"#utility.yul\":56:87   */\n  mstore\n    /* \"#utility.yul\":106:110   */\n  0x41\n    /* \"#utility.yul\":103:104   */\n  0x04\n    /* \"#utility.yul\":96:111   */\n  mstore\n    /* \"#utility.yul\":130:134   */\n  0x24\n    /* \"#utility.yul\":127:128   */\n  0x00\n    /* \"#utility.yul\":120:135   */\n  revert\n    /* \"#utility.yul\":146:323   */\ntag_21:\n    /* \"#utility.yul\":225:238   */\n  dup1\n  mload\n  sub(shl(0xa0, 0x01), 0x01)\n    /* \"#utility.yul\":267:298   */\n  dup2\n  and\n    /* \"#utility.yul\":257:299   */\n  dup2\n  eq\n    /* \"#utility.yul\":247:317   */\n  tag_25\n  jumpi\n    /* \"#utility.yul\":313:314   */\n  0x00\n    /* \"#utility.yul\":310:311   */\n  0x00\n    /* \"#utility.yul\":303:315   */\n  revert\n    /* \"#utility.yul\":247:317   */\ntag_25:\n    /* \"#utility.yul\":146:323   */\n  swap2\n  swap1\n  pop\n  jump\t// out\n    /* \"#utility.yul\":328:1463   */\ntag_3:\n    /* \"#utility.yul\":423:429   */\n  0x00\n    /* \"#utility.yul\":476:478   */\n  0x20\n    /* \"#utility.yul\":464:473   */\n  dup3\n    /* \"#utility.yul\":455:462   */\n  dup5\n    /* \"#utility.yul\":451:474   */\n  sub\n    /* \"#utility.yul\":447:479   */\n  slt\n    /* \"#utility.yul\":444:496   */\n  iszero\n  tag_27\n  jumpi\n    /* \"#utility.yul\":492:493   */\n  0x00\n    /* \"#utility.yul\":489:490   */\n  0x00\n    /* \"#utility.yul\":482:494   */\n  revert\n    /* \"#utility.yul\":444:496   */\ntag_27:\n    /* \"#utility.yul\":519:535   */\n  dup2\n  mload\n  sub(shl(0x40, 0x01), 0x01)\n    /* \"#utility.yul\":547:577   */\n  dup2\n  gt\n    /* \"#utility.yul\":544:594   */\n  iszero\n  tag_28\n  jumpi\n    /* \"#utility.yul\":590:591   */\n  0x00\n    /* \"#utility.yul\":587:588   */\n  0x00\n    /* \"#utility.yul\":580:592   */\n  revert\n    /* \"#utility.yul\":544:594   */\ntag_28:\n    /* \"#utility.yul\":613:635   */\n  dup3\n  add\n    /* \"#utility.yul\":666:670   */\n  0x1f\n    /* \"#utility.yul\":658:671   */\n  dup2\n  add\n    /* \"#utility.yul\":654:681   */\n  dup5\n  sgt\n    /* \"#utility.yul\":644:699   */\n  tag_29\n  jumpi\n    /* \"#utility.yul\":695:696   */\n  0x00\n    /* \"#utility.yul\":692:693   */\n  0x00\n    /* \"#utility.yul\":685:697   */\n  revert\n    /* \"#utility.yul\":644:699   */\ntag_29:\n    /* \"#utility.yul\":722:731   */\n  dup1\n  mload\n  sub(shl(0x40, 0x01), 0x01)\n    /* \"#utility.yul\":743:773   */\n  dup2\n  gt\n    /* \"#utility.yul\":740:796   */\n  iszero\n  tag_31\n  jumpi\n    /* \"#utility.yul\":776:794   */\n  tag_31\n  tag_20\n  jump\t// in\ntag_31:\n    /* \"#utility.yul\":858:860   */\n  0x40\n    /* \"#utility.yul\":852:861   */\n  mload\n    /* \"#utility.yul\":819:820   */\n  0x05\n    /* \"#utility.yul\":815:829   */\n  dup3\n  swap1\n  shl\n  swap1\n    /* \"#utility.yul\":912:914   */\n  0x3f\n    /* \"#utility.yul\":904:915   */\n  dup3\n  add\n  not(0x1f)\n    /* \"#utility.yul\":900:925   */\n  and\n    /* \"#utility.yul\":888:926   */\n  dup2\n  add\n  sub(shl(0x40, 0x01), 0x01)\n    /* \"#utility.yul\":941:975   */\n  dup2\n  gt\n    /* \"#utility.yul\":977:999   */\n  dup3\n  dup3\n  lt\n    /* \"#utility.yul\":938:1000   */\n  or\n    /* \"#utility.yul\":935:1023   */\n  iszero\n  tag_33\n  jumpi\n    /* \"#utility.yul\":1003:1021   */\n  tag_33\n  tag_20\n  jump\t// in\ntag_33:\n    /* \"#utility.yul\":1039:1041   */\n  0x40\n    /* \"#utility.yul\":1032:1054   */\n  mstore\n    /* \"#utility.yul\":1089:1111   */\n  swap2\n  dup3\n  mstore\n    /* \"#utility.yul\":1139:1141   */\n  0x20\n    /* \"#utility.yul\":1169:1180   */\n  dup2\n  dup5\n  add\n    /* \"#utility.yul\":1165:1185   */\n  dup2\n  add\n  swap3\n    /* \"#utility.yul\":1089:1111   */\n  swap1\n    /* \"#utility.yul\":1127:1142   */\n  dup2\n  add\n    /* \"#utility.yul\":1197:1216   */\n  dup8\n  dup5\n  gt\n    /* \"#utility.yul\":1194:1233   */\n  iszero\n  tag_34\n  jumpi\n    /* \"#utility.yul\":1229:1230   */\n  0x00\n    /* \"#utility.yul\":1226:1227   */\n  0x00\n    /* \"#utility.yul\":1219:1231   */\n  revert\n    /* \"#utility.yul\":1194:1233   */\ntag_34:\n    /* \"#utility.yul\":1261:1263   */\n  0x20\n    /* \"#utility.yul\":1257:1259   */\n  dup6\n    /* \"#utility.yul\":1253:1264   */\n  add\n    /* \"#utility.yul\":1242:1264   */\n  swap5\n  pop\n    /* \"#utility.yul\":1273:1432   */\ntag_35:\n    /* \"#utility.yul\":1289:1295   */\n  dup4\n    /* \"#utility.yul\":1284:1287   */\n  dup6\n    /* \"#utility.yul\":1281:1296   */\n  lt\n    /* \"#utility.yul\":1273:1432   */\n  iszero\n  tag_37\n  jumpi\n    /* \"#utility.yul\":1355:1389   */\n  tag_38\n    /* \"#utility.yul\":1385:1388   */\n  dup6\n    /* \"#utility.yul\":1355:1389   */\n  tag_21\n  jump\t// in\ntag_38:\n    /* \"#utility.yul\":1343:1390   */\n  dup2\n  mstore\n    /* \"#utility.yul\":1419:1421   */\n  0x20\n    /* \"#utility.yul\":1306:1318   */\n  swap5\n  dup6\n  add\n  swap5\n    /* \"#utility.yul\":1410:1422   */\n  add\n    /* \"#utility.yul\":1273:1432   */\n  jump(tag_35)\ntag_37:\n  pop\n    /* \"#utility.yul\":1451:1457   */\n  swap7\n    /* \"#utility.yul\":328:1463   */\n  swap6\n  pop\n  pop\n  pop\n  pop\n  pop\n  pop\n  jump\t// out\n    /* \"#utility.yul\":1468:1595   */\ntag_11:\n    /* \"#utility.yul\":1529:1539   */\n  0x4e487b71\n    /* \"#utility.yul\":1524:1527   */\n  0xe0\n    /* \"#utility.yul\":1520:1540   */\n  shl\n    /* \"#utility.yul\":1517:1518   */\n  0x00\n    /* \"#utility.yul\":1510:1541   */\n  mstore\n    /* \"#utility.yul\":1560:1564   */\n  0x32\n    /* \"#utility.yul\":1557:1558   */\n  0x04\n    /* \"#utility.yul\":1550:1565   */\n  mstore\n    /* \"#utility.yul\":1584:1588   */\n  0x24\n    /* \"#utility.yul\":1581:1582   */\n  0x00\n    /* \"#utility.yul\":1574:1589   */\n  revert\n    /* \"#utility.yul\":1945:2287   */\ntag_22:\n    /* \"new-contracts/EduVerifyAdmin.sol\":121:6584  contract EduVerifyAdmin {... */\n  dataSize(sub_0)\n  dup1\n  dataOffset(sub_0)\n  0x00\n  codecopy\n  0x00\n  return\nstop\n\nsub_0: assembly {\n        /* \"new-contracts/EduVerifyAdmin.sol\":121:6584  contract EduVerifyAdmin {... */\n      mstore(0x40, 0x80)\n      callvalue\n      dup1\n      iszero\n      tag_1\n      jumpi\n      revert(0x00, 0x00)\n    tag_1:\n      pop\n      jumpi(tag_2, lt(calldatasize, 0x04))\n      shr(0xe0, calldataload(0x00))\n      dup1\n      0xa7277b00\n      gt\n      tag_17\n      jumpi\n      dup1\n      0xdc999c8d\n      gt\n      tag_18\n      jumpi\n      dup1\n      0xdc999c8d\n      eq\n      tag_13\n      jumpi\n      dup1\n      0xe0901d7a\n      eq\n      tag_14\n      jumpi\n      dup1\n      0xe43581b8\n      eq\n      tag_15\n      jumpi\n      dup1\n      0xe8c9fd45\n      eq\n      tag_16\n      jumpi\n      revert(0x00, 0x00)\n    tag_18:\n      dup1\n      0xa7277b00\n      eq\n      tag_10\n      jumpi\n      dup1\n      0xaebe39ca\n      eq\n      tag_11\n      jumpi\n      dup1\n      0xda35c664\n      eq\n      tag_12\n      jumpi\n      revert(0x00, 0x00)\n    tag_17:\n      dup1\n      0x0eb3813a\n      gt\n      tag_19\n      jumpi\n      dup1\n      0x0eb3813a\n      eq\n      tag_6\n      jumpi\n      dup1\n      0x3b4d01a7\n      eq\n      tag_7\n      jumpi\n      dup1\n      0x43859632\n      eq\n      tag_8\n      jumpi\n      dup1\n      0x8e2767ef\n      eq\n      tag_9\n      jumpi\n      revert(0x00, 0x00)\n    tag_19:\n      dup1\n      0x0121b93f\n      eq\n      tag_3\n      jumpi\n      dup1\n      0x013cf08b\n      eq\n      tag_4\n      jumpi\n      dup1\n      0x0d61b519\n      eq\n      tag_5\n      jumpi\n    tag_2:\n      revert(0x00, 0x00)\n        /* \"new-contracts/EduVerifyAdmin.sol\":3295:3687  function vote(uint proposalId) external onlyGovernor {... */\n    tag_3:\n      tag_20\n      tag_21\n      calldatasize\n      0x04\n      tag_22\n      jump\t// in\n    tag_21:\n      tag_23\n      jump\t// in\n    tag_20:\n      stop\n        /* \"new-contracts/EduVerifyAdmin.sol\":1421:1448  Proposal[] public proposals */\n    tag_4:\n      tag_24\n      tag_25\n      calldatasize\n      0x04\n      tag_22\n      jump\t// in\n    tag_25:\n      tag_26\n      jump\t// in\n    tag_24:\n      mload(0x40)\n      tag_27\n      swap7\n      swap6\n      swap5\n      swap4\n      swap3\n      swap2\n      swap1\n      tag_28\n      jump\t// in\n    tag_27:\n      mload(0x40)\n      dup1\n      swap2\n      sub\n      swap1\n      return\n        /* \"new-contracts/EduVerifyAdmin.sol\":3697:5711  function executeProposal(uint proposalId) external onlyGovernor {... */\n    tag_5:\n      tag_20\n      tag_30\n      calldatasize\n      0x04\n      tag_22\n      jump\t// in\n    tag_30:\n      tag_31\n      jump\t// in\n        /* \"new-contracts/EduVerifyAdmin.sol\":2640:2748  function calculateThreshold() external view returns(uint) {... */\n    tag_6:\n      tag_32\n      tag_33\n      jump\t// in\n    tag_32:\n      mload(0x40)\n        /* \"#utility.yul\":1362:1387   */\n      swap1\n      dup2\n      mstore\n        /* \"#utility.yul\":1350:1352   */\n      0x20\n        /* \"#utility.yul\":1335:1353   */\n      add\n        /* \"new-contracts/EduVerifyAdmin.sol\":2640:2748  function calculateThreshold() external view returns(uint) {... */\n      tag_27\n        /* \"#utility.yul\":1216:1393   */\n      jump\n        /* \"new-contracts/EduVerifyAdmin.sol\":5721:6023  function getProposalDetails(uint proposalId) external view returns(Action action, address target, uint yesVotes, uint snapshotGovernorCount,  bool executed) {... */\n    tag_7:\n      tag_36\n      tag_37\n      calldatasize\n      0x04\n      tag_22\n      jump\t// in\n    tag_37:\n      tag_38\n      jump\t// in\n    tag_36:\n      mload(0x40)\n      tag_27\n      swap6\n      swap5\n      swap4\n      swap3\n      swap2\n      swap1\n      tag_40\n      jump\t// in\n        /* \"new-contracts/EduVerifyAdmin.sol\":6230:6375  function hasVoted(uint proposalId, address governor) external view returns(bool) {... */\n    tag_8:\n      tag_41\n      tag_42\n      calldatasize\n      0x04\n      tag_43\n      jump\t// in\n    tag_42:\n      tag_44\n      jump\t// in\n    tag_41:\n      mload(0x40)\n        /* \"#utility.yul\":2574:2588   */\n      swap1\n      iszero\n        /* \"#utility.yul\":2567:2589   */\n      iszero\n        /* \"#utility.yul\":2549:2590   */\n      dup2\n      mstore\n        /* \"#utility.yul\":2537:2539   */\n      0x20\n        /* \"#utility.yul\":2522:2540   */\n      add\n        /* \"new-contracts/EduVerifyAdmin.sol\":6230:6375  function hasVoted(uint proposalId, address governor) external view returns(bool) {... */\n      tag_27\n        /* \"#utility.yul\":2409:2596   */\n      jump\n        /* \"new-contracts/EduVerifyAdmin.sol\":6033:6220  function getThresholdForProposal(uint proposalId) external view returns(uint) {... */\n    tag_9:\n      tag_32\n      tag_48\n      calldatasize\n      0x04\n      tag_22\n      jump\t// in\n    tag_48:\n      tag_49\n      jump\t// in\n        /* \"new-contracts/EduVerifyAdmin.sol\":1297:1323  address[] public governors */\n    tag_10:\n      tag_51\n      tag_52\n      calldatasize\n      0x04\n      tag_22\n      jump\t// in\n    tag_52:\n      tag_53\n      jump\t// in\n    tag_51:\n      mload(0x40)\n      sub(shl(0xa0, 0x01), 0x01)\n        /* \"#utility.yul\":2765:2797   */\n      swap1\n      swap2\n      and\n        /* \"#utility.yul\":2747:2798   */\n      dup2\n      mstore\n        /* \"#utility.yul\":2735:2737   */\n      0x20\n        /* \"#utility.yul\":2720:2738   */\n      add\n        /* \"new-contracts/EduVerifyAdmin.sol\":1297:1323  address[] public governors */\n      tag_27\n        /* \"#utility.yul\":2601:2804   */\n      jump\n        /* \"new-contracts/EduVerifyAdmin.sol\":2758:3289  function propose(Action action, address target) external onlyGovernor returns(uint) {... */\n    tag_11:\n      tag_32\n      tag_57\n      calldatasize\n      0x04\n      tag_58\n      jump\t// in\n    tag_57:\n      tag_59\n      jump\t// in\n        /* \"new-contracts/EduVerifyAdmin.sol\":6385:6478  function proposalCount() external view returns(uint) {... */\n    tag_12:\n        /* \"new-contracts/EduVerifyAdmin.sol\":6455:6464  proposals */\n      0x03\n        /* \"new-contracts/EduVerifyAdmin.sol\":6455:6471  proposals.length */\n      sload\n        /* \"new-contracts/EduVerifyAdmin.sol\":6385:6478  function proposalCount() external view returns(uint) {... */\n      jump(tag_32)\n        /* \"new-contracts/EduVerifyAdmin.sol\":1355:1379  address public eduVerify */\n    tag_13:\n      sload(0x02)\n      tag_51\n      swap1\n      sub(shl(0xa0, 0x01), 0x01)\n      and\n      dup2\n      jump\n        /* \"new-contracts/EduVerifyAdmin.sol\":2455:2630  function setEduVerifyAddress(address _eduVerify) external onlyGovernor {... */\n    tag_14:\n      tag_20\n      tag_68\n      calldatasize\n      0x04\n      tag_69\n      jump\t// in\n    tag_68:\n      tag_70\n      jump\t// in\n        /* \"new-contracts/EduVerifyAdmin.sol\":1220:1262  mapping(address => bool) public isGovernor */\n    tag_15:\n      tag_41\n      tag_72\n      calldatasize\n      0x04\n      tag_69\n      jump\t// in\n    tag_72:\n      0x00\n      0x20\n      dup2\n      swap1\n      mstore\n      swap1\n      dup2\n      mstore\n      0x40\n      swap1\n      keccak256\n      sload\n      0xff\n      and\n      dup2\n      jump\n        /* \"new-contracts/EduVerifyAdmin.sol\":6488:6581  function governorCount() external view returns(uint) {... */\n    tag_16:\n        /* \"new-contracts/EduVerifyAdmin.sol\":6558:6567  governors */\n      0x01\n        /* \"new-contracts/EduVerifyAdmin.sol\":6558:6574  governors.length */\n      sload\n        /* \"new-contracts/EduVerifyAdmin.sol\":6488:6581  function governorCount() external view returns(uint) {... */\n      jump(tag_32)\n        /* \"new-contracts/EduVerifyAdmin.sol\":3295:3687  function vote(uint proposalId) external onlyGovernor {... */\n    tag_23:\n        /* \"new-contracts/EduVerifyAdmin.sol\":1834:1844  msg.sender */\n      caller\n        /* \"new-contracts/EduVerifyAdmin.sol\":1823:1833  isGovernor */\n      0x00\n        /* \"new-contracts/EduVerifyAdmin.sol\":1823:1845  isGovernor[msg.sender] */\n      swap1\n      dup2\n      mstore\n      0x20\n      dup2\n      swap1\n      mstore\n      0x40\n      swap1\n      keccak256\n      sload\n      0xff\n      and\n        /* \"new-contracts/EduVerifyAdmin.sol\":1815:1864  require(isGovernor[msg.sender], \"Not a governor\") */\n      tag_79\n      jumpi\n      mload(0x40)\n      shl(0xe5, 0x461bcd)\n      dup2\n      mstore\n      0x04\n      add\n      tag_80\n      swap1\n      tag_81\n      jump\t// in\n    tag_80:\n      mload(0x40)\n      dup1\n      swap2\n      sub\n      swap1\n      revert\n    tag_79:\n        /* \"new-contracts/EduVerifyAdmin.sol\":3358:3383  Proposal storage proposal */\n      0x00\n        /* \"new-contracts/EduVerifyAdmin.sol\":3386:3395  proposals */\n      0x03\n        /* \"new-contracts/EduVerifyAdmin.sol\":3396:3406  proposalId */\n      dup3\n        /* \"new-contracts/EduVerifyAdmin.sol\":3386:3407  proposals[proposalId] */\n      dup2\n      sload\n      dup2\n      lt\n      tag_84\n      jumpi\n      tag_84\n      tag_85\n      jump\t// in\n    tag_84:\n      0x00\n      swap2\n      dup3\n      mstore\n      0x20\n      dup1\n      dup4\n      keccak256\n        /* \"new-contracts/EduVerifyAdmin.sol\":3444:3454  msg.sender */\n      caller\n        /* \"new-contracts/EduVerifyAdmin.sol\":3426:3455  proposal.hasVoted[msg.sender] */\n      dup5\n      mstore\n        /* \"new-contracts/EduVerifyAdmin.sol\":3426:3443  proposal.hasVoted */\n      0x05\n        /* \"new-contracts/EduVerifyAdmin.sol\":3386:3407  proposals[proposalId] */\n      0x06\n      swap1\n      swap4\n      mul\n      add\n        /* \"new-contracts/EduVerifyAdmin.sol\":3426:3443  proposal.hasVoted */\n      swap2\n      dup3\n      add\n        /* \"new-contracts/EduVerifyAdmin.sol\":3426:3455  proposal.hasVoted[msg.sender] */\n      swap1\n      mstore\n      0x40\n      swap1\n      swap2\n      keccak256\n      sload\n        /* \"new-contracts/EduVerifyAdmin.sol\":3386:3407  proposals[proposalId] */\n      swap1\n      swap2\n      pop\n        /* \"new-contracts/EduVerifyAdmin.sol\":3426:3455  proposal.hasVoted[msg.sender] */\n      0xff\n      and\n        /* \"new-contracts/EduVerifyAdmin.sol\":3425:3455  !proposal.hasVoted[msg.sender] */\n      iszero\n        /* \"new-contracts/EduVerifyAdmin.sol\":3417:3482  require(!proposal.hasVoted[msg.sender], \"Governor already voted\") */\n      tag_87\n      jumpi\n      mload(0x40)\n      shl(0xe5, 0x461bcd)\n      dup2\n      mstore\n        /* \"#utility.yul\":4022:4024   */\n      0x20\n        /* \"new-contracts/EduVerifyAdmin.sol\":3417:3482  require(!proposal.hasVoted[msg.sender], \"Governor already voted\") */\n      0x04\n      dup3\n      add\n        /* \"#utility.yul\":4004:4025   */\n      mstore\n        /* \"#utility.yul\":4061:4063   */\n      0x16\n        /* \"#utility.yul\":4041:4059   */\n      0x24\n      dup3\n      add\n        /* \"#utility.yul\":4034:4064   */\n      mstore\n      shl(0x52, 0x11dbdd995c9b9bdc88185b1c9958591e481d9bdd1959)\n        /* \"#utility.yul\":4080:4098   */\n      0x44\n      dup3\n      add\n        /* \"#utility.yul\":4073:4125   */\n      mstore\n        /* \"#utility.yul\":4142:4160   */\n      0x64\n      add\n        /* \"new-contracts/EduVerifyAdmin.sol\":3417:3482  require(!proposal.hasVoted[msg.sender], \"Governor already voted\") */\n      tag_80\n        /* \"#utility.yul\":3820:4166   */\n      jump\n        /* \"new-contracts/EduVerifyAdmin.sol\":3417:3482  require(!proposal.hasVoted[msg.sender], \"Governor already voted\") */\n    tag_87:\n        /* \"new-contracts/EduVerifyAdmin.sol\":3501:3518  proposal.executed */\n      0x04\n      dup2\n      add\n      sload\n      0xff\n      and\n        /* \"new-contracts/EduVerifyAdmin.sol\":3500:3518  !proposal.executed */\n      iszero\n        /* \"new-contracts/EduVerifyAdmin.sol\":3492:3548  require(!proposal.executed, \"Proposal already executed\") */\n      tag_90\n      jumpi\n      mload(0x40)\n      shl(0xe5, 0x461bcd)\n      dup2\n      mstore\n        /* \"#utility.yul\":4373:4375   */\n      0x20\n        /* \"new-contracts/EduVerifyAdmin.sol\":3492:3548  require(!proposal.executed, \"Proposal already executed\") */\n      0x04\n      dup3\n      add\n        /* \"#utility.yul\":4355:4376   */\n      mstore\n        /* \"#utility.yul\":4412:4414   */\n      0x19\n        /* \"#utility.yul\":4392:4410   */\n      0x24\n      dup3\n      add\n        /* \"#utility.yul\":4385:4415   */\n      mstore\n      shl(0x3a, 0x141c9bdc1bdcd85b08185b1c9958591e48195e1958dd5d1959)\n        /* \"#utility.yul\":4431:4449   */\n      0x44\n      dup3\n      add\n        /* \"#utility.yul\":4424:4479   */\n      mstore\n        /* \"#utility.yul\":4496:4514   */\n      0x64\n      add\n        /* \"new-contracts/EduVerifyAdmin.sol\":3492:3548  require(!proposal.executed, \"Proposal already executed\") */\n      tag_80\n        /* \"#utility.yul\":4171:4520   */\n      jump\n        /* \"new-contracts/EduVerifyAdmin.sol\":3492:3548  require(!proposal.executed, \"Proposal already executed\") */\n    tag_90:\n        /* \"new-contracts/EduVerifyAdmin.sol\":3585:3595  msg.sender */\n      caller\n        /* \"new-contracts/EduVerifyAdmin.sol\":3567:3596  proposal.hasVoted[msg.sender] */\n      0x00\n      swap1\n      dup2\n      mstore\n        /* \"new-contracts/EduVerifyAdmin.sol\":3567:3584  proposal.hasVoted */\n      0x05\n      dup3\n      add\n        /* \"new-contracts/EduVerifyAdmin.sol\":3567:3596  proposal.hasVoted[msg.sender] */\n      0x20\n      mstore\n      0x40\n      dup2\n      keccak256\n        /* \"new-contracts/EduVerifyAdmin.sol\":3567:3603  proposal.hasVoted[msg.sender] = true */\n      dup1\n      sload\n      not(0xff)\n      and\n        /* \"new-contracts/EduVerifyAdmin.sol\":3599:3603  true */\n      0x01\n        /* \"new-contracts/EduVerifyAdmin.sol\":3567:3603  proposal.hasVoted[msg.sender] = true */\n      swap1\n      dup2\n      or\n      swap1\n      swap2\n      sstore\n        /* \"new-contracts/EduVerifyAdmin.sol\":3613:3630  proposal.yesVotes */\n      0x02\n      dup4\n      add\n        /* \"new-contracts/EduVerifyAdmin.sol\":3613:3633  proposal.yesVotes+=1 */\n      dup1\n      sload\n        /* \"new-contracts/EduVerifyAdmin.sol\":3599:3603  true */\n      swap2\n      swap3\n        /* \"new-contracts/EduVerifyAdmin.sol\":3613:3630  proposal.yesVotes */\n      swap1\n      swap2\n        /* \"new-contracts/EduVerifyAdmin.sol\":3613:3633  proposal.yesVotes+=1 */\n      tag_93\n      swap1\n        /* \"new-contracts/EduVerifyAdmin.sol\":3599:3603  true */\n      dup5\n      swap1\n        /* \"new-contracts/EduVerifyAdmin.sol\":3613:3633  proposal.yesVotes+=1 */\n      tag_94\n      jump\t// in\n    tag_93:\n      swap1\n      swap2\n      sstore\n      pop\n      pop\n        /* \"new-contracts/EduVerifyAdmin.sol\":3648:3680  VoteCast(proposalId, msg.sender) */\n      mload(0x40)\n        /* \"new-contracts/EduVerifyAdmin.sol\":3669:3679  msg.sender */\n      caller\n      swap1\n        /* \"new-contracts/EduVerifyAdmin.sol\":3657:3667  proposalId */\n      dup4\n      swap1\n        /* \"new-contracts/EduVerifyAdmin.sol\":3648:3680  VoteCast(proposalId, msg.sender) */\n      0xf1003b73c437642c0460aee9cd9628b0b8c447b66e6c7c905531b9c644214a11\n      swap1\n      0x00\n      swap1\n      log3\n        /* \"new-contracts/EduVerifyAdmin.sol\":3348:3687  {... */\n      pop\n        /* \"new-contracts/EduVerifyAdmin.sol\":3295:3687  function vote(uint proposalId) external onlyGovernor {... */\n      pop\n      jump\t// out\n        /* \"new-contracts/EduVerifyAdmin.sol\":1421:1448  Proposal[] public proposals */\n    tag_26:\n      0x03\n      dup2\n      dup2\n      sload\n      dup2\n      lt\n      tag_95\n      jumpi\n      0x00\n      dup1\n      revert\n    tag_95:\n      0x00\n      swap2\n      dup3\n      mstore\n      0x20\n      swap1\n      swap2\n      keccak256\n      0x06\n      swap1\n      swap2\n      mul\n      add\n      dup1\n      sload\n      0x01\n      dup3\n      add\n      sload\n      0x02\n      dup4\n      add\n      sload\n      0x03\n      dup5\n      add\n      sload\n      0x04\n      swap1\n      swap5\n      add\n      sload\n      swap3\n      swap5\n      pop\n      0xff\n      dup1\n      dup4\n      and\n      swap5\n      0x0100\n      swap1\n      swap4\n      div\n      sub(shl(0xa0, 0x01), 0x01)\n      and\n      swap4\n      swap2\n      swap3\n      swap2\n      and\n      dup7\n      jump\t// out\n        /* \"new-contracts/EduVerifyAdmin.sol\":3697:5711  function executeProposal(uint proposalId) external onlyGovernor {... */\n    tag_31:\n        /* \"new-contracts/EduVerifyAdmin.sol\":1834:1844  msg.sender */\n      caller\n        /* \"new-contracts/EduVerifyAdmin.sol\":1823:1833  isGovernor */\n      0x00\n        /* \"new-contracts/EduVerifyAdmin.sol\":1823:1845  isGovernor[msg.sender] */\n      swap1\n      dup2\n      mstore\n      0x20\n      dup2\n      swap1\n      mstore\n      0x40\n      swap1\n      keccak256\n      sload\n      0xff\n      and\n        /* \"new-contracts/EduVerifyAdmin.sol\":1815:1864  require(isGovernor[msg.sender], \"Not a governor\") */\n      tag_98\n      jumpi\n      mload(0x40)\n      shl(0xe5, 0x461bcd)\n      dup2\n      mstore\n      0x04\n      add\n      tag_80\n      swap1\n      tag_81\n      jump\t// in\n    tag_98:\n        /* \"new-contracts/EduVerifyAdmin.sol\":3771:3796  Proposal storage proposal */\n      0x00\n        /* \"new-contracts/EduVerifyAdmin.sol\":3799:3808  proposals */\n      0x03\n        /* \"new-contracts/EduVerifyAdmin.sol\":3809:3819  proposalId */\n      dup3\n        /* \"new-contracts/EduVerifyAdmin.sol\":3799:3820  proposals[proposalId] */\n      dup2\n      sload\n      dup2\n      lt\n      tag_102\n      jumpi\n      tag_102\n      tag_85\n      jump\t// in\n    tag_102:\n      swap1\n      0x00\n      mstore\n      keccak256(0x00, 0x20)\n      swap1\n      0x06\n      mul\n      add\n        /* \"new-contracts/EduVerifyAdmin.sol\":3771:3820  Proposal storage proposal = proposals[proposalId] */\n      swap1\n      pop\n        /* \"new-contracts/EduVerifyAdmin.sol\":3830:3852  uint requiredThreshold */\n      0x00\n        /* \"new-contracts/EduVerifyAdmin.sol\":3889:3890  2 */\n      0x02\n        /* \"new-contracts/EduVerifyAdmin.sol\":3856:3864  proposal */\n      dup3\n        /* \"new-contracts/EduVerifyAdmin.sol\":3856:3886  proposal.snapshotGovernorCount */\n      0x03\n      add\n      sload\n        /* \"new-contracts/EduVerifyAdmin.sol\":3856:3890  proposal.snapshotGovernorCount / 2 */\n      tag_104\n      swap2\n      swap1\n      tag_105\n      jump\t// in\n    tag_104:\n        /* \"new-contracts/EduVerifyAdmin.sol\":3855:3895  (proposal.snapshotGovernorCount / 2) + 1 */\n      tag_106\n      swap1\n        /* \"new-contracts/EduVerifyAdmin.sol\":3894:3895  1 */\n      0x01\n        /* \"new-contracts/EduVerifyAdmin.sol\":3855:3895  (proposal.snapshotGovernorCount / 2) + 1 */\n      tag_94\n      jump\t// in\n    tag_106:\n        /* \"new-contracts/EduVerifyAdmin.sol\":3830:3895  uint requiredThreshold = (proposal.snapshotGovernorCount / 2) + 1 */\n      swap1\n      pop\n        /* \"new-contracts/EduVerifyAdmin.sol\":3943:3960  requiredThreshold */\n      dup1\n        /* \"new-contracts/EduVerifyAdmin.sol\":3922:3930  proposal */\n      dup3\n        /* \"new-contracts/EduVerifyAdmin.sol\":3922:3939  proposal.yesVotes */\n      0x02\n      add\n      sload\n        /* \"new-contracts/EduVerifyAdmin.sol\":3922:3960  proposal.yesVotes >= requiredThreshold */\n      lt\n      iszero\n        /* \"new-contracts/EduVerifyAdmin.sol\":3914:4003  require(proposal.yesVotes >= requiredThreshold, \"Insufficient votes to execute proposal\") */\n      tag_107\n      jumpi\n      mload(0x40)\n      shl(0xe5, 0x461bcd)\n      dup2\n      mstore\n        /* \"#utility.yul\":5211:5213   */\n      0x20\n        /* \"new-contracts/EduVerifyAdmin.sol\":3914:4003  require(proposal.yesVotes >= requiredThreshold, \"Insufficient votes to execute proposal\") */\n      0x04\n      dup3\n      add\n        /* \"#utility.yul\":5193:5214   */\n      mstore\n        /* \"#utility.yul\":5250:5252   */\n      0x26\n        /* \"#utility.yul\":5230:5248   */\n      0x24\n      dup3\n      add\n        /* \"#utility.yul\":5223:5253   */\n      mstore\n        /* \"#utility.yul\":5289:5323   */\n      0x496e73756666696369656e7420766f74657320746f2065786563757465207072\n        /* \"#utility.yul\":5269:5287   */\n      0x44\n      dup3\n      add\n        /* \"#utility.yul\":5262:5324   */\n      mstore\n      shl(0xd2, 0x1bdc1bdcd85b)\n        /* \"#utility.yul\":5340:5358   */\n      0x64\n      dup3\n      add\n        /* \"#utility.yul\":5333:5369   */\n      mstore\n        /* \"#utility.yul\":5386:5405   */\n      0x84\n      add\n        /* \"new-contracts/EduVerifyAdmin.sol\":3914:4003  require(proposal.yesVotes >= requiredThreshold, \"Insufficient votes to execute proposal\") */\n      tag_80\n        /* \"#utility.yul\":5009:5411   */\n      jump\n        /* \"new-contracts/EduVerifyAdmin.sol\":3914:4003  require(proposal.yesVotes >= requiredThreshold, \"Insufficient votes to execute proposal\") */\n    tag_107:\n        /* \"new-contracts/EduVerifyAdmin.sol\":4022:4039  proposal.executed */\n      0x04\n      dup3\n      add\n      sload\n      0xff\n      and\n        /* \"new-contracts/EduVerifyAdmin.sol\":4021:4039  !proposal.executed */\n      iszero\n        /* \"new-contracts/EduVerifyAdmin.sol\":4013:4069  require(!proposal.executed, \"Proposal already executed\") */\n      tag_110\n      jumpi\n      mload(0x40)\n      shl(0xe5, 0x461bcd)\n      dup2\n      mstore\n        /* \"#utility.yul\":4373:4375   */\n      0x20\n        /* \"new-contracts/EduVerifyAdmin.sol\":4013:4069  require(!proposal.executed, \"Proposal already executed\") */\n      0x04\n      dup3\n      add\n        /* \"#utility.yul\":4355:4376   */\n      mstore\n        /* \"#utility.yul\":4412:4414   */\n      0x19\n        /* \"#utility.yul\":4392:4410   */\n      0x24\n      dup3\n      add\n        /* \"#utility.yul\":4385:4415   */\n      mstore\n      shl(0x3a, 0x141c9bdc1bdcd85b08185b1c9958591e48195e1958dd5d1959)\n        /* \"#utility.yul\":4431:4449   */\n      0x44\n      dup3\n      add\n        /* \"#utility.yul\":4424:4479   */\n      mstore\n        /* \"#utility.yul\":4496:4514   */\n      0x64\n      add\n        /* \"new-contracts/EduVerifyAdmin.sol\":4013:4069  require(!proposal.executed, \"Proposal already executed\") */\n      tag_80\n        /* \"#utility.yul\":4171:4520   */\n      jump\n        /* \"new-contracts/EduVerifyAdmin.sol\":4013:4069  require(!proposal.executed, \"Proposal already executed\") */\n    tag_110:\n        /* \"new-contracts/EduVerifyAdmin.sol\":4110:4131  Action.AddInstitution */\n      0x00\n        /* \"new-contracts/EduVerifyAdmin.sol\":4091:4106  proposal.action */\n      0x01\n      dup4\n      add\n      sload\n      0xff\n      and\n        /* \"new-contracts/EduVerifyAdmin.sol\":4091:4131  proposal.action == Action.AddInstitution */\n      0x03\n      dup2\n      gt\n      iszero\n      tag_116\n      jumpi\n      tag_116\n      tag_114\n      jump\t// in\n    tag_116:\n      sub\n        /* \"new-contracts/EduVerifyAdmin.sol\":4088:5619  if(proposal.action == Action.AddInstitution) {... */\n      tag_117\n      jumpi\n        /* \"new-contracts/EduVerifyAdmin.sol\":4166:4175  eduVerify */\n      sload(0x02)\n      0x01\n        /* \"new-contracts/EduVerifyAdmin.sol\":4238:4253  proposal.target */\n      dup4\n      add\n      sload\n        /* \"new-contracts/EduVerifyAdmin.sol\":4181:4254  abi.encodeWithSignature(\"authorizeInstitution(address)\", proposal.target) */\n      mload(0x40)\n        /* \"new-contracts/EduVerifyAdmin.sol\":4166:4175  eduVerify */\n      0x0100\n        /* \"new-contracts/EduVerifyAdmin.sol\":4238:4253  proposal.target */\n      swap1\n      swap2\n      div\n      sub(shl(0xa0, 0x01), 0x01)\n      swap1\n      dup2\n      and\n        /* \"new-contracts/EduVerifyAdmin.sol\":4181:4254  abi.encodeWithSignature(\"authorizeInstitution(address)\", proposal.target) */\n      0x24\n      dup4\n      add\n        /* \"#utility.yul\":2747:2798   */\n      mstore\n        /* \"new-contracts/EduVerifyAdmin.sol\":4148:4160  bool success */\n      0x00\n      swap3\n        /* \"new-contracts/EduVerifyAdmin.sol\":4166:4175  eduVerify */\n      and\n      swap1\n        /* \"#utility.yul\":2720:2738   */\n      0x44\n      add\n        /* \"new-contracts/EduVerifyAdmin.sol\":4181:4254  abi.encodeWithSignature(\"authorizeInstitution(address)\", proposal.target) */\n      0x40\n      dup1\n      mload\n      not(0x1f)\n      dup2\n      dup5\n      sub\n      add\n      dup2\n      mstore\n      swap2\n      dup2\n      mstore\n      0x20\n      dup3\n      add\n      dup1\n      mload\n      sub(shl(0xe0, 0x01), 0x01)\n      and\n      shl(0xe0, 0xbd4d8bcb)\n      or\n      swap1\n      mstore\n        /* \"new-contracts/EduVerifyAdmin.sol\":4166:4255  eduVerify.call(abi.encodeWithSignature(\"authorizeInstitution(address)\", proposal.target)) */\n      mload\n      tag_119\n      swap2\n        /* \"new-contracts/EduVerifyAdmin.sol\":4181:4254  abi.encodeWithSignature(\"authorizeInstitution(address)\", proposal.target) */\n      swap1\n        /* \"new-contracts/EduVerifyAdmin.sol\":4166:4255  eduVerify.call(abi.encodeWithSignature(\"authorizeInstitution(address)\", proposal.target)) */\n      tag_120\n      jump\t// in\n    tag_119:\n      0x00\n      mload(0x40)\n      dup1\n      dup4\n      sub\n      dup2\n      0x00\n      dup7\n      gas\n      call\n      swap2\n      pop\n      pop\n      returndatasize\n      dup1\n      0x00\n      dup2\n      eq\n      tag_123\n      jumpi\n      mload(0x40)\n      swap2\n      pop\n      and(add(returndatasize, 0x3f), not(0x1f))\n      dup3\n      add\n      0x40\n      mstore\n      returndatasize\n      dup3\n      mstore\n      returndatasize\n      0x00\n      0x20\n      dup5\n      add\n      returndatacopy\n      jump(tag_122)\n    tag_123:\n      0x60\n      swap2\n      pop\n    tag_122:\n      pop\n        /* \"new-contracts/EduVerifyAdmin.sol\":4147:4255  (bool success, ) = eduVerify.call(abi.encodeWithSignature(\"authorizeInstitution(address)\", proposal.target)) */\n      pop\n      swap1\n      pop\n        /* \"new-contracts/EduVerifyAdmin.sol\":4277:4284  success */\n      dup1\n        /* \"new-contracts/EduVerifyAdmin.sol\":4269:4309  require(success, \"Authorization failed\") */\n      tag_124\n      jumpi\n      mload(0x40)\n      shl(0xe5, 0x461bcd)\n      dup2\n      mstore\n        /* \"#utility.yul\":5924:5926   */\n      0x20\n        /* \"new-contracts/EduVerifyAdmin.sol\":4269:4309  require(success, \"Authorization failed\") */\n      0x04\n      dup3\n      add\n        /* \"#utility.yul\":5906:5927   */\n      mstore\n        /* \"#utility.yul\":5963:5965   */\n      0x14\n        /* \"#utility.yul\":5943:5961   */\n      0x24\n      dup3\n      add\n        /* \"#utility.yul\":5936:5966   */\n      mstore\n      shl(0x62, 0x105d5d1a1bdc9a5e985d1a5bdb8819985a5b1959)\n        /* \"#utility.yul\":5982:6000   */\n      0x44\n      dup3\n      add\n        /* \"#utility.yul\":5975:6025   */\n      mstore\n        /* \"#utility.yul\":6042:6060   */\n      0x64\n      add\n        /* \"new-contracts/EduVerifyAdmin.sol\":4269:4309  require(success, \"Authorization failed\") */\n      tag_80\n        /* \"#utility.yul\":5722:6066   */\n      jump\n        /* \"new-contracts/EduVerifyAdmin.sol\":4269:4309  require(success, \"Authorization failed\") */\n    tag_124:\n        /* \"new-contracts/EduVerifyAdmin.sol\":4133:4320  {... */\n      pop\n        /* \"new-contracts/EduVerifyAdmin.sol\":4088:5619  if(proposal.action == Action.AddInstitution) {... */\n      jump(tag_156)\n    tag_117:\n        /* \"new-contracts/EduVerifyAdmin.sol\":4356:4380  Action.RevokeInstitution */\n      0x01\n        /* \"new-contracts/EduVerifyAdmin.sol\":4337:4352  proposal.action */\n      dup1\n      dup4\n      add\n      sload\n      0xff\n      and\n        /* \"new-contracts/EduVerifyAdmin.sol\":4337:4380  proposal.action == Action.RevokeInstitution */\n      0x03\n      dup2\n      gt\n      iszero\n      tag_131\n      jumpi\n      tag_131\n      tag_114\n      jump\t// in\n    tag_131:\n      sub\n        /* \"new-contracts/EduVerifyAdmin.sol\":4334:5619  if(proposal.action == Action.RevokeInstitution) {... */\n      tag_132\n      jumpi\n        /* \"new-contracts/EduVerifyAdmin.sol\":4415:4424  eduVerify */\n      sload(0x02)\n      0x01\n        /* \"new-contracts/EduVerifyAdmin.sol\":4484:4499  proposal.target */\n      dup4\n      add\n      sload\n        /* \"new-contracts/EduVerifyAdmin.sol\":4430:4500  abi.encodeWithSignature(\"revokeInstitution(address)\", proposal.target) */\n      mload(0x40)\n        /* \"new-contracts/EduVerifyAdmin.sol\":4415:4424  eduVerify */\n      0x0100\n        /* \"new-contracts/EduVerifyAdmin.sol\":4484:4499  proposal.target */\n      swap1\n      swap2\n      div\n      sub(shl(0xa0, 0x01), 0x01)\n      swap1\n      dup2\n      and\n        /* \"new-contracts/EduVerifyAdmin.sol\":4430:4500  abi.encodeWithSignature(\"revokeInstitution(address)\", proposal.target) */\n      0x24\n      dup4\n      add\n        /* \"#utility.yul\":2747:2798   */\n      mstore\n        /* \"new-contracts/EduVerifyAdmin.sol\":4397:4409  bool success */\n      0x00\n      swap3\n        /* \"new-contracts/EduVerifyAdmin.sol\":4415:4424  eduVerify */\n      and\n      swap1\n        /* \"#utility.yul\":2720:2738   */\n      0x44\n      add\n        /* \"new-contracts/EduVerifyAdmin.sol\":4430:4500  abi.encodeWithSignature(\"revokeInstitution(address)\", proposal.target) */\n      0x40\n      dup1\n      mload\n      not(0x1f)\n      dup2\n      dup5\n      sub\n      add\n      dup2\n      mstore\n      swap2\n      dup2\n      mstore\n      0x20\n      dup3\n      add\n      dup1\n      mload\n      sub(shl(0xe0, 0x01), 0x01)\n      and\n      shl(0xe1, 0x0e33a4a7)\n      or\n      swap1\n      mstore\n        /* \"new-contracts/EduVerifyAdmin.sol\":4415:4501  eduVerify.call(abi.encodeWithSignature(\"revokeInstitution(address)\", proposal.target)) */\n      mload\n      tag_134\n      swap2\n        /* \"new-contracts/EduVerifyAdmin.sol\":4430:4500  abi.encodeWithSignature(\"revokeInstitution(address)\", proposal.target) */\n      swap1\n        /* \"new-contracts/EduVerifyAdmin.sol\":4415:4501  eduVerify.call(abi.encodeWithSignature(\"revokeInstitution(address)\", proposal.target)) */\n      tag_120\n      jump\t// in\n    tag_134:\n      0x00\n      mload(0x40)\n      dup1\n      dup4\n      sub\n      dup2\n      0x00\n      dup7\n      gas\n      call\n      swap2\n      pop\n      pop\n      returndatasize\n      dup1\n      0x00\n      dup2\n      eq\n      tag_137\n      jumpi\n      mload(0x40)\n      swap2\n      pop\n      and(add(returndatasize, 0x3f), not(0x1f))\n      dup3\n      add\n      0x40\n      mstore\n      returndatasize\n      dup3\n      mstore\n      returndatasize\n      0x00\n      0x20\n      dup5\n      add\n      returndatacopy\n      jump(tag_136)\n    tag_137:\n      0x60\n      swap2\n      pop\n    tag_136:\n      pop\n        /* \"new-contracts/EduVerifyAdmin.sol\":4396:4501  (bool success, ) = eduVerify.call(abi.encodeWithSignature(\"revokeInstitution(address)\", proposal.target)) */\n      pop\n      swap1\n      pop\n        /* \"new-contracts/EduVerifyAdmin.sol\":4523:4530  success */\n      dup1\n        /* \"new-contracts/EduVerifyAdmin.sol\":4515:4552  require(success, \"Revocation failed\") */\n      tag_124\n      jumpi\n      mload(0x40)\n      shl(0xe5, 0x461bcd)\n      dup2\n      mstore\n        /* \"#utility.yul\":6273:6275   */\n      0x20\n        /* \"new-contracts/EduVerifyAdmin.sol\":4515:4552  require(success, \"Revocation failed\") */\n      0x04\n      dup3\n      add\n        /* \"#utility.yul\":6255:6276   */\n      mstore\n        /* \"#utility.yul\":6312:6314   */\n      0x11\n        /* \"#utility.yul\":6292:6310   */\n      0x24\n      dup3\n      add\n        /* \"#utility.yul\":6285:6315   */\n      mstore\n      shl(0x7a, 0x14995d9bd8d85d1a5bdb8819985a5b1959)\n        /* \"#utility.yul\":6331:6349   */\n      0x44\n      dup3\n      add\n        /* \"#utility.yul\":6324:6371   */\n      mstore\n        /* \"#utility.yul\":6388:6406   */\n      0x64\n      add\n        /* \"new-contracts/EduVerifyAdmin.sol\":4515:4552  require(success, \"Revocation failed\") */\n      tag_80\n        /* \"#utility.yul\":6071:6412   */\n      jump\n        /* \"new-contracts/EduVerifyAdmin.sol\":4334:5619  if(proposal.action == Action.RevokeInstitution) {... */\n    tag_132:\n        /* \"new-contracts/EduVerifyAdmin.sol\":4599:4617  Action.AddGovernor */\n      0x02\n        /* \"new-contracts/EduVerifyAdmin.sol\":4580:4595  proposal.action */\n      0x01\n      dup4\n      add\n      sload\n      0xff\n      and\n        /* \"new-contracts/EduVerifyAdmin.sol\":4580:4617  proposal.action == Action.AddGovernor */\n      0x03\n      dup2\n      gt\n      iszero\n      tag_145\n      jumpi\n      tag_145\n      tag_114\n      jump\t// in\n    tag_145:\n      sub\n        /* \"new-contracts/EduVerifyAdmin.sol\":4577:5619  if(proposal.action == Action.AddGovernor) {... */\n      tag_146\n      jumpi\n        /* \"new-contracts/EduVerifyAdmin.sol\":4656:4671  proposal.target */\n      0x01\n      dup3\n      add\n      sload\n      0x0100\n      swap1\n      div\n      sub(shl(0xa0, 0x01), 0x01)\n      and\n        /* \"new-contracts/EduVerifyAdmin.sol\":4633:4653  address _addr_target */\n      0x00\n        /* \"new-contracts/EduVerifyAdmin.sol\":4694:4718  isGovernor[_addr_target] */\n      dup2\n      dup2\n      mstore\n      0x20\n      dup2\n      swap1\n      mstore\n      0x40\n      swap1\n      keccak256\n      sload\n      0xff\n      and\n        /* \"new-contracts/EduVerifyAdmin.sol\":4693:4718  !isGovernor[_addr_target] */\n      iszero\n        /* \"new-contracts/EduVerifyAdmin.sol\":4685:4751  require(!isGovernor[_addr_target], \"Target is already a governor\") */\n      tag_147\n      jumpi\n      mload(0x40)\n      shl(0xe5, 0x461bcd)\n      dup2\n      mstore\n        /* \"#utility.yul\":6619:6621   */\n      0x20\n        /* \"new-contracts/EduVerifyAdmin.sol\":4685:4751  require(!isGovernor[_addr_target], \"Target is already a governor\") */\n      0x04\n      dup3\n      add\n        /* \"#utility.yul\":6601:6622   */\n      mstore\n        /* \"#utility.yul\":6658:6660   */\n      0x1c\n        /* \"#utility.yul\":6638:6656   */\n      0x24\n      dup3\n      add\n        /* \"#utility.yul\":6631:6661   */\n      mstore\n        /* \"#utility.yul\":6697:6727   */\n      0x54617267657420697320616c7265616479206120676f7665726e6f7200000000\n        /* \"#utility.yul\":6677:6695   */\n      0x44\n      dup3\n      add\n        /* \"#utility.yul\":6670:6728   */\n      mstore\n        /* \"#utility.yul\":6745:6763   */\n      0x64\n      add\n        /* \"new-contracts/EduVerifyAdmin.sol\":4685:4751  require(!isGovernor[_addr_target], \"Target is already a governor\") */\n      tag_80\n        /* \"#utility.yul\":6417:6769   */\n      jump\n        /* \"new-contracts/EduVerifyAdmin.sol\":4685:4751  require(!isGovernor[_addr_target], \"Target is already a governor\") */\n    tag_147:\n      sub(shl(0xa0, 0x01), 0x01)\n        /* \"new-contracts/EduVerifyAdmin.sol\":4765:4789  isGovernor[_addr_target] */\n      dup2\n      and\n        /* \"new-contracts/EduVerifyAdmin.sol\":4765:4775  isGovernor */\n      0x00\n        /* \"new-contracts/EduVerifyAdmin.sol\":4765:4789  isGovernor[_addr_target] */\n      dup2\n      dup2\n      mstore\n      0x20\n      dup2\n      swap1\n      mstore\n      0x40\n      dup1\n      dup3\n      keccak256\n        /* \"new-contracts/EduVerifyAdmin.sol\":4765:4796  isGovernor[_addr_target] = true */\n      dup1\n      sload\n      not(0xff)\n      and\n        /* \"new-contracts/EduVerifyAdmin.sol\":4792:4796  true */\n      0x01\n        /* \"new-contracts/EduVerifyAdmin.sol\":4765:4796  isGovernor[_addr_target] = true */\n      swap1\n      dup2\n      or\n      swap1\n      swap2\n      sstore\n        /* \"new-contracts/EduVerifyAdmin.sol\":4810:4838  governors.push(_addr_target) */\n      dup1\n      sload\n      dup1\n      dup3\n      add\n      dup3\n      sstore\n      swap1\n      dup4\n      mstore\n      0xb10e2d527612073b26eecdfd717e6a320cf44b4afac2b0732d9fcbe2b7fa0cf6\n      add\n      dup1\n      sload\n      not(sub(shl(0xa0, 0x01), 0x01))\n      and\n      dup5\n      or\n      swap1\n      sstore\n        /* \"new-contracts/EduVerifyAdmin.sol\":4857:4884  GovernorAdded(_addr_target) */\n      mload\n      0xdc5a48d79e2e147530ff63ecdbed5a5a66adb9d5cf339384d5d076da197c40b5\n      swap2\n        /* \"new-contracts/EduVerifyAdmin.sol\":4765:4775  isGovernor */\n      swap1\n        /* \"new-contracts/EduVerifyAdmin.sol\":4857:4884  GovernorAdded(_addr_target) */\n      log2\n        /* \"new-contracts/EduVerifyAdmin.sol\":4619:4895  {... */\n      pop\n        /* \"new-contracts/EduVerifyAdmin.sol\":4577:5619  if(proposal.action == Action.AddGovernor) {... */\n      jump(tag_156)\n    tag_146:\n        /* \"new-contracts/EduVerifyAdmin.sol\":4931:4952  Action.RevokeGovernor */\n      0x03\n        /* \"new-contracts/EduVerifyAdmin.sol\":4912:4927  proposal.action */\n      0x01\n      dup4\n      add\n      sload\n      0xff\n      and\n        /* \"new-contracts/EduVerifyAdmin.sol\":4912:4952  proposal.action == Action.RevokeGovernor */\n      0x03\n      dup2\n      gt\n      iszero\n      tag_155\n      jumpi\n      tag_155\n      tag_114\n      jump\t// in\n    tag_155:\n      sub\n        /* \"new-contracts/EduVerifyAdmin.sol\":4909:5619  if(proposal.action == Action.RevokeGovernor) {... */\n      tag_156\n      jumpi\n        /* \"new-contracts/EduVerifyAdmin.sol\":4991:5006  proposal.target */\n      0x01\n      dup3\n      add\n      sload\n      0x0100\n      swap1\n      div\n      sub(shl(0xa0, 0x01), 0x01)\n      and\n        /* \"new-contracts/EduVerifyAdmin.sol\":4968:4988  address _addr_target */\n      0x00\n        /* \"new-contracts/EduVerifyAdmin.sol\":5028:5052  isGovernor[_addr_target] */\n      dup2\n      dup2\n      mstore\n      0x20\n      dup2\n      swap1\n      mstore\n      0x40\n      swap1\n      keccak256\n      sload\n      0xff\n      and\n        /* \"new-contracts/EduVerifyAdmin.sol\":5020:5071  require(isGovernor[_addr_target], \"Not a governor\") */\n      tag_157\n      jumpi\n      mload(0x40)\n      shl(0xe5, 0x461bcd)\n      dup2\n      mstore\n      0x04\n      add\n      tag_80\n      swap1\n      tag_81\n      jump\t// in\n    tag_157:\n        /* \"new-contracts/EduVerifyAdmin.sol\":5093:5102  governors */\n      0x01\n        /* \"new-contracts/EduVerifyAdmin.sol\":5093:5109  governors.length */\n      sload\n        /* \"new-contracts/EduVerifyAdmin.sol\":5113:5114  2 */\n      0x02\n      gt\n        /* \"new-contracts/EduVerifyAdmin.sol\":5093:5114  governors.length >= 2 */\n      iszero\n        /* \"new-contracts/EduVerifyAdmin.sol\":5085:5157  require(governors.length >= 2, \"Two governors cannot remove each other\") */\n      tag_159\n      jumpi\n      mload(0x40)\n      shl(0xe5, 0x461bcd)\n      dup2\n      mstore\n        /* \"#utility.yul\":6976:6978   */\n      0x20\n        /* \"new-contracts/EduVerifyAdmin.sol\":5085:5157  require(governors.length >= 2, \"Two governors cannot remove each other\") */\n      0x04\n      dup3\n      add\n        /* \"#utility.yul\":6958:6979   */\n      mstore\n        /* \"#utility.yul\":7015:7017   */\n      0x26\n        /* \"#utility.yul\":6995:7013   */\n      0x24\n      dup3\n      add\n        /* \"#utility.yul\":6988:7018   */\n      mstore\n        /* \"#utility.yul\":7054:7088   */\n      0x54776f20676f7665726e6f72732063616e6e6f742072656d6f76652065616368\n        /* \"#utility.yul\":7034:7052   */\n      0x44\n      dup3\n      add\n        /* \"#utility.yul\":7027:7089   */\n      mstore\n      shl(0xd1, 0x1037ba3432b9)\n        /* \"#utility.yul\":7105:7123   */\n      0x64\n      dup3\n      add\n        /* \"#utility.yul\":7098:7134   */\n      mstore\n        /* \"#utility.yul\":7151:7170   */\n      0x84\n      add\n        /* \"new-contracts/EduVerifyAdmin.sol\":5085:5157  require(governors.length >= 2, \"Two governors cannot remove each other\") */\n      tag_80\n        /* \"#utility.yul\":6774:7176   */\n      jump\n        /* \"new-contracts/EduVerifyAdmin.sol\":5085:5157  require(governors.length >= 2, \"Two governors cannot remove each other\") */\n    tag_159:\n      sub(shl(0xa0, 0x01), 0x01)\n        /* \"new-contracts/EduVerifyAdmin.sol\":5171:5195  isGovernor[_addr_target] */\n      dup2\n      and\n        /* \"new-contracts/EduVerifyAdmin.sol\":5198:5203  false */\n      0x00\n        /* \"new-contracts/EduVerifyAdmin.sol\":5171:5195  isGovernor[_addr_target] */\n      swap1\n      dup2\n      mstore\n      0x20\n      dup2\n      swap1\n      mstore\n      0x40\n      dup2\n      keccak256\n        /* \"new-contracts/EduVerifyAdmin.sol\":5171:5203  isGovernor[_addr_target] = false */\n      dup1\n      sload\n      not(0xff)\n      and\n      swap1\n      sstore\n      0x01\n        /* \"new-contracts/EduVerifyAdmin.sol\":5232:5248  governors.length */\n      sload\n      swap1\n        /* \"new-contracts/EduVerifyAdmin.sol\":5274:5545  for (uint i = 0; i < length;) {... */\n    tag_162:\n        /* \"new-contracts/EduVerifyAdmin.sol\":5295:5301  length */\n      dup2\n        /* \"new-contracts/EduVerifyAdmin.sol\":5291:5292  i */\n      dup2\n        /* \"new-contracts/EduVerifyAdmin.sol\":5291:5301  i < length */\n      lt\n        /* \"new-contracts/EduVerifyAdmin.sol\":5274:5545  for (uint i = 0; i < length;) {... */\n      iszero\n      tag_163\n      jumpi\n        /* \"new-contracts/EduVerifyAdmin.sol\":5342:5354  _addr_target */\n      dup3\n      sub(shl(0xa0, 0x01), 0x01)\n        /* \"new-contracts/EduVerifyAdmin.sol\":5326:5354  governors[i] == _addr_target */\n      and\n        /* \"new-contracts/EduVerifyAdmin.sol\":5326:5335  governors */\n      0x01\n        /* \"new-contracts/EduVerifyAdmin.sol\":5336:5337  i */\n      dup3\n        /* \"new-contracts/EduVerifyAdmin.sol\":5326:5338  governors[i] */\n      dup2\n      sload\n      dup2\n      lt\n      tag_166\n      jumpi\n      tag_166\n      tag_85\n      jump\t// in\n    tag_166:\n      0x00\n      swap2\n      dup3\n      mstore\n      0x20\n      swap1\n      swap2\n      keccak256\n      add\n      sload\n      sub(shl(0xa0, 0x01), 0x01)\n      and\n        /* \"new-contracts/EduVerifyAdmin.sol\":5326:5354  governors[i] == _addr_target */\n      sub\n        /* \"new-contracts/EduVerifyAdmin.sol\":5322:5497  if (governors[i] == _addr_target) {... */\n      tag_168\n      jumpi\n        /* \"new-contracts/EduVerifyAdmin.sol\":5393:5402  governors */\n      0x01\n        /* \"new-contracts/EduVerifyAdmin.sol\":5403:5413  length - 1 */\n      tag_169\n        /* \"new-contracts/EduVerifyAdmin.sol\":5393:5402  governors */\n      dup2\n        /* \"new-contracts/EduVerifyAdmin.sol\":5403:5409  length */\n      dup5\n        /* \"new-contracts/EduVerifyAdmin.sol\":5403:5413  length - 1 */\n      tag_170\n      jump\t// in\n    tag_169:\n        /* \"new-contracts/EduVerifyAdmin.sol\":5393:5414  governors[length - 1] */\n      dup2\n      sload\n      dup2\n      lt\n      tag_172\n      jumpi\n      tag_172\n      tag_85\n      jump\t// in\n    tag_172:\n      0x00\n      swap2\n      dup3\n      mstore\n      0x20\n      swap1\n      swap2\n      keccak256\n      add\n      sload\n      0x01\n        /* \"new-contracts/EduVerifyAdmin.sol\":5378:5390  governors[i] */\n      dup1\n      sload\n      sub(shl(0xa0, 0x01), 0x01)\n        /* \"new-contracts/EduVerifyAdmin.sol\":5393:5414  governors[length - 1] */\n      swap1\n      swap3\n      and\n      swap2\n        /* \"new-contracts/EduVerifyAdmin.sol\":5388:5389  i */\n      dup4\n      swap1\n        /* \"new-contracts/EduVerifyAdmin.sol\":5378:5390  governors[i] */\n      dup2\n      lt\n      tag_175\n      jumpi\n      tag_175\n      tag_85\n      jump\t// in\n    tag_175:\n      swap1\n      0x00\n      mstore\n      keccak256(0x00, 0x20)\n      add\n      0x00\n        /* \"new-contracts/EduVerifyAdmin.sol\":5378:5414  governors[i] = governors[length - 1] */\n      0x0100\n      exp\n      dup2\n      sload\n      dup2\n      sub(shl(0xa0, 0x01), 0x01)\n      mul\n      not\n      and\n      swap1\n      dup4\n      sub(shl(0xa0, 0x01), 0x01)\n      and\n      mul\n      or\n      swap1\n      sstore\n      pop\n        /* \"new-contracts/EduVerifyAdmin.sol\":5436:5445  governors */\n      0x01\n        /* \"new-contracts/EduVerifyAdmin.sol\":5436:5451  governors.pop() */\n      dup1\n      sload\n      dup1\n      tag_178\n      jumpi\n      tag_178\n      tag_179\n      jump\t// in\n    tag_178:\n      0x00\n      dup3\n      dup2\n      mstore\n      0x20\n      swap1\n      keccak256\n      dup2\n      add\n      not(0x00)\n      swap1\n      dup2\n      add\n      dup1\n      sload\n      not(sub(shl(0xa0, 0x01), 0x01))\n      and\n      swap1\n      sstore\n      add\n      swap1\n      sstore\n        /* \"new-contracts/EduVerifyAdmin.sol\":5473:5478  break */\n      jump(tag_163)\n        /* \"new-contracts/EduVerifyAdmin.sol\":5322:5497  if (governors[i] == _addr_target) {... */\n    tag_168:\n        /* \"new-contracts/EduVerifyAdmin.sol\":5525:5528  ++i */\n      0x01\n      add\n        /* \"new-contracts/EduVerifyAdmin.sol\":5274:5545  for (uint i = 0; i < length;) {... */\n      jump(tag_162)\n    tag_163:\n      pop\n        /* \"new-contracts/EduVerifyAdmin.sol\":5592:5607  proposal.target */\n      0x01\n      dup5\n      add\n      sload\n        /* \"new-contracts/EduVerifyAdmin.sol\":5576:5608  GovernorRemoved(proposal.target) */\n      mload(0x40)\n        /* \"new-contracts/EduVerifyAdmin.sol\":5592:5607  proposal.target */\n      0x0100\n      swap1\n      swap2\n      div\n      sub(shl(0xa0, 0x01), 0x01)\n      and\n      swap1\n        /* \"new-contracts/EduVerifyAdmin.sol\":5576:5608  GovernorRemoved(proposal.target) */\n      0x1ebe834e73d60a5fec822c1e1727d34bc79f2ad977ed504581cc1822fe20fb5b\n      swap1\n      0x00\n      swap1\n      log2\n        /* \"new-contracts/EduVerifyAdmin.sol\":4954:5619  {... */\n      pop\n      pop\n        /* \"new-contracts/EduVerifyAdmin.sol\":4909:5619  if(proposal.action == Action.RevokeGovernor) {... */\n    tag_156:\n        /* \"new-contracts/EduVerifyAdmin.sol\":5637:5654  proposal.executed */\n      0x04\n      dup3\n      add\n        /* \"new-contracts/EduVerifyAdmin.sol\":5637:5661  proposal.executed = true */\n      dup1\n      sload\n      not(0xff)\n      and\n        /* \"new-contracts/EduVerifyAdmin.sol\":5657:5661  true */\n      0x01\n        /* \"new-contracts/EduVerifyAdmin.sol\":5637:5661  proposal.executed = true */\n      or\n      swap1\n      sstore\n        /* \"new-contracts/EduVerifyAdmin.sol\":5676:5704  ProposalExecuted(proposalId) */\n      mload(0x40)\n        /* \"new-contracts/EduVerifyAdmin.sol\":5693:5703  proposalId */\n      dup4\n      swap1\n        /* \"new-contracts/EduVerifyAdmin.sol\":5676:5704  ProposalExecuted(proposalId) */\n      0x712ae1383f79ac853f8d882153778e0260ef8f03b504e2866e0593e04d2b291f\n      swap1\n        /* \"new-contracts/EduVerifyAdmin.sol\":5637:5654  proposal.executed */\n      0x00\n      swap1\n        /* \"new-contracts/EduVerifyAdmin.sol\":5676:5704  ProposalExecuted(proposalId) */\n      log2\n        /* \"new-contracts/EduVerifyAdmin.sol\":3761:5711  {... */\n      pop\n      pop\n        /* \"new-contracts/EduVerifyAdmin.sol\":3697:5711  function executeProposal(uint proposalId) external onlyGovernor {... */\n      pop\n      jump\t// out\n        /* \"new-contracts/EduVerifyAdmin.sol\":2640:2748  function calculateThreshold() external view returns(uint) {... */\n    tag_33:\n        /* \"new-contracts/EduVerifyAdmin.sol\":2716:2725  governors */\n      0x01\n        /* \"new-contracts/EduVerifyAdmin.sol\":2716:2732  governors.length */\n      sload\n        /* \"new-contracts/EduVerifyAdmin.sol\":2692:2696  uint */\n      0x00\n      swap1\n        /* \"new-contracts/EduVerifyAdmin.sol\":2716:2736  governors.length / 2 */\n      tag_182\n      swap1\n        /* \"new-contracts/EduVerifyAdmin.sol\":2735:2736  2 */\n      0x02\n      swap1\n        /* \"new-contracts/EduVerifyAdmin.sol\":2716:2736  governors.length / 2 */\n      tag_105\n      jump\t// in\n    tag_182:\n        /* \"new-contracts/EduVerifyAdmin.sol\":2715:2741  (governors.length / 2) + 1 */\n      tag_183\n      swap1\n        /* \"new-contracts/EduVerifyAdmin.sol\":2740:2741  1 */\n      0x01\n        /* \"new-contracts/EduVerifyAdmin.sol\":2715:2741  (governors.length / 2) + 1 */\n      tag_94\n      jump\t// in\n    tag_183:\n        /* \"new-contracts/EduVerifyAdmin.sol\":2708:2741  return (governors.length / 2) + 1 */\n      swap1\n      pop\n        /* \"new-contracts/EduVerifyAdmin.sol\":2640:2748  function calculateThreshold() external view returns(uint) {... */\n      swap1\n      jump\t// out\n        /* \"new-contracts/EduVerifyAdmin.sol\":5721:6023  function getProposalDetails(uint proposalId) external view returns(Action action, address target, uint yesVotes, uint snapshotGovernorCount,  bool executed) {... */\n    tag_38:\n        /* \"new-contracts/EduVerifyAdmin.sol\":5788:5801  Action action */\n      0x00\n        /* \"new-contracts/EduVerifyAdmin.sol\":5803:5817  address target */\n      0x00\n        /* \"new-contracts/EduVerifyAdmin.sol\":5819:5832  uint yesVotes */\n      0x00\n        /* \"new-contracts/EduVerifyAdmin.sol\":5834:5860  uint snapshotGovernorCount */\n      0x00\n        /* \"new-contracts/EduVerifyAdmin.sol\":5863:5876  bool executed */\n      0x00\n        /* \"new-contracts/EduVerifyAdmin.sol\":5888:5906  Proposal storage p */\n      0x00\n        /* \"new-contracts/EduVerifyAdmin.sol\":5909:5918  proposals */\n      0x03\n        /* \"new-contracts/EduVerifyAdmin.sol\":5919:5929  proposalId */\n      dup8\n        /* \"new-contracts/EduVerifyAdmin.sol\":5909:5930  proposals[proposalId] */\n      dup2\n      sload\n      dup2\n      lt\n      tag_186\n      jumpi\n      tag_186\n      tag_85\n      jump\t// in\n    tag_186:\n      0x00\n      swap2\n      dup3\n      mstore\n      0x20\n      swap1\n      swap2\n      keccak256\n      0x06\n      swap1\n      swap2\n      mul\n      add\n        /* \"new-contracts/EduVerifyAdmin.sol\":5948:5956  p.action */\n      0x01\n      dup2\n      add\n      sload\n        /* \"new-contracts/EduVerifyAdmin.sol\":5968:5978  p.yesVotes */\n      0x02\n      dup3\n      add\n      sload\n        /* \"new-contracts/EduVerifyAdmin.sol\":5980:6003  p.snapshotGovernorCount */\n      0x03\n      dup4\n      add\n      sload\n        /* \"new-contracts/EduVerifyAdmin.sol\":6005:6015  p.executed */\n      0x04\n      swap1\n      swap4\n      add\n      sload\n        /* \"new-contracts/EduVerifyAdmin.sol\":5948:5956  p.action */\n      0xff\n      dup1\n      dup5\n      and\n      swap13\n      0x0100\n        /* \"new-contracts/EduVerifyAdmin.sol\":5958:5966  p.target */\n      swap1\n      swap5\n      div\n      sub(shl(0xa0, 0x01), 0x01)\n      and\n      swap12\n      pop\n        /* \"new-contracts/EduVerifyAdmin.sol\":5968:5978  p.yesVotes */\n      swap2\n      swap10\n      pop\n        /* \"new-contracts/EduVerifyAdmin.sol\":5980:6003  p.snapshotGovernorCount */\n      swap3\n      swap8\n      pop\n        /* \"new-contracts/EduVerifyAdmin.sol\":6005:6015  p.executed */\n      swap1\n      swap2\n      and\n      swap5\n      pop\n        /* \"new-contracts/EduVerifyAdmin.sol\":5721:6023  function getProposalDetails(uint proposalId) external view returns(Action action, address target, uint yesVotes, uint snapshotGovernorCount,  bool executed) {... */\n      swap3\n      pop\n      pop\n      pop\n      jump\t// out\n        /* \"new-contracts/EduVerifyAdmin.sol\":6230:6375  function hasVoted(uint proposalId, address governor) external view returns(bool) {... */\n    tag_44:\n        /* \"new-contracts/EduVerifyAdmin.sol\":6305:6309  bool */\n      0x00\n        /* \"new-contracts/EduVerifyAdmin.sol\":6328:6337  proposals */\n      0x03\n        /* \"new-contracts/EduVerifyAdmin.sol\":6338:6348  proposalId */\n      dup4\n        /* \"new-contracts/EduVerifyAdmin.sol\":6328:6349  proposals[proposalId] */\n      dup2\n      sload\n      dup2\n      lt\n      tag_190\n      jumpi\n      tag_190\n      tag_85\n      jump\t// in\n    tag_190:\n      0x00\n      swap2\n      dup3\n      mstore\n      0x20\n      dup1\n      dup4\n      keccak256\n      sub(shl(0xa0, 0x01), 0x01)\n        /* \"new-contracts/EduVerifyAdmin.sol\":6328:6368  proposals[proposalId].hasVoted[governor] */\n      dup7\n      and\n      dup5\n      mstore\n        /* \"new-contracts/EduVerifyAdmin.sol\":6328:6358  proposals[proposalId].hasVoted */\n      0x05\n        /* \"new-contracts/EduVerifyAdmin.sol\":6328:6349  proposals[proposalId] */\n      0x06\n      swap1\n      swap4\n      mul\n      add\n        /* \"new-contracts/EduVerifyAdmin.sol\":6328:6358  proposals[proposalId].hasVoted */\n      swap2\n      swap1\n      swap2\n      add\n        /* \"new-contracts/EduVerifyAdmin.sol\":6328:6368  proposals[proposalId].hasVoted[governor] */\n      swap1\n      mstore\n      0x40\n      swap1\n      keccak256\n      sload\n      0xff\n      and\n      swap1\n      pop\n        /* \"new-contracts/EduVerifyAdmin.sol\":6230:6375  function hasVoted(uint proposalId, address governor) external view returns(bool) {... */\n    tag_188:\n      swap3\n      swap2\n      pop\n      pop\n      jump\t// out\n        /* \"new-contracts/EduVerifyAdmin.sol\":6033:6220  function getThresholdForProposal(uint proposalId) external view returns(uint) {... */\n    tag_49:\n        /* \"new-contracts/EduVerifyAdmin.sol\":6105:6109  uint */\n      0x00\n        /* \"new-contracts/EduVerifyAdmin.sol\":6121:6139  Proposal storage p */\n      0x00\n        /* \"new-contracts/EduVerifyAdmin.sol\":6142:6151  proposals */\n      0x03\n        /* \"new-contracts/EduVerifyAdmin.sol\":6152:6162  proposalId */\n      dup4\n        /* \"new-contracts/EduVerifyAdmin.sol\":6142:6163  proposals[proposalId] */\n      dup2\n      sload\n      dup2\n      lt\n      tag_194\n      jumpi\n      tag_194\n      tag_85\n      jump\t// in\n    tag_194:\n      swap1\n      0x00\n      mstore\n      keccak256(0x00, 0x20)\n      swap1\n      0x06\n      mul\n      add\n        /* \"new-contracts/EduVerifyAdmin.sol\":6121:6163  Proposal storage p = proposals[proposalId] */\n      swap1\n      pop\n        /* \"new-contracts/EduVerifyAdmin.sol\":6207:6208  2 */\n      0x02\n        /* \"new-contracts/EduVerifyAdmin.sol\":6181:6182  p */\n      dup2\n        /* \"new-contracts/EduVerifyAdmin.sol\":6181:6204  p.snapshotGovernorCount */\n      0x03\n      add\n      sload\n        /* \"new-contracts/EduVerifyAdmin.sol\":6181:6208  p.snapshotGovernorCount / 2 */\n      tag_196\n      swap2\n      swap1\n      tag_105\n      jump\t// in\n    tag_196:\n        /* \"new-contracts/EduVerifyAdmin.sol\":6180:6213  (p.snapshotGovernorCount / 2) + 1 */\n      tag_197\n      swap1\n        /* \"new-contracts/EduVerifyAdmin.sol\":6212:6213  1 */\n      0x01\n        /* \"new-contracts/EduVerifyAdmin.sol\":6180:6213  (p.snapshotGovernorCount / 2) + 1 */\n      tag_94\n      jump\t// in\n    tag_197:\n        /* \"new-contracts/EduVerifyAdmin.sol\":6173:6213  return (p.snapshotGovernorCount / 2) + 1 */\n      swap4\n        /* \"new-contracts/EduVerifyAdmin.sol\":6033:6220  function getThresholdForProposal(uint proposalId) external view returns(uint) {... */\n      swap3\n      pop\n      pop\n      pop\n      jump\t// out\n        /* \"new-contracts/EduVerifyAdmin.sol\":1297:1323  address[] public governors */\n    tag_53:\n      0x01\n      dup2\n      dup2\n      sload\n      dup2\n      lt\n      tag_198\n      jumpi\n      0x00\n      dup1\n      revert\n    tag_198:\n      0x00\n      swap2\n      dup3\n      mstore\n      0x20\n      swap1\n      swap2\n      keccak256\n      add\n      sload\n      sub(shl(0xa0, 0x01), 0x01)\n      and\n      swap1\n      pop\n      dup2\n      jump\t// out\n        /* \"new-contracts/EduVerifyAdmin.sol\":2758:3289  function propose(Action action, address target) external onlyGovernor returns(uint) {... */\n    tag_59:\n        /* \"new-contracts/EduVerifyAdmin.sol\":1834:1844  msg.sender */\n      caller\n        /* \"new-contracts/EduVerifyAdmin.sol\":2836:2840  uint */\n      0x00\n        /* \"new-contracts/EduVerifyAdmin.sol\":1823:1845  isGovernor[msg.sender] */\n      swap1\n      dup2\n      mstore\n      0x20\n      dup2\n      swap1\n      mstore\n      0x40\n      dup2\n      keccak256\n      sload\n      0xff\n      and\n        /* \"new-contracts/EduVerifyAdmin.sol\":1815:1864  require(isGovernor[msg.sender], \"Not a governor\") */\n      tag_201\n      jumpi\n      mload(0x40)\n      shl(0xe5, 0x461bcd)\n      dup2\n      mstore\n      0x04\n      add\n      tag_80\n      swap1\n      tag_81\n      jump\t// in\n    tag_201:\n        /* \"new-contracts/EduVerifyAdmin.sol\":2870:2879  proposals */\n      0x03\n        /* \"new-contracts/EduVerifyAdmin.sol\":2870:2886  proposals.length */\n      dup1\n      sload\n        /* \"new-contracts/EduVerifyAdmin.sol\":2927:2943  proposals.push() */\n      0x01\n      dup1\n      dup3\n      add\n      dup4\n      sstore\n        /* \"new-contracts/EduVerifyAdmin.sol\":2852:2867  uint proposalId */\n      0x00\n        /* \"new-contracts/EduVerifyAdmin.sol\":2927:2943  proposals.push() */\n      dup4\n      swap1\n      mstore\n      0x06\n      dup3\n      mul\n      0xc2575a0e9e593c00f959f8c92f12db2869c3395a3b0502d05e2516446f71f85b\n      dup2\n      add\n        /* \"new-contracts/EduVerifyAdmin.sol\":2953:2980  newProposal.id = proposalId */\n      dup4\n      dup2\n      sstore\n        /* \"new-contracts/EduVerifyAdmin.sol\":2990:3008  newProposal.action */\n      0xc2575a0e9e593c00f959f8c92f12db2869c3395a3b0502d05e2516446f71f85c\n      swap1\n      swap2\n      add\n        /* \"new-contracts/EduVerifyAdmin.sol\":2990:3017  newProposal.action = action */\n      dup1\n      sload\n        /* \"new-contracts/EduVerifyAdmin.sol\":2870:2886  proposals.length */\n      swap4\n      swap5\n        /* \"new-contracts/EduVerifyAdmin.sol\":2927:2943  proposals.push() */\n      swap2\n      swap4\n        /* \"new-contracts/EduVerifyAdmin.sol\":3011:3017  action */\n      dup9\n      swap4\n        /* \"new-contracts/EduVerifyAdmin.sol\":2990:3008  newProposal.action */\n      swap2\n      swap3\n      not(0xff)\n        /* \"new-contracts/EduVerifyAdmin.sol\":2990:3017  newProposal.action = action */\n      swap1\n      swap2\n      and\n      swap2\n        /* \"new-contracts/EduVerifyAdmin.sol\":2927:2943  proposals.push() */\n      swap1\n        /* \"new-contracts/EduVerifyAdmin.sol\":3011:3017  action */\n      dup5\n      swap1\n        /* \"new-contracts/EduVerifyAdmin.sol\":2990:3017  newProposal.action = action */\n      dup2\n      gt\n      iszero\n      tag_206\n      jumpi\n      tag_206\n      tag_114\n      jump\t// in\n    tag_206:\n      mul\n      or\n      swap1\n      sstore\n      pop\n        /* \"new-contracts/EduVerifyAdmin.sol\":3027:3045  newProposal.target */\n      0x01\n      dup2\n      dup2\n      add\n        /* \"new-contracts/EduVerifyAdmin.sol\":3027:3054  newProposal.target = target */\n      dup1\n      sload\n      not(sub(shl(0xa8, 0x01), 0x0100))\n      and\n      0x0100\n      sub(shl(0xa0, 0x01), 0x01)\n      dup9\n      and\n      mul\n      or\n      swap1\n      sstore\n      0x00\n        /* \"new-contracts/EduVerifyAdmin.sol\":3064:3084  newProposal.yesVotes */\n      0x02\n      dup4\n      add\n        /* \"new-contracts/EduVerifyAdmin.sol\":3064:3088  newProposal.yesVotes = 0 */\n      sstore\n        /* \"new-contracts/EduVerifyAdmin.sol\":3134:3150  governors.length */\n      sload\n        /* \"new-contracts/EduVerifyAdmin.sol\":3098:3131  newProposal.snapshotGovernorCount */\n      0x03\n      dup3\n      add\n        /* \"new-contracts/EduVerifyAdmin.sol\":3098:3150  newProposal.snapshotGovernorCount = governors.length */\n      sstore\n        /* \"new-contracts/EduVerifyAdmin.sol\":3160:3180  newProposal.executed */\n      0x04\n      dup2\n      add\n        /* \"new-contracts/EduVerifyAdmin.sol\":3160:3188  newProposal.executed = false */\n      dup1\n      sload\n      not(0xff)\n      and\n      swap1\n      sstore\n        /* \"new-contracts/EduVerifyAdmin.sol\":3212:3255  ProposalCreated(proposalId, action, target) */\n      mload(0x40)\n        /* \"new-contracts/EduVerifyAdmin.sol\":3228:3238  proposalId */\n      dup3\n      swap1\n        /* \"new-contracts/EduVerifyAdmin.sol\":3212:3255  ProposalCreated(proposalId, action, target) */\n      0x3263432a41f78a4701cc9465f62411ed717ade32290c084135a3dd6b29f4bf28\n      swap1\n      tag_207\n      swap1\n        /* \"new-contracts/EduVerifyAdmin.sol\":3240:3246  action */\n      dup9\n      swap1\n        /* \"new-contracts/EduVerifyAdmin.sol\":3027:3054  newProposal.target = target */\n      dup9\n      swap1\n        /* \"new-contracts/EduVerifyAdmin.sol\":3212:3255  ProposalCreated(proposalId, action, target) */\n      tag_208\n      jump\t// in\n    tag_207:\n      mload(0x40)\n      dup1\n      swap2\n      sub\n      swap1\n      log2\n      pop\n        /* \"new-contracts/EduVerifyAdmin.sol\":3272:3282  proposalId */\n      swap4\n        /* \"new-contracts/EduVerifyAdmin.sol\":2758:3289  function propose(Action action, address target) external onlyGovernor returns(uint) {... */\n      swap3\n      pop\n      pop\n      pop\n      jump\t// out\n        /* \"new-contracts/EduVerifyAdmin.sol\":2455:2630  function setEduVerifyAddress(address _eduVerify) external onlyGovernor {... */\n    tag_70:\n        /* \"new-contracts/EduVerifyAdmin.sol\":1834:1844  msg.sender */\n      caller\n        /* \"new-contracts/EduVerifyAdmin.sol\":1823:1833  isGovernor */\n      0x00\n        /* \"new-contracts/EduVerifyAdmin.sol\":1823:1845  isGovernor[msg.sender] */\n      swap1\n      dup2\n      mstore\n      0x20\n      dup2\n      swap1\n      mstore\n      0x40\n      swap1\n      keccak256\n      sload\n      0xff\n      and\n        /* \"new-contracts/EduVerifyAdmin.sol\":1815:1864  require(isGovernor[msg.sender], \"Not a governor\") */\n      tag_211\n      jumpi\n      mload(0x40)\n      shl(0xe5, 0x461bcd)\n      dup2\n      mstore\n      0x04\n      add\n      tag_80\n      swap1\n      tag_81\n      jump\t// in\n    tag_211:\n        /* \"new-contracts/EduVerifyAdmin.sol\":2544:2553  eduVerify */\n      and(sub(shl(0xa0, 0x01), 0x01), sload(0x02))\n        /* \"new-contracts/EduVerifyAdmin.sol\":2544:2567  eduVerify == address(0) */\n      iszero\n        /* \"new-contracts/EduVerifyAdmin.sol\":2536:2591  require(eduVerify == address(0), \"Address already set\") */\n      tag_214\n      jumpi\n      mload(0x40)\n      shl(0xe5, 0x461bcd)\n      dup2\n      mstore\n        /* \"#utility.yul\":7951:7953   */\n      0x20\n        /* \"new-contracts/EduVerifyAdmin.sol\":2536:2591  require(eduVerify == address(0), \"Address already set\") */\n      0x04\n      dup3\n      add\n        /* \"#utility.yul\":7933:7954   */\n      mstore\n        /* \"#utility.yul\":7990:7992   */\n      0x13\n        /* \"#utility.yul\":7970:7988   */\n      0x24\n      dup3\n      add\n        /* \"#utility.yul\":7963:7993   */\n      mstore\n      shl(0x6a, 0x1059191c995cdcc8185b1c9958591e481cd95d)\n        /* \"#utility.yul\":8009:8027   */\n      0x44\n      dup3\n      add\n        /* \"#utility.yul\":8002:8051   */\n      mstore\n        /* \"#utility.yul\":8068:8086   */\n      0x64\n      add\n        /* \"new-contracts/EduVerifyAdmin.sol\":2536:2591  require(eduVerify == address(0), \"Address already set\") */\n      tag_80\n        /* \"#utility.yul\":7749:8092   */\n      jump\n        /* \"new-contracts/EduVerifyAdmin.sol\":2536:2591  require(eduVerify == address(0), \"Address already set\") */\n    tag_214:\n        /* \"new-contracts/EduVerifyAdmin.sol\":2601:2610  eduVerify */\n      0x02\n        /* \"new-contracts/EduVerifyAdmin.sol\":2601:2623  eduVerify = _eduVerify */\n      dup1\n      sload\n      not(sub(shl(0xa0, 0x01), 0x01))\n      and\n      sub(shl(0xa0, 0x01), 0x01)\n      swap3\n      swap1\n      swap3\n      and\n      swap2\n      swap1\n      swap2\n      or\n      swap1\n      sstore\n        /* \"new-contracts/EduVerifyAdmin.sol\":2455:2630  function setEduVerifyAddress(address _eduVerify) external onlyGovernor {... */\n      jump\t// out\n        /* \"#utility.yul\":14:240   */\n    tag_22:\n        /* \"#utility.yul\":73:79   */\n      0x00\n        /* \"#utility.yul\":126:128   */\n      0x20\n        /* \"#utility.yul\":114:123   */\n      dup3\n        /* \"#utility.yul\":105:112   */\n      dup5\n        /* \"#utility.yul\":101:124   */\n      sub\n        /* \"#utility.yul\":97:129   */\n      slt\n        /* \"#utility.yul\":94:146   */\n      iszero\n      tag_223\n      jumpi\n        /* \"#utility.yul\":142:143   */\n      0x00\n        /* \"#utility.yul\":139:140   */\n      0x00\n        /* \"#utility.yul\":132:144   */\n      revert\n        /* \"#utility.yul\":94:146   */\n    tag_223:\n      pop\n        /* \"#utility.yul\":187:210   */\n      calldataload\n      swap2\n        /* \"#utility.yul\":14:240   */\n      swap1\n      pop\n      jump\t// out\n        /* \"#utility.yul\":245:372   */\n    tag_114:\n        /* \"#utility.yul\":306:316   */\n      0x4e487b71\n        /* \"#utility.yul\":301:304   */\n      0xe0\n        /* \"#utility.yul\":297:317   */\n      shl\n        /* \"#utility.yul\":294:295   */\n      0x00\n        /* \"#utility.yul\":287:318   */\n      mstore\n        /* \"#utility.yul\":337:341   */\n      0x21\n        /* \"#utility.yul\":334:335   */\n      0x04\n        /* \"#utility.yul\":327:342   */\n      mstore\n        /* \"#utility.yul\":361:365   */\n      0x24\n        /* \"#utility.yul\":358:359   */\n      0x00\n        /* \"#utility.yul\":351:366   */\n      revert\n        /* \"#utility.yul\":377:611   */\n    tag_218:\n        /* \"#utility.yul\":455:456   */\n      0x04\n        /* \"#utility.yul\":448:453   */\n      dup2\n        /* \"#utility.yul\":445:457   */\n      lt\n        /* \"#utility.yul\":435:578   */\n      tag_226\n      jumpi\n        /* \"#utility.yul\":500:510   */\n      0x4e487b71\n        /* \"#utility.yul\":495:498   */\n      0xe0\n        /* \"#utility.yul\":491:511   */\n      shl\n        /* \"#utility.yul\":488:489   */\n      0x00\n        /* \"#utility.yul\":481:512   */\n      mstore\n        /* \"#utility.yul\":535:539   */\n      0x21\n        /* \"#utility.yul\":532:533   */\n      0x04\n        /* \"#utility.yul\":525:540   */\n      mstore\n        /* \"#utility.yul\":563:567   */\n      0x24\n        /* \"#utility.yul\":560:561   */\n      0x00\n        /* \"#utility.yul\":553:568   */\n      revert\n        /* \"#utility.yul\":435:578   */\n    tag_226:\n        /* \"#utility.yul\":587:605   */\n      swap1\n      mstore\n        /* \"#utility.yul\":377:611   */\n      jump\t// out\n        /* \"#utility.yul\":616:1211   */\n    tag_28:\n        /* \"#utility.yul\":905:930   */\n      dup7\n      dup2\n      mstore\n        /* \"#utility.yul\":892:895   */\n      0xc0\n        /* \"#utility.yul\":877:896   */\n      dup2\n      add\n        /* \"#utility.yul\":939:989   */\n      tag_228\n        /* \"#utility.yul\":985:987   */\n      0x20\n        /* \"#utility.yul\":970:988   */\n      dup4\n      add\n        /* \"#utility.yul\":962:968   */\n      dup9\n        /* \"#utility.yul\":939:989   */\n      tag_218\n      jump\t// in\n    tag_228:\n      sub(shl(0xa0, 0x01), 0x01)\n        /* \"#utility.yul\":1025:1057   */\n      swap6\n      swap1\n      swap6\n      and\n        /* \"#utility.yul\":1020:1022   */\n      0x40\n        /* \"#utility.yul\":1005:1023   */\n      dup3\n      add\n        /* \"#utility.yul\":998:1058   */\n      mstore\n        /* \"#utility.yul\":1089:1091   */\n      0x60\n        /* \"#utility.yul\":1074:1092   */\n      dup2\n      add\n        /* \"#utility.yul\":1067:1101   */\n      swap4\n      swap1\n      swap4\n      mstore\n        /* \"#utility.yul\":1132:1135   */\n      0x80\n        /* \"#utility.yul\":1117:1136   */\n      dup4\n      add\n        /* \"#utility.yul\":1110:1145   */\n      swap2\n      swap1\n      swap2\n      mstore\n        /* \"#utility.yul\":1189:1203   */\n      iszero\n        /* \"#utility.yul\":1182:1204   */\n      iszero\n        /* \"#utility.yul\":1045:1048   */\n      0xa0\n        /* \"#utility.yul\":1161:1180   */\n      swap1\n      swap2\n      add\n        /* \"#utility.yul\":1154:1205   */\n      mstore\n        /* \"#utility.yul\":1025:1057   */\n      swap3\n        /* \"#utility.yul\":616:1211   */\n      swap2\n      pop\n      pop\n      jump\t// out\n        /* \"#utility.yul\":1398:1921   */\n    tag_40:\n        /* \"#utility.yul\":1646:1649   */\n      0xa0\n        /* \"#utility.yul\":1631:1650   */\n      dup2\n      add\n        /* \"#utility.yul\":1659:1700   */\n      tag_231\n        /* \"#utility.yul\":1635:1644   */\n      dup3\n        /* \"#utility.yul\":1682:1688   */\n      dup9\n        /* \"#utility.yul\":1659:1700   */\n      tag_218\n      jump\t// in\n    tag_231:\n      sub(shl(0xa0, 0x01), 0x01)\n        /* \"#utility.yul\":1736:1768   */\n      swap6\n      swap1\n      swap6\n      and\n        /* \"#utility.yul\":1731:1733   */\n      0x20\n        /* \"#utility.yul\":1716:1734   */\n      dup3\n      add\n        /* \"#utility.yul\":1709:1769   */\n      mstore\n        /* \"#utility.yul\":1800:1802   */\n      0x40\n        /* \"#utility.yul\":1785:1803   */\n      dup2\n      add\n        /* \"#utility.yul\":1778:1812   */\n      swap4\n      swap1\n      swap4\n      mstore\n        /* \"#utility.yul\":1843:1845   */\n      0x60\n        /* \"#utility.yul\":1828:1846   */\n      dup4\n      add\n        /* \"#utility.yul\":1821:1855   */\n      swap2\n      swap1\n      swap2\n      mstore\n        /* \"#utility.yul\":1899:1913   */\n      iszero\n        /* \"#utility.yul\":1892:1914   */\n      iszero\n        /* \"#utility.yul\":1886:1889   */\n      0x80\n        /* \"#utility.yul\":1871:1890   */\n      swap1\n      swap2\n      add\n        /* \"#utility.yul\":1864:1915   */\n      mstore\n        /* \"#utility.yul\":1398:1921   */\n      swap2\n      swap1\n      pop\n      jump\t// out\n        /* \"#utility.yul\":1926:2099   */\n    tag_219:\n        /* \"#utility.yul\":1994:2014   */\n      dup1\n      calldataload\n      sub(shl(0xa0, 0x01), 0x01)\n        /* \"#utility.yul\":2043:2074   */\n      dup2\n      and\n        /* \"#utility.yul\":2033:2075   */\n      dup2\n      eq\n        /* \"#utility.yul\":2023:2093   */\n      tag_233\n      jumpi\n        /* \"#utility.yul\":2089:2090   */\n      0x00\n        /* \"#utility.yul\":2086:2087   */\n      0x00\n        /* \"#utility.yul\":2079:2091   */\n      revert\n        /* \"#utility.yul\":2023:2093   */\n    tag_233:\n        /* \"#utility.yul\":1926:2099   */\n      swap2\n      swap1\n      pop\n      jump\t// out\n        /* \"#utility.yul\":2104:2404   */\n    tag_43:\n        /* \"#utility.yul\":2172:2178   */\n      0x00\n        /* \"#utility.yul\":2180:2186   */\n      0x00\n        /* \"#utility.yul\":2233:2235   */\n      0x40\n        /* \"#utility.yul\":2221:2230   */\n      dup4\n        /* \"#utility.yul\":2212:2219   */\n      dup6\n        /* \"#utility.yul\":2208:2231   */\n      sub\n        /* \"#utility.yul\":2204:2236   */\n      slt\n        /* \"#utility.yul\":2201:2253   */\n      iszero\n      tag_235\n      jumpi\n        /* \"#utility.yul\":2249:2250   */\n      0x00\n        /* \"#utility.yul\":2246:2247   */\n      0x00\n        /* \"#utility.yul\":2239:2251   */\n      revert\n        /* \"#utility.yul\":2201:2253   */\n    tag_235:\n        /* \"#utility.yul\":2294:2317   */\n      dup3\n      calldataload\n      swap2\n      pop\n        /* \"#utility.yul\":2360:2398   */\n      tag_236\n        /* \"#utility.yul\":2394:2396   */\n      0x20\n        /* \"#utility.yul\":2379:2397   */\n      dup5\n      add\n        /* \"#utility.yul\":2360:2398   */\n      tag_219\n      jump\t// in\n    tag_236:\n        /* \"#utility.yul\":2350:2398   */\n      swap1\n      pop\n        /* \"#utility.yul\":2104:2404   */\n      swap3\n      pop\n      swap3\n      swap1\n      pop\n      jump\t// out\n        /* \"#utility.yul\":2809:3149   */\n    tag_58:\n        /* \"#utility.yul\":2887:2893   */\n      0x00\n        /* \"#utility.yul\":2895:2901   */\n      0x00\n        /* \"#utility.yul\":2948:2950   */\n      0x40\n        /* \"#utility.yul\":2936:2945   */\n      dup4\n        /* \"#utility.yul\":2927:2934   */\n      dup6\n        /* \"#utility.yul\":2923:2946   */\n      sub\n        /* \"#utility.yul\":2919:2951   */\n      slt\n        /* \"#utility.yul\":2916:2968   */\n      iszero\n      tag_240\n      jumpi\n        /* \"#utility.yul\":2964:2965   */\n      0x00\n        /* \"#utility.yul\":2961:2962   */\n      0x00\n        /* \"#utility.yul\":2954:2966   */\n      revert\n        /* \"#utility.yul\":2916:2968   */\n    tag_240:\n        /* \"#utility.yul\":3003:3012   */\n      dup3\n        /* \"#utility.yul\":2990:3013   */\n      calldataload\n        /* \"#utility.yul\":3042:3043   */\n      0x04\n        /* \"#utility.yul\":3035:3040   */\n      dup2\n        /* \"#utility.yul\":3032:3044   */\n      lt\n        /* \"#utility.yul\":3022:3062   */\n      tag_241\n      jumpi\n        /* \"#utility.yul\":3058:3059   */\n      0x00\n        /* \"#utility.yul\":3055:3056   */\n      0x00\n        /* \"#utility.yul\":3048:3060   */\n      revert\n        /* \"#utility.yul\":3022:3062   */\n    tag_241:\n        /* \"#utility.yul\":3081:3086   */\n      swap2\n      pop\n        /* \"#utility.yul\":3105:3143   */\n      tag_236\n        /* \"#utility.yul\":3139:3141   */\n      0x20\n        /* \"#utility.yul\":3124:3142   */\n      dup5\n      add\n        /* \"#utility.yul\":3105:3143   */\n      tag_219\n      jump\t// in\n        /* \"#utility.yul\":3154:3340   */\n    tag_69:\n        /* \"#utility.yul\":3213:3219   */\n      0x00\n        /* \"#utility.yul\":3266:3268   */\n      0x20\n        /* \"#utility.yul\":3254:3263   */\n      dup3\n        /* \"#utility.yul\":3245:3252   */\n      dup5\n        /* \"#utility.yul\":3241:3264   */\n      sub\n        /* \"#utility.yul\":3237:3269   */\n      slt\n        /* \"#utility.yul\":3234:3286   */\n      iszero\n      tag_244\n      jumpi\n        /* \"#utility.yul\":3282:3283   */\n      0x00\n        /* \"#utility.yul\":3279:3280   */\n      0x00\n        /* \"#utility.yul\":3272:3284   */\n      revert\n        /* \"#utility.yul\":3234:3286   */\n    tag_244:\n        /* \"#utility.yul\":3305:3334   */\n      tag_197\n        /* \"#utility.yul\":3324:3333   */\n      dup3\n        /* \"#utility.yul\":3305:3334   */\n      tag_219\n      jump\t// in\n        /* \"#utility.yul\":3345:3683   */\n    tag_81:\n        /* \"#utility.yul\":3547:3549   */\n      0x20\n        /* \"#utility.yul\":3529:3550   */\n      dup1\n      dup3\n      mstore\n        /* \"#utility.yul\":3586:3588   */\n      0x0e\n        /* \"#utility.yul\":3566:3584   */\n      swap1\n      dup3\n      add\n        /* \"#utility.yul\":3559:3589   */\n      mstore\n      shl(0x91, 0x2737ba10309033b7bb32b93737b9)\n        /* \"#utility.yul\":3620:3622   */\n      0x40\n        /* \"#utility.yul\":3605:3623   */\n      dup3\n      add\n        /* \"#utility.yul\":3598:3642   */\n      mstore\n        /* \"#utility.yul\":3674:3676   */\n      0x60\n        /* \"#utility.yul\":3659:3677   */\n      add\n      swap1\n        /* \"#utility.yul\":3345:3683   */\n      jump\t// out\n        /* \"#utility.yul\":3688:3815   */\n    tag_85:\n        /* \"#utility.yul\":3749:3759   */\n      0x4e487b71\n        /* \"#utility.yul\":3744:3747   */\n      0xe0\n        /* \"#utility.yul\":3740:3760   */\n      shl\n        /* \"#utility.yul\":3737:3738   */\n      0x00\n        /* \"#utility.yul\":3730:3761   */\n      mstore\n        /* \"#utility.yul\":3780:3784   */\n      0x32\n        /* \"#utility.yul\":3777:3778   */\n      0x04\n        /* \"#utility.yul\":3770:3785   */\n      mstore\n        /* \"#utility.yul\":3804:3808   */\n      0x24\n        /* \"#utility.yul\":3801:3802   */\n      0x00\n        /* \"#utility.yul\":3794:3809   */\n      revert\n        /* \"#utility.yul\":4525:4652   */\n    tag_220:\n        /* \"#utility.yul\":4586:4596   */\n      0x4e487b71\n        /* \"#utility.yul\":4581:4584   */\n      0xe0\n        /* \"#utility.yul\":4577:4597   */\n      shl\n        /* \"#utility.yul\":4574:4575   */\n      0x00\n        /* \"#utility.yul\":4567:4598   */\n      mstore\n        /* \"#utility.yul\":4617:4621   */\n      0x11\n        /* \"#utility.yul\":4614:4615   */\n      0x04\n        /* \"#utility.yul\":4607:4622   */\n      mstore\n        /* \"#utility.yul\":4641:4645   */\n      0x24\n        /* \"#utility.yul\":4638:4639   */\n      0x00\n        /* \"#utility.yul\":4631:4646   */\n      revert\n        /* \"#utility.yul\":4657:4782   */\n    tag_94:\n        /* \"#utility.yul\":4722:4731   */\n      dup1\n      dup3\n      add\n        /* \"#utility.yul\":4743:4753   */\n      dup1\n      dup3\n      gt\n        /* \"#utility.yul\":4740:4776   */\n      iszero\n      tag_188\n      jumpi\n        /* \"#utility.yul\":4756:4774   */\n      tag_188\n      tag_220\n      jump\t// in\n        /* \"#utility.yul\":4787:5004   */\n    tag_105:\n        /* \"#utility.yul\":4827:4828   */\n      0x00\n        /* \"#utility.yul\":4853:4854   */\n      dup3\n        /* \"#utility.yul\":4843:4975   */\n      tag_255\n      jumpi\n        /* \"#utility.yul\":4897:4907   */\n      0x4e487b71\n        /* \"#utility.yul\":4892:4895   */\n      0xe0\n        /* \"#utility.yul\":4888:4908   */\n      shl\n        /* \"#utility.yul\":4885:4886   */\n      0x00\n        /* \"#utility.yul\":4878:4909   */\n      mstore\n        /* \"#utility.yul\":4932:4936   */\n      0x12\n        /* \"#utility.yul\":4929:4930   */\n      0x04\n        /* \"#utility.yul\":4922:4937   */\n      mstore\n        /* \"#utility.yul\":4960:4964   */\n      0x24\n        /* \"#utility.yul\":4957:4958   */\n      0x00\n        /* \"#utility.yul\":4950:4965   */\n      revert\n        /* \"#utility.yul\":4843:4975   */\n    tag_255:\n      pop\n        /* \"#utility.yul\":4989:4998   */\n      div\n      swap1\n        /* \"#utility.yul\":4787:5004   */\n      jump\t// out\n        /* \"#utility.yul\":5416:5717   */\n    tag_120:\n        /* \"#utility.yul\":5545:5548   */\n      0x00\n        /* \"#utility.yul\":5583:5589   */\n      dup3\n        /* \"#utility.yul\":5577:5590   */\n      mload\n        /* \"#utility.yul\":5629:5635   */\n      dup1\n        /* \"#utility.yul\":5622:5626   */\n      0x20\n        /* \"#utility.yul\":5614:5620   */\n      dup6\n        /* \"#utility.yul\":5610:5627   */\n      add\n        /* \"#utility.yul\":5605:5608   */\n      dup5\n        /* \"#utility.yul\":5599:5636   */\n      mcopy\n        /* \"#utility.yul\":5691:5692   */\n      0x00\n        /* \"#utility.yul\":5655:5671   */\n      swap3\n      add\n        /* \"#utility.yul\":5680:5693   */\n      swap2\n      dup3\n      mstore\n      pop\n        /* \"#utility.yul\":5655:5671   */\n      swap2\n        /* \"#utility.yul\":5416:5717   */\n      swap1\n      pop\n      jump\t// out\n        /* \"#utility.yul\":7181:7309   */\n    tag_170:\n        /* \"#utility.yul\":7248:7257   */\n      dup2\n      dup2\n      sub\n        /* \"#utility.yul\":7269:7280   */\n      dup2\n      dup2\n      gt\n        /* \"#utility.yul\":7266:7303   */\n      iszero\n      tag_188\n      jumpi\n        /* \"#utility.yul\":7283:7301   */\n      tag_188\n      tag_220\n      jump\t// in\n        /* \"#utility.yul\":7314:7441   */\n    tag_179:\n        /* \"#utility.yul\":7375:7385   */\n      0x4e487b71\n        /* \"#utility.yul\":7370:7373   */\n      0xe0\n        /* \"#utility.yul\":7366:7386   */\n      shl\n        /* \"#utility.yul\":7363:7364   */\n      0x00\n        /* \"#utility.yul\":7356:7387   */\n      mstore\n        /* \"#utility.yul\":7406:7410   */\n      0x31\n        /* \"#utility.yul\":7403:7404   */\n      0x04\n        /* \"#utility.yul\":7396:7411   */\n      mstore\n        /* \"#utility.yul\":7430:7434   */\n      0x24\n        /* \"#utility.yul\":7427:7428   */\n      0x00\n        /* \"#utility.yul\":7420:7435   */\n      revert\n        /* \"#utility.yul\":7446:7744   */\n    tag_208:\n        /* \"#utility.yul\":7616:7618   */\n      0x40\n        /* \"#utility.yul\":7601:7619   */\n      dup2\n      add\n        /* \"#utility.yul\":7628:7669   */\n      tag_267\n        /* \"#utility.yul\":7605:7614   */\n      dup3\n        /* \"#utility.yul\":7651:7657   */\n      dup6\n        /* \"#utility.yul\":7628:7669   */\n      tag_218\n      jump\t// in\n    tag_267:\n      sub(shl(0xa0, 0x01), 0x01)\n        /* \"#utility.yul\":7705:7737   */\n      swap3\n      swap1\n      swap3\n      and\n        /* \"#utility.yul\":7700:7702   */\n      0x20\n        /* \"#utility.yul\":7685:7703   */\n      swap2\n      swap1\n      swap2\n      add\n        /* \"#utility.yul\":7678:7738   */\n      mstore\n        /* \"#utility.yul\":7446:7744   */\n      swap2\n      swap1\n      pop\n      jump\t// out\n\n    auxdata: 0xa26469706673582212205d6433f6876c1ee978d36a83b7979711a8623611c3f6bed5a135d5704299990c64736f6c634300081e0033\n}\n",
				"bytecode": {
					"linkReferences": {},
					"object": "608060405234801561000f575f5ffd5b506040516112e03803806112e083398101604081905261002e916101d4565b80515f5b8181101561019d575f83828151811061004d5761004d61029e565b602002602001015190505f6001600160a01b0316816001600160a01b0316036100b05760405162461bcd60e51b815260206004820152601060248201526f24b73b30b634b21033b7bb32b93737b960811b60448201526064015b60405180910390fd5b6001600160a01b0381165f9081526020819052604090205460ff161561010d5760405162461bcd60e51b8152602060048201526012602482015271223ab83634b1b0ba329033b7bb32b93737b960711b60448201526064016100a7565b6001600160a01b0381165f81815260208190526040808220805460ff19166001908117909155805480820182559083527fb10e2d527612073b26eecdfd717e6a320cf44b4afac2b0732d9fcbe2b7fa0cf60180546001600160a01b03191684179055517fdc5a48d79e2e147530ff63ecdbed5a5a66adb9d5cf339384d5d076da197c40b59190a250600101610032565b5050506102b2565b634e487b7160e01b5f52604160045260245ffd5b80516001600160a01b03811681146101cf575f5ffd5b919050565b5f602082840312156101e4575f5ffd5b81516001600160401b038111156101f9575f5ffd5b8201601f81018413610209575f5ffd5b80516001600160401b03811115610222576102226101a5565b604051600582901b90603f8201601f191681016001600160401b0381118282101715610250576102506101a5565b60405291825260208184018101929081018784111561026d575f5ffd5b6020850194505b8385101561029357610285856101b9565b815260209485019401610274565b509695505050505050565b634e487b7160e01b5f52603260045260245ffd5b611021806102bf5f395ff3fe608060405234801561000f575f5ffd5b50600436106100e5575f3560e01c8063a7277b0011610088578063dc999c8d11610063578063dc999c8d146101f5578063e0901d7a14610208578063e43581b81461021b578063e8c9fd451461023d575f5ffd5b8063a7277b00146101af578063aebe39ca146101da578063da35c664146101ed575f5ffd5b80630eb3813a116100c35780630eb3813a1461013f5780633b4d01a71461015557806343859632146101795780638e2767ef1461019c575f5ffd5b80630121b93f146100e9578063013cf08b146100fe5780630d61b5191461012c575b5f5ffd5b6100fc6100f7366004610db1565b610245565b005b61011161010c366004610db1565b6103b4565b60405161012396959493929190610dfc565b60405180910390f35b6100fc61013a366004610db1565b610409565b610147610aa4565b604051908152602001610123565b610168610163366004610db1565b610ac5565b604051610123959493929190610e3f565b61018c610187366004610e96565b610b2a565b6040519015158152602001610123565b6101476101aa366004610db1565b610b72565b6101c26101bd366004610db1565b610bb8565b6040516001600160a01b039091168152602001610123565b6101476101e8366004610ec0565b610be0565b600354610147565b6002546101c2906001600160a01b031681565b6100fc610216366004610eed565b610d12565b61018c610229366004610eed565b5f6020819052908152604090205460ff1681565b600154610147565b335f9081526020819052604090205460ff1661027c5760405162461bcd60e51b815260040161027390610f06565b60405180910390fd5b5f6003828154811061029057610290610f2e565b5f91825260208083203384526005600690930201918201905260409091205490915060ff16156102fb5760405162461bcd60e51b815260206004820152601660248201527511dbdd995c9b9bdc88185b1c9958591e481d9bdd195960521b6044820152606401610273565b600481015460ff161561034c5760405162461bcd60e51b8152602060048201526019602482015278141c9bdc1bdcd85b08185b1c9958591e48195e1958dd5d1959603a1b6044820152606401610273565b335f9081526005820160205260408120805460ff191660019081179091556002830180549192909161037f908490610f56565b9091555050604051339083907ff1003b73c437642c0460aee9cd9628b0b8c447b66e6c7c905531b9c644214a11905f90a35050565b600381815481106103c3575f80fd5b5f9182526020909120600690910201805460018201546002830154600384015460049094015492945060ff808316946101009093046001600160a01b0316939192911686565b335f9081526020819052604090205460ff166104375760405162461bcd60e51b815260040161027390610f06565b5f6003828154811061044b5761044b610f2e565b905f5260205f20906006020190505f6002826003015461046b9190610f69565b610476906001610f56565b905080826002015410156104db5760405162461bcd60e51b815260206004820152602660248201527f496e73756666696369656e7420766f74657320746f20657865637574652070726044820152651bdc1bdcd85b60d21b6064820152608401610273565b600482015460ff161561052c5760405162461bcd60e51b8152602060048201526019602482015278141c9bdc1bdcd85b08185b1c9958591e48195e1958dd5d1959603a1b6044820152606401610273565b5f600183015460ff16600381111561054657610546610dc8565b036106345760025460018301546040516101009091046001600160a01b0390811660248301525f92169060440160408051601f198184030181529181526020820180516001600160e01b031663bd4d8bcb60e01b179052516105a89190610f88565b5f604051808303815f865af19150503d805f81146105e1576040519150601f19603f3d011682016040523d82523d5f602084013e6105e6565b606091505b505090508061062e5760405162461bcd60e51b8152602060048201526014602482015273105d5d1a1bdc9a5e985d1a5bdb8819985a5b195960621b6044820152606401610273565b50610a66565b60018083015460ff16600381111561064e5761064e610dc8565b036107335760025460018301546040516101009091046001600160a01b0390811660248301525f92169060440160408051601f198184030181529181526020820180516001600160e01b0316630e33a4a760e11b179052516106b09190610f88565b5f604051808303815f865af19150503d805f81146106e9576040519150601f19603f3d011682016040523d82523d5f602084013e6106ee565b606091505b505090508061062e5760405162461bcd60e51b815260206004820152601160248201527014995d9bd8d85d1a5bdb8819985a5b1959607a1b6044820152606401610273565b6002600183015460ff16600381111561074e5761074e610dc8565b0361085157600182015461010090046001600160a01b03165f8181526020819052604090205460ff16156107c45760405162461bcd60e51b815260206004820152601c60248201527f54617267657420697320616c7265616479206120676f7665726e6f72000000006044820152606401610273565b6001600160a01b0381165f81815260208190526040808220805460ff19166001908117909155805480820182559083527fb10e2d527612073b26eecdfd717e6a320cf44b4afac2b0732d9fcbe2b7fa0cf60180546001600160a01b03191684179055517fdc5a48d79e2e147530ff63ecdbed5a5a66adb9d5cf339384d5d076da197c40b59190a250610a66565b6003600183015460ff16600381111561086c5761086c610dc8565b03610a6657600182015461010090046001600160a01b03165f8181526020819052604090205460ff166108b15760405162461bcd60e51b815260040161027390610f06565b600154600211156109135760405162461bcd60e51b815260206004820152602660248201527f54776f20676f7665726e6f72732063616e6e6f742072656d6f766520656163686044820152651037ba3432b960d11b6064820152608401610273565b6001600160a01b0381165f908152602081905260408120805460ff19169055600154905b81811015610a2557826001600160a01b03166001828154811061095c5761095c610f2e565b5f918252602090912001546001600160a01b031603610a1d5760016109818184610f9e565b8154811061099157610991610f2e565b5f91825260209091200154600180546001600160a01b0390921691839081106109bc576109bc610f2e565b905f5260205f20015f6101000a8154816001600160a01b0302191690836001600160a01b0316021790555060018054806109f8576109f8610fb1565b5f8281526020902081015f1990810180546001600160a01b0319169055019055610a25565b600101610937565b5060018401546040516101009091046001600160a01b0316907f1ebe834e73d60a5fec822c1e1727d34bc79f2ad977ed504581cc1822fe20fb5b905f90a250505b60048201805460ff1916600117905560405183907f712ae1383f79ac853f8d882153778e0260ef8f03b504e2866e0593e04d2b291f905f90a2505050565b6001545f90610ab590600290610f69565b610ac0906001610f56565b905090565b5f5f5f5f5f5f60038781548110610ade57610ade610f2e565b5f918252602090912060069091020160018101546002820154600383015460049093015460ff8084169c6101009094046001600160a01b03169b50919950929750909116945092505050565b5f60038381548110610b3e57610b3e610f2e565b5f91825260208083206001600160a01b03861684526005600690930201919091019052604090205460ff1690505b92915050565b5f5f60038381548110610b8757610b87610f2e565b905f5260205f209060060201905060028160030154610ba69190610f69565b610bb1906001610f56565b9392505050565b60018181548110610bc7575f80fd5b5f918252602090912001546001600160a01b0316905081565b335f9081526020819052604081205460ff16610c0e5760405162461bcd60e51b815260040161027390610f06565b60038054600180820183555f839052600682027fc2575a0e9e593c00f959f8c92f12db2869c3395a3b0502d05e2516446f71f85b81018381557fc2575a0e9e593c00f959f8c92f12db2869c3395a3b0502d05e2516446f71f85c9091018054939491938893919260ff1990911691908490811115610c8e57610c8e610dc8565b021790555060018181018054610100600160a81b0319166101006001600160a01b038816021790555f600283015554600382015560048101805460ff1916905560405182907f3263432a41f78a4701cc9465f62411ed717ade32290c084135a3dd6b29f4bf2890610d029088908890610fc5565b60405180910390a2509392505050565b335f9081526020819052604090205460ff16610d405760405162461bcd60e51b815260040161027390610f06565b6002546001600160a01b031615610d8f5760405162461bcd60e51b81526020600482015260136024820152721059191c995cdcc8185b1c9958591e481cd95d606a1b6044820152606401610273565b600280546001600160a01b0319166001600160a01b0392909216919091179055565b5f60208284031215610dc1575f5ffd5b5035919050565b634e487b7160e01b5f52602160045260245ffd5b60048110610df857634e487b7160e01b5f52602160045260245ffd5b9052565b86815260c08101610e106020830188610ddc565b6001600160a01b0395909516604082015260608101939093526080830191909152151560a09091015292915050565b60a08101610e4d8288610ddc565b6001600160a01b03959095166020820152604081019390935260608301919091521515608090910152919050565b80356001600160a01b0381168114610e91575f5ffd5b919050565b5f5f60408385031215610ea7575f5ffd5b82359150610eb760208401610e7b565b90509250929050565b5f5f60408385031215610ed1575f5ffd5b823560048110610edf575f5ffd5b9150610eb760208401610e7b565b5f60208284031215610efd575f5ffd5b610bb182610e7b565b6020808252600e908201526d2737ba10309033b7bb32b93737b960911b604082015260600190565b634e487b7160e01b5f52603260045260245ffd5b634e487b7160e01b5f52601160045260245ffd5b80820180821115610b6c57610b6c610f42565b5f82610f8357634e487b7160e01b5f52601260045260245ffd5b500490565b5f82518060208501845e5f920191825250919050565b81810381811115610b6c57610b6c610f42565b634e487b7160e01b5f52603160045260245ffd5b60408101610fd38285610ddc565b6001600160a01b03929092166020919091015291905056fea26469706673582212205d6433f6876c1ee978d36a83b7979711a8623611c3f6bed5a135d5704299990c64736f6c634300081e0033",
					"opcodes": "PUSH1 0x80 PUSH1 0x40 MSTORE CALLVALUE DUP1 ISZERO PUSH2 0xF JUMPI PUSH0 PUSH0 REVERT JUMPDEST POP PUSH1 0x40 MLOAD PUSH2 0x12E0 CODESIZE SUB DUP1 PUSH2 0x12E0 DUP4 CODECOPY DUP2 ADD PUSH1 0x40 DUP2 SWAP1 MSTORE PUSH2 0x2E SWAP2 PUSH2 0x1D4 JUMP JUMPDEST DUP1 MLOAD PUSH0 JUMPDEST DUP2 DUP2 LT ISZERO PUSH2 0x19D JUMPI PUSH0 DUP4 DUP3 DUP2 MLOAD DUP2 LT PUSH2 0x4D JUMPI PUSH2 0x4D PUSH2 0x29E JUMP JUMPDEST PUSH1 0x20 MUL PUSH1 0x20 ADD ADD MLOAD SWAP1 POP PUSH0 PUSH1 0x1 PUSH1 0x1 PUSH1 0xA0 SHL SUB AND DUP2 PUSH1 0x1 PUSH1 0x1 PUSH1 0xA0 SHL SUB AND SUB PUSH2 0xB0 JUMPI PUSH1 0x40 MLOAD PUSH3 0x461BCD PUSH1 0xE5 SHL DUP2 MSTORE PUSH1 0x20 PUSH1 0x4 DUP3 ADD MSTORE PUSH1 0x10 PUSH1 0x24 DUP3 ADD MSTORE PUSH16 0x24B73B30B634B21033B7BB32B93737B9 PUSH1 0x81 SHL PUSH1 0x44 DUP3 ADD MSTORE PUSH1 0x64 ADD JUMPDEST PUSH1 0x40 MLOAD DUP1 SWAP2 SUB SWAP1 REVERT JUMPDEST PUSH1 0x1 PUSH1 0x1 PUSH1 0xA0 SHL SUB DUP2 AND PUSH0 SWAP1 DUP2 MSTORE PUSH1 0x20 DUP2 SWAP1 MSTORE PUSH1 0x40 SWAP1 KECCAK256 SLOAD PUSH1 0xFF AND ISZERO PUSH2 0x10D JUMPI PUSH1 0x40 MLOAD PUSH3 0x461BCD PUSH1 0xE5 SHL DUP2 MSTORE PUSH1 0x20 PUSH1 0x4 DUP3 ADD MSTORE PUSH1 0x12 PUSH1 0x24 DUP3 ADD MSTORE PUSH18 0x223AB83634B1B0BA329033B7BB32B93737B9 PUSH1 0x71 SHL PUSH1 0x44 DUP3 ADD MSTORE PUSH1 0x64 ADD PUSH2 0xA7 JUMP JUMPDEST PUSH1 0x1 PUSH1 0x1 PUSH1 0xA0 SHL SUB DUP2 AND PUSH0 DUP2 DUP2 MSTORE PUSH1 0x20 DUP2 SWAP1 MSTORE PUSH1 0x40 DUP1 DUP3 KECCAK256 DUP1 SLOAD PUSH1 0xFF NOT AND PUSH1 0x1 SWAP1 DUP2 OR SWAP1 SWAP2 SSTORE DUP1 SLOAD DUP1 DUP3 ADD DUP3 SSTORE SWAP1 DUP4 MSTORE PUSH32 0xB10E2D527612073B26EECDFD717E6A320CF44B4AFAC2B0732D9FCBE2B7FA0CF6 ADD DUP1 SLOAD PUSH1 0x1 PUSH1 0x1 PUSH1 0xA0 SHL SUB NOT AND DUP5 OR SWAP1 SSTORE MLOAD PUSH32 0xDC5A48D79E2E147530FF63ECDBED5A5A66ADB9D5CF339384D5D076DA197C40B5 SWAP2 SWAP1 LOG2 POP PUSH1 0x1 ADD PUSH2 0x32 JUMP JUMPDEST POP POP POP PUSH2 0x2B2 JUMP JUMPDEST PUSH4 0x4E487B71 PUSH1 0xE0 SHL PUSH0 MSTORE PUSH1 0x41 PUSH1 0x4 MSTORE PUSH1 0x24 PUSH0 REVERT JUMPDEST DUP1 MLOAD PUSH1 0x1 PUSH1 0x1 PUSH1 0xA0 SHL SUB DUP2 AND DUP2 EQ PUSH2 0x1CF JUMPI PUSH0 PUSH0 REVERT JUMPDEST SWAP2 SWAP1 POP JUMP JUMPDEST PUSH0 PUSH1 0x20 DUP3 DUP5 SUB SLT ISZERO PUSH2 0x1E4 JUMPI PUSH0 PUSH0 REVERT JUMPDEST DUP2 MLOAD PUSH1 0x1 PUSH1 0x1 PUSH1 0x40 SHL SUB DUP2 GT ISZERO PUSH2 0x1F9 JUMPI PUSH0 PUSH0 REVERT JUMPDEST DUP3 ADD PUSH1 0x1F DUP2 ADD DUP5 SGT PUSH2 0x209 JUMPI PUSH0 PUSH0 REVERT JUMPDEST DUP1 MLOAD PUSH1 0x1 PUSH1 0x1 PUSH1 0x40 SHL SUB DUP2 GT ISZERO PUSH2 0x222 JUMPI PUSH2 0x222 PUSH2 0x1A5 JUMP JUMPDEST PUSH1 0x40 MLOAD PUSH1 0x5 DUP3 SWAP1 SHL SWAP1 PUSH1 0x3F DUP3 ADD PUSH1 0x1F NOT AND DUP2 ADD PUSH1 0x1 PUSH1 0x1 PUSH1 0x40 SHL SUB DUP2 GT DUP3 DUP3 LT OR ISZERO PUSH2 0x250 JUMPI PUSH2 0x250 PUSH2 0x1A5 JUMP JUMPDEST PUSH1 0x40 MSTORE SWAP2 DUP3 MSTORE PUSH1 0x20 DUP2 DUP5 ADD DUP2 ADD SWAP3 SWAP1 DUP2 ADD DUP8 DUP5 GT ISZERO PUSH2 0x26D JUMPI PUSH0 PUSH0 REVERT JUMPDEST PUSH1 0x20 DUP6 ADD SWAP5 POP JUMPDEST DUP4 DUP6 LT ISZERO PUSH2 0x293 JUMPI PUSH2 0x285 DUP6 PUSH2 0x1B9 JUMP JUMPDEST DUP2 MSTORE PUSH1 0x20 SWAP5 DUP6 ADD SWAP5 ADD PUSH2 0x274 JUMP JUMPDEST POP SWAP7 SWAP6 POP POP POP POP POP POP JUMP JUMPDEST PUSH4 0x4E487B71 PUSH1 0xE0 SHL PUSH0 MSTORE PUSH1 0x32 PUSH1 0x4 MSTORE PUSH1 0x24 PUSH0 REVERT JUMPDEST PUSH2 0x1021 DUP1 PUSH2 0x2BF PUSH0 CODECOPY PUSH0 RETURN INVALID PUSH1 0x80 PUSH1 0x40 MSTORE CALLVALUE DUP1 ISZERO PUSH2 0xF JUMPI PUSH0 PUSH0 REVERT JUMPDEST POP PUSH1 0x4 CALLDATASIZE LT PUSH2 0xE5 JUMPI PUSH0 CALLDATALOAD PUSH1 0xE0 SHR DUP1 PUSH4 0xA7277B00 GT PUSH2 0x88 JUMPI DUP1 PUSH4 0xDC999C8D GT PUSH2 0x63 JUMPI DUP1 PUSH4 0xDC999C8D EQ PUSH2 0x1F5 JUMPI DUP1 PUSH4 0xE0901D7A EQ PUSH2 0x208 JUMPI DUP1 PUSH4 0xE43581B8 EQ PUSH2 0x21B JUMPI DUP1 PUSH4 0xE8C9FD45 EQ PUSH2 0x23D JUMPI PUSH0 PUSH0 REVERT JUMPDEST DUP1 PUSH4 0xA7277B00 EQ PUSH2 0x1AF JUMPI DUP1 PUSH4 0xAEBE39CA EQ PUSH2 0x1DA JUMPI DUP1 PUSH4 0xDA35C664 EQ PUSH2 0x1ED JUMPI PUSH0 PUSH0 REVERT JUMPDEST DUP1 PUSH4 0xEB3813A GT PUSH2 0xC3 JUMPI DUP1 PUSH4 0xEB3813A EQ PUSH2 0x13F JUMPI DUP1 PUSH4 0x3B4D01A7 EQ PUSH2 0x155 JUMPI DUP1 PUSH4 0x43859632 EQ PUSH2 0x179 JUMPI DUP1 PUSH4 0x8E2767EF EQ PUSH2 0x19C JUMPI PUSH0 PUSH0 REVERT JUMPDEST DUP1 PUSH4 0x121B93F EQ PUSH2 0xE9 JUMPI DUP1 PUSH4 0x13CF08B EQ PUSH2 0xFE JUMPI DUP1 PUSH4 0xD61B519 EQ PUSH2 0x12C JUMPI JUMPDEST PUSH0 PUSH0 REVERT JUMPDEST PUSH2 0xFC PUSH2 0xF7 CALLDATASIZE PUSH1 0x4 PUSH2 0xDB1 JUMP JUMPDEST PUSH2 0x245 JUMP JUMPDEST STOP JUMPDEST PUSH2 0x111 PUSH2 0x10C CALLDATASIZE PUSH1 0x4 PUSH2 0xDB1 JUMP JUMPDEST PUSH2 0x3B4 JUMP JUMPDEST PUSH1 0x40 MLOAD PUSH2 0x123 SWAP7 SWAP6 SWAP5 SWAP4 SWAP3 SWAP2 SWAP1 PUSH2 0xDFC JUMP JUMPDEST PUSH1 0x40 MLOAD DUP1 SWAP2 SUB SWAP1 RETURN JUMPDEST PUSH2 0xFC PUSH2 0x13A CALLDATASIZE PUSH1 0x4 PUSH2 0xDB1 JUMP JUMPDEST PUSH2 0x409 JUMP JUMPDEST PUSH2 0x147 PUSH2 0xAA4 JUMP JUMPDEST PUSH1 0x40 MLOAD SWAP1 DUP2 MSTORE PUSH1 0x20 ADD PUSH2 0x123 JUMP JUMPDEST PUSH2 0x168 PUSH2 0x163 CALLDATASIZE PUSH1 0x4 PUSH2 0xDB1 JUMP JUMPDEST PUSH2 0xAC5 JUMP JUMPDEST PUSH1 0x40 MLOAD PUSH2 0x123 SWAP6 SWAP5 SWAP4 SWAP3 SWAP2 SWAP1 PUSH2 0xE3F JUMP JUMPDEST PUSH2 0x18C PUSH2 0x187 CALLDATASIZE PUSH1 0x4 PUSH2 0xE96 JUMP JUMPDEST PUSH2 0xB2A JUMP JUMPDEST PUSH1 0x40 MLOAD SWAP1 ISZERO ISZERO DUP2 MSTORE PUSH1 0x20 ADD PUSH2 0x123 JUMP JUMPDEST PUSH2 0x147 PUSH2 0x1AA CALLDATASIZE PUSH1 0x4 PUSH2 0xDB1 JUMP JUMPDEST PUSH2 0xB72 JUMP JUMPDEST PUSH2 0x1C2 PUSH2 0x1BD CALLDATASIZE PUSH1 0x4 PUSH2 0xDB1 JUMP JUMPDEST PUSH2 0xBB8 JUMP JUMPDEST PUSH1 0x40 MLOAD PUSH1 0x1 PUSH1 0x1 PUSH1 0xA0 SHL SUB SWAP1 SWAP2 AND DUP2 MSTORE PUSH1 0x20 ADD PUSH2 0x123 JUMP JUMPDEST PUSH2 0x147 PUSH2 0x1E8 CALLDATASIZE PUSH1 0x4 PUSH2 0xEC0 JUMP JUMPDEST PUSH2 0xBE0 JUMP JUMPDEST PUSH1 0x3 SLOAD PUSH2 0x147 JUMP JUMPDEST PUSH1 0x2 SLOAD PUSH2 0x1C2 SWAP1 PUSH1 0x1 PUSH1 0x1 PUSH1 0xA0 SHL SUB AND DUP2 JUMP JUMPDEST PUSH2 0xFC PUSH2 0x216 CALLDATASIZE PUSH1 0x4 PUSH2 0xEED JUMP JUMPDEST PUSH2 0xD12 JUMP JUMPDEST PUSH2 0x18C PUSH2 0x229 CALLDATASIZE PUSH1 0x4 PUSH2 0xEED JUMP JUMPDEST PUSH0 PUSH1 0x20 DUP2 SWAP1 MSTORE SWAP1 DUP2 MSTORE PUSH1 0x40 SWAP1 KECCAK256 SLOAD PUSH1 0xFF AND DUP2 JUMP JUMPDEST PUSH1 0x1 SLOAD PUSH2 0x147 JUMP JUMPDEST CALLER PUSH0 SWAP1 DUP2 MSTORE PUSH1 0x20 DUP2 SWAP1 MSTORE PUSH1 0x40 SWAP1 KECCAK256 SLOAD PUSH1 0xFF AND PUSH2 0x27C JUMPI PUSH1 0x40 MLOAD PUSH3 0x461BCD PUSH1 0xE5 SHL DUP2 MSTORE PUSH1 0x4 ADD PUSH2 0x273 SWAP1 PUSH2 0xF06 JUMP JUMPDEST PUSH1 0x40 MLOAD DUP1 SWAP2 SUB SWAP1 REVERT JUMPDEST PUSH0 PUSH1 0x3 DUP3 DUP2 SLOAD DUP2 LT PUSH2 0x290 JUMPI PUSH2 0x290 PUSH2 0xF2E JUMP JUMPDEST PUSH0 SWAP2 DUP3 MSTORE PUSH1 0x20 DUP1 DUP4 KECCAK256 CALLER DUP5 MSTORE PUSH1 0x5 PUSH1 0x6 SWAP1 SWAP4 MUL ADD SWAP2 DUP3 ADD SWAP1 MSTORE PUSH1 0x40 SWAP1 SWAP2 KECCAK256 SLOAD SWAP1 SWAP2 POP PUSH1 0xFF AND ISZERO PUSH2 0x2FB JUMPI PUSH1 0x40 MLOAD PUSH3 0x461BCD PUSH1 0xE5 SHL DUP2 MSTORE PUSH1 0x20 PUSH1 0x4 DUP3 ADD MSTORE PUSH1 0x16 PUSH1 0x24 DUP3 ADD MSTORE PUSH22 0x11DBDD995C9B9BDC88185B1C9958591E481D9BDD1959 PUSH1 0x52 SHL PUSH1 0x44 DUP3 ADD MSTORE PUSH1 0x64 ADD PUSH2 0x273 JUMP JUMPDEST PUSH1 0x4 DUP2 ADD SLOAD PUSH1 0xFF AND ISZERO PUSH2 0x34C JUMPI PUSH1 0x40 MLOAD PUSH3 0x461BCD PUSH1 0xE5 SHL DUP2 MSTORE PUSH1 0x20 PUSH1 0x4 DUP3 ADD MSTORE PUSH1 0x19 PUSH1 0x24 DUP3 ADD MSTORE PUSH25 0x141C9BDC1BDCD85B08185B1C9958591E48195E1958DD5D1959 PUSH1 0x3A SHL PUSH1 0x44 DUP3 ADD MSTORE PUSH1 0x64 ADD PUSH2 0x273 JUMP JUMPDEST CALLER PUSH0 SWAP1 DUP2 MSTORE PUSH1 0x5 DUP3 ADD PUSH1 0x20 MSTORE PUSH1 0x40 DUP2 KECCAK256 DUP1 SLOAD PUSH1 0xFF NOT AND PUSH1 0x1 SWAP1 DUP2 OR SWAP1 SWAP2 SSTORE PUSH1 0x2 DUP4 ADD DUP1 SLOAD SWAP2 SWAP3 SWAP1 SWAP2 PUSH2 0x37F SWAP1 DUP5 SWAP1 PUSH2 0xF56 JUMP JUMPDEST SWAP1 SWAP2 SSTORE POP POP PUSH1 0x40 MLOAD CALLER SWAP1 DUP4 SWAP1 PUSH32 0xF1003B73C437642C0460AEE9CD9628B0B8C447B66E6C7C905531B9C644214A11 SWAP1 PUSH0 SWAP1 LOG3 POP POP JUMP JUMPDEST PUSH1 0x3 DUP2 DUP2 SLOAD DUP2 LT PUSH2 0x3C3 JUMPI PUSH0 DUP1 REVERT JUMPDEST PUSH0 SWAP2 DUP3 MSTORE PUSH1 0x20 SWAP1 SWAP2 KECCAK256 PUSH1 0x6 SWAP1 SWAP2 MUL ADD DUP1 SLOAD PUSH1 0x1 DUP3 ADD SLOAD PUSH1 0x2 DUP4 ADD SLOAD PUSH1 0x3 DUP5 ADD SLOAD PUSH1 0x4 SWAP1 SWAP5 ADD SLOAD SWAP3 SWAP5 POP PUSH1 0xFF DUP1 DUP4 AND SWAP5 PUSH2 0x100 SWAP1 SWAP4 DIV PUSH1 0x1 PUSH1 0x1 PUSH1 0xA0 SHL SUB AND SWAP4 SWAP2 SWAP3 SWAP2 AND DUP7 JUMP JUMPDEST CALLER PUSH0 SWAP1 DUP2 MSTORE PUSH1 0x20 DUP2 SWAP1 MSTORE PUSH1 0x40 SWAP1 KECCAK256 SLOAD PUSH1 0xFF AND PUSH2 0x437 JUMPI PUSH1 0x40 MLOAD PUSH3 0x461BCD PUSH1 0xE5 SHL DUP2 MSTORE PUSH1 0x4 ADD PUSH2 0x273 SWAP1 PUSH2 0xF06 JUMP JUMPDEST PUSH0 PUSH1 0x3 DUP3 DUP2 SLOAD DUP2 LT PUSH2 0x44B JUMPI PUSH2 0x44B PUSH2 0xF2E JUMP JUMPDEST SWAP1 PUSH0 MSTORE PUSH1 0x20 PUSH0 KECCAK256 SWAP1 PUSH1 0x6 MUL ADD SWAP1 POP PUSH0 PUSH1 0x2 DUP3 PUSH1 0x3 ADD SLOAD PUSH2 0x46B SWAP2 SWAP1 PUSH2 0xF69 JUMP JUMPDEST PUSH2 0x476 SWAP1 PUSH1 0x1 PUSH2 0xF56 JUMP JUMPDEST SWAP1 POP DUP1 DUP3 PUSH1 0x2 ADD SLOAD LT ISZERO PUSH2 0x4DB JUMPI PUSH1 0x40 MLOAD PUSH3 0x461BCD PUSH1 0xE5 SHL DUP2 MSTORE PUSH1 0x20 PUSH1 0x4 DUP3 ADD MSTORE PUSH1 0x26 PUSH1 0x24 DUP3 ADD MSTORE PUSH32 0x496E73756666696369656E7420766F74657320746F2065786563757465207072 PUSH1 0x44 DUP3 ADD MSTORE PUSH6 0x1BDC1BDCD85B PUSH1 0xD2 SHL PUSH1 0x64 DUP3 ADD MSTORE PUSH1 0x84 ADD PUSH2 0x273 JUMP JUMPDEST PUSH1 0x4 DUP3 ADD SLOAD PUSH1 0xFF AND ISZERO PUSH2 0x52C JUMPI PUSH1 0x40 MLOAD PUSH3 0x461BCD PUSH1 0xE5 SHL DUP2 MSTORE PUSH1 0x20 PUSH1 0x4 DUP3 ADD MSTORE PUSH1 0x19 PUSH1 0x24 DUP3 ADD MSTORE PUSH25 0x141C9BDC1BDCD85B08185B1C9958591E48195E1958DD5D1959 PUSH1 0x3A SHL PUSH1 0x44 DUP3 ADD MSTORE PUSH1 0x64 ADD PUSH2 0x273 JUMP JUMPDEST PUSH0 PUSH1 0x1 DUP4 ADD SLOAD PUSH1 0xFF AND PUSH1 0x3 DUP2 GT ISZERO PUSH2 0x546 JUMPI PUSH2 0x546 PUSH2 0xDC8 JUMP JUMPDEST SUB PUSH2 0x634 JUMPI PUSH1 0x2 SLOAD PUSH1 0x1 DUP4 ADD SLOAD PUSH1 0x40 MLOAD PUSH2 0x100 SWAP1 SWAP2 DIV PUSH1 0x1 PUSH1 0x1 PUSH1 0xA0 SHL SUB SWAP1 DUP2 AND PUSH1 0x24 DUP4 ADD MSTORE PUSH0 SWAP3 AND SWAP1 PUSH1 0x44 ADD PUSH1 0x40 DUP1 MLOAD PUSH1 0x1F NOT DUP2 DUP5 SUB ADD DUP2 MSTORE SWAP2 DUP2 MSTORE PUSH1 0x20 DUP3 ADD DUP1 MLOAD PUSH1 0x1 PUSH1 0x1 PUSH1 0xE0 SHL SUB AND PUSH4 0xBD4D8BCB PUSH1 0xE0 SHL OR SWAP1 MSTORE MLOAD PUSH2 0x5A8 SWAP2 SWAP1 PUSH2 0xF88 JUMP JUMPDEST PUSH0 PUSH1 0x40 MLOAD DUP1 DUP4 SUB DUP2 PUSH0 DUP7 GAS CALL SWAP2 POP POP RETURNDATASIZE DUP1 PUSH0 DUP2 EQ PUSH2 0x5E1 JUMPI PUSH1 0x40 MLOAD SWAP2 POP PUSH1 0x1F NOT PUSH1 0x3F RETURNDATASIZE ADD AND DUP3 ADD PUSH1 0x40 MSTORE RETURNDATASIZE DUP3 MSTORE RETURNDATASIZE PUSH0 PUSH1 0x20 DUP5 ADD RETURNDATACOPY PUSH2 0x5E6 JUMP JUMPDEST PUSH1 0x60 SWAP2 POP JUMPDEST POP POP SWAP1 POP DUP1 PUSH2 0x62E JUMPI PUSH1 0x40 MLOAD PUSH3 0x461BCD PUSH1 0xE5 SHL DUP2 MSTORE PUSH1 0x20 PUSH1 0x4 DUP3 ADD MSTORE PUSH1 0x14 PUSH1 0x24 DUP3 ADD MSTORE PUSH20 0x105D5D1A1BDC9A5E985D1A5BDB8819985A5B1959 PUSH1 0x62 SHL PUSH1 0x44 DUP3 ADD MSTORE PUSH1 0x64 ADD PUSH2 0x273 JUMP JUMPDEST POP PUSH2 0xA66 JUMP JUMPDEST PUSH1 0x1 DUP1 DUP4 ADD SLOAD PUSH1 0xFF AND PUSH1 0x3 DUP2 GT ISZERO PUSH2 0x64E JUMPI PUSH2 0x64E PUSH2 0xDC8 JUMP JUMPDEST SUB PUSH2 0x733 JUMPI PUSH1 0x2 SLOAD PUSH1 0x1 DUP4 ADD SLOAD PUSH1 0x40 MLOAD PUSH2 0x100 SWAP1 SWAP2 DIV PUSH1 0x1 PUSH1 0x1 PUSH1 0xA0 SHL SUB SWAP1 DUP2 AND PUSH1 0x24 DUP4 ADD MSTORE PUSH0 SWAP3 AND SWAP1 PUSH1 0x44 ADD PUSH1 0x40 DUP1 MLOAD PUSH1 0x1F NOT DUP2 DUP5 SUB ADD DUP2 MSTORE SWAP2 DUP2 MSTORE PUSH1 0x20 DUP3 ADD DUP1 MLOAD PUSH1 0x1 PUSH1 0x1 PUSH1 0xE0 SHL SUB AND PUSH4 0xE33A4A7 PUSH1 0xE1 SHL OR SWAP1 MSTORE MLOAD PUSH2 0x6B0 SWAP2 SWAP1 PUSH2 0xF88 JUMP JUMPDEST PUSH0 PUSH1 0x40 MLOAD DUP1 DUP4 SUB DUP2 PUSH0 DUP7 GAS CALL SWAP2 POP POP RETURNDATASIZE DUP1 PUSH0 DUP2 EQ PUSH2 0x6E9 JUMPI PUSH1 0x40 MLOAD SWAP2 POP PUSH1 0x1F NOT PUSH1 0x3F RETURNDATASIZE ADD AND DUP3 ADD PUSH1 0x40 MSTORE RETURNDATASIZE DUP3 MSTORE RETURNDATASIZE PUSH0 PUSH1 0x20 DUP5 ADD RETURNDATACOPY PUSH2 0x6EE JUMP JUMPDEST PUSH1 0x60 SWAP2 POP JUMPDEST POP POP SWAP1 POP DUP1 PUSH2 0x62E JUMPI PUSH1 0x40 MLOAD PUSH3 0x461BCD PUSH1 0xE5 SHL DUP2 MSTORE PUSH1 0x20 PUSH1 0x4 DUP3 ADD MSTORE PUSH1 0x11 PUSH1 0x24 DUP3 ADD MSTORE PUSH17 0x14995D9BD8D85D1A5BDB8819985A5B1959 PUSH1 0x7A SHL PUSH1 0x44 DUP3 ADD MSTORE PUSH1 0x64 ADD PUSH2 0x273 JUMP JUMPDEST PUSH1 0x2 PUSH1 0x1 DUP4 ADD SLOAD PUSH1 0xFF AND PUSH1 0x3 DUP2 GT ISZERO PUSH2 0x74E JUMPI PUSH2 0x74E PUSH2 0xDC8 JUMP JUMPDEST SUB PUSH2 0x851 JUMPI PUSH1 0x1 DUP3 ADD SLOAD PUSH2 0x100 SWAP1 DIV PUSH1 0x1 PUSH1 0x1 PUSH1 0xA0 SHL SUB AND PUSH0 DUP2 DUP2 MSTORE PUSH1 0x20 DUP2 SWAP1 MSTORE PUSH1 0x40 SWAP1 KECCAK256 SLOAD PUSH1 0xFF AND ISZERO PUSH2 0x7C4 JUMPI PUSH1 0x40 MLOAD PUSH3 0x461BCD PUSH1 0xE5 SHL DUP2 MSTORE PUSH1 0x20 PUSH1 0x4 DUP3 ADD MSTORE PUSH1 0x1C PUSH1 0x24 DUP3 ADD MSTORE PUSH32 0x54617267657420697320616C7265616479206120676F7665726E6F7200000000 PUSH1 0x44 DUP3 ADD MSTORE PUSH1 0x64 ADD PUSH2 0x273 JUMP JUMPDEST PUSH1 0x1 PUSH1 0x1 PUSH1 0xA0 SHL SUB DUP2 AND PUSH0 DUP2 DUP2 MSTORE PUSH1 0x20 DUP2 SWAP1 MSTORE PUSH1 0x40 DUP1 DUP3 KECCAK256 DUP1 SLOAD PUSH1 0xFF NOT AND PUSH1 0x1 SWAP1 DUP2 OR SWAP1 SWAP2 SSTORE DUP1 SLOAD DUP1 DUP3 ADD DUP3 SSTORE SWAP1 DUP4 MSTORE PUSH32 0xB10E2D527612073B26EECDFD717E6A320CF44B4AFAC2B0732D9FCBE2B7FA0CF6 ADD DUP1 SLOAD PUSH1 0x1 PUSH1 0x1 PUSH1 0xA0 SHL SUB NOT AND DUP5 OR SWAP1 SSTORE MLOAD PUSH32 0xDC5A48D79E2E147530FF63ECDBED5A5A66ADB9D5CF339384D5D076DA197C40B5 SWAP2 SWAP1 LOG2 POP PUSH2 0xA66 JUMP JUMPDEST PUSH1 0x3 PUSH1 0x1 DUP4 ADD SLOAD PUSH1 0xFF AND PUSH1 0x3 DUP2 GT ISZERO PUSH2 0x86C JUMPI PUSH2 0x86C PUSH2 0xDC8 JUMP JUMPDEST SUB PUSH2 0xA66 JUMPI PUSH1 0x1 DUP3 ADD SLOAD PUSH2 0x100 SWAP1 DIV PUSH1 0x1 PUSH1 0x1 PUSH1 0xA0 SHL SUB AND PUSH0 DUP2 DUP2 MSTORE PUSH1 0x20 DUP2 SWAP1 MSTORE PUSH1 0x40 SWAP1 KECCAK256 SLOAD PUSH1 0xFF AND PUSH2 0x8B1 JUMPI PUSH1 0x40 MLOAD PUSH3 0x461BCD PUSH1 0xE5 SHL DUP2 MSTORE PUSH1 0x4 ADD PUSH2 0x273 SWAP1 PUSH2 0xF06 JUMP JUMPDEST PUSH1 0x1 SLOAD PUSH1 0x2 GT ISZERO PUSH2 0x913 JUMPI PUSH1 0x40 MLOAD PUSH3 0x461BCD PUSH1 0xE5 SHL DUP2 MSTORE PUSH1 0x20 PUSH1 0x4 DUP3 ADD MSTORE PUSH1 0x26 PUSH1 0x24 DUP3 ADD MSTORE PUSH32 0x54776F20676F7665726E6F72732063616E6E6F742072656D6F76652065616368 PUSH1 0x44 DUP3 ADD MSTORE PUSH6 0x1037BA3432B9 PUSH1 0xD1 SHL PUSH1 0x64 DUP3 ADD MSTORE PUSH1 0x84 ADD PUSH2 0x273 JUMP JUMPDEST PUSH1 0x1 PUSH1 0x1 PUSH1 0xA0 SHL SUB DUP2 AND PUSH0 SWAP1 DUP2 MSTORE PUSH1 0x20 DUP2 SWAP1 MSTORE PUSH1 0x40 DUP2 KECCAK256 DUP1 SLOAD PUSH1 0xFF NOT AND SWAP1 SSTORE PUSH1 0x1 SLOAD SWAP1 JUMPDEST DUP2 DUP2 LT ISZERO PUSH2 0xA25 JUMPI DUP3 PUSH1 0x1 PUSH1 0x1 PUSH1 0xA0 SHL SUB AND PUSH1 0x1 DUP3 DUP2 SLOAD DUP2 LT PUSH2 0x95C JUMPI PUSH2 0x95C PUSH2 0xF2E JUMP JUMPDEST PUSH0 SWAP2 DUP3 MSTORE PUSH1 0x20 SWAP1 SWAP2 KECCAK256 ADD SLOAD PUSH1 0x1 PUSH1 0x1 PUSH1 0xA0 SHL SUB AND SUB PUSH2 0xA1D JUMPI PUSH1 0x1 PUSH2 0x981 DUP2 DUP5 PUSH2 0xF9E JUMP JUMPDEST DUP2 SLOAD DUP2 LT PUSH2 0x991 JUMPI PUSH2 0x991 PUSH2 0xF2E JUMP JUMPDEST PUSH0 SWAP2 DUP3 MSTORE PUSH1 0x20 SWAP1 SWAP2 KECCAK256 ADD SLOAD PUSH1 0x1 DUP1 SLOAD PUSH1 0x1 PUSH1 0x1 PUSH1 0xA0 SHL SUB SWAP1 SWAP3 AND SWAP2 DUP4 SWAP1 DUP2 LT PUSH2 0x9BC JUMPI PUSH2 0x9BC PUSH2 0xF2E JUMP JUMPDEST SWAP1 PUSH0 MSTORE PUSH1 0x20 PUSH0 KECCAK256 ADD PUSH0 PUSH2 0x100 EXP DUP2 SLOAD DUP2 PUSH1 0x1 PUSH1 0x1 PUSH1 0xA0 SHL SUB MUL NOT AND SWAP1 DUP4 PUSH1 0x1 PUSH1 0x1 PUSH1 0xA0 SHL SUB AND MUL OR SWAP1 SSTORE POP PUSH1 0x1 DUP1 SLOAD DUP1 PUSH2 0x9F8 JUMPI PUSH2 0x9F8 PUSH2 0xFB1 JUMP JUMPDEST PUSH0 DUP3 DUP2 MSTORE PUSH1 0x20 SWAP1 KECCAK256 DUP2 ADD PUSH0 NOT SWAP1 DUP2 ADD DUP1 SLOAD PUSH1 0x1 PUSH1 0x1 PUSH1 0xA0 SHL SUB NOT AND SWAP1 SSTORE ADD SWAP1 SSTORE PUSH2 0xA25 JUMP JUMPDEST PUSH1 0x1 ADD PUSH2 0x937 JUMP JUMPDEST POP PUSH1 0x1 DUP5 ADD SLOAD PUSH1 0x40 MLOAD PUSH2 0x100 SWAP1 SWAP2 DIV PUSH1 0x1 PUSH1 0x1 PUSH1 0xA0 SHL SUB AND SWAP1 PUSH32 0x1EBE834E73D60A5FEC822C1E1727D34BC79F2AD977ED504581CC1822FE20FB5B SWAP1 PUSH0 SWAP1 LOG2 POP POP JUMPDEST PUSH1 0x4 DUP3 ADD DUP1 SLOAD PUSH1 0xFF NOT AND PUSH1 0x1 OR SWAP1 SSTORE PUSH1 0x40 MLOAD DUP4 SWAP1 PUSH32 0x712AE1383F79AC853F8D882153778E0260EF8F03B504E2866E0593E04D2B291F SWAP1 PUSH0 SWAP1 LOG2 POP POP POP JUMP JUMPDEST PUSH1 0x1 SLOAD PUSH0 SWAP1 PUSH2 0xAB5 SWAP1 PUSH1 0x2 SWAP1 PUSH2 0xF69 JUMP JUMPDEST PUSH2 0xAC0 SWAP1 PUSH1 0x1 PUSH2 0xF56 JUMP JUMPDEST SWAP1 POP SWAP1 JUMP JUMPDEST PUSH0 PUSH0 PUSH0 PUSH0 PUSH0 PUSH0 PUSH1 0x3 DUP8 DUP2 SLOAD DUP2 LT PUSH2 0xADE JUMPI PUSH2 0xADE PUSH2 0xF2E JUMP JUMPDEST PUSH0 SWAP2 DUP3 MSTORE PUSH1 0x20 SWAP1 SWAP2 KECCAK256 PUSH1 0x6 SWAP1 SWAP2 MUL ADD PUSH1 0x1 DUP2 ADD SLOAD PUSH1 0x2 DUP3 ADD SLOAD PUSH1 0x3 DUP4 ADD SLOAD PUSH1 0x4 SWAP1 SWAP4 ADD SLOAD PUSH1 0xFF DUP1 DUP5 AND SWAP13 PUSH2 0x100 SWAP1 SWAP5 DIV PUSH1 0x1 PUSH1 0x1 PUSH1 0xA0 SHL SUB AND SWAP12 POP SWAP2 SWAP10 POP SWAP3 SWAP8 POP SWAP1 SWAP2 AND SWAP5 POP SWAP3 POP POP POP JUMP JUMPDEST PUSH0 PUSH1 0x3 DUP4 DUP2 SLOAD DUP2 LT PUSH2 0xB3E JUMPI PUSH2 0xB3E PUSH2 0xF2E JUMP JUMPDEST PUSH0 SWAP2 DUP3 MSTORE PUSH1 0x20 DUP1 DUP4 KECCAK256 PUSH1 0x1 PUSH1 0x1 PUSH1 0xA0 SHL SUB DUP7 AND DUP5 MSTORE PUSH1 0x5 PUSH1 0x6 SWAP1 SWAP4 MUL ADD SWAP2 SWAP1 SWAP2 ADD SWAP1 MSTORE PUSH1 0x40 SWAP1 KECCAK256 SLOAD PUSH1 0xFF AND SWAP1 POP JUMPDEST SWAP3 SWAP2 POP POP JUMP JUMPDEST PUSH0 PUSH0 PUSH1 0x3 DUP4 DUP2 SLOAD DUP2 LT PUSH2 0xB87 JUMPI PUSH2 0xB87 PUSH2 0xF2E JUMP JUMPDEST SWAP1 PUSH0 MSTORE PUSH1 0x20 PUSH0 KECCAK256 SWAP1 PUSH1 0x6 MUL ADD SWAP1 POP PUSH1 0x2 DUP2 PUSH1 0x3 ADD SLOAD PUSH2 0xBA6 SWAP2 SWAP1 PUSH2 0xF69 JUMP JUMPDEST PUSH2 0xBB1 SWAP1 PUSH1 0x1 PUSH2 0xF56 JUMP JUMPDEST SWAP4 SWAP3 POP POP POP JUMP JUMPDEST PUSH1 0x1 DUP2 DUP2 SLOAD DUP2 LT PUSH2 0xBC7 JUMPI PUSH0 DUP1 REVERT JUMPDEST PUSH0 SWAP2 DUP3 MSTORE PUSH1 0x20 SWAP1 SWAP2 KECCAK256 ADD SLOAD PUSH1 0x1 PUSH1 0x1 PUSH1 0xA0 SHL SUB AND SWAP1 POP DUP2 JUMP JUMPDEST CALLER PUSH0 SWAP1 DUP2 MSTORE PUSH1 0x20 DUP2 SWAP1 MSTORE PUSH1 0x40 DUP2 KECCAK256 SLOAD PUSH1 0xFF AND PUSH2 0xC0E JUMPI PUSH1 0x40 MLOAD PUSH3 0x461BCD PUSH1 0xE5 SHL DUP2 MSTORE PUSH1 0x4 ADD PUSH2 0x273 SWAP1 PUSH2 0xF06 JUMP JUMPDEST PUSH1 0x3 DUP1 SLOAD PUSH1 0x1 DUP1 DUP3 ADD DUP4 SSTORE PUSH0 DUP4 SWAP1 MSTORE PUSH1 0x6 DUP3 MUL PUSH32 0xC2575A0E9E593C00F959F8C92F12DB2869C3395A3B0502D05E2516446F71F85B DUP2 ADD DUP4 DUP2 SSTORE PUSH32 0xC2575A0E9E593C00F959F8C92F12DB2869C3395A3B0502D05E2516446F71F85C SWAP1 SWAP2 ADD DUP1 SLOAD SWAP4 SWAP5 SWAP2 SWAP4 DUP9 SWAP4 SWAP2 SWAP3 PUSH1 0xFF NOT SWAP1 SWAP2 AND SWAP2 SWAP1 DUP5 SWAP1 DUP2 GT ISZERO PUSH2 0xC8E JUMPI PUSH2 0xC8E PUSH2 0xDC8 JUMP JUMPDEST MUL OR SWAP1 SSTORE POP PUSH1 0x1 DUP2 DUP2 ADD DUP1 SLOAD PUSH2 0x100 PUSH1 0x1 PUSH1 0xA8 SHL SUB NOT AND PUSH2 0x100 PUSH1 0x1 PUSH1 0x1 PUSH1 0xA0 SHL SUB DUP9 AND MUL OR SWAP1 SSTORE PUSH0 PUSH1 0x2 DUP4 ADD SSTORE SLOAD PUSH1 0x3 DUP3 ADD SSTORE PUSH1 0x4 DUP2 ADD DUP1 SLOAD PUSH1 0xFF NOT AND SWAP1 SSTORE PUSH1 0x40 MLOAD DUP3 SWAP1 PUSH32 0x3263432A41F78A4701CC9465F62411ED717ADE32290C084135A3DD6B29F4BF28 SWAP1 PUSH2 0xD02 SWAP1 DUP9 SWAP1 DUP9 SWAP1 PUSH2 0xFC5 JUMP JUMPDEST PUSH1 0x40 MLOAD DUP1 SWAP2 SUB SWAP1 LOG2 POP SWAP4 SWAP3 POP POP POP JUMP JUMPDEST CALLER PUSH0 SWAP1 DUP2 MSTORE PUSH1 0x20 DUP2 SWAP1 MSTORE PUSH1 0x40 SWAP1 KECCAK256 SLOAD PUSH1 0xFF AND PUSH2 0xD40 JUMPI PUSH1 0x40 MLOAD PUSH3 0x461BCD PUSH1 0xE5 SHL DUP2 MSTORE PUSH1 0x4 ADD PUSH2 0x273 SWAP1 PUSH2 0xF06 JUMP JUMPDEST PUSH1 0x2 SLOAD PUSH1 0x1 PUSH1 0x1 PUSH1 0xA0 SHL SUB AND ISZERO PUSH2 0xD8F JUMPI PUSH1 0x40 MLOAD PUSH3 0x461BCD PUSH1 0xE5 SHL DUP2 MSTORE PUSH1 0x20 PUSH1 0x4 DUP3 ADD MSTORE PUSH1 0x13 PUSH1 0x24 DUP3 ADD MSTORE PUSH19 0x1059191C995CDCC8185B1C9958591E481CD95D PUSH1 0x6A SHL PUSH1 0x44 DUP3 ADD MSTORE PUSH1 0x64 ADD PUSH2 0x273 JUMP JUMPDEST PUSH1 0x2 DUP1 SLOAD PUSH1 0x1 PUSH1 0x1 PUSH1 0xA0 SHL SUB NOT AND PUSH1 0x1 PUSH1 0x1 PUSH1 0xA0 SHL SUB SWAP3 SWAP1 SWAP3 AND SWAP2 SWAP1 SWAP2 OR SWAP1 SSTORE JUMP JUMPDEST PUSH0 PUSH1 0x20 DUP3 DUP5 SUB SLT ISZERO PUSH2 0xDC1 JUMPI PUSH0 PUSH0 REVERT JUMPDEST POP CALLDATALOAD SWAP2 SWAP1 POP JUMP JUMPDEST PUSH4 0x4E487B71 PUSH1 0xE0 SHL PUSH0 MSTORE PUSH1 0x21 PUSH1 0x4 MSTORE PUSH1 0x24 PUSH0 REVERT JUMPDEST PUSH1 0x4 DUP2 LT PUSH2 0xDF8 JUMPI PUSH4 0x4E487B71 PUSH1 0xE0 SHL PUSH0 MSTORE PUSH1 0x21 PUSH1 0x4 MSTORE PUSH1 0x24 PUSH0 REVERT JUMPDEST SWAP1 MSTORE JUMP JUMPDEST DUP7 DUP2 MSTORE PUSH1 0xC0 DUP2 ADD PUSH2 0xE10 PUSH1 0x20 DUP4 ADD DUP9 PUSH2 0xDDC JUMP JUMPDEST PUSH1 0x1 PUSH1 0x1 PUSH1 0xA0 SHL SUB SWAP6 SWAP1 SWAP6 AND PUSH1 0x40 DUP3 ADD MSTORE PUSH1 0x60 DUP2 ADD SWAP4 SWAP1 SWAP4 MSTORE PUSH1 0x80 DUP4 ADD SWAP2 SWAP1 SWAP2 MSTORE ISZERO ISZERO PUSH1 0xA0 SWAP1 SWAP2 ADD MSTORE SWAP3 SWAP2 POP POP JUMP JUMPDEST PUSH1 0xA0 DUP2 ADD PUSH2 0xE4D DUP3 DUP9 PUSH2 0xDDC JUMP JUMPDEST PUSH1 0x1 PUSH1 0x1 PUSH1 0xA0 SHL SUB SWAP6 SWAP1 SWAP6 AND PUSH1 0x20 DUP3 ADD MSTORE PUSH1 0x40 DUP2 ADD SWAP4 SWAP1 SWAP4 MSTORE PUSH1 0x60 DUP4 ADD SWAP2 SWAP1 SWAP2 MSTORE ISZERO ISZERO PUSH1 0x80 SWAP1 SWAP2 ADD MSTORE SWAP2 SWAP1 POP JUMP JUMPDEST DUP1 CALLDATALOAD PUSH1 0x1 PUSH1 0x1 PUSH1 0xA0 SHL SUB DUP2 AND DUP2 EQ PUSH2 0xE91 JUMPI PUSH0 PUSH0 REVERT JUMPDEST SWAP2 SWAP1 POP JUMP JUMPDEST PUSH0 PUSH0 PUSH1 0x40 DUP4 DUP6 SUB SLT ISZERO PUSH2 0xEA7 JUMPI PUSH0 PUSH0 REVERT JUMPDEST DUP3 CALLDATALOAD SWAP2 POP PUSH2 0xEB7 PUSH1 0x20 DUP5 ADD PUSH2 0xE7B JUMP JUMPDEST SWAP1 POP SWAP3 POP SWAP3 SWAP1 POP JUMP JUMPDEST PUSH0 PUSH0 PUSH1 0x40 DUP4 DUP6 SUB SLT ISZERO PUSH2 0xED1 JUMPI PUSH0 PUSH0 REVERT JUMPDEST DUP3 CALLDATALOAD PUSH1 0x4 DUP2 LT PUSH2 0xEDF JUMPI PUSH0 PUSH0 REVERT JUMPDEST SWAP2 POP PUSH2 0xEB7 PUSH1 0x20 DUP5 ADD PUSH2 0xE7B JUMP JUMPDEST PUSH0 PUSH1 0x20 DUP3 DUP5 SUB SLT ISZERO PUSH2 0xEFD JUMPI PUSH0 PUSH0 REVERT JUMPDEST PUSH2 0xBB1 DUP3 PUSH2 0xE7B JUMP JUMPDEST PUSH1 0x20 DUP1 DUP3 MSTORE PUSH1 0xE SWAP1 DUP3 ADD MSTORE PUSH14 0x2737BA10309033B7BB32B93737B9 PUSH1 0x91 SHL PUSH1 0x40 DUP3 ADD MSTORE PUSH1 0x60 ADD SWAP1 JUMP JUMPDEST PUSH4 0x4E487B71 PUSH1 0xE0 SHL PUSH0 MSTORE PUSH1 0x32 PUSH1 0x4 MSTORE PUSH1 0x24 PUSH0 REVERT JUMPDEST PUSH4 0x4E487B71 PUSH1 0xE0 SHL PUSH0 MSTORE PUSH1 0x11 PUSH1 0x4 MSTORE PUSH1 0x24 PUSH0 REVERT JUMPDEST DUP1 DUP3 ADD DUP1 DUP3 GT ISZERO PUSH2 0xB6C JUMPI PUSH2 0xB6C PUSH2 0xF42 JUMP JUMPDEST PUSH0 DUP3 PUSH2 0xF83 JUMPI PUSH4 0x4E487B71 PUSH1 0xE0 SHL PUSH0 MSTORE PUSH1 0x12 PUSH1 0x4 MSTORE PUSH1 0x24 PUSH0 REVERT JUMPDEST POP DIV SWAP1 JUMP JUMPDEST PUSH0 DUP3 MLOAD DUP1 PUSH1 0x20 DUP6 ADD DUP5 MCOPY PUSH0 SWAP3 ADD SWAP2 DUP3 MSTORE POP SWAP2 SWAP1 POP JUMP JUMPDEST DUP2 DUP2 SUB DUP2 DUP2 GT ISZERO PUSH2 0xB6C JUMPI PUSH2 0xB6C PUSH2 0xF42 JUMP JUMPDEST PUSH4 0x4E487B71 PUSH1 0xE0 SHL PUSH0 MSTORE PUSH1 0x31 PUSH1 0x4 MSTORE PUSH1 0x24 PUSH0 REVERT JUMPDEST PUSH1 0x40 DUP2 ADD PUSH2 0xFD3 DUP3 DUP6 PUSH2 0xDDC JUMP JUMPDEST PUSH1 0x1 PUSH1 0x1 PUSH1 0xA0 SHL SUB SWAP3 SWAP1 SWAP3 AND PUSH1 0x20 SWAP2 SWAP1 SWAP2 ADD MSTORE SWAP2 SWAP1 POP JUMP INVALID LOG2 PUSH5 0x6970667358 0x22 SLT KECCAK256 TSTORE PUSH5 0x33F6876C1E 0xE9 PUSH25 0xD36A83B7979711A8623611C3F6BED5A135D5704299990C6473 PUSH16 0x6C634300081E00330000000000000000 "
				},
				"gasEstimates": {
					"creation": {
						"codeDepositCost": "825800",
						"executionCost": "infinite",
						"totalCost": "infinite"
					},
					"external": {
						"calculateThreshold()": "2476",
						"eduVerify()": "2358",
						"executeProposal(uint256)": "infinite",
						"getProposalDetails(uint256)": "11270",
						"getThresholdForProposal(uint256)": "4824",
						"governorCount()": "2379",
						"governors(uint256)": "4634",
						"hasVoted(uint256,address)": "4877",
						"isGovernor(address)": "2597",
						"proposalCount()": "2358",
						"proposals(uint256)": "13367",
						"propose(uint8,address)": "152868",
						"setEduVerifyAddress(address)": "28944",
						"vote(uint256)": "59130"
					}
				},
				"methodIdentifiers": {
					"calculateThreshold()": "0eb3813a",
					"eduVerify()": "dc999c8d",
					"executeProposal(uint256)": "0d61b519",
					"getProposalDetails(uint256)": "3b4d01a7",
					"getThresholdForProposal(uint256)": "8e2767ef",
					"governorCount()": "e8c9fd45",
					"governors(uint256)": "a7277b00",
					"hasVoted(uint256,address)": "43859632",
					"isGovernor(address)": "e43581b8",
					"proposalCount()": "da35c664",
					"proposals(uint256)": "013cf08b",
					"propose(uint8,address)": "aebe39ca",
					"setEduVerifyAddress(address)": "e0901d7a",
					"vote(uint256)": "0121b93f"
				}
			},
			"storageLayout": {
				"storage": [
					{
						"astId": 380,
						"contract": "new-contracts/EduVerifyAdmin.sol:EduVerifyAdmin",
						"label": "isGovernor",
						"offset": 0,
						"slot": "0",
						"type": "t_mapping(t_address,t_bool)"
					},
					{
						"astId": 383,
						"contract": "new-contracts/EduVerifyAdmin.sol:EduVerifyAdmin",
						"label": "governors",
						"offset": 0,
						"slot": "1",
						"type": "t_array(t_address)dyn_storage"
					},
					{
						"astId": 385,
						"contract": "new-contracts/EduVerifyAdmin.sol:EduVerifyAdmin",
						"label": "eduVerify",
						"offset": 0,
						"slot": "2",
						"type": "t_address"
					},
					{
						"astId": 389,
						"contract": "new-contracts/EduVerifyAdmin.sol:EduVerifyAdmin",
						"label": "proposals",
						"offset": 0,
						"slot": "3",
						"type": "t_array(t_struct(Proposal)376_storage)dyn_storage"
					}
				],
				"types": {
					"t_address": {
						"encoding": "inplace",
						"label": "address",
						"numberOfBytes": "20"
					},
					"t_array(t_address)dyn_storage": {
						"base": "t_address",
						"encoding": "dynamic_array",
						"label": "address[]",
						"numberOfBytes": "32"
					},
					"t_array(t_struct(Proposal)376_storage)dyn_storage": {
						"base": "t_struct(Proposal)376_storage",
						"encoding": "dynamic_array",
						"label": "struct EduVerifyAdmin.Proposal[]",
						"numberOfBytes": "32"
					},
					"t_bool": {
						"encoding": "inplace",
						"label": "bool",
						"numberOfBytes": "1"
					},
					"t_enum(Action)358": {
						"encoding": "inplace",
						"label": "enum EduVerifyAdmin.Action",
						"numberOfBytes": "1"
					},
					"t_mapping(t_address,t_bool)": {
						"encoding": "mapping",
						"key": "t_address",
						"label": "mapping(address => bool)",
						"numberOfBytes": "32",
						"value": "t_bool"
					},
					"t_struct(Proposal)376_storage": {
						"encoding": "inplace",
						"label": "struct EduVerifyAdmin.Proposal",
						"members": [
							{
								"astId": 360,
								"contract": "new-contracts/EduVerifyAdmin.sol:EduVerifyAdmin",
								"label": "id",
								"offset": 0,
								"slot": "0",
								"type": "t_uint256"
							},
							{
								"astId": 363,
								"contract": "new-contracts/EduVerifyAdmin.sol:EduVerifyAdmin",
								"label": "action",
								"offset": 0,
								"slot": "1",
								"type": "t_enum(Action)358"
							},
							{
								"astId": 365,
								"contract": "new-contracts/EduVerifyAdmin.sol:EduVerifyAdmin",
								"label": "target",
								"offset": 1,
								"slot": "1",
								"type": "t_address"
							},
							{
								"astId": 367,
								"contract": "new-contracts/EduVerifyAdmin.sol:EduVerifyAdmin",
								"label": "yesVotes",
								"offset": 0,
								"slot": "2",
								"type": "t_uint256"
							},
							{
								"astId": 369,
								"contract": "new-contracts/EduVerifyAdmin.sol:EduVerifyAdmin",
								"label": "snapshotGovernorCount",
								"offset": 0,
								"slot": "3",
								"type": "t_uint256"
							},
							{
								"astId": 371,
								"contract": "new-contracts/EduVerifyAdmin.sol:EduVerifyAdmin",
								"label": "executed",
								"offset": 0,
								"slot": "4",
								"type": "t_bool"
							},
							{
								"astId": 375,
								"contract": "new-contracts/EduVerifyAdmin.sol:EduVerifyAdmin",
								"label": "hasVoted",
								"offset": 0,
								"slot": "5",
								"type": "t_mapping(t_address,t_bool)"
							}
						],
						"numberOfBytes": "192"
					},
					"t_uint256": {
						"encoding": "inplace",
						"label": "uint256",
						"numberOfBytes": "32"
					}
				}
			},
			"userdoc": {
				"kind": "user",
				"methods": {},
				"version": 1
			}
		}
	}
}