{
	"contracts/EduVerifyAdmin.sol": {
		"EduVerifyAdmin": {
			"abi": [
				{
					"inputs": [
						{
							"internalType": "address[]",
							"name": "_initialGovernors",
							"type": "address[]"
						}
					],
					"stateMutability": "nonpayable",
					"type": "constructor"
				},
				{
					"anonymous": false,
					"inputs": [
						{
							"indexed": true,
							"internalType": "address",
							"name": "governor",
							"type": "address"
						}
					],
					"name": "GovernorAdded",
					"type": "event"
				},
				{
					"anonymous": false,
					"inputs": [
						{
							"indexed": true,
							"internalType": "address",
							"name": "governor",
							"type": "address"
						}
					],
					"name": "GovernorRemoved",
					"type": "event"
				},
				{
					"anonymous": false,
					"inputs": [
						{
							"indexed": true,
							"internalType": "uint256",
							"name": "proposalId",
							"type": "uint256"
						},
						{
							"indexed": false,
							"internalType": "enum EduVerifyAdmin.Action",
							"name": "action",
							"type": "uint8"
						},
						{
							"indexed": false,
							"internalType": "address",
							"name": "target",
							"type": "address"
						}
					],
					"name": "ProposalCreated",
					"type": "event"
				},
				{
					"anonymous": false,
					"inputs": [
						{
							"indexed": true,
							"internalType": "uint256",
							"name": "proposalId",
							"type": "uint256"
						}
					],
					"name": "ProposalExecuted",
					"type": "event"
				},
				{
					"anonymous": false,
					"inputs": [
						{
							"indexed": true,
							"internalType": "uint256",
							"name": "proposalId",
							"type": "uint256"
						},
						{
							"indexed": true,
							"internalType": "address",
							"name": "voter",
							"type": "address"
						}
					],
					"name": "VoteCast",
					"type": "event"
				},
				{
					"inputs": [],
					"name": "calculateThreshold",
					"outputs": [
						{
							"internalType": "uint256",
							"name": "",
							"type": "uint256"
						}
					],
					"stateMutability": "view",
					"type": "function"
				},
				{
					"inputs": [],
					"name": "eduVerify",
					"outputs": [
						{
							"internalType": "address",
							"name": "",
							"type": "address"
						}
					],
					"stateMutability": "view",
					"type": "function"
				},
				{
					"inputs": [
						{
							"internalType": "uint256",
							"name": "proposalId",
							"type": "uint256"
						}
					],
					"name": "executeProposal",
					"outputs": [],
					"stateMutability": "nonpayable",
					"type": "function"
				},
				{
					"inputs": [
						{
							"internalType": "uint256",
							"name": "proposalId",
							"type": "uint256"
						}
					],
					"name": "getProposalDetails",
					"outputs": [
						{
							"internalType": "enum EduVerifyAdmin.Action",
							"name": "action",
							"type": "uint8"
						},
						{
							"internalType": "address",
							"name": "target",
							"type": "address"
						},
						{
							"internalType": "uint256",
							"name": "yesVotes",
							"type": "uint256"
						},
						{
							"internalType": "uint256",
							"name": "snapshotGovernorCount",
							"type": "uint256"
						},
						{
							"internalType": "bool",
							"name": "executed",
							"type": "bool"
						}
					],
					"stateMutability": "view",
					"type": "function"
				},
				{
					"inputs": [
						{
							"internalType": "uint256",
							"name": "proposalId",
							"type": "uint256"
						}
					],
					"name": "getThresholdForProposal",
					"outputs": [
						{
							"internalType": "uint256",
							"name": "",
							"type": "uint256"
						}
					],
					"stateMutability": "view",
					"type": "function"
				},
				{
					"inputs": [],
					"name": "governorCount",
					"outputs": [
						{
							"internalType": "uint256",
							"name": "",
							"type": "uint256"
						}
					],
					"stateMutability": "view",
					"type": "function"
				},
				{
					"inputs": [
						{
							"internalType": "uint256",
							"name": "",
							"type": "uint256"
						}
					],
					"name": "governors",
					"outputs": [
						{
							"internalType": "address",
							"name": "",
							"type": "address"
						}
					],
					"stateMutability": "view",
					"type": "function"
				},
				{
					"inputs": [
						{
							"internalType": "uint256",
							"name": "proposalId",
							"type": "uint256"
						},
						{
							"internalType": "address",
							"name": "governor",
							"type": "address"
						}
					],
					"name": "hasVoted",
					"outputs": [
						{
							"internalType": "bool",
							"name": "",
							"type": "bool"
						}
					],
					"stateMutability": "view",
					"type": "function"
				},
				{
					"inputs": [
						{
							"internalType": "address",
							"name": "",
							"type": "address"
						}
					],
					"name": "isGovernor",
					"outputs": [
						{
							"internalType": "bool",
							"name": "",
							"type": "bool"
						}
					],
					"stateMutability": "view",
					"type": "function"
				},
				{
					"inputs": [],
					"name": "proposalCount",
					"outputs": [
						{
							"internalType": "uint256",
							"name": "",
							"type": "uint256"
						}
					],
					"stateMutability": "view",
					"type": "function"
				},
				{
					"inputs": [
						{
							"internalType": "uint256",
							"name": "",
							"type": "uint256"
						}
					],
					"name": "proposals",
					"outputs": [
						{
							"internalType": "uint256",
							"name": "id",
							"type": "uint256"
						},
						{
							"internalType": "enum EduVerifyAdmin.Action",
							"name": "action",
							"type": "uint8"
						},
						{
							"internalType": "address",
							"name": "target",
							"type": "address"
						},
						{
							"internalType": "uint256",
							"name": "yesVotes",
							"type": "uint256"
						},
						{
							"internalType": "uint256",
							"name": "snapshotGovernorCount",
							"type": "uint256"
						},
						{
							"internalType": "bool",
							"name": "executed",
							"type": "bool"
						}
					],
					"stateMutability": "view",
					"type": "function"
				},
				{
					"inputs": [
						{
							"internalType": "enum EduVerifyAdmin.Action",
							"name": "action",
							"type": "uint8"
						},
						{
							"internalType": "address",
							"name": "target",
							"type": "address"
						}
					],
					"name": "propose",
					"outputs": [
						{
							"internalType": "uint256",
							"name": "",
							"type": "uint256"
						}
					],
					"stateMutability": "nonpayable",
					"type": "function"
				},
				{
					"inputs": [
						{
							"internalType": "address",
							"name": "_eduVerify",
							"type": "address"
						}
					],
					"name": "setEduVerifyAddress",
					"outputs": [],
					"stateMutability": "nonpayable",
					"type": "function"
				},
				{
					"inputs": [
						{
							"internalType": "uint256",
							"name": "proposalId",
							"type": "uint256"
						}
					],
					"name": "vote",
					"outputs": [],
					"stateMutability": "nonpayable",
					"type": "function"
				}
			],
			"devdoc": {
				"kind": "dev",
				"methods": {},
				"version": 1
			},
			"evm": {
				"assembly": "    /* \"contracts/EduVerifyAdmin.sol\":121:6584  contract EduVerifyAdmin {... */\n  mstore(0x40, 0x80)\n    /* \"contracts/EduVerifyAdmin.sol\":1892:2382  constructor(address[] memory _initialGovernors) {... */\n  callvalue\n  dup1\n  iszero\n  tag_1\n  jumpi\n  revert(0x00, 0x00)\ntag_1:\n  pop\n  mload(0x40)\n  sub(codesize, bytecodeSize)\n  dup1\n  bytecodeSize\n  dup4\n  codecopy\n  dup2\n  dup2\n  add\n  0x40\n  mstore\n  dup2\n  add\n  swap1\n  tag_2\n  swap2\n  swap1\n  tag_3\n  jump\t// in\ntag_2:\n    /* \"contracts/EduVerifyAdmin.sol\":1951:1962  uint length */\n  0x00\n    /* \"contracts/EduVerifyAdmin.sol\":1965:1982  _initialGovernors */\n  dup2\n    /* \"contracts/EduVerifyAdmin.sol\":1965:1989  _initialGovernors.length */\n  mload\n    /* \"contracts/EduVerifyAdmin.sol\":1951:1989  uint length = _initialGovernors.length */\n  swap1\n  pop\n    /* \"contracts/EduVerifyAdmin.sol\":2004:2010  uint i */\n  0x00\n    /* \"contracts/EduVerifyAdmin.sol\":2013:2014  0 */\n  0x00\n    /* \"contracts/EduVerifyAdmin.sol\":2004:2014  uint i = 0 */\n  swap1\n  pop\n    /* \"contracts/EduVerifyAdmin.sol\":1999:2376  for (uint i = 0; i < length;) {... */\ntag_6:\n    /* \"contracts/EduVerifyAdmin.sol\":2020:2026  length */\n  dup2\n    /* \"contracts/EduVerifyAdmin.sol\":2016:2017  i */\n  dup2\n    /* \"contracts/EduVerifyAdmin.sol\":2016:2026  i < length */\n  lt\n    /* \"contracts/EduVerifyAdmin.sol\":1999:2376  for (uint i = 0; i < length;) {... */\n  iszero\n  tag_7\n  jumpi\n    /* \"contracts/EduVerifyAdmin.sol\":2043:2059  address governor */\n  0x00\n    /* \"contracts/EduVerifyAdmin.sol\":2062:2079  _initialGovernors */\n  dup4\n    /* \"contracts/EduVerifyAdmin.sol\":2080:2081  i */\n  dup3\n    /* \"contracts/EduVerifyAdmin.sol\":2062:2082  _initialGovernors[i] */\n  dup2\n  mload\n  dup2\n  lt\n  tag_9\n  jumpi\n  tag_10\n  tag_11\n  jump\t// in\ntag_10:\ntag_9:\n  0x20\n  mul\n  0x20\n  add\n  add\n  mload\n    /* \"contracts/EduVerifyAdmin.sol\":2043:2082  address governor = _initialGovernors[i] */\n  swap1\n  pop\n    /* \"contracts/EduVerifyAdmin.sol\":2124:2125  0 */\n  0x00\n    /* \"contracts/EduVerifyAdmin.sol\":2104:2126  governor != address(0) */\n  0xffffffffffffffffffffffffffffffffffffffff\n  and\n    /* \"contracts/EduVerifyAdmin.sol\":2104:2112  governor */\n  dup2\n    /* \"contracts/EduVerifyAdmin.sol\":2104:2126  governor != address(0) */\n  0xffffffffffffffffffffffffffffffffffffffff\n  and\n  sub\n    /* \"contracts/EduVerifyAdmin.sol\":2096:2147  require(governor != address(0), \"Invalid governor\") */\n  tag_12\n  jumpi\n  mload(0x40)\n  0x08c379a000000000000000000000000000000000000000000000000000000000\n  dup2\n  mstore\n  0x04\n  add\n  tag_13\n  swap1\n  tag_14\n  jump\t// in\ntag_13:\n  mload(0x40)\n  dup1\n  swap2\n  sub\n  swap1\n  revert\ntag_12:\n    /* \"contracts/EduVerifyAdmin.sol\":2170:2180  isGovernor */\n  0x00\n    /* \"contracts/EduVerifyAdmin.sol\":2170:2190  isGovernor[governor] */\n  0x00\n    /* \"contracts/EduVerifyAdmin.sol\":2181:2189  governor */\n  dup3\n    /* \"contracts/EduVerifyAdmin.sol\":2170:2190  isGovernor[governor] */\n  0xffffffffffffffffffffffffffffffffffffffff\n  and\n  0xffffffffffffffffffffffffffffffffffffffff\n  and\n  dup2\n  mstore\n  0x20\n  add\n  swap1\n  dup2\n  mstore\n  0x20\n  add\n  0x00\n  keccak256\n  0x00\n  swap1\n  sload\n  swap1\n  0x0100\n  exp\n  swap1\n  div\n  0xff\n  and\n    /* \"contracts/EduVerifyAdmin.sol\":2169:2190  !isGovernor[governor] */\n  iszero\n    /* \"contracts/EduVerifyAdmin.sol\":2161:2213  require(!isGovernor[governor], \"Duplicate governor\") */\n  tag_15\n  jumpi\n  mload(0x40)\n  0x08c379a000000000000000000000000000000000000000000000000000000000\n  dup2\n  mstore\n  0x04\n  add\n  tag_16\n  swap1\n  tag_17\n  jump\t// in\ntag_16:\n  mload(0x40)\n  dup1\n  swap2\n  sub\n  swap1\n  revert\ntag_15:\n    /* \"contracts/EduVerifyAdmin.sol\":2250:2254  true */\n  0x01\n    /* \"contracts/EduVerifyAdmin.sol\":2227:2237  isGovernor */\n  0x00\n    /* \"contracts/EduVerifyAdmin.sol\":2227:2247  isGovernor[governor] */\n  0x00\n    /* \"contracts/EduVerifyAdmin.sol\":2238:2246  governor */\n  dup4\n    /* \"contracts/EduVerifyAdmin.sol\":2227:2247  isGovernor[governor] */\n  0xffffffffffffffffffffffffffffffffffffffff\n  and\n  0xffffffffffffffffffffffffffffffffffffffff\n  and\n  dup2\n  mstore\n  0x20\n  add\n  swap1\n  dup2\n  mstore\n  0x20\n  add\n  0x00\n  keccak256\n  0x00\n    /* \"contracts/EduVerifyAdmin.sol\":2227:2254  isGovernor[governor] = true */\n  0x0100\n  exp\n  dup2\n  sload\n  dup2\n  0xff\n  mul\n  not\n  and\n  swap1\n  dup4\n  iszero\n  iszero\n  mul\n  or\n  swap1\n  sstore\n  pop\n    /* \"contracts/EduVerifyAdmin.sol\":2268:2277  governors */\n  0x01\n    /* \"contracts/EduVerifyAdmin.sol\":2283:2291  governor */\n  dup2\n    /* \"contracts/EduVerifyAdmin.sol\":2268:2292  governors.push(governor) */\n  swap1\n  dup1\n  0x01\n  dup2\n  sload\n  add\n  dup1\n  dup3\n  sstore\n  dup1\n  swap2\n  pop\n  pop\n  0x01\n  swap1\n  sub\n  swap1\n  0x00\n  mstore\n  keccak256(0x00, 0x20)\n  add\n  0x00\n  swap1\n  swap2\n  swap1\n  swap2\n  swap1\n  swap2\n  0x0100\n  exp\n  dup2\n  sload\n  dup2\n  0xffffffffffffffffffffffffffffffffffffffff\n  mul\n  not\n  and\n  swap1\n  dup4\n  0xffffffffffffffffffffffffffffffffffffffff\n  and\n  mul\n  or\n  swap1\n  sstore\n  pop\n    /* \"contracts/EduVerifyAdmin.sol\":2325:2333  governor */\n  dup1\n    /* \"contracts/EduVerifyAdmin.sol\":2311:2334  GovernorAdded(governor) */\n  0xffffffffffffffffffffffffffffffffffffffff\n  and\n  0xdc5a48d79e2e147530ff63ecdbed5a5a66adb9d5cf339384d5d076da197c40b5\n  mload(0x40)\n  mload(0x40)\n  dup1\n  swap2\n  sub\n  swap1\n  log2\n    /* \"contracts/EduVerifyAdmin.sol\":2360:2363  ++i */\n  dup2\n  0x01\n  add\n  swap2\n  pop\n    /* \"contracts/EduVerifyAdmin.sol\":2029:2376  {... */\n  pop\n    /* \"contracts/EduVerifyAdmin.sol\":1999:2376  for (uint i = 0; i < length;) {... */\n  jump(tag_6)\ntag_7:\n  pop\n    /* \"contracts/EduVerifyAdmin.sol\":1940:2382  {... */\n  pop\n    /* \"contracts/EduVerifyAdmin.sol\":1892:2382  constructor(address[] memory _initialGovernors) {... */\n  pop\n    /* \"contracts/EduVerifyAdmin.sol\":121:6584  contract EduVerifyAdmin {... */\n  jump(tag_19)\n    /* \"#utility.yul\":7:82   */\ntag_20:\n    /* \"#utility.yul\":40:46   */\n  0x00\n    /* \"#utility.yul\":73:75   */\n  0x40\n    /* \"#utility.yul\":67:76   */\n  mload\n    /* \"#utility.yul\":57:76   */\n  swap1\n  pop\n    /* \"#utility.yul\":7:82   */\n  swap1\n  jump\t// out\n    /* \"#utility.yul\":88:205   */\ntag_21:\n    /* \"#utility.yul\":197:198   */\n  0x00\n    /* \"#utility.yul\":194:195   */\n  0x00\n    /* \"#utility.yul\":187:199   */\n  revert\n    /* \"#utility.yul\":211:328   */\ntag_22:\n    /* \"#utility.yul\":320:321   */\n  0x00\n    /* \"#utility.yul\":317:318   */\n  0x00\n    /* \"#utility.yul\":310:322   */\n  revert\n    /* \"#utility.yul\":334:451   */\ntag_23:\n    /* \"#utility.yul\":443:444   */\n  0x00\n    /* \"#utility.yul\":440:441   */\n  0x00\n    /* \"#utility.yul\":433:445   */\n  revert\n    /* \"#utility.yul\":457:559   */\ntag_24:\n    /* \"#utility.yul\":498:504   */\n  0x00\n    /* \"#utility.yul\":549:551   */\n  0x1f\n    /* \"#utility.yul\":545:552   */\n  not\n    /* \"#utility.yul\":540:542   */\n  0x1f\n    /* \"#utility.yul\":533:538   */\n  dup4\n    /* \"#utility.yul\":529:543   */\n  add\n    /* \"#utility.yul\":525:553   */\n  and\n    /* \"#utility.yul\":515:553   */\n  swap1\n  pop\n    /* \"#utility.yul\":457:559   */\n  swap2\n  swap1\n  pop\n  jump\t// out\n    /* \"#utility.yul\":565:745   */\ntag_25:\n    /* \"#utility.yul\":613:690   */\n  0x4e487b7100000000000000000000000000000000000000000000000000000000\n    /* \"#utility.yul\":610:611   */\n  0x00\n    /* \"#utility.yul\":603:691   */\n  mstore\n    /* \"#utility.yul\":710:714   */\n  0x41\n    /* \"#utility.yul\":707:708   */\n  0x04\n    /* \"#utility.yul\":700:715   */\n  mstore\n    /* \"#utility.yul\":734:738   */\n  0x24\n    /* \"#utility.yul\":731:732   */\n  0x00\n    /* \"#utility.yul\":724:739   */\n  revert\n    /* \"#utility.yul\":751:1032   */\ntag_26:\n    /* \"#utility.yul\":834:861   */\n  tag_49\n    /* \"#utility.yul\":856:860   */\n  dup3\n    /* \"#utility.yul\":834:861   */\n  tag_24\n  jump\t// in\ntag_49:\n    /* \"#utility.yul\":826:832   */\n  dup2\n    /* \"#utility.yul\":822:862   */\n  add\n    /* \"#utility.yul\":964:970   */\n  dup2\n    /* \"#utility.yul\":952:962   */\n  dup2\n    /* \"#utility.yul\":949:971   */\n  lt\n    /* \"#utility.yul\":928:946   */\n  0xffffffffffffffff\n    /* \"#utility.yul\":916:926   */\n  dup3\n    /* \"#utility.yul\":913:947   */\n  gt\n    /* \"#utility.yul\":910:972   */\n  or\n    /* \"#utility.yul\":907:995   */\n  iszero\n  tag_50\n  jumpi\n    /* \"#utility.yul\":975:993   */\n  tag_51\n  tag_25\n  jump\t// in\ntag_51:\n    /* \"#utility.yul\":907:995   */\ntag_50:\n    /* \"#utility.yul\":1015:1025   */\n  dup1\n    /* \"#utility.yul\":1011:1013   */\n  0x40\n    /* \"#utility.yul\":1004:1026   */\n  mstore\n    /* \"#utility.yul\":794:1032   */\n  pop\n    /* \"#utility.yul\":751:1032   */\n  pop\n  pop\n  jump\t// out\n    /* \"#utility.yul\":1038:1167   */\ntag_27:\n    /* \"#utility.yul\":1072:1078   */\n  0x00\n    /* \"#utility.yul\":1099:1119   */\n  tag_53\n  tag_20\n  jump\t// in\ntag_53:\n    /* \"#utility.yul\":1089:1119   */\n  swap1\n  pop\n    /* \"#utility.yul\":1128:1161   */\n  tag_54\n    /* \"#utility.yul\":1156:1160   */\n  dup3\n    /* \"#utility.yul\":1148:1154   */\n  dup3\n    /* \"#utility.yul\":1128:1161   */\n  tag_26\n  jump\t// in\ntag_54:\n    /* \"#utility.yul\":1038:1167   */\n  swap2\n  swap1\n  pop\n  jump\t// out\n    /* \"#utility.yul\":1173:1484   */\ntag_28:\n    /* \"#utility.yul\":1250:1254   */\n  0x00\n    /* \"#utility.yul\":1340:1358   */\n  0xffffffffffffffff\n    /* \"#utility.yul\":1332:1338   */\n  dup3\n    /* \"#utility.yul\":1329:1359   */\n  gt\n    /* \"#utility.yul\":1326:1382   */\n  iszero\n  tag_56\n  jumpi\n    /* \"#utility.yul\":1362:1380   */\n  tag_57\n  tag_25\n  jump\t// in\ntag_57:\n    /* \"#utility.yul\":1326:1382   */\ntag_56:\n    /* \"#utility.yul\":1412:1416   */\n  0x20\n    /* \"#utility.yul\":1404:1410   */\n  dup3\n    /* \"#utility.yul\":1400:1417   */\n  mul\n    /* \"#utility.yul\":1392:1417   */\n  swap1\n  pop\n    /* \"#utility.yul\":1472:1476   */\n  0x20\n    /* \"#utility.yul\":1466:1470   */\n  dup2\n    /* \"#utility.yul\":1462:1477   */\n  add\n    /* \"#utility.yul\":1454:1477   */\n  swap1\n  pop\n    /* \"#utility.yul\":1173:1484   */\n  swap2\n  swap1\n  pop\n  jump\t// out\n    /* \"#utility.yul\":1490:1607   */\ntag_29:\n    /* \"#utility.yul\":1599:1600   */\n  0x00\n    /* \"#utility.yul\":1596:1597   */\n  0x00\n    /* \"#utility.yul\":1589:1601   */\n  revert\n    /* \"#utility.yul\":1613:1739   */\ntag_30:\n    /* \"#utility.yul\":1650:1657   */\n  0x00\n    /* \"#utility.yul\":1690:1732   */\n  0xffffffffffffffffffffffffffffffffffffffff\n    /* \"#utility.yul\":1683:1688   */\n  dup3\n    /* \"#utility.yul\":1679:1733   */\n  and\n    /* \"#utility.yul\":1668:1733   */\n  swap1\n  pop\n    /* \"#utility.yul\":1613:1739   */\n  swap2\n  swap1\n  pop\n  jump\t// out\n    /* \"#utility.yul\":1745:1841   */\ntag_31:\n    /* \"#utility.yul\":1782:1789   */\n  0x00\n    /* \"#utility.yul\":1811:1835   */\n  tag_61\n    /* \"#utility.yul\":1829:1834   */\n  dup3\n    /* \"#utility.yul\":1811:1835   */\n  tag_30\n  jump\t// in\ntag_61:\n    /* \"#utility.yul\":1800:1835   */\n  swap1\n  pop\n    /* \"#utility.yul\":1745:1841   */\n  swap2\n  swap1\n  pop\n  jump\t// out\n    /* \"#utility.yul\":1847:1969   */\ntag_32:\n    /* \"#utility.yul\":1920:1944   */\n  tag_63\n    /* \"#utility.yul\":1938:1943   */\n  dup2\n    /* \"#utility.yul\":1920:1944   */\n  tag_31\n  jump\t// in\ntag_63:\n    /* \"#utility.yul\":1913:1918   */\n  dup2\n    /* \"#utility.yul\":1910:1945   */\n  eq\n    /* \"#utility.yul\":1900:1963   */\n  tag_64\n  jumpi\n    /* \"#utility.yul\":1959:1960   */\n  0x00\n    /* \"#utility.yul\":1956:1957   */\n  0x00\n    /* \"#utility.yul\":1949:1961   */\n  revert\n    /* \"#utility.yul\":1900:1963   */\ntag_64:\n    /* \"#utility.yul\":1847:1969   */\n  pop\n  jump\t// out\n    /* \"#utility.yul\":1975:2118   */\ntag_33:\n    /* \"#utility.yul\":2032:2037   */\n  0x00\n    /* \"#utility.yul\":2063:2069   */\n  dup2\n    /* \"#utility.yul\":2057:2070   */\n  mload\n    /* \"#utility.yul\":2048:2070   */\n  swap1\n  pop\n    /* \"#utility.yul\":2079:2112   */\n  tag_66\n    /* \"#utility.yul\":2106:2111   */\n  dup2\n    /* \"#utility.yul\":2079:2112   */\n  tag_32\n  jump\t// in\ntag_66:\n    /* \"#utility.yul\":1975:2118   */\n  swap3\n  swap2\n  pop\n  pop\n  jump\t// out\n    /* \"#utility.yul\":2141:2873   */\ntag_34:\n    /* \"#utility.yul\":2248:2253   */\n  0x00\n    /* \"#utility.yul\":2273:2354   */\n  tag_68\n    /* \"#utility.yul\":2289:2353   */\n  tag_69\n    /* \"#utility.yul\":2346:2352   */\n  dup5\n    /* \"#utility.yul\":2289:2353   */\n  tag_28\n  jump\t// in\ntag_69:\n    /* \"#utility.yul\":2273:2354   */\n  tag_27\n  jump\t// in\ntag_68:\n    /* \"#utility.yul\":2264:2354   */\n  swap1\n  pop\n    /* \"#utility.yul\":2374:2379   */\n  dup1\n    /* \"#utility.yul\":2403:2409   */\n  dup4\n    /* \"#utility.yul\":2396:2401   */\n  dup3\n    /* \"#utility.yul\":2389:2410   */\n  mstore\n    /* \"#utility.yul\":2437:2441   */\n  0x20\n    /* \"#utility.yul\":2430:2435   */\n  dup3\n    /* \"#utility.yul\":2426:2442   */\n  add\n    /* \"#utility.yul\":2419:2442   */\n  swap1\n  pop\n    /* \"#utility.yul\":2490:2494   */\n  0x20\n    /* \"#utility.yul\":2482:2488   */\n  dup5\n    /* \"#utility.yul\":2478:2495   */\n  mul\n    /* \"#utility.yul\":2470:2476   */\n  dup4\n    /* \"#utility.yul\":2466:2496   */\n  add\n    /* \"#utility.yul\":2519:2522   */\n  dup6\n    /* \"#utility.yul\":2511:2517   */\n  dup2\n    /* \"#utility.yul\":2508:2523   */\n  gt\n    /* \"#utility.yul\":2505:2627   */\n  iszero\n  tag_70\n  jumpi\n    /* \"#utility.yul\":2538:2617   */\n  tag_71\n  tag_29\n  jump\t// in\ntag_71:\n    /* \"#utility.yul\":2505:2627   */\ntag_70:\n    /* \"#utility.yul\":2653:2659   */\n  dup4\n    /* \"#utility.yul\":2636:2867   */\ntag_72:\n    /* \"#utility.yul\":2670:2676   */\n  dup2\n    /* \"#utility.yul\":2665:2668   */\n  dup2\n    /* \"#utility.yul\":2662:2677   */\n  lt\n    /* \"#utility.yul\":2636:2867   */\n  iszero\n  tag_74\n  jumpi\n    /* \"#utility.yul\":2745:2748   */\n  dup1\n    /* \"#utility.yul\":2774:2822   */\n  tag_75\n    /* \"#utility.yul\":2818:2821   */\n  dup9\n    /* \"#utility.yul\":2806:2816   */\n  dup3\n    /* \"#utility.yul\":2774:2822   */\n  tag_33\n  jump\t// in\ntag_75:\n    /* \"#utility.yul\":2769:2772   */\n  dup5\n    /* \"#utility.yul\":2762:2823   */\n  mstore\n    /* \"#utility.yul\":2852:2856   */\n  0x20\n    /* \"#utility.yul\":2847:2850   */\n  dup5\n    /* \"#utility.yul\":2843:2857   */\n  add\n    /* \"#utility.yul\":2836:2857   */\n  swap4\n  pop\n    /* \"#utility.yul\":2712:2867   */\n  pop\n    /* \"#utility.yul\":2696:2700   */\n  0x20\n    /* \"#utility.yul\":2691:2694   */\n  dup2\n    /* \"#utility.yul\":2687:2701   */\n  add\n    /* \"#utility.yul\":2680:2701   */\n  swap1\n  pop\n    /* \"#utility.yul\":2636:2867   */\n  jump(tag_72)\ntag_74:\n    /* \"#utility.yul\":2640:2661   */\n  pop\n    /* \"#utility.yul\":2254:2873   */\n  pop\n  pop\n    /* \"#utility.yul\":2141:2873   */\n  swap4\n  swap3\n  pop\n  pop\n  pop\n  jump\t// out\n    /* \"#utility.yul\":2896:3281   */\ntag_35:\n    /* \"#utility.yul\":2978:2983   */\n  0x00\n    /* \"#utility.yul\":3027:3030   */\n  dup3\n    /* \"#utility.yul\":3020:3024   */\n  0x1f\n    /* \"#utility.yul\":3012:3018   */\n  dup4\n    /* \"#utility.yul\":3008:3025   */\n  add\n    /* \"#utility.yul\":3004:3031   */\n  slt\n    /* \"#utility.yul\":2994:3116   */\n  tag_77\n  jumpi\n    /* \"#utility.yul\":3035:3114   */\n  tag_78\n  tag_23\n  jump\t// in\ntag_78:\n    /* \"#utility.yul\":2994:3116   */\ntag_77:\n    /* \"#utility.yul\":3145:3151   */\n  dup2\n    /* \"#utility.yul\":3139:3152   */\n  mload\n    /* \"#utility.yul\":3170:3275   */\n  tag_79\n    /* \"#utility.yul\":3271:3274   */\n  dup5\n    /* \"#utility.yul\":3263:3269   */\n  dup3\n    /* \"#utility.yul\":3256:3260   */\n  0x20\n    /* \"#utility.yul\":3248:3254   */\n  dup7\n    /* \"#utility.yul\":3244:3261   */\n  add\n    /* \"#utility.yul\":3170:3275   */\n  tag_34\n  jump\t// in\ntag_79:\n    /* \"#utility.yul\":3161:3275   */\n  swap2\n  pop\n    /* \"#utility.yul\":2984:3281   */\n  pop\n    /* \"#utility.yul\":2896:3281   */\n  swap3\n  swap2\n  pop\n  pop\n  jump\t// out\n    /* \"#utility.yul\":3287:3841   */\ntag_3:\n    /* \"#utility.yul\":3382:3388   */\n  0x00\n    /* \"#utility.yul\":3431:3433   */\n  0x20\n    /* \"#utility.yul\":3419:3428   */\n  dup3\n    /* \"#utility.yul\":3410:3417   */\n  dup5\n    /* \"#utility.yul\":3406:3429   */\n  sub\n    /* \"#utility.yul\":3402:3434   */\n  slt\n    /* \"#utility.yul\":3399:3518   */\n  iszero\n  tag_81\n  jumpi\n    /* \"#utility.yul\":3437:3516   */\n  tag_82\n  tag_21\n  jump\t// in\ntag_82:\n    /* \"#utility.yul\":3399:3518   */\ntag_81:\n    /* \"#utility.yul\":3578:3579   */\n  0x00\n    /* \"#utility.yul\":3567:3576   */\n  dup3\n    /* \"#utility.yul\":3563:3580   */\n  add\n    /* \"#utility.yul\":3557:3581   */\n  mload\n    /* \"#utility.yul\":3608:3626   */\n  0xffffffffffffffff\n    /* \"#utility.yul\":3600:3606   */\n  dup2\n    /* \"#utility.yul\":3597:3627   */\n  gt\n    /* \"#utility.yul\":3594:3711   */\n  iszero\n  tag_83\n  jumpi\n    /* \"#utility.yul\":3630:3709   */\n  tag_84\n  tag_22\n  jump\t// in\ntag_84:\n    /* \"#utility.yul\":3594:3711   */\ntag_83:\n    /* \"#utility.yul\":3735:3824   */\n  tag_85\n    /* \"#utility.yul\":3816:3823   */\n  dup5\n    /* \"#utility.yul\":3807:3813   */\n  dup3\n    /* \"#utility.yul\":3796:3805   */\n  dup6\n    /* \"#utility.yul\":3792:3814   */\n  add\n    /* \"#utility.yul\":3735:3824   */\n  tag_35\n  jump\t// in\ntag_85:\n    /* \"#utility.yul\":3725:3824   */\n  swap2\n  pop\n    /* \"#utility.yul\":3528:3834   */\n  pop\n    /* \"#utility.yul\":3287:3841   */\n  swap3\n  swap2\n  pop\n  pop\n  jump\t// out\n    /* \"#utility.yul\":3847:4027   */\ntag_11:\n    /* \"#utility.yul\":3895:3972   */\n  0x4e487b7100000000000000000000000000000000000000000000000000000000\n    /* \"#utility.yul\":3892:3893   */\n  0x00\n    /* \"#utility.yul\":3885:3973   */\n  mstore\n    /* \"#utility.yul\":3992:3996   */\n  0x32\n    /* \"#utility.yul\":3989:3990   */\n  0x04\n    /* \"#utility.yul\":3982:3997   */\n  mstore\n    /* \"#utility.yul\":4016:4020   */\n  0x24\n    /* \"#utility.yul\":4013:4014   */\n  0x00\n    /* \"#utility.yul\":4006:4021   */\n  revert\n    /* \"#utility.yul\":4033:4202   */\ntag_36:\n    /* \"#utility.yul\":4117:4128   */\n  0x00\n    /* \"#utility.yul\":4151:4157   */\n  dup3\n    /* \"#utility.yul\":4146:4149   */\n  dup3\n    /* \"#utility.yul\":4139:4158   */\n  mstore\n    /* \"#utility.yul\":4191:4195   */\n  0x20\n    /* \"#utility.yul\":4186:4189   */\n  dup3\n    /* \"#utility.yul\":4182:4196   */\n  add\n    /* \"#utility.yul\":4167:4196   */\n  swap1\n  pop\n    /* \"#utility.yul\":4033:4202   */\n  swap3\n  swap2\n  pop\n  pop\n  jump\t// out\n    /* \"#utility.yul\":4208:4374   */\ntag_37:\n    /* \"#utility.yul\":4348:4366   */\n  0x496e76616c696420676f7665726e6f7200000000000000000000000000000000\n    /* \"#utility.yul\":4344:4345   */\n  0x00\n    /* \"#utility.yul\":4336:4342   */\n  dup3\n    /* \"#utility.yul\":4332:4346   */\n  add\n    /* \"#utility.yul\":4325:4367   */\n  mstore\n    /* \"#utility.yul\":4208:4374   */\n  pop\n  jump\t// out\n    /* \"#utility.yul\":4380:4746   */\ntag_38:\n    /* \"#utility.yul\":4522:4525   */\n  0x00\n    /* \"#utility.yul\":4543:4610   */\n  tag_90\n    /* \"#utility.yul\":4607:4609   */\n  0x10\n    /* \"#utility.yul\":4602:4605   */\n  dup4\n    /* \"#utility.yul\":4543:4610   */\n  tag_36\n  jump\t// in\ntag_90:\n    /* \"#utility.yul\":4536:4610   */\n  swap2\n  pop\n    /* \"#utility.yul\":4619:4712   */\n  tag_91\n    /* \"#utility.yul\":4708:4711   */\n  dup3\n    /* \"#utility.yul\":4619:4712   */\n  tag_37\n  jump\t// in\ntag_91:\n    /* \"#utility.yul\":4737:4739   */\n  0x20\n    /* \"#utility.yul\":4732:4735   */\n  dup3\n    /* \"#utility.yul\":4728:4740   */\n  add\n    /* \"#utility.yul\":4721:4740   */\n  swap1\n  pop\n    /* \"#utility.yul\":4380:4746   */\n  swap2\n  swap1\n  pop\n  jump\t// out\n    /* \"#utility.yul\":4752:5171   */\ntag_14:\n    /* \"#utility.yul\":4918:4922   */\n  0x00\n    /* \"#utility.yul\":4956:4958   */\n  0x20\n    /* \"#utility.yul\":4945:4954   */\n  dup3\n    /* \"#utility.yul\":4941:4959   */\n  add\n    /* \"#utility.yul\":4933:4959   */\n  swap1\n  pop\n    /* \"#utility.yul\":5005:5014   */\n  dup2\n    /* \"#utility.yul\":4999:5003   */\n  dup2\n    /* \"#utility.yul\":4995:5015   */\n  sub\n    /* \"#utility.yul\":4991:4992   */\n  0x00\n    /* \"#utility.yul\":4980:4989   */\n  dup4\n    /* \"#utility.yul\":4976:4993   */\n  add\n    /* \"#utility.yul\":4969:5016   */\n  mstore\n    /* \"#utility.yul\":5033:5164   */\n  tag_93\n    /* \"#utility.yul\":5159:5163   */\n  dup2\n    /* \"#utility.yul\":5033:5164   */\n  tag_38\n  jump\t// in\ntag_93:\n    /* \"#utility.yul\":5025:5164   */\n  swap1\n  pop\n    /* \"#utility.yul\":4752:5171   */\n  swap2\n  swap1\n  pop\n  jump\t// out\n    /* \"#utility.yul\":5177:5345   */\ntag_39:\n    /* \"#utility.yul\":5317:5337   */\n  0x4475706c696361746520676f7665726e6f720000000000000000000000000000\n    /* \"#utility.yul\":5313:5314   */\n  0x00\n    /* \"#utility.yul\":5305:5311   */\n  dup3\n    /* \"#utility.yul\":5301:5315   */\n  add\n    /* \"#utility.yul\":5294:5338   */\n  mstore\n    /* \"#utility.yul\":5177:5345   */\n  pop\n  jump\t// out\n    /* \"#utility.yul\":5351:5717   */\ntag_40:\n    /* \"#utility.yul\":5493:5496   */\n  0x00\n    /* \"#utility.yul\":5514:5581   */\n  tag_96\n    /* \"#utility.yul\":5578:5580   */\n  0x12\n    /* \"#utility.yul\":5573:5576   */\n  dup4\n    /* \"#utility.yul\":5514:5581   */\n  tag_36\n  jump\t// in\ntag_96:\n    /* \"#utility.yul\":5507:5581   */\n  swap2\n  pop\n    /* \"#utility.yul\":5590:5683   */\n  tag_97\n    /* \"#utility.yul\":5679:5682   */\n  dup3\n    /* \"#utility.yul\":5590:5683   */\n  tag_39\n  jump\t// in\ntag_97:\n    /* \"#utility.yul\":5708:5710   */\n  0x20\n    /* \"#utility.yul\":5703:5706   */\n  dup3\n    /* \"#utility.yul\":5699:5711   */\n  add\n    /* \"#utility.yul\":5692:5711   */\n  swap1\n  pop\n    /* \"#utility.yul\":5351:5717   */\n  swap2\n  swap1\n  pop\n  jump\t// out\n    /* \"#utility.yul\":5723:6142   */\ntag_17:\n    /* \"#utility.yul\":5889:5893   */\n  0x00\n    /* \"#utility.yul\":5927:5929   */\n  0x20\n    /* \"#utility.yul\":5916:5925   */\n  dup3\n    /* \"#utility.yul\":5912:5930   */\n  add\n    /* \"#utility.yul\":5904:5930   */\n  swap1\n  pop\n    /* \"#utility.yul\":5976:5985   */\n  dup2\n    /* \"#utility.yul\":5970:5974   */\n  dup2\n    /* \"#utility.yul\":5966:5986   */\n  sub\n    /* \"#utility.yul\":5962:5963   */\n  0x00\n    /* \"#utility.yul\":5951:5960   */\n  dup4\n    /* \"#utility.yul\":5947:5964   */\n  add\n    /* \"#utility.yul\":5940:5987   */\n  mstore\n    /* \"#utility.yul\":6004:6135   */\n  tag_99\n    /* \"#utility.yul\":6130:6134   */\n  dup2\n    /* \"#utility.yul\":6004:6135   */\n  tag_40\n  jump\t// in\ntag_99:\n    /* \"#utility.yul\":5996:6135   */\n  swap1\n  pop\n    /* \"#utility.yul\":5723:6142   */\n  swap2\n  swap1\n  pop\n  jump\t// out\n    /* \"contracts/EduVerifyAdmin.sol\":121:6584  contract EduVerifyAdmin {... */\ntag_19:\n  dataSize(sub_0)\n  dup1\n  dataOffset(sub_0)\n  0x00\n  codecopy\n  0x00\n  return\nstop\n\nsub_0: assembly {\n        /* \"contracts/EduVerifyAdmin.sol\":121:6584  contract EduVerifyAdmin {... */\n      mstore(0x40, 0x80)\n      callvalue\n      dup1\n      iszero\n      tag_1\n      jumpi\n      revert(0x00, 0x00)\n    tag_1:\n      pop\n      jumpi(tag_2, lt(calldatasize, 0x04))\n      shr(0xe0, calldataload(0x00))\n      dup1\n      0xa7277b00\n      gt\n      tag_17\n      jumpi\n      dup1\n      0xdc999c8d\n      gt\n      tag_18\n      jumpi\n      dup1\n      0xdc999c8d\n      eq\n      tag_13\n      jumpi\n      dup1\n      0xe0901d7a\n      eq\n      tag_14\n      jumpi\n      dup1\n      0xe43581b8\n      eq\n      tag_15\n      jumpi\n      dup1\n      0xe8c9fd45\n      eq\n      tag_16\n      jumpi\n      jump(tag_2)\n    tag_18:\n      dup1\n      0xa7277b00\n      eq\n      tag_10\n      jumpi\n      dup1\n      0xaebe39ca\n      eq\n      tag_11\n      jumpi\n      dup1\n      0xda35c664\n      eq\n      tag_12\n      jumpi\n      jump(tag_2)\n    tag_17:\n      dup1\n      0x0eb3813a\n      gt\n      tag_19\n      jumpi\n      dup1\n      0x0eb3813a\n      eq\n      tag_6\n      jumpi\n      dup1\n      0x3b4d01a7\n      eq\n      tag_7\n      jumpi\n      dup1\n      0x43859632\n      eq\n      tag_8\n      jumpi\n      dup1\n      0x8e2767ef\n      eq\n      tag_9\n      jumpi\n      jump(tag_2)\n    tag_19:\n      dup1\n      0x0121b93f\n      eq\n      tag_3\n      jumpi\n      dup1\n      0x013cf08b\n      eq\n      tag_4\n      jumpi\n      dup1\n      0x0d61b519\n      eq\n      tag_5\n      jumpi\n    tag_2:\n      revert(0x00, 0x00)\n        /* \"contracts/EduVerifyAdmin.sol\":3295:3687  function vote(uint proposalId) external onlyGovernor {... */\n    tag_3:\n      tag_20\n      0x04\n      dup1\n      calldatasize\n      sub\n      dup2\n      add\n      swap1\n      tag_21\n      swap2\n      swap1\n      tag_22\n      jump\t// in\n    tag_21:\n      tag_23\n      jump\t// in\n    tag_20:\n      stop\n        /* \"contracts/EduVerifyAdmin.sol\":1421:1448  Proposal[] public proposals */\n    tag_4:\n      tag_24\n      0x04\n      dup1\n      calldatasize\n      sub\n      dup2\n      add\n      swap1\n      tag_25\n      swap2\n      swap1\n      tag_22\n      jump\t// in\n    tag_25:\n      tag_26\n      jump\t// in\n    tag_24:\n      mload(0x40)\n      tag_27\n      swap7\n      swap6\n      swap5\n      swap4\n      swap3\n      swap2\n      swap1\n      tag_28\n      jump\t// in\n    tag_27:\n      mload(0x40)\n      dup1\n      swap2\n      sub\n      swap1\n      return\n        /* \"contracts/EduVerifyAdmin.sol\":3697:5711  function executeProposal(uint proposalId) external onlyGovernor {... */\n    tag_5:\n      tag_29\n      0x04\n      dup1\n      calldatasize\n      sub\n      dup2\n      add\n      swap1\n      tag_30\n      swap2\n      swap1\n      tag_22\n      jump\t// in\n    tag_30:\n      tag_31\n      jump\t// in\n    tag_29:\n      stop\n        /* \"contracts/EduVerifyAdmin.sol\":2640:2748  function calculateThreshold() external view returns(uint) {... */\n    tag_6:\n      tag_32\n      tag_33\n      jump\t// in\n    tag_32:\n      mload(0x40)\n      tag_34\n      swap2\n      swap1\n      tag_35\n      jump\t// in\n    tag_34:\n      mload(0x40)\n      dup1\n      swap2\n      sub\n      swap1\n      return\n        /* \"contracts/EduVerifyAdmin.sol\":5721:6023  function getProposalDetails(uint proposalId) external view returns(Action action, address target, uint yesVotes, uint snapshotGovernorCount,  bool executed) {... */\n    tag_7:\n      tag_36\n      0x04\n      dup1\n      calldatasize\n      sub\n      dup2\n      add\n      swap1\n      tag_37\n      swap2\n      swap1\n      tag_22\n      jump\t// in\n    tag_37:\n      tag_38\n      jump\t// in\n    tag_36:\n      mload(0x40)\n      tag_39\n      swap6\n      swap5\n      swap4\n      swap3\n      swap2\n      swap1\n      tag_40\n      jump\t// in\n    tag_39:\n      mload(0x40)\n      dup1\n      swap2\n      sub\n      swap1\n      return\n        /* \"contracts/EduVerifyAdmin.sol\":6230:6375  function hasVoted(uint proposalId, address governor) external view returns(bool) {... */\n    tag_8:\n      tag_41\n      0x04\n      dup1\n      calldatasize\n      sub\n      dup2\n      add\n      swap1\n      tag_42\n      swap2\n      swap1\n      tag_43\n      jump\t// in\n    tag_42:\n      tag_44\n      jump\t// in\n    tag_41:\n      mload(0x40)\n      tag_45\n      swap2\n      swap1\n      tag_46\n      jump\t// in\n    tag_45:\n      mload(0x40)\n      dup1\n      swap2\n      sub\n      swap1\n      return\n        /* \"contracts/EduVerifyAdmin.sol\":6033:6220  function getThresholdForProposal(uint proposalId) external view returns(uint) {... */\n    tag_9:\n      tag_47\n      0x04\n      dup1\n      calldatasize\n      sub\n      dup2\n      add\n      swap1\n      tag_48\n      swap2\n      swap1\n      tag_22\n      jump\t// in\n    tag_48:\n      tag_49\n      jump\t// in\n    tag_47:\n      mload(0x40)\n      tag_50\n      swap2\n      swap1\n      tag_35\n      jump\t// in\n    tag_50:\n      mload(0x40)\n      dup1\n      swap2\n      sub\n      swap1\n      return\n        /* \"contracts/EduVerifyAdmin.sol\":1297:1323  address[] public governors */\n    tag_10:\n      tag_51\n      0x04\n      dup1\n      calldatasize\n      sub\n      dup2\n      add\n      swap1\n      tag_52\n      swap2\n      swap1\n      tag_22\n      jump\t// in\n    tag_52:\n      tag_53\n      jump\t// in\n    tag_51:\n      mload(0x40)\n      tag_54\n      swap2\n      swap1\n      tag_55\n      jump\t// in\n    tag_54:\n      mload(0x40)\n      dup1\n      swap2\n      sub\n      swap1\n      return\n        /* \"contracts/EduVerifyAdmin.sol\":2758:3289  function propose(Action action, address target) external onlyGovernor returns(uint) {... */\n    tag_11:\n      tag_56\n      0x04\n      dup1\n      calldatasize\n      sub\n      dup2\n      add\n      swap1\n      tag_57\n      swap2\n      swap1\n      tag_58\n      jump\t// in\n    tag_57:\n      tag_59\n      jump\t// in\n    tag_56:\n      mload(0x40)\n      tag_60\n      swap2\n      swap1\n      tag_35\n      jump\t// in\n    tag_60:\n      mload(0x40)\n      dup1\n      swap2\n      sub\n      swap1\n      return\n        /* \"contracts/EduVerifyAdmin.sol\":6385:6478  function proposalCount() external view returns(uint) {... */\n    tag_12:\n      tag_61\n      tag_62\n      jump\t// in\n    tag_61:\n      mload(0x40)\n      tag_63\n      swap2\n      swap1\n      tag_35\n      jump\t// in\n    tag_63:\n      mload(0x40)\n      dup1\n      swap2\n      sub\n      swap1\n      return\n        /* \"contracts/EduVerifyAdmin.sol\":1355:1379  address public eduVerify */\n    tag_13:\n      tag_64\n      tag_65\n      jump\t// in\n    tag_64:\n      mload(0x40)\n      tag_66\n      swap2\n      swap1\n      tag_55\n      jump\t// in\n    tag_66:\n      mload(0x40)\n      dup1\n      swap2\n      sub\n      swap1\n      return\n        /* \"contracts/EduVerifyAdmin.sol\":2455:2630  function setEduVerifyAddress(address _eduVerify) external onlyGovernor {... */\n    tag_14:\n      tag_67\n      0x04\n      dup1\n      calldatasize\n      sub\n      dup2\n      add\n      swap1\n      tag_68\n      swap2\n      swap1\n      tag_69\n      jump\t// in\n    tag_68:\n      tag_70\n      jump\t// in\n    tag_67:\n      stop\n        /* \"contracts/EduVerifyAdmin.sol\":1220:1262  mapping(address => bool) public isGovernor */\n    tag_15:\n      tag_71\n      0x04\n      dup1\n      calldatasize\n      sub\n      dup2\n      add\n      swap1\n      tag_72\n      swap2\n      swap1\n      tag_69\n      jump\t// in\n    tag_72:\n      tag_73\n      jump\t// in\n    tag_71:\n      mload(0x40)\n      tag_74\n      swap2\n      swap1\n      tag_46\n      jump\t// in\n    tag_74:\n      mload(0x40)\n      dup1\n      swap2\n      sub\n      swap1\n      return\n        /* \"contracts/EduVerifyAdmin.sol\":6488:6581  function governorCount() external view returns(uint) {... */\n    tag_16:\n      tag_75\n      tag_76\n      jump\t// in\n    tag_75:\n      mload(0x40)\n      tag_77\n      swap2\n      swap1\n      tag_35\n      jump\t// in\n    tag_77:\n      mload(0x40)\n      dup1\n      swap2\n      sub\n      swap1\n      return\n        /* \"contracts/EduVerifyAdmin.sol\":3295:3687  function vote(uint proposalId) external onlyGovernor {... */\n    tag_23:\n        /* \"contracts/EduVerifyAdmin.sol\":1823:1833  isGovernor */\n      0x00\n        /* \"contracts/EduVerifyAdmin.sol\":1823:1845  isGovernor[msg.sender] */\n      0x00\n        /* \"contracts/EduVerifyAdmin.sol\":1834:1844  msg.sender */\n      caller\n        /* \"contracts/EduVerifyAdmin.sol\":1823:1845  isGovernor[msg.sender] */\n      0xffffffffffffffffffffffffffffffffffffffff\n      and\n      0xffffffffffffffffffffffffffffffffffffffff\n      and\n      dup2\n      mstore\n      0x20\n      add\n      swap1\n      dup2\n      mstore\n      0x20\n      add\n      0x00\n      keccak256\n      0x00\n      swap1\n      sload\n      swap1\n      0x0100\n      exp\n      swap1\n      div\n      0xff\n      and\n        /* \"contracts/EduVerifyAdmin.sol\":1815:1864  require(isGovernor[msg.sender], \"Not a governor\") */\n      tag_79\n      jumpi\n      mload(0x40)\n      0x08c379a000000000000000000000000000000000000000000000000000000000\n      dup2\n      mstore\n      0x04\n      add\n      tag_80\n      swap1\n      tag_81\n      jump\t// in\n    tag_80:\n      mload(0x40)\n      dup1\n      swap2\n      sub\n      swap1\n      revert\n    tag_79:\n        /* \"contracts/EduVerifyAdmin.sol\":3358:3383  Proposal storage proposal */\n      0x00\n        /* \"contracts/EduVerifyAdmin.sol\":3386:3395  proposals */\n      0x03\n        /* \"contracts/EduVerifyAdmin.sol\":3396:3406  proposalId */\n      dup3\n        /* \"contracts/EduVerifyAdmin.sol\":3386:3407  proposals[proposalId] */\n      dup2\n      sload\n      dup2\n      lt\n      tag_83\n      jumpi\n      tag_84\n      tag_85\n      jump\t// in\n    tag_84:\n    tag_83:\n      swap1\n      0x00\n      mstore\n      keccak256(0x00, 0x20)\n      swap1\n      0x06\n      mul\n      add\n        /* \"contracts/EduVerifyAdmin.sol\":3358:3407  Proposal storage proposal = proposals[proposalId] */\n      swap1\n      pop\n        /* \"contracts/EduVerifyAdmin.sol\":3426:3434  proposal */\n      dup1\n        /* \"contracts/EduVerifyAdmin.sol\":3426:3443  proposal.hasVoted */\n      0x05\n      add\n        /* \"contracts/EduVerifyAdmin.sol\":3426:3455  proposal.hasVoted[msg.sender] */\n      0x00\n        /* \"contracts/EduVerifyAdmin.sol\":3444:3454  msg.sender */\n      caller\n        /* \"contracts/EduVerifyAdmin.sol\":3426:3455  proposal.hasVoted[msg.sender] */\n      0xffffffffffffffffffffffffffffffffffffffff\n      and\n      0xffffffffffffffffffffffffffffffffffffffff\n      and\n      dup2\n      mstore\n      0x20\n      add\n      swap1\n      dup2\n      mstore\n      0x20\n      add\n      0x00\n      keccak256\n      0x00\n      swap1\n      sload\n      swap1\n      0x0100\n      exp\n      swap1\n      div\n      0xff\n      and\n        /* \"contracts/EduVerifyAdmin.sol\":3425:3455  !proposal.hasVoted[msg.sender] */\n      iszero\n        /* \"contracts/EduVerifyAdmin.sol\":3417:3482  require(!proposal.hasVoted[msg.sender], \"Governor already voted\") */\n      tag_87\n      jumpi\n      mload(0x40)\n      0x08c379a000000000000000000000000000000000000000000000000000000000\n      dup2\n      mstore\n      0x04\n      add\n      tag_88\n      swap1\n      tag_89\n      jump\t// in\n    tag_88:\n      mload(0x40)\n      dup1\n      swap2\n      sub\n      swap1\n      revert\n    tag_87:\n        /* \"contracts/EduVerifyAdmin.sol\":3501:3509  proposal */\n      dup1\n        /* \"contracts/EduVerifyAdmin.sol\":3501:3518  proposal.executed */\n      0x04\n      add\n      0x00\n      swap1\n      sload\n      swap1\n      0x0100\n      exp\n      swap1\n      div\n      0xff\n      and\n        /* \"contracts/EduVerifyAdmin.sol\":3500:3518  !proposal.executed */\n      iszero\n        /* \"contracts/EduVerifyAdmin.sol\":3492:3548  require(!proposal.executed, \"Proposal already executed\") */\n      tag_90\n      jumpi\n      mload(0x40)\n      0x08c379a000000000000000000000000000000000000000000000000000000000\n      dup2\n      mstore\n      0x04\n      add\n      tag_91\n      swap1\n      tag_92\n      jump\t// in\n    tag_91:\n      mload(0x40)\n      dup1\n      swap2\n      sub\n      swap1\n      revert\n    tag_90:\n        /* \"contracts/EduVerifyAdmin.sol\":3599:3603  true */\n      0x01\n        /* \"contracts/EduVerifyAdmin.sol\":3567:3575  proposal */\n      dup2\n        /* \"contracts/EduVerifyAdmin.sol\":3567:3584  proposal.hasVoted */\n      0x05\n      add\n        /* \"contracts/EduVerifyAdmin.sol\":3567:3596  proposal.hasVoted[msg.sender] */\n      0x00\n        /* \"contracts/EduVerifyAdmin.sol\":3585:3595  msg.sender */\n      caller\n        /* \"contracts/EduVerifyAdmin.sol\":3567:3596  proposal.hasVoted[msg.sender] */\n      0xffffffffffffffffffffffffffffffffffffffff\n      and\n      0xffffffffffffffffffffffffffffffffffffffff\n      and\n      dup2\n      mstore\n      0x20\n      add\n      swap1\n      dup2\n      mstore\n      0x20\n      add\n      0x00\n      keccak256\n      0x00\n        /* \"contracts/EduVerifyAdmin.sol\":3567:3603  proposal.hasVoted[msg.sender] = true */\n      0x0100\n      exp\n      dup2\n      sload\n      dup2\n      0xff\n      mul\n      not\n      and\n      swap1\n      dup4\n      iszero\n      iszero\n      mul\n      or\n      swap1\n      sstore\n      pop\n        /* \"contracts/EduVerifyAdmin.sol\":3632:3633  1 */\n      0x01\n        /* \"contracts/EduVerifyAdmin.sol\":3613:3621  proposal */\n      dup2\n        /* \"contracts/EduVerifyAdmin.sol\":3613:3630  proposal.yesVotes */\n      0x02\n      add\n      0x00\n        /* \"contracts/EduVerifyAdmin.sol\":3613:3633  proposal.yesVotes+=1 */\n      dup3\n      dup3\n      sload\n      tag_93\n      swap2\n      swap1\n      tag_94\n      jump\t// in\n    tag_93:\n      swap3\n      pop\n      pop\n      dup2\n      swap1\n      sstore\n      pop\n        /* \"contracts/EduVerifyAdmin.sol\":3669:3679  msg.sender */\n      caller\n        /* \"contracts/EduVerifyAdmin.sol\":3648:3680  VoteCast(proposalId, msg.sender) */\n      0xffffffffffffffffffffffffffffffffffffffff\n      and\n        /* \"contracts/EduVerifyAdmin.sol\":3657:3667  proposalId */\n      dup3\n        /* \"contracts/EduVerifyAdmin.sol\":3648:3680  VoteCast(proposalId, msg.sender) */\n      0xf1003b73c437642c0460aee9cd9628b0b8c447b66e6c7c905531b9c644214a11\n      mload(0x40)\n      mload(0x40)\n      dup1\n      swap2\n      sub\n      swap1\n      log3\n        /* \"contracts/EduVerifyAdmin.sol\":3348:3687  {... */\n      pop\n        /* \"contracts/EduVerifyAdmin.sol\":3295:3687  function vote(uint proposalId) external onlyGovernor {... */\n      pop\n      jump\t// out\n        /* \"contracts/EduVerifyAdmin.sol\":1421:1448  Proposal[] public proposals */\n    tag_26:\n      0x03\n      dup2\n      dup2\n      sload\n      dup2\n      lt\n      tag_95\n      jumpi\n      0x00\n      dup1\n      revert\n    tag_95:\n      swap1\n      0x00\n      mstore\n      keccak256(0x00, 0x20)\n      swap1\n      0x06\n      mul\n      add\n      0x00\n      swap2\n      pop\n      swap1\n      pop\n      dup1\n      0x00\n      add\n      sload\n      swap1\n      dup1\n      0x01\n      add\n      0x00\n      swap1\n      sload\n      swap1\n      0x0100\n      exp\n      swap1\n      div\n      0xff\n      and\n      swap1\n      dup1\n      0x01\n      add\n      0x01\n      swap1\n      sload\n      swap1\n      0x0100\n      exp\n      swap1\n      div\n      0xffffffffffffffffffffffffffffffffffffffff\n      and\n      swap1\n      dup1\n      0x02\n      add\n      sload\n      swap1\n      dup1\n      0x03\n      add\n      sload\n      swap1\n      dup1\n      0x04\n      add\n      0x00\n      swap1\n      sload\n      swap1\n      0x0100\n      exp\n      swap1\n      div\n      0xff\n      and\n      swap1\n      pop\n      dup7\n      jump\t// out\n        /* \"contracts/EduVerifyAdmin.sol\":3697:5711  function executeProposal(uint proposalId) external onlyGovernor {... */\n    tag_31:\n        /* \"contracts/EduVerifyAdmin.sol\":1823:1833  isGovernor */\n      0x00\n        /* \"contracts/EduVerifyAdmin.sol\":1823:1845  isGovernor[msg.sender] */\n      0x00\n        /* \"contracts/EduVerifyAdmin.sol\":1834:1844  msg.sender */\n      caller\n        /* \"contracts/EduVerifyAdmin.sol\":1823:1845  isGovernor[msg.sender] */\n      0xffffffffffffffffffffffffffffffffffffffff\n      and\n      0xffffffffffffffffffffffffffffffffffffffff\n      and\n      dup2\n      mstore\n      0x20\n      add\n      swap1\n      dup2\n      mstore\n      0x20\n      add\n      0x00\n      keccak256\n      0x00\n      swap1\n      sload\n      swap1\n      0x0100\n      exp\n      swap1\n      div\n      0xff\n      and\n        /* \"contracts/EduVerifyAdmin.sol\":1815:1864  require(isGovernor[msg.sender], \"Not a governor\") */\n      tag_98\n      jumpi\n      mload(0x40)\n      0x08c379a000000000000000000000000000000000000000000000000000000000\n      dup2\n      mstore\n      0x04\n      add\n      tag_99\n      swap1\n      tag_81\n      jump\t// in\n    tag_99:\n      mload(0x40)\n      dup1\n      swap2\n      sub\n      swap1\n      revert\n    tag_98:\n        /* \"contracts/EduVerifyAdmin.sol\":3771:3796  Proposal storage proposal */\n      0x00\n        /* \"contracts/EduVerifyAdmin.sol\":3799:3808  proposals */\n      0x03\n        /* \"contracts/EduVerifyAdmin.sol\":3809:3819  proposalId */\n      dup3\n        /* \"contracts/EduVerifyAdmin.sol\":3799:3820  proposals[proposalId] */\n      dup2\n      sload\n      dup2\n      lt\n      tag_101\n      jumpi\n      tag_102\n      tag_85\n      jump\t// in\n    tag_102:\n    tag_101:\n      swap1\n      0x00\n      mstore\n      keccak256(0x00, 0x20)\n      swap1\n      0x06\n      mul\n      add\n        /* \"contracts/EduVerifyAdmin.sol\":3771:3820  Proposal storage proposal = proposals[proposalId] */\n      swap1\n      pop\n        /* \"contracts/EduVerifyAdmin.sol\":3830:3852  uint requiredThreshold */\n      0x00\n        /* \"contracts/EduVerifyAdmin.sol\":3894:3895  1 */\n      0x01\n        /* \"contracts/EduVerifyAdmin.sol\":3889:3890  2 */\n      0x02\n        /* \"contracts/EduVerifyAdmin.sol\":3856:3864  proposal */\n      dup4\n        /* \"contracts/EduVerifyAdmin.sol\":3856:3886  proposal.snapshotGovernorCount */\n      0x03\n      add\n      sload\n        /* \"contracts/EduVerifyAdmin.sol\":3856:3890  proposal.snapshotGovernorCount / 2 */\n      tag_104\n      swap2\n      swap1\n      tag_105\n      jump\t// in\n    tag_104:\n        /* \"contracts/EduVerifyAdmin.sol\":3855:3895  (proposal.snapshotGovernorCount / 2) + 1 */\n      tag_106\n      swap2\n      swap1\n      tag_94\n      jump\t// in\n    tag_106:\n        /* \"contracts/EduVerifyAdmin.sol\":3830:3895  uint requiredThreshold = (proposal.snapshotGovernorCount / 2) + 1 */\n      swap1\n      pop\n        /* \"contracts/EduVerifyAdmin.sol\":3943:3960  requiredThreshold */\n      dup1\n        /* \"contracts/EduVerifyAdmin.sol\":3922:3930  proposal */\n      dup3\n        /* \"contracts/EduVerifyAdmin.sol\":3922:3939  proposal.yesVotes */\n      0x02\n      add\n      sload\n        /* \"contracts/EduVerifyAdmin.sol\":3922:3960  proposal.yesVotes >= requiredThreshold */\n      lt\n      iszero\n        /* \"contracts/EduVerifyAdmin.sol\":3914:4003  require(proposal.yesVotes >= requiredThreshold, \"Insufficient votes to execute proposal\") */\n      tag_107\n      jumpi\n      mload(0x40)\n      0x08c379a000000000000000000000000000000000000000000000000000000000\n      dup2\n      mstore\n      0x04\n      add\n      tag_108\n      swap1\n      tag_109\n      jump\t// in\n    tag_108:\n      mload(0x40)\n      dup1\n      swap2\n      sub\n      swap1\n      revert\n    tag_107:\n        /* \"contracts/EduVerifyAdmin.sol\":4022:4030  proposal */\n      dup2\n        /* \"contracts/EduVerifyAdmin.sol\":4022:4039  proposal.executed */\n      0x04\n      add\n      0x00\n      swap1\n      sload\n      swap1\n      0x0100\n      exp\n      swap1\n      div\n      0xff\n      and\n        /* \"contracts/EduVerifyAdmin.sol\":4021:4039  !proposal.executed */\n      iszero\n        /* \"contracts/EduVerifyAdmin.sol\":4013:4069  require(!proposal.executed, \"Proposal already executed\") */\n      tag_110\n      jumpi\n      mload(0x40)\n      0x08c379a000000000000000000000000000000000000000000000000000000000\n      dup2\n      mstore\n      0x04\n      add\n      tag_111\n      swap1\n      tag_92\n      jump\t// in\n    tag_111:\n      mload(0x40)\n      dup1\n      swap2\n      sub\n      swap1\n      revert\n    tag_110:\n        /* \"contracts/EduVerifyAdmin.sol\":4110:4131  Action.AddInstitution */\n      0x00\n        /* \"contracts/EduVerifyAdmin.sol\":4091:4131  proposal.action == Action.AddInstitution */\n      0x03\n      dup2\n      gt\n      iszero\n      tag_112\n      jumpi\n      tag_113\n      tag_114\n      jump\t// in\n    tag_113:\n    tag_112:\n        /* \"contracts/EduVerifyAdmin.sol\":4091:4099  proposal */\n      dup3\n        /* \"contracts/EduVerifyAdmin.sol\":4091:4106  proposal.action */\n      0x01\n      add\n      0x00\n      swap1\n      sload\n      swap1\n      0x0100\n      exp\n      swap1\n      div\n      0xff\n      and\n        /* \"contracts/EduVerifyAdmin.sol\":4091:4131  proposal.action == Action.AddInstitution */\n      0x03\n      dup2\n      gt\n      iszero\n      tag_115\n      jumpi\n      tag_116\n      tag_114\n      jump\t// in\n    tag_116:\n    tag_115:\n      sub\n        /* \"contracts/EduVerifyAdmin.sol\":4088:5619  if(proposal.action == Action.AddInstitution) {... */\n      tag_117\n      jumpi\n        /* \"contracts/EduVerifyAdmin.sol\":4148:4160  bool success */\n      0x00\n        /* \"contracts/EduVerifyAdmin.sol\":4166:4175  eduVerify */\n      0x02\n      0x00\n      swap1\n      sload\n      swap1\n      0x0100\n      exp\n      swap1\n      div\n      0xffffffffffffffffffffffffffffffffffffffff\n      and\n        /* \"contracts/EduVerifyAdmin.sol\":4166:4180  eduVerify.call */\n      0xffffffffffffffffffffffffffffffffffffffff\n      and\n        /* \"contracts/EduVerifyAdmin.sol\":4238:4246  proposal */\n      dup4\n        /* \"contracts/EduVerifyAdmin.sol\":4238:4253  proposal.target */\n      0x01\n      add\n      0x01\n      swap1\n      sload\n      swap1\n      0x0100\n      exp\n      swap1\n      div\n      0xffffffffffffffffffffffffffffffffffffffff\n      and\n        /* \"contracts/EduVerifyAdmin.sol\":4181:4254  abi.encodeWithSignature(\"authorizeInstitution(address)\", proposal.target) */\n      add(0x24, mload(0x40))\n      tag_118\n      swap2\n      swap1\n      tag_55\n      jump\t// in\n    tag_118:\n      mload(0x40)\n      0x20\n      dup2\n      dup4\n      sub\n      sub\n      dup2\n      mstore\n      swap1\n      0x40\n      mstore\n      and(not(0xffffffffffffffffffffffffffffffffffffffffffffffffffffffff), 0xbd4d8bcb00000000000000000000000000000000000000000000000000000000)\n      0x20\n      dup3\n      add\n      dup1\n      mload\n      0xffffffffffffffffffffffffffffffffffffffffffffffffffffffff\n      dup4\n      dup2\n      dup4\n      and\n      or\n      dup4\n      mstore\n      pop\n      pop\n      pop\n      pop\n        /* \"contracts/EduVerifyAdmin.sol\":4166:4255  eduVerify.call(abi.encodeWithSignature(\"authorizeInstitution(address)\", proposal.target)) */\n      mload(0x40)\n      tag_119\n      swap2\n      swap1\n      tag_120\n      jump\t// in\n    tag_119:\n      0x00\n      mload(0x40)\n      dup1\n      dup4\n      sub\n      dup2\n      0x00\n      dup7\n      gas\n      call\n      swap2\n      pop\n      pop\n      returndatasize\n      dup1\n      0x00\n      dup2\n      eq\n      tag_123\n      jumpi\n      mload(0x40)\n      swap2\n      pop\n      and(add(returndatasize, 0x3f), not(0x1f))\n      dup3\n      add\n      0x40\n      mstore\n      returndatasize\n      dup3\n      mstore\n      returndatasize\n      0x00\n      0x20\n      dup5\n      add\n      returndatacopy\n      jump(tag_122)\n    tag_123:\n      0x60\n      swap2\n      pop\n    tag_122:\n      pop\n        /* \"contracts/EduVerifyAdmin.sol\":4147:4255  (bool success, ) = eduVerify.call(abi.encodeWithSignature(\"authorizeInstitution(address)\", proposal.target)) */\n      pop\n      swap1\n      pop\n        /* \"contracts/EduVerifyAdmin.sol\":4277:4284  success */\n      dup1\n        /* \"contracts/EduVerifyAdmin.sol\":4269:4309  require(success, \"Authorization failed\") */\n      tag_124\n      jumpi\n      mload(0x40)\n      0x08c379a000000000000000000000000000000000000000000000000000000000\n      dup2\n      mstore\n      0x04\n      add\n      tag_125\n      swap1\n      tag_126\n      jump\t// in\n    tag_125:\n      mload(0x40)\n      dup1\n      swap2\n      sub\n      swap1\n      revert\n    tag_124:\n        /* \"contracts/EduVerifyAdmin.sol\":4133:4320  {... */\n      pop\n        /* \"contracts/EduVerifyAdmin.sol\":4088:5619  if(proposal.action == Action.AddInstitution) {... */\n      jump(tag_127)\n    tag_117:\n        /* \"contracts/EduVerifyAdmin.sol\":4356:4380  Action.RevokeInstitution */\n      0x01\n        /* \"contracts/EduVerifyAdmin.sol\":4337:4380  proposal.action == Action.RevokeInstitution */\n      0x03\n      dup2\n      gt\n      iszero\n      tag_128\n      jumpi\n      tag_129\n      tag_114\n      jump\t// in\n    tag_129:\n    tag_128:\n        /* \"contracts/EduVerifyAdmin.sol\":4337:4345  proposal */\n      dup3\n        /* \"contracts/EduVerifyAdmin.sol\":4337:4352  proposal.action */\n      0x01\n      add\n      0x00\n      swap1\n      sload\n      swap1\n      0x0100\n      exp\n      swap1\n      div\n      0xff\n      and\n        /* \"contracts/EduVerifyAdmin.sol\":4337:4380  proposal.action == Action.RevokeInstitution */\n      0x03\n      dup2\n      gt\n      iszero\n      tag_130\n      jumpi\n      tag_131\n      tag_114\n      jump\t// in\n    tag_131:\n    tag_130:\n      sub\n        /* \"contracts/EduVerifyAdmin.sol\":4334:5619  if(proposal.action == Action.RevokeInstitution) {... */\n      tag_132\n      jumpi\n        /* \"contracts/EduVerifyAdmin.sol\":4397:4409  bool success */\n      0x00\n        /* \"contracts/EduVerifyAdmin.sol\":4415:4424  eduVerify */\n      0x02\n      0x00\n      swap1\n      sload\n      swap1\n      0x0100\n      exp\n      swap1\n      div\n      0xffffffffffffffffffffffffffffffffffffffff\n      and\n        /* \"contracts/EduVerifyAdmin.sol\":4415:4429  eduVerify.call */\n      0xffffffffffffffffffffffffffffffffffffffff\n      and\n        /* \"contracts/EduVerifyAdmin.sol\":4484:4492  proposal */\n      dup4\n        /* \"contracts/EduVerifyAdmin.sol\":4484:4499  proposal.target */\n      0x01\n      add\n      0x01\n      swap1\n      sload\n      swap1\n      0x0100\n      exp\n      swap1\n      div\n      0xffffffffffffffffffffffffffffffffffffffff\n      and\n        /* \"contracts/EduVerifyAdmin.sol\":4430:4500  abi.encodeWithSignature(\"revokeInstitution(address)\", proposal.target) */\n      add(0x24, mload(0x40))\n      tag_133\n      swap2\n      swap1\n      tag_55\n      jump\t// in\n    tag_133:\n      mload(0x40)\n      0x20\n      dup2\n      dup4\n      sub\n      sub\n      dup2\n      mstore\n      swap1\n      0x40\n      mstore\n      and(not(0xffffffffffffffffffffffffffffffffffffffffffffffffffffffff), 0x1c67494e00000000000000000000000000000000000000000000000000000000)\n      0x20\n      dup3\n      add\n      dup1\n      mload\n      0xffffffffffffffffffffffffffffffffffffffffffffffffffffffff\n      dup4\n      dup2\n      dup4\n      and\n      or\n      dup4\n      mstore\n      pop\n      pop\n      pop\n      pop\n        /* \"contracts/EduVerifyAdmin.sol\":4415:4501  eduVerify.call(abi.encodeWithSignature(\"revokeInstitution(address)\", proposal.target)) */\n      mload(0x40)\n      tag_134\n      swap2\n      swap1\n      tag_120\n      jump\t// in\n    tag_134:\n      0x00\n      mload(0x40)\n      dup1\n      dup4\n      sub\n      dup2\n      0x00\n      dup7\n      gas\n      call\n      swap2\n      pop\n      pop\n      returndatasize\n      dup1\n      0x00\n      dup2\n      eq\n      tag_137\n      jumpi\n      mload(0x40)\n      swap2\n      pop\n      and(add(returndatasize, 0x3f), not(0x1f))\n      dup3\n      add\n      0x40\n      mstore\n      returndatasize\n      dup3\n      mstore\n      returndatasize\n      0x00\n      0x20\n      dup5\n      add\n      returndatacopy\n      jump(tag_136)\n    tag_137:\n      0x60\n      swap2\n      pop\n    tag_136:\n      pop\n        /* \"contracts/EduVerifyAdmin.sol\":4396:4501  (bool success, ) = eduVerify.call(abi.encodeWithSignature(\"revokeInstitution(address)\", proposal.target)) */\n      pop\n      swap1\n      pop\n        /* \"contracts/EduVerifyAdmin.sol\":4523:4530  success */\n      dup1\n        /* \"contracts/EduVerifyAdmin.sol\":4515:4552  require(success, \"Revocation failed\") */\n      tag_138\n      jumpi\n      mload(0x40)\n      0x08c379a000000000000000000000000000000000000000000000000000000000\n      dup2\n      mstore\n      0x04\n      add\n      tag_139\n      swap1\n      tag_140\n      jump\t// in\n    tag_139:\n      mload(0x40)\n      dup1\n      swap2\n      sub\n      swap1\n      revert\n    tag_138:\n        /* \"contracts/EduVerifyAdmin.sol\":4382:4563  {... */\n      pop\n        /* \"contracts/EduVerifyAdmin.sol\":4334:5619  if(proposal.action == Action.RevokeInstitution) {... */\n      jump(tag_141)\n    tag_132:\n        /* \"contracts/EduVerifyAdmin.sol\":4599:4617  Action.AddGovernor */\n      0x02\n        /* \"contracts/EduVerifyAdmin.sol\":4580:4617  proposal.action == Action.AddGovernor */\n      0x03\n      dup2\n      gt\n      iszero\n      tag_142\n      jumpi\n      tag_143\n      tag_114\n      jump\t// in\n    tag_143:\n    tag_142:\n        /* \"contracts/EduVerifyAdmin.sol\":4580:4588  proposal */\n      dup3\n        /* \"contracts/EduVerifyAdmin.sol\":4580:4595  proposal.action */\n      0x01\n      add\n      0x00\n      swap1\n      sload\n      swap1\n      0x0100\n      exp\n      swap1\n      div\n      0xff\n      and\n        /* \"contracts/EduVerifyAdmin.sol\":4580:4617  proposal.action == Action.AddGovernor */\n      0x03\n      dup2\n      gt\n      iszero\n      tag_144\n      jumpi\n      tag_145\n      tag_114\n      jump\t// in\n    tag_145:\n    tag_144:\n      sub\n        /* \"contracts/EduVerifyAdmin.sol\":4577:5619  if(proposal.action == Action.AddGovernor) {... */\n      tag_146\n      jumpi\n        /* \"contracts/EduVerifyAdmin.sol\":4633:4653  address _addr_target */\n      0x00\n        /* \"contracts/EduVerifyAdmin.sol\":4656:4664  proposal */\n      dup3\n        /* \"contracts/EduVerifyAdmin.sol\":4656:4671  proposal.target */\n      0x01\n      add\n      0x01\n      swap1\n      sload\n      swap1\n      0x0100\n      exp\n      swap1\n      div\n      0xffffffffffffffffffffffffffffffffffffffff\n      and\n        /* \"contracts/EduVerifyAdmin.sol\":4633:4671  address _addr_target = proposal.target */\n      swap1\n      pop\n        /* \"contracts/EduVerifyAdmin.sol\":4694:4704  isGovernor */\n      0x00\n        /* \"contracts/EduVerifyAdmin.sol\":4694:4718  isGovernor[_addr_target] */\n      0x00\n        /* \"contracts/EduVerifyAdmin.sol\":4705:4717  _addr_target */\n      dup3\n        /* \"contracts/EduVerifyAdmin.sol\":4694:4718  isGovernor[_addr_target] */\n      0xffffffffffffffffffffffffffffffffffffffff\n      and\n      0xffffffffffffffffffffffffffffffffffffffff\n      and\n      dup2\n      mstore\n      0x20\n      add\n      swap1\n      dup2\n      mstore\n      0x20\n      add\n      0x00\n      keccak256\n      0x00\n      swap1\n      sload\n      swap1\n      0x0100\n      exp\n      swap1\n      div\n      0xff\n      and\n        /* \"contracts/EduVerifyAdmin.sol\":4693:4718  !isGovernor[_addr_target] */\n      iszero\n        /* \"contracts/EduVerifyAdmin.sol\":4685:4751  require(!isGovernor[_addr_target], \"Target is already a governor\") */\n      tag_147\n      jumpi\n      mload(0x40)\n      0x08c379a000000000000000000000000000000000000000000000000000000000\n      dup2\n      mstore\n      0x04\n      add\n      tag_148\n      swap1\n      tag_149\n      jump\t// in\n    tag_148:\n      mload(0x40)\n      dup1\n      swap2\n      sub\n      swap1\n      revert\n    tag_147:\n        /* \"contracts/EduVerifyAdmin.sol\":4792:4796  true */\n      0x01\n        /* \"contracts/EduVerifyAdmin.sol\":4765:4775  isGovernor */\n      0x00\n        /* \"contracts/EduVerifyAdmin.sol\":4765:4789  isGovernor[_addr_target] */\n      0x00\n        /* \"contracts/EduVerifyAdmin.sol\":4776:4788  _addr_target */\n      dup4\n        /* \"contracts/EduVerifyAdmin.sol\":4765:4789  isGovernor[_addr_target] */\n      0xffffffffffffffffffffffffffffffffffffffff\n      and\n      0xffffffffffffffffffffffffffffffffffffffff\n      and\n      dup2\n      mstore\n      0x20\n      add\n      swap1\n      dup2\n      mstore\n      0x20\n      add\n      0x00\n      keccak256\n      0x00\n        /* \"contracts/EduVerifyAdmin.sol\":4765:4796  isGovernor[_addr_target] = true */\n      0x0100\n      exp\n      dup2\n      sload\n      dup2\n      0xff\n      mul\n      not\n      and\n      swap1\n      dup4\n      iszero\n      iszero\n      mul\n      or\n      swap1\n      sstore\n      pop\n        /* \"contracts/EduVerifyAdmin.sol\":4810:4819  governors */\n      0x01\n        /* \"contracts/EduVerifyAdmin.sol\":4825:4837  _addr_target */\n      dup2\n        /* \"contracts/EduVerifyAdmin.sol\":4810:4838  governors.push(_addr_target) */\n      swap1\n      dup1\n      0x01\n      dup2\n      sload\n      add\n      dup1\n      dup3\n      sstore\n      dup1\n      swap2\n      pop\n      pop\n      0x01\n      swap1\n      sub\n      swap1\n      0x00\n      mstore\n      keccak256(0x00, 0x20)\n      add\n      0x00\n      swap1\n      swap2\n      swap1\n      swap2\n      swap1\n      swap2\n      0x0100\n      exp\n      dup2\n      sload\n      dup2\n      0xffffffffffffffffffffffffffffffffffffffff\n      mul\n      not\n      and\n      swap1\n      dup4\n      0xffffffffffffffffffffffffffffffffffffffff\n      and\n      mul\n      or\n      swap1\n      sstore\n      pop\n        /* \"contracts/EduVerifyAdmin.sol\":4871:4883  _addr_target */\n      dup1\n        /* \"contracts/EduVerifyAdmin.sol\":4857:4884  GovernorAdded(_addr_target) */\n      0xffffffffffffffffffffffffffffffffffffffff\n      and\n      0xdc5a48d79e2e147530ff63ecdbed5a5a66adb9d5cf339384d5d076da197c40b5\n      mload(0x40)\n      mload(0x40)\n      dup1\n      swap2\n      sub\n      swap1\n      log2\n        /* \"contracts/EduVerifyAdmin.sol\":4619:4895  {... */\n      pop\n        /* \"contracts/EduVerifyAdmin.sol\":4577:5619  if(proposal.action == Action.AddGovernor) {... */\n      jump(tag_151)\n    tag_146:\n        /* \"contracts/EduVerifyAdmin.sol\":4931:4952  Action.RevokeGovernor */\n      0x03\n        /* \"contracts/EduVerifyAdmin.sol\":4912:4952  proposal.action == Action.RevokeGovernor */\n      dup1\n      dup2\n      gt\n      iszero\n      tag_152\n      jumpi\n      tag_153\n      tag_114\n      jump\t// in\n    tag_153:\n    tag_152:\n        /* \"contracts/EduVerifyAdmin.sol\":4912:4920  proposal */\n      dup3\n        /* \"contracts/EduVerifyAdmin.sol\":4912:4927  proposal.action */\n      0x01\n      add\n      0x00\n      swap1\n      sload\n      swap1\n      0x0100\n      exp\n      swap1\n      div\n      0xff\n      and\n        /* \"contracts/EduVerifyAdmin.sol\":4912:4952  proposal.action == Action.RevokeGovernor */\n      0x03\n      dup2\n      gt\n      iszero\n      tag_154\n      jumpi\n      tag_155\n      tag_114\n      jump\t// in\n    tag_155:\n    tag_154:\n      sub\n        /* \"contracts/EduVerifyAdmin.sol\":4909:5619  if(proposal.action == Action.RevokeGovernor) {... */\n      tag_156\n      jumpi\n        /* \"contracts/EduVerifyAdmin.sol\":4968:4988  address _addr_target */\n      0x00\n        /* \"contracts/EduVerifyAdmin.sol\":4991:4999  proposal */\n      dup3\n        /* \"contracts/EduVerifyAdmin.sol\":4991:5006  proposal.target */\n      0x01\n      add\n      0x01\n      swap1\n      sload\n      swap1\n      0x0100\n      exp\n      swap1\n      div\n      0xffffffffffffffffffffffffffffffffffffffff\n      and\n        /* \"contracts/EduVerifyAdmin.sol\":4968:5006  address _addr_target = proposal.target */\n      swap1\n      pop\n        /* \"contracts/EduVerifyAdmin.sol\":5028:5038  isGovernor */\n      0x00\n        /* \"contracts/EduVerifyAdmin.sol\":5028:5052  isGovernor[_addr_target] */\n      0x00\n        /* \"contracts/EduVerifyAdmin.sol\":5039:5051  _addr_target */\n      dup3\n        /* \"contracts/EduVerifyAdmin.sol\":5028:5052  isGovernor[_addr_target] */\n      0xffffffffffffffffffffffffffffffffffffffff\n      and\n      0xffffffffffffffffffffffffffffffffffffffff\n      and\n      dup2\n      mstore\n      0x20\n      add\n      swap1\n      dup2\n      mstore\n      0x20\n      add\n      0x00\n      keccak256\n      0x00\n      swap1\n      sload\n      swap1\n      0x0100\n      exp\n      swap1\n      div\n      0xff\n      and\n        /* \"contracts/EduVerifyAdmin.sol\":5020:5071  require(isGovernor[_addr_target], \"Not a governor\") */\n      tag_157\n      jumpi\n      mload(0x40)\n      0x08c379a000000000000000000000000000000000000000000000000000000000\n      dup2\n      mstore\n      0x04\n      add\n      tag_158\n      swap1\n      tag_81\n      jump\t// in\n    tag_158:\n      mload(0x40)\n      dup1\n      swap2\n      sub\n      swap1\n      revert\n    tag_157:\n        /* \"contracts/EduVerifyAdmin.sol\":5113:5114  2 */\n      0x02\n        /* \"contracts/EduVerifyAdmin.sol\":5093:5102  governors */\n      0x01\n        /* \"contracts/EduVerifyAdmin.sol\":5093:5109  governors.length */\n      dup1\n      sload\n      swap1\n      pop\n        /* \"contracts/EduVerifyAdmin.sol\":5093:5114  governors.length >= 2 */\n      lt\n      iszero\n        /* \"contracts/EduVerifyAdmin.sol\":5085:5157  require(governors.length >= 2, \"Two governors cannot remove each other\") */\n      tag_159\n      jumpi\n      mload(0x40)\n      0x08c379a000000000000000000000000000000000000000000000000000000000\n      dup2\n      mstore\n      0x04\n      add\n      tag_160\n      swap1\n      tag_161\n      jump\t// in\n    tag_160:\n      mload(0x40)\n      dup1\n      swap2\n      sub\n      swap1\n      revert\n    tag_159:\n        /* \"contracts/EduVerifyAdmin.sol\":5198:5203  false */\n      0x00\n        /* \"contracts/EduVerifyAdmin.sol\":5171:5181  isGovernor */\n      0x00\n        /* \"contracts/EduVerifyAdmin.sol\":5171:5195  isGovernor[_addr_target] */\n      0x00\n        /* \"contracts/EduVerifyAdmin.sol\":5182:5194  _addr_target */\n      dup4\n        /* \"contracts/EduVerifyAdmin.sol\":5171:5195  isGovernor[_addr_target] */\n      0xffffffffffffffffffffffffffffffffffffffff\n      and\n      0xffffffffffffffffffffffffffffffffffffffff\n      and\n      dup2\n      mstore\n      0x20\n      add\n      swap1\n      dup2\n      mstore\n      0x20\n      add\n      0x00\n      keccak256\n      0x00\n        /* \"contracts/EduVerifyAdmin.sol\":5171:5203  isGovernor[_addr_target] = false */\n      0x0100\n      exp\n      dup2\n      sload\n      dup2\n      0xff\n      mul\n      not\n      and\n      swap1\n      dup4\n      iszero\n      iszero\n      mul\n      or\n      swap1\n      sstore\n      pop\n        /* \"contracts/EduVerifyAdmin.sol\":5218:5229  uint length */\n      0x00\n        /* \"contracts/EduVerifyAdmin.sol\":5232:5241  governors */\n      0x01\n        /* \"contracts/EduVerifyAdmin.sol\":5232:5248  governors.length */\n      dup1\n      sload\n      swap1\n      pop\n        /* \"contracts/EduVerifyAdmin.sol\":5218:5248  uint length = governors.length */\n      swap1\n      pop\n        /* \"contracts/EduVerifyAdmin.sol\":5279:5285  uint i */\n      0x00\n        /* \"contracts/EduVerifyAdmin.sol\":5288:5289  0 */\n      0x00\n        /* \"contracts/EduVerifyAdmin.sol\":5279:5289  uint i = 0 */\n      swap1\n      pop\n        /* \"contracts/EduVerifyAdmin.sol\":5274:5545  for (uint i = 0; i < length;) {... */\n    tag_162:\n        /* \"contracts/EduVerifyAdmin.sol\":5295:5301  length */\n      dup2\n        /* \"contracts/EduVerifyAdmin.sol\":5291:5292  i */\n      dup2\n        /* \"contracts/EduVerifyAdmin.sol\":5291:5301  i < length */\n      lt\n        /* \"contracts/EduVerifyAdmin.sol\":5274:5545  for (uint i = 0; i < length;) {... */\n      iszero\n      tag_163\n      jumpi\n        /* \"contracts/EduVerifyAdmin.sol\":5342:5354  _addr_target */\n      dup3\n        /* \"contracts/EduVerifyAdmin.sol\":5326:5354  governors[i] == _addr_target */\n      0xffffffffffffffffffffffffffffffffffffffff\n      and\n        /* \"contracts/EduVerifyAdmin.sol\":5326:5335  governors */\n      0x01\n        /* \"contracts/EduVerifyAdmin.sol\":5336:5337  i */\n      dup3\n        /* \"contracts/EduVerifyAdmin.sol\":5326:5338  governors[i] */\n      dup2\n      sload\n      dup2\n      lt\n      tag_165\n      jumpi\n      tag_166\n      tag_85\n      jump\t// in\n    tag_166:\n    tag_165:\n      swap1\n      0x00\n      mstore\n      keccak256(0x00, 0x20)\n      add\n      0x00\n      swap1\n      sload\n      swap1\n      0x0100\n      exp\n      swap1\n      div\n      0xffffffffffffffffffffffffffffffffffffffff\n      and\n        /* \"contracts/EduVerifyAdmin.sol\":5326:5354  governors[i] == _addr_target */\n      0xffffffffffffffffffffffffffffffffffffffff\n      and\n      sub\n        /* \"contracts/EduVerifyAdmin.sol\":5322:5497  if (governors[i] == _addr_target) {... */\n      tag_168\n      jumpi\n        /* \"contracts/EduVerifyAdmin.sol\":5393:5402  governors */\n      0x01\n        /* \"contracts/EduVerifyAdmin.sol\":5412:5413  1 */\n      dup1\n        /* \"contracts/EduVerifyAdmin.sol\":5403:5409  length */\n      dup4\n        /* \"contracts/EduVerifyAdmin.sol\":5403:5413  length - 1 */\n      tag_169\n      swap2\n      swap1\n      tag_170\n      jump\t// in\n    tag_169:\n        /* \"contracts/EduVerifyAdmin.sol\":5393:5414  governors[length - 1] */\n      dup2\n      sload\n      dup2\n      lt\n      tag_171\n      jumpi\n      tag_172\n      tag_85\n      jump\t// in\n    tag_172:\n    tag_171:\n      swap1\n      0x00\n      mstore\n      keccak256(0x00, 0x20)\n      add\n      0x00\n      swap1\n      sload\n      swap1\n      0x0100\n      exp\n      swap1\n      div\n      0xffffffffffffffffffffffffffffffffffffffff\n      and\n        /* \"contracts/EduVerifyAdmin.sol\":5378:5387  governors */\n      0x01\n        /* \"contracts/EduVerifyAdmin.sol\":5388:5389  i */\n      dup3\n        /* \"contracts/EduVerifyAdmin.sol\":5378:5390  governors[i] */\n      dup2\n      sload\n      dup2\n      lt\n      tag_174\n      jumpi\n      tag_175\n      tag_85\n      jump\t// in\n    tag_175:\n    tag_174:\n      swap1\n      0x00\n      mstore\n      keccak256(0x00, 0x20)\n      add\n      0x00\n        /* \"contracts/EduVerifyAdmin.sol\":5378:5414  governors[i] = governors[length - 1] */\n      0x0100\n      exp\n      dup2\n      sload\n      dup2\n      0xffffffffffffffffffffffffffffffffffffffff\n      mul\n      not\n      and\n      swap1\n      dup4\n      0xffffffffffffffffffffffffffffffffffffffff\n      and\n      mul\n      or\n      swap1\n      sstore\n      pop\n        /* \"contracts/EduVerifyAdmin.sol\":5436:5445  governors */\n      0x01\n        /* \"contracts/EduVerifyAdmin.sol\":5436:5451  governors.pop() */\n      dup1\n      sload\n      dup1\n      tag_177\n      jumpi\n      tag_178\n      tag_179\n      jump\t// in\n    tag_178:\n    tag_177:\n      0x01\n      swap1\n      sub\n      dup2\n      dup2\n      swap1\n      0x00\n      mstore\n      keccak256(0x00, 0x20)\n      add\n      exp(0x0100, 0x00)\n      dup2\n      sload\n      swap1\n      0xffffffffffffffffffffffffffffffffffffffff\n      mul\n      not\n      and\n      swap1\n      sstore\n      swap1\n      sstore\n        /* \"contracts/EduVerifyAdmin.sol\":5473:5478  break */\n      jump(tag_163)\n        /* \"contracts/EduVerifyAdmin.sol\":5322:5497  if (governors[i] == _addr_target) {... */\n    tag_168:\n        /* \"contracts/EduVerifyAdmin.sol\":5525:5528  ++i */\n      dup1\n      0x01\n      add\n      swap1\n      pop\n        /* \"contracts/EduVerifyAdmin.sol\":5274:5545  for (uint i = 0; i < length;) {... */\n      jump(tag_162)\n    tag_163:\n      pop\n        /* \"contracts/EduVerifyAdmin.sol\":5592:5600  proposal */\n      dup4\n        /* \"contracts/EduVerifyAdmin.sol\":5592:5607  proposal.target */\n      0x01\n      add\n      0x01\n      swap1\n      sload\n      swap1\n      0x0100\n      exp\n      swap1\n      div\n      0xffffffffffffffffffffffffffffffffffffffff\n      and\n        /* \"contracts/EduVerifyAdmin.sol\":5576:5608  GovernorRemoved(proposal.target) */\n      0xffffffffffffffffffffffffffffffffffffffff\n      and\n      0x1ebe834e73d60a5fec822c1e1727d34bc79f2ad977ed504581cc1822fe20fb5b\n      mload(0x40)\n      mload(0x40)\n      dup1\n      swap2\n      sub\n      swap1\n      log2\n        /* \"contracts/EduVerifyAdmin.sol\":4954:5619  {... */\n      pop\n      pop\n        /* \"contracts/EduVerifyAdmin.sol\":4909:5619  if(proposal.action == Action.RevokeGovernor) {... */\n    tag_156:\n        /* \"contracts/EduVerifyAdmin.sol\":4577:5619  if(proposal.action == Action.AddGovernor) {... */\n    tag_151:\n        /* \"contracts/EduVerifyAdmin.sol\":4334:5619  if(proposal.action == Action.RevokeInstitution) {... */\n    tag_141:\n        /* \"contracts/EduVerifyAdmin.sol\":4088:5619  if(proposal.action == Action.AddInstitution) {... */\n    tag_127:\n        /* \"contracts/EduVerifyAdmin.sol\":5657:5661  true */\n      0x01\n        /* \"contracts/EduVerifyAdmin.sol\":5637:5645  proposal */\n      dup3\n        /* \"contracts/EduVerifyAdmin.sol\":5637:5654  proposal.executed */\n      0x04\n      add\n      0x00\n        /* \"contracts/EduVerifyAdmin.sol\":5637:5661  proposal.executed = true */\n      0x0100\n      exp\n      dup2\n      sload\n      dup2\n      0xff\n      mul\n      not\n      and\n      swap1\n      dup4\n      iszero\n      iszero\n      mul\n      or\n      swap1\n      sstore\n      pop\n        /* \"contracts/EduVerifyAdmin.sol\":5693:5703  proposalId */\n      dup3\n        /* \"contracts/EduVerifyAdmin.sol\":5676:5704  ProposalExecuted(proposalId) */\n      0x712ae1383f79ac853f8d882153778e0260ef8f03b504e2866e0593e04d2b291f\n      mload(0x40)\n      mload(0x40)\n      dup1\n      swap2\n      sub\n      swap1\n      log2\n        /* \"contracts/EduVerifyAdmin.sol\":3761:5711  {... */\n      pop\n      pop\n        /* \"contracts/EduVerifyAdmin.sol\":3697:5711  function executeProposal(uint proposalId) external onlyGovernor {... */\n      pop\n      jump\t// out\n        /* \"contracts/EduVerifyAdmin.sol\":2640:2748  function calculateThreshold() external view returns(uint) {... */\n    tag_33:\n        /* \"contracts/EduVerifyAdmin.sol\":2692:2696  uint */\n      0x00\n        /* \"contracts/EduVerifyAdmin.sol\":2740:2741  1 */\n      0x01\n        /* \"contracts/EduVerifyAdmin.sol\":2735:2736  2 */\n      0x02\n        /* \"contracts/EduVerifyAdmin.sol\":2716:2725  governors */\n      0x01\n        /* \"contracts/EduVerifyAdmin.sol\":2716:2732  governors.length */\n      dup1\n      sload\n      swap1\n      pop\n        /* \"contracts/EduVerifyAdmin.sol\":2716:2736  governors.length / 2 */\n      tag_182\n      swap2\n      swap1\n      tag_105\n      jump\t// in\n    tag_182:\n        /* \"contracts/EduVerifyAdmin.sol\":2715:2741  (governors.length / 2) + 1 */\n      tag_183\n      swap2\n      swap1\n      tag_94\n      jump\t// in\n    tag_183:\n        /* \"contracts/EduVerifyAdmin.sol\":2708:2741  return (governors.length / 2) + 1 */\n      swap1\n      pop\n        /* \"contracts/EduVerifyAdmin.sol\":2640:2748  function calculateThreshold() external view returns(uint) {... */\n      swap1\n      jump\t// out\n        /* \"contracts/EduVerifyAdmin.sol\":5721:6023  function getProposalDetails(uint proposalId) external view returns(Action action, address target, uint yesVotes, uint snapshotGovernorCount,  bool executed) {... */\n    tag_38:\n        /* \"contracts/EduVerifyAdmin.sol\":5788:5801  Action action */\n      0x00\n        /* \"contracts/EduVerifyAdmin.sol\":5803:5817  address target */\n      0x00\n        /* \"contracts/EduVerifyAdmin.sol\":5819:5832  uint yesVotes */\n      0x00\n        /* \"contracts/EduVerifyAdmin.sol\":5834:5860  uint snapshotGovernorCount */\n      0x00\n        /* \"contracts/EduVerifyAdmin.sol\":5863:5876  bool executed */\n      0x00\n        /* \"contracts/EduVerifyAdmin.sol\":5888:5906  Proposal storage p */\n      0x00\n        /* \"contracts/EduVerifyAdmin.sol\":5909:5918  proposals */\n      0x03\n        /* \"contracts/EduVerifyAdmin.sol\":5919:5929  proposalId */\n      dup8\n        /* \"contracts/EduVerifyAdmin.sol\":5909:5930  proposals[proposalId] */\n      dup2\n      sload\n      dup2\n      lt\n      tag_185\n      jumpi\n      tag_186\n      tag_85\n      jump\t// in\n    tag_186:\n    tag_185:\n      swap1\n      0x00\n      mstore\n      keccak256(0x00, 0x20)\n      swap1\n      0x06\n      mul\n      add\n        /* \"contracts/EduVerifyAdmin.sol\":5888:5930  Proposal storage p = proposals[proposalId] */\n      swap1\n      pop\n        /* \"contracts/EduVerifyAdmin.sol\":5948:5949  p */\n      dup1\n        /* \"contracts/EduVerifyAdmin.sol\":5948:5956  p.action */\n      0x01\n      add\n      0x00\n      swap1\n      sload\n      swap1\n      0x0100\n      exp\n      swap1\n      div\n      0xff\n      and\n        /* \"contracts/EduVerifyAdmin.sol\":5958:5959  p */\n      dup2\n        /* \"contracts/EduVerifyAdmin.sol\":5958:5966  p.target */\n      0x01\n      add\n      0x01\n      swap1\n      sload\n      swap1\n      0x0100\n      exp\n      swap1\n      div\n      0xffffffffffffffffffffffffffffffffffffffff\n      and\n        /* \"contracts/EduVerifyAdmin.sol\":5968:5969  p */\n      dup3\n        /* \"contracts/EduVerifyAdmin.sol\":5968:5978  p.yesVotes */\n      0x02\n      add\n      sload\n        /* \"contracts/EduVerifyAdmin.sol\":5980:5981  p */\n      dup4\n        /* \"contracts/EduVerifyAdmin.sol\":5980:6003  p.snapshotGovernorCount */\n      0x03\n      add\n      sload\n        /* \"contracts/EduVerifyAdmin.sol\":6005:6006  p */\n      dup5\n        /* \"contracts/EduVerifyAdmin.sol\":6005:6015  p.executed */\n      0x04\n      add\n      0x00\n      swap1\n      sload\n      swap1\n      0x0100\n      exp\n      swap1\n      div\n      0xff\n      and\n        /* \"contracts/EduVerifyAdmin.sol\":5940:6016  return (p.action, p.target, p.yesVotes, p.snapshotGovernorCount, p.executed) */\n      swap6\n      pop\n      swap6\n      pop\n      swap6\n      pop\n      swap6\n      pop\n      swap6\n      pop\n      pop\n        /* \"contracts/EduVerifyAdmin.sol\":5721:6023  function getProposalDetails(uint proposalId) external view returns(Action action, address target, uint yesVotes, uint snapshotGovernorCount,  bool executed) {... */\n      swap2\n      swap4\n      swap6\n      swap1\n      swap3\n      swap5\n      pop\n      jump\t// out\n        /* \"contracts/EduVerifyAdmin.sol\":6230:6375  function hasVoted(uint proposalId, address governor) external view returns(bool) {... */\n    tag_44:\n        /* \"contracts/EduVerifyAdmin.sol\":6305:6309  bool */\n      0x00\n        /* \"contracts/EduVerifyAdmin.sol\":6328:6337  proposals */\n      0x03\n        /* \"contracts/EduVerifyAdmin.sol\":6338:6348  proposalId */\n      dup4\n        /* \"contracts/EduVerifyAdmin.sol\":6328:6349  proposals[proposalId] */\n      dup2\n      sload\n      dup2\n      lt\n      tag_189\n      jumpi\n      tag_190\n      tag_85\n      jump\t// in\n    tag_190:\n    tag_189:\n      swap1\n      0x00\n      mstore\n      keccak256(0x00, 0x20)\n      swap1\n      0x06\n      mul\n      add\n        /* \"contracts/EduVerifyAdmin.sol\":6328:6358  proposals[proposalId].hasVoted */\n      0x05\n      add\n        /* \"contracts/EduVerifyAdmin.sol\":6328:6368  proposals[proposalId].hasVoted[governor] */\n      0x00\n        /* \"contracts/EduVerifyAdmin.sol\":6359:6367  governor */\n      dup4\n        /* \"contracts/EduVerifyAdmin.sol\":6328:6368  proposals[proposalId].hasVoted[governor] */\n      0xffffffffffffffffffffffffffffffffffffffff\n      and\n      0xffffffffffffffffffffffffffffffffffffffff\n      and\n      dup2\n      mstore\n      0x20\n      add\n      swap1\n      dup2\n      mstore\n      0x20\n      add\n      0x00\n      keccak256\n      0x00\n      swap1\n      sload\n      swap1\n      0x0100\n      exp\n      swap1\n      div\n      0xff\n      and\n        /* \"contracts/EduVerifyAdmin.sol\":6321:6368  return proposals[proposalId].hasVoted[governor] */\n      swap1\n      pop\n        /* \"contracts/EduVerifyAdmin.sol\":6230:6375  function hasVoted(uint proposalId, address governor) external view returns(bool) {... */\n      swap3\n      swap2\n      pop\n      pop\n      jump\t// out\n        /* \"contracts/EduVerifyAdmin.sol\":6033:6220  function getThresholdForProposal(uint proposalId) external view returns(uint) {... */\n    tag_49:\n        /* \"contracts/EduVerifyAdmin.sol\":6105:6109  uint */\n      0x00\n        /* \"contracts/EduVerifyAdmin.sol\":6121:6139  Proposal storage p */\n      0x00\n        /* \"contracts/EduVerifyAdmin.sol\":6142:6151  proposals */\n      0x03\n        /* \"contracts/EduVerifyAdmin.sol\":6152:6162  proposalId */\n      dup4\n        /* \"contracts/EduVerifyAdmin.sol\":6142:6163  proposals[proposalId] */\n      dup2\n      sload\n      dup2\n      lt\n      tag_193\n      jumpi\n      tag_194\n      tag_85\n      jump\t// in\n    tag_194:\n    tag_193:\n      swap1\n      0x00\n      mstore\n      keccak256(0x00, 0x20)\n      swap1\n      0x06\n      mul\n      add\n        /* \"contracts/EduVerifyAdmin.sol\":6121:6163  Proposal storage p = proposals[proposalId] */\n      swap1\n      pop\n        /* \"contracts/EduVerifyAdmin.sol\":6212:6213  1 */\n      0x01\n        /* \"contracts/EduVerifyAdmin.sol\":6207:6208  2 */\n      0x02\n        /* \"contracts/EduVerifyAdmin.sol\":6181:6182  p */\n      dup3\n        /* \"contracts/EduVerifyAdmin.sol\":6181:6204  p.snapshotGovernorCount */\n      0x03\n      add\n      sload\n        /* \"contracts/EduVerifyAdmin.sol\":6181:6208  p.snapshotGovernorCount / 2 */\n      tag_196\n      swap2\n      swap1\n      tag_105\n      jump\t// in\n    tag_196:\n        /* \"contracts/EduVerifyAdmin.sol\":6180:6213  (p.snapshotGovernorCount / 2) + 1 */\n      tag_197\n      swap2\n      swap1\n      tag_94\n      jump\t// in\n    tag_197:\n        /* \"contracts/EduVerifyAdmin.sol\":6173:6213  return (p.snapshotGovernorCount / 2) + 1 */\n      swap2\n      pop\n      pop\n        /* \"contracts/EduVerifyAdmin.sol\":6033:6220  function getThresholdForProposal(uint proposalId) external view returns(uint) {... */\n      swap2\n      swap1\n      pop\n      jump\t// out\n        /* \"contracts/EduVerifyAdmin.sol\":1297:1323  address[] public governors */\n    tag_53:\n      0x01\n      dup2\n      dup2\n      sload\n      dup2\n      lt\n      tag_198\n      jumpi\n      0x00\n      dup1\n      revert\n    tag_198:\n      swap1\n      0x00\n      mstore\n      keccak256(0x00, 0x20)\n      add\n      0x00\n      swap2\n      pop\n      sload\n      swap1\n      0x0100\n      exp\n      swap1\n      div\n      0xffffffffffffffffffffffffffffffffffffffff\n      and\n      dup2\n      jump\t// out\n        /* \"contracts/EduVerifyAdmin.sol\":2758:3289  function propose(Action action, address target) external onlyGovernor returns(uint) {... */\n    tag_59:\n        /* \"contracts/EduVerifyAdmin.sol\":2836:2840  uint */\n      0x00\n        /* \"contracts/EduVerifyAdmin.sol\":1823:1833  isGovernor */\n      0x00\n        /* \"contracts/EduVerifyAdmin.sol\":1823:1845  isGovernor[msg.sender] */\n      0x00\n        /* \"contracts/EduVerifyAdmin.sol\":1834:1844  msg.sender */\n      caller\n        /* \"contracts/EduVerifyAdmin.sol\":1823:1845  isGovernor[msg.sender] */\n      0xffffffffffffffffffffffffffffffffffffffff\n      and\n      0xffffffffffffffffffffffffffffffffffffffff\n      and\n      dup2\n      mstore\n      0x20\n      add\n      swap1\n      dup2\n      mstore\n      0x20\n      add\n      0x00\n      keccak256\n      0x00\n      swap1\n      sload\n      swap1\n      0x0100\n      exp\n      swap1\n      div\n      0xff\n      and\n        /* \"contracts/EduVerifyAdmin.sol\":1815:1864  require(isGovernor[msg.sender], \"Not a governor\") */\n      tag_201\n      jumpi\n      mload(0x40)\n      0x08c379a000000000000000000000000000000000000000000000000000000000\n      dup2\n      mstore\n      0x04\n      add\n      tag_202\n      swap1\n      tag_81\n      jump\t// in\n    tag_202:\n      mload(0x40)\n      dup1\n      swap2\n      sub\n      swap1\n      revert\n    tag_201:\n        /* \"contracts/EduVerifyAdmin.sol\":2852:2867  uint proposalId */\n      0x00\n        /* \"contracts/EduVerifyAdmin.sol\":2870:2879  proposals */\n      0x03\n        /* \"contracts/EduVerifyAdmin.sol\":2870:2886  proposals.length */\n      dup1\n      sload\n      swap1\n      pop\n        /* \"contracts/EduVerifyAdmin.sol\":2852:2886  uint proposalId = proposals.length */\n      swap1\n      pop\n        /* \"contracts/EduVerifyAdmin.sol\":2896:2924  Proposal storage newProposal */\n      0x00\n        /* \"contracts/EduVerifyAdmin.sol\":2927:2936  proposals */\n      0x03\n        /* \"contracts/EduVerifyAdmin.sol\":2927:2943  proposals.push() */\n      0x01\n      dup2\n      0x01\n      dup2\n      sload\n      add\n      dup1\n      dup3\n      sstore\n      dup1\n      swap2\n      pop\n      pop\n      sub\n      swap1\n      0x00\n      mstore\n      keccak256(0x00, 0x20)\n      swap1\n      0x06\n      mul\n      add\n        /* \"contracts/EduVerifyAdmin.sol\":2896:2943  Proposal storage newProposal = proposals.push() */\n      swap1\n      pop\n        /* \"contracts/EduVerifyAdmin.sol\":2970:2980  proposalId */\n      dup2\n        /* \"contracts/EduVerifyAdmin.sol\":2953:2964  newProposal */\n      dup2\n        /* \"contracts/EduVerifyAdmin.sol\":2953:2967  newProposal.id */\n      0x00\n      add\n        /* \"contracts/EduVerifyAdmin.sol\":2953:2980  newProposal.id = proposalId */\n      dup2\n      swap1\n      sstore\n      pop\n        /* \"contracts/EduVerifyAdmin.sol\":3011:3017  action */\n      dup5\n        /* \"contracts/EduVerifyAdmin.sol\":2990:3001  newProposal */\n      dup2\n        /* \"contracts/EduVerifyAdmin.sol\":2990:3008  newProposal.action */\n      0x01\n      add\n      0x00\n        /* \"contracts/EduVerifyAdmin.sol\":2990:3017  newProposal.action = action */\n      0x0100\n      exp\n      dup2\n      sload\n      dup2\n      0xff\n      mul\n      not\n      and\n      swap1\n      dup4\n      0x03\n      dup2\n      gt\n      iszero\n      tag_205\n      jumpi\n      tag_206\n      tag_114\n      jump\t// in\n    tag_206:\n    tag_205:\n      mul\n      or\n      swap1\n      sstore\n      pop\n        /* \"contracts/EduVerifyAdmin.sol\":3048:3054  target */\n      dup4\n        /* \"contracts/EduVerifyAdmin.sol\":3027:3038  newProposal */\n      dup2\n        /* \"contracts/EduVerifyAdmin.sol\":3027:3045  newProposal.target */\n      0x01\n      add\n      0x01\n        /* \"contracts/EduVerifyAdmin.sol\":3027:3054  newProposal.target = target */\n      0x0100\n      exp\n      dup2\n      sload\n      dup2\n      0xffffffffffffffffffffffffffffffffffffffff\n      mul\n      not\n      and\n      swap1\n      dup4\n      0xffffffffffffffffffffffffffffffffffffffff\n      and\n      mul\n      or\n      swap1\n      sstore\n      pop\n        /* \"contracts/EduVerifyAdmin.sol\":3087:3088  0 */\n      0x00\n        /* \"contracts/EduVerifyAdmin.sol\":3064:3075  newProposal */\n      dup2\n        /* \"contracts/EduVerifyAdmin.sol\":3064:3084  newProposal.yesVotes */\n      0x02\n      add\n        /* \"contracts/EduVerifyAdmin.sol\":3064:3088  newProposal.yesVotes = 0 */\n      dup2\n      swap1\n      sstore\n      pop\n        /* \"contracts/EduVerifyAdmin.sol\":3134:3143  governors */\n      0x01\n        /* \"contracts/EduVerifyAdmin.sol\":3134:3150  governors.length */\n      dup1\n      sload\n      swap1\n      pop\n        /* \"contracts/EduVerifyAdmin.sol\":3098:3109  newProposal */\n      dup2\n        /* \"contracts/EduVerifyAdmin.sol\":3098:3131  newProposal.snapshotGovernorCount */\n      0x03\n      add\n        /* \"contracts/EduVerifyAdmin.sol\":3098:3150  newProposal.snapshotGovernorCount = governors.length */\n      dup2\n      swap1\n      sstore\n      pop\n        /* \"contracts/EduVerifyAdmin.sol\":3183:3188  false */\n      0x00\n        /* \"contracts/EduVerifyAdmin.sol\":3160:3171  newProposal */\n      dup2\n        /* \"contracts/EduVerifyAdmin.sol\":3160:3180  newProposal.executed */\n      0x04\n      add\n      0x00\n        /* \"contracts/EduVerifyAdmin.sol\":3160:3188  newProposal.executed = false */\n      0x0100\n      exp\n      dup2\n      sload\n      dup2\n      0xff\n      mul\n      not\n      and\n      swap1\n      dup4\n      iszero\n      iszero\n      mul\n      or\n      swap1\n      sstore\n      pop\n        /* \"contracts/EduVerifyAdmin.sol\":3228:3238  proposalId */\n      dup2\n        /* \"contracts/EduVerifyAdmin.sol\":3212:3255  ProposalCreated(proposalId, action, target) */\n      0x3263432a41f78a4701cc9465f62411ed717ade32290c084135a3dd6b29f4bf28\n        /* \"contracts/EduVerifyAdmin.sol\":3240:3246  action */\n      dup7\n        /* \"contracts/EduVerifyAdmin.sol\":3248:3254  target */\n      dup7\n        /* \"contracts/EduVerifyAdmin.sol\":3212:3255  ProposalCreated(proposalId, action, target) */\n      mload(0x40)\n      tag_207\n      swap3\n      swap2\n      swap1\n      tag_208\n      jump\t// in\n    tag_207:\n      mload(0x40)\n      dup1\n      swap2\n      sub\n      swap1\n      log2\n        /* \"contracts/EduVerifyAdmin.sol\":3272:3282  proposalId */\n      dup2\n        /* \"contracts/EduVerifyAdmin.sol\":3265:3282  return proposalId */\n      swap3\n      pop\n      pop\n      pop\n        /* \"contracts/EduVerifyAdmin.sol\":2758:3289  function propose(Action action, address target) external onlyGovernor returns(uint) {... */\n      swap3\n      swap2\n      pop\n      pop\n      jump\t// out\n        /* \"contracts/EduVerifyAdmin.sol\":6385:6478  function proposalCount() external view returns(uint) {... */\n    tag_62:\n        /* \"contracts/EduVerifyAdmin.sol\":6432:6436  uint */\n      0x00\n        /* \"contracts/EduVerifyAdmin.sol\":6455:6464  proposals */\n      0x03\n        /* \"contracts/EduVerifyAdmin.sol\":6455:6471  proposals.length */\n      dup1\n      sload\n      swap1\n      pop\n        /* \"contracts/EduVerifyAdmin.sol\":6448:6471  return proposals.length */\n      swap1\n      pop\n        /* \"contracts/EduVerifyAdmin.sol\":6385:6478  function proposalCount() external view returns(uint) {... */\n      swap1\n      jump\t// out\n        /* \"contracts/EduVerifyAdmin.sol\":1355:1379  address public eduVerify */\n    tag_65:\n      0x02\n      0x00\n      swap1\n      sload\n      swap1\n      0x0100\n      exp\n      swap1\n      div\n      0xffffffffffffffffffffffffffffffffffffffff\n      and\n      dup2\n      jump\t// out\n        /* \"contracts/EduVerifyAdmin.sol\":2455:2630  function setEduVerifyAddress(address _eduVerify) external onlyGovernor {... */\n    tag_70:\n        /* \"contracts/EduVerifyAdmin.sol\":1823:1833  isGovernor */\n      0x00\n        /* \"contracts/EduVerifyAdmin.sol\":1823:1845  isGovernor[msg.sender] */\n      0x00\n        /* \"contracts/EduVerifyAdmin.sol\":1834:1844  msg.sender */\n      caller\n        /* \"contracts/EduVerifyAdmin.sol\":1823:1845  isGovernor[msg.sender] */\n      0xffffffffffffffffffffffffffffffffffffffff\n      and\n      0xffffffffffffffffffffffffffffffffffffffff\n      and\n      dup2\n      mstore\n      0x20\n      add\n      swap1\n      dup2\n      mstore\n      0x20\n      add\n      0x00\n      keccak256\n      0x00\n      swap1\n      sload\n      swap1\n      0x0100\n      exp\n      swap1\n      div\n      0xff\n      and\n        /* \"contracts/EduVerifyAdmin.sol\":1815:1864  require(isGovernor[msg.sender], \"Not a governor\") */\n      tag_211\n      jumpi\n      mload(0x40)\n      0x08c379a000000000000000000000000000000000000000000000000000000000\n      dup2\n      mstore\n      0x04\n      add\n      tag_212\n      swap1\n      tag_81\n      jump\t// in\n    tag_212:\n      mload(0x40)\n      dup1\n      swap2\n      sub\n      swap1\n      revert\n    tag_211:\n        /* \"contracts/EduVerifyAdmin.sol\":2565:2566  0 */\n      0x00\n        /* \"contracts/EduVerifyAdmin.sol\":2544:2567  eduVerify == address(0) */\n      0xffffffffffffffffffffffffffffffffffffffff\n      and\n        /* \"contracts/EduVerifyAdmin.sol\":2544:2553  eduVerify */\n      0x02\n      0x00\n      swap1\n      sload\n      swap1\n      0x0100\n      exp\n      swap1\n      div\n      0xffffffffffffffffffffffffffffffffffffffff\n      and\n        /* \"contracts/EduVerifyAdmin.sol\":2544:2567  eduVerify == address(0) */\n      0xffffffffffffffffffffffffffffffffffffffff\n      and\n      eq\n        /* \"contracts/EduVerifyAdmin.sol\":2536:2591  require(eduVerify == address(0), \"Address already set\") */\n      tag_214\n      jumpi\n      mload(0x40)\n      0x08c379a000000000000000000000000000000000000000000000000000000000\n      dup2\n      mstore\n      0x04\n      add\n      tag_215\n      swap1\n      tag_216\n      jump\t// in\n    tag_215:\n      mload(0x40)\n      dup1\n      swap2\n      sub\n      swap1\n      revert\n    tag_214:\n        /* \"contracts/EduVerifyAdmin.sol\":2613:2623  _eduVerify */\n      dup1\n        /* \"contracts/EduVerifyAdmin.sol\":2601:2610  eduVerify */\n      0x02\n      0x00\n        /* \"contracts/EduVerifyAdmin.sol\":2601:2623  eduVerify = _eduVerify */\n      0x0100\n      exp\n      dup2\n      sload\n      dup2\n      0xffffffffffffffffffffffffffffffffffffffff\n      mul\n      not\n      and\n      swap1\n      dup4\n      0xffffffffffffffffffffffffffffffffffffffff\n      and\n      mul\n      or\n      swap1\n      sstore\n      pop\n        /* \"contracts/EduVerifyAdmin.sol\":2455:2630  function setEduVerifyAddress(address _eduVerify) external onlyGovernor {... */\n      pop\n      jump\t// out\n        /* \"contracts/EduVerifyAdmin.sol\":1220:1262  mapping(address => bool) public isGovernor */\n    tag_73:\n      mstore(0x20, 0x00)\n      dup1\n      0x00\n      mstore\n      keccak256(0x00, 0x40)\n      0x00\n      swap2\n      pop\n      sload\n      swap1\n      0x0100\n      exp\n      swap1\n      div\n      0xff\n      and\n      dup2\n      jump\t// out\n        /* \"contracts/EduVerifyAdmin.sol\":6488:6581  function governorCount() external view returns(uint) {... */\n    tag_76:\n        /* \"contracts/EduVerifyAdmin.sol\":6535:6539  uint */\n      0x00\n        /* \"contracts/EduVerifyAdmin.sol\":6558:6567  governors */\n      0x01\n        /* \"contracts/EduVerifyAdmin.sol\":6558:6574  governors.length */\n      dup1\n      sload\n      swap1\n      pop\n        /* \"contracts/EduVerifyAdmin.sol\":6551:6574  return governors.length */\n      swap1\n      pop\n        /* \"contracts/EduVerifyAdmin.sol\":6488:6581  function governorCount() external view returns(uint) {... */\n      swap1\n      jump\t// out\n        /* \"#utility.yul\":88:205   */\n    tag_219:\n        /* \"#utility.yul\":197:198   */\n      0x00\n        /* \"#utility.yul\":194:195   */\n      0x00\n        /* \"#utility.yul\":187:199   */\n      revert\n        /* \"#utility.yul\":334:411   */\n    tag_221:\n        /* \"#utility.yul\":371:378   */\n      0x00\n        /* \"#utility.yul\":400:405   */\n      dup2\n        /* \"#utility.yul\":389:405   */\n      swap1\n      pop\n        /* \"#utility.yul\":334:411   */\n      swap2\n      swap1\n      pop\n      jump\t// out\n        /* \"#utility.yul\":417:539   */\n    tag_222:\n        /* \"#utility.yul\":490:514   */\n      tag_269\n        /* \"#utility.yul\":508:513   */\n      dup2\n        /* \"#utility.yul\":490:514   */\n      tag_221\n      jump\t// in\n    tag_269:\n        /* \"#utility.yul\":483:488   */\n      dup2\n        /* \"#utility.yul\":480:515   */\n      eq\n        /* \"#utility.yul\":470:533   */\n      tag_270\n      jumpi\n        /* \"#utility.yul\":529:530   */\n      0x00\n        /* \"#utility.yul\":526:527   */\n      0x00\n        /* \"#utility.yul\":519:531   */\n      revert\n        /* \"#utility.yul\":470:533   */\n    tag_270:\n        /* \"#utility.yul\":417:539   */\n      pop\n      jump\t// out\n        /* \"#utility.yul\":545:684   */\n    tag_223:\n        /* \"#utility.yul\":591:596   */\n      0x00\n        /* \"#utility.yul\":629:635   */\n      dup2\n        /* \"#utility.yul\":616:636   */\n      calldataload\n        /* \"#utility.yul\":607:636   */\n      swap1\n      pop\n        /* \"#utility.yul\":645:678   */\n      tag_272\n        /* \"#utility.yul\":672:677   */\n      dup2\n        /* \"#utility.yul\":645:678   */\n      tag_222\n      jump\t// in\n    tag_272:\n        /* \"#utility.yul\":545:684   */\n      swap3\n      swap2\n      pop\n      pop\n      jump\t// out\n        /* \"#utility.yul\":690:1019   */\n    tag_22:\n        /* \"#utility.yul\":749:755   */\n      0x00\n        /* \"#utility.yul\":798:800   */\n      0x20\n        /* \"#utility.yul\":786:795   */\n      dup3\n        /* \"#utility.yul\":777:784   */\n      dup5\n        /* \"#utility.yul\":773:796   */\n      sub\n        /* \"#utility.yul\":769:801   */\n      slt\n        /* \"#utility.yul\":766:885   */\n      iszero\n      tag_274\n      jumpi\n        /* \"#utility.yul\":804:883   */\n      tag_275\n      tag_219\n      jump\t// in\n    tag_275:\n        /* \"#utility.yul\":766:885   */\n    tag_274:\n        /* \"#utility.yul\":924:925   */\n      0x00\n        /* \"#utility.yul\":949:1002   */\n      tag_276\n        /* \"#utility.yul\":994:1001   */\n      dup5\n        /* \"#utility.yul\":985:991   */\n      dup3\n        /* \"#utility.yul\":974:983   */\n      dup6\n        /* \"#utility.yul\":970:992   */\n      add\n        /* \"#utility.yul\":949:1002   */\n      tag_223\n      jump\t// in\n    tag_276:\n        /* \"#utility.yul\":939:1002   */\n      swap2\n      pop\n        /* \"#utility.yul\":895:1012   */\n      pop\n        /* \"#utility.yul\":690:1019   */\n      swap3\n      swap2\n      pop\n      pop\n      jump\t// out\n        /* \"#utility.yul\":1025:1143   */\n    tag_224:\n        /* \"#utility.yul\":1112:1136   */\n      tag_278\n        /* \"#utility.yul\":1130:1135   */\n      dup2\n        /* \"#utility.yul\":1112:1136   */\n      tag_221\n      jump\t// in\n    tag_278:\n        /* \"#utility.yul\":1107:1110   */\n      dup3\n        /* \"#utility.yul\":1100:1137   */\n      mstore\n        /* \"#utility.yul\":1025:1143   */\n      pop\n      pop\n      jump\t// out\n        /* \"#utility.yul\":1149:1329   */\n    tag_114:\n        /* \"#utility.yul\":1197:1274   */\n      0x4e487b7100000000000000000000000000000000000000000000000000000000\n        /* \"#utility.yul\":1194:1195   */\n      0x00\n        /* \"#utility.yul\":1187:1275   */\n      mstore\n        /* \"#utility.yul\":1294:1298   */\n      0x21\n        /* \"#utility.yul\":1291:1292   */\n      0x04\n        /* \"#utility.yul\":1284:1299   */\n      mstore\n        /* \"#utility.yul\":1318:1322   */\n      0x24\n        /* \"#utility.yul\":1315:1316   */\n      0x00\n        /* \"#utility.yul\":1308:1323   */\n      revert\n        /* \"#utility.yul\":1335:1450   */\n    tag_225:\n        /* \"#utility.yul\":1418:1419   */\n      0x04\n        /* \"#utility.yul\":1411:1416   */\n      dup2\n        /* \"#utility.yul\":1408:1420   */\n      lt\n        /* \"#utility.yul\":1398:1444   */\n      tag_281\n      jumpi\n        /* \"#utility.yul\":1424:1442   */\n      tag_282\n      tag_114\n      jump\t// in\n    tag_282:\n        /* \"#utility.yul\":1398:1444   */\n    tag_281:\n        /* \"#utility.yul\":1335:1450   */\n      pop\n      jump\t// out\n        /* \"#utility.yul\":1456:1587   */\n    tag_226:\n        /* \"#utility.yul\":1503:1510   */\n      0x00\n        /* \"#utility.yul\":1532:1537   */\n      dup2\n        /* \"#utility.yul\":1521:1537   */\n      swap1\n      pop\n        /* \"#utility.yul\":1538:1581   */\n      tag_284\n        /* \"#utility.yul\":1575:1580   */\n      dup3\n        /* \"#utility.yul\":1538:1581   */\n      tag_225\n      jump\t// in\n    tag_284:\n        /* \"#utility.yul\":1456:1587   */\n      swap2\n      swap1\n      pop\n      jump\t// out\n        /* \"#utility.yul\":1593:1724   */\n    tag_227:\n        /* \"#utility.yul\":1651:1660   */\n      0x00\n        /* \"#utility.yul\":1684:1718   */\n      tag_286\n        /* \"#utility.yul\":1712:1717   */\n      dup3\n        /* \"#utility.yul\":1684:1718   */\n      tag_226\n      jump\t// in\n    tag_286:\n        /* \"#utility.yul\":1671:1718   */\n      swap1\n      pop\n        /* \"#utility.yul\":1593:1724   */\n      swap2\n      swap1\n      pop\n      jump\t// out\n        /* \"#utility.yul\":1730:1877   */\n    tag_228:\n        /* \"#utility.yul\":1825:1870   */\n      tag_288\n        /* \"#utility.yul\":1864:1869   */\n      dup2\n        /* \"#utility.yul\":1825:1870   */\n      tag_227\n      jump\t// in\n    tag_288:\n        /* \"#utility.yul\":1820:1823   */\n      dup3\n        /* \"#utility.yul\":1813:1871   */\n      mstore\n        /* \"#utility.yul\":1730:1877   */\n      pop\n      pop\n      jump\t// out\n        /* \"#utility.yul\":1883:2009   */\n    tag_229:\n        /* \"#utility.yul\":1920:1927   */\n      0x00\n        /* \"#utility.yul\":1960:2002   */\n      0xffffffffffffffffffffffffffffffffffffffff\n        /* \"#utility.yul\":1953:1958   */\n      dup3\n        /* \"#utility.yul\":1949:2003   */\n      and\n        /* \"#utility.yul\":1938:2003   */\n      swap1\n      pop\n        /* \"#utility.yul\":1883:2009   */\n      swap2\n      swap1\n      pop\n      jump\t// out\n        /* \"#utility.yul\":2015:2111   */\n    tag_230:\n        /* \"#utility.yul\":2052:2059   */\n      0x00\n        /* \"#utility.yul\":2081:2105   */\n      tag_291\n        /* \"#utility.yul\":2099:2104   */\n      dup3\n        /* \"#utility.yul\":2081:2105   */\n      tag_229\n      jump\t// in\n    tag_291:\n        /* \"#utility.yul\":2070:2105   */\n      swap1\n      pop\n        /* \"#utility.yul\":2015:2111   */\n      swap2\n      swap1\n      pop\n      jump\t// out\n        /* \"#utility.yul\":2117:2235   */\n    tag_231:\n        /* \"#utility.yul\":2204:2228   */\n      tag_293\n        /* \"#utility.yul\":2222:2227   */\n      dup2\n        /* \"#utility.yul\":2204:2228   */\n      tag_230\n      jump\t// in\n    tag_293:\n        /* \"#utility.yul\":2199:2202   */\n      dup3\n        /* \"#utility.yul\":2192:2229   */\n      mstore\n        /* \"#utility.yul\":2117:2235   */\n      pop\n      pop\n      jump\t// out\n        /* \"#utility.yul\":2241:2331   */\n    tag_232:\n        /* \"#utility.yul\":2275:2282   */\n      0x00\n        /* \"#utility.yul\":2318:2323   */\n      dup2\n        /* \"#utility.yul\":2311:2324   */\n      iszero\n        /* \"#utility.yul\":2304:2325   */\n      iszero\n        /* \"#utility.yul\":2293:2325   */\n      swap1\n      pop\n        /* \"#utility.yul\":2241:2331   */\n      swap2\n      swap1\n      pop\n      jump\t// out\n        /* \"#utility.yul\":2337:2446   */\n    tag_233:\n        /* \"#utility.yul\":2418:2439   */\n      tag_296\n        /* \"#utility.yul\":2433:2438   */\n      dup2\n        /* \"#utility.yul\":2418:2439   */\n      tag_232\n      jump\t// in\n    tag_296:\n        /* \"#utility.yul\":2413:2416   */\n      dup3\n        /* \"#utility.yul\":2406:2440   */\n      mstore\n        /* \"#utility.yul\":2337:2446   */\n      pop\n      pop\n      jump\t// out\n        /* \"#utility.yul\":2452:3231   */\n    tag_28:\n        /* \"#utility.yul\":2687:2691   */\n      0x00\n        /* \"#utility.yul\":2725:2728   */\n      0xc0\n        /* \"#utility.yul\":2714:2723   */\n      dup3\n        /* \"#utility.yul\":2710:2729   */\n      add\n        /* \"#utility.yul\":2702:2729   */\n      swap1\n      pop\n        /* \"#utility.yul\":2739:2810   */\n      tag_298\n        /* \"#utility.yul\":2807:2808   */\n      0x00\n        /* \"#utility.yul\":2796:2805   */\n      dup4\n        /* \"#utility.yul\":2792:2809   */\n      add\n        /* \"#utility.yul\":2783:2789   */\n      dup10\n        /* \"#utility.yul\":2739:2810   */\n      tag_224\n      jump\t// in\n    tag_298:\n        /* \"#utility.yul\":2820:2900   */\n      tag_299\n        /* \"#utility.yul\":2896:2898   */\n      0x20\n        /* \"#utility.yul\":2885:2894   */\n      dup4\n        /* \"#utility.yul\":2881:2899   */\n      add\n        /* \"#utility.yul\":2872:2878   */\n      dup9\n        /* \"#utility.yul\":2820:2900   */\n      tag_228\n      jump\t// in\n    tag_299:\n        /* \"#utility.yul\":2910:2982   */\n      tag_300\n        /* \"#utility.yul\":2978:2980   */\n      0x40\n        /* \"#utility.yul\":2967:2976   */\n      dup4\n        /* \"#utility.yul\":2963:2981   */\n      add\n        /* \"#utility.yul\":2954:2960   */\n      dup8\n        /* \"#utility.yul\":2910:2982   */\n      tag_231\n      jump\t// in\n    tag_300:\n        /* \"#utility.yul\":2992:3064   */\n      tag_301\n        /* \"#utility.yul\":3060:3062   */\n      0x60\n        /* \"#utility.yul\":3049:3058   */\n      dup4\n        /* \"#utility.yul\":3045:3063   */\n      add\n        /* \"#utility.yul\":3036:3042   */\n      dup7\n        /* \"#utility.yul\":2992:3064   */\n      tag_224\n      jump\t// in\n    tag_301:\n        /* \"#utility.yul\":3074:3147   */\n      tag_302\n        /* \"#utility.yul\":3142:3145   */\n      0x80\n        /* \"#utility.yul\":3131:3140   */\n      dup4\n        /* \"#utility.yul\":3127:3146   */\n      add\n        /* \"#utility.yul\":3118:3124   */\n      dup6\n        /* \"#utility.yul\":3074:3147   */\n      tag_224\n      jump\t// in\n    tag_302:\n        /* \"#utility.yul\":3157:3224   */\n      tag_303\n        /* \"#utility.yul\":3219:3222   */\n      0xa0\n        /* \"#utility.yul\":3208:3217   */\n      dup4\n        /* \"#utility.yul\":3204:3223   */\n      add\n        /* \"#utility.yul\":3195:3201   */\n      dup5\n        /* \"#utility.yul\":3157:3224   */\n      tag_233\n      jump\t// in\n    tag_303:\n        /* \"#utility.yul\":2452:3231   */\n      swap8\n      swap7\n      pop\n      pop\n      pop\n      pop\n      pop\n      pop\n      pop\n      jump\t// out\n        /* \"#utility.yul\":3237:3459   */\n    tag_35:\n        /* \"#utility.yul\":3330:3334   */\n      0x00\n        /* \"#utility.yul\":3368:3370   */\n      0x20\n        /* \"#utility.yul\":3357:3366   */\n      dup3\n        /* \"#utility.yul\":3353:3371   */\n      add\n        /* \"#utility.yul\":3345:3371   */\n      swap1\n      pop\n        /* \"#utility.yul\":3381:3452   */\n      tag_305\n        /* \"#utility.yul\":3449:3450   */\n      0x00\n        /* \"#utility.yul\":3438:3447   */\n      dup4\n        /* \"#utility.yul\":3434:3451   */\n      add\n        /* \"#utility.yul\":3425:3431   */\n      dup5\n        /* \"#utility.yul\":3381:3452   */\n      tag_224\n      jump\t// in\n    tag_305:\n        /* \"#utility.yul\":3237:3459   */\n      swap3\n      swap2\n      pop\n      pop\n      jump\t// out\n        /* \"#utility.yul\":3465:4133   */\n    tag_40:\n        /* \"#utility.yul\":3672:3676   */\n      0x00\n        /* \"#utility.yul\":3710:3713   */\n      0xa0\n        /* \"#utility.yul\":3699:3708   */\n      dup3\n        /* \"#utility.yul\":3695:3714   */\n      add\n        /* \"#utility.yul\":3687:3714   */\n      swap1\n      pop\n        /* \"#utility.yul\":3724:3803   */\n      tag_307\n        /* \"#utility.yul\":3800:3801   */\n      0x00\n        /* \"#utility.yul\":3789:3798   */\n      dup4\n        /* \"#utility.yul\":3785:3802   */\n      add\n        /* \"#utility.yul\":3776:3782   */\n      dup9\n        /* \"#utility.yul\":3724:3803   */\n      tag_228\n      jump\t// in\n    tag_307:\n        /* \"#utility.yul\":3813:3885   */\n      tag_308\n        /* \"#utility.yul\":3881:3883   */\n      0x20\n        /* \"#utility.yul\":3870:3879   */\n      dup4\n        /* \"#utility.yul\":3866:3884   */\n      add\n        /* \"#utility.yul\":3857:3863   */\n      dup8\n        /* \"#utility.yul\":3813:3885   */\n      tag_231\n      jump\t// in\n    tag_308:\n        /* \"#utility.yul\":3895:3967   */\n      tag_309\n        /* \"#utility.yul\":3963:3965   */\n      0x40\n        /* \"#utility.yul\":3952:3961   */\n      dup4\n        /* \"#utility.yul\":3948:3966   */\n      add\n        /* \"#utility.yul\":3939:3945   */\n      dup7\n        /* \"#utility.yul\":3895:3967   */\n      tag_224\n      jump\t// in\n    tag_309:\n        /* \"#utility.yul\":3977:4049   */\n      tag_310\n        /* \"#utility.yul\":4045:4047   */\n      0x60\n        /* \"#utility.yul\":4034:4043   */\n      dup4\n        /* \"#utility.yul\":4030:4048   */\n      add\n        /* \"#utility.yul\":4021:4027   */\n      dup6\n        /* \"#utility.yul\":3977:4049   */\n      tag_224\n      jump\t// in\n    tag_310:\n        /* \"#utility.yul\":4059:4126   */\n      tag_311\n        /* \"#utility.yul\":4121:4124   */\n      0x80\n        /* \"#utility.yul\":4110:4119   */\n      dup4\n        /* \"#utility.yul\":4106:4125   */\n      add\n        /* \"#utility.yul\":4097:4103   */\n      dup5\n        /* \"#utility.yul\":4059:4126   */\n      tag_233\n      jump\t// in\n    tag_311:\n        /* \"#utility.yul\":3465:4133   */\n      swap7\n      swap6\n      pop\n      pop\n      pop\n      pop\n      pop\n      pop\n      jump\t// out\n        /* \"#utility.yul\":4139:4261   */\n    tag_234:\n        /* \"#utility.yul\":4212:4236   */\n      tag_313\n        /* \"#utility.yul\":4230:4235   */\n      dup2\n        /* \"#utility.yul\":4212:4236   */\n      tag_230\n      jump\t// in\n    tag_313:\n        /* \"#utility.yul\":4205:4210   */\n      dup2\n        /* \"#utility.yul\":4202:4237   */\n      eq\n        /* \"#utility.yul\":4192:4255   */\n      tag_314\n      jumpi\n        /* \"#utility.yul\":4251:4252   */\n      0x00\n        /* \"#utility.yul\":4248:4249   */\n      0x00\n        /* \"#utility.yul\":4241:4253   */\n      revert\n        /* \"#utility.yul\":4192:4255   */\n    tag_314:\n        /* \"#utility.yul\":4139:4261   */\n      pop\n      jump\t// out\n        /* \"#utility.yul\":4267:4406   */\n    tag_235:\n        /* \"#utility.yul\":4313:4318   */\n      0x00\n        /* \"#utility.yul\":4351:4357   */\n      dup2\n        /* \"#utility.yul\":4338:4358   */\n      calldataload\n        /* \"#utility.yul\":4329:4358   */\n      swap1\n      pop\n        /* \"#utility.yul\":4367:4400   */\n      tag_316\n        /* \"#utility.yul\":4394:4399   */\n      dup2\n        /* \"#utility.yul\":4367:4400   */\n      tag_234\n      jump\t// in\n    tag_316:\n        /* \"#utility.yul\":4267:4406   */\n      swap3\n      swap2\n      pop\n      pop\n      jump\t// out\n        /* \"#utility.yul\":4412:4886   */\n    tag_43:\n        /* \"#utility.yul\":4480:4486   */\n      0x00\n        /* \"#utility.yul\":4488:4494   */\n      0x00\n        /* \"#utility.yul\":4537:4539   */\n      0x40\n        /* \"#utility.yul\":4525:4534   */\n      dup4\n        /* \"#utility.yul\":4516:4523   */\n      dup6\n        /* \"#utility.yul\":4512:4535   */\n      sub\n        /* \"#utility.yul\":4508:4540   */\n      slt\n        /* \"#utility.yul\":4505:4624   */\n      iszero\n      tag_318\n      jumpi\n        /* \"#utility.yul\":4543:4622   */\n      tag_319\n      tag_219\n      jump\t// in\n    tag_319:\n        /* \"#utility.yul\":4505:4624   */\n    tag_318:\n        /* \"#utility.yul\":4663:4664   */\n      0x00\n        /* \"#utility.yul\":4688:4741   */\n      tag_320\n        /* \"#utility.yul\":4733:4740   */\n      dup6\n        /* \"#utility.yul\":4724:4730   */\n      dup3\n        /* \"#utility.yul\":4713:4722   */\n      dup7\n        /* \"#utility.yul\":4709:4731   */\n      add\n        /* \"#utility.yul\":4688:4741   */\n      tag_223\n      jump\t// in\n    tag_320:\n        /* \"#utility.yul\":4678:4741   */\n      swap3\n      pop\n        /* \"#utility.yul\":4634:4751   */\n      pop\n        /* \"#utility.yul\":4790:4792   */\n      0x20\n        /* \"#utility.yul\":4816:4869   */\n      tag_321\n        /* \"#utility.yul\":4861:4868   */\n      dup6\n        /* \"#utility.yul\":4852:4858   */\n      dup3\n        /* \"#utility.yul\":4841:4850   */\n      dup7\n        /* \"#utility.yul\":4837:4859   */\n      add\n        /* \"#utility.yul\":4816:4869   */\n      tag_235\n      jump\t// in\n    tag_321:\n        /* \"#utility.yul\":4806:4869   */\n      swap2\n      pop\n        /* \"#utility.yul\":4761:4879   */\n      pop\n        /* \"#utility.yul\":4412:4886   */\n      swap3\n      pop\n      swap3\n      swap1\n      pop\n      jump\t// out\n        /* \"#utility.yul\":4892:5102   */\n    tag_46:\n        /* \"#utility.yul\":4979:4983   */\n      0x00\n        /* \"#utility.yul\":5017:5019   */\n      0x20\n        /* \"#utility.yul\":5006:5015   */\n      dup3\n        /* \"#utility.yul\":5002:5020   */\n      add\n        /* \"#utility.yul\":4994:5020   */\n      swap1\n      pop\n        /* \"#utility.yul\":5030:5095   */\n      tag_323\n        /* \"#utility.yul\":5092:5093   */\n      0x00\n        /* \"#utility.yul\":5081:5090   */\n      dup4\n        /* \"#utility.yul\":5077:5094   */\n      add\n        /* \"#utility.yul\":5068:5074   */\n      dup5\n        /* \"#utility.yul\":5030:5095   */\n      tag_233\n      jump\t// in\n    tag_323:\n        /* \"#utility.yul\":4892:5102   */\n      swap3\n      swap2\n      pop\n      pop\n      jump\t// out\n        /* \"#utility.yul\":5108:5330   */\n    tag_55:\n        /* \"#utility.yul\":5201:5205   */\n      0x00\n        /* \"#utility.yul\":5239:5241   */\n      0x20\n        /* \"#utility.yul\":5228:5237   */\n      dup3\n        /* \"#utility.yul\":5224:5242   */\n      add\n        /* \"#utility.yul\":5216:5242   */\n      swap1\n      pop\n        /* \"#utility.yul\":5252:5323   */\n      tag_325\n        /* \"#utility.yul\":5320:5321   */\n      0x00\n        /* \"#utility.yul\":5309:5318   */\n      dup4\n        /* \"#utility.yul\":5305:5322   */\n      add\n        /* \"#utility.yul\":5296:5302   */\n      dup5\n        /* \"#utility.yul\":5252:5323   */\n      tag_231\n      jump\t// in\n    tag_325:\n        /* \"#utility.yul\":5108:5330   */\n      swap3\n      swap2\n      pop\n      pop\n      jump\t// out\n        /* \"#utility.yul\":5336:5445   */\n    tag_236:\n        /* \"#utility.yul\":5419:5420   */\n      0x04\n        /* \"#utility.yul\":5412:5417   */\n      dup2\n        /* \"#utility.yul\":5409:5421   */\n      lt\n        /* \"#utility.yul\":5399:5439   */\n      tag_327\n      jumpi\n        /* \"#utility.yul\":5435:5436   */\n      0x00\n        /* \"#utility.yul\":5432:5433   */\n      0x00\n        /* \"#utility.yul\":5425:5437   */\n      revert\n        /* \"#utility.yul\":5399:5439   */\n    tag_327:\n        /* \"#utility.yul\":5336:5445   */\n      pop\n      jump\t// out\n        /* \"#utility.yul\":5451:5610   */\n    tag_237:\n        /* \"#utility.yul\":5507:5512   */\n      0x00\n        /* \"#utility.yul\":5545:5551   */\n      dup2\n        /* \"#utility.yul\":5532:5552   */\n      calldataload\n        /* \"#utility.yul\":5523:5552   */\n      swap1\n      pop\n        /* \"#utility.yul\":5561:5604   */\n      tag_329\n        /* \"#utility.yul\":5598:5603   */\n      dup2\n        /* \"#utility.yul\":5561:5604   */\n      tag_236\n      jump\t// in\n    tag_329:\n        /* \"#utility.yul\":5451:5610   */\n      swap3\n      swap2\n      pop\n      pop\n      jump\t// out\n        /* \"#utility.yul\":5616:6110   */\n    tag_58:\n        /* \"#utility.yul\":5694:5700   */\n      0x00\n        /* \"#utility.yul\":5702:5708   */\n      0x00\n        /* \"#utility.yul\":5751:5753   */\n      0x40\n        /* \"#utility.yul\":5739:5748   */\n      dup4\n        /* \"#utility.yul\":5730:5737   */\n      dup6\n        /* \"#utility.yul\":5726:5749   */\n      sub\n        /* \"#utility.yul\":5722:5754   */\n      slt\n        /* \"#utility.yul\":5719:5838   */\n      iszero\n      tag_331\n      jumpi\n        /* \"#utility.yul\":5757:5836   */\n      tag_332\n      tag_219\n      jump\t// in\n    tag_332:\n        /* \"#utility.yul\":5719:5838   */\n    tag_331:\n        /* \"#utility.yul\":5877:5878   */\n      0x00\n        /* \"#utility.yul\":5902:5965   */\n      tag_333\n        /* \"#utility.yul\":5957:5964   */\n      dup6\n        /* \"#utility.yul\":5948:5954   */\n      dup3\n        /* \"#utility.yul\":5937:5946   */\n      dup7\n        /* \"#utility.yul\":5933:5955   */\n      add\n        /* \"#utility.yul\":5902:5965   */\n      tag_237\n      jump\t// in\n    tag_333:\n        /* \"#utility.yul\":5892:5965   */\n      swap3\n      pop\n        /* \"#utility.yul\":5848:5975   */\n      pop\n        /* \"#utility.yul\":6014:6016   */\n      0x20\n        /* \"#utility.yul\":6040:6093   */\n      tag_334\n        /* \"#utility.yul\":6085:6092   */\n      dup6\n        /* \"#utility.yul\":6076:6082   */\n      dup3\n        /* \"#utility.yul\":6065:6074   */\n      dup7\n        /* \"#utility.yul\":6061:6083   */\n      add\n        /* \"#utility.yul\":6040:6093   */\n      tag_235\n      jump\t// in\n    tag_334:\n        /* \"#utility.yul\":6030:6093   */\n      swap2\n      pop\n        /* \"#utility.yul\":5985:6103   */\n      pop\n        /* \"#utility.yul\":5616:6110   */\n      swap3\n      pop\n      swap3\n      swap1\n      pop\n      jump\t// out\n        /* \"#utility.yul\":6116:6445   */\n    tag_69:\n        /* \"#utility.yul\":6175:6181   */\n      0x00\n        /* \"#utility.yul\":6224:6226   */\n      0x20\n        /* \"#utility.yul\":6212:6221   */\n      dup3\n        /* \"#utility.yul\":6203:6210   */\n      dup5\n        /* \"#utility.yul\":6199:6222   */\n      sub\n        /* \"#utility.yul\":6195:6227   */\n      slt\n        /* \"#utility.yul\":6192:6311   */\n      iszero\n      tag_336\n      jumpi\n        /* \"#utility.yul\":6230:6309   */\n      tag_337\n      tag_219\n      jump\t// in\n    tag_337:\n        /* \"#utility.yul\":6192:6311   */\n    tag_336:\n        /* \"#utility.yul\":6350:6351   */\n      0x00\n        /* \"#utility.yul\":6375:6428   */\n      tag_338\n        /* \"#utility.yul\":6420:6427   */\n      dup5\n        /* \"#utility.yul\":6411:6417   */\n      dup3\n        /* \"#utility.yul\":6400:6409   */\n      dup6\n        /* \"#utility.yul\":6396:6418   */\n      add\n        /* \"#utility.yul\":6375:6428   */\n      tag_235\n      jump\t// in\n    tag_338:\n        /* \"#utility.yul\":6365:6428   */\n      swap2\n      pop\n        /* \"#utility.yul\":6321:6438   */\n      pop\n        /* \"#utility.yul\":6116:6445   */\n      swap3\n      swap2\n      pop\n      pop\n      jump\t// out\n        /* \"#utility.yul\":6451:6620   */\n    tag_238:\n        /* \"#utility.yul\":6535:6546   */\n      0x00\n        /* \"#utility.yul\":6569:6575   */\n      dup3\n        /* \"#utility.yul\":6564:6567   */\n      dup3\n        /* \"#utility.yul\":6557:6576   */\n      mstore\n        /* \"#utility.yul\":6609:6613   */\n      0x20\n        /* \"#utility.yul\":6604:6607   */\n      dup3\n        /* \"#utility.yul\":6600:6614   */\n      add\n        /* \"#utility.yul\":6585:6614   */\n      swap1\n      pop\n        /* \"#utility.yul\":6451:6620   */\n      swap3\n      swap2\n      pop\n      pop\n      jump\t// out\n        /* \"#utility.yul\":6626:6790   */\n    tag_239:\n        /* \"#utility.yul\":6766:6782   */\n      0x4e6f74206120676f7665726e6f72000000000000000000000000000000000000\n        /* \"#utility.yul\":6762:6763   */\n      0x00\n        /* \"#utility.yul\":6754:6760   */\n      dup3\n        /* \"#utility.yul\":6750:6764   */\n      add\n        /* \"#utility.yul\":6743:6783   */\n      mstore\n        /* \"#utility.yul\":6626:6790   */\n      pop\n      jump\t// out\n        /* \"#utility.yul\":6796:7162   */\n    tag_240:\n        /* \"#utility.yul\":6938:6941   */\n      0x00\n        /* \"#utility.yul\":6959:7026   */\n      tag_342\n        /* \"#utility.yul\":7023:7025   */\n      0x0e\n        /* \"#utility.yul\":7018:7021   */\n      dup4\n        /* \"#utility.yul\":6959:7026   */\n      tag_238\n      jump\t// in\n    tag_342:\n        /* \"#utility.yul\":6952:7026   */\n      swap2\n      pop\n        /* \"#utility.yul\":7035:7128   */\n      tag_343\n        /* \"#utility.yul\":7124:7127   */\n      dup3\n        /* \"#utility.yul\":7035:7128   */\n      tag_239\n      jump\t// in\n    tag_343:\n        /* \"#utility.yul\":7153:7155   */\n      0x20\n        /* \"#utility.yul\":7148:7151   */\n      dup3\n        /* \"#utility.yul\":7144:7156   */\n      add\n        /* \"#utility.yul\":7137:7156   */\n      swap1\n      pop\n        /* \"#utility.yul\":6796:7162   */\n      swap2\n      swap1\n      pop\n      jump\t// out\n        /* \"#utility.yul\":7168:7587   */\n    tag_81:\n        /* \"#utility.yul\":7334:7338   */\n      0x00\n        /* \"#utility.yul\":7372:7374   */\n      0x20\n        /* \"#utility.yul\":7361:7370   */\n      dup3\n        /* \"#utility.yul\":7357:7375   */\n      add\n        /* \"#utility.yul\":7349:7375   */\n      swap1\n      pop\n        /* \"#utility.yul\":7421:7430   */\n      dup2\n        /* \"#utility.yul\":7415:7419   */\n      dup2\n        /* \"#utility.yul\":7411:7431   */\n      sub\n        /* \"#utility.yul\":7407:7408   */\n      0x00\n        /* \"#utility.yul\":7396:7405   */\n      dup4\n        /* \"#utility.yul\":7392:7409   */\n      add\n        /* \"#utility.yul\":7385:7432   */\n      mstore\n        /* \"#utility.yul\":7449:7580   */\n      tag_345\n        /* \"#utility.yul\":7575:7579   */\n      dup2\n        /* \"#utility.yul\":7449:7580   */\n      tag_240\n      jump\t// in\n    tag_345:\n        /* \"#utility.yul\":7441:7580   */\n      swap1\n      pop\n        /* \"#utility.yul\":7168:7587   */\n      swap2\n      swap1\n      pop\n      jump\t// out\n        /* \"#utility.yul\":7593:7773   */\n    tag_85:\n        /* \"#utility.yul\":7641:7718   */\n      0x4e487b7100000000000000000000000000000000000000000000000000000000\n        /* \"#utility.yul\":7638:7639   */\n      0x00\n        /* \"#utility.yul\":7631:7719   */\n      mstore\n        /* \"#utility.yul\":7738:7742   */\n      0x32\n        /* \"#utility.yul\":7735:7736   */\n      0x04\n        /* \"#utility.yul\":7728:7743   */\n      mstore\n        /* \"#utility.yul\":7762:7766   */\n      0x24\n        /* \"#utility.yul\":7759:7760   */\n      0x00\n        /* \"#utility.yul\":7752:7767   */\n      revert\n        /* \"#utility.yul\":7779:7951   */\n    tag_241:\n        /* \"#utility.yul\":7919:7943   */\n      0x476f7665726e6f7220616c726561647920766f74656400000000000000000000\n        /* \"#utility.yul\":7915:7916   */\n      0x00\n        /* \"#utility.yul\":7907:7913   */\n      dup3\n        /* \"#utility.yul\":7903:7917   */\n      add\n        /* \"#utility.yul\":7896:7944   */\n      mstore\n        /* \"#utility.yul\":7779:7951   */\n      pop\n      jump\t// out\n        /* \"#utility.yul\":7957:8323   */\n    tag_242:\n        /* \"#utility.yul\":8099:8102   */\n      0x00\n        /* \"#utility.yul\":8120:8187   */\n      tag_349\n        /* \"#utility.yul\":8184:8186   */\n      0x16\n        /* \"#utility.yul\":8179:8182   */\n      dup4\n        /* \"#utility.yul\":8120:8187   */\n      tag_238\n      jump\t// in\n    tag_349:\n        /* \"#utility.yul\":8113:8187   */\n      swap2\n      pop\n        /* \"#utility.yul\":8196:8289   */\n      tag_350\n        /* \"#utility.yul\":8285:8288   */\n      dup3\n        /* \"#utility.yul\":8196:8289   */\n      tag_241\n      jump\t// in\n    tag_350:\n        /* \"#utility.yul\":8314:8316   */\n      0x20\n        /* \"#utility.yul\":8309:8312   */\n      dup3\n        /* \"#utility.yul\":8305:8317   */\n      add\n        /* \"#utility.yul\":8298:8317   */\n      swap1\n      pop\n        /* \"#utility.yul\":7957:8323   */\n      swap2\n      swap1\n      pop\n      jump\t// out\n        /* \"#utility.yul\":8329:8748   */\n    tag_89:\n        /* \"#utility.yul\":8495:8499   */\n      0x00\n        /* \"#utility.yul\":8533:8535   */\n      0x20\n        /* \"#utility.yul\":8522:8531   */\n      dup3\n        /* \"#utility.yul\":8518:8536   */\n      add\n        /* \"#utility.yul\":8510:8536   */\n      swap1\n      pop\n        /* \"#utility.yul\":8582:8591   */\n      dup2\n        /* \"#utility.yul\":8576:8580   */\n      dup2\n        /* \"#utility.yul\":8572:8592   */\n      sub\n        /* \"#utility.yul\":8568:8569   */\n      0x00\n        /* \"#utility.yul\":8557:8566   */\n      dup4\n        /* \"#utility.yul\":8553:8570   */\n      add\n        /* \"#utility.yul\":8546:8593   */\n      mstore\n        /* \"#utility.yul\":8610:8741   */\n      tag_352\n        /* \"#utility.yul\":8736:8740   */\n      dup2\n        /* \"#utility.yul\":8610:8741   */\n      tag_242\n      jump\t// in\n    tag_352:\n        /* \"#utility.yul\":8602:8741   */\n      swap1\n      pop\n        /* \"#utility.yul\":8329:8748   */\n      swap2\n      swap1\n      pop\n      jump\t// out\n        /* \"#utility.yul\":8754:8929   */\n    tag_243:\n        /* \"#utility.yul\":8894:8921   */\n      0x50726f706f73616c20616c726561647920657865637574656400000000000000\n        /* \"#utility.yul\":8890:8891   */\n      0x00\n        /* \"#utility.yul\":8882:8888   */\n      dup3\n        /* \"#utility.yul\":8878:8892   */\n      add\n        /* \"#utility.yul\":8871:8922   */\n      mstore\n        /* \"#utility.yul\":8754:8929   */\n      pop\n      jump\t// out\n        /* \"#utility.yul\":8935:9301   */\n    tag_244:\n        /* \"#utility.yul\":9077:9080   */\n      0x00\n        /* \"#utility.yul\":9098:9165   */\n      tag_355\n        /* \"#utility.yul\":9162:9164   */\n      0x19\n        /* \"#utility.yul\":9157:9160   */\n      dup4\n        /* \"#utility.yul\":9098:9165   */\n      tag_238\n      jump\t// in\n    tag_355:\n        /* \"#utility.yul\":9091:9165   */\n      swap2\n      pop\n        /* \"#utility.yul\":9174:9267   */\n      tag_356\n        /* \"#utility.yul\":9263:9266   */\n      dup3\n        /* \"#utility.yul\":9174:9267   */\n      tag_243\n      jump\t// in\n    tag_356:\n        /* \"#utility.yul\":9292:9294   */\n      0x20\n        /* \"#utility.yul\":9287:9290   */\n      dup3\n        /* \"#utility.yul\":9283:9295   */\n      add\n        /* \"#utility.yul\":9276:9295   */\n      swap1\n      pop\n        /* \"#utility.yul\":8935:9301   */\n      swap2\n      swap1\n      pop\n      jump\t// out\n        /* \"#utility.yul\":9307:9726   */\n    tag_92:\n        /* \"#utility.yul\":9473:9477   */\n      0x00\n        /* \"#utility.yul\":9511:9513   */\n      0x20\n        /* \"#utility.yul\":9500:9509   */\n      dup3\n        /* \"#utility.yul\":9496:9514   */\n      add\n        /* \"#utility.yul\":9488:9514   */\n      swap1\n      pop\n        /* \"#utility.yul\":9560:9569   */\n      dup2\n        /* \"#utility.yul\":9554:9558   */\n      dup2\n        /* \"#utility.yul\":9550:9570   */\n      sub\n        /* \"#utility.yul\":9546:9547   */\n      0x00\n        /* \"#utility.yul\":9535:9544   */\n      dup4\n        /* \"#utility.yul\":9531:9548   */\n      add\n        /* \"#utility.yul\":9524:9571   */\n      mstore\n        /* \"#utility.yul\":9588:9719   */\n      tag_358\n        /* \"#utility.yul\":9714:9718   */\n      dup2\n        /* \"#utility.yul\":9588:9719   */\n      tag_244\n      jump\t// in\n    tag_358:\n        /* \"#utility.yul\":9580:9719   */\n      swap1\n      pop\n        /* \"#utility.yul\":9307:9726   */\n      swap2\n      swap1\n      pop\n      jump\t// out\n        /* \"#utility.yul\":9732:9912   */\n    tag_245:\n        /* \"#utility.yul\":9780:9857   */\n      0x4e487b7100000000000000000000000000000000000000000000000000000000\n        /* \"#utility.yul\":9777:9778   */\n      0x00\n        /* \"#utility.yul\":9770:9858   */\n      mstore\n        /* \"#utility.yul\":9877:9881   */\n      0x11\n        /* \"#utility.yul\":9874:9875   */\n      0x04\n        /* \"#utility.yul\":9867:9882   */\n      mstore\n        /* \"#utility.yul\":9901:9905   */\n      0x24\n        /* \"#utility.yul\":9898:9899   */\n      0x00\n        /* \"#utility.yul\":9891:9906   */\n      revert\n        /* \"#utility.yul\":9918:10109   */\n    tag_94:\n        /* \"#utility.yul\":9958:9961   */\n      0x00\n        /* \"#utility.yul\":9977:9997   */\n      tag_361\n        /* \"#utility.yul\":9995:9996   */\n      dup3\n        /* \"#utility.yul\":9977:9997   */\n      tag_221\n      jump\t// in\n    tag_361:\n        /* \"#utility.yul\":9972:9997   */\n      swap2\n      pop\n        /* \"#utility.yul\":10011:10031   */\n      tag_362\n        /* \"#utility.yul\":10029:10030   */\n      dup4\n        /* \"#utility.yul\":10011:10031   */\n      tag_221\n      jump\t// in\n    tag_362:\n        /* \"#utility.yul\":10006:10031   */\n      swap3\n      pop\n        /* \"#utility.yul\":10054:10055   */\n      dup3\n        /* \"#utility.yul\":10051:10052   */\n      dup3\n        /* \"#utility.yul\":10047:10056   */\n      add\n        /* \"#utility.yul\":10040:10056   */\n      swap1\n      pop\n        /* \"#utility.yul\":10075:10078   */\n      dup1\n        /* \"#utility.yul\":10072:10073   */\n      dup3\n        /* \"#utility.yul\":10069:10079   */\n      gt\n        /* \"#utility.yul\":10066:10102   */\n      iszero\n      tag_363\n      jumpi\n        /* \"#utility.yul\":10082:10100   */\n      tag_364\n      tag_245\n      jump\t// in\n    tag_364:\n        /* \"#utility.yul\":10066:10102   */\n    tag_363:\n        /* \"#utility.yul\":9918:10109   */\n      swap3\n      swap2\n      pop\n      pop\n      jump\t// out\n        /* \"#utility.yul\":10115:10295   */\n    tag_246:\n        /* \"#utility.yul\":10163:10240   */\n      0x4e487b7100000000000000000000000000000000000000000000000000000000\n        /* \"#utility.yul\":10160:10161   */\n      0x00\n        /* \"#utility.yul\":10153:10241   */\n      mstore\n        /* \"#utility.yul\":10260:10264   */\n      0x12\n        /* \"#utility.yul\":10257:10258   */\n      0x04\n        /* \"#utility.yul\":10250:10265   */\n      mstore\n        /* \"#utility.yul\":10284:10288   */\n      0x24\n        /* \"#utility.yul\":10281:10282   */\n      0x00\n        /* \"#utility.yul\":10274:10289   */\n      revert\n        /* \"#utility.yul\":10301:10486   */\n    tag_105:\n        /* \"#utility.yul\":10341:10342   */\n      0x00\n        /* \"#utility.yul\":10358:10378   */\n      tag_367\n        /* \"#utility.yul\":10376:10377   */\n      dup3\n        /* \"#utility.yul\":10358:10378   */\n      tag_221\n      jump\t// in\n    tag_367:\n        /* \"#utility.yul\":10353:10378   */\n      swap2\n      pop\n        /* \"#utility.yul\":10392:10412   */\n      tag_368\n        /* \"#utility.yul\":10410:10411   */\n      dup4\n        /* \"#utility.yul\":10392:10412   */\n      tag_221\n      jump\t// in\n    tag_368:\n        /* \"#utility.yul\":10387:10412   */\n      swap3\n      pop\n        /* \"#utility.yul\":10431:10432   */\n      dup3\n        /* \"#utility.yul\":10421:10456   */\n      tag_369\n      jumpi\n        /* \"#utility.yul\":10436:10454   */\n      tag_370\n      tag_246\n      jump\t// in\n    tag_370:\n        /* \"#utility.yul\":10421:10456   */\n    tag_369:\n        /* \"#utility.yul\":10478:10479   */\n      dup3\n        /* \"#utility.yul\":10475:10476   */\n      dup3\n        /* \"#utility.yul\":10471:10480   */\n      div\n        /* \"#utility.yul\":10466:10480   */\n      swap1\n      pop\n        /* \"#utility.yul\":10301:10486   */\n      swap3\n      swap2\n      pop\n      pop\n      jump\t// out\n        /* \"#utility.yul\":10492:10717   */\n    tag_247:\n        /* \"#utility.yul\":10632:10666   */\n      0x496e73756666696369656e7420766f74657320746f2065786563757465207072\n        /* \"#utility.yul\":10628:10629   */\n      0x00\n        /* \"#utility.yul\":10620:10626   */\n      dup3\n        /* \"#utility.yul\":10616:10630   */\n      add\n        /* \"#utility.yul\":10609:10667   */\n      mstore\n        /* \"#utility.yul\":10701:10709   */\n      0x6f706f73616c0000000000000000000000000000000000000000000000000000\n        /* \"#utility.yul\":10696:10698   */\n      0x20\n        /* \"#utility.yul\":10688:10694   */\n      dup3\n        /* \"#utility.yul\":10684:10699   */\n      add\n        /* \"#utility.yul\":10677:10710   */\n      mstore\n        /* \"#utility.yul\":10492:10717   */\n      pop\n      jump\t// out\n        /* \"#utility.yul\":10723:11089   */\n    tag_248:\n        /* \"#utility.yul\":10865:10868   */\n      0x00\n        /* \"#utility.yul\":10886:10953   */\n      tag_373\n        /* \"#utility.yul\":10950:10952   */\n      0x26\n        /* \"#utility.yul\":10945:10948   */\n      dup4\n        /* \"#utility.yul\":10886:10953   */\n      tag_238\n      jump\t// in\n    tag_373:\n        /* \"#utility.yul\":10879:10953   */\n      swap2\n      pop\n        /* \"#utility.yul\":10962:11055   */\n      tag_374\n        /* \"#utility.yul\":11051:11054   */\n      dup3\n        /* \"#utility.yul\":10962:11055   */\n      tag_247\n      jump\t// in\n    tag_374:\n        /* \"#utility.yul\":11080:11082   */\n      0x40\n        /* \"#utility.yul\":11075:11078   */\n      dup3\n        /* \"#utility.yul\":11071:11083   */\n      add\n        /* \"#utility.yul\":11064:11083   */\n      swap1\n      pop\n        /* \"#utility.yul\":10723:11089   */\n      swap2\n      swap1\n      pop\n      jump\t// out\n        /* \"#utility.yul\":11095:11514   */\n    tag_109:\n        /* \"#utility.yul\":11261:11265   */\n      0x00\n        /* \"#utility.yul\":11299:11301   */\n      0x20\n        /* \"#utility.yul\":11288:11297   */\n      dup3\n        /* \"#utility.yul\":11284:11302   */\n      add\n        /* \"#utility.yul\":11276:11302   */\n      swap1\n      pop\n        /* \"#utility.yul\":11348:11357   */\n      dup2\n        /* \"#utility.yul\":11342:11346   */\n      dup2\n        /* \"#utility.yul\":11338:11358   */\n      sub\n        /* \"#utility.yul\":11334:11335   */\n      0x00\n        /* \"#utility.yul\":11323:11332   */\n      dup4\n        /* \"#utility.yul\":11319:11336   */\n      add\n        /* \"#utility.yul\":11312:11359   */\n      mstore\n        /* \"#utility.yul\":11376:11507   */\n      tag_376\n        /* \"#utility.yul\":11502:11506   */\n      dup2\n        /* \"#utility.yul\":11376:11507   */\n      tag_248\n      jump\t// in\n    tag_376:\n        /* \"#utility.yul\":11368:11507   */\n      swap1\n      pop\n        /* \"#utility.yul\":11095:11514   */\n      swap2\n      swap1\n      pop\n      jump\t// out\n        /* \"#utility.yul\":11520:11618   */\n    tag_249:\n        /* \"#utility.yul\":11571:11577   */\n      0x00\n        /* \"#utility.yul\":11605:11610   */\n      dup2\n        /* \"#utility.yul\":11599:11611   */\n      mload\n        /* \"#utility.yul\":11589:11611   */\n      swap1\n      pop\n        /* \"#utility.yul\":11520:11618   */\n      swap2\n      swap1\n      pop\n      jump\t// out\n        /* \"#utility.yul\":11624:11771   */\n    tag_250:\n        /* \"#utility.yul\":11725:11736   */\n      0x00\n        /* \"#utility.yul\":11762:11765   */\n      dup2\n        /* \"#utility.yul\":11747:11765   */\n      swap1\n      pop\n        /* \"#utility.yul\":11624:11771   */\n      swap3\n      swap2\n      pop\n      pop\n      jump\t// out\n        /* \"#utility.yul\":11777:11916   */\n    tag_251:\n        /* \"#utility.yul\":11866:11872   */\n      dup3\n        /* \"#utility.yul\":11861:11864   */\n      dup2\n        /* \"#utility.yul\":11856:11859   */\n      dup4\n        /* \"#utility.yul\":11850:11873   */\n      mcopy\n        /* \"#utility.yul\":11907:11908   */\n      0x00\n        /* \"#utility.yul\":11898:11904   */\n      dup4\n        /* \"#utility.yul\":11893:11896   */\n      dup4\n        /* \"#utility.yul\":11889:11905   */\n      add\n        /* \"#utility.yul\":11882:11909   */\n      mstore\n        /* \"#utility.yul\":11777:11916   */\n      pop\n      pop\n      pop\n      jump\t// out\n        /* \"#utility.yul\":11922:12308   */\n    tag_252:\n        /* \"#utility.yul\":12026:12029   */\n      0x00\n        /* \"#utility.yul\":12054:12092   */\n      tag_381\n        /* \"#utility.yul\":12086:12091   */\n      dup3\n        /* \"#utility.yul\":12054:12092   */\n      tag_249\n      jump\t// in\n    tag_381:\n        /* \"#utility.yul\":12108:12196   */\n      tag_382\n        /* \"#utility.yul\":12189:12195   */\n      dup2\n        /* \"#utility.yul\":12184:12187   */\n      dup6\n        /* \"#utility.yul\":12108:12196   */\n      tag_250\n      jump\t// in\n    tag_382:\n        /* \"#utility.yul\":12101:12196   */\n      swap4\n      pop\n        /* \"#utility.yul\":12205:12270   */\n      tag_383\n        /* \"#utility.yul\":12263:12269   */\n      dup2\n        /* \"#utility.yul\":12258:12261   */\n      dup6\n        /* \"#utility.yul\":12251:12255   */\n      0x20\n        /* \"#utility.yul\":12244:12249   */\n      dup7\n        /* \"#utility.yul\":12240:12256   */\n      add\n        /* \"#utility.yul\":12205:12270   */\n      tag_251\n      jump\t// in\n    tag_383:\n        /* \"#utility.yul\":12295:12301   */\n      dup1\n        /* \"#utility.yul\":12290:12293   */\n      dup5\n        /* \"#utility.yul\":12286:12302   */\n      add\n        /* \"#utility.yul\":12279:12302   */\n      swap2\n      pop\n        /* \"#utility.yul\":12030:12308   */\n      pop\n        /* \"#utility.yul\":11922:12308   */\n      swap3\n      swap2\n      pop\n      pop\n      jump\t// out\n        /* \"#utility.yul\":12314:12585   */\n    tag_120:\n        /* \"#utility.yul\":12444:12447   */\n      0x00\n        /* \"#utility.yul\":12466:12559   */\n      tag_385\n        /* \"#utility.yul\":12555:12558   */\n      dup3\n        /* \"#utility.yul\":12546:12552   */\n      dup5\n        /* \"#utility.yul\":12466:12559   */\n      tag_252\n      jump\t// in\n    tag_385:\n        /* \"#utility.yul\":12459:12559   */\n      swap2\n      pop\n        /* \"#utility.yul\":12576:12579   */\n      dup2\n        /* \"#utility.yul\":12569:12579   */\n      swap1\n      pop\n        /* \"#utility.yul\":12314:12585   */\n      swap3\n      swap2\n      pop\n      pop\n      jump\t// out\n        /* \"#utility.yul\":12591:12761   */\n    tag_253:\n        /* \"#utility.yul\":12731:12753   */\n      0x417574686f72697a6174696f6e206661696c6564000000000000000000000000\n        /* \"#utility.yul\":12727:12728   */\n      0x00\n        /* \"#utility.yul\":12719:12725   */\n      dup3\n        /* \"#utility.yul\":12715:12729   */\n      add\n        /* \"#utility.yul\":12708:12754   */\n      mstore\n        /* \"#utility.yul\":12591:12761   */\n      pop\n      jump\t// out\n        /* \"#utility.yul\":12767:13133   */\n    tag_254:\n        /* \"#utility.yul\":12909:12912   */\n      0x00\n        /* \"#utility.yul\":12930:12997   */\n      tag_388\n        /* \"#utility.yul\":12994:12996   */\n      0x14\n        /* \"#utility.yul\":12989:12992   */\n      dup4\n        /* \"#utility.yul\":12930:12997   */\n      tag_238\n      jump\t// in\n    tag_388:\n        /* \"#utility.yul\":12923:12997   */\n      swap2\n      pop\n        /* \"#utility.yul\":13006:13099   */\n      tag_389\n        /* \"#utility.yul\":13095:13098   */\n      dup3\n        /* \"#utility.yul\":13006:13099   */\n      tag_253\n      jump\t// in\n    tag_389:\n        /* \"#utility.yul\":13124:13126   */\n      0x20\n        /* \"#utility.yul\":13119:13122   */\n      dup3\n        /* \"#utility.yul\":13115:13127   */\n      add\n        /* \"#utility.yul\":13108:13127   */\n      swap1\n      pop\n        /* \"#utility.yul\":12767:13133   */\n      swap2\n      swap1\n      pop\n      jump\t// out\n        /* \"#utility.yul\":13139:13558   */\n    tag_126:\n        /* \"#utility.yul\":13305:13309   */\n      0x00\n        /* \"#utility.yul\":13343:13345   */\n      0x20\n        /* \"#utility.yul\":13332:13341   */\n      dup3\n        /* \"#utility.yul\":13328:13346   */\n      add\n        /* \"#utility.yul\":13320:13346   */\n      swap1\n      pop\n        /* \"#utility.yul\":13392:13401   */\n      dup2\n        /* \"#utility.yul\":13386:13390   */\n      dup2\n        /* \"#utility.yul\":13382:13402   */\n      sub\n        /* \"#utility.yul\":13378:13379   */\n      0x00\n        /* \"#utility.yul\":13367:13376   */\n      dup4\n        /* \"#utility.yul\":13363:13380   */\n      add\n        /* \"#utility.yul\":13356:13403   */\n      mstore\n        /* \"#utility.yul\":13420:13551   */\n      tag_391\n        /* \"#utility.yul\":13546:13550   */\n      dup2\n        /* \"#utility.yul\":13420:13551   */\n      tag_254\n      jump\t// in\n    tag_391:\n        /* \"#utility.yul\":13412:13551   */\n      swap1\n      pop\n        /* \"#utility.yul\":13139:13558   */\n      swap2\n      swap1\n      pop\n      jump\t// out\n        /* \"#utility.yul\":13564:13731   */\n    tag_255:\n        /* \"#utility.yul\":13704:13723   */\n      0x5265766f636174696f6e206661696c6564000000000000000000000000000000\n        /* \"#utility.yul\":13700:13701   */\n      0x00\n        /* \"#utility.yul\":13692:13698   */\n      dup3\n        /* \"#utility.yul\":13688:13702   */\n      add\n        /* \"#utility.yul\":13681:13724   */\n      mstore\n        /* \"#utility.yul\":13564:13731   */\n      pop\n      jump\t// out\n        /* \"#utility.yul\":13737:14103   */\n    tag_256:\n        /* \"#utility.yul\":13879:13882   */\n      0x00\n        /* \"#utility.yul\":13900:13967   */\n      tag_394\n        /* \"#utility.yul\":13964:13966   */\n      0x11\n        /* \"#utility.yul\":13959:13962   */\n      dup4\n        /* \"#utility.yul\":13900:13967   */\n      tag_238\n      jump\t// in\n    tag_394:\n        /* \"#utility.yul\":13893:13967   */\n      swap2\n      pop\n        /* \"#utility.yul\":13976:14069   */\n      tag_395\n        /* \"#utility.yul\":14065:14068   */\n      dup3\n        /* \"#utility.yul\":13976:14069   */\n      tag_255\n      jump\t// in\n    tag_395:\n        /* \"#utility.yul\":14094:14096   */\n      0x20\n        /* \"#utility.yul\":14089:14092   */\n      dup3\n        /* \"#utility.yul\":14085:14097   */\n      add\n        /* \"#utility.yul\":14078:14097   */\n      swap1\n      pop\n        /* \"#utility.yul\":13737:14103   */\n      swap2\n      swap1\n      pop\n      jump\t// out\n        /* \"#utility.yul\":14109:14528   */\n    tag_140:\n        /* \"#utility.yul\":14275:14279   */\n      0x00\n        /* \"#utility.yul\":14313:14315   */\n      0x20\n        /* \"#utility.yul\":14302:14311   */\n      dup3\n        /* \"#utility.yul\":14298:14316   */\n      add\n        /* \"#utility.yul\":14290:14316   */\n      swap1\n      pop\n        /* \"#utility.yul\":14362:14371   */\n      dup2\n        /* \"#utility.yul\":14356:14360   */\n      dup2\n        /* \"#utility.yul\":14352:14372   */\n      sub\n        /* \"#utility.yul\":14348:14349   */\n      0x00\n        /* \"#utility.yul\":14337:14346   */\n      dup4\n        /* \"#utility.yul\":14333:14350   */\n      add\n        /* \"#utility.yul\":14326:14373   */\n      mstore\n        /* \"#utility.yul\":14390:14521   */\n      tag_397\n        /* \"#utility.yul\":14516:14520   */\n      dup2\n        /* \"#utility.yul\":14390:14521   */\n      tag_256\n      jump\t// in\n    tag_397:\n        /* \"#utility.yul\":14382:14521   */\n      swap1\n      pop\n        /* \"#utility.yul\":14109:14528   */\n      swap2\n      swap1\n      pop\n      jump\t// out\n        /* \"#utility.yul\":14534:14712   */\n    tag_257:\n        /* \"#utility.yul\":14674:14704   */\n      0x54617267657420697320616c7265616479206120676f7665726e6f7200000000\n        /* \"#utility.yul\":14670:14671   */\n      0x00\n        /* \"#utility.yul\":14662:14668   */\n      dup3\n        /* \"#utility.yul\":14658:14672   */\n      add\n        /* \"#utility.yul\":14651:14705   */\n      mstore\n        /* \"#utility.yul\":14534:14712   */\n      pop\n      jump\t// out\n        /* \"#utility.yul\":14718:15084   */\n    tag_258:\n        /* \"#utility.yul\":14860:14863   */\n      0x00\n        /* \"#utility.yul\":14881:14948   */\n      tag_400\n        /* \"#utility.yul\":14945:14947   */\n      0x1c\n        /* \"#utility.yul\":14940:14943   */\n      dup4\n        /* \"#utility.yul\":14881:14948   */\n      tag_238\n      jump\t// in\n    tag_400:\n        /* \"#utility.yul\":14874:14948   */\n      swap2\n      pop\n        /* \"#utility.yul\":14957:15050   */\n      tag_401\n        /* \"#utility.yul\":15046:15049   */\n      dup3\n        /* \"#utility.yul\":14957:15050   */\n      tag_257\n      jump\t// in\n    tag_401:\n        /* \"#utility.yul\":15075:15077   */\n      0x20\n        /* \"#utility.yul\":15070:15073   */\n      dup3\n        /* \"#utility.yul\":15066:15078   */\n      add\n        /* \"#utility.yul\":15059:15078   */\n      swap1\n      pop\n        /* \"#utility.yul\":14718:15084   */\n      swap2\n      swap1\n      pop\n      jump\t// out\n        /* \"#utility.yul\":15090:15509   */\n    tag_149:\n        /* \"#utility.yul\":15256:15260   */\n      0x00\n        /* \"#utility.yul\":15294:15296   */\n      0x20\n        /* \"#utility.yul\":15283:15292   */\n      dup3\n        /* \"#utility.yul\":15279:15297   */\n      add\n        /* \"#utility.yul\":15271:15297   */\n      swap1\n      pop\n        /* \"#utility.yul\":15343:15352   */\n      dup2\n        /* \"#utility.yul\":15337:15341   */\n      dup2\n        /* \"#utility.yul\":15333:15353   */\n      sub\n        /* \"#utility.yul\":15329:15330   */\n      0x00\n        /* \"#utility.yul\":15318:15327   */\n      dup4\n        /* \"#utility.yul\":15314:15331   */\n      add\n        /* \"#utility.yul\":15307:15354   */\n      mstore\n        /* \"#utility.yul\":15371:15502   */\n      tag_403\n        /* \"#utility.yul\":15497:15501   */\n      dup2\n        /* \"#utility.yul\":15371:15502   */\n      tag_258\n      jump\t// in\n    tag_403:\n        /* \"#utility.yul\":15363:15502   */\n      swap1\n      pop\n        /* \"#utility.yul\":15090:15509   */\n      swap2\n      swap1\n      pop\n      jump\t// out\n        /* \"#utility.yul\":15515:15740   */\n    tag_259:\n        /* \"#utility.yul\":15655:15689   */\n      0x54776f20676f7665726e6f72732063616e6e6f742072656d6f76652065616368\n        /* \"#utility.yul\":15651:15652   */\n      0x00\n        /* \"#utility.yul\":15643:15649   */\n      dup3\n        /* \"#utility.yul\":15639:15653   */\n      add\n        /* \"#utility.yul\":15632:15690   */\n      mstore\n        /* \"#utility.yul\":15724:15732   */\n      0x206f746865720000000000000000000000000000000000000000000000000000\n        /* \"#utility.yul\":15719:15721   */\n      0x20\n        /* \"#utility.yul\":15711:15717   */\n      dup3\n        /* \"#utility.yul\":15707:15722   */\n      add\n        /* \"#utility.yul\":15700:15733   */\n      mstore\n        /* \"#utility.yul\":15515:15740   */\n      pop\n      jump\t// out\n        /* \"#utility.yul\":15746:16112   */\n    tag_260:\n        /* \"#utility.yul\":15888:15891   */\n      0x00\n        /* \"#utility.yul\":15909:15976   */\n      tag_406\n        /* \"#utility.yul\":15973:15975   */\n      0x26\n        /* \"#utility.yul\":15968:15971   */\n      dup4\n        /* \"#utility.yul\":15909:15976   */\n      tag_238\n      jump\t// in\n    tag_406:\n        /* \"#utility.yul\":15902:15976   */\n      swap2\n      pop\n        /* \"#utility.yul\":15985:16078   */\n      tag_407\n        /* \"#utility.yul\":16074:16077   */\n      dup3\n        /* \"#utility.yul\":15985:16078   */\n      tag_259\n      jump\t// in\n    tag_407:\n        /* \"#utility.yul\":16103:16105   */\n      0x40\n        /* \"#utility.yul\":16098:16101   */\n      dup3\n        /* \"#utility.yul\":16094:16106   */\n      add\n        /* \"#utility.yul\":16087:16106   */\n      swap1\n      pop\n        /* \"#utility.yul\":15746:16112   */\n      swap2\n      swap1\n      pop\n      jump\t// out\n        /* \"#utility.yul\":16118:16537   */\n    tag_161:\n        /* \"#utility.yul\":16284:16288   */\n      0x00\n        /* \"#utility.yul\":16322:16324   */\n      0x20\n        /* \"#utility.yul\":16311:16320   */\n      dup3\n        /* \"#utility.yul\":16307:16325   */\n      add\n        /* \"#utility.yul\":16299:16325   */\n      swap1\n      pop\n        /* \"#utility.yul\":16371:16380   */\n      dup2\n        /* \"#utility.yul\":16365:16369   */\n      dup2\n        /* \"#utility.yul\":16361:16381   */\n      sub\n        /* \"#utility.yul\":16357:16358   */\n      0x00\n        /* \"#utility.yul\":16346:16355   */\n      dup4\n        /* \"#utility.yul\":16342:16359   */\n      add\n        /* \"#utility.yul\":16335:16382   */\n      mstore\n        /* \"#utility.yul\":16399:16530   */\n      tag_409\n        /* \"#utility.yul\":16525:16529   */\n      dup2\n        /* \"#utility.yul\":16399:16530   */\n      tag_260\n      jump\t// in\n    tag_409:\n        /* \"#utility.yul\":16391:16530   */\n      swap1\n      pop\n        /* \"#utility.yul\":16118:16537   */\n      swap2\n      swap1\n      pop\n      jump\t// out\n        /* \"#utility.yul\":16543:16737   */\n    tag_170:\n        /* \"#utility.yul\":16583:16587   */\n      0x00\n        /* \"#utility.yul\":16603:16623   */\n      tag_411\n        /* \"#utility.yul\":16621:16622   */\n      dup3\n        /* \"#utility.yul\":16603:16623   */\n      tag_221\n      jump\t// in\n    tag_411:\n        /* \"#utility.yul\":16598:16623   */\n      swap2\n      pop\n        /* \"#utility.yul\":16637:16657   */\n      tag_412\n        /* \"#utility.yul\":16655:16656   */\n      dup4\n        /* \"#utility.yul\":16637:16657   */\n      tag_221\n      jump\t// in\n    tag_412:\n        /* \"#utility.yul\":16632:16657   */\n      swap3\n      pop\n        /* \"#utility.yul\":16681:16682   */\n      dup3\n        /* \"#utility.yul\":16678:16679   */\n      dup3\n        /* \"#utility.yul\":16674:16683   */\n      sub\n        /* \"#utility.yul\":16666:16683   */\n      swap1\n      pop\n        /* \"#utility.yul\":16705:16706   */\n      dup2\n        /* \"#utility.yul\":16699:16703   */\n      dup2\n        /* \"#utility.yul\":16696:16707   */\n      gt\n        /* \"#utility.yul\":16693:16730   */\n      iszero\n      tag_413\n      jumpi\n        /* \"#utility.yul\":16710:16728   */\n      tag_414\n      tag_245\n      jump\t// in\n    tag_414:\n        /* \"#utility.yul\":16693:16730   */\n    tag_413:\n        /* \"#utility.yul\":16543:16737   */\n      swap3\n      swap2\n      pop\n      pop\n      jump\t// out\n        /* \"#utility.yul\":16743:16923   */\n    tag_179:\n        /* \"#utility.yul\":16791:16868   */\n      0x4e487b7100000000000000000000000000000000000000000000000000000000\n        /* \"#utility.yul\":16788:16789   */\n      0x00\n        /* \"#utility.yul\":16781:16869   */\n      mstore\n        /* \"#utility.yul\":16888:16892   */\n      0x31\n        /* \"#utility.yul\":16885:16886   */\n      0x04\n        /* \"#utility.yul\":16878:16893   */\n      mstore\n        /* \"#utility.yul\":16912:16916   */\n      0x24\n        /* \"#utility.yul\":16909:16910   */\n      0x00\n        /* \"#utility.yul\":16902:16917   */\n      revert\n        /* \"#utility.yul\":16929:17277   */\n    tag_208:\n        /* \"#utility.yul\":17058:17062   */\n      0x00\n        /* \"#utility.yul\":17096:17098   */\n      0x40\n        /* \"#utility.yul\":17085:17094   */\n      dup3\n        /* \"#utility.yul\":17081:17099   */\n      add\n        /* \"#utility.yul\":17073:17099   */\n      swap1\n      pop\n        /* \"#utility.yul\":17109:17188   */\n      tag_417\n        /* \"#utility.yul\":17185:17186   */\n      0x00\n        /* \"#utility.yul\":17174:17183   */\n      dup4\n        /* \"#utility.yul\":17170:17187   */\n      add\n        /* \"#utility.yul\":17161:17167   */\n      dup6\n        /* \"#utility.yul\":17109:17188   */\n      tag_228\n      jump\t// in\n    tag_417:\n        /* \"#utility.yul\":17198:17270   */\n      tag_418\n        /* \"#utility.yul\":17266:17268   */\n      0x20\n        /* \"#utility.yul\":17255:17264   */\n      dup4\n        /* \"#utility.yul\":17251:17269   */\n      add\n        /* \"#utility.yul\":17242:17248   */\n      dup5\n        /* \"#utility.yul\":17198:17270   */\n      tag_231\n      jump\t// in\n    tag_418:\n        /* \"#utility.yul\":16929:17277   */\n      swap4\n      swap3\n      pop\n      pop\n      pop\n      jump\t// out\n        /* \"#utility.yul\":17283:17452   */\n    tag_261:\n        /* \"#utility.yul\":17423:17444   */\n      0x4164647265737320616c72656164792073657400000000000000000000000000\n        /* \"#utility.yul\":17419:17420   */\n      0x00\n        /* \"#utility.yul\":17411:17417   */\n      dup3\n        /* \"#utility.yul\":17407:17421   */\n      add\n        /* \"#utility.yul\":17400:17445   */\n      mstore\n        /* \"#utility.yul\":17283:17452   */\n      pop\n      jump\t// out\n        /* \"#utility.yul\":17458:17824   */\n    tag_262:\n        /* \"#utility.yul\":17600:17603   */\n      0x00\n        /* \"#utility.yul\":17621:17688   */\n      tag_421\n        /* \"#utility.yul\":17685:17687   */\n      0x13\n        /* \"#utility.yul\":17680:17683   */\n      dup4\n        /* \"#utility.yul\":17621:17688   */\n      tag_238\n      jump\t// in\n    tag_421:\n        /* \"#utility.yul\":17614:17688   */\n      swap2\n      pop\n        /* \"#utility.yul\":17697:17790   */\n      tag_422\n        /* \"#utility.yul\":17786:17789   */\n      dup3\n        /* \"#utility.yul\":17697:17790   */\n      tag_261\n      jump\t// in\n    tag_422:\n        /* \"#utility.yul\":17815:17817   */\n      0x20\n        /* \"#utility.yul\":17810:17813   */\n      dup3\n        /* \"#utility.yul\":17806:17818   */\n      add\n        /* \"#utility.yul\":17799:17818   */\n      swap1\n      pop\n        /* \"#utility.yul\":17458:17824   */\n      swap2\n      swap1\n      pop\n      jump\t// out\n        /* \"#utility.yul\":17830:18249   */\n    tag_216:\n        /* \"#utility.yul\":17996:18000   */\n      0x00\n        /* \"#utility.yul\":18034:18036   */\n      0x20\n        /* \"#utility.yul\":18023:18032   */\n      dup3\n        /* \"#utility.yul\":18019:18037   */\n      add\n        /* \"#utility.yul\":18011:18037   */\n      swap1\n      pop\n        /* \"#utility.yul\":18083:18092   */\n      dup2\n        /* \"#utility.yul\":18077:18081   */\n      dup2\n        /* \"#utility.yul\":18073:18093   */\n      sub\n        /* \"#utility.yul\":18069:18070   */\n      0x00\n        /* \"#utility.yul\":18058:18067   */\n      dup4\n        /* \"#utility.yul\":18054:18071   */\n      add\n        /* \"#utility.yul\":18047:18094   */\n      mstore\n        /* \"#utility.yul\":18111:18242   */\n      tag_424\n        /* \"#utility.yul\":18237:18241   */\n      dup2\n        /* \"#utility.yul\":18111:18242   */\n      tag_262\n      jump\t// in\n    tag_424:\n        /* \"#utility.yul\":18103:18242   */\n      swap1\n      pop\n        /* \"#utility.yul\":17830:18249   */\n      swap2\n      swap1\n      pop\n      jump\t// out\n\n    auxdata: 0xa2646970667358221220227aaefdafc63c01e6bcd16c8797496a687ba986115923113dfe4c2406918fb364736f6c634300081e0033\n}\n",
				"bytecode": {
					"linkReferences": {},
					"object": "608060405234801561000f575f5ffd5b5060405161240b38038061240b8339818101604052810190610031919061041e565b5f815190505f5f90505b8181101561025b575f83828151811061005757610056610465565b5b602002602001015190505f73ffffffffffffffffffffffffffffffffffffffff168173ffffffffffffffffffffffffffffffffffffffff16036100cf576040517f08c379a00000000000000000000000000000000000000000000000000000000081526004016100c6906104ec565b60405180910390fd5b5f5f8273ffffffffffffffffffffffffffffffffffffffff1673ffffffffffffffffffffffffffffffffffffffff1681526020019081526020015f205f9054906101000a900460ff1615610158576040517f08c379a000000000000000000000000000000000000000000000000000000000815260040161014f90610554565b60405180910390fd5b60015f5f8373ffffffffffffffffffffffffffffffffffffffff1673ffffffffffffffffffffffffffffffffffffffff1681526020019081526020015f205f6101000a81548160ff021916908315150217905550600181908060018154018082558091505060019003905f5260205f20015f9091909190916101000a81548173ffffffffffffffffffffffffffffffffffffffff021916908373ffffffffffffffffffffffffffffffffffffffff1602179055508073ffffffffffffffffffffffffffffffffffffffff167fdc5a48d79e2e147530ff63ecdbed5a5a66adb9d5cf339384d5d076da197c40b560405160405180910390a28160010191505061003b565b505050610572565b5f604051905090565b5f5ffd5b5f5ffd5b5f5ffd5b5f601f19601f8301169050919050565b7f4e487b71000000000000000000000000000000000000000000000000000000005f52604160045260245ffd5b6102be82610278565b810181811067ffffffffffffffff821117156102dd576102dc610288565b5b80604052505050565b5f6102ef610263565b90506102fb82826102b5565b919050565b5f67ffffffffffffffff82111561031a57610319610288565b5b602082029050602081019050919050565b5f5ffd5b5f73ffffffffffffffffffffffffffffffffffffffff82169050919050565b5f6103588261032f565b9050919050565b6103688161034e565b8114610372575f5ffd5b50565b5f815190506103838161035f565b92915050565b5f61039b61039684610300565b6102e6565b905080838252602082019050602084028301858111156103be576103bd61032b565b5b835b818110156103e757806103d38882610375565b8452602084019350506020810190506103c0565b5050509392505050565b5f82601f83011261040557610404610274565b5b8151610415848260208601610389565b91505092915050565b5f602082840312156104335761043261026c565b5b5f82015167ffffffffffffffff8111156104505761044f610270565b5b61045c848285016103f1565b91505092915050565b7f4e487b71000000000000000000000000000000000000000000000000000000005f52603260045260245ffd5b5f82825260208201905092915050565b7f496e76616c696420676f7665726e6f72000000000000000000000000000000005f82015250565b5f6104d6601083610492565b91506104e1826104a2565b602082019050919050565b5f6020820190508181035f830152610503816104ca565b9050919050565b7f4475706c696361746520676f7665726e6f7200000000000000000000000000005f82015250565b5f61053e601283610492565b91506105498261050a565b602082019050919050565b5f6020820190508181035f83015261056b81610532565b9050919050565b611e8c8061057f5f395ff3fe608060405234801561000f575f5ffd5b50600436106100e8575f3560e01c8063a7277b001161008a578063dc999c8d11610064578063dc999c8d14610289578063e0901d7a146102a7578063e43581b8146102c3578063e8c9fd45146102f3576100e8565b8063a7277b001461020b578063aebe39ca1461023b578063da35c6641461026b576100e8565b80630eb3813a116100c65780630eb3813a146101595780633b4d01a71461017757806343859632146101ab5780638e2767ef146101db576100e8565b80630121b93f146100ec578063013cf08b146101085780630d61b5191461013d575b5f5ffd5b61010660048036038101906101019190611584565b610311565b005b610122600480360381019061011d9190611584565b610553565b6040516101349695949392919061168a565b60405180910390f35b61015760048036038101906101529190611584565b6105d2565b005b610161611051565b60405161016e91906116e9565b60405180910390f35b610191600480360381019061018c9190611584565b611075565b6040516101a2959493929190611702565b60405180910390f35b6101c560048036038101906101c0919061177d565b611102565b6040516101d291906117bb565b60405180910390f35b6101f560048036038101906101f09190611584565b611176565b60405161020291906116e9565b60405180910390f35b61022560048036038101906102209190611584565b6111bf565b60405161023291906117d4565b60405180910390f35b61025560048036038101906102509190611810565b6111fa565b60405161026291906116e9565b60405180910390f35b61027361139a565b60405161028091906116e9565b60405180910390f35b6102916113a6565b60405161029e91906117d4565b60405180910390f35b6102c160048036038101906102bc919061184e565b6113cb565b005b6102dd60048036038101906102d8919061184e565b611525565b6040516102ea91906117bb565b60405180910390f35b6102fb611541565b60405161030891906116e9565b60405180910390f35b5f5f3373ffffffffffffffffffffffffffffffffffffffff1673ffffffffffffffffffffffffffffffffffffffff1681526020019081526020015f205f9054906101000a900460ff16610399576040517f08c379a0000000000000000000000000000000000000000000000000000000008152600401610390906118d3565b60405180910390fd5b5f600382815481106103ae576103ad6118f1565b5b905f5260205f2090600602019050806005015f3373ffffffffffffffffffffffffffffffffffffffff1673ffffffffffffffffffffffffffffffffffffffff1681526020019081526020015f205f9054906101000a900460ff1615610448576040517f08c379a000000000000000000000000000000000000000000000000000000000815260040161043f90611968565b60405180910390fd5b806004015f9054906101000a900460ff1615610499576040517f08c379a0000000000000000000000000000000000000000000000000000000008152600401610490906119d0565b60405180910390fd5b6001816005015f3373ffffffffffffffffffffffffffffffffffffffff1673ffffffffffffffffffffffffffffffffffffffff1681526020019081526020015f205f6101000a81548160ff0219169083151502179055506001816002015f8282546105049190611a1b565b925050819055503373ffffffffffffffffffffffffffffffffffffffff16827ff1003b73c437642c0460aee9cd9628b0b8c447b66e6c7c905531b9c644214a1160405160405180910390a35050565b60038181548110610562575f80fd5b905f5260205f2090600602015f91509050805f015490806001015f9054906101000a900460ff16908060010160019054906101000a900473ffffffffffffffffffffffffffffffffffffffff1690806002015490806003015490806004015f9054906101000a900460ff16905086565b5f5f3373ffffffffffffffffffffffffffffffffffffffff1673ffffffffffffffffffffffffffffffffffffffff1681526020019081526020015f205f9054906101000a900460ff1661065a576040517f08c379a0000000000000000000000000000000000000000000000000000000008152600401610651906118d3565b60405180910390fd5b5f6003828154811061066f5761066e6118f1565b5b905f5260205f20906006020190505f6001600283600301546106919190611a7b565b61069b9190611a1b565b905080826002015410156106e4576040517f08c379a00000000000000000000000000000000000000000000000000000000081526004016106db90611b1b565b60405180910390fd5b816004015f9054906101000a900460ff1615610735576040517f08c379a000000000000000000000000000000000000000000000000000000000815260040161072c906119d0565b60405180910390fd5b5f6003811115610748576107476115be565b5b826001015f9054906101000a900460ff16600381111561076b5761076a6115be565b5b036108f0575f60025f9054906101000a900473ffffffffffffffffffffffffffffffffffffffff1673ffffffffffffffffffffffffffffffffffffffff168360010160019054906101000a900473ffffffffffffffffffffffffffffffffffffffff166040516024016107de91906117d4565b6040516020818303038152906040527fbd4d8bcb000000000000000000000000000000000000000000000000000000007bffffffffffffffffffffffffffffffffffffffffffffffffffffffff19166020820180517bffffffffffffffffffffffffffffffffffffffffffffffffffffffff83818316178352505050506040516108689190611b8b565b5f604051808303815f865af19150503d805f81146108a1576040519150601f19603f3d011682016040523d82523d5f602084013e6108a6565b606091505b50509050806108ea576040517f08c379a00000000000000000000000000000000000000000000000000000000081526004016108e190611beb565b60405180910390fd5b50611003565b60016003811115610904576109036115be565b5b826001015f9054906101000a900460ff166003811115610927576109266115be565b5b03610aac575f60025f9054906101000a900473ffffffffffffffffffffffffffffffffffffffff1673ffffffffffffffffffffffffffffffffffffffff168360010160019054906101000a900473ffffffffffffffffffffffffffffffffffffffff1660405160240161099a91906117d4565b6040516020818303038152906040527f1c67494e000000000000000000000000000000000000000000000000000000007bffffffffffffffffffffffffffffffffffffffffffffffffffffffff19166020820180517bffffffffffffffffffffffffffffffffffffffffffffffffffffffff8381831617835250505050604051610a249190611b8b565b5f604051808303815f865af19150503d805f8114610a5d576040519150601f19603f3d011682016040523d82523d5f602084013e610a62565b606091505b5050905080610aa6576040517f08c379a0000000000000000000000000000000000000000000000000000000008152600401610a9d90611c53565b60405180910390fd5b50611002565b60026003811115610ac057610abf6115be565b5b826001015f9054906101000a900460ff166003811115610ae357610ae26115be565b5b03610c96575f8260010160019054906101000a900473ffffffffffffffffffffffffffffffffffffffff1690505f5f8273ffffffffffffffffffffffffffffffffffffffff1673ffffffffffffffffffffffffffffffffffffffff1681526020019081526020015f205f9054906101000a900460ff1615610b99576040517f08c379a0000000000000000000000000000000000000000000000000000000008152600401610b9090611cbb565b60405180910390fd5b60015f5f8373ffffffffffffffffffffffffffffffffffffffff1673ffffffffffffffffffffffffffffffffffffffff1681526020019081526020015f205f6101000a81548160ff021916908315150217905550600181908060018154018082558091505060019003905f5260205f20015f9091909190916101000a81548173ffffffffffffffffffffffffffffffffffffffff021916908373ffffffffffffffffffffffffffffffffffffffff1602179055508073ffffffffffffffffffffffffffffffffffffffff167fdc5a48d79e2e147530ff63ecdbed5a5a66adb9d5cf339384d5d076da197c40b560405160405180910390a250611001565b600380811115610ca957610ca86115be565b5b826001015f9054906101000a900460ff166003811115610ccc57610ccb6115be565b5b03611000575f8260010160019054906101000a900473ffffffffffffffffffffffffffffffffffffffff1690505f5f8273ffffffffffffffffffffffffffffffffffffffff1673ffffffffffffffffffffffffffffffffffffffff1681526020019081526020015f205f9054906101000a900460ff16610d81576040517f08c379a0000000000000000000000000000000000000000000000000000000008152600401610d78906118d3565b60405180910390fd5b60026001805490501015610dca576040517f08c379a0000000000000000000000000000000000000000000000000000000008152600401610dc190611d49565b60405180910390fd5b5f5f5f8373ffffffffffffffffffffffffffffffffffffffff1673ffffffffffffffffffffffffffffffffffffffff1681526020019081526020015f205f6101000a81548160ff0219169083151502179055505f60018054905090505f5f90505b81811015610f95578273ffffffffffffffffffffffffffffffffffffffff1660018281548110610e5e57610e5d6118f1565b5b905f5260205f20015f9054906101000a900473ffffffffffffffffffffffffffffffffffffffff1673ffffffffffffffffffffffffffffffffffffffff1603610f8a5760018083610eaf9190611d67565b81548110610ec057610ebf6118f1565b5b905f5260205f20015f9054906101000a900473ffffffffffffffffffffffffffffffffffffffff1660018281548110610efc57610efb6118f1565b5b905f5260205f20015f6101000a81548173ffffffffffffffffffffffffffffffffffffffff021916908373ffffffffffffffffffffffffffffffffffffffff1602179055506001805480610f5357610f52611d9a565b5b600190038181905f5260205f20015f6101000a81549073ffffffffffffffffffffffffffffffffffffffff02191690559055610f95565b806001019050610e2b565b508360010160019054906101000a900473ffffffffffffffffffffffffffffffffffffffff1673ffffffffffffffffffffffffffffffffffffffff167f1ebe834e73d60a5fec822c1e1727d34bc79f2ad977ed504581cc1822fe20fb5b60405160405180910390a250505b5b5b5b6001826004015f6101000a81548160ff021916908315150217905550827f712ae1383f79ac853f8d882153778e0260ef8f03b504e2866e0593e04d2b291f60405160405180910390a2505050565b5f600160026001805490506110669190611a7b565b6110709190611a1b565b905090565b5f5f5f5f5f5f6003878154811061108f5761108e6118f1565b5b905f5260205f2090600602019050806001015f9054906101000a900460ff168160010160019054906101000a900473ffffffffffffffffffffffffffffffffffffffff1682600201548360030154846004015f9054906101000a900460ff16955095509550955095505091939590929450565b5f60038381548110611117576111166118f1565b5b905f5260205f2090600602016005015f8373ffffffffffffffffffffffffffffffffffffffff1673ffffffffffffffffffffffffffffffffffffffff1681526020019081526020015f205f9054906101000a900460ff16905092915050565b5f5f6003838154811061118c5761118b6118f1565b5b905f5260205f20906006020190506001600282600301546111ad9190611a7b565b6111b79190611a1b565b915050919050565b600181815481106111ce575f80fd5b905f5260205f20015f915054906101000a900473ffffffffffffffffffffffffffffffffffffffff1681565b5f5f5f3373ffffffffffffffffffffffffffffffffffffffff1673ffffffffffffffffffffffffffffffffffffffff1681526020019081526020015f205f9054906101000a900460ff16611283576040517f08c379a000000000000000000000000000000000000000000000000000000000815260040161127a906118d3565b60405180910390fd5b5f60038054905090505f600360018160018154018082558091505003905f5260205f209060060201905081815f018190555084816001015f6101000a81548160ff021916908360038111156112db576112da6115be565b5b0217905550838160010160016101000a81548173ffffffffffffffffffffffffffffffffffffffff021916908373ffffffffffffffffffffffffffffffffffffffff1602179055505f816002018190555060018054905081600301819055505f816004015f6101000a81548160ff021916908315150217905550817f3263432a41f78a4701cc9465f62411ed717ade32290c084135a3dd6b29f4bf288686604051611387929190611dc7565b60405180910390a2819250505092915050565b5f600380549050905090565b60025f9054906101000a900473ffffffffffffffffffffffffffffffffffffffff1681565b5f5f3373ffffffffffffffffffffffffffffffffffffffff1673ffffffffffffffffffffffffffffffffffffffff1681526020019081526020015f205f9054906101000a900460ff16611453576040517f08c379a000000000000000000000000000000000000000000000000000000000815260040161144a906118d3565b60405180910390fd5b5f73ffffffffffffffffffffffffffffffffffffffff1660025f9054906101000a900473ffffffffffffffffffffffffffffffffffffffff1673ffffffffffffffffffffffffffffffffffffffff16146114e2576040517f08c379a00000000000000000000000000000000000000000000000000000000081526004016114d990611e38565b60405180910390fd5b8060025f6101000a81548173ffffffffffffffffffffffffffffffffffffffff021916908373ffffffffffffffffffffffffffffffffffffffff16021790555050565b5f602052805f5260405f205f915054906101000a900460ff1681565b5f600180549050905090565b5f5ffd5b5f819050919050565b61156381611551565b811461156d575f5ffd5b50565b5f8135905061157e8161155a565b92915050565b5f602082840312156115995761159861154d565b5b5f6115a684828501611570565b91505092915050565b6115b881611551565b82525050565b7f4e487b71000000000000000000000000000000000000000000000000000000005f52602160045260245ffd5b600481106115fc576115fb6115be565b5b50565b5f81905061160c826115eb565b919050565b5f61161b826115ff565b9050919050565b61162b81611611565b82525050565b5f73ffffffffffffffffffffffffffffffffffffffff82169050919050565b5f61165a82611631565b9050919050565b61166a81611650565b82525050565b5f8115159050919050565b61168481611670565b82525050565b5f60c08201905061169d5f8301896115af565b6116aa6020830188611622565b6116b76040830187611661565b6116c460608301866115af565b6116d160808301856115af565b6116de60a083018461167b565b979650505050505050565b5f6020820190506116fc5f8301846115af565b92915050565b5f60a0820190506117155f830188611622565b6117226020830187611661565b61172f60408301866115af565b61173c60608301856115af565b611749608083018461167b565b9695505050505050565b61175c81611650565b8114611766575f5ffd5b50565b5f8135905061177781611753565b92915050565b5f5f604083850312156117935761179261154d565b5b5f6117a085828601611570565b92505060206117b185828601611769565b9150509250929050565b5f6020820190506117ce5f83018461167b565b92915050565b5f6020820190506117e75f830184611661565b92915050565b600481106117f9575f5ffd5b50565b5f8135905061180a816117ed565b92915050565b5f5f604083850312156118265761182561154d565b5b5f611833858286016117fc565b925050602061184485828601611769565b9150509250929050565b5f602082840312156118635761186261154d565b5b5f61187084828501611769565b91505092915050565b5f82825260208201905092915050565b7f4e6f74206120676f7665726e6f720000000000000000000000000000000000005f82015250565b5f6118bd600e83611879565b91506118c882611889565b602082019050919050565b5f6020820190508181035f8301526118ea816118b1565b9050919050565b7f4e487b71000000000000000000000000000000000000000000000000000000005f52603260045260245ffd5b7f476f7665726e6f7220616c726561647920766f746564000000000000000000005f82015250565b5f611952601683611879565b915061195d8261191e565b602082019050919050565b5f6020820190508181035f83015261197f81611946565b9050919050565b7f50726f706f73616c20616c7265616479206578656375746564000000000000005f82015250565b5f6119ba601983611879565b91506119c582611986565b602082019050919050565b5f6020820190508181035f8301526119e7816119ae565b9050919050565b7f4e487b71000000000000000000000000000000000000000000000000000000005f52601160045260245ffd5b5f611a2582611551565b9150611a3083611551565b9250828201905080821115611a4857611a476119ee565b5b92915050565b7f4e487b71000000000000000000000000000000000000000000000000000000005f52601260045260245ffd5b5f611a8582611551565b9150611a9083611551565b925082611aa057611a9f611a4e565b5b828204905092915050565b7f496e73756666696369656e7420766f74657320746f20657865637574652070725f8201527f6f706f73616c0000000000000000000000000000000000000000000000000000602082015250565b5f611b05602683611879565b9150611b1082611aab565b604082019050919050565b5f6020820190508181035f830152611b3281611af9565b9050919050565b5f81519050919050565b5f81905092915050565b8281835e5f83830152505050565b5f611b6582611b39565b611b6f8185611b43565b9350611b7f818560208601611b4d565b80840191505092915050565b5f611b968284611b5b565b915081905092915050565b7f417574686f72697a6174696f6e206661696c65640000000000000000000000005f82015250565b5f611bd5601483611879565b9150611be082611ba1565b602082019050919050565b5f6020820190508181035f830152611c0281611bc9565b9050919050565b7f5265766f636174696f6e206661696c65640000000000000000000000000000005f82015250565b5f611c3d601183611879565b9150611c4882611c09565b602082019050919050565b5f6020820190508181035f830152611c6a81611c31565b9050919050565b7f54617267657420697320616c7265616479206120676f7665726e6f72000000005f82015250565b5f611ca5601c83611879565b9150611cb082611c71565b602082019050919050565b5f6020820190508181035f830152611cd281611c99565b9050919050565b7f54776f20676f7665726e6f72732063616e6e6f742072656d6f766520656163685f8201527f206f746865720000000000000000000000000000000000000000000000000000602082015250565b5f611d33602683611879565b9150611d3e82611cd9565b604082019050919050565b5f6020820190508181035f830152611d6081611d27565b9050919050565b5f611d7182611551565b9150611d7c83611551565b9250828203905081811115611d9457611d936119ee565b5b92915050565b7f4e487b71000000000000000000000000000000000000000000000000000000005f52603160045260245ffd5b5f604082019050611dda5f830185611622565b611de76020830184611661565b9392505050565b7f4164647265737320616c726561647920736574000000000000000000000000005f82015250565b5f611e22601383611879565b9150611e2d82611dee565b602082019050919050565b5f6020820190508181035f830152611e4f81611e16565b905091905056fea2646970667358221220227aaefdafc63c01e6bcd16c8797496a687ba986115923113dfe4c2406918fb364736f6c634300081e0033",
					"opcodes": "PUSH1 0x80 PUSH1 0x40 MSTORE CALLVALUE DUP1 ISZERO PUSH2 0xF JUMPI PUSH0 PUSH0 REVERT JUMPDEST POP PUSH1 0x40 MLOAD PUSH2 0x240B CODESIZE SUB DUP1 PUSH2 0x240B DUP4 CODECOPY DUP2 DUP2 ADD PUSH1 0x40 MSTORE DUP2 ADD SWAP1 PUSH2 0x31 SWAP2 SWAP1 PUSH2 0x41E JUMP JUMPDEST PUSH0 DUP2 MLOAD SWAP1 POP PUSH0 PUSH0 SWAP1 POP JUMPDEST DUP2 DUP2 LT ISZERO PUSH2 0x25B JUMPI PUSH0 DUP4 DUP3 DUP2 MLOAD DUP2 LT PUSH2 0x57 JUMPI PUSH2 0x56 PUSH2 0x465 JUMP JUMPDEST JUMPDEST PUSH1 0x20 MUL PUSH1 0x20 ADD ADD MLOAD SWAP1 POP PUSH0 PUSH20 0xFFFFFFFFFFFFFFFFFFFFFFFFFFFFFFFFFFFFFFFF AND DUP2 PUSH20 0xFFFFFFFFFFFFFFFFFFFFFFFFFFFFFFFFFFFFFFFF AND SUB PUSH2 0xCF JUMPI PUSH1 0x40 MLOAD PUSH32 0x8C379A000000000000000000000000000000000000000000000000000000000 DUP2 MSTORE PUSH1 0x4 ADD PUSH2 0xC6 SWAP1 PUSH2 0x4EC JUMP JUMPDEST PUSH1 0x40 MLOAD DUP1 SWAP2 SUB SWAP1 REVERT JUMPDEST PUSH0 PUSH0 DUP3 PUSH20 0xFFFFFFFFFFFFFFFFFFFFFFFFFFFFFFFFFFFFFFFF AND PUSH20 0xFFFFFFFFFFFFFFFFFFFFFFFFFFFFFFFFFFFFFFFF AND DUP2 MSTORE PUSH1 0x20 ADD SWAP1 DUP2 MSTORE PUSH1 0x20 ADD PUSH0 KECCAK256 PUSH0 SWAP1 SLOAD SWAP1 PUSH2 0x100 EXP SWAP1 DIV PUSH1 0xFF AND ISZERO PUSH2 0x158 JUMPI PUSH1 0x40 MLOAD PUSH32 0x8C379A000000000000000000000000000000000000000000000000000000000 DUP2 MSTORE PUSH1 0x4 ADD PUSH2 0x14F SWAP1 PUSH2 0x554 JUMP JUMPDEST PUSH1 0x40 MLOAD DUP1 SWAP2 SUB SWAP1 REVERT JUMPDEST PUSH1 0x1 PUSH0 PUSH0 DUP4 PUSH20 0xFFFFFFFFFFFFFFFFFFFFFFFFFFFFFFFFFFFFFFFF AND PUSH20 0xFFFFFFFFFFFFFFFFFFFFFFFFFFFFFFFFFFFFFFFF AND DUP2 MSTORE PUSH1 0x20 ADD SWAP1 DUP2 MSTORE PUSH1 0x20 ADD PUSH0 KECCAK256 PUSH0 PUSH2 0x100 EXP DUP2 SLOAD DUP2 PUSH1 0xFF MUL NOT AND SWAP1 DUP4 ISZERO ISZERO MUL OR SWAP1 SSTORE POP PUSH1 0x1 DUP2 SWAP1 DUP1 PUSH1 0x1 DUP2 SLOAD ADD DUP1 DUP3 SSTORE DUP1 SWAP2 POP POP PUSH1 0x1 SWAP1 SUB SWAP1 PUSH0 MSTORE PUSH1 0x20 PUSH0 KECCAK256 ADD PUSH0 SWAP1 SWAP2 SWAP1 SWAP2 SWAP1 SWAP2 PUSH2 0x100 EXP DUP2 SLOAD DUP2 PUSH20 0xFFFFFFFFFFFFFFFFFFFFFFFFFFFFFFFFFFFFFFFF MUL NOT AND SWAP1 DUP4 PUSH20 0xFFFFFFFFFFFFFFFFFFFFFFFFFFFFFFFFFFFFFFFF AND MUL OR SWAP1 SSTORE POP DUP1 PUSH20 0xFFFFFFFFFFFFFFFFFFFFFFFFFFFFFFFFFFFFFFFF AND PUSH32 0xDC5A48D79E2E147530FF63ECDBED5A5A66ADB9D5CF339384D5D076DA197C40B5 PUSH1 0x40 MLOAD PUSH1 0x40 MLOAD DUP1 SWAP2 SUB SWAP1 LOG2 DUP2 PUSH1 0x1 ADD SWAP2 POP POP PUSH2 0x3B JUMP JUMPDEST POP POP POP PUSH2 0x572 JUMP JUMPDEST PUSH0 PUSH1 0x40 MLOAD SWAP1 POP SWAP1 JUMP JUMPDEST PUSH0 PUSH0 REVERT JUMPDEST PUSH0 PUSH0 REVERT JUMPDEST PUSH0 PUSH0 REVERT JUMPDEST PUSH0 PUSH1 0x1F NOT PUSH1 0x1F DUP4 ADD AND SWAP1 POP SWAP2 SWAP1 POP JUMP JUMPDEST PUSH32 0x4E487B7100000000000000000000000000000000000000000000000000000000 PUSH0 MSTORE PUSH1 0x41 PUSH1 0x4 MSTORE PUSH1 0x24 PUSH0 REVERT JUMPDEST PUSH2 0x2BE DUP3 PUSH2 0x278 JUMP JUMPDEST DUP2 ADD DUP2 DUP2 LT PUSH8 0xFFFFFFFFFFFFFFFF DUP3 GT OR ISZERO PUSH2 0x2DD JUMPI PUSH2 0x2DC PUSH2 0x288 JUMP JUMPDEST JUMPDEST DUP1 PUSH1 0x40 MSTORE POP POP POP JUMP JUMPDEST PUSH0 PUSH2 0x2EF PUSH2 0x263 JUMP JUMPDEST SWAP1 POP PUSH2 0x2FB DUP3 DUP3 PUSH2 0x2B5 JUMP JUMPDEST SWAP2 SWAP1 POP JUMP JUMPDEST PUSH0 PUSH8 0xFFFFFFFFFFFFFFFF DUP3 GT ISZERO PUSH2 0x31A JUMPI PUSH2 0x319 PUSH2 0x288 JUMP JUMPDEST JUMPDEST PUSH1 0x20 DUP3 MUL SWAP1 POP PUSH1 0x20 DUP2 ADD SWAP1 POP SWAP2 SWAP1 POP JUMP JUMPDEST PUSH0 PUSH0 REVERT JUMPDEST PUSH0 PUSH20 0xFFFFFFFFFFFFFFFFFFFFFFFFFFFFFFFFFFFFFFFF DUP3 AND SWAP1 POP SWAP2 SWAP1 POP JUMP JUMPDEST PUSH0 PUSH2 0x358 DUP3 PUSH2 0x32F JUMP JUMPDEST SWAP1 POP SWAP2 SWAP1 POP JUMP JUMPDEST PUSH2 0x368 DUP2 PUSH2 0x34E JUMP JUMPDEST DUP2 EQ PUSH2 0x372 JUMPI PUSH0 PUSH0 REVERT JUMPDEST POP JUMP JUMPDEST PUSH0 DUP2 MLOAD SWAP1 POP PUSH2 0x383 DUP2 PUSH2 0x35F JUMP JUMPDEST SWAP3 SWAP2 POP POP JUMP JUMPDEST PUSH0 PUSH2 0x39B PUSH2 0x396 DUP5 PUSH2 0x300 JUMP JUMPDEST PUSH2 0x2E6 JUMP JUMPDEST SWAP1 POP DUP1 DUP4 DUP3 MSTORE PUSH1 0x20 DUP3 ADD SWAP1 POP PUSH1 0x20 DUP5 MUL DUP4 ADD DUP6 DUP2 GT ISZERO PUSH2 0x3BE JUMPI PUSH2 0x3BD PUSH2 0x32B JUMP JUMPDEST JUMPDEST DUP4 JUMPDEST DUP2 DUP2 LT ISZERO PUSH2 0x3E7 JUMPI DUP1 PUSH2 0x3D3 DUP9 DUP3 PUSH2 0x375 JUMP JUMPDEST DUP5 MSTORE PUSH1 0x20 DUP5 ADD SWAP4 POP POP PUSH1 0x20 DUP2 ADD SWAP1 POP PUSH2 0x3C0 JUMP JUMPDEST POP POP POP SWAP4 SWAP3 POP POP POP JUMP JUMPDEST PUSH0 DUP3 PUSH1 0x1F DUP4 ADD SLT PUSH2 0x405 JUMPI PUSH2 0x404 PUSH2 0x274 JUMP JUMPDEST JUMPDEST DUP2 MLOAD PUSH2 0x415 DUP5 DUP3 PUSH1 0x20 DUP7 ADD PUSH2 0x389 JUMP JUMPDEST SWAP2 POP POP SWAP3 SWAP2 POP POP JUMP JUMPDEST PUSH0 PUSH1 0x20 DUP3 DUP5 SUB SLT ISZERO PUSH2 0x433 JUMPI PUSH2 0x432 PUSH2 0x26C JUMP JUMPDEST JUMPDEST PUSH0 DUP3 ADD MLOAD PUSH8 0xFFFFFFFFFFFFFFFF DUP2 GT ISZERO PUSH2 0x450 JUMPI PUSH2 0x44F PUSH2 0x270 JUMP JUMPDEST JUMPDEST PUSH2 0x45C DUP5 DUP3 DUP6 ADD PUSH2 0x3F1 JUMP JUMPDEST SWAP2 POP POP SWAP3 SWAP2 POP POP JUMP JUMPDEST PUSH32 0x4E487B7100000000000000000000000000000000000000000000000000000000 PUSH0 MSTORE PUSH1 0x32 PUSH1 0x4 MSTORE PUSH1 0x24 PUSH0 REVERT JUMPDEST PUSH0 DUP3 DUP3 MSTORE PUSH1 0x20 DUP3 ADD SWAP1 POP SWAP3 SWAP2 POP POP JUMP JUMPDEST PUSH32 0x496E76616C696420676F7665726E6F7200000000000000000000000000000000 PUSH0 DUP3 ADD MSTORE POP JUMP JUMPDEST PUSH0 PUSH2 0x4D6 PUSH1 0x10 DUP4 PUSH2 0x492 JUMP JUMPDEST SWAP2 POP PUSH2 0x4E1 DUP3 PUSH2 0x4A2 JUMP JUMPDEST PUSH1 0x20 DUP3 ADD SWAP1 POP SWAP2 SWAP1 POP JUMP JUMPDEST PUSH0 PUSH1 0x20 DUP3 ADD SWAP1 POP DUP2 DUP2 SUB PUSH0 DUP4 ADD MSTORE PUSH2 0x503 DUP2 PUSH2 0x4CA JUMP JUMPDEST SWAP1 POP SWAP2 SWAP1 POP JUMP JUMPDEST PUSH32 0x4475706C696361746520676F7665726E6F720000000000000000000000000000 PUSH0 DUP3 ADD MSTORE POP JUMP JUMPDEST PUSH0 PUSH2 0x53E PUSH1 0x12 DUP4 PUSH2 0x492 JUMP JUMPDEST SWAP2 POP PUSH2 0x549 DUP3 PUSH2 0x50A JUMP JUMPDEST PUSH1 0x20 DUP3 ADD SWAP1 POP SWAP2 SWAP1 POP JUMP JUMPDEST PUSH0 PUSH1 0x20 DUP3 ADD SWAP1 POP DUP2 DUP2 SUB PUSH0 DUP4 ADD MSTORE PUSH2 0x56B DUP2 PUSH2 0x532 JUMP JUMPDEST SWAP1 POP SWAP2 SWAP1 POP JUMP JUMPDEST PUSH2 0x1E8C DUP1 PUSH2 0x57F PUSH0 CODECOPY PUSH0 RETURN INVALID PUSH1 0x80 PUSH1 0x40 MSTORE CALLVALUE DUP1 ISZERO PUSH2 0xF JUMPI PUSH0 PUSH0 REVERT JUMPDEST POP PUSH1 0x4 CALLDATASIZE LT PUSH2 0xE8 JUMPI PUSH0 CALLDATALOAD PUSH1 0xE0 SHR DUP1 PUSH4 0xA7277B00 GT PUSH2 0x8A JUMPI DUP1 PUSH4 0xDC999C8D GT PUSH2 0x64 JUMPI DUP1 PUSH4 0xDC999C8D EQ PUSH2 0x289 JUMPI DUP1 PUSH4 0xE0901D7A EQ PUSH2 0x2A7 JUMPI DUP1 PUSH4 0xE43581B8 EQ PUSH2 0x2C3 JUMPI DUP1 PUSH4 0xE8C9FD45 EQ PUSH2 0x2F3 JUMPI PUSH2 0xE8 JUMP JUMPDEST DUP1 PUSH4 0xA7277B00 EQ PUSH2 0x20B JUMPI DUP1 PUSH4 0xAEBE39CA EQ PUSH2 0x23B JUMPI DUP1 PUSH4 0xDA35C664 EQ PUSH2 0x26B JUMPI PUSH2 0xE8 JUMP JUMPDEST DUP1 PUSH4 0xEB3813A GT PUSH2 0xC6 JUMPI DUP1 PUSH4 0xEB3813A EQ PUSH2 0x159 JUMPI DUP1 PUSH4 0x3B4D01A7 EQ PUSH2 0x177 JUMPI DUP1 PUSH4 0x43859632 EQ PUSH2 0x1AB JUMPI DUP1 PUSH4 0x8E2767EF EQ PUSH2 0x1DB JUMPI PUSH2 0xE8 JUMP JUMPDEST DUP1 PUSH4 0x121B93F EQ PUSH2 0xEC JUMPI DUP1 PUSH4 0x13CF08B EQ PUSH2 0x108 JUMPI DUP1 PUSH4 0xD61B519 EQ PUSH2 0x13D JUMPI JUMPDEST PUSH0 PUSH0 REVERT JUMPDEST PUSH2 0x106 PUSH1 0x4 DUP1 CALLDATASIZE SUB DUP2 ADD SWAP1 PUSH2 0x101 SWAP2 SWAP1 PUSH2 0x1584 JUMP JUMPDEST PUSH2 0x311 JUMP JUMPDEST STOP JUMPDEST PUSH2 0x122 PUSH1 0x4 DUP1 CALLDATASIZE SUB DUP2 ADD SWAP1 PUSH2 0x11D SWAP2 SWAP1 PUSH2 0x1584 JUMP JUMPDEST PUSH2 0x553 JUMP JUMPDEST PUSH1 0x40 MLOAD PUSH2 0x134 SWAP7 SWAP6 SWAP5 SWAP4 SWAP3 SWAP2 SWAP1 PUSH2 0x168A JUMP JUMPDEST PUSH1 0x40 MLOAD DUP1 SWAP2 SUB SWAP1 RETURN JUMPDEST PUSH2 0x157 PUSH1 0x4 DUP1 CALLDATASIZE SUB DUP2 ADD SWAP1 PUSH2 0x152 SWAP2 SWAP1 PUSH2 0x1584 JUMP JUMPDEST PUSH2 0x5D2 JUMP JUMPDEST STOP JUMPDEST PUSH2 0x161 PUSH2 0x1051 JUMP JUMPDEST PUSH1 0x40 MLOAD PUSH2 0x16E SWAP2 SWAP1 PUSH2 0x16E9 JUMP JUMPDEST PUSH1 0x40 MLOAD DUP1 SWAP2 SUB SWAP1 RETURN JUMPDEST PUSH2 0x191 PUSH1 0x4 DUP1 CALLDATASIZE SUB DUP2 ADD SWAP1 PUSH2 0x18C SWAP2 SWAP1 PUSH2 0x1584 JUMP JUMPDEST PUSH2 0x1075 JUMP JUMPDEST PUSH1 0x40 MLOAD PUSH2 0x1A2 SWAP6 SWAP5 SWAP4 SWAP3 SWAP2 SWAP1 PUSH2 0x1702 JUMP JUMPDEST PUSH1 0x40 MLOAD DUP1 SWAP2 SUB SWAP1 RETURN JUMPDEST PUSH2 0x1C5 PUSH1 0x4 DUP1 CALLDATASIZE SUB DUP2 ADD SWAP1 PUSH2 0x1C0 SWAP2 SWAP1 PUSH2 0x177D JUMP JUMPDEST PUSH2 0x1102 JUMP JUMPDEST PUSH1 0x40 MLOAD PUSH2 0x1D2 SWAP2 SWAP1 PUSH2 0x17BB JUMP JUMPDEST PUSH1 0x40 MLOAD DUP1 SWAP2 SUB SWAP1 RETURN JUMPDEST PUSH2 0x1F5 PUSH1 0x4 DUP1 CALLDATASIZE SUB DUP2 ADD SWAP1 PUSH2 0x1F0 SWAP2 SWAP1 PUSH2 0x1584 JUMP JUMPDEST PUSH2 0x1176 JUMP JUMPDEST PUSH1 0x40 MLOAD PUSH2 0x202 SWAP2 SWAP1 PUSH2 0x16E9 JUMP JUMPDEST PUSH1 0x40 MLOAD DUP1 SWAP2 SUB SWAP1 RETURN JUMPDEST PUSH2 0x225 PUSH1 0x4 DUP1 CALLDATASIZE SUB DUP2 ADD SWAP1 PUSH2 0x220 SWAP2 SWAP1 PUSH2 0x1584 JUMP JUMPDEST PUSH2 0x11BF JUMP JUMPDEST PUSH1 0x40 MLOAD PUSH2 0x232 SWAP2 SWAP1 PUSH2 0x17D4 JUMP JUMPDEST PUSH1 0x40 MLOAD DUP1 SWAP2 SUB SWAP1 RETURN JUMPDEST PUSH2 0x255 PUSH1 0x4 DUP1 CALLDATASIZE SUB DUP2 ADD SWAP1 PUSH2 0x250 SWAP2 SWAP1 PUSH2 0x1810 JUMP JUMPDEST PUSH2 0x11FA JUMP JUMPDEST PUSH1 0x40 MLOAD PUSH2 0x262 SWAP2 SWAP1 PUSH2 0x16E9 JUMP JUMPDEST PUSH1 0x40 MLOAD DUP1 SWAP2 SUB SWAP1 RETURN JUMPDEST PUSH2 0x273 PUSH2 0x139A JUMP JUMPDEST PUSH1 0x40 MLOAD PUSH2 0x280 SWAP2 SWAP1 PUSH2 0x16E9 JUMP JUMPDEST PUSH1 0x40 MLOAD DUP1 SWAP2 SUB SWAP1 RETURN JUMPDEST PUSH2 0x291 PUSH2 0x13A6 JUMP JUMPDEST PUSH1 0x40 MLOAD PUSH2 0x29E SWAP2 SWAP1 PUSH2 0x17D4 JUMP JUMPDEST PUSH1 0x40 MLOAD DUP1 SWAP2 SUB SWAP1 RETURN JUMPDEST PUSH2 0x2C1 PUSH1 0x4 DUP1 CALLDATASIZE SUB DUP2 ADD SWAP1 PUSH2 0x2BC SWAP2 SWAP1 PUSH2 0x184E JUMP JUMPDEST PUSH2 0x13CB JUMP JUMPDEST STOP JUMPDEST PUSH2 0x2DD PUSH1 0x4 DUP1 CALLDATASIZE SUB DUP2 ADD SWAP1 PUSH2 0x2D8 SWAP2 SWAP1 PUSH2 0x184E JUMP JUMPDEST PUSH2 0x1525 JUMP JUMPDEST PUSH1 0x40 MLOAD PUSH2 0x2EA SWAP2 SWAP1 PUSH2 0x17BB JUMP JUMPDEST PUSH1 0x40 MLOAD DUP1 SWAP2 SUB SWAP1 RETURN JUMPDEST PUSH2 0x2FB PUSH2 0x1541 JUMP JUMPDEST PUSH1 0x40 MLOAD PUSH2 0x308 SWAP2 SWAP1 PUSH2 0x16E9 JUMP JUMPDEST PUSH1 0x40 MLOAD DUP1 SWAP2 SUB SWAP1 RETURN JUMPDEST PUSH0 PUSH0 CALLER PUSH20 0xFFFFFFFFFFFFFFFFFFFFFFFFFFFFFFFFFFFFFFFF AND PUSH20 0xFFFFFFFFFFFFFFFFFFFFFFFFFFFFFFFFFFFFFFFF AND DUP2 MSTORE PUSH1 0x20 ADD SWAP1 DUP2 MSTORE PUSH1 0x20 ADD PUSH0 KECCAK256 PUSH0 SWAP1 SLOAD SWAP1 PUSH2 0x100 EXP SWAP1 DIV PUSH1 0xFF AND PUSH2 0x399 JUMPI PUSH1 0x40 MLOAD PUSH32 0x8C379A000000000000000000000000000000000000000000000000000000000 DUP2 MSTORE PUSH1 0x4 ADD PUSH2 0x390 SWAP1 PUSH2 0x18D3 JUMP JUMPDEST PUSH1 0x40 MLOAD DUP1 SWAP2 SUB SWAP1 REVERT JUMPDEST PUSH0 PUSH1 0x3 DUP3 DUP2 SLOAD DUP2 LT PUSH2 0x3AE JUMPI PUSH2 0x3AD PUSH2 0x18F1 JUMP JUMPDEST JUMPDEST SWAP1 PUSH0 MSTORE PUSH1 0x20 PUSH0 KECCAK256 SWAP1 PUSH1 0x6 MUL ADD SWAP1 POP DUP1 PUSH1 0x5 ADD PUSH0 CALLER PUSH20 0xFFFFFFFFFFFFFFFFFFFFFFFFFFFFFFFFFFFFFFFF AND PUSH20 0xFFFFFFFFFFFFFFFFFFFFFFFFFFFFFFFFFFFFFFFF AND DUP2 MSTORE PUSH1 0x20 ADD SWAP1 DUP2 MSTORE PUSH1 0x20 ADD PUSH0 KECCAK256 PUSH0 SWAP1 SLOAD SWAP1 PUSH2 0x100 EXP SWAP1 DIV PUSH1 0xFF AND ISZERO PUSH2 0x448 JUMPI PUSH1 0x40 MLOAD PUSH32 0x8C379A000000000000000000000000000000000000000000000000000000000 DUP2 MSTORE PUSH1 0x4 ADD PUSH2 0x43F SWAP1 PUSH2 0x1968 JUMP JUMPDEST PUSH1 0x40 MLOAD DUP1 SWAP2 SUB SWAP1 REVERT JUMPDEST DUP1 PUSH1 0x4 ADD PUSH0 SWAP1 SLOAD SWAP1 PUSH2 0x100 EXP SWAP1 DIV PUSH1 0xFF AND ISZERO PUSH2 0x499 JUMPI PUSH1 0x40 MLOAD PUSH32 0x8C379A000000000000000000000000000000000000000000000000000000000 DUP2 MSTORE PUSH1 0x4 ADD PUSH2 0x490 SWAP1 PUSH2 0x19D0 JUMP JUMPDEST PUSH1 0x40 MLOAD DUP1 SWAP2 SUB SWAP1 REVERT JUMPDEST PUSH1 0x1 DUP2 PUSH1 0x5 ADD PUSH0 CALLER PUSH20 0xFFFFFFFFFFFFFFFFFFFFFFFFFFFFFFFFFFFFFFFF AND PUSH20 0xFFFFFFFFFFFFFFFFFFFFFFFFFFFFFFFFFFFFFFFF AND DUP2 MSTORE PUSH1 0x20 ADD SWAP1 DUP2 MSTORE PUSH1 0x20 ADD PUSH0 KECCAK256 PUSH0 PUSH2 0x100 EXP DUP2 SLOAD DUP2 PUSH1 0xFF MUL NOT AND SWAP1 DUP4 ISZERO ISZERO MUL OR SWAP1 SSTORE POP PUSH1 0x1 DUP2 PUSH1 0x2 ADD PUSH0 DUP3 DUP3 SLOAD PUSH2 0x504 SWAP2 SWAP1 PUSH2 0x1A1B JUMP JUMPDEST SWAP3 POP POP DUP2 SWAP1 SSTORE POP CALLER PUSH20 0xFFFFFFFFFFFFFFFFFFFFFFFFFFFFFFFFFFFFFFFF AND DUP3 PUSH32 0xF1003B73C437642C0460AEE9CD9628B0B8C447B66E6C7C905531B9C644214A11 PUSH1 0x40 MLOAD PUSH1 0x40 MLOAD DUP1 SWAP2 SUB SWAP1 LOG3 POP POP JUMP JUMPDEST PUSH1 0x3 DUP2 DUP2 SLOAD DUP2 LT PUSH2 0x562 JUMPI PUSH0 DUP1 REVERT JUMPDEST SWAP1 PUSH0 MSTORE PUSH1 0x20 PUSH0 KECCAK256 SWAP1 PUSH1 0x6 MUL ADD PUSH0 SWAP2 POP SWAP1 POP DUP1 PUSH0 ADD SLOAD SWAP1 DUP1 PUSH1 0x1 ADD PUSH0 SWAP1 SLOAD SWAP1 PUSH2 0x100 EXP SWAP1 DIV PUSH1 0xFF AND SWAP1 DUP1 PUSH1 0x1 ADD PUSH1 0x1 SWAP1 SLOAD SWAP1 PUSH2 0x100 EXP SWAP1 DIV PUSH20 0xFFFFFFFFFFFFFFFFFFFFFFFFFFFFFFFFFFFFFFFF AND SWAP1 DUP1 PUSH1 0x2 ADD SLOAD SWAP1 DUP1 PUSH1 0x3 ADD SLOAD SWAP1 DUP1 PUSH1 0x4 ADD PUSH0 SWAP1 SLOAD SWAP1 PUSH2 0x100 EXP SWAP1 DIV PUSH1 0xFF AND SWAP1 POP DUP7 JUMP JUMPDEST PUSH0 PUSH0 CALLER PUSH20 0xFFFFFFFFFFFFFFFFFFFFFFFFFFFFFFFFFFFFFFFF AND PUSH20 0xFFFFFFFFFFFFFFFFFFFFFFFFFFFFFFFFFFFFFFFF AND DUP2 MSTORE PUSH1 0x20 ADD SWAP1 DUP2 MSTORE PUSH1 0x20 ADD PUSH0 KECCAK256 PUSH0 SWAP1 SLOAD SWAP1 PUSH2 0x100 EXP SWAP1 DIV PUSH1 0xFF AND PUSH2 0x65A JUMPI PUSH1 0x40 MLOAD PUSH32 0x8C379A000000000000000000000000000000000000000000000000000000000 DUP2 MSTORE PUSH1 0x4 ADD PUSH2 0x651 SWAP1 PUSH2 0x18D3 JUMP JUMPDEST PUSH1 0x40 MLOAD DUP1 SWAP2 SUB SWAP1 REVERT JUMPDEST PUSH0 PUSH1 0x3 DUP3 DUP2 SLOAD DUP2 LT PUSH2 0x66F JUMPI PUSH2 0x66E PUSH2 0x18F1 JUMP JUMPDEST JUMPDEST SWAP1 PUSH0 MSTORE PUSH1 0x20 PUSH0 KECCAK256 SWAP1 PUSH1 0x6 MUL ADD SWAP1 POP PUSH0 PUSH1 0x1 PUSH1 0x2 DUP4 PUSH1 0x3 ADD SLOAD PUSH2 0x691 SWAP2 SWAP1 PUSH2 0x1A7B JUMP JUMPDEST PUSH2 0x69B SWAP2 SWAP1 PUSH2 0x1A1B JUMP JUMPDEST SWAP1 POP DUP1 DUP3 PUSH1 0x2 ADD SLOAD LT ISZERO PUSH2 0x6E4 JUMPI PUSH1 0x40 MLOAD PUSH32 0x8C379A000000000000000000000000000000000000000000000000000000000 DUP2 MSTORE PUSH1 0x4 ADD PUSH2 0x6DB SWAP1 PUSH2 0x1B1B JUMP JUMPDEST PUSH1 0x40 MLOAD DUP1 SWAP2 SUB SWAP1 REVERT JUMPDEST DUP2 PUSH1 0x4 ADD PUSH0 SWAP1 SLOAD SWAP1 PUSH2 0x100 EXP SWAP1 DIV PUSH1 0xFF AND ISZERO PUSH2 0x735 JUMPI PUSH1 0x40 MLOAD PUSH32 0x8C379A000000000000000000000000000000000000000000000000000000000 DUP2 MSTORE PUSH1 0x4 ADD PUSH2 0x72C SWAP1 PUSH2 0x19D0 JUMP JUMPDEST PUSH1 0x40 MLOAD DUP1 SWAP2 SUB SWAP1 REVERT JUMPDEST PUSH0 PUSH1 0x3 DUP2 GT ISZERO PUSH2 0x748 JUMPI PUSH2 0x747 PUSH2 0x15BE JUMP JUMPDEST JUMPDEST DUP3 PUSH1 0x1 ADD PUSH0 SWAP1 SLOAD SWAP1 PUSH2 0x100 EXP SWAP1 DIV PUSH1 0xFF AND PUSH1 0x3 DUP2 GT ISZERO PUSH2 0x76B JUMPI PUSH2 0x76A PUSH2 0x15BE JUMP JUMPDEST JUMPDEST SUB PUSH2 0x8F0 JUMPI PUSH0 PUSH1 0x2 PUSH0 SWAP1 SLOAD SWAP1 PUSH2 0x100 EXP SWAP1 DIV PUSH20 0xFFFFFFFFFFFFFFFFFFFFFFFFFFFFFFFFFFFFFFFF AND PUSH20 0xFFFFFFFFFFFFFFFFFFFFFFFFFFFFFFFFFFFFFFFF AND DUP4 PUSH1 0x1 ADD PUSH1 0x1 SWAP1 SLOAD SWAP1 PUSH2 0x100 EXP SWAP1 DIV PUSH20 0xFFFFFFFFFFFFFFFFFFFFFFFFFFFFFFFFFFFFFFFF AND PUSH1 0x40 MLOAD PUSH1 0x24 ADD PUSH2 0x7DE SWAP2 SWAP1 PUSH2 0x17D4 JUMP JUMPDEST PUSH1 0x40 MLOAD PUSH1 0x20 DUP2 DUP4 SUB SUB DUP2 MSTORE SWAP1 PUSH1 0x40 MSTORE PUSH32 0xBD4D8BCB00000000000000000000000000000000000000000000000000000000 PUSH28 0xFFFFFFFFFFFFFFFFFFFFFFFFFFFFFFFFFFFFFFFFFFFFFFFFFFFFFFFF NOT AND PUSH1 0x20 DUP3 ADD DUP1 MLOAD PUSH28 0xFFFFFFFFFFFFFFFFFFFFFFFFFFFFFFFFFFFFFFFFFFFFFFFFFFFFFFFF DUP4 DUP2 DUP4 AND OR DUP4 MSTORE POP POP POP POP PUSH1 0x40 MLOAD PUSH2 0x868 SWAP2 SWAP1 PUSH2 0x1B8B JUMP JUMPDEST PUSH0 PUSH1 0x40 MLOAD DUP1 DUP4 SUB DUP2 PUSH0 DUP7 GAS CALL SWAP2 POP POP RETURNDATASIZE DUP1 PUSH0 DUP2 EQ PUSH2 0x8A1 JUMPI PUSH1 0x40 MLOAD SWAP2 POP PUSH1 0x1F NOT PUSH1 0x3F RETURNDATASIZE ADD AND DUP3 ADD PUSH1 0x40 MSTORE RETURNDATASIZE DUP3 MSTORE RETURNDATASIZE PUSH0 PUSH1 0x20 DUP5 ADD RETURNDATACOPY PUSH2 0x8A6 JUMP JUMPDEST PUSH1 0x60 SWAP2 POP JUMPDEST POP POP SWAP1 POP DUP1 PUSH2 0x8EA JUMPI PUSH1 0x40 MLOAD PUSH32 0x8C379A000000000000000000000000000000000000000000000000000000000 DUP2 MSTORE PUSH1 0x4 ADD PUSH2 0x8E1 SWAP1 PUSH2 0x1BEB JUMP JUMPDEST PUSH1 0x40 MLOAD DUP1 SWAP2 SUB SWAP1 REVERT JUMPDEST POP PUSH2 0x1003 JUMP JUMPDEST PUSH1 0x1 PUSH1 0x3 DUP2 GT ISZERO PUSH2 0x904 JUMPI PUSH2 0x903 PUSH2 0x15BE JUMP JUMPDEST JUMPDEST DUP3 PUSH1 0x1 ADD PUSH0 SWAP1 SLOAD SWAP1 PUSH2 0x100 EXP SWAP1 DIV PUSH1 0xFF AND PUSH1 0x3 DUP2 GT ISZERO PUSH2 0x927 JUMPI PUSH2 0x926 PUSH2 0x15BE JUMP JUMPDEST JUMPDEST SUB PUSH2 0xAAC JUMPI PUSH0 PUSH1 0x2 PUSH0 SWAP1 SLOAD SWAP1 PUSH2 0x100 EXP SWAP1 DIV PUSH20 0xFFFFFFFFFFFFFFFFFFFFFFFFFFFFFFFFFFFFFFFF AND PUSH20 0xFFFFFFFFFFFFFFFFFFFFFFFFFFFFFFFFFFFFFFFF AND DUP4 PUSH1 0x1 ADD PUSH1 0x1 SWAP1 SLOAD SWAP1 PUSH2 0x100 EXP SWAP1 DIV PUSH20 0xFFFFFFFFFFFFFFFFFFFFFFFFFFFFFFFFFFFFFFFF AND PUSH1 0x40 MLOAD PUSH1 0x24 ADD PUSH2 0x99A SWAP2 SWAP1 PUSH2 0x17D4 JUMP JUMPDEST PUSH1 0x40 MLOAD PUSH1 0x20 DUP2 DUP4 SUB SUB DUP2 MSTORE SWAP1 PUSH1 0x40 MSTORE PUSH32 0x1C67494E00000000000000000000000000000000000000000000000000000000 PUSH28 0xFFFFFFFFFFFFFFFFFFFFFFFFFFFFFFFFFFFFFFFFFFFFFFFFFFFFFFFF NOT AND PUSH1 0x20 DUP3 ADD DUP1 MLOAD PUSH28 0xFFFFFFFFFFFFFFFFFFFFFFFFFFFFFFFFFFFFFFFFFFFFFFFFFFFFFFFF DUP4 DUP2 DUP4 AND OR DUP4 MSTORE POP POP POP POP PUSH1 0x40 MLOAD PUSH2 0xA24 SWAP2 SWAP1 PUSH2 0x1B8B JUMP JUMPDEST PUSH0 PUSH1 0x40 MLOAD DUP1 DUP4 SUB DUP2 PUSH0 DUP7 GAS CALL SWAP2 POP POP RETURNDATASIZE DUP1 PUSH0 DUP2 EQ PUSH2 0xA5D JUMPI PUSH1 0x40 MLOAD SWAP2 POP PUSH1 0x1F NOT PUSH1 0x3F RETURNDATASIZE ADD AND DUP3 ADD PUSH1 0x40 MSTORE RETURNDATASIZE DUP3 MSTORE RETURNDATASIZE PUSH0 PUSH1 0x20 DUP5 ADD RETURNDATACOPY PUSH2 0xA62 JUMP JUMPDEST PUSH1 0x60 SWAP2 POP JUMPDEST POP POP SWAP1 POP DUP1 PUSH2 0xAA6 JUMPI PUSH1 0x40 MLOAD PUSH32 0x8C379A000000000000000000000000000000000000000000000000000000000 DUP2 MSTORE PUSH1 0x4 ADD PUSH2 0xA9D SWAP1 PUSH2 0x1C53 JUMP JUMPDEST PUSH1 0x40 MLOAD DUP1 SWAP2 SUB SWAP1 REVERT JUMPDEST POP PUSH2 0x1002 JUMP JUMPDEST PUSH1 0x2 PUSH1 0x3 DUP2 GT ISZERO PUSH2 0xAC0 JUMPI PUSH2 0xABF PUSH2 0x15BE JUMP JUMPDEST JUMPDEST DUP3 PUSH1 0x1 ADD PUSH0 SWAP1 SLOAD SWAP1 PUSH2 0x100 EXP SWAP1 DIV PUSH1 0xFF AND PUSH1 0x3 DUP2 GT ISZERO PUSH2 0xAE3 JUMPI PUSH2 0xAE2 PUSH2 0x15BE JUMP JUMPDEST JUMPDEST SUB PUSH2 0xC96 JUMPI PUSH0 DUP3 PUSH1 0x1 ADD PUSH1 0x1 SWAP1 SLOAD SWAP1 PUSH2 0x100 EXP SWAP1 DIV PUSH20 0xFFFFFFFFFFFFFFFFFFFFFFFFFFFFFFFFFFFFFFFF AND SWAP1 POP PUSH0 PUSH0 DUP3 PUSH20 0xFFFFFFFFFFFFFFFFFFFFFFFFFFFFFFFFFFFFFFFF AND PUSH20 0xFFFFFFFFFFFFFFFFFFFFFFFFFFFFFFFFFFFFFFFF AND DUP2 MSTORE PUSH1 0x20 ADD SWAP1 DUP2 MSTORE PUSH1 0x20 ADD PUSH0 KECCAK256 PUSH0 SWAP1 SLOAD SWAP1 PUSH2 0x100 EXP SWAP1 DIV PUSH1 0xFF AND ISZERO PUSH2 0xB99 JUMPI PUSH1 0x40 MLOAD PUSH32 0x8C379A000000000000000000000000000000000000000000000000000000000 DUP2 MSTORE PUSH1 0x4 ADD PUSH2 0xB90 SWAP1 PUSH2 0x1CBB JUMP JUMPDEST PUSH1 0x40 MLOAD DUP1 SWAP2 SUB SWAP1 REVERT JUMPDEST PUSH1 0x1 PUSH0 PUSH0 DUP4 PUSH20 0xFFFFFFFFFFFFFFFFFFFFFFFFFFFFFFFFFFFFFFFF AND PUSH20 0xFFFFFFFFFFFFFFFFFFFFFFFFFFFFFFFFFFFFFFFF AND DUP2 MSTORE PUSH1 0x20 ADD SWAP1 DUP2 MSTORE PUSH1 0x20 ADD PUSH0 KECCAK256 PUSH0 PUSH2 0x100 EXP DUP2 SLOAD DUP2 PUSH1 0xFF MUL NOT AND SWAP1 DUP4 ISZERO ISZERO MUL OR SWAP1 SSTORE POP PUSH1 0x1 DUP2 SWAP1 DUP1 PUSH1 0x1 DUP2 SLOAD ADD DUP1 DUP3 SSTORE DUP1 SWAP2 POP POP PUSH1 0x1 SWAP1 SUB SWAP1 PUSH0 MSTORE PUSH1 0x20 PUSH0 KECCAK256 ADD PUSH0 SWAP1 SWAP2 SWAP1 SWAP2 SWAP1 SWAP2 PUSH2 0x100 EXP DUP2 SLOAD DUP2 PUSH20 0xFFFFFFFFFFFFFFFFFFFFFFFFFFFFFFFFFFFFFFFF MUL NOT AND SWAP1 DUP4 PUSH20 0xFFFFFFFFFFFFFFFFFFFFFFFFFFFFFFFFFFFFFFFF AND MUL OR SWAP1 SSTORE POP DUP1 PUSH20 0xFFFFFFFFFFFFFFFFFFFFFFFFFFFFFFFFFFFFFFFF AND PUSH32 0xDC5A48D79E2E147530FF63ECDBED5A5A66ADB9D5CF339384D5D076DA197C40B5 PUSH1 0x40 MLOAD PUSH1 0x40 MLOAD DUP1 SWAP2 SUB SWAP1 LOG2 POP PUSH2 0x1001 JUMP JUMPDEST PUSH1 0x3 DUP1 DUP2 GT ISZERO PUSH2 0xCA9 JUMPI PUSH2 0xCA8 PUSH2 0x15BE JUMP JUMPDEST JUMPDEST DUP3 PUSH1 0x1 ADD PUSH0 SWAP1 SLOAD SWAP1 PUSH2 0x100 EXP SWAP1 DIV PUSH1 0xFF AND PUSH1 0x3 DUP2 GT ISZERO PUSH2 0xCCC JUMPI PUSH2 0xCCB PUSH2 0x15BE JUMP JUMPDEST JUMPDEST SUB PUSH2 0x1000 JUMPI PUSH0 DUP3 PUSH1 0x1 ADD PUSH1 0x1 SWAP1 SLOAD SWAP1 PUSH2 0x100 EXP SWAP1 DIV PUSH20 0xFFFFFFFFFFFFFFFFFFFFFFFFFFFFFFFFFFFFFFFF AND SWAP1 POP PUSH0 PUSH0 DUP3 PUSH20 0xFFFFFFFFFFFFFFFFFFFFFFFFFFFFFFFFFFFFFFFF AND PUSH20 0xFFFFFFFFFFFFFFFFFFFFFFFFFFFFFFFFFFFFFFFF AND DUP2 MSTORE PUSH1 0x20 ADD SWAP1 DUP2 MSTORE PUSH1 0x20 ADD PUSH0 KECCAK256 PUSH0 SWAP1 SLOAD SWAP1 PUSH2 0x100 EXP SWAP1 DIV PUSH1 0xFF AND PUSH2 0xD81 JUMPI PUSH1 0x40 MLOAD PUSH32 0x8C379A000000000000000000000000000000000000000000000000000000000 DUP2 MSTORE PUSH1 0x4 ADD PUSH2 0xD78 SWAP1 PUSH2 0x18D3 JUMP JUMPDEST PUSH1 0x40 MLOAD DUP1 SWAP2 SUB SWAP1 REVERT JUMPDEST PUSH1 0x2 PUSH1 0x1 DUP1 SLOAD SWAP1 POP LT ISZERO PUSH2 0xDCA JUMPI PUSH1 0x40 MLOAD PUSH32 0x8C379A000000000000000000000000000000000000000000000000000000000 DUP2 MSTORE PUSH1 0x4 ADD PUSH2 0xDC1 SWAP1 PUSH2 0x1D49 JUMP JUMPDEST PUSH1 0x40 MLOAD DUP1 SWAP2 SUB SWAP1 REVERT JUMPDEST PUSH0 PUSH0 PUSH0 DUP4 PUSH20 0xFFFFFFFFFFFFFFFFFFFFFFFFFFFFFFFFFFFFFFFF AND PUSH20 0xFFFFFFFFFFFFFFFFFFFFFFFFFFFFFFFFFFFFFFFF AND DUP2 MSTORE PUSH1 0x20 ADD SWAP1 DUP2 MSTORE PUSH1 0x20 ADD PUSH0 KECCAK256 PUSH0 PUSH2 0x100 EXP DUP2 SLOAD DUP2 PUSH1 0xFF MUL NOT AND SWAP1 DUP4 ISZERO ISZERO MUL OR SWAP1 SSTORE POP PUSH0 PUSH1 0x1 DUP1 SLOAD SWAP1 POP SWAP1 POP PUSH0 PUSH0 SWAP1 POP JUMPDEST DUP2 DUP2 LT ISZERO PUSH2 0xF95 JUMPI DUP3 PUSH20 0xFFFFFFFFFFFFFFFFFFFFFFFFFFFFFFFFFFFFFFFF AND PUSH1 0x1 DUP3 DUP2 SLOAD DUP2 LT PUSH2 0xE5E JUMPI PUSH2 0xE5D PUSH2 0x18F1 JUMP JUMPDEST JUMPDEST SWAP1 PUSH0 MSTORE PUSH1 0x20 PUSH0 KECCAK256 ADD PUSH0 SWAP1 SLOAD SWAP1 PUSH2 0x100 EXP SWAP1 DIV PUSH20 0xFFFFFFFFFFFFFFFFFFFFFFFFFFFFFFFFFFFFFFFF AND PUSH20 0xFFFFFFFFFFFFFFFFFFFFFFFFFFFFFFFFFFFFFFFF AND SUB PUSH2 0xF8A JUMPI PUSH1 0x1 DUP1 DUP4 PUSH2 0xEAF SWAP2 SWAP1 PUSH2 0x1D67 JUMP JUMPDEST DUP2 SLOAD DUP2 LT PUSH2 0xEC0 JUMPI PUSH2 0xEBF PUSH2 0x18F1 JUMP JUMPDEST JUMPDEST SWAP1 PUSH0 MSTORE PUSH1 0x20 PUSH0 KECCAK256 ADD PUSH0 SWAP1 SLOAD SWAP1 PUSH2 0x100 EXP SWAP1 DIV PUSH20 0xFFFFFFFFFFFFFFFFFFFFFFFFFFFFFFFFFFFFFFFF AND PUSH1 0x1 DUP3 DUP2 SLOAD DUP2 LT PUSH2 0xEFC JUMPI PUSH2 0xEFB PUSH2 0x18F1 JUMP JUMPDEST JUMPDEST SWAP1 PUSH0 MSTORE PUSH1 0x20 PUSH0 KECCAK256 ADD PUSH0 PUSH2 0x100 EXP DUP2 SLOAD DUP2 PUSH20 0xFFFFFFFFFFFFFFFFFFFFFFFFFFFFFFFFFFFFFFFF MUL NOT AND SWAP1 DUP4 PUSH20 0xFFFFFFFFFFFFFFFFFFFFFFFFFFFFFFFFFFFFFFFF AND MUL OR SWAP1 SSTORE POP PUSH1 0x1 DUP1 SLOAD DUP1 PUSH2 0xF53 JUMPI PUSH2 0xF52 PUSH2 0x1D9A JUMP JUMPDEST JUMPDEST PUSH1 0x1 SWAP1 SUB DUP2 DUP2 SWAP1 PUSH0 MSTORE PUSH1 0x20 PUSH0 KECCAK256 ADD PUSH0 PUSH2 0x100 EXP DUP2 SLOAD SWAP1 PUSH20 0xFFFFFFFFFFFFFFFFFFFFFFFFFFFFFFFFFFFFFFFF MUL NOT AND SWAP1 SSTORE SWAP1 SSTORE PUSH2 0xF95 JUMP JUMPDEST DUP1 PUSH1 0x1 ADD SWAP1 POP PUSH2 0xE2B JUMP JUMPDEST POP DUP4 PUSH1 0x1 ADD PUSH1 0x1 SWAP1 SLOAD SWAP1 PUSH2 0x100 EXP SWAP1 DIV PUSH20 0xFFFFFFFFFFFFFFFFFFFFFFFFFFFFFFFFFFFFFFFF AND PUSH20 0xFFFFFFFFFFFFFFFFFFFFFFFFFFFFFFFFFFFFFFFF AND PUSH32 0x1EBE834E73D60A5FEC822C1E1727D34BC79F2AD977ED504581CC1822FE20FB5B PUSH1 0x40 MLOAD PUSH1 0x40 MLOAD DUP1 SWAP2 SUB SWAP1 LOG2 POP POP JUMPDEST JUMPDEST JUMPDEST JUMPDEST PUSH1 0x1 DUP3 PUSH1 0x4 ADD PUSH0 PUSH2 0x100 EXP DUP2 SLOAD DUP2 PUSH1 0xFF MUL NOT AND SWAP1 DUP4 ISZERO ISZERO MUL OR SWAP1 SSTORE POP DUP3 PUSH32 0x712AE1383F79AC853F8D882153778E0260EF8F03B504E2866E0593E04D2B291F PUSH1 0x40 MLOAD PUSH1 0x40 MLOAD DUP1 SWAP2 SUB SWAP1 LOG2 POP POP POP JUMP JUMPDEST PUSH0 PUSH1 0x1 PUSH1 0x2 PUSH1 0x1 DUP1 SLOAD SWAP1 POP PUSH2 0x1066 SWAP2 SWAP1 PUSH2 0x1A7B JUMP JUMPDEST PUSH2 0x1070 SWAP2 SWAP1 PUSH2 0x1A1B JUMP JUMPDEST SWAP1 POP SWAP1 JUMP JUMPDEST PUSH0 PUSH0 PUSH0 PUSH0 PUSH0 PUSH0 PUSH1 0x3 DUP8 DUP2 SLOAD DUP2 LT PUSH2 0x108F JUMPI PUSH2 0x108E PUSH2 0x18F1 JUMP JUMPDEST JUMPDEST SWAP1 PUSH0 MSTORE PUSH1 0x20 PUSH0 KECCAK256 SWAP1 PUSH1 0x6 MUL ADD SWAP1 POP DUP1 PUSH1 0x1 ADD PUSH0 SWAP1 SLOAD SWAP1 PUSH2 0x100 EXP SWAP1 DIV PUSH1 0xFF AND DUP2 PUSH1 0x1 ADD PUSH1 0x1 SWAP1 SLOAD SWAP1 PUSH2 0x100 EXP SWAP1 DIV PUSH20 0xFFFFFFFFFFFFFFFFFFFFFFFFFFFFFFFFFFFFFFFF AND DUP3 PUSH1 0x2 ADD SLOAD DUP4 PUSH1 0x3 ADD SLOAD DUP5 PUSH1 0x4 ADD PUSH0 SWAP1 SLOAD SWAP1 PUSH2 0x100 EXP SWAP1 DIV PUSH1 0xFF AND SWAP6 POP SWAP6 POP SWAP6 POP SWAP6 POP SWAP6 POP POP SWAP2 SWAP4 SWAP6 SWAP1 SWAP3 SWAP5 POP JUMP JUMPDEST PUSH0 PUSH1 0x3 DUP4 DUP2 SLOAD DUP2 LT PUSH2 0x1117 JUMPI PUSH2 0x1116 PUSH2 0x18F1 JUMP JUMPDEST JUMPDEST SWAP1 PUSH0 MSTORE PUSH1 0x20 PUSH0 KECCAK256 SWAP1 PUSH1 0x6 MUL ADD PUSH1 0x5 ADD PUSH0 DUP4 PUSH20 0xFFFFFFFFFFFFFFFFFFFFFFFFFFFFFFFFFFFFFFFF AND PUSH20 0xFFFFFFFFFFFFFFFFFFFFFFFFFFFFFFFFFFFFFFFF AND DUP2 MSTORE PUSH1 0x20 ADD SWAP1 DUP2 MSTORE PUSH1 0x20 ADD PUSH0 KECCAK256 PUSH0 SWAP1 SLOAD SWAP1 PUSH2 0x100 EXP SWAP1 DIV PUSH1 0xFF AND SWAP1 POP SWAP3 SWAP2 POP POP JUMP JUMPDEST PUSH0 PUSH0 PUSH1 0x3 DUP4 DUP2 SLOAD DUP2 LT PUSH2 0x118C JUMPI PUSH2 0x118B PUSH2 0x18F1 JUMP JUMPDEST JUMPDEST SWAP1 PUSH0 MSTORE PUSH1 0x20 PUSH0 KECCAK256 SWAP1 PUSH1 0x6 MUL ADD SWAP1 POP PUSH1 0x1 PUSH1 0x2 DUP3 PUSH1 0x3 ADD SLOAD PUSH2 0x11AD SWAP2 SWAP1 PUSH2 0x1A7B JUMP JUMPDEST PUSH2 0x11B7 SWAP2 SWAP1 PUSH2 0x1A1B JUMP JUMPDEST SWAP2 POP POP SWAP2 SWAP1 POP JUMP JUMPDEST PUSH1 0x1 DUP2 DUP2 SLOAD DUP2 LT PUSH2 0x11CE JUMPI PUSH0 DUP1 REVERT JUMPDEST SWAP1 PUSH0 MSTORE PUSH1 0x20 PUSH0 KECCAK256 ADD PUSH0 SWAP2 POP SLOAD SWAP1 PUSH2 0x100 EXP SWAP1 DIV PUSH20 0xFFFFFFFFFFFFFFFFFFFFFFFFFFFFFFFFFFFFFFFF AND DUP2 JUMP JUMPDEST PUSH0 PUSH0 PUSH0 CALLER PUSH20 0xFFFFFFFFFFFFFFFFFFFFFFFFFFFFFFFFFFFFFFFF AND PUSH20 0xFFFFFFFFFFFFFFFFFFFFFFFFFFFFFFFFFFFFFFFF AND DUP2 MSTORE PUSH1 0x20 ADD SWAP1 DUP2 MSTORE PUSH1 0x20 ADD PUSH0 KECCAK256 PUSH0 SWAP1 SLOAD SWAP1 PUSH2 0x100 EXP SWAP1 DIV PUSH1 0xFF AND PUSH2 0x1283 JUMPI PUSH1 0x40 MLOAD PUSH32 0x8C379A000000000000000000000000000000000000000000000000000000000 DUP2 MSTORE PUSH1 0x4 ADD PUSH2 0x127A SWAP1 PUSH2 0x18D3 JUMP JUMPDEST PUSH1 0x40 MLOAD DUP1 SWAP2 SUB SWAP1 REVERT JUMPDEST PUSH0 PUSH1 0x3 DUP1 SLOAD SWAP1 POP SWAP1 POP PUSH0 PUSH1 0x3 PUSH1 0x1 DUP2 PUSH1 0x1 DUP2 SLOAD ADD DUP1 DUP3 SSTORE DUP1 SWAP2 POP POP SUB SWAP1 PUSH0 MSTORE PUSH1 0x20 PUSH0 KECCAK256 SWAP1 PUSH1 0x6 MUL ADD SWAP1 POP DUP2 DUP2 PUSH0 ADD DUP2 SWAP1 SSTORE POP DUP5 DUP2 PUSH1 0x1 ADD PUSH0 PUSH2 0x100 EXP DUP2 SLOAD DUP2 PUSH1 0xFF MUL NOT AND SWAP1 DUP4 PUSH1 0x3 DUP2 GT ISZERO PUSH2 0x12DB JUMPI PUSH2 0x12DA PUSH2 0x15BE JUMP JUMPDEST JUMPDEST MUL OR SWAP1 SSTORE POP DUP4 DUP2 PUSH1 0x1 ADD PUSH1 0x1 PUSH2 0x100 EXP DUP2 SLOAD DUP2 PUSH20 0xFFFFFFFFFFFFFFFFFFFFFFFFFFFFFFFFFFFFFFFF MUL NOT AND SWAP1 DUP4 PUSH20 0xFFFFFFFFFFFFFFFFFFFFFFFFFFFFFFFFFFFFFFFF AND MUL OR SWAP1 SSTORE POP PUSH0 DUP2 PUSH1 0x2 ADD DUP2 SWAP1 SSTORE POP PUSH1 0x1 DUP1 SLOAD SWAP1 POP DUP2 PUSH1 0x3 ADD DUP2 SWAP1 SSTORE POP PUSH0 DUP2 PUSH1 0x4 ADD PUSH0 PUSH2 0x100 EXP DUP2 SLOAD DUP2 PUSH1 0xFF MUL NOT AND SWAP1 DUP4 ISZERO ISZERO MUL OR SWAP1 SSTORE POP DUP2 PUSH32 0x3263432A41F78A4701CC9465F62411ED717ADE32290C084135A3DD6B29F4BF28 DUP7 DUP7 PUSH1 0x40 MLOAD PUSH2 0x1387 SWAP3 SWAP2 SWAP1 PUSH2 0x1DC7 JUMP JUMPDEST PUSH1 0x40 MLOAD DUP1 SWAP2 SUB SWAP1 LOG2 DUP2 SWAP3 POP POP POP SWAP3 SWAP2 POP POP JUMP JUMPDEST PUSH0 PUSH1 0x3 DUP1 SLOAD SWAP1 POP SWAP1 POP SWAP1 JUMP JUMPDEST PUSH1 0x2 PUSH0 SWAP1 SLOAD SWAP1 PUSH2 0x100 EXP SWAP1 DIV PUSH20 0xFFFFFFFFFFFFFFFFFFFFFFFFFFFFFFFFFFFFFFFF AND DUP2 JUMP JUMPDEST PUSH0 PUSH0 CALLER PUSH20 0xFFFFFFFFFFFFFFFFFFFFFFFFFFFFFFFFFFFFFFFF AND PUSH20 0xFFFFFFFFFFFFFFFFFFFFFFFFFFFFFFFFFFFFFFFF AND DUP2 MSTORE PUSH1 0x20 ADD SWAP1 DUP2 MSTORE PUSH1 0x20 ADD PUSH0 KECCAK256 PUSH0 SWAP1 SLOAD SWAP1 PUSH2 0x100 EXP SWAP1 DIV PUSH1 0xFF AND PUSH2 0x1453 JUMPI PUSH1 0x40 MLOAD PUSH32 0x8C379A000000000000000000000000000000000000000000000000000000000 DUP2 MSTORE PUSH1 0x4 ADD PUSH2 0x144A SWAP1 PUSH2 0x18D3 JUMP JUMPDEST PUSH1 0x40 MLOAD DUP1 SWAP2 SUB SWAP1 REVERT JUMPDEST PUSH0 PUSH20 0xFFFFFFFFFFFFFFFFFFFFFFFFFFFFFFFFFFFFFFFF AND PUSH1 0x2 PUSH0 SWAP1 SLOAD SWAP1 PUSH2 0x100 EXP SWAP1 DIV PUSH20 0xFFFFFFFFFFFFFFFFFFFFFFFFFFFFFFFFFFFFFFFF AND PUSH20 0xFFFFFFFFFFFFFFFFFFFFFFFFFFFFFFFFFFFFFFFF AND EQ PUSH2 0x14E2 JUMPI PUSH1 0x40 MLOAD PUSH32 0x8C379A000000000000000000000000000000000000000000000000000000000 DUP2 MSTORE PUSH1 0x4 ADD PUSH2 0x14D9 SWAP1 PUSH2 0x1E38 JUMP JUMPDEST PUSH1 0x40 MLOAD DUP1 SWAP2 SUB SWAP1 REVERT JUMPDEST DUP1 PUSH1 0x2 PUSH0 PUSH2 0x100 EXP DUP2 SLOAD DUP2 PUSH20 0xFFFFFFFFFFFFFFFFFFFFFFFFFFFFFFFFFFFFFFFF MUL NOT AND SWAP1 DUP4 PUSH20 0xFFFFFFFFFFFFFFFFFFFFFFFFFFFFFFFFFFFFFFFF AND MUL OR SWAP1 SSTORE POP POP JUMP JUMPDEST PUSH0 PUSH1 0x20 MSTORE DUP1 PUSH0 MSTORE PUSH1 0x40 PUSH0 KECCAK256 PUSH0 SWAP2 POP SLOAD SWAP1 PUSH2 0x100 EXP SWAP1 DIV PUSH1 0xFF AND DUP2 JUMP JUMPDEST PUSH0 PUSH1 0x1 DUP1 SLOAD SWAP1 POP SWAP1 POP SWAP1 JUMP JUMPDEST PUSH0 PUSH0 REVERT JUMPDEST PUSH0 DUP2 SWAP1 POP SWAP2 SWAP1 POP JUMP JUMPDEST PUSH2 0x1563 DUP2 PUSH2 0x1551 JUMP JUMPDEST DUP2 EQ PUSH2 0x156D JUMPI PUSH0 PUSH0 REVERT JUMPDEST POP JUMP JUMPDEST PUSH0 DUP2 CALLDATALOAD SWAP1 POP PUSH2 0x157E DUP2 PUSH2 0x155A JUMP JUMPDEST SWAP3 SWAP2 POP POP JUMP JUMPDEST PUSH0 PUSH1 0x20 DUP3 DUP5 SUB SLT ISZERO PUSH2 0x1599 JUMPI PUSH2 0x1598 PUSH2 0x154D JUMP JUMPDEST JUMPDEST PUSH0 PUSH2 0x15A6 DUP5 DUP3 DUP6 ADD PUSH2 0x1570 JUMP JUMPDEST SWAP2 POP POP SWAP3 SWAP2 POP POP JUMP JUMPDEST PUSH2 0x15B8 DUP2 PUSH2 0x1551 JUMP JUMPDEST DUP3 MSTORE POP POP JUMP JUMPDEST PUSH32 0x4E487B7100000000000000000000000000000000000000000000000000000000 PUSH0 MSTORE PUSH1 0x21 PUSH1 0x4 MSTORE PUSH1 0x24 PUSH0 REVERT JUMPDEST PUSH1 0x4 DUP2 LT PUSH2 0x15FC JUMPI PUSH2 0x15FB PUSH2 0x15BE JUMP JUMPDEST JUMPDEST POP JUMP JUMPDEST PUSH0 DUP2 SWAP1 POP PUSH2 0x160C DUP3 PUSH2 0x15EB JUMP JUMPDEST SWAP2 SWAP1 POP JUMP JUMPDEST PUSH0 PUSH2 0x161B DUP3 PUSH2 0x15FF JUMP JUMPDEST SWAP1 POP SWAP2 SWAP1 POP JUMP JUMPDEST PUSH2 0x162B DUP2 PUSH2 0x1611 JUMP JUMPDEST DUP3 MSTORE POP POP JUMP JUMPDEST PUSH0 PUSH20 0xFFFFFFFFFFFFFFFFFFFFFFFFFFFFFFFFFFFFFFFF DUP3 AND SWAP1 POP SWAP2 SWAP1 POP JUMP JUMPDEST PUSH0 PUSH2 0x165A DUP3 PUSH2 0x1631 JUMP JUMPDEST SWAP1 POP SWAP2 SWAP1 POP JUMP JUMPDEST PUSH2 0x166A DUP2 PUSH2 0x1650 JUMP JUMPDEST DUP3 MSTORE POP POP JUMP JUMPDEST PUSH0 DUP2 ISZERO ISZERO SWAP1 POP SWAP2 SWAP1 POP JUMP JUMPDEST PUSH2 0x1684 DUP2 PUSH2 0x1670 JUMP JUMPDEST DUP3 MSTORE POP POP JUMP JUMPDEST PUSH0 PUSH1 0xC0 DUP3 ADD SWAP1 POP PUSH2 0x169D PUSH0 DUP4 ADD DUP10 PUSH2 0x15AF JUMP JUMPDEST PUSH2 0x16AA PUSH1 0x20 DUP4 ADD DUP9 PUSH2 0x1622 JUMP JUMPDEST PUSH2 0x16B7 PUSH1 0x40 DUP4 ADD DUP8 PUSH2 0x1661 JUMP JUMPDEST PUSH2 0x16C4 PUSH1 0x60 DUP4 ADD DUP7 PUSH2 0x15AF JUMP JUMPDEST PUSH2 0x16D1 PUSH1 0x80 DUP4 ADD DUP6 PUSH2 0x15AF JUMP JUMPDEST PUSH2 0x16DE PUSH1 0xA0 DUP4 ADD DUP5 PUSH2 0x167B JUMP JUMPDEST SWAP8 SWAP7 POP POP POP POP POP POP POP JUMP JUMPDEST PUSH0 PUSH1 0x20 DUP3 ADD SWAP1 POP PUSH2 0x16FC PUSH0 DUP4 ADD DUP5 PUSH2 0x15AF JUMP JUMPDEST SWAP3 SWAP2 POP POP JUMP JUMPDEST PUSH0 PUSH1 0xA0 DUP3 ADD SWAP1 POP PUSH2 0x1715 PUSH0 DUP4 ADD DUP9 PUSH2 0x1622 JUMP JUMPDEST PUSH2 0x1722 PUSH1 0x20 DUP4 ADD DUP8 PUSH2 0x1661 JUMP JUMPDEST PUSH2 0x172F PUSH1 0x40 DUP4 ADD DUP7 PUSH2 0x15AF JUMP JUMPDEST PUSH2 0x173C PUSH1 0x60 DUP4 ADD DUP6 PUSH2 0x15AF JUMP JUMPDEST PUSH2 0x1749 PUSH1 0x80 DUP4 ADD DUP5 PUSH2 0x167B JUMP JUMPDEST SWAP7 SWAP6 POP POP POP POP POP POP JUMP JUMPDEST PUSH2 0x175C DUP2 PUSH2 0x1650 JUMP JUMPDEST DUP2 EQ PUSH2 0x1766 JUMPI PUSH0 PUSH0 REVERT JUMPDEST POP JUMP JUMPDEST PUSH0 DUP2 CALLDATALOAD SWAP1 POP PUSH2 0x1777 DUP2 PUSH2 0x1753 JUMP JUMPDEST SWAP3 SWAP2 POP POP JUMP JUMPDEST PUSH0 PUSH0 PUSH1 0x40 DUP4 DUP6 SUB SLT ISZERO PUSH2 0x1793 JUMPI PUSH2 0x1792 PUSH2 0x154D JUMP JUMPDEST JUMPDEST PUSH0 PUSH2 0x17A0 DUP6 DUP3 DUP7 ADD PUSH2 0x1570 JUMP JUMPDEST SWAP3 POP POP PUSH1 0x20 PUSH2 0x17B1 DUP6 DUP3 DUP7 ADD PUSH2 0x1769 JUMP JUMPDEST SWAP2 POP POP SWAP3 POP SWAP3 SWAP1 POP JUMP JUMPDEST PUSH0 PUSH1 0x20 DUP3 ADD SWAP1 POP PUSH2 0x17CE PUSH0 DUP4 ADD DUP5 PUSH2 0x167B JUMP JUMPDEST SWAP3 SWAP2 POP POP JUMP JUMPDEST PUSH0 PUSH1 0x20 DUP3 ADD SWAP1 POP PUSH2 0x17E7 PUSH0 DUP4 ADD DUP5 PUSH2 0x1661 JUMP JUMPDEST SWAP3 SWAP2 POP POP JUMP JUMPDEST PUSH1 0x4 DUP2 LT PUSH2 0x17F9 JUMPI PUSH0 PUSH0 REVERT JUMPDEST POP JUMP JUMPDEST PUSH0 DUP2 CALLDATALOAD SWAP1 POP PUSH2 0x180A DUP2 PUSH2 0x17ED JUMP JUMPDEST SWAP3 SWAP2 POP POP JUMP JUMPDEST PUSH0 PUSH0 PUSH1 0x40 DUP4 DUP6 SUB SLT ISZERO PUSH2 0x1826 JUMPI PUSH2 0x1825 PUSH2 0x154D JUMP JUMPDEST JUMPDEST PUSH0 PUSH2 0x1833 DUP6 DUP3 DUP7 ADD PUSH2 0x17FC JUMP JUMPDEST SWAP3 POP POP PUSH1 0x20 PUSH2 0x1844 DUP6 DUP3 DUP7 ADD PUSH2 0x1769 JUMP JUMPDEST SWAP2 POP POP SWAP3 POP SWAP3 SWAP1 POP JUMP JUMPDEST PUSH0 PUSH1 0x20 DUP3 DUP5 SUB SLT ISZERO PUSH2 0x1863 JUMPI PUSH2 0x1862 PUSH2 0x154D JUMP JUMPDEST JUMPDEST PUSH0 PUSH2 0x1870 DUP5 DUP3 DUP6 ADD PUSH2 0x1769 JUMP JUMPDEST SWAP2 POP POP SWAP3 SWAP2 POP POP JUMP JUMPDEST PUSH0 DUP3 DUP3 MSTORE PUSH1 0x20 DUP3 ADD SWAP1 POP SWAP3 SWAP2 POP POP JUMP JUMPDEST PUSH32 0x4E6F74206120676F7665726E6F72000000000000000000000000000000000000 PUSH0 DUP3 ADD MSTORE POP JUMP JUMPDEST PUSH0 PUSH2 0x18BD PUSH1 0xE DUP4 PUSH2 0x1879 JUMP JUMPDEST SWAP2 POP PUSH2 0x18C8 DUP3 PUSH2 0x1889 JUMP JUMPDEST PUSH1 0x20 DUP3 ADD SWAP1 POP SWAP2 SWAP1 POP JUMP JUMPDEST PUSH0 PUSH1 0x20 DUP3 ADD SWAP1 POP DUP2 DUP2 SUB PUSH0 DUP4 ADD MSTORE PUSH2 0x18EA DUP2 PUSH2 0x18B1 JUMP JUMPDEST SWAP1 POP SWAP2 SWAP1 POP JUMP JUMPDEST PUSH32 0x4E487B7100000000000000000000000000000000000000000000000000000000 PUSH0 MSTORE PUSH1 0x32 PUSH1 0x4 MSTORE PUSH1 0x24 PUSH0 REVERT JUMPDEST PUSH32 0x476F7665726E6F7220616C726561647920766F74656400000000000000000000 PUSH0 DUP3 ADD MSTORE POP JUMP JUMPDEST PUSH0 PUSH2 0x1952 PUSH1 0x16 DUP4 PUSH2 0x1879 JUMP JUMPDEST SWAP2 POP PUSH2 0x195D DUP3 PUSH2 0x191E JUMP JUMPDEST PUSH1 0x20 DUP3 ADD SWAP1 POP SWAP2 SWAP1 POP JUMP JUMPDEST PUSH0 PUSH1 0x20 DUP3 ADD SWAP1 POP DUP2 DUP2 SUB PUSH0 DUP4 ADD MSTORE PUSH2 0x197F DUP2 PUSH2 0x1946 JUMP JUMPDEST SWAP1 POP SWAP2 SWAP1 POP JUMP JUMPDEST PUSH32 0x50726F706F73616C20616C726561647920657865637574656400000000000000 PUSH0 DUP3 ADD MSTORE POP JUMP JUMPDEST PUSH0 PUSH2 0x19BA PUSH1 0x19 DUP4 PUSH2 0x1879 JUMP JUMPDEST SWAP2 POP PUSH2 0x19C5 DUP3 PUSH2 0x1986 JUMP JUMPDEST PUSH1 0x20 DUP3 ADD SWAP1 POP SWAP2 SWAP1 POP JUMP JUMPDEST PUSH0 PUSH1 0x20 DUP3 ADD SWAP1 POP DUP2 DUP2 SUB PUSH0 DUP4 ADD MSTORE PUSH2 0x19E7 DUP2 PUSH2 0x19AE JUMP JUMPDEST SWAP1 POP SWAP2 SWAP1 POP JUMP JUMPDEST PUSH32 0x4E487B7100000000000000000000000000000000000000000000000000000000 PUSH0 MSTORE PUSH1 0x11 PUSH1 0x4 MSTORE PUSH1 0x24 PUSH0 REVERT JUMPDEST PUSH0 PUSH2 0x1A25 DUP3 PUSH2 0x1551 JUMP JUMPDEST SWAP2 POP PUSH2 0x1A30 DUP4 PUSH2 0x1551 JUMP JUMPDEST SWAP3 POP DUP3 DUP3 ADD SWAP1 POP DUP1 DUP3 GT ISZERO PUSH2 0x1A48 JUMPI PUSH2 0x1A47 PUSH2 0x19EE JUMP JUMPDEST JUMPDEST SWAP3 SWAP2 POP POP JUMP JUMPDEST PUSH32 0x4E487B7100000000000000000000000000000000000000000000000000000000 PUSH0 MSTORE PUSH1 0x12 PUSH1 0x4 MSTORE PUSH1 0x24 PUSH0 REVERT JUMPDEST PUSH0 PUSH2 0x1A85 DUP3 PUSH2 0x1551 JUMP JUMPDEST SWAP2 POP PUSH2 0x1A90 DUP4 PUSH2 0x1551 JUMP JUMPDEST SWAP3 POP DUP3 PUSH2 0x1AA0 JUMPI PUSH2 0x1A9F PUSH2 0x1A4E JUMP JUMPDEST JUMPDEST DUP3 DUP3 DIV SWAP1 POP SWAP3 SWAP2 POP POP JUMP JUMPDEST PUSH32 0x496E73756666696369656E7420766F74657320746F2065786563757465207072 PUSH0 DUP3 ADD MSTORE PUSH32 0x6F706F73616C0000000000000000000000000000000000000000000000000000 PUSH1 0x20 DUP3 ADD MSTORE POP JUMP JUMPDEST PUSH0 PUSH2 0x1B05 PUSH1 0x26 DUP4 PUSH2 0x1879 JUMP JUMPDEST SWAP2 POP PUSH2 0x1B10 DUP3 PUSH2 0x1AAB JUMP JUMPDEST PUSH1 0x40 DUP3 ADD SWAP1 POP SWAP2 SWAP1 POP JUMP JUMPDEST PUSH0 PUSH1 0x20 DUP3 ADD SWAP1 POP DUP2 DUP2 SUB PUSH0 DUP4 ADD MSTORE PUSH2 0x1B32 DUP2 PUSH2 0x1AF9 JUMP JUMPDEST SWAP1 POP SWAP2 SWAP1 POP JUMP JUMPDEST PUSH0 DUP2 MLOAD SWAP1 POP SWAP2 SWAP1 POP JUMP JUMPDEST PUSH0 DUP2 SWAP1 POP SWAP3 SWAP2 POP POP JUMP JUMPDEST DUP3 DUP2 DUP4 MCOPY PUSH0 DUP4 DUP4 ADD MSTORE POP POP POP JUMP JUMPDEST PUSH0 PUSH2 0x1B65 DUP3 PUSH2 0x1B39 JUMP JUMPDEST PUSH2 0x1B6F DUP2 DUP6 PUSH2 0x1B43 JUMP JUMPDEST SWAP4 POP PUSH2 0x1B7F DUP2 DUP6 PUSH1 0x20 DUP7 ADD PUSH2 0x1B4D JUMP JUMPDEST DUP1 DUP5 ADD SWAP2 POP POP SWAP3 SWAP2 POP POP JUMP JUMPDEST PUSH0 PUSH2 0x1B96 DUP3 DUP5 PUSH2 0x1B5B JUMP JUMPDEST SWAP2 POP DUP2 SWAP1 POP SWAP3 SWAP2 POP POP JUMP JUMPDEST PUSH32 0x417574686F72697A6174696F6E206661696C6564000000000000000000000000 PUSH0 DUP3 ADD MSTORE POP JUMP JUMPDEST PUSH0 PUSH2 0x1BD5 PUSH1 0x14 DUP4 PUSH2 0x1879 JUMP JUMPDEST SWAP2 POP PUSH2 0x1BE0 DUP3 PUSH2 0x1BA1 JUMP JUMPDEST PUSH1 0x20 DUP3 ADD SWAP1 POP SWAP2 SWAP1 POP JUMP JUMPDEST PUSH0 PUSH1 0x20 DUP3 ADD SWAP1 POP DUP2 DUP2 SUB PUSH0 DUP4 ADD MSTORE PUSH2 0x1C02 DUP2 PUSH2 0x1BC9 JUMP JUMPDEST SWAP1 POP SWAP2 SWAP1 POP JUMP JUMPDEST PUSH32 0x5265766F636174696F6E206661696C6564000000000000000000000000000000 PUSH0 DUP3 ADD MSTORE POP JUMP JUMPDEST PUSH0 PUSH2 0x1C3D PUSH1 0x11 DUP4 PUSH2 0x1879 JUMP JUMPDEST SWAP2 POP PUSH2 0x1C48 DUP3 PUSH2 0x1C09 JUMP JUMPDEST PUSH1 0x20 DUP3 ADD SWAP1 POP SWAP2 SWAP1 POP JUMP JUMPDEST PUSH0 PUSH1 0x20 DUP3 ADD SWAP1 POP DUP2 DUP2 SUB PUSH0 DUP4 ADD MSTORE PUSH2 0x1C6A DUP2 PUSH2 0x1C31 JUMP JUMPDEST SWAP1 POP SWAP2 SWAP1 POP JUMP JUMPDEST PUSH32 0x54617267657420697320616C7265616479206120676F7665726E6F7200000000 PUSH0 DUP3 ADD MSTORE POP JUMP JUMPDEST PUSH0 PUSH2 0x1CA5 PUSH1 0x1C DUP4 PUSH2 0x1879 JUMP JUMPDEST SWAP2 POP PUSH2 0x1CB0 DUP3 PUSH2 0x1C71 JUMP JUMPDEST PUSH1 0x20 DUP3 ADD SWAP1 POP SWAP2 SWAP1 POP JUMP JUMPDEST PUSH0 PUSH1 0x20 DUP3 ADD SWAP1 POP DUP2 DUP2 SUB PUSH0 DUP4 ADD MSTORE PUSH2 0x1CD2 DUP2 PUSH2 0x1C99 JUMP JUMPDEST SWAP1 POP SWAP2 SWAP1 POP JUMP JUMPDEST PUSH32 0x54776F20676F7665726E6F72732063616E6E6F742072656D6F76652065616368 PUSH0 DUP3 ADD MSTORE PUSH32 0x206F746865720000000000000000000000000000000000000000000000000000 PUSH1 0x20 DUP3 ADD MSTORE POP JUMP JUMPDEST PUSH0 PUSH2 0x1D33 PUSH1 0x26 DUP4 PUSH2 0x1879 JUMP JUMPDEST SWAP2 POP PUSH2 0x1D3E DUP3 PUSH2 0x1CD9 JUMP JUMPDEST PUSH1 0x40 DUP3 ADD SWAP1 POP SWAP2 SWAP1 POP JUMP JUMPDEST PUSH0 PUSH1 0x20 DUP3 ADD SWAP1 POP DUP2 DUP2 SUB PUSH0 DUP4 ADD MSTORE PUSH2 0x1D60 DUP2 PUSH2 0x1D27 JUMP JUMPDEST SWAP1 POP SWAP2 SWAP1 POP JUMP JUMPDEST PUSH0 PUSH2 0x1D71 DUP3 PUSH2 0x1551 JUMP JUMPDEST SWAP2 POP PUSH2 0x1D7C DUP4 PUSH2 0x1551 JUMP JUMPDEST SWAP3 POP DUP3 DUP3 SUB SWAP1 POP DUP2 DUP2 GT ISZERO PUSH2 0x1D94 JUMPI PUSH2 0x1D93 PUSH2 0x19EE JUMP JUMPDEST JUMPDEST SWAP3 SWAP2 POP POP JUMP JUMPDEST PUSH32 0x4E487B7100000000000000000000000000000000000000000000000000000000 PUSH0 MSTORE PUSH1 0x31 PUSH1 0x4 MSTORE PUSH1 0x24 PUSH0 REVERT JUMPDEST PUSH0 PUSH1 0x40 DUP3 ADD SWAP1 POP PUSH2 0x1DDA PUSH0 DUP4 ADD DUP6 PUSH2 0x1622 JUMP JUMPDEST PUSH2 0x1DE7 PUSH1 0x20 DUP4 ADD DUP5 PUSH2 0x1661 JUMP JUMPDEST SWAP4 SWAP3 POP POP POP JUMP JUMPDEST PUSH32 0x4164647265737320616C72656164792073657400000000000000000000000000 PUSH0 DUP3 ADD MSTORE POP JUMP JUMPDEST PUSH0 PUSH2 0x1E22 PUSH1 0x13 DUP4 PUSH2 0x1879 JUMP JUMPDEST SWAP2 POP PUSH2 0x1E2D DUP3 PUSH2 0x1DEE JUMP JUMPDEST PUSH1 0x20 DUP3 ADD SWAP1 POP SWAP2 SWAP1 POP JUMP JUMPDEST PUSH0 PUSH1 0x20 DUP3 ADD SWAP1 POP DUP2 DUP2 SUB PUSH0 DUP4 ADD MSTORE PUSH2 0x1E4F DUP2 PUSH2 0x1E16 JUMP JUMPDEST SWAP1 POP SWAP2 SWAP1 POP JUMP INVALID LOG2 PUSH5 0x6970667358 0x22 SLT KECCAK256 0x22 PUSH27 0xAEFDAFC63C01E6BCD16C8797496A687BA986115923113DFE4C2406 SWAP2 DUP16 0xB3 PUSH5 0x736F6C6343 STOP ADDMOD 0x1E STOP CALLER "
				},
				"gasEstimates": {
					"creation": {
						"codeDepositCost": "1564000",
						"executionCost": "infinite",
						"totalCost": "infinite"
					},
					"external": {
						"calculateThreshold()": "infinite",
						"eduVerify()": "2530",
						"executeProposal(uint256)": "infinite",
						"getProposalDetails(uint256)": "infinite",
						"getThresholdForProposal(uint256)": "infinite",
						"governorCount()": "2528",
						"governors(uint256)": "4967",
						"hasVoted(uint256,address)": "5302",
						"isGovernor(address)": "2898",
						"proposalCount()": "2507",
						"proposals(uint256)": "infinite",
						"propose(uint8,address)": "infinite",
						"setEduVerifyAddress(address)": "29166",
						"vote(uint256)": "infinite"
					}
				},
				"methodIdentifiers": {
					"calculateThreshold()": "0eb3813a",
					"eduVerify()": "dc999c8d",
					"executeProposal(uint256)": "0d61b519",
					"getProposalDetails(uint256)": "3b4d01a7",
					"getThresholdForProposal(uint256)": "8e2767ef",
					"governorCount()": "e8c9fd45",
					"governors(uint256)": "a7277b00",
					"hasVoted(uint256,address)": "43859632",
					"isGovernor(address)": "e43581b8",
					"proposalCount()": "da35c664",
					"proposals(uint256)": "013cf08b",
					"propose(uint8,address)": "aebe39ca",
					"setEduVerifyAddress(address)": "e0901d7a",
					"vote(uint256)": "0121b93f"
				}
			},
			"storageLayout": {
				"storage": [
					{
						"astId": 380,
						"contract": "contracts/EduVerifyAdmin.sol:EduVerifyAdmin",
						"label": "isGovernor",
						"offset": 0,
						"slot": "0",
						"type": "t_mapping(t_address,t_bool)"
					},
					{
						"astId": 383,
						"contract": "contracts/EduVerifyAdmin.sol:EduVerifyAdmin",
						"label": "governors",
						"offset": 0,
						"slot": "1",
						"type": "t_array(t_address)dyn_storage"
					},
					{
						"astId": 385,
						"contract": "contracts/EduVerifyAdmin.sol:EduVerifyAdmin",
						"label": "eduVerify",
						"offset": 0,
						"slot": "2",
						"type": "t_address"
					},
					{
						"astId": 389,
						"contract": "contracts/EduVerifyAdmin.sol:EduVerifyAdmin",
						"label": "proposals",
						"offset": 0,
						"slot": "3",
						"type": "t_array(t_struct(Proposal)376_storage)dyn_storage"
					}
				],
				"types": {
					"t_address": {
						"encoding": "inplace",
						"label": "address",
						"numberOfBytes": "20"
					},
					"t_array(t_address)dyn_storage": {
						"base": "t_address",
						"encoding": "dynamic_array",
						"label": "address[]",
						"numberOfBytes": "32"
					},
					"t_array(t_struct(Proposal)376_storage)dyn_storage": {
						"base": "t_struct(Proposal)376_storage",
						"encoding": "dynamic_array",
						"label": "struct EduVerifyAdmin.Proposal[]",
						"numberOfBytes": "32"
					},
					"t_bool": {
						"encoding": "inplace",
						"label": "bool",
						"numberOfBytes": "1"
					},
					"t_enum(Action)358": {
						"encoding": "inplace",
						"label": "enum EduVerifyAdmin.Action",
						"numberOfBytes": "1"
					},
					"t_mapping(t_address,t_bool)": {
						"encoding": "mapping",
						"key": "t_address",
						"label": "mapping(address => bool)",
						"numberOfBytes": "32",
						"value": "t_bool"
					},
					"t_struct(Proposal)376_storage": {
						"encoding": "inplace",
						"label": "struct EduVerifyAdmin.Proposal",
						"members": [
							{
								"astId": 360,
								"contract": "contracts/EduVerifyAdmin.sol:EduVerifyAdmin",
								"label": "id",
								"offset": 0,
								"slot": "0",
								"type": "t_uint256"
							},
							{
								"astId": 363,
								"contract": "contracts/EduVerifyAdmin.sol:EduVerifyAdmin",
								"label": "action",
								"offset": 0,
								"slot": "1",
								"type": "t_enum(Action)358"
							},
							{
								"astId": 365,
								"contract": "contracts/EduVerifyAdmin.sol:EduVerifyAdmin",
								"label": "target",
								"offset": 1,
								"slot": "1",
								"type": "t_address"
							},
							{
								"astId": 367,
								"contract": "contracts/EduVerifyAdmin.sol:EduVerifyAdmin",
								"label": "yesVotes",
								"offset": 0,
								"slot": "2",
								"type": "t_uint256"
							},
							{
								"astId": 369,
								"contract": "contracts/EduVerifyAdmin.sol:EduVerifyAdmin",
								"label": "snapshotGovernorCount",
								"offset": 0,
								"slot": "3",
								"type": "t_uint256"
							},
							{
								"astId": 371,
								"contract": "contracts/EduVerifyAdmin.sol:EduVerifyAdmin",
								"label": "executed",
								"offset": 0,
								"slot": "4",
								"type": "t_bool"
							},
							{
								"astId": 375,
								"contract": "contracts/EduVerifyAdmin.sol:EduVerifyAdmin",
								"label": "hasVoted",
								"offset": 0,
								"slot": "5",
								"type": "t_mapping(t_address,t_bool)"
							}
						],
						"numberOfBytes": "192"
					},
					"t_uint256": {
						"encoding": "inplace",
						"label": "uint256",
						"numberOfBytes": "32"
					}
				}
			},
			"userdoc": {
				"kind": "user",
				"methods": {},
				"version": 1
			}
		}
	}
}