{
	"new-contracts/Counter.sol": {
		"Counter": {
			"abi": [
				{
					"inputs": [],
					"name": "count",
					"outputs": [
						{
							"internalType": "uint256",
							"name": "",
							"type": "uint256"
						}
					],
					"stateMutability": "view",
					"type": "function"
				},
				{
					"inputs": [],
					"name": "decrement",
					"outputs": [],
					"stateMutability": "nonpayable",
					"type": "function"
				},
				{
					"inputs": [],
					"name": "increment",
					"outputs": [],
					"stateMutability": "nonpayable",
					"type": "function"
				}
			],
			"devdoc": {
				"kind": "dev",
				"methods": {},
				"version": 1
			},
			"evm": {
				"assembly": "    /* \"new-contracts/Counter.sol\":60:307  contract Counter {... */\n  mstore(0x40, 0x80)\n  callvalue\n  dup1\n  iszero\n  tag_1\n  jumpi\n  revert(0x00, 0x00)\ntag_1:\n  pop\n  dataSize(sub_0)\n  dup1\n  dataOffset(sub_0)\n  0x00\n  codecopy\n  0x00\n  return\nstop\n\nsub_0: assembly {\n        /* \"new-contracts/Counter.sol\":60:307  contract Counter {... */\n      mstore(0x40, 0x80)\n      callvalue\n      dup1\n      iszero\n      tag_1\n      jumpi\n      revert(0x00, 0x00)\n    tag_1:\n      pop\n      jumpi(tag_2, lt(calldatasize, 0x04))\n      shr(0xe0, calldataload(0x00))\n      dup1\n      0x06661abd\n      eq\n      tag_3\n      jumpi\n      dup1\n      0x2baeceb7\n      eq\n      tag_4\n      jumpi\n      dup1\n      0xd09de08a\n      eq\n      tag_5\n      jumpi\n    tag_2:\n      revert(0x00, 0x00)\n        /* \"new-contracts/Counter.sol\":84:104  uint256 public count */\n    tag_3:\n      tag_6\n      tag_7\n      jump\t// in\n    tag_6:\n      mload(0x40)\n      tag_8\n      swap2\n      swap1\n      tag_9\n      jump\t// in\n    tag_8:\n      mload(0x40)\n      dup1\n      swap2\n      sub\n      swap1\n      return\n        /* \"new-contracts/Counter.sol\":178:304  function decrement() public {... */\n    tag_4:\n      tag_10\n      tag_11\n      jump\t// in\n    tag_10:\n      stop\n        /* \"new-contracts/Counter.sol\":113:170  function increment() public {... */\n    tag_5:\n      tag_12\n      tag_13\n      jump\t// in\n    tag_12:\n      stop\n        /* \"new-contracts/Counter.sol\":84:104  uint256 public count */\n    tag_7:\n      sload(0x00)\n      dup2\n      jump\t// out\n        /* \"new-contracts/Counter.sol\":178:304  function decrement() public {... */\n    tag_11:\n        /* \"new-contracts/Counter.sol\":233:234  0 */\n      0x00\n        /* \"new-contracts/Counter.sol\":225:230  count */\n      sload(0x00)\n        /* \"new-contracts/Counter.sol\":225:234  count > 0 */\n      gt\n        /* \"new-contracts/Counter.sol\":217:275  require(count > 0, \"Counter: cannot decrement below zero\") */\n      tag_15\n      jumpi\n      mload(0x40)\n      0x08c379a000000000000000000000000000000000000000000000000000000000\n      dup2\n      mstore\n      0x04\n      add\n      tag_16\n      swap1\n      tag_17\n      jump\t// in\n    tag_16:\n      mload(0x40)\n      dup1\n      swap2\n      sub\n      swap1\n      revert\n    tag_15:\n        /* \"new-contracts/Counter.sol\":295:296  1 */\n      0x01\n        /* \"new-contracts/Counter.sol\":286:291  count */\n      0x00\n      0x00\n        /* \"new-contracts/Counter.sol\":286:296  count -= 1 */\n      dup3\n      dup3\n      sload\n      tag_18\n      swap2\n      swap1\n      tag_19\n      jump\t// in\n    tag_18:\n      swap3\n      pop\n      pop\n      dup2\n      swap1\n      sstore\n      pop\n        /* \"new-contracts/Counter.sol\":178:304  function decrement() public {... */\n      jump\t// out\n        /* \"new-contracts/Counter.sol\":113:170  function increment() public {... */\n    tag_13:\n        /* \"new-contracts/Counter.sol\":161:162  1 */\n      0x01\n        /* \"new-contracts/Counter.sol\":152:157  count */\n      0x00\n      0x00\n        /* \"new-contracts/Counter.sol\":152:162  count += 1 */\n      dup3\n      dup3\n      sload\n      tag_21\n      swap2\n      swap1\n      tag_22\n      jump\t// in\n    tag_21:\n      swap3\n      pop\n      pop\n      dup2\n      swap1\n      sstore\n      pop\n        /* \"new-contracts/Counter.sol\":113:170  function increment() public {... */\n      jump\t// out\n        /* \"#utility.yul\":7:84   */\n    tag_23:\n        /* \"#utility.yul\":44:51   */\n      0x00\n        /* \"#utility.yul\":73:78   */\n      dup2\n        /* \"#utility.yul\":62:78   */\n      swap1\n      pop\n        /* \"#utility.yul\":7:84   */\n      swap2\n      swap1\n      pop\n      jump\t// out\n        /* \"#utility.yul\":90:208   */\n    tag_24:\n        /* \"#utility.yul\":177:201   */\n      tag_32\n        /* \"#utility.yul\":195:200   */\n      dup2\n        /* \"#utility.yul\":177:201   */\n      tag_23\n      jump\t// in\n    tag_32:\n        /* \"#utility.yul\":172:175   */\n      dup3\n        /* \"#utility.yul\":165:202   */\n      mstore\n        /* \"#utility.yul\":90:208   */\n      pop\n      pop\n      jump\t// out\n        /* \"#utility.yul\":214:436   */\n    tag_9:\n        /* \"#utility.yul\":307:311   */\n      0x00\n        /* \"#utility.yul\":345:347   */\n      0x20\n        /* \"#utility.yul\":334:343   */\n      dup3\n        /* \"#utility.yul\":330:348   */\n      add\n        /* \"#utility.yul\":322:348   */\n      swap1\n      pop\n        /* \"#utility.yul\":358:429   */\n      tag_34\n        /* \"#utility.yul\":426:427   */\n      0x00\n        /* \"#utility.yul\":415:424   */\n      dup4\n        /* \"#utility.yul\":411:428   */\n      add\n        /* \"#utility.yul\":402:408   */\n      dup5\n        /* \"#utility.yul\":358:429   */\n      tag_24\n      jump\t// in\n    tag_34:\n        /* \"#utility.yul\":214:436   */\n      swap3\n      swap2\n      pop\n      pop\n      jump\t// out\n        /* \"#utility.yul\":442:611   */\n    tag_25:\n        /* \"#utility.yul\":526:537   */\n      0x00\n        /* \"#utility.yul\":560:566   */\n      dup3\n        /* \"#utility.yul\":555:558   */\n      dup3\n        /* \"#utility.yul\":548:567   */\n      mstore\n        /* \"#utility.yul\":600:604   */\n      0x20\n        /* \"#utility.yul\":595:598   */\n      dup3\n        /* \"#utility.yul\":591:605   */\n      add\n        /* \"#utility.yul\":576:605   */\n      swap1\n      pop\n        /* \"#utility.yul\":442:611   */\n      swap3\n      swap2\n      pop\n      pop\n      jump\t// out\n        /* \"#utility.yul\":617:840   */\n    tag_26:\n        /* \"#utility.yul\":757:791   */\n      0x436f756e7465723a2063616e6e6f742064656372656d656e742062656c6f7720\n        /* \"#utility.yul\":753:754   */\n      0x00\n        /* \"#utility.yul\":745:751   */\n      dup3\n        /* \"#utility.yul\":741:755   */\n      add\n        /* \"#utility.yul\":734:792   */\n      mstore\n        /* \"#utility.yul\":826:832   */\n      0x7a65726f00000000000000000000000000000000000000000000000000000000\n        /* \"#utility.yul\":821:823   */\n      0x20\n        /* \"#utility.yul\":813:819   */\n      dup3\n        /* \"#utility.yul\":809:824   */\n      add\n        /* \"#utility.yul\":802:833   */\n      mstore\n        /* \"#utility.yul\":617:840   */\n      pop\n      jump\t// out\n        /* \"#utility.yul\":846:1212   */\n    tag_27:\n        /* \"#utility.yul\":988:991   */\n      0x00\n        /* \"#utility.yul\":1009:1076   */\n      tag_38\n        /* \"#utility.yul\":1073:1075   */\n      0x24\n        /* \"#utility.yul\":1068:1071   */\n      dup4\n        /* \"#utility.yul\":1009:1076   */\n      tag_25\n      jump\t// in\n    tag_38:\n        /* \"#utility.yul\":1002:1076   */\n      swap2\n      pop\n        /* \"#utility.yul\":1085:1178   */\n      tag_39\n        /* \"#utility.yul\":1174:1177   */\n      dup3\n        /* \"#utility.yul\":1085:1178   */\n      tag_26\n      jump\t// in\n    tag_39:\n        /* \"#utility.yul\":1203:1205   */\n      0x40\n        /* \"#utility.yul\":1198:1201   */\n      dup3\n        /* \"#utility.yul\":1194:1206   */\n      add\n        /* \"#utility.yul\":1187:1206   */\n      swap1\n      pop\n        /* \"#utility.yul\":846:1212   */\n      swap2\n      swap1\n      pop\n      jump\t// out\n        /* \"#utility.yul\":1218:1637   */\n    tag_17:\n        /* \"#utility.yul\":1384:1388   */\n      0x00\n        /* \"#utility.yul\":1422:1424   */\n      0x20\n        /* \"#utility.yul\":1411:1420   */\n      dup3\n        /* \"#utility.yul\":1407:1425   */\n      add\n        /* \"#utility.yul\":1399:1425   */\n      swap1\n      pop\n        /* \"#utility.yul\":1471:1480   */\n      dup2\n        /* \"#utility.yul\":1465:1469   */\n      dup2\n        /* \"#utility.yul\":1461:1481   */\n      sub\n        /* \"#utility.yul\":1457:1458   */\n      0x00\n        /* \"#utility.yul\":1446:1455   */\n      dup4\n        /* \"#utility.yul\":1442:1459   */\n      add\n        /* \"#utility.yul\":1435:1482   */\n      mstore\n        /* \"#utility.yul\":1499:1630   */\n      tag_41\n        /* \"#utility.yul\":1625:1629   */\n      dup2\n        /* \"#utility.yul\":1499:1630   */\n      tag_27\n      jump\t// in\n    tag_41:\n        /* \"#utility.yul\":1491:1630   */\n      swap1\n      pop\n        /* \"#utility.yul\":1218:1637   */\n      swap2\n      swap1\n      pop\n      jump\t// out\n        /* \"#utility.yul\":1643:1823   */\n    tag_28:\n        /* \"#utility.yul\":1691:1768   */\n      0x4e487b7100000000000000000000000000000000000000000000000000000000\n        /* \"#utility.yul\":1688:1689   */\n      0x00\n        /* \"#utility.yul\":1681:1769   */\n      mstore\n        /* \"#utility.yul\":1788:1792   */\n      0x11\n        /* \"#utility.yul\":1785:1786   */\n      0x04\n        /* \"#utility.yul\":1778:1793   */\n      mstore\n        /* \"#utility.yul\":1812:1816   */\n      0x24\n        /* \"#utility.yul\":1809:1810   */\n      0x00\n        /* \"#utility.yul\":1802:1817   */\n      revert\n        /* \"#utility.yul\":1829:2023   */\n    tag_19:\n        /* \"#utility.yul\":1869:1873   */\n      0x00\n        /* \"#utility.yul\":1889:1909   */\n      tag_44\n        /* \"#utility.yul\":1907:1908   */\n      dup3\n        /* \"#utility.yul\":1889:1909   */\n      tag_23\n      jump\t// in\n    tag_44:\n        /* \"#utility.yul\":1884:1909   */\n      swap2\n      pop\n        /* \"#utility.yul\":1923:1943   */\n      tag_45\n        /* \"#utility.yul\":1941:1942   */\n      dup4\n        /* \"#utility.yul\":1923:1943   */\n      tag_23\n      jump\t// in\n    tag_45:\n        /* \"#utility.yul\":1918:1943   */\n      swap3\n      pop\n        /* \"#utility.yul\":1967:1968   */\n      dup3\n        /* \"#utility.yul\":1964:1965   */\n      dup3\n        /* \"#utility.yul\":1960:1969   */\n      sub\n        /* \"#utility.yul\":1952:1969   */\n      swap1\n      pop\n        /* \"#utility.yul\":1991:1992   */\n      dup2\n        /* \"#utility.yul\":1985:1989   */\n      dup2\n        /* \"#utility.yul\":1982:1993   */\n      gt\n        /* \"#utility.yul\":1979:2016   */\n      iszero\n      tag_46\n      jumpi\n        /* \"#utility.yul\":1996:2014   */\n      tag_47\n      tag_28\n      jump\t// in\n    tag_47:\n        /* \"#utility.yul\":1979:2016   */\n    tag_46:\n        /* \"#utility.yul\":1829:2023   */\n      swap3\n      swap2\n      pop\n      pop\n      jump\t// out\n        /* \"#utility.yul\":2029:2220   */\n    tag_22:\n        /* \"#utility.yul\":2069:2072   */\n      0x00\n        /* \"#utility.yul\":2088:2108   */\n      tag_49\n        /* \"#utility.yul\":2106:2107   */\n      dup3\n        /* \"#utility.yul\":2088:2108   */\n      tag_23\n      jump\t// in\n    tag_49:\n        /* \"#utility.yul\":2083:2108   */\n      swap2\n      pop\n        /* \"#utility.yul\":2122:2142   */\n      tag_50\n        /* \"#utility.yul\":2140:2141   */\n      dup4\n        /* \"#utility.yul\":2122:2142   */\n      tag_23\n      jump\t// in\n    tag_50:\n        /* \"#utility.yul\":2117:2142   */\n      swap3\n      pop\n        /* \"#utility.yul\":2165:2166   */\n      dup3\n        /* \"#utility.yul\":2162:2163   */\n      dup3\n        /* \"#utility.yul\":2158:2167   */\n      add\n        /* \"#utility.yul\":2151:2167   */\n      swap1\n      pop\n        /* \"#utility.yul\":2186:2189   */\n      dup1\n        /* \"#utility.yul\":2183:2184   */\n      dup3\n        /* \"#utility.yul\":2180:2190   */\n      gt\n        /* \"#utility.yul\":2177:2213   */\n      iszero\n      tag_51\n      jumpi\n        /* \"#utility.yul\":2193:2211   */\n      tag_52\n      tag_28\n      jump\t// in\n    tag_52:\n        /* \"#utility.yul\":2177:2213   */\n    tag_51:\n        /* \"#utility.yul\":2029:2220   */\n      swap3\n      swap2\n      pop\n      pop\n      jump\t// out\n\n    auxdata: 0xa2646970667358221220cf17aea3c151f3a07c0db0226ca68ddca2a3296db79427ed1bba72f27d21ce0064736f6c634300081e0033\n}\n",
				"bytecode": {
					"linkReferences": {},
					"object": "6080604052348015600e575f5ffd5b506102898061001c5f395ff3fe608060405234801561000f575f5ffd5b506004361061003f575f3560e01c806306661abd146100435780632baeceb714610061578063d09de08a1461006b575b5f5ffd5b61004b610075565b6040516100589190610109565b60405180910390f35b61006961007a565b005b6100736100d7565b005b5f5481565b5f5f54116100bd576040517f08c379a00000000000000000000000000000000000000000000000000000000081526004016100b4906101a2565b60405180910390fd5b60015f5f8282546100ce91906101ed565b92505081905550565b60015f5f8282546100e89190610220565b92505081905550565b5f819050919050565b610103816100f1565b82525050565b5f60208201905061011c5f8301846100fa565b92915050565b5f82825260208201905092915050565b7f436f756e7465723a2063616e6e6f742064656372656d656e742062656c6f77205f8201527f7a65726f00000000000000000000000000000000000000000000000000000000602082015250565b5f61018c602483610122565b915061019782610132565b604082019050919050565b5f6020820190508181035f8301526101b981610180565b9050919050565b7f4e487b71000000000000000000000000000000000000000000000000000000005f52601160045260245ffd5b5f6101f7826100f1565b9150610202836100f1565b925082820390508181111561021a576102196101c0565b5b92915050565b5f61022a826100f1565b9150610235836100f1565b925082820190508082111561024d5761024c6101c0565b5b9291505056fea2646970667358221220cf17aea3c151f3a07c0db0226ca68ddca2a3296db79427ed1bba72f27d21ce0064736f6c634300081e0033",
					"opcodes": "PUSH1 0x80 PUSH1 0x40 MSTORE CALLVALUE DUP1 ISZERO PUSH1 0xE JUMPI PUSH0 PUSH0 REVERT JUMPDEST POP PUSH2 0x289 DUP1 PUSH2 0x1C PUSH0 CODECOPY PUSH0 RETURN INVALID PUSH1 0x80 PUSH1 0x40 MSTORE CALLVALUE DUP1 ISZERO PUSH2 0xF JUMPI PUSH0 PUSH0 REVERT JUMPDEST POP PUSH1 0x4 CALLDATASIZE LT PUSH2 0x3F JUMPI PUSH0 CALLDATALOAD PUSH1 0xE0 SHR DUP1 PUSH4 0x6661ABD EQ PUSH2 0x43 JUMPI DUP1 PUSH4 0x2BAECEB7 EQ PUSH2 0x61 JUMPI DUP1 PUSH4 0xD09DE08A EQ PUSH2 0x6B JUMPI JUMPDEST PUSH0 PUSH0 REVERT JUMPDEST PUSH2 0x4B PUSH2 0x75 JUMP JUMPDEST PUSH1 0x40 MLOAD PUSH2 0x58 SWAP2 SWAP1 PUSH2 0x109 JUMP JUMPDEST PUSH1 0x40 MLOAD DUP1 SWAP2 SUB SWAP1 RETURN JUMPDEST PUSH2 0x69 PUSH2 0x7A JUMP JUMPDEST STOP JUMPDEST PUSH2 0x73 PUSH2 0xD7 JUMP JUMPDEST STOP JUMPDEST PUSH0 SLOAD DUP2 JUMP JUMPDEST PUSH0 PUSH0 SLOAD GT PUSH2 0xBD JUMPI PUSH1 0x40 MLOAD PUSH32 0x8C379A000000000000000000000000000000000000000000000000000000000 DUP2 MSTORE PUSH1 0x4 ADD PUSH2 0xB4 SWAP1 PUSH2 0x1A2 JUMP JUMPDEST PUSH1 0x40 MLOAD DUP1 SWAP2 SUB SWAP1 REVERT JUMPDEST PUSH1 0x1 PUSH0 PUSH0 DUP3 DUP3 SLOAD PUSH2 0xCE SWAP2 SWAP1 PUSH2 0x1ED JUMP JUMPDEST SWAP3 POP POP DUP2 SWAP1 SSTORE POP JUMP JUMPDEST PUSH1 0x1 PUSH0 PUSH0 DUP3 DUP3 SLOAD PUSH2 0xE8 SWAP2 SWAP1 PUSH2 0x220 JUMP JUMPDEST SWAP3 POP POP DUP2 SWAP1 SSTORE POP JUMP JUMPDEST PUSH0 DUP2 SWAP1 POP SWAP2 SWAP1 POP JUMP JUMPDEST PUSH2 0x103 DUP2 PUSH2 0xF1 JUMP JUMPDEST DUP3 MSTORE POP POP JUMP JUMPDEST PUSH0 PUSH1 0x20 DUP3 ADD SWAP1 POP PUSH2 0x11C PUSH0 DUP4 ADD DUP5 PUSH2 0xFA JUMP JUMPDEST SWAP3 SWAP2 POP POP JUMP JUMPDEST PUSH0 DUP3 DUP3 MSTORE PUSH1 0x20 DUP3 ADD SWAP1 POP SWAP3 SWAP2 POP POP JUMP JUMPDEST PUSH32 0x436F756E7465723A2063616E6E6F742064656372656D656E742062656C6F7720 PUSH0 DUP3 ADD MSTORE PUSH32 0x7A65726F00000000000000000000000000000000000000000000000000000000 PUSH1 0x20 DUP3 ADD MSTORE POP JUMP JUMPDEST PUSH0 PUSH2 0x18C PUSH1 0x24 DUP4 PUSH2 0x122 JUMP JUMPDEST SWAP2 POP PUSH2 0x197 DUP3 PUSH2 0x132 JUMP JUMPDEST PUSH1 0x40 DUP3 ADD SWAP1 POP SWAP2 SWAP1 POP JUMP JUMPDEST PUSH0 PUSH1 0x20 DUP3 ADD SWAP1 POP DUP2 DUP2 SUB PUSH0 DUP4 ADD MSTORE PUSH2 0x1B9 DUP2 PUSH2 0x180 JUMP JUMPDEST SWAP1 POP SWAP2 SWAP1 POP JUMP JUMPDEST PUSH32 0x4E487B7100000000000000000000000000000000000000000000000000000000 PUSH0 MSTORE PUSH1 0x11 PUSH1 0x4 MSTORE PUSH1 0x24 PUSH0 REVERT JUMPDEST PUSH0 PUSH2 0x1F7 DUP3 PUSH2 0xF1 JUMP JUMPDEST SWAP2 POP PUSH2 0x202 DUP4 PUSH2 0xF1 JUMP JUMPDEST SWAP3 POP DUP3 DUP3 SUB SWAP1 POP DUP2 DUP2 GT ISZERO PUSH2 0x21A JUMPI PUSH2 0x219 PUSH2 0x1C0 JUMP JUMPDEST JUMPDEST SWAP3 SWAP2 POP POP JUMP JUMPDEST PUSH0 PUSH2 0x22A DUP3 PUSH2 0xF1 JUMP JUMPDEST SWAP2 POP PUSH2 0x235 DUP4 PUSH2 0xF1 JUMP JUMPDEST SWAP3 POP DUP3 DUP3 ADD SWAP1 POP DUP1 DUP3 GT ISZERO PUSH2 0x24D JUMPI PUSH2 0x24C PUSH2 0x1C0 JUMP JUMPDEST JUMPDEST SWAP3 SWAP2 POP POP JUMP INVALID LOG2 PUSH5 0x6970667358 0x22 SLT KECCAK256 0xCF OR 0xAE LOG3 0xC1 MLOAD RETURN LOG0 PUSH29 0xDB0226CA68DDCA2A3296DB79427ED1BBA72F27D21CE0064736F6C6343 STOP ADDMOD 0x1E STOP CALLER "
				},
				"gasEstimates": {
					"creation": {
						"codeDepositCost": "129800",
						"executionCost": "175",
						"totalCost": "129975"
					},
					"external": {
						"count()": "2402",
						"decrement()": "infinite",
						"increment()": "infinite"
					}
				},
				"methodIdentifiers": {
					"count()": "06661abd",
					"decrement()": "2baeceb7",
					"increment()": "d09de08a"
				}
			},
			"storageLayout": {
				"storage": [
					{
						"astId": 3,
						"contract": "new-contracts/Counter.sol:Counter",
						"label": "count",
						"offset": 0,
						"slot": "0",
						"type": "t_uint256"
					}
				],
				"types": {
					"t_uint256": {
						"encoding": "inplace",
						"label": "uint256",
						"numberOfBytes": "32"
					}
				}
			},
			"userdoc": {
				"kind": "user",
				"methods": {},
				"version": 1
			}
		}
	}
}