{
	"data": {
		"bytecode": {
			"linkReferences": {
				"remix_tests.sol": {
					"Assert": [
						{
							"length": 20,
							"start": 852
						},
						{
							"length": 20,
							"start": 1736
						},
						{
							"length": 20,
							"start": 1855
						},
						{
							"length": 20,
							"start": 2117
						},
						{
							"length": 20,
							"start": 2703
						},
						{
							"length": 20,
							"start": 3019
						},
						{
							"length": 20,
							"start": 3368
						},
						{
							"length": 20,
							"start": 3489
						},
						{
							"length": 20,
							"start": 3980
						},
						{
							"length": 20,
							"start": 4864
						},
						{
							"length": 20,
							"start": 5143
						},
						{
							"length": 20,
							"start": 5493
						},
						{
							"length": 20,
							"start": 5807
						},
						{
							"length": 20,
							"start": 5926
						},
						{
							"length": 20,
							"start": 6424
						},
						{
							"length": 20,
							"start": 6735
						},
						{
							"length": 20,
							"start": 7088
						},
						{
							"length": 20,
							"start": 7972
						},
						{
							"length": 20,
							"start": 8091
						},
						{
							"length": 20,
							"start": 8353
						},
						{
							"length": 20,
							"start": 8887
						},
						{
							"length": 20,
							"start": 9391
						},
						{
							"length": 20,
							"start": 10581
						},
						{
							"length": 20,
							"start": 11465
						},
						{
							"length": 20,
							"start": 11589
						},
						{
							"length": 20,
							"start": 11851
						},
						{
							"length": 20,
							"start": 12154
						},
						{
							"length": 20,
							"start": 12790
						},
						{
							"length": 20,
							"start": 13139
						},
						{
							"length": 20,
							"start": 13959
						},
						{
							"length": 20,
							"start": 14104
						}
					]
				}
			},
			"object": "60806040526001805f6101000a81548173ffffffffffffffffffffffffffffffffffffffff021916908373ffffffffffffffffffffffffffffffffffffffff1602179055506005805f6101000a81548173ffffffffffffffffffffffffffffffffffffffff021916908373ffffffffffffffffffffffffffffffffffffffff1602179055506006805f6101000a81548173ffffffffffffffffffffffffffffffffffffffff021916908373ffffffffffffffffffffffffffffffffffffffff1602179055506007805f6101000a81548173ffffffffffffffffffffffffffffffffffffffff021916908373ffffffffffffffffffffffffffffffffffffffff16021790555034801561010f575f5ffd5b506179f78061011d5f395ff3fe608060405234801561000f575f5ffd5b50600436106100cc575f3560e01c80637942e1fe1161008a57806388c39a741161006457806388c39a741461012a5780638e82eddd14610134578063cc27f7f31461013e578063cd4afa9114610148576100cc565b80637942e1fe1461010c5780637cac6231146101165780637fea0d4b14610120576100cc565b8062dc50f4146100d057806316e43814146100da578063238b16d3146100e45780636760ee17146100ee5780636b505a42146100f857806378e9b62b14610102575b5f5ffd5b6100d8610152565b005b6100e2610859565b005b6100ec6109eb565b005b6100f6610b27565b005b610100610d8b565b005b61010a611374565b005b6101146119ae565b005b61011e6120b6565b005b61012861240c565b005b610132612753565b005b61013c612c26565b005b610146612f8d565b005b610150613152565b005b5f60025f9054906101000a900473ffffffffffffffffffffffffffffffffffffffff1673ffffffffffffffffffffffffffffffffffffffff166384fc00ba5f5f9054906101000a900473ffffffffffffffffffffffffffffffffffffffff16600260055f9054906101000a900473ffffffffffffffffffffffffffffffffffffffff166040518463ffffffff1660e01b81526004016101f3939291906137a0565b6020604051808303815f875af115801561020f573d5f5f3e3d5ffd5b505050506040513d601f19601f82011682018060405250810190610233919061380c565b905073__$acbfb1c35000d78352310b16a054a6b106$__63abcd79608260056040518363ffffffff1660e01b815260040161026f9291906138d9565b602060405180830381865af415801561028a573d5f5f3e3d5ffd5b505050506040513d601f19601f820116820180604052508101906102ae9190613948565b5060025f9054906101000a900473ffffffffffffffffffffffffffffffffffffffff1673ffffffffffffffffffffffffffffffffffffffff16635df277fa5f5f9054906101000a900473ffffffffffffffffffffffffffffffffffffffff1660056040518363ffffffff1660e01b815260040161032c929190613982565b6020604051808303815f875af1158015610348573d5f5f3e3d5ffd5b505050506040513d601f19601f8201168201806040525081019061036c9190613948565b5060035f9054906101000a900473ffffffffffffffffffffffffffffffffffffffff1673ffffffffffffffffffffffffffffffffffffffff16635df277fa5f5f9054906101000a900473ffffffffffffffffffffffffffffffffffffffff1660056040518363ffffffff1660e01b81526004016103ea929190613982565b6020604051808303815f875af1158015610406573d5f5f3e3d5ffd5b505050506040513d601f19601f8201168201806040525081019061042a9190613948565b5060045f9054906101000a900473ffffffffffffffffffffffffffffffffffffffff1673ffffffffffffffffffffffffffffffffffffffff16635df277fa5f5f9054906101000a900473ffffffffffffffffffffffffffffffffffffffff1660056040518363ffffffff1660e01b81526004016104a8929190613982565b6020604051808303815f875af11580156104c4573d5f5f3e3d5ffd5b505050506040513d601f19601f820116820180604052508101906104e89190613948565b505f60025f9054906101000a900473ffffffffffffffffffffffffffffffffffffffff1673ffffffffffffffffffffffffffffffffffffffff1663bfc426455f5f9054906101000a900473ffffffffffffffffffffffffffffffffffffffff1660056040518363ffffffff1660e01b8152600401610567929190613982565b6020604051808303815f875af1158015610583573d5f5f3e3d5ffd5b505050506040513d601f19601f820116820180604052508101906105a79190613948565b905073__$acbfb1c35000d78352310b16a054a6b106$__6339df137f826040518263ffffffff1660e01b81526004016105e09190613a4e565b602060405180830381865af41580156105fb573d5f5f3e3d5ffd5b505050506040513d601f19601f8201168201806040525081019061061f9190613948565b5073__$acbfb1c35000d78352310b16a054a6b106$__63abcd79605f5f9054906101000a900473ffffffffffffffffffffffffffffffffffffffff1673ffffffffffffffffffffffffffffffffffffffff1663e8c9fd456040518163ffffffff1660e01b8152600401602060405180830381865afa1580156106a3573d5f5f3e3d5ffd5b505050506040513d601f19601f820116820180604052508101906106c7919061380c565b60046040518363ffffffff1660e01b81526004016106e6929190613afd565b602060405180830381865af4158015610701573d5f5f3e3d5ffd5b505050506040513d601f19601f820116820180604052508101906107259190613948565b5073__$acbfb1c35000d78352310b16a054a6b106$__6339df137f5f5f9054906101000a900473ffffffffffffffffffffffffffffffffffffffff1673ffffffffffffffffffffffffffffffffffffffff1663e43581b860055f9054906101000a900473ffffffffffffffffffffffffffffffffffffffff166040518263ffffffff1660e01b81526004016107ba9190613b37565b602060405180830381865afa1580156107d5573d5f5f3e3d5ffd5b505050506040513d601f19601f820116820180604052508101906107f99190613948565b6040518263ffffffff1660e01b81526004016108159190613bc0565b602060405180830381865af4158015610830573d5f5f3e3d5ffd5b505050506040513d601f19601f820116820180604052508101906108549190613948565b505050565b5f5f5f9054906101000a900473ffffffffffffffffffffffffffffffffffffffff1673ffffffffffffffffffffffffffffffffffffffff166103e76040516024016108a49190613c32565b6040516020818303038152906040527f3b4d01a7000000000000000000000000000000000000000000000000000000007bffffffffffffffffffffffffffffffffffffffffffffffffffffffff19166020820180517bffffffffffffffffffffffffffffffffffffffffffffffffffffffff838183161783525050505060405161092e9190613c9d565b5f604051808303815f865af19150503d805f8114610967576040519150601f19603f3d011682016040523d82523d5f602084013e61096c565b606091505b5050905073__$acbfb1c35000d78352310b16a054a6b106$__6339df137f82156040518263ffffffff1660e01b81526004016109a89190613d23565b602060405180830381865af41580156109c3573d5f5f3e3d5ffd5b505050506040513d601f19601f820116820180604052508101906109e79190613948565b5050565b5f60025f9054906101000a900473ffffffffffffffffffffffffffffffffffffffff1673ffffffffffffffffffffffffffffffffffffffff16635df277fa5f5f9054906101000a900473ffffffffffffffffffffffffffffffffffffffff166103e76040518363ffffffff1660e01b8152600401610a6a929190613d7f565b6020604051808303815f875af1158015610a86573d5f5f3e3d5ffd5b505050506040513d601f19601f82011682018060405250810190610aaa9190613948565b905073__$acbfb1c35000d78352310b16a054a6b106$__6339df137f82156040518263ffffffff1660e01b8152600401610ae49190613e16565b602060405180830381865af4158015610aff573d5f5f3e3d5ffd5b505050506040513d601f19601f82011682018060405250810190610b239190613948565b5050565b5f60025f9054906101000a900473ffffffffffffffffffffffffffffffffffffffff1673ffffffffffffffffffffffffffffffffffffffff166384fc00ba5f5f9054906101000a900473ffffffffffffffffffffffffffffffffffffffff165f60065f9054906101000a900473ffffffffffffffffffffffffffffffffffffffff166040518463ffffffff1660e01b8152600401610bc7939291906137a0565b6020604051808303815f875af1158015610be3573d5f5f3e3d5ffd5b505050506040513d601f19601f82011682018060405250810190610c07919061380c565b905073__$acbfb1c35000d78352310b16a054a6b106$__63abcd7960825f6040518363ffffffff1660e01b8152600401610c42929190613ec5565b602060405180830381865af4158015610c5d573d5f5f3e3d5ffd5b505050506040513d601f19601f82011682018060405250810190610c819190613948565b5073__$acbfb1c35000d78352310b16a054a6b106$__63abcd79605f5f9054906101000a900473ffffffffffffffffffffffffffffffffffffffff1673ffffffffffffffffffffffffffffffffffffffff1663da35c6646040518163ffffffff1660e01b8152600401602060405180830381865afa158015610d05573d5f5f3e3d5ffd5b505050506040513d601f19601f82011682018060405250810190610d29919061380c565b60016040518363ffffffff1660e01b8152600401610d48929190613f82565b602060405180830381865af4158015610d63573d5f5f3e3d5ffd5b505050506040513d601f19601f82011682018060405250810190610d879190613948565b5050565b5f60025f9054906101000a900473ffffffffffffffffffffffffffffffffffffffff1673ffffffffffffffffffffffffffffffffffffffff166384fc00ba5f5f9054906101000a900473ffffffffffffffffffffffffffffffffffffffff165f60065f9054906101000a900473ffffffffffffffffffffffffffffffffffffffff166040518463ffffffff1660e01b8152600401610e2b939291906137a0565b6020604051808303815f875af1158015610e47573d5f5f3e3d5ffd5b505050506040513d601f19601f82011682018060405250810190610e6b919061380c565b905073__$acbfb1c35000d78352310b16a054a6b106$__63abcd79608260036040518363ffffffff1660e01b8152600401610ea792919061403f565b602060405180830381865af4158015610ec2573d5f5f3e3d5ffd5b505050506040513d601f19601f82011682018060405250810190610ee69190613948565b5060025f9054906101000a900473ffffffffffffffffffffffffffffffffffffffff1673ffffffffffffffffffffffffffffffffffffffff16635df277fa5f5f9054906101000a900473ffffffffffffffffffffffffffffffffffffffff1660036040518363ffffffff1660e01b8152600401610f64929190614088565b6020604051808303815f875af1158015610f80573d5f5f3e3d5ffd5b505050506040513d601f19601f82011682018060405250810190610fa49190613948565b5060035f9054906101000a900473ffffffffffffffffffffffffffffffffffffffff1673ffffffffffffffffffffffffffffffffffffffff16635df277fa5f5f9054906101000a900473ffffffffffffffffffffffffffffffffffffffff1660036040518363ffffffff1660e01b8152600401611022929190614088565b6020604051808303815f875af115801561103e573d5f5f3e3d5ffd5b505050506040513d601f19601f820116820180604052508101906110629190613948565b5060045f9054906101000a900473ffffffffffffffffffffffffffffffffffffffff1673ffffffffffffffffffffffffffffffffffffffff16635df277fa5f5f9054906101000a900473ffffffffffffffffffffffffffffffffffffffff1660036040518363ffffffff1660e01b81526004016110e0929190614088565b6020604051808303815f875af11580156110fc573d5f5f3e3d5ffd5b505050506040513d601f19601f820116820180604052508101906111209190613948565b505f60025f9054906101000a900473ffffffffffffffffffffffffffffffffffffffff1673ffffffffffffffffffffffffffffffffffffffff1663bfc426455f5f9054906101000a900473ffffffffffffffffffffffffffffffffffffffff1660036040518363ffffffff1660e01b815260040161119f929190614088565b6020604051808303815f875af11580156111bb573d5f5f3e3d5ffd5b505050506040513d601f19601f820116820180604052508101906111df9190613948565b905073__$acbfb1c35000d78352310b16a054a6b106$__6339df137f826040518263ffffffff1660e01b8152600401611218919061411f565b602060405180830381865af4158015611233573d5f5f3e3d5ffd5b505050506040513d601f19601f820116820180604052508101906112579190613948565b505f5f5f9054906101000a900473ffffffffffffffffffffffffffffffffffffffff1673ffffffffffffffffffffffffffffffffffffffff16633b4d01a760036040518263ffffffff1660e01b81526004016112b3919061414b565b60a060405180830381865afa1580156112ce573d5f5f3e3d5ffd5b505050506040513d601f19601f820116820180604052508101906112f291906141b1565b94505050505073__$acbfb1c35000d78352310b16a054a6b106$__6339df137f826040518263ffffffff1660e01b815260040161132f9190614298565b602060405180830381865af415801561134a573d5f5f3e3d5ffd5b505050506040513d601f19601f8201168201806040525081019061136e9190613948565b50505050565b5f60025f9054906101000a900473ffffffffffffffffffffffffffffffffffffffff1673ffffffffffffffffffffffffffffffffffffffff166384fc00ba5f5f9054906101000a900473ffffffffffffffffffffffffffffffffffffffff165f60065f9054906101000a900473ffffffffffffffffffffffffffffffffffffffff166040518463ffffffff1660e01b8152600401611414939291906137a0565b6020604051808303815f875af1158015611430573d5f5f3e3d5ffd5b505050506040513d601f19601f82011682018060405250810190611454919061380c565b905073__$acbfb1c35000d78352310b16a054a6b106$__63abcd79608260016040518363ffffffff1660e01b815260040161149092919061430e565b602060405180830381865af41580156114ab573d5f5f3e3d5ffd5b505050506040513d601f19601f820116820180604052508101906114cf9190613948565b505f60025f9054906101000a900473ffffffffffffffffffffffffffffffffffffffff1673ffffffffffffffffffffffffffffffffffffffff16635df277fa5f5f9054906101000a900473ffffffffffffffffffffffffffffffffffffffff1660016040518363ffffffff1660e01b815260040161154e929190614357565b6020604051808303815f875af115801561156a573d5f5f3e3d5ffd5b505050506040513d601f19601f8201168201806040525081019061158e9190613948565b905073__$acbfb1c35000d78352310b16a054a6b106$__6339df137f826040518263ffffffff1660e01b81526004016115c791906143c8565b602060405180830381865af41580156115e2573d5f5f3e3d5ffd5b505050506040513d601f19601f820116820180604052508101906116069190613948565b5073__$acbfb1c35000d78352310b16a054a6b106$__6339df137f5f5f9054906101000a900473ffffffffffffffffffffffffffffffffffffffff1673ffffffffffffffffffffffffffffffffffffffff166343859632600160025f9054906101000a900473ffffffffffffffffffffffffffffffffffffffff166040518363ffffffff1660e01b815260040161169e9291906143f4565b602060405180830381865afa1580156116b9573d5f5f3e3d5ffd5b505050506040513d601f19601f820116820180604052508101906116dd9190613948565b6040518263ffffffff1660e01b81526004016116f9919061448b565b602060405180830381865af4158015611714573d5f5f3e3d5ffd5b505050506040513d601f19601f820116820180604052508101906117389190613948565b505f60035f9054906101000a900473ffffffffffffffffffffffffffffffffffffffff1673ffffffffffffffffffffffffffffffffffffffff16635df277fa5f5f9054906101000a900473ffffffffffffffffffffffffffffffffffffffff1660016040518363ffffffff1660e01b81526004016117b7929190614357565b6020604051808303815f875af11580156117d3573d5f5f3e3d5ffd5b505050506040513d601f19601f820116820180604052508101906117f79190613948565b905073__$acbfb1c35000d78352310b16a054a6b106$__6339df137f826040518263ffffffff1660e01b81526004016118309190614527565b602060405180830381865af415801561184b573d5f5f3e3d5ffd5b505050506040513d601f19601f8201168201806040525081019061186f9190613948565b505f60035f9054906101000a900473ffffffffffffffffffffffffffffffffffffffff1673ffffffffffffffffffffffffffffffffffffffff16635df277fa5f5f9054906101000a900473ffffffffffffffffffffffffffffffffffffffff1660016040518363ffffffff1660e01b81526004016118ee929190614357565b6020604051808303815f875af115801561190a573d5f5f3e3d5ffd5b505050506040513d601f19601f8201168201806040525081019061192e9190613948565b905073__$acbfb1c35000d78352310b16a054a6b106$__6339df137f82156040518263ffffffff1660e01b815260040161196891906145c3565b602060405180830381865af4158015611983573d5f5f3e3d5ffd5b505050506040513d601f19601f820116820180604052508101906119a79190613948565b5050505050565b5f60025f9054906101000a900473ffffffffffffffffffffffffffffffffffffffff1673ffffffffffffffffffffffffffffffffffffffff166384fc00ba5f5f9054906101000a900473ffffffffffffffffffffffffffffffffffffffff16600360025f9054906101000a900473ffffffffffffffffffffffffffffffffffffffff166040518463ffffffff1660e01b8152600401611a4f939291906137a0565b6020604051808303815f875af1158015611a6b573d5f5f3e3d5ffd5b505050506040513d601f19601f82011682018060405250810190611a8f919061380c565b905073__$acbfb1c35000d78352310b16a054a6b106$__63abcd79608260076040518363ffffffff1660e01b8152600401611acb929190614672565b602060405180830381865af4158015611ae6573d5f5f3e3d5ffd5b505050506040513d601f19601f82011682018060405250810190611b0a9190613948565b5060025f9054906101000a900473ffffffffffffffffffffffffffffffffffffffff1673ffffffffffffffffffffffffffffffffffffffff16635df277fa5f5f9054906101000a900473ffffffffffffffffffffffffffffffffffffffff1660076040518363ffffffff1660e01b8152600401611b889291906146bb565b6020604051808303815f875af1158015611ba4573d5f5f3e3d5ffd5b505050506040513d601f19601f82011682018060405250810190611bc89190613948565b5060035f9054906101000a900473ffffffffffffffffffffffffffffffffffffffff1673ffffffffffffffffffffffffffffffffffffffff16635df277fa5f5f9054906101000a900473ffffffffffffffffffffffffffffffffffffffff1660076040518363ffffffff1660e01b8152600401611c469291906146bb565b6020604051808303815f875af1158015611c62573d5f5f3e3d5ffd5b505050506040513d601f19601f82011682018060405250810190611c869190613948565b5060045f9054906101000a900473ffffffffffffffffffffffffffffffffffffffff1673ffffffffffffffffffffffffffffffffffffffff16635df277fa5f5f9054906101000a900473ffffffffffffffffffffffffffffffffffffffff1660076040518363ffffffff1660e01b8152600401611d049291906146bb565b6020604051808303815f875af1158015611d20573d5f5f3e3d5ffd5b505050506040513d601f19601f82011682018060405250810190611d449190613948565b505f60035f9054906101000a900473ffffffffffffffffffffffffffffffffffffffff1673ffffffffffffffffffffffffffffffffffffffff1663bfc426455f5f9054906101000a900473ffffffffffffffffffffffffffffffffffffffff1660076040518363ffffffff1660e01b8152600401611dc39291906146bb565b6020604051808303815f875af1158015611ddf573d5f5f3e3d5ffd5b505050506040513d601f19601f82011682018060405250810190611e039190613948565b905073__$acbfb1c35000d78352310b16a054a6b106$__6339df137f826040518263ffffffff1660e01b8152600401611e3c919061472c565b602060405180830381865af4158015611e57573d5f5f3e3d5ffd5b505050506040513d601f19601f82011682018060405250810190611e7b9190613948565b5073__$acbfb1c35000d78352310b16a054a6b106$__63abcd79605f5f9054906101000a900473ffffffffffffffffffffffffffffffffffffffff1673ffffffffffffffffffffffffffffffffffffffff1663e8c9fd456040518163ffffffff1660e01b8152600401602060405180830381865afa158015611eff573d5f5f3e3d5ffd5b505050506040513d601f19601f82011682018060405250810190611f23919061380c565b60036040518363ffffffff1660e01b8152600401611f429291906147a2565b602060405180830381865af4158015611f5d573d5f5f3e3d5ffd5b505050506040513d601f19601f82011682018060405250810190611f819190613948565b5073__$acbfb1c35000d78352310b16a054a6b106$__6339df137f5f5f9054906101000a900473ffffffffffffffffffffffffffffffffffffffff1673ffffffffffffffffffffffffffffffffffffffff1663e43581b860025f9054906101000a900473ffffffffffffffffffffffffffffffffffffffff166040518263ffffffff1660e01b81526004016120169190613b37565b602060405180830381865afa158015612031573d5f5f3e3d5ffd5b505050506040513d601f19601f820116820180604052508101906120559190613948565b156040518263ffffffff1660e01b81526004016120729190614826565b602060405180830381865af415801561208d573d5f5f3e3d5ffd5b505050506040513d601f19601f820116820180604052508101906120b19190613948565b505050565b5f60025f9054906101000a900473ffffffffffffffffffffffffffffffffffffffff1673ffffffffffffffffffffffffffffffffffffffff166384fc00ba5f5f9054906101000a900473ffffffffffffffffffffffffffffffffffffffff165f60065f9054906101000a900473ffffffffffffffffffffffffffffffffffffffff166040518463ffffffff1660e01b8152600401612156939291906137a0565b6020604051808303815f875af1158015612172573d5f5f3e3d5ffd5b505050506040513d601f19601f82011682018060405250810190612196919061380c565b905073__$acbfb1c35000d78352310b16a054a6b106$__63abcd79608260046040518363ffffffff1660e01b81526004016121d292919061489c565b602060405180830381865af41580156121ed573d5f5f3e3d5ffd5b505050506040513d601f19601f820116820180604052508101906122119190613948565b5060025f9054906101000a900473ffffffffffffffffffffffffffffffffffffffff1673ffffffffffffffffffffffffffffffffffffffff16635df277fa5f5f9054906101000a900473ffffffffffffffffffffffffffffffffffffffff1660046040518363ffffffff1660e01b815260040161228f9291906148e5565b6020604051808303815f875af11580156122ab573d5f5f3e3d5ffd5b505050506040513d601f19601f820116820180604052508101906122cf9190613948565b505f60025f9054906101000a900473ffffffffffffffffffffffffffffffffffffffff1673ffffffffffffffffffffffffffffffffffffffff1663bfc426455f5f9054906101000a900473ffffffffffffffffffffffffffffffffffffffff1660046040518363ffffffff1660e01b815260040161234e9291906148e5565b6020604051808303815f875af115801561236a573d5f5f3e3d5ffd5b505050506040513d601f19601f8201168201806040525081019061238e9190613948565b905073__$acbfb1c35000d78352310b16a054a6b106$__6339df137f82156040518263ffffffff1660e01b81526004016123c891906149a2565b602060405180830381865af41580156123e3573d5f5f3e3d5ffd5b505050506040513d601f19601f820116820180604052508101906124079190613948565b505050565b60405161241890613679565b604051809103905ff080158015612431573d5f5f3e3d5ffd5b5060025f6101000a81548173ffffffffffffffffffffffffffffffffffffffff021916908373ffffffffffffffffffffffffffffffffffffffff16021790555060405161247d90613679565b604051809103905ff080158015612496573d5f5f3e3d5ffd5b5060035f6101000a81548173ffffffffffffffffffffffffffffffffffffffff021916908373ffffffffffffffffffffffffffffffffffffffff1602179055506040516124e290613679565b604051809103905ff0801580156124fb573d5f5f3e3d5ffd5b5060045f6101000a81548173ffffffffffffffffffffffffffffffffffffffff021916908373ffffffffffffffffffffffffffffffffffffffff160217905550600860025f9054906101000a900473ffffffffffffffffffffffffffffffffffffffff16908060018154018082558091505060019003905f5260205f20015f9091909190916101000a81548173ffffffffffffffffffffffffffffffffffffffff021916908373ffffffffffffffffffffffffffffffffffffffff160217905550600860035f9054906101000a900473ffffffffffffffffffffffffffffffffffffffff16908060018154018082558091505060019003905f5260205f20015f9091909190916101000a81548173ffffffffffffffffffffffffffffffffffffffff021916908373ffffffffffffffffffffffffffffffffffffffff160217905550600860045f9054906101000a900473ffffffffffffffffffffffffffffffffffffffff16908060018154018082558091505060019003905f5260205f20015f9091909190916101000a81548173ffffffffffffffffffffffffffffffffffffffff021916908373ffffffffffffffffffffffffffffffffffffffff160217905550600860015f9054906101000a900473ffffffffffffffffffffffffffffffffffffffff166040516126ee90613686565b6126f9929190614ae4565b604051809103905ff080158015612712573d5f5f3e3d5ffd5b505f5f6101000a81548173ffffffffffffffffffffffffffffffffffffffff021916908373ffffffffffffffffffffffffffffffffffffffff160217905550565b5f60025f9054906101000a900473ffffffffffffffffffffffffffffffffffffffff1673ffffffffffffffffffffffffffffffffffffffff166384fc00ba5f5f9054906101000a900473ffffffffffffffffffffffffffffffffffffffff16600260055f9054906101000a900473ffffffffffffffffffffffffffffffffffffffff166040518463ffffffff1660e01b81526004016127f4939291906137a0565b6020604051808303815f875af1158015612810573d5f5f3e3d5ffd5b505050506040513d601f19601f82011682018060405250810190612834919061380c565b905073__$acbfb1c35000d78352310b16a054a6b106$__63abcd79608260066040518363ffffffff1660e01b8152600401612870929190614b95565b602060405180830381865af415801561288b573d5f5f3e3d5ffd5b505050506040513d601f19601f820116820180604052508101906128af9190613948565b5060025f9054906101000a900473ffffffffffffffffffffffffffffffffffffffff1673ffffffffffffffffffffffffffffffffffffffff16635df277fa5f5f9054906101000a900473ffffffffffffffffffffffffffffffffffffffff1660066040518363ffffffff1660e01b815260040161292d929190614bde565b6020604051808303815f875af1158015612949573d5f5f3e3d5ffd5b505050506040513d601f19601f8201168201806040525081019061296d9190613948565b5060035f9054906101000a900473ffffffffffffffffffffffffffffffffffffffff1673ffffffffffffffffffffffffffffffffffffffff16635df277fa5f5f9054906101000a900473ffffffffffffffffffffffffffffffffffffffff1660066040518363ffffffff1660e01b81526004016129eb929190614bde565b6020604051808303815f875af1158015612a07573d5f5f3e3d5ffd5b505050506040513d601f19601f82011682018060405250810190612a2b9190613948565b5060045f9054906101000a900473ffffffffffffffffffffffffffffffffffffffff1673ffffffffffffffffffffffffffffffffffffffff16635df277fa5f5f9054906101000a900473ffffffffffffffffffffffffffffffffffffffff1660066040518363ffffffff1660e01b8152600401612aa9929190614bde565b6020604051808303815f875af1158015612ac5573d5f5f3e3d5ffd5b505050506040513d601f19601f82011682018060405250810190612ae99190613948565b505f60025f9054906101000a900473ffffffffffffffffffffffffffffffffffffffff1673ffffffffffffffffffffffffffffffffffffffff1663bfc426455f5f9054906101000a900473ffffffffffffffffffffffffffffffffffffffff1660066040518363ffffffff1660e01b8152600401612b68929190614bde565b6020604051808303815f875af1158015612b84573d5f5f3e3d5ffd5b505050506040513d601f19601f82011682018060405250810190612ba89190613948565b905073__$acbfb1c35000d78352310b16a054a6b106$__6339df137f82156040518263ffffffff1660e01b8152600401612be29190614c75565b602060405180830381865af4158015612bfd573d5f5f3e3d5ffd5b505050506040513d601f19601f82011682018060405250810190612c219190613948565b505050565b73__$acbfb1c35000d78352310b16a054a6b106$__63abcd79605f5f9054906101000a900473ffffffffffffffffffffffffffffffffffffffff1673ffffffffffffffffffffffffffffffffffffffff1663e8c9fd456040518163ffffffff1660e01b8152600401602060405180830381865afa158015612ca9573d5f5f3e3d5ffd5b505050506040513d601f19601f82011682018060405250810190612ccd919061380c565b60036040518363ffffffff1660e01b8152600401612cec929190614d11565b602060405180830381865af4158015612d07573d5f5f3e3d5ffd5b505050506040513d601f19601f82011682018060405250810190612d2b9190613948565b5073__$acbfb1c35000d78352310b16a054a6b106$__6339df137f5f5f9054906101000a900473ffffffffffffffffffffffffffffffffffffffff1673ffffffffffffffffffffffffffffffffffffffff1663e43581b860025f9054906101000a900473ffffffffffffffffffffffffffffffffffffffff166040518263ffffffff1660e01b8152600401612dc09190613b37565b602060405180830381865afa158015612ddb573d5f5f3e3d5ffd5b505050506040513d601f19601f82011682018060405250810190612dff9190613948565b6040518263ffffffff1660e01b8152600401612e1b9190614d95565b602060405180830381865af4158015612e36573d5f5f3e3d5ffd5b505050506040513d601f19601f82011682018060405250810190612e5a9190613948565b5073__$acbfb1c35000d78352310b16a054a6b106$__6339df137f5f5f9054906101000a900473ffffffffffffffffffffffffffffffffffffffff1673ffffffffffffffffffffffffffffffffffffffff1663e43581b860075f9054906101000a900473ffffffffffffffffffffffffffffffffffffffff166040518263ffffffff1660e01b8152600401612eef9190613b37565b602060405180830381865afa158015612f0a573d5f5f3e3d5ffd5b505050506040513d601f19601f82011682018060405250810190612f2e9190613948565b156040518263ffffffff1660e01b8152600401612f4b9190614e31565b602060405180830381865af4158015612f66573d5f5f3e3d5ffd5b505050506040513d601f19601f82011682018060405250810190612f8a9190613948565b50565b5f5f5f9054906101000a900473ffffffffffffffffffffffffffffffffffffffff1673ffffffffffffffffffffffffffffffffffffffff165f6003811115612fd857612fd761370d565b5b60065f9054906101000a900473ffffffffffffffffffffffffffffffffffffffff1660405160240161300b929190614e78565b6040516020818303038152906040527fd530bf11000000000000000000000000000000000000000000000000000000007bffffffffffffffffffffffffffffffffffffffffffffffffffffffff19166020820180517bffffffffffffffffffffffffffffffffffffffffffffffffffffffff83818316178352505050506040516130959190613c9d565b5f604051808303815f865af19150503d805f81146130ce576040519150601f19603f3d011682016040523d82523d5f602084013e6130d3565b606091505b5050905073__$acbfb1c35000d78352310b16a054a6b106$__6339df137f82156040518263ffffffff1660e01b815260040161310f9190614f0f565b602060405180830381865af415801561312a573d5f5f3e3d5ffd5b505050506040513d601f19601f8201168201806040525081019061314e9190613948565b5050565b5f60025f9054906101000a900473ffffffffffffffffffffffffffffffffffffffff1673ffffffffffffffffffffffffffffffffffffffff166384fc00ba5f5f9054906101000a900473ffffffffffffffffffffffffffffffffffffffff165f60065f9054906101000a900473ffffffffffffffffffffffffffffffffffffffff166040518463ffffffff1660e01b81526004016131f2939291906137a0565b6020604051808303815f875af115801561320e573d5f5f3e3d5ffd5b505050506040513d601f19601f82011682018060405250810190613232919061380c565b905073__$acbfb1c35000d78352310b16a054a6b106$__63abcd79608260026040518363ffffffff1660e01b815260040161326e929190614fbe565b602060405180830381865af4158015613289573d5f5f3e3d5ffd5b505050506040513d601f19601f820116820180604052508101906132ad9190613948565b5060025f9054906101000a900473ffffffffffffffffffffffffffffffffffffffff1673ffffffffffffffffffffffffffffffffffffffff16635df277fa5f5f9054906101000a900473ffffffffffffffffffffffffffffffffffffffff1660026040518363ffffffff1660e01b815260040161332b929190615007565b6020604051808303815f875af1158015613347573d5f5f3e3d5ffd5b505050506040513d601f19601f8201168201806040525081019061336b9190613948565b5060035f9054906101000a900473ffffffffffffffffffffffffffffffffffffffff1673ffffffffffffffffffffffffffffffffffffffff16635df277fa5f5f9054906101000a900473ffffffffffffffffffffffffffffffffffffffff1660026040518363ffffffff1660e01b81526004016133e9929190615007565b6020604051808303815f875af1158015613405573d5f5f3e3d5ffd5b505050506040513d601f19601f820116820180604052508101906134299190613948565b505f5f5f5f9054906101000a900473ffffffffffffffffffffffffffffffffffffffff1673ffffffffffffffffffffffffffffffffffffffff16633b4d01a760026040518263ffffffff1660e01b8152600401613486919061502e565b60a060405180830381865afa1580156134a1573d5f5f3e3d5ffd5b505050506040513d601f19601f820116820180604052508101906134c591906141b1565b509350935050505f5f5f9054906101000a900473ffffffffffffffffffffffffffffffffffffffff1673ffffffffffffffffffffffffffffffffffffffff16638e2767ef60026040518263ffffffff1660e01b8152600401613527919061502e565b602060405180830381865afa158015613542573d5f5f3e3d5ffd5b505050506040513d601f19601f82011682018060405250810190613566919061380c565b905073__$acbfb1c35000d78352310b16a054a6b106$__63abcd796082600160028661359291906150a1565b61359c91906150d1565b6040518363ffffffff1660e01b81526004016135b9929190615174565b602060405180830381865af41580156135d4573d5f5f3e3d5ffd5b505050506040513d601f19601f820116820180604052508101906135f89190613948565b5073__$acbfb1c35000d78352310b16a054a6b106$__63abcd79608460026040518363ffffffff1660e01b815260040161363392919061521e565b602060405180830381865af415801561364e573d5f5f3e3d5ffd5b505050506040513d601f19601f820116820180604052508101906136729190613948565b5050505050565b6106d28061525983390190565b6120978061592b83390190565b5f73ffffffffffffffffffffffffffffffffffffffff82169050919050565b5f819050919050565b5f6136d56136d06136cb84613693565b6136b2565b613693565b9050919050565b5f6136e6826136bb565b9050919050565b5f6136f7826136dc565b9050919050565b613707816136ed565b82525050565b7f4e487b71000000000000000000000000000000000000000000000000000000005f52602160045260245ffd5b6004811061374b5761374a61370d565b5b50565b5f81905061375b8261373a565b919050565b5f61376a8261374e565b9050919050565b61377a81613760565b82525050565b5f61378a82613693565b9050919050565b61379a81613780565b82525050565b5f6060820190506137b35f8301866136fe565b6137c06020830185613771565b6137cd6040830184613791565b949350505050565b5f5ffd5b5f819050919050565b6137eb816137d9565b81146137f5575f5ffd5b50565b5f81519050613806816137e2565b92915050565b5f60208284031215613821576138206137d5565b5b5f61382e848285016137f8565b91505092915050565b613840816137d9565b82525050565b5f819050919050565b5f61386961386461385f84613846565b6136b2565b6137d9565b9050919050565b6138798161384f565b82525050565b5f82825260208201905092915050565b7f546869732073686f756c642062652070726f706f73616c2035000000000000005f82015250565b5f6138c360198361387f565b91506138ce8261388f565b602082019050919050565b5f6060820190506138ec5f830185613837565b6138f96020830184613870565b818103604083015261390a816138b7565b90509392505050565b5f8115159050919050565b61392781613913565b8114613931575f5ffd5b50565b5f815190506139428161391e565b92915050565b5f6020828403121561395d5761395c6137d5565b5b5f61396a84828501613934565b91505092915050565b61397c8161384f565b82525050565b5f6040820190506139955f8301856136fe565b6139a26020830184613973565b9392505050565b6139b281613913565b82525050565b7f476f7665726e657231206e65657420746f2062652061626c6520746f206164645f8201527f206e657720676f7665726e6572206173207468726573686f6c6420697320726560208201527f61636865642e0000000000000000000000000000000000000000000000000000604082015250565b5f613a3860468361387f565b9150613a43826139b8565b606082019050919050565b5f604082019050613a615f8301846139a9565b8181036020830152613a7281613a2c565b905092915050565b5f819050919050565b5f613a9d613a98613a9384613a7a565b6136b2565b6137d9565b9050919050565b613aad81613a83565b82525050565b7f4e6f772074686572652073686f756c64206265203420676f7665726e6f7273005f82015250565b5f613ae7601f8361387f565b9150613af282613ab3565b602082019050919050565b5f606082019050613b105f830185613837565b613b1d6020830184613aa4565b8181036040830152613b2e81613adb565b90509392505050565b5f602082019050613b4a5f830184613791565b92915050565b7f4e6577476f7665726e6f72206e65656420746f20626520696e2074686520676f5f8201527f7665726e6f72206c697374000000000000000000000000000000000000000000602082015250565b5f613baa602b8361387f565b9150613bb582613b50565b604082019050919050565b5f604082019050613bd35f8301846139a9565b8181036020830152613be481613b9e565b905092915050565b5f819050919050565b5f61ffff82169050919050565b5f613c1c613c17613c1284613bec565b6136b2565b613bf5565b9050919050565b613c2c81613c02565b82525050565b5f602082019050613c455f830184613c23565b92915050565b5f81519050919050565b5f81905092915050565b8281835e5f83830152505050565b5f613c7782613c4b565b613c818185613c55565b9350613c91818560208601613c5f565b80840191505092915050565b5f613ca88284613c6d565b915081905092915050565b7f5765206d757374206e6f742062652061626c6520746f2067657420616e20696e5f8201527f76616c69642070726f706f73616c207769746820696e76616c69642069642e00602082015250565b5f613d0d603f8361387f565b9150613d1882613cb3565b604082019050919050565b5f604082019050613d365f8301846139a9565b8181036020830152613d4781613d01565b905092915050565b5f613d69613d64613d5f84613bec565b6136b2565b6137d9565b9050919050565b613d7981613d4f565b82525050565b5f604082019050613d925f8301856136fe565b613d9f6020830184613d70565b9392505050565b7f53686f756c64206e6f742062652061626c6520746f20766f7465206f6e2061205f8201527f6e6f6e206578697374656e742070726f706f73616c0000000000000000000000602082015250565b5f613e0060358361387f565b9150613e0b82613da6565b604082019050919050565b5f604082019050613e295f8301846139a9565b8181036020830152613e3a81613df4565b905092915050565b5f819050919050565b5f613e65613e60613e5b84613e42565b6136b2565b6137d9565b9050919050565b613e7581613e4b565b82525050565b7f46697273742070726f706f73616c204944206e65656420746f206265203000005f82015250565b5f613eaf601e8361387f565b9150613eba82613e7b565b602082019050919050565b5f606082019050613ed85f830185613837565b613ee56020830184613e6c565b8181036040830152613ef681613ea3565b90509392505050565b5f819050919050565b5f613f22613f1d613f1884613eff565b6136b2565b6137d9565b9050919050565b613f3281613f08565b82525050565b7f4e756d626572206f662070726f706f73616c73206e65656420746f20626520315f82015250565b5f613f6c60208361387f565b9150613f7782613f38565b602082019050919050565b5f606082019050613f955f830185613837565b613fa26020830184613f29565b8181036040830152613fb381613f60565b90509392505050565b5f819050919050565b5f613fdf613fda613fd584613fbc565b6136b2565b6137d9565b9050919050565b613fef81613fc5565b82525050565b7f546869732073686f756c642062652070726f706f73616c2033000000000000005f82015250565b5f61402960198361387f565b915061403482613ff5565b602082019050919050565b5f6060820190506140525f830185613837565b61405f6020830184613fe6565b81810360408301526140708161401d565b90509392505050565b61408281613fc5565b82525050565b5f60408201905061409b5f8301856136fe565b6140a86020830184614079565b9392505050565b7f476f7665726e6f7231206d7573742062652061626c6520746f206578656375745f8201527f65206166746572207265616368696e67207468726573686f6c642e0000000000602082015250565b5f614109603b8361387f565b9150614114826140af565b604082019050919050565b5f6040820190506141325f8301846139a9565b8181036020830152614143816140fd565b905092915050565b5f60208201905061415e5f830184614079565b92915050565b60048110614170575f5ffd5b50565b5f8151905061418181614164565b92915050565b61419081613780565b811461419a575f5ffd5b50565b5f815190506141ab81614187565b92915050565b5f5f5f5f5f60a086880312156141ca576141c96137d5565b5b5f6141d788828901614173565b95505060206141e88882890161419d565b94505060406141f9888289016137f8565b935050606061420a888289016137f8565b925050608061421b88828901613934565b9150509295509295909350565b7f50726f706f73616c2033277320657865637574656420666c61672073686f756c5f8201527f642062652073657420746f207472756500000000000000000000000000000000602082015250565b5f61428260308361387f565b915061428d82614228565b604082019050919050565b5f6040820190506142ab5f8301846139a9565b81810360208301526142bc81614276565b905092915050565b7f546869732073686f756c642062652070726f706f73616c2031000000000000005f82015250565b5f6142f860198361387f565b9150614303826142c4565b602082019050919050565b5f6060820190506143215f830185613837565b61432e6020830184613f29565b818103604083015261433f816142ec565b90509392505050565b61435181613f08565b82525050565b5f60408201905061436a5f8301856136fe565b6143776020830184614348565b9392505050565b7f476f7665726e6f7231206d7573742062652061626c6520746f20766f746500005f82015250565b5f6143b2601e8361387f565b91506143bd8261437e565b602082019050919050565b5f6040820190506143db5f8301846139a9565b81810360208301526143ec816143a6565b905092915050565b5f6040820190506144075f830185614348565b6144146020830184613791565b9392505050565b7f4e6f7720476f7665726e6f7231206e65656420746f206265206d61726b6564205f8201527f617320766f746564000000000000000000000000000000000000000000000000602082015250565b5f61447560288361387f565b91506144808261441b565b604082019050919050565b5f60408201905061449e5f8301846139a9565b81810360208301526144af81614469565b905092915050565b7f476f7665726e6f723220616c736f206d7573742062652061626c6520746f20765f8201527f6f74650000000000000000000000000000000000000000000000000000000000602082015250565b5f61451160238361387f565b915061451c826144b7565b604082019050919050565b5f60408201905061453a5f8301846139a9565b818103602083015261454b81614505565b905092915050565b7f476f7665726e6f7232206d757374206e6f742062652061626c6520746f20766f5f8201527f7465207477696365000000000000000000000000000000000000000000000000602082015250565b5f6145ad60288361387f565b91506145b882614553565b604082019050919050565b5f6040820190506145d65f8301846139a9565b81810360208301526145e7816145a1565b905092915050565b5f819050919050565b5f61461261460d614608846145ef565b6136b2565b6137d9565b9050919050565b614622816145f8565b82525050565b7f546869732069732070726f706f73616c202337000000000000000000000000005f82015250565b5f61465c60138361387f565b915061466782614628565b602082019050919050565b5f6060820190506146855f830185613837565b6146926020830184614619565b81810360408301526146a381614650565b90509392505050565b6146b5816145f8565b82525050565b5f6040820190506146ce5f8301856136fe565b6146db60208301846146ac565b9392505050565b7f476f7665726e657231206d7573742062652072656d6f7665642e0000000000005f82015250565b5f614716601a8361387f565b9150614721826146e2565b602082019050919050565b5f60408201905061473f5f8301846139a9565b81810360208301526147508161470a565b905092915050565b7f5765207374696c6c2068617665203320676f7665726e6f727320746f74616c005f82015250565b5f61478c601f8361387f565b915061479782614758565b602082019050919050565b5f6060820190506147b55f830185613837565b6147c26020830184613fe6565b81810360408301526147d381614780565b90509392505050565b7f676f7665726e6f7231207761732072656d6f76656400000000000000000000005f82015250565b5f61481060158361387f565b915061481b826147dc565b602082019050919050565b5f6040820190506148395f8301846139a9565b818103602083015261484a81614804565b905092915050565b7f546869732073686f756c642062652070726f706f73616c2034000000000000005f82015250565b5f61488660198361387f565b915061489182614852565b602082019050919050565b5f6060820190506148af5f830185613837565b6148bc6020830184613aa4565b81810360408301526148cd8161487a565b90509392505050565b6148df81613a83565b82525050565b5f6040820190506148f85f8301856136fe565b61490560208301846148d6565b9392505050565b7f53686f756c64206e6f74206578656375746520342077697468206f6e6c7920315f8201527f20766f746520287468726573686f6c6420686173206e6f74206265656e20726560208201527f6163686564290000000000000000000000000000000000000000000000000000604082015250565b5f61498c60468361387f565b91506149978261490c565b606082019050919050565b5f6040820190506149b55f8301846139a9565b81810360208301526149c681614980565b905092915050565b5f81549050919050565b5f82825260208201905092915050565b5f819050815f5260205f209050919050565b614a0381613780565b82525050565b5f614a1483836149fa565b60208301905092915050565b5f815f1c9050919050565b5f73ffffffffffffffffffffffffffffffffffffffff82169050919050565b5f614a5c614a5783614a20565b614a2b565b9050919050565b5f614a6e8254614a4a565b9050919050565b5f600182019050919050565b5f614a8b826149ce565b614a9581856149d8565b9350614aa0836149e8565b805f5b83811015614ad757614ab482614a63565b614abe8882614a09565b9750614ac983614a75565b925050600181019050614aa3565b5085935050505092915050565b5f6040820190508181035f830152614afc8185614a81565b9050614b0b6020830184613791565b9392505050565b5f819050919050565b5f614b35614b30614b2b84614b12565b6136b2565b6137d9565b9050919050565b614b4581614b1b565b82525050565b7f546869732069732070726f706f73616c203600000000000000000000000000005f82015250565b5f614b7f60128361387f565b9150614b8a82614b4b565b602082019050919050565b5f606082019050614ba85f830185613837565b614bb56020830184614b3c565b8181036040830152614bc681614b73565b90509392505050565b614bd881614b1b565b82525050565b5f604082019050614bf15f8301856136fe565b614bfe6020830184614bcf565b9392505050565b7f53686f756c64206e6f742061646420616e20616c7265616479206578697374695f8201527f6e6720676f7665726e6f72000000000000000000000000000000000000000000602082015250565b5f614c5f602b8361387f565b9150614c6a82614c05565b604082019050919050565b5f604082019050614c885f8301846139a9565b8181036020830152614c9981614c53565b905092915050565b7f496e697469616c20676f7665726e6f7220636f756e74206e65656420746f20625f8201527f6520330000000000000000000000000000000000000000000000000000000000602082015250565b5f614cfb60238361387f565b9150614d0682614ca1565b604082019050919050565b5f606082019050614d245f830185613837565b614d316020830184613fe6565b8181036040830152614d4281614cef565b90509392505050565b7f676f7665726e6f7231206d757374206265206120676f7665726e6f72000000005f82015250565b5f614d7f601c8361387f565b9150614d8a82614d4b565b602082019050919050565b5f604082019050614da85f8301846139a9565b8181036020830152614db981614d73565b905092915050565b7f52616e646f6d206164647265737320286e6f6e20676f7665726e6f72292073685f8201527f6f756c64206e6f74206265206120676f7665726e6f7200000000000000000000602082015250565b5f614e1b60368361387f565b9150614e2682614dc1565b604082019050919050565b5f604082019050614e445f8301846139a9565b8181036020830152614e5581614e0f565b905092915050565b5f60ff82169050919050565b614e7281614e5d565b82525050565b5f604082019050614e8b5f830185614e69565b614e986020830184613791565b9392505050565b7f41206e6f6e20676f7665726e6f72206d757374206e6f742062652061626c65205f8201527f746f206d616b6520612070726f706f73616c0000000000000000000000000000602082015250565b5f614ef960328361387f565b9150614f0482614e9f565b604082019050919050565b5f604082019050614f225f8301846139a9565b8181036020830152614f3381614eed565b905092915050565b5f819050919050565b5f614f5e614f59614f5484614f3b565b6136b2565b6137d9565b9050919050565b614f6e81614f44565b82525050565b7f546869732073686f756c642062652070726f706f73616c2032000000000000005f82015250565b5f614fa860198361387f565b9150614fb382614f74565b602082019050919050565b5f606082019050614fd15f830185613837565b614fde6020830184614f65565b8181036040830152614fef81614f9c565b90509392505050565b61500181614f44565b82525050565b5f60408201905061501a5f8301856136fe565b6150276020830184614ff8565b9392505050565b5f6020820190506150415f830184614ff8565b92915050565b7f4e487b71000000000000000000000000000000000000000000000000000000005f52601260045260245ffd5b7f4e487b71000000000000000000000000000000000000000000000000000000005f52601160045260245ffd5b5f6150ab826137d9565b91506150b6836137d9565b9250826150c6576150c5615047565b5b828204905092915050565b5f6150db826137d9565b91506150e6836137d9565b92508282019050808211156150fe576150fd615074565b5b92915050565b7f5468726573686f6c64206e65656420746f20666f6c6c6f7720746865203531255f8201527f2072756c65000000000000000000000000000000000000000000000000000000602082015250565b5f61515e60258361387f565b915061516982615104565b604082019050919050565b5f6060820190506151875f830185613837565b6151946020830184613837565b81810360408301526151a581615152565b90509392505050565b7f54686572652073686f756c642062652065786163746c7920322079657320766f5f8201527f746573206e6f7700000000000000000000000000000000000000000000000000602082015250565b5f61520860278361387f565b9150615213826151ae565b604082019050919050565b5f6060820190506152315f830185613837565b61523e6020830184614f65565b818103604083015261524f816151fc565b9050939250505056fe6080604052348015600e575f5ffd5b506106b68061001c5f395ff3fe608060405234801561000f575f5ffd5b506004361061003f575f3560e01c80635df277fa1461004357806384fc00ba14610073578063bfc42645146100a3575b5f5ffd5b61005d600480360381019061005891906103fa565b6100d3565b60405161006a9190610452565b60405180910390f35b61008d600480360381019061008891906104b8565b6101d3565b60405161009a9190610517565b60405180910390f35b6100bd60048036038101906100b891906103fa565b610258565b6040516100ca9190610452565b60405180910390f35b5f5f8373ffffffffffffffffffffffffffffffffffffffff16836040516024016100fd9190610517565b6040516020818303038152906040527f0121b93f000000000000000000000000000000000000000000000000000000007bffffffffffffffffffffffffffffffffffffffffffffffffffffffff19166020820180517bffffffffffffffffffffffffffffffffffffffffffffffffffffffff83818316178352505050506040516101879190610582565b5f604051808303815f865af19150503d805f81146101c0576040519150601f19603f3d011682016040523d82523d5f602084013e6101c5565b606091505b505090508091505092915050565b5f8373ffffffffffffffffffffffffffffffffffffffff1663aebe39ca84846040518363ffffffff1660e01b815260040161020f92919061061a565b6020604051808303815f875af115801561022b573d5f5f3e3d5ffd5b505050506040513d601f19601f8201168201806040525081019061024f9190610655565b90509392505050565b5f5f8373ffffffffffffffffffffffffffffffffffffffff16836040516024016102829190610517565b6040516020818303038152906040527f0d61b519000000000000000000000000000000000000000000000000000000007bffffffffffffffffffffffffffffffffffffffffffffffffffffffff19166020820180517bffffffffffffffffffffffffffffffffffffffffffffffffffffffff838183161783525050505060405161030c9190610582565b5f604051808303815f865af19150503d805f8114610345576040519150601f19603f3d011682016040523d82523d5f602084013e61034a565b606091505b505090508091505092915050565b5f5ffd5b5f73ffffffffffffffffffffffffffffffffffffffff82169050919050565b5f6103858261035c565b9050919050565b5f6103968261037b565b9050919050565b6103a68161038c565b81146103b0575f5ffd5b50565b5f813590506103c18161039d565b92915050565b5f819050919050565b6103d9816103c7565b81146103e3575f5ffd5b50565b5f813590506103f4816103d0565b92915050565b5f5f604083850312156104105761040f610358565b5b5f61041d858286016103b3565b925050602061042e858286016103e6565b9150509250929050565b5f8115159050919050565b61044c81610438565b82525050565b5f6020820190506104655f830184610443565b92915050565b60048110610477575f5ffd5b50565b5f813590506104888161046b565b92915050565b6104978161037b565b81146104a1575f5ffd5b50565b5f813590506104b28161048e565b92915050565b5f5f5f606084860312156104cf576104ce610358565b5b5f6104dc868287016103b3565b93505060206104ed8682870161047a565b92505060406104fe868287016104a4565b9150509250925092565b610511816103c7565b82525050565b5f60208201905061052a5f830184610508565b92915050565b5f81519050919050565b5f81905092915050565b8281835e5f83830152505050565b5f61055c82610530565b610566818561053a565b9350610576818560208601610544565b80840191505092915050565b5f61058d8284610552565b915081905092915050565b7f4e487b71000000000000000000000000000000000000000000000000000000005f52602160045260245ffd5b600481106105d6576105d5610598565b5b50565b5f8190506105e6826105c5565b919050565b5f6105f5826105d9565b9050919050565b610605816105eb565b82525050565b6106148161037b565b82525050565b5f60408201905061062d5f8301856105fc565b61063a602083018461060b565b9392505050565b5f8151905061064f816103d0565b92915050565b5f6020828403121561066a57610669610358565b5b5f61067784828501610641565b9150509291505056fea26469706673582212200ba9e718d331c6672e4009fa92592bc435a197576616f0680e14ef80db76c45a64736f6c634300081e0033608060405234801561000f575f5ffd5b50604051612097380380612097833981810160405281019061003191906102eb565b815f908051906020019061004692919061008e565b508060015f6101000a81548173ffffffffffffffffffffffffffffffffffffffff021916908373ffffffffffffffffffffffffffffffffffffffff1602179055505050610345565b828054828255905f5260205f20908101928215610104579160200282015b82811115610103578251825f6101000a81548173ffffffffffffffffffffffffffffffffffffffff021916908373ffffffffffffffffffffffffffffffffffffffff160217905550916020019190600101906100ac565b5b5090506101119190610115565b5090565b5b8082111561012c575f815f905550600101610116565b5090565b5f604051905090565b5f5ffd5b5f5ffd5b5f5ffd5b5f601f19601f8301169050919050565b7f4e487b71000000000000000000000000000000000000000000000000000000005f52604160045260245ffd5b61018b82610145565b810181811067ffffffffffffffff821117156101aa576101a9610155565b5b80604052505050565b5f6101bc610130565b90506101c88282610182565b919050565b5f67ffffffffffffffff8211156101e7576101e6610155565b5b602082029050602081019050919050565b5f5ffd5b5f73ffffffffffffffffffffffffffffffffffffffff82169050919050565b5f610225826101fc565b9050919050565b6102358161021b565b811461023f575f5ffd5b50565b5f815190506102508161022c565b92915050565b5f610268610263846101cd565b6101b3565b9050808382526020820190506020840283018581111561028b5761028a6101f8565b5b835b818110156102b457806102a08882610242565b84526020840193505060208101905061028d565b5050509392505050565b5f82601f8301126102d2576102d1610141565b5b81516102e2848260208601610256565b91505092915050565b5f5f6040838503121561030157610300610139565b5b5f83015167ffffffffffffffff81111561031e5761031d61013d565b5b61032a858286016102be565b925050602061033b85828601610242565b9150509250929050565b611d45806103525f395ff3fe608060405234801561000f575f5ffd5b50600436106100e8575f3560e01c8063a7277b001161008a578063dc999c8d11610064578063dc999c8d14610289578063e0901d7a146102a7578063e43581b8146102c3578063e8c9fd45146102f3576100e8565b8063a7277b001461020b578063aebe39ca1461023b578063da35c6641461026b576100e8565b80630eb3813a116100c65780630eb3813a146101595780633b4d01a71461017757806343859632146101ab5780638e2767ef146101db576100e8565b80630121b93f146100ec578063013cf08b146101085780630d61b5191461013d575b5f5ffd5b6101066004803603810190610101919061143d565b610311565b005b610122600480360381019061011d919061143d565b610513565b60405161013496959493929190611543565b60405180910390f35b6101576004803603810190610152919061143d565b610592565b005b610161610f0a565b60405161016e91906115a2565b60405180910390f35b610191600480360381019061018c919061143d565b610f2d565b6040516101a29594939291906115bb565b60405180910390f35b6101c560048036038101906101c09190611636565b610fba565b6040516101d29190611674565b60405180910390f35b6101f560048036038101906101f0919061143d565b61102e565b60405161020291906115a2565b60405180910390f35b6102256004803603810190610220919061143d565b611077565b604051610232919061168d565b60405180910390f35b610255600480360381019061025091906116c9565b6110b1565b60405161026291906115a2565b60405180910390f35b610273611210565b60405161028091906115a2565b60405180910390f35b61029161121c565b60405161029e919061168d565b60405180910390f35b6102c160048036038101906102bc9190611707565b611241565b005b6102dd60048036038101906102d89190611707565b61135b565b6040516102ea9190611674565b60405180910390f35b6102fb6113fb565b60405161030891906115a2565b60405180910390f35b61031a3361135b565b610359576040517f08c379a00000000000000000000000000000000000000000000000000000000081526004016103509061178c565b60405180910390fd5b5f6002828154811061036e5761036d6117aa565b5b905f5260205f2090600602019050806005015f3373ffffffffffffffffffffffffffffffffffffffff1673ffffffffffffffffffffffffffffffffffffffff1681526020019081526020015f205f9054906101000a900460ff1615610408576040517f08c379a00000000000000000000000000000000000000000000000000000000081526004016103ff90611821565b60405180910390fd5b806004015f9054906101000a900460ff1615610459576040517f08c379a000000000000000000000000000000000000000000000000000000000815260040161045090611889565b60405180910390fd5b6001816005015f3373ffffffffffffffffffffffffffffffffffffffff1673ffffffffffffffffffffffffffffffffffffffff1681526020019081526020015f205f6101000a81548160ff0219169083151502179055506001816002015f8282546104c491906118d4565b925050819055503373ffffffffffffffffffffffffffffffffffffffff16827ff1003b73c437642c0460aee9cd9628b0b8c447b66e6c7c905531b9c644214a1160405160405180910390a35050565b60028181548110610522575f80fd5b905f5260205f2090600602015f91509050805f015490806001015f9054906101000a900460ff16908060010160019054906101000a900473ffffffffffffffffffffffffffffffffffffffff1690806002015490806003015490806004015f9054906101000a900460ff16905086565b61059b3361135b565b6105da576040517f08c379a00000000000000000000000000000000000000000000000000000000081526004016105d19061178c565b60405180910390fd5b5f600282815481106105ef576105ee6117aa565b5b905f5260205f20906006020190505f6001600283600301546106119190611934565b61061b91906118d4565b90508082600201541015610664576040517f08c379a000000000000000000000000000000000000000000000000000000000815260040161065b906119d4565b60405180910390fd5b816004015f9054906101000a900460ff16156106b5576040517f08c379a00000000000000000000000000000000000000000000000000000000081526004016106ac90611889565b60405180910390fd5b5f60038111156106c8576106c7611477565b5b826001015f9054906101000a900460ff1660038111156106eb576106ea611477565b5b03610870575f60015f9054906101000a900473ffffffffffffffffffffffffffffffffffffffff1673ffffffffffffffffffffffffffffffffffffffff168360010160019054906101000a900473ffffffffffffffffffffffffffffffffffffffff1660405160240161075e919061168d565b6040516020818303038152906040527fbd4d8bcb000000000000000000000000000000000000000000000000000000007bffffffffffffffffffffffffffffffffffffffffffffffffffffffff19166020820180517bffffffffffffffffffffffffffffffffffffffffffffffffffffffff83818316178352505050506040516107e89190611a44565b5f604051808303815f865af19150503d805f8114610821576040519150601f19603f3d011682016040523d82523d5f602084013e610826565b606091505b505090508061086a576040517f08c379a000000000000000000000000000000000000000000000000000000000815260040161086190611aa4565b60405180910390fd5b50610ebc565b6001600381111561088457610883611477565b5b826001015f9054906101000a900460ff1660038111156108a7576108a6611477565b5b03610a2c575f60015f9054906101000a900473ffffffffffffffffffffffffffffffffffffffff1673ffffffffffffffffffffffffffffffffffffffff168360010160019054906101000a900473ffffffffffffffffffffffffffffffffffffffff1660405160240161091a919061168d565b6040516020818303038152906040527f1c67494e000000000000000000000000000000000000000000000000000000007bffffffffffffffffffffffffffffffffffffffffffffffffffffffff19166020820180517bffffffffffffffffffffffffffffffffffffffffffffffffffffffff83818316178352505050506040516109a49190611a44565b5f604051808303815f865af19150503d805f81146109dd576040519150601f19603f3d011682016040523d82523d5f602084013e6109e2565b606091505b5050905080610a26576040517f08c379a0000000000000000000000000000000000000000000000000000000008152600401610a1d90611b0c565b60405180910390fd5b50610ebb565b60026003811115610a4057610a3f611477565b5b826001015f9054906101000a900460ff166003811115610a6357610a62611477565b5b03610bc457610a958260010160019054906101000a900473ffffffffffffffffffffffffffffffffffffffff1661135b565b15610ad5576040517f08c379a0000000000000000000000000000000000000000000000000000000008152600401610acc90611b74565b60405180910390fd5b5f8260010160019054906101000a900473ffffffffffffffffffffffffffffffffffffffff16908060018154018082558091505060019003905f5260205f20015f9091909190916101000a81548173ffffffffffffffffffffffffffffffffffffffff021916908373ffffffffffffffffffffffffffffffffffffffff1602179055508160010160019054906101000a900473ffffffffffffffffffffffffffffffffffffffff1673ffffffffffffffffffffffffffffffffffffffff167fdc5a48d79e2e147530ff63ecdbed5a5a66adb9d5cf339384d5d076da197c40b560405160405180910390a2610eba565b600380811115610bd757610bd6611477565b5b826001015f9054906101000a900460ff166003811115610bfa57610bf9611477565b5b03610eb957610c2c8260010160019054906101000a900473ffffffffffffffffffffffffffffffffffffffff1661135b565b610c6b576040517f08c379a0000000000000000000000000000000000000000000000000000000008152600401610c629061178c565b60405180910390fd5b6002610c756113fb565b1015610cb6576040517f08c379a0000000000000000000000000000000000000000000000000000000008152600401610cad90611c02565b60405180910390fd5b5f5f90505b5f80549050811015610eb7578260010160019054906101000a900473ffffffffffffffffffffffffffffffffffffffff1673ffffffffffffffffffffffffffffffffffffffff165f8281548110610d1557610d146117aa565b5b905f5260205f20015f9054906101000a900473ffffffffffffffffffffffffffffffffffffffff1673ffffffffffffffffffffffffffffffffffffffff1603610eaa575f60015f80549050610d6a9190611c20565b81548110610d7b57610d7a6117aa565b5b905f5260205f20015f9054906101000a900473ffffffffffffffffffffffffffffffffffffffff165f8281548110610db657610db56117aa565b5b905f5260205f20015f6101000a81548173ffffffffffffffffffffffffffffffffffffffff021916908373ffffffffffffffffffffffffffffffffffffffff1602179055505f805480610e0c57610e0b611c53565b5b600190038181905f5260205f20015f6101000a81549073ffffffffffffffffffffffffffffffffffffffff021916905590558260010160019054906101000a900473ffffffffffffffffffffffffffffffffffffffff1673ffffffffffffffffffffffffffffffffffffffff167f1ebe834e73d60a5fec822c1e1727d34bc79f2ad977ed504581cc1822fe20fb5b60405160405180910390a2610eb7565b8080600101915050610cbb565b505b5b5b5b6001826004015f6101000a81548160ff021916908315150217905550827f712ae1383f79ac853f8d882153778e0260ef8f03b504e2866e0593e04d2b291f60405160405180910390a2505050565b5f600160025f80549050610f1e9190611934565b610f2891906118d4565b905090565b5f5f5f5f5f5f60028781548110610f4757610f466117aa565b5b905f5260205f2090600602019050806001015f9054906101000a900460ff168160010160019054906101000a900473ffffffffffffffffffffffffffffffffffffffff1682600201548360030154846004015f9054906101000a900460ff16955095509550955095505091939590929450565b5f60028381548110610fcf57610fce6117aa565b5b905f5260205f2090600602016005015f8373ffffffffffffffffffffffffffffffffffffffff1673ffffffffffffffffffffffffffffffffffffffff1681526020019081526020015f205f9054906101000a900460ff16905092915050565b5f5f60028381548110611044576110436117aa565b5b905f5260205f20906006020190506001600282600301546110659190611934565b61106f91906118d4565b915050919050565b5f8181548110611085575f80fd5b905f5260205f20015f915054906101000a900473ffffffffffffffffffffffffffffffffffffffff1681565b5f6110bb3361135b565b6110fa576040517f08c379a00000000000000000000000000000000000000000000000000000000081526004016110f19061178c565b60405180910390fd5b5f60028054905090505f600260018160018154018082558091505003905f5260205f209060060201905081815f018190555084816001015f6101000a81548160ff0219169083600381111561115257611151611477565b5b0217905550838160010160016101000a81548173ffffffffffffffffffffffffffffffffffffffff021916908373ffffffffffffffffffffffffffffffffffffffff1602179055505f81600201819055505f8054905081600301819055505f816004015f6101000a81548160ff021916908315150217905550817f3263432a41f78a4701cc9465f62411ed717ade32290c084135a3dd6b29f4bf2886866040516111fd929190611c80565b60405180910390a2819250505092915050565b5f600280549050905090565b60015f9054906101000a900473ffffffffffffffffffffffffffffffffffffffff1681565b61124a3361135b565b611289576040517f08c379a00000000000000000000000000000000000000000000000000000000081526004016112809061178c565b60405180910390fd5b5f73ffffffffffffffffffffffffffffffffffffffff1660015f9054906101000a900473ffffffffffffffffffffffffffffffffffffffff1673ffffffffffffffffffffffffffffffffffffffff1614611318576040517f08c379a000000000000000000000000000000000000000000000000000000000815260040161130f90611cf1565b60405180910390fd5b8060015f6101000a81548173ffffffffffffffffffffffffffffffffffffffff021916908373ffffffffffffffffffffffffffffffffffffffff16021790555050565b5f5f5f90505b5f805490508110156113f1578273ffffffffffffffffffffffffffffffffffffffff165f8281548110611397576113966117aa565b5b905f5260205f20015f9054906101000a900473ffffffffffffffffffffffffffffffffffffffff1673ffffffffffffffffffffffffffffffffffffffff16036113e45760019150506113f6565b8080600101915050611361565b505f90505b919050565b5f5f80549050905090565b5f5ffd5b5f819050919050565b61141c8161140a565b8114611426575f5ffd5b50565b5f8135905061143781611413565b92915050565b5f6020828403121561145257611451611406565b5b5f61145f84828501611429565b91505092915050565b6114718161140a565b82525050565b7f4e487b71000000000000000000000000000000000000000000000000000000005f52602160045260245ffd5b600481106114b5576114b4611477565b5b50565b5f8190506114c5826114a4565b919050565b5f6114d4826114b8565b9050919050565b6114e4816114ca565b82525050565b5f73ffffffffffffffffffffffffffffffffffffffff82169050919050565b5f611513826114ea565b9050919050565b61152381611509565b82525050565b5f8115159050919050565b61153d81611529565b82525050565b5f60c0820190506115565f830189611468565b61156360208301886114db565b611570604083018761151a565b61157d6060830186611468565b61158a6080830185611468565b61159760a0830184611534565b979650505050505050565b5f6020820190506115b55f830184611468565b92915050565b5f60a0820190506115ce5f8301886114db565b6115db602083018761151a565b6115e86040830186611468565b6115f56060830185611468565b6116026080830184611534565b9695505050505050565b61161581611509565b811461161f575f5ffd5b50565b5f813590506116308161160c565b92915050565b5f5f6040838503121561164c5761164b611406565b5b5f61165985828601611429565b925050602061166a85828601611622565b9150509250929050565b5f6020820190506116875f830184611534565b92915050565b5f6020820190506116a05f83018461151a565b92915050565b600481106116b2575f5ffd5b50565b5f813590506116c3816116a6565b92915050565b5f5f604083850312156116df576116de611406565b5b5f6116ec858286016116b5565b92505060206116fd85828601611622565b9150509250929050565b5f6020828403121561171c5761171b611406565b5b5f61172984828501611622565b91505092915050565b5f82825260208201905092915050565b7f4e6f74206120676f7665726e6f720000000000000000000000000000000000005f82015250565b5f611776600e83611732565b915061178182611742565b602082019050919050565b5f6020820190508181035f8301526117a38161176a565b9050919050565b7f4e487b71000000000000000000000000000000000000000000000000000000005f52603260045260245ffd5b7f476f7665726e6f7220616c726561647920766f746564000000000000000000005f82015250565b5f61180b601683611732565b9150611816826117d7565b602082019050919050565b5f6020820190508181035f830152611838816117ff565b9050919050565b7f50726f706f73616c20616c7265616479206578656375746564000000000000005f82015250565b5f611873601983611732565b915061187e8261183f565b602082019050919050565b5f6020820190508181035f8301526118a081611867565b9050919050565b7f4e487b71000000000000000000000000000000000000000000000000000000005f52601160045260245ffd5b5f6118de8261140a565b91506118e98361140a565b9250828201905080821115611901576119006118a7565b5b92915050565b7f4e487b71000000000000000000000000000000000000000000000000000000005f52601260045260245ffd5b5f61193e8261140a565b91506119498361140a565b92508261195957611958611907565b5b828204905092915050565b7f496e73756666696369656e7420766f74657320746f20657865637574652070725f8201527f6f706f73616c0000000000000000000000000000000000000000000000000000602082015250565b5f6119be602683611732565b91506119c982611964565b604082019050919050565b5f6020820190508181035f8301526119eb816119b2565b9050919050565b5f81519050919050565b5f81905092915050565b8281835e5f83830152505050565b5f611a1e826119f2565b611a2881856119fc565b9350611a38818560208601611a06565b80840191505092915050565b5f611a4f8284611a14565b915081905092915050565b7f417574686f72697a6174696f6e206661696c65640000000000000000000000005f82015250565b5f611a8e601483611732565b9150611a9982611a5a565b602082019050919050565b5f6020820190508181035f830152611abb81611a82565b9050919050565b7f5265766f636174696f6e206661696c65640000000000000000000000000000005f82015250565b5f611af6601183611732565b9150611b0182611ac2565b602082019050919050565b5f6020820190508181035f830152611b2381611aea565b9050919050565b7f54617267657420697320616c7265616479206120676f7665726e6f72000000005f82015250565b5f611b5e601c83611732565b9150611b6982611b2a565b602082019050919050565b5f6020820190508181035f830152611b8b81611b52565b9050919050565b7f54776f20676f7665726e6f72732063616e6e6f742072656d6f766520656163685f8201527f206f746865720000000000000000000000000000000000000000000000000000602082015250565b5f611bec602683611732565b9150611bf782611b92565b604082019050919050565b5f6020820190508181035f830152611c1981611be0565b9050919050565b5f611c2a8261140a565b9150611c358361140a565b9250828203905081811115611c4d57611c4c6118a7565b5b92915050565b7f4e487b71000000000000000000000000000000000000000000000000000000005f52603160045260245ffd5b5f604082019050611c935f8301856114db565b611ca0602083018461151a565b9392505050565b7f4164647265737320616c726561647920736574000000000000000000000000005f82015250565b5f611cdb601383611732565b9150611ce682611ca7565b602082019050919050565b5f6020820190508181035f830152611d0881611ccf565b905091905056fea2646970667358221220c047af4d57acd5b13a057d48602d7ce3fbbb1c9eb3cce81bf2e7c000b0d43aaf64736f6c634300081e0033a2646970667358221220dbe9ec36db0c2020533c1775c97e5628671f55507948f78eb1e375ed5b82af3e64736f6c634300081e0033",
			"opcodes": "PUSH1 0x80 PUSH1 0x40 MSTORE PUSH1 0x1 DUP1 PUSH0 PUSH2 0x100 EXP DUP2 SLOAD DUP2 PUSH20 0xFFFFFFFFFFFFFFFFFFFFFFFFFFFFFFFFFFFFFFFF MUL NOT AND SWAP1 DUP4 PUSH20 0xFFFFFFFFFFFFFFFFFFFFFFFFFFFFFFFFFFFFFFFF AND MUL OR SWAP1 SSTORE POP PUSH1 0x5 DUP1 PUSH0 PUSH2 0x100 EXP DUP2 SLOAD DUP2 PUSH20 0xFFFFFFFFFFFFFFFFFFFFFFFFFFFFFFFFFFFFFFFF MUL NOT AND SWAP1 DUP4 PUSH20 0xFFFFFFFFFFFFFFFFFFFFFFFFFFFFFFFFFFFFFFFF AND MUL OR SWAP1 SSTORE POP PUSH1 0x6 DUP1 PUSH0 PUSH2 0x100 EXP DUP2 SLOAD DUP2 PUSH20 0xFFFFFFFFFFFFFFFFFFFFFFFFFFFFFFFFFFFFFFFF MUL NOT AND SWAP1 DUP4 PUSH20 0xFFFFFFFFFFFFFFFFFFFFFFFFFFFFFFFFFFFFFFFF AND MUL OR SWAP1 SSTORE POP PUSH1 0x7 DUP1 PUSH0 PUSH2 0x100 EXP DUP2 SLOAD DUP2 PUSH20 0xFFFFFFFFFFFFFFFFFFFFFFFFFFFFFFFFFFFFFFFF MUL NOT AND SWAP1 DUP4 PUSH20 0xFFFFFFFFFFFFFFFFFFFFFFFFFFFFFFFFFFFFFFFF AND MUL OR SWAP1 SSTORE POP CALLVALUE DUP1 ISZERO PUSH2 0x10F JUMPI PUSH0 PUSH0 REVERT JUMPDEST POP PUSH2 0x79F7 DUP1 PUSH2 0x11D PUSH0 CODECOPY PUSH0 RETURN INVALID PUSH1 0x80 PUSH1 0x40 MSTORE CALLVALUE DUP1 ISZERO PUSH2 0xF JUMPI PUSH0 PUSH0 REVERT JUMPDEST POP PUSH1 0x4 CALLDATASIZE LT PUSH2 0xCC JUMPI PUSH0 CALLDATALOAD PUSH1 0xE0 SHR DUP1 PUSH4 0x7942E1FE GT PUSH2 0x8A JUMPI DUP1 PUSH4 0x88C39A74 GT PUSH2 0x64 JUMPI DUP1 PUSH4 0x88C39A74 EQ PUSH2 0x12A JUMPI DUP1 PUSH4 0x8E82EDDD EQ PUSH2 0x134 JUMPI DUP1 PUSH4 0xCC27F7F3 EQ PUSH2 0x13E JUMPI DUP1 PUSH4 0xCD4AFA91 EQ PUSH2 0x148 JUMPI PUSH2 0xCC JUMP JUMPDEST DUP1 PUSH4 0x7942E1FE EQ PUSH2 0x10C JUMPI DUP1 PUSH4 0x7CAC6231 EQ PUSH2 0x116 JUMPI DUP1 PUSH4 0x7FEA0D4B EQ PUSH2 0x120 JUMPI PUSH2 0xCC JUMP JUMPDEST DUP1 PUSH3 0xDC50F4 EQ PUSH2 0xD0 JUMPI DUP1 PUSH4 0x16E43814 EQ PUSH2 0xDA JUMPI DUP1 PUSH4 0x238B16D3 EQ PUSH2 0xE4 JUMPI DUP1 PUSH4 0x6760EE17 EQ PUSH2 0xEE JUMPI DUP1 PUSH4 0x6B505A42 EQ PUSH2 0xF8 JUMPI DUP1 PUSH4 0x78E9B62B EQ PUSH2 0x102 JUMPI JUMPDEST PUSH0 PUSH0 REVERT JUMPDEST PUSH2 0xD8 PUSH2 0x152 JUMP JUMPDEST STOP JUMPDEST PUSH2 0xE2 PUSH2 0x859 JUMP JUMPDEST STOP JUMPDEST PUSH2 0xEC PUSH2 0x9EB JUMP JUMPDEST STOP JUMPDEST PUSH2 0xF6 PUSH2 0xB27 JUMP JUMPDEST STOP JUMPDEST PUSH2 0x100 PUSH2 0xD8B JUMP JUMPDEST STOP JUMPDEST PUSH2 0x10A PUSH2 0x1374 JUMP JUMPDEST STOP JUMPDEST PUSH2 0x114 PUSH2 0x19AE JUMP JUMPDEST STOP JUMPDEST PUSH2 0x11E PUSH2 0x20B6 JUMP JUMPDEST STOP JUMPDEST PUSH2 0x128 PUSH2 0x240C JUMP JUMPDEST STOP JUMPDEST PUSH2 0x132 PUSH2 0x2753 JUMP JUMPDEST STOP JUMPDEST PUSH2 0x13C PUSH2 0x2C26 JUMP JUMPDEST STOP JUMPDEST PUSH2 0x146 PUSH2 0x2F8D JUMP JUMPDEST STOP JUMPDEST PUSH2 0x150 PUSH2 0x3152 JUMP JUMPDEST STOP JUMPDEST PUSH0 PUSH1 0x2 PUSH0 SWAP1 SLOAD SWAP1 PUSH2 0x100 EXP SWAP1 DIV PUSH20 0xFFFFFFFFFFFFFFFFFFFFFFFFFFFFFFFFFFFFFFFF AND PUSH20 0xFFFFFFFFFFFFFFFFFFFFFFFFFFFFFFFFFFFFFFFF AND PUSH4 0x84FC00BA PUSH0 PUSH0 SWAP1 SLOAD SWAP1 PUSH2 0x100 EXP SWAP1 DIV PUSH20 0xFFFFFFFFFFFFFFFFFFFFFFFFFFFFFFFFFFFFFFFF AND PUSH1 0x2 PUSH1 0x5 PUSH0 SWAP1 SLOAD SWAP1 PUSH2 0x100 EXP SWAP1 DIV PUSH20 0xFFFFFFFFFFFFFFFFFFFFFFFFFFFFFFFFFFFFFFFF AND PUSH1 0x40 MLOAD DUP5 PUSH4 0xFFFFFFFF AND PUSH1 0xE0 SHL DUP2 MSTORE PUSH1 0x4 ADD PUSH2 0x1F3 SWAP4 SWAP3 SWAP2 SWAP1 PUSH2 0x37A0 JUMP JUMPDEST PUSH1 0x20 PUSH1 0x40 MLOAD DUP1 DUP4 SUB DUP2 PUSH0 DUP8 GAS CALL ISZERO DUP1 ISZERO PUSH2 0x20F JUMPI RETURNDATASIZE PUSH0 PUSH0 RETURNDATACOPY RETURNDATASIZE PUSH0 REVERT JUMPDEST POP POP POP POP PUSH1 0x40 MLOAD RETURNDATASIZE PUSH1 0x1F NOT PUSH1 0x1F DUP3 ADD AND DUP3 ADD DUP1 PUSH1 0x40 MSTORE POP DUP2 ADD SWAP1 PUSH2 0x233 SWAP2 SWAP1 PUSH2 0x380C JUMP JUMPDEST SWAP1 POP PUSH20 0x0 PUSH4 0xABCD7960 DUP3 PUSH1 0x5 PUSH1 0x40 MLOAD DUP4 PUSH4 0xFFFFFFFF AND PUSH1 0xE0 SHL DUP2 MSTORE PUSH1 0x4 ADD PUSH2 0x26F SWAP3 SWAP2 SWAP1 PUSH2 0x38D9 JUMP JUMPDEST PUSH1 0x20 PUSH1 0x40 MLOAD DUP1 DUP4 SUB DUP2 DUP7 GAS DELEGATECALL ISZERO DUP1 ISZERO PUSH2 0x28A JUMPI RETURNDATASIZE PUSH0 PUSH0 RETURNDATACOPY RETURNDATASIZE PUSH0 REVERT JUMPDEST POP POP POP POP PUSH1 0x40 MLOAD RETURNDATASIZE PUSH1 0x1F NOT PUSH1 0x1F DUP3 ADD AND DUP3 ADD DUP1 PUSH1 0x40 MSTORE POP DUP2 ADD SWAP1 PUSH2 0x2AE SWAP2 SWAP1 PUSH2 0x3948 JUMP JUMPDEST POP PUSH1 0x2 PUSH0 SWAP1 SLOAD SWAP1 PUSH2 0x100 EXP SWAP1 DIV PUSH20 0xFFFFFFFFFFFFFFFFFFFFFFFFFFFFFFFFFFFFFFFF AND PUSH20 0xFFFFFFFFFFFFFFFFFFFFFFFFFFFFFFFFFFFFFFFF AND PUSH4 0x5DF277FA PUSH0 PUSH0 SWAP1 SLOAD SWAP1 PUSH2 0x100 EXP SWAP1 DIV PUSH20 0xFFFFFFFFFFFFFFFFFFFFFFFFFFFFFFFFFFFFFFFF AND PUSH1 0x5 PUSH1 0x40 MLOAD DUP4 PUSH4 0xFFFFFFFF AND PUSH1 0xE0 SHL DUP2 MSTORE PUSH1 0x4 ADD PUSH2 0x32C SWAP3 SWAP2 SWAP1 PUSH2 0x3982 JUMP JUMPDEST PUSH1 0x20 PUSH1 0x40 MLOAD DUP1 DUP4 SUB DUP2 PUSH0 DUP8 GAS CALL ISZERO DUP1 ISZERO PUSH2 0x348 JUMPI RETURNDATASIZE PUSH0 PUSH0 RETURNDATACOPY RETURNDATASIZE PUSH0 REVERT JUMPDEST POP POP POP POP PUSH1 0x40 MLOAD RETURNDATASIZE PUSH1 0x1F NOT PUSH1 0x1F DUP3 ADD AND DUP3 ADD DUP1 PUSH1 0x40 MSTORE POP DUP2 ADD SWAP1 PUSH2 0x36C SWAP2 SWAP1 PUSH2 0x3948 JUMP JUMPDEST POP PUSH1 0x3 PUSH0 SWAP1 SLOAD SWAP1 PUSH2 0x100 EXP SWAP1 DIV PUSH20 0xFFFFFFFFFFFFFFFFFFFFFFFFFFFFFFFFFFFFFFFF AND PUSH20 0xFFFFFFFFFFFFFFFFFFFFFFFFFFFFFFFFFFFFFFFF AND PUSH4 0x5DF277FA PUSH0 PUSH0 SWAP1 SLOAD SWAP1 PUSH2 0x100 EXP SWAP1 DIV PUSH20 0xFFFFFFFFFFFFFFFFFFFFFFFFFFFFFFFFFFFFFFFF AND PUSH1 0x5 PUSH1 0x40 MLOAD DUP4 PUSH4 0xFFFFFFFF AND PUSH1 0xE0 SHL DUP2 MSTORE PUSH1 0x4 ADD PUSH2 0x3EA SWAP3 SWAP2 SWAP1 PUSH2 0x3982 JUMP JUMPDEST PUSH1 0x20 PUSH1 0x40 MLOAD DUP1 DUP4 SUB DUP2 PUSH0 DUP8 GAS CALL ISZERO DUP1 ISZERO PUSH2 0x406 JUMPI RETURNDATASIZE PUSH0 PUSH0 RETURNDATACOPY RETURNDATASIZE PUSH0 REVERT JUMPDEST POP POP POP POP PUSH1 0x40 MLOAD RETURNDATASIZE PUSH1 0x1F NOT PUSH1 0x1F DUP3 ADD AND DUP3 ADD DUP1 PUSH1 0x40 MSTORE POP DUP2 ADD SWAP1 PUSH2 0x42A SWAP2 SWAP1 PUSH2 0x3948 JUMP JUMPDEST POP PUSH1 0x4 PUSH0 SWAP1 SLOAD SWAP1 PUSH2 0x100 EXP SWAP1 DIV PUSH20 0xFFFFFFFFFFFFFFFFFFFFFFFFFFFFFFFFFFFFFFFF AND PUSH20 0xFFFFFFFFFFFFFFFFFFFFFFFFFFFFFFFFFFFFFFFF AND PUSH4 0x5DF277FA PUSH0 PUSH0 SWAP1 SLOAD SWAP1 PUSH2 0x100 EXP SWAP1 DIV PUSH20 0xFFFFFFFFFFFFFFFFFFFFFFFFFFFFFFFFFFFFFFFF AND PUSH1 0x5 PUSH1 0x40 MLOAD DUP4 PUSH4 0xFFFFFFFF AND PUSH1 0xE0 SHL DUP2 MSTORE PUSH1 0x4 ADD PUSH2 0x4A8 SWAP3 SWAP2 SWAP1 PUSH2 0x3982 JUMP JUMPDEST PUSH1 0x20 PUSH1 0x40 MLOAD DUP1 DUP4 SUB DUP2 PUSH0 DUP8 GAS CALL ISZERO DUP1 ISZERO PUSH2 0x4C4 JUMPI RETURNDATASIZE PUSH0 PUSH0 RETURNDATACOPY RETURNDATASIZE PUSH0 REVERT JUMPDEST POP POP POP POP PUSH1 0x40 MLOAD RETURNDATASIZE PUSH1 0x1F NOT PUSH1 0x1F DUP3 ADD AND DUP3 ADD DUP1 PUSH1 0x40 MSTORE POP DUP2 ADD SWAP1 PUSH2 0x4E8 SWAP2 SWAP1 PUSH2 0x3948 JUMP JUMPDEST POP PUSH0 PUSH1 0x2 PUSH0 SWAP1 SLOAD SWAP1 PUSH2 0x100 EXP SWAP1 DIV PUSH20 0xFFFFFFFFFFFFFFFFFFFFFFFFFFFFFFFFFFFFFFFF AND PUSH20 0xFFFFFFFFFFFFFFFFFFFFFFFFFFFFFFFFFFFFFFFF AND PUSH4 0xBFC42645 PUSH0 PUSH0 SWAP1 SLOAD SWAP1 PUSH2 0x100 EXP SWAP1 DIV PUSH20 0xFFFFFFFFFFFFFFFFFFFFFFFFFFFFFFFFFFFFFFFF AND PUSH1 0x5 PUSH1 0x40 MLOAD DUP4 PUSH4 0xFFFFFFFF AND PUSH1 0xE0 SHL DUP2 MSTORE PUSH1 0x4 ADD PUSH2 0x567 SWAP3 SWAP2 SWAP1 PUSH2 0x3982 JUMP JUMPDEST PUSH1 0x20 PUSH1 0x40 MLOAD DUP1 DUP4 SUB DUP2 PUSH0 DUP8 GAS CALL ISZERO DUP1 ISZERO PUSH2 0x583 JUMPI RETURNDATASIZE PUSH0 PUSH0 RETURNDATACOPY RETURNDATASIZE PUSH0 REVERT JUMPDEST POP POP POP POP PUSH1 0x40 MLOAD RETURNDATASIZE PUSH1 0x1F NOT PUSH1 0x1F DUP3 ADD AND DUP3 ADD DUP1 PUSH1 0x40 MSTORE POP DUP2 ADD SWAP1 PUSH2 0x5A7 SWAP2 SWAP1 PUSH2 0x3948 JUMP JUMPDEST SWAP1 POP PUSH20 0x0 PUSH4 0x39DF137F DUP3 PUSH1 0x40 MLOAD DUP3 PUSH4 0xFFFFFFFF AND PUSH1 0xE0 SHL DUP2 MSTORE PUSH1 0x4 ADD PUSH2 0x5E0 SWAP2 SWAP1 PUSH2 0x3A4E JUMP JUMPDEST PUSH1 0x20 PUSH1 0x40 MLOAD DUP1 DUP4 SUB DUP2 DUP7 GAS DELEGATECALL ISZERO DUP1 ISZERO PUSH2 0x5FB JUMPI RETURNDATASIZE PUSH0 PUSH0 RETURNDATACOPY RETURNDATASIZE PUSH0 REVERT JUMPDEST POP POP POP POP PUSH1 0x40 MLOAD RETURNDATASIZE PUSH1 0x1F NOT PUSH1 0x1F DUP3 ADD AND DUP3 ADD DUP1 PUSH1 0x40 MSTORE POP DUP2 ADD SWAP1 PUSH2 0x61F SWAP2 SWAP1 PUSH2 0x3948 JUMP JUMPDEST POP PUSH20 0x0 PUSH4 0xABCD7960 PUSH0 PUSH0 SWAP1 SLOAD SWAP1 PUSH2 0x100 EXP SWAP1 DIV PUSH20 0xFFFFFFFFFFFFFFFFFFFFFFFFFFFFFFFFFFFFFFFF AND PUSH20 0xFFFFFFFFFFFFFFFFFFFFFFFFFFFFFFFFFFFFFFFF AND PUSH4 0xE8C9FD45 PUSH1 0x40 MLOAD DUP2 PUSH4 0xFFFFFFFF AND PUSH1 0xE0 SHL DUP2 MSTORE PUSH1 0x4 ADD PUSH1 0x20 PUSH1 0x40 MLOAD DUP1 DUP4 SUB DUP2 DUP7 GAS STATICCALL ISZERO DUP1 ISZERO PUSH2 0x6A3 JUMPI RETURNDATASIZE PUSH0 PUSH0 RETURNDATACOPY RETURNDATASIZE PUSH0 REVERT JUMPDEST POP POP POP POP PUSH1 0x40 MLOAD RETURNDATASIZE PUSH1 0x1F NOT PUSH1 0x1F DUP3 ADD AND DUP3 ADD DUP1 PUSH1 0x40 MSTORE POP DUP2 ADD SWAP1 PUSH2 0x6C7 SWAP2 SWAP1 PUSH2 0x380C JUMP JUMPDEST PUSH1 0x4 PUSH1 0x40 MLOAD DUP4 PUSH4 0xFFFFFFFF AND PUSH1 0xE0 SHL DUP2 MSTORE PUSH1 0x4 ADD PUSH2 0x6E6 SWAP3 SWAP2 SWAP1 PUSH2 0x3AFD JUMP JUMPDEST PUSH1 0x20 PUSH1 0x40 MLOAD DUP1 DUP4 SUB DUP2 DUP7 GAS DELEGATECALL ISZERO DUP1 ISZERO PUSH2 0x701 JUMPI RETURNDATASIZE PUSH0 PUSH0 RETURNDATACOPY RETURNDATASIZE PUSH0 REVERT JUMPDEST POP POP POP POP PUSH1 0x40 MLOAD RETURNDATASIZE PUSH1 0x1F NOT PUSH1 0x1F DUP3 ADD AND DUP3 ADD DUP1 PUSH1 0x40 MSTORE POP DUP2 ADD SWAP1 PUSH2 0x725 SWAP2 SWAP1 PUSH2 0x3948 JUMP JUMPDEST POP PUSH20 0x0 PUSH4 0x39DF137F PUSH0 PUSH0 SWAP1 SLOAD SWAP1 PUSH2 0x100 EXP SWAP1 DIV PUSH20 0xFFFFFFFFFFFFFFFFFFFFFFFFFFFFFFFFFFFFFFFF AND PUSH20 0xFFFFFFFFFFFFFFFFFFFFFFFFFFFFFFFFFFFFFFFF AND PUSH4 0xE43581B8 PUSH1 0x5 PUSH0 SWAP1 SLOAD SWAP1 PUSH2 0x100 EXP SWAP1 DIV PUSH20 0xFFFFFFFFFFFFFFFFFFFFFFFFFFFFFFFFFFFFFFFF AND PUSH1 0x40 MLOAD DUP3 PUSH4 0xFFFFFFFF AND PUSH1 0xE0 SHL DUP2 MSTORE PUSH1 0x4 ADD PUSH2 0x7BA SWAP2 SWAP1 PUSH2 0x3B37 JUMP JUMPDEST PUSH1 0x20 PUSH1 0x40 MLOAD DUP1 DUP4 SUB DUP2 DUP7 GAS STATICCALL ISZERO DUP1 ISZERO PUSH2 0x7D5 JUMPI RETURNDATASIZE PUSH0 PUSH0 RETURNDATACOPY RETURNDATASIZE PUSH0 REVERT JUMPDEST POP POP POP POP PUSH1 0x40 MLOAD RETURNDATASIZE PUSH1 0x1F NOT PUSH1 0x1F DUP3 ADD AND DUP3 ADD DUP1 PUSH1 0x40 MSTORE POP DUP2 ADD SWAP1 PUSH2 0x7F9 SWAP2 SWAP1 PUSH2 0x3948 JUMP JUMPDEST PUSH1 0x40 MLOAD DUP3 PUSH4 0xFFFFFFFF AND PUSH1 0xE0 SHL DUP2 MSTORE PUSH1 0x4 ADD PUSH2 0x815 SWAP2 SWAP1 PUSH2 0x3BC0 JUMP JUMPDEST PUSH1 0x20 PUSH1 0x40 MLOAD DUP1 DUP4 SUB DUP2 DUP7 GAS DELEGATECALL ISZERO DUP1 ISZERO PUSH2 0x830 JUMPI RETURNDATASIZE PUSH0 PUSH0 RETURNDATACOPY RETURNDATASIZE PUSH0 REVERT JUMPDEST POP POP POP POP PUSH1 0x40 MLOAD RETURNDATASIZE PUSH1 0x1F NOT PUSH1 0x1F DUP3 ADD AND DUP3 ADD DUP1 PUSH1 0x40 MSTORE POP DUP2 ADD SWAP1 PUSH2 0x854 SWAP2 SWAP1 PUSH2 0x3948 JUMP JUMPDEST POP POP POP JUMP JUMPDEST PUSH0 PUSH0 PUSH0 SWAP1 SLOAD SWAP1 PUSH2 0x100 EXP SWAP1 DIV PUSH20 0xFFFFFFFFFFFFFFFFFFFFFFFFFFFFFFFFFFFFFFFF AND PUSH20 0xFFFFFFFFFFFFFFFFFFFFFFFFFFFFFFFFFFFFFFFF AND PUSH2 0x3E7 PUSH1 0x40 MLOAD PUSH1 0x24 ADD PUSH2 0x8A4 SWAP2 SWAP1 PUSH2 0x3C32 JUMP JUMPDEST PUSH1 0x40 MLOAD PUSH1 0x20 DUP2 DUP4 SUB SUB DUP2 MSTORE SWAP1 PUSH1 0x40 MSTORE PUSH32 0x3B4D01A700000000000000000000000000000000000000000000000000000000 PUSH28 0xFFFFFFFFFFFFFFFFFFFFFFFFFFFFFFFFFFFFFFFFFFFFFFFFFFFFFFFF NOT AND PUSH1 0x20 DUP3 ADD DUP1 MLOAD PUSH28 0xFFFFFFFFFFFFFFFFFFFFFFFFFFFFFFFFFFFFFFFFFFFFFFFFFFFFFFFF DUP4 DUP2 DUP4 AND OR DUP4 MSTORE POP POP POP POP PUSH1 0x40 MLOAD PUSH2 0x92E SWAP2 SWAP1 PUSH2 0x3C9D JUMP JUMPDEST PUSH0 PUSH1 0x40 MLOAD DUP1 DUP4 SUB DUP2 PUSH0 DUP7 GAS CALL SWAP2 POP POP RETURNDATASIZE DUP1 PUSH0 DUP2 EQ PUSH2 0x967 JUMPI PUSH1 0x40 MLOAD SWAP2 POP PUSH1 0x1F NOT PUSH1 0x3F RETURNDATASIZE ADD AND DUP3 ADD PUSH1 0x40 MSTORE RETURNDATASIZE DUP3 MSTORE RETURNDATASIZE PUSH0 PUSH1 0x20 DUP5 ADD RETURNDATACOPY PUSH2 0x96C JUMP JUMPDEST PUSH1 0x60 SWAP2 POP JUMPDEST POP POP SWAP1 POP PUSH20 0x0 PUSH4 0x39DF137F DUP3 ISZERO PUSH1 0x40 MLOAD DUP3 PUSH4 0xFFFFFFFF AND PUSH1 0xE0 SHL DUP2 MSTORE PUSH1 0x4 ADD PUSH2 0x9A8 SWAP2 SWAP1 PUSH2 0x3D23 JUMP JUMPDEST PUSH1 0x20 PUSH1 0x40 MLOAD DUP1 DUP4 SUB DUP2 DUP7 GAS DELEGATECALL ISZERO DUP1 ISZERO PUSH2 0x9C3 JUMPI RETURNDATASIZE PUSH0 PUSH0 RETURNDATACOPY RETURNDATASIZE PUSH0 REVERT JUMPDEST POP POP POP POP PUSH1 0x40 MLOAD RETURNDATASIZE PUSH1 0x1F NOT PUSH1 0x1F DUP3 ADD AND DUP3 ADD DUP1 PUSH1 0x40 MSTORE POP DUP2 ADD SWAP1 PUSH2 0x9E7 SWAP2 SWAP1 PUSH2 0x3948 JUMP JUMPDEST POP POP JUMP JUMPDEST PUSH0 PUSH1 0x2 PUSH0 SWAP1 SLOAD SWAP1 PUSH2 0x100 EXP SWAP1 DIV PUSH20 0xFFFFFFFFFFFFFFFFFFFFFFFFFFFFFFFFFFFFFFFF AND PUSH20 0xFFFFFFFFFFFFFFFFFFFFFFFFFFFFFFFFFFFFFFFF AND PUSH4 0x5DF277FA PUSH0 PUSH0 SWAP1 SLOAD SWAP1 PUSH2 0x100 EXP SWAP1 DIV PUSH20 0xFFFFFFFFFFFFFFFFFFFFFFFFFFFFFFFFFFFFFFFF AND PUSH2 0x3E7 PUSH1 0x40 MLOAD DUP4 PUSH4 0xFFFFFFFF AND PUSH1 0xE0 SHL DUP2 MSTORE PUSH1 0x4 ADD PUSH2 0xA6A SWAP3 SWAP2 SWAP1 PUSH2 0x3D7F JUMP JUMPDEST PUSH1 0x20 PUSH1 0x40 MLOAD DUP1 DUP4 SUB DUP2 PUSH0 DUP8 GAS CALL ISZERO DUP1 ISZERO PUSH2 0xA86 JUMPI RETURNDATASIZE PUSH0 PUSH0 RETURNDATACOPY RETURNDATASIZE PUSH0 REVERT JUMPDEST POP POP POP POP PUSH1 0x40 MLOAD RETURNDATASIZE PUSH1 0x1F NOT PUSH1 0x1F DUP3 ADD AND DUP3 ADD DUP1 PUSH1 0x40 MSTORE POP DUP2 ADD SWAP1 PUSH2 0xAAA SWAP2 SWAP1 PUSH2 0x3948 JUMP JUMPDEST SWAP1 POP PUSH20 0x0 PUSH4 0x39DF137F DUP3 ISZERO PUSH1 0x40 MLOAD DUP3 PUSH4 0xFFFFFFFF AND PUSH1 0xE0 SHL DUP2 MSTORE PUSH1 0x4 ADD PUSH2 0xAE4 SWAP2 SWAP1 PUSH2 0x3E16 JUMP JUMPDEST PUSH1 0x20 PUSH1 0x40 MLOAD DUP1 DUP4 SUB DUP2 DUP7 GAS DELEGATECALL ISZERO DUP1 ISZERO PUSH2 0xAFF JUMPI RETURNDATASIZE PUSH0 PUSH0 RETURNDATACOPY RETURNDATASIZE PUSH0 REVERT JUMPDEST POP POP POP POP PUSH1 0x40 MLOAD RETURNDATASIZE PUSH1 0x1F NOT PUSH1 0x1F DUP3 ADD AND DUP3 ADD DUP1 PUSH1 0x40 MSTORE POP DUP2 ADD SWAP1 PUSH2 0xB23 SWAP2 SWAP1 PUSH2 0x3948 JUMP JUMPDEST POP POP JUMP JUMPDEST PUSH0 PUSH1 0x2 PUSH0 SWAP1 SLOAD SWAP1 PUSH2 0x100 EXP SWAP1 DIV PUSH20 0xFFFFFFFFFFFFFFFFFFFFFFFFFFFFFFFFFFFFFFFF AND PUSH20 0xFFFFFFFFFFFFFFFFFFFFFFFFFFFFFFFFFFFFFFFF AND PUSH4 0x84FC00BA PUSH0 PUSH0 SWAP1 SLOAD SWAP1 PUSH2 0x100 EXP SWAP1 DIV PUSH20 0xFFFFFFFFFFFFFFFFFFFFFFFFFFFFFFFFFFFFFFFF AND PUSH0 PUSH1 0x6 PUSH0 SWAP1 SLOAD SWAP1 PUSH2 0x100 EXP SWAP1 DIV PUSH20 0xFFFFFFFFFFFFFFFFFFFFFFFFFFFFFFFFFFFFFFFF AND PUSH1 0x40 MLOAD DUP5 PUSH4 0xFFFFFFFF AND PUSH1 0xE0 SHL DUP2 MSTORE PUSH1 0x4 ADD PUSH2 0xBC7 SWAP4 SWAP3 SWAP2 SWAP1 PUSH2 0x37A0 JUMP JUMPDEST PUSH1 0x20 PUSH1 0x40 MLOAD DUP1 DUP4 SUB DUP2 PUSH0 DUP8 GAS CALL ISZERO DUP1 ISZERO PUSH2 0xBE3 JUMPI RETURNDATASIZE PUSH0 PUSH0 RETURNDATACOPY RETURNDATASIZE PUSH0 REVERT JUMPDEST POP POP POP POP PUSH1 0x40 MLOAD RETURNDATASIZE PUSH1 0x1F NOT PUSH1 0x1F DUP3 ADD AND DUP3 ADD DUP1 PUSH1 0x40 MSTORE POP DUP2 ADD SWAP1 PUSH2 0xC07 SWAP2 SWAP1 PUSH2 0x380C JUMP JUMPDEST SWAP1 POP PUSH20 0x0 PUSH4 0xABCD7960 DUP3 PUSH0 PUSH1 0x40 MLOAD DUP4 PUSH4 0xFFFFFFFF AND PUSH1 0xE0 SHL DUP2 MSTORE PUSH1 0x4 ADD PUSH2 0xC42 SWAP3 SWAP2 SWAP1 PUSH2 0x3EC5 JUMP JUMPDEST PUSH1 0x20 PUSH1 0x40 MLOAD DUP1 DUP4 SUB DUP2 DUP7 GAS DELEGATECALL ISZERO DUP1 ISZERO PUSH2 0xC5D JUMPI RETURNDATASIZE PUSH0 PUSH0 RETURNDATACOPY RETURNDATASIZE PUSH0 REVERT JUMPDEST POP POP POP POP PUSH1 0x40 MLOAD RETURNDATASIZE PUSH1 0x1F NOT PUSH1 0x1F DUP3 ADD AND DUP3 ADD DUP1 PUSH1 0x40 MSTORE POP DUP2 ADD SWAP1 PUSH2 0xC81 SWAP2 SWAP1 PUSH2 0x3948 JUMP JUMPDEST POP PUSH20 0x0 PUSH4 0xABCD7960 PUSH0 PUSH0 SWAP1 SLOAD SWAP1 PUSH2 0x100 EXP SWAP1 DIV PUSH20 0xFFFFFFFFFFFFFFFFFFFFFFFFFFFFFFFFFFFFFFFF AND PUSH20 0xFFFFFFFFFFFFFFFFFFFFFFFFFFFFFFFFFFFFFFFF AND PUSH4 0xDA35C664 PUSH1 0x40 MLOAD DUP2 PUSH4 0xFFFFFFFF AND PUSH1 0xE0 SHL DUP2 MSTORE PUSH1 0x4 ADD PUSH1 0x20 PUSH1 0x40 MLOAD DUP1 DUP4 SUB DUP2 DUP7 GAS STATICCALL ISZERO DUP1 ISZERO PUSH2 0xD05 JUMPI RETURNDATASIZE PUSH0 PUSH0 RETURNDATACOPY RETURNDATASIZE PUSH0 REVERT JUMPDEST POP POP POP POP PUSH1 0x40 MLOAD RETURNDATASIZE PUSH1 0x1F NOT PUSH1 0x1F DUP3 ADD AND DUP3 ADD DUP1 PUSH1 0x40 MSTORE POP DUP2 ADD SWAP1 PUSH2 0xD29 SWAP2 SWAP1 PUSH2 0x380C JUMP JUMPDEST PUSH1 0x1 PUSH1 0x40 MLOAD DUP4 PUSH4 0xFFFFFFFF AND PUSH1 0xE0 SHL DUP2 MSTORE PUSH1 0x4 ADD PUSH2 0xD48 SWAP3 SWAP2 SWAP1 PUSH2 0x3F82 JUMP JUMPDEST PUSH1 0x20 PUSH1 0x40 MLOAD DUP1 DUP4 SUB DUP2 DUP7 GAS DELEGATECALL ISZERO DUP1 ISZERO PUSH2 0xD63 JUMPI RETURNDATASIZE PUSH0 PUSH0 RETURNDATACOPY RETURNDATASIZE PUSH0 REVERT JUMPDEST POP POP POP POP PUSH1 0x40 MLOAD RETURNDATASIZE PUSH1 0x1F NOT PUSH1 0x1F DUP3 ADD AND DUP3 ADD DUP1 PUSH1 0x40 MSTORE POP DUP2 ADD SWAP1 PUSH2 0xD87 SWAP2 SWAP1 PUSH2 0x3948 JUMP JUMPDEST POP POP JUMP JUMPDEST PUSH0 PUSH1 0x2 PUSH0 SWAP1 SLOAD SWAP1 PUSH2 0x100 EXP SWAP1 DIV PUSH20 0xFFFFFFFFFFFFFFFFFFFFFFFFFFFFFFFFFFFFFFFF AND PUSH20 0xFFFFFFFFFFFFFFFFFFFFFFFFFFFFFFFFFFFFFFFF AND PUSH4 0x84FC00BA PUSH0 PUSH0 SWAP1 SLOAD SWAP1 PUSH2 0x100 EXP SWAP1 DIV PUSH20 0xFFFFFFFFFFFFFFFFFFFFFFFFFFFFFFFFFFFFFFFF AND PUSH0 PUSH1 0x6 PUSH0 SWAP1 SLOAD SWAP1 PUSH2 0x100 EXP SWAP1 DIV PUSH20 0xFFFFFFFFFFFFFFFFFFFFFFFFFFFFFFFFFFFFFFFF AND PUSH1 0x40 MLOAD DUP5 PUSH4 0xFFFFFFFF AND PUSH1 0xE0 SHL DUP2 MSTORE PUSH1 0x4 ADD PUSH2 0xE2B SWAP4 SWAP3 SWAP2 SWAP1 PUSH2 0x37A0 JUMP JUMPDEST PUSH1 0x20 PUSH1 0x40 MLOAD DUP1 DUP4 SUB DUP2 PUSH0 DUP8 GAS CALL ISZERO DUP1 ISZERO PUSH2 0xE47 JUMPI RETURNDATASIZE PUSH0 PUSH0 RETURNDATACOPY RETURNDATASIZE PUSH0 REVERT JUMPDEST POP POP POP POP PUSH1 0x40 MLOAD RETURNDATASIZE PUSH1 0x1F NOT PUSH1 0x1F DUP3 ADD AND DUP3 ADD DUP1 PUSH1 0x40 MSTORE POP DUP2 ADD SWAP1 PUSH2 0xE6B SWAP2 SWAP1 PUSH2 0x380C JUMP JUMPDEST SWAP1 POP PUSH20 0x0 PUSH4 0xABCD7960 DUP3 PUSH1 0x3 PUSH1 0x40 MLOAD DUP4 PUSH4 0xFFFFFFFF AND PUSH1 0xE0 SHL DUP2 MSTORE PUSH1 0x4 ADD PUSH2 0xEA7 SWAP3 SWAP2 SWAP1 PUSH2 0x403F JUMP JUMPDEST PUSH1 0x20 PUSH1 0x40 MLOAD DUP1 DUP4 SUB DUP2 DUP7 GAS DELEGATECALL ISZERO DUP1 ISZERO PUSH2 0xEC2 JUMPI RETURNDATASIZE PUSH0 PUSH0 RETURNDATACOPY RETURNDATASIZE PUSH0 REVERT JUMPDEST POP POP POP POP PUSH1 0x40 MLOAD RETURNDATASIZE PUSH1 0x1F NOT PUSH1 0x1F DUP3 ADD AND DUP3 ADD DUP1 PUSH1 0x40 MSTORE POP DUP2 ADD SWAP1 PUSH2 0xEE6 SWAP2 SWAP1 PUSH2 0x3948 JUMP JUMPDEST POP PUSH1 0x2 PUSH0 SWAP1 SLOAD SWAP1 PUSH2 0x100 EXP SWAP1 DIV PUSH20 0xFFFFFFFFFFFFFFFFFFFFFFFFFFFFFFFFFFFFFFFF AND PUSH20 0xFFFFFFFFFFFFFFFFFFFFFFFFFFFFFFFFFFFFFFFF AND PUSH4 0x5DF277FA PUSH0 PUSH0 SWAP1 SLOAD SWAP1 PUSH2 0x100 EXP SWAP1 DIV PUSH20 0xFFFFFFFFFFFFFFFFFFFFFFFFFFFFFFFFFFFFFFFF AND PUSH1 0x3 PUSH1 0x40 MLOAD DUP4 PUSH4 0xFFFFFFFF AND PUSH1 0xE0 SHL DUP2 MSTORE PUSH1 0x4 ADD PUSH2 0xF64 SWAP3 SWAP2 SWAP1 PUSH2 0x4088 JUMP JUMPDEST PUSH1 0x20 PUSH1 0x40 MLOAD DUP1 DUP4 SUB DUP2 PUSH0 DUP8 GAS CALL ISZERO DUP1 ISZERO PUSH2 0xF80 JUMPI RETURNDATASIZE PUSH0 PUSH0 RETURNDATACOPY RETURNDATASIZE PUSH0 REVERT JUMPDEST POP POP POP POP PUSH1 0x40 MLOAD RETURNDATASIZE PUSH1 0x1F NOT PUSH1 0x1F DUP3 ADD AND DUP3 ADD DUP1 PUSH1 0x40 MSTORE POP DUP2 ADD SWAP1 PUSH2 0xFA4 SWAP2 SWAP1 PUSH2 0x3948 JUMP JUMPDEST POP PUSH1 0x3 PUSH0 SWAP1 SLOAD SWAP1 PUSH2 0x100 EXP SWAP1 DIV PUSH20 0xFFFFFFFFFFFFFFFFFFFFFFFFFFFFFFFFFFFFFFFF AND PUSH20 0xFFFFFFFFFFFFFFFFFFFFFFFFFFFFFFFFFFFFFFFF AND PUSH4 0x5DF277FA PUSH0 PUSH0 SWAP1 SLOAD SWAP1 PUSH2 0x100 EXP SWAP1 DIV PUSH20 0xFFFFFFFFFFFFFFFFFFFFFFFFFFFFFFFFFFFFFFFF AND PUSH1 0x3 PUSH1 0x40 MLOAD DUP4 PUSH4 0xFFFFFFFF AND PUSH1 0xE0 SHL DUP2 MSTORE PUSH1 0x4 ADD PUSH2 0x1022 SWAP3 SWAP2 SWAP1 PUSH2 0x4088 JUMP JUMPDEST PUSH1 0x20 PUSH1 0x40 MLOAD DUP1 DUP4 SUB DUP2 PUSH0 DUP8 GAS CALL ISZERO DUP1 ISZERO PUSH2 0x103E JUMPI RETURNDATASIZE PUSH0 PUSH0 RETURNDATACOPY RETURNDATASIZE PUSH0 REVERT JUMPDEST POP POP POP POP PUSH1 0x40 MLOAD RETURNDATASIZE PUSH1 0x1F NOT PUSH1 0x1F DUP3 ADD AND DUP3 ADD DUP1 PUSH1 0x40 MSTORE POP DUP2 ADD SWAP1 PUSH2 0x1062 SWAP2 SWAP1 PUSH2 0x3948 JUMP JUMPDEST POP PUSH1 0x4 PUSH0 SWAP1 SLOAD SWAP1 PUSH2 0x100 EXP SWAP1 DIV PUSH20 0xFFFFFFFFFFFFFFFFFFFFFFFFFFFFFFFFFFFFFFFF AND PUSH20 0xFFFFFFFFFFFFFFFFFFFFFFFFFFFFFFFFFFFFFFFF AND PUSH4 0x5DF277FA PUSH0 PUSH0 SWAP1 SLOAD SWAP1 PUSH2 0x100 EXP SWAP1 DIV PUSH20 0xFFFFFFFFFFFFFFFFFFFFFFFFFFFFFFFFFFFFFFFF AND PUSH1 0x3 PUSH1 0x40 MLOAD DUP4 PUSH4 0xFFFFFFFF AND PUSH1 0xE0 SHL DUP2 MSTORE PUSH1 0x4 ADD PUSH2 0x10E0 SWAP3 SWAP2 SWAP1 PUSH2 0x4088 JUMP JUMPDEST PUSH1 0x20 PUSH1 0x40 MLOAD DUP1 DUP4 SUB DUP2 PUSH0 DUP8 GAS CALL ISZERO DUP1 ISZERO PUSH2 0x10FC JUMPI RETURNDATASIZE PUSH0 PUSH0 RETURNDATACOPY RETURNDATASIZE PUSH0 REVERT JUMPDEST POP POP POP POP PUSH1 0x40 MLOAD RETURNDATASIZE PUSH1 0x1F NOT PUSH1 0x1F DUP3 ADD AND DUP3 ADD DUP1 PUSH1 0x40 MSTORE POP DUP2 ADD SWAP1 PUSH2 0x1120 SWAP2 SWAP1 PUSH2 0x3948 JUMP JUMPDEST POP PUSH0 PUSH1 0x2 PUSH0 SWAP1 SLOAD SWAP1 PUSH2 0x100 EXP SWAP1 DIV PUSH20 0xFFFFFFFFFFFFFFFFFFFFFFFFFFFFFFFFFFFFFFFF AND PUSH20 0xFFFFFFFFFFFFFFFFFFFFFFFFFFFFFFFFFFFFFFFF AND PUSH4 0xBFC42645 PUSH0 PUSH0 SWAP1 SLOAD SWAP1 PUSH2 0x100 EXP SWAP1 DIV PUSH20 0xFFFFFFFFFFFFFFFFFFFFFFFFFFFFFFFFFFFFFFFF AND PUSH1 0x3 PUSH1 0x40 MLOAD DUP4 PUSH4 0xFFFFFFFF AND PUSH1 0xE0 SHL DUP2 MSTORE PUSH1 0x4 ADD PUSH2 0x119F SWAP3 SWAP2 SWAP1 PUSH2 0x4088 JUMP JUMPDEST PUSH1 0x20 PUSH1 0x40 MLOAD DUP1 DUP4 SUB DUP2 PUSH0 DUP8 GAS CALL ISZERO DUP1 ISZERO PUSH2 0x11BB JUMPI RETURNDATASIZE PUSH0 PUSH0 RETURNDATACOPY RETURNDATASIZE PUSH0 REVERT JUMPDEST POP POP POP POP PUSH1 0x40 MLOAD RETURNDATASIZE PUSH1 0x1F NOT PUSH1 0x1F DUP3 ADD AND DUP3 ADD DUP1 PUSH1 0x40 MSTORE POP DUP2 ADD SWAP1 PUSH2 0x11DF SWAP2 SWAP1 PUSH2 0x3948 JUMP JUMPDEST SWAP1 POP PUSH20 0x0 PUSH4 0x39DF137F DUP3 PUSH1 0x40 MLOAD DUP3 PUSH4 0xFFFFFFFF AND PUSH1 0xE0 SHL DUP2 MSTORE PUSH1 0x4 ADD PUSH2 0x1218 SWAP2 SWAP1 PUSH2 0x411F JUMP JUMPDEST PUSH1 0x20 PUSH1 0x40 MLOAD DUP1 DUP4 SUB DUP2 DUP7 GAS DELEGATECALL ISZERO DUP1 ISZERO PUSH2 0x1233 JUMPI RETURNDATASIZE PUSH0 PUSH0 RETURNDATACOPY RETURNDATASIZE PUSH0 REVERT JUMPDEST POP POP POP POP PUSH1 0x40 MLOAD RETURNDATASIZE PUSH1 0x1F NOT PUSH1 0x1F DUP3 ADD AND DUP3 ADD DUP1 PUSH1 0x40 MSTORE POP DUP2 ADD SWAP1 PUSH2 0x1257 SWAP2 SWAP1 PUSH2 0x3948 JUMP JUMPDEST POP PUSH0 PUSH0 PUSH0 SWAP1 SLOAD SWAP1 PUSH2 0x100 EXP SWAP1 DIV PUSH20 0xFFFFFFFFFFFFFFFFFFFFFFFFFFFFFFFFFFFFFFFF AND PUSH20 0xFFFFFFFFFFFFFFFFFFFFFFFFFFFFFFFFFFFFFFFF AND PUSH4 0x3B4D01A7 PUSH1 0x3 PUSH1 0x40 MLOAD DUP3 PUSH4 0xFFFFFFFF AND PUSH1 0xE0 SHL DUP2 MSTORE PUSH1 0x4 ADD PUSH2 0x12B3 SWAP2 SWAP1 PUSH2 0x414B JUMP JUMPDEST PUSH1 0xA0 PUSH1 0x40 MLOAD DUP1 DUP4 SUB DUP2 DUP7 GAS STATICCALL ISZERO DUP1 ISZERO PUSH2 0x12CE JUMPI RETURNDATASIZE PUSH0 PUSH0 RETURNDATACOPY RETURNDATASIZE PUSH0 REVERT JUMPDEST POP POP POP POP PUSH1 0x40 MLOAD RETURNDATASIZE PUSH1 0x1F NOT PUSH1 0x1F DUP3 ADD AND DUP3 ADD DUP1 PUSH1 0x40 MSTORE POP DUP2 ADD SWAP1 PUSH2 0x12F2 SWAP2 SWAP1 PUSH2 0x41B1 JUMP JUMPDEST SWAP5 POP POP POP POP POP PUSH20 0x0 PUSH4 0x39DF137F DUP3 PUSH1 0x40 MLOAD DUP3 PUSH4 0xFFFFFFFF AND PUSH1 0xE0 SHL DUP2 MSTORE PUSH1 0x4 ADD PUSH2 0x132F SWAP2 SWAP1 PUSH2 0x4298 JUMP JUMPDEST PUSH1 0x20 PUSH1 0x40 MLOAD DUP1 DUP4 SUB DUP2 DUP7 GAS DELEGATECALL ISZERO DUP1 ISZERO PUSH2 0x134A JUMPI RETURNDATASIZE PUSH0 PUSH0 RETURNDATACOPY RETURNDATASIZE PUSH0 REVERT JUMPDEST POP POP POP POP PUSH1 0x40 MLOAD RETURNDATASIZE PUSH1 0x1F NOT PUSH1 0x1F DUP3 ADD AND DUP3 ADD DUP1 PUSH1 0x40 MSTORE POP DUP2 ADD SWAP1 PUSH2 0x136E SWAP2 SWAP1 PUSH2 0x3948 JUMP JUMPDEST POP POP POP POP JUMP JUMPDEST PUSH0 PUSH1 0x2 PUSH0 SWAP1 SLOAD SWAP1 PUSH2 0x100 EXP SWAP1 DIV PUSH20 0xFFFFFFFFFFFFFFFFFFFFFFFFFFFFFFFFFFFFFFFF AND PUSH20 0xFFFFFFFFFFFFFFFFFFFFFFFFFFFFFFFFFFFFFFFF AND PUSH4 0x84FC00BA PUSH0 PUSH0 SWAP1 SLOAD SWAP1 PUSH2 0x100 EXP SWAP1 DIV PUSH20 0xFFFFFFFFFFFFFFFFFFFFFFFFFFFFFFFFFFFFFFFF AND PUSH0 PUSH1 0x6 PUSH0 SWAP1 SLOAD SWAP1 PUSH2 0x100 EXP SWAP1 DIV PUSH20 0xFFFFFFFFFFFFFFFFFFFFFFFFFFFFFFFFFFFFFFFF AND PUSH1 0x40 MLOAD DUP5 PUSH4 0xFFFFFFFF AND PUSH1 0xE0 SHL DUP2 MSTORE PUSH1 0x4 ADD PUSH2 0x1414 SWAP4 SWAP3 SWAP2 SWAP1 PUSH2 0x37A0 JUMP JUMPDEST PUSH1 0x20 PUSH1 0x40 MLOAD DUP1 DUP4 SUB DUP2 PUSH0 DUP8 GAS CALL ISZERO DUP1 ISZERO PUSH2 0x1430 JUMPI RETURNDATASIZE PUSH0 PUSH0 RETURNDATACOPY RETURNDATASIZE PUSH0 REVERT JUMPDEST POP POP POP POP PUSH1 0x40 MLOAD RETURNDATASIZE PUSH1 0x1F NOT PUSH1 0x1F DUP3 ADD AND DUP3 ADD DUP1 PUSH1 0x40 MSTORE POP DUP2 ADD SWAP1 PUSH2 0x1454 SWAP2 SWAP1 PUSH2 0x380C JUMP JUMPDEST SWAP1 POP PUSH20 0x0 PUSH4 0xABCD7960 DUP3 PUSH1 0x1 PUSH1 0x40 MLOAD DUP4 PUSH4 0xFFFFFFFF AND PUSH1 0xE0 SHL DUP2 MSTORE PUSH1 0x4 ADD PUSH2 0x1490 SWAP3 SWAP2 SWAP1 PUSH2 0x430E JUMP JUMPDEST PUSH1 0x20 PUSH1 0x40 MLOAD DUP1 DUP4 SUB DUP2 DUP7 GAS DELEGATECALL ISZERO DUP1 ISZERO PUSH2 0x14AB JUMPI RETURNDATASIZE PUSH0 PUSH0 RETURNDATACOPY RETURNDATASIZE PUSH0 REVERT JUMPDEST POP POP POP POP PUSH1 0x40 MLOAD RETURNDATASIZE PUSH1 0x1F NOT PUSH1 0x1F DUP3 ADD AND DUP3 ADD DUP1 PUSH1 0x40 MSTORE POP DUP2 ADD SWAP1 PUSH2 0x14CF SWAP2 SWAP1 PUSH2 0x3948 JUMP JUMPDEST POP PUSH0 PUSH1 0x2 PUSH0 SWAP1 SLOAD SWAP1 PUSH2 0x100 EXP SWAP1 DIV PUSH20 0xFFFFFFFFFFFFFFFFFFFFFFFFFFFFFFFFFFFFFFFF AND PUSH20 0xFFFFFFFFFFFFFFFFFFFFFFFFFFFFFFFFFFFFFFFF AND PUSH4 0x5DF277FA PUSH0 PUSH0 SWAP1 SLOAD SWAP1 PUSH2 0x100 EXP SWAP1 DIV PUSH20 0xFFFFFFFFFFFFFFFFFFFFFFFFFFFFFFFFFFFFFFFF AND PUSH1 0x1 PUSH1 0x40 MLOAD DUP4 PUSH4 0xFFFFFFFF AND PUSH1 0xE0 SHL DUP2 MSTORE PUSH1 0x4 ADD PUSH2 0x154E SWAP3 SWAP2 SWAP1 PUSH2 0x4357 JUMP JUMPDEST PUSH1 0x20 PUSH1 0x40 MLOAD DUP1 DUP4 SUB DUP2 PUSH0 DUP8 GAS CALL ISZERO DUP1 ISZERO PUSH2 0x156A JUMPI RETURNDATASIZE PUSH0 PUSH0 RETURNDATACOPY RETURNDATASIZE PUSH0 REVERT JUMPDEST POP POP POP POP PUSH1 0x40 MLOAD RETURNDATASIZE PUSH1 0x1F NOT PUSH1 0x1F DUP3 ADD AND DUP3 ADD DUP1 PUSH1 0x40 MSTORE POP DUP2 ADD SWAP1 PUSH2 0x158E SWAP2 SWAP1 PUSH2 0x3948 JUMP JUMPDEST SWAP1 POP PUSH20 0x0 PUSH4 0x39DF137F DUP3 PUSH1 0x40 MLOAD DUP3 PUSH4 0xFFFFFFFF AND PUSH1 0xE0 SHL DUP2 MSTORE PUSH1 0x4 ADD PUSH2 0x15C7 SWAP2 SWAP1 PUSH2 0x43C8 JUMP JUMPDEST PUSH1 0x20 PUSH1 0x40 MLOAD DUP1 DUP4 SUB DUP2 DUP7 GAS DELEGATECALL ISZERO DUP1 ISZERO PUSH2 0x15E2 JUMPI RETURNDATASIZE PUSH0 PUSH0 RETURNDATACOPY RETURNDATASIZE PUSH0 REVERT JUMPDEST POP POP POP POP PUSH1 0x40 MLOAD RETURNDATASIZE PUSH1 0x1F NOT PUSH1 0x1F DUP3 ADD AND DUP3 ADD DUP1 PUSH1 0x40 MSTORE POP DUP2 ADD SWAP1 PUSH2 0x1606 SWAP2 SWAP1 PUSH2 0x3948 JUMP JUMPDEST POP PUSH20 0x0 PUSH4 0x39DF137F PUSH0 PUSH0 SWAP1 SLOAD SWAP1 PUSH2 0x100 EXP SWAP1 DIV PUSH20 0xFFFFFFFFFFFFFFFFFFFFFFFFFFFFFFFFFFFFFFFF AND PUSH20 0xFFFFFFFFFFFFFFFFFFFFFFFFFFFFFFFFFFFFFFFF AND PUSH4 0x43859632 PUSH1 0x1 PUSH1 0x2 PUSH0 SWAP1 SLOAD SWAP1 PUSH2 0x100 EXP SWAP1 DIV PUSH20 0xFFFFFFFFFFFFFFFFFFFFFFFFFFFFFFFFFFFFFFFF AND PUSH1 0x40 MLOAD DUP4 PUSH4 0xFFFFFFFF AND PUSH1 0xE0 SHL DUP2 MSTORE PUSH1 0x4 ADD PUSH2 0x169E SWAP3 SWAP2 SWAP1 PUSH2 0x43F4 JUMP JUMPDEST PUSH1 0x20 PUSH1 0x40 MLOAD DUP1 DUP4 SUB DUP2 DUP7 GAS STATICCALL ISZERO DUP1 ISZERO PUSH2 0x16B9 JUMPI RETURNDATASIZE PUSH0 PUSH0 RETURNDATACOPY RETURNDATASIZE PUSH0 REVERT JUMPDEST POP POP POP POP PUSH1 0x40 MLOAD RETURNDATASIZE PUSH1 0x1F NOT PUSH1 0x1F DUP3 ADD AND DUP3 ADD DUP1 PUSH1 0x40 MSTORE POP DUP2 ADD SWAP1 PUSH2 0x16DD SWAP2 SWAP1 PUSH2 0x3948 JUMP JUMPDEST PUSH1 0x40 MLOAD DUP3 PUSH4 0xFFFFFFFF AND PUSH1 0xE0 SHL DUP2 MSTORE PUSH1 0x4 ADD PUSH2 0x16F9 SWAP2 SWAP1 PUSH2 0x448B JUMP JUMPDEST PUSH1 0x20 PUSH1 0x40 MLOAD DUP1 DUP4 SUB DUP2 DUP7 GAS DELEGATECALL ISZERO DUP1 ISZERO PUSH2 0x1714 JUMPI RETURNDATASIZE PUSH0 PUSH0 RETURNDATACOPY RETURNDATASIZE PUSH0 REVERT JUMPDEST POP POP POP POP PUSH1 0x40 MLOAD RETURNDATASIZE PUSH1 0x1F NOT PUSH1 0x1F DUP3 ADD AND DUP3 ADD DUP1 PUSH1 0x40 MSTORE POP DUP2 ADD SWAP1 PUSH2 0x1738 SWAP2 SWAP1 PUSH2 0x3948 JUMP JUMPDEST POP PUSH0 PUSH1 0x3 PUSH0 SWAP1 SLOAD SWAP1 PUSH2 0x100 EXP SWAP1 DIV PUSH20 0xFFFFFFFFFFFFFFFFFFFFFFFFFFFFFFFFFFFFFFFF AND PUSH20 0xFFFFFFFFFFFFFFFFFFFFFFFFFFFFFFFFFFFFFFFF AND PUSH4 0x5DF277FA PUSH0 PUSH0 SWAP1 SLOAD SWAP1 PUSH2 0x100 EXP SWAP1 DIV PUSH20 0xFFFFFFFFFFFFFFFFFFFFFFFFFFFFFFFFFFFFFFFF AND PUSH1 0x1 PUSH1 0x40 MLOAD DUP4 PUSH4 0xFFFFFFFF AND PUSH1 0xE0 SHL DUP2 MSTORE PUSH1 0x4 ADD PUSH2 0x17B7 SWAP3 SWAP2 SWAP1 PUSH2 0x4357 JUMP JUMPDEST PUSH1 0x20 PUSH1 0x40 MLOAD DUP1 DUP4 SUB DUP2 PUSH0 DUP8 GAS CALL ISZERO DUP1 ISZERO PUSH2 0x17D3 JUMPI RETURNDATASIZE PUSH0 PUSH0 RETURNDATACOPY RETURNDATASIZE PUSH0 REVERT JUMPDEST POP POP POP POP PUSH1 0x40 MLOAD RETURNDATASIZE PUSH1 0x1F NOT PUSH1 0x1F DUP3 ADD AND DUP3 ADD DUP1 PUSH1 0x40 MSTORE POP DUP2 ADD SWAP1 PUSH2 0x17F7 SWAP2 SWAP1 PUSH2 0x3948 JUMP JUMPDEST SWAP1 POP PUSH20 0x0 PUSH4 0x39DF137F DUP3 PUSH1 0x40 MLOAD DUP3 PUSH4 0xFFFFFFFF AND PUSH1 0xE0 SHL DUP2 MSTORE PUSH1 0x4 ADD PUSH2 0x1830 SWAP2 SWAP1 PUSH2 0x4527 JUMP JUMPDEST PUSH1 0x20 PUSH1 0x40 MLOAD DUP1 DUP4 SUB DUP2 DUP7 GAS DELEGATECALL ISZERO DUP1 ISZERO PUSH2 0x184B JUMPI RETURNDATASIZE PUSH0 PUSH0 RETURNDATACOPY RETURNDATASIZE PUSH0 REVERT JUMPDEST POP POP POP POP PUSH1 0x40 MLOAD RETURNDATASIZE PUSH1 0x1F NOT PUSH1 0x1F DUP3 ADD AND DUP3 ADD DUP1 PUSH1 0x40 MSTORE POP DUP2 ADD SWAP1 PUSH2 0x186F SWAP2 SWAP1 PUSH2 0x3948 JUMP JUMPDEST POP PUSH0 PUSH1 0x3 PUSH0 SWAP1 SLOAD SWAP1 PUSH2 0x100 EXP SWAP1 DIV PUSH20 0xFFFFFFFFFFFFFFFFFFFFFFFFFFFFFFFFFFFFFFFF AND PUSH20 0xFFFFFFFFFFFFFFFFFFFFFFFFFFFFFFFFFFFFFFFF AND PUSH4 0x5DF277FA PUSH0 PUSH0 SWAP1 SLOAD SWAP1 PUSH2 0x100 EXP SWAP1 DIV PUSH20 0xFFFFFFFFFFFFFFFFFFFFFFFFFFFFFFFFFFFFFFFF AND PUSH1 0x1 PUSH1 0x40 MLOAD DUP4 PUSH4 0xFFFFFFFF AND PUSH1 0xE0 SHL DUP2 MSTORE PUSH1 0x4 ADD PUSH2 0x18EE SWAP3 SWAP2 SWAP1 PUSH2 0x4357 JUMP JUMPDEST PUSH1 0x20 PUSH1 0x40 MLOAD DUP1 DUP4 SUB DUP2 PUSH0 DUP8 GAS CALL ISZERO DUP1 ISZERO PUSH2 0x190A JUMPI RETURNDATASIZE PUSH0 PUSH0 RETURNDATACOPY RETURNDATASIZE PUSH0 REVERT JUMPDEST POP POP POP POP PUSH1 0x40 MLOAD RETURNDATASIZE PUSH1 0x1F NOT PUSH1 0x1F DUP3 ADD AND DUP3 ADD DUP1 PUSH1 0x40 MSTORE POP DUP2 ADD SWAP1 PUSH2 0x192E SWAP2 SWAP1 PUSH2 0x3948 JUMP JUMPDEST SWAP1 POP PUSH20 0x0 PUSH4 0x39DF137F DUP3 ISZERO PUSH1 0x40 MLOAD DUP3 PUSH4 0xFFFFFFFF AND PUSH1 0xE0 SHL DUP2 MSTORE PUSH1 0x4 ADD PUSH2 0x1968 SWAP2 SWAP1 PUSH2 0x45C3 JUMP JUMPDEST PUSH1 0x20 PUSH1 0x40 MLOAD DUP1 DUP4 SUB DUP2 DUP7 GAS DELEGATECALL ISZERO DUP1 ISZERO PUSH2 0x1983 JUMPI RETURNDATASIZE PUSH0 PUSH0 RETURNDATACOPY RETURNDATASIZE PUSH0 REVERT JUMPDEST POP POP POP POP PUSH1 0x40 MLOAD RETURNDATASIZE PUSH1 0x1F NOT PUSH1 0x1F DUP3 ADD AND DUP3 ADD DUP1 PUSH1 0x40 MSTORE POP DUP2 ADD SWAP1 PUSH2 0x19A7 SWAP2 SWAP1 PUSH2 0x3948 JUMP JUMPDEST POP POP POP POP POP JUMP JUMPDEST PUSH0 PUSH1 0x2 PUSH0 SWAP1 SLOAD SWAP1 PUSH2 0x100 EXP SWAP1 DIV PUSH20 0xFFFFFFFFFFFFFFFFFFFFFFFFFFFFFFFFFFFFFFFF AND PUSH20 0xFFFFFFFFFFFFFFFFFFFFFFFFFFFFFFFFFFFFFFFF AND PUSH4 0x84FC00BA PUSH0 PUSH0 SWAP1 SLOAD SWAP1 PUSH2 0x100 EXP SWAP1 DIV PUSH20 0xFFFFFFFFFFFFFFFFFFFFFFFFFFFFFFFFFFFFFFFF AND PUSH1 0x3 PUSH1 0x2 PUSH0 SWAP1 SLOAD SWAP1 PUSH2 0x100 EXP SWAP1 DIV PUSH20 0xFFFFFFFFFFFFFFFFFFFFFFFFFFFFFFFFFFFFFFFF AND PUSH1 0x40 MLOAD DUP5 PUSH4 0xFFFFFFFF AND PUSH1 0xE0 SHL DUP2 MSTORE PUSH1 0x4 ADD PUSH2 0x1A4F SWAP4 SWAP3 SWAP2 SWAP1 PUSH2 0x37A0 JUMP JUMPDEST PUSH1 0x20 PUSH1 0x40 MLOAD DUP1 DUP4 SUB DUP2 PUSH0 DUP8 GAS CALL ISZERO DUP1 ISZERO PUSH2 0x1A6B JUMPI RETURNDATASIZE PUSH0 PUSH0 RETURNDATACOPY RETURNDATASIZE PUSH0 REVERT JUMPDEST POP POP POP POP PUSH1 0x40 MLOAD RETURNDATASIZE PUSH1 0x1F NOT PUSH1 0x1F DUP3 ADD AND DUP3 ADD DUP1 PUSH1 0x40 MSTORE POP DUP2 ADD SWAP1 PUSH2 0x1A8F SWAP2 SWAP1 PUSH2 0x380C JUMP JUMPDEST SWAP1 POP PUSH20 0x0 PUSH4 0xABCD7960 DUP3 PUSH1 0x7 PUSH1 0x40 MLOAD DUP4 PUSH4 0xFFFFFFFF AND PUSH1 0xE0 SHL DUP2 MSTORE PUSH1 0x4 ADD PUSH2 0x1ACB SWAP3 SWAP2 SWAP1 PUSH2 0x4672 JUMP JUMPDEST PUSH1 0x20 PUSH1 0x40 MLOAD DUP1 DUP4 SUB DUP2 DUP7 GAS DELEGATECALL ISZERO DUP1 ISZERO PUSH2 0x1AE6 JUMPI RETURNDATASIZE PUSH0 PUSH0 RETURNDATACOPY RETURNDATASIZE PUSH0 REVERT JUMPDEST POP POP POP POP PUSH1 0x40 MLOAD RETURNDATASIZE PUSH1 0x1F NOT PUSH1 0x1F DUP3 ADD AND DUP3 ADD DUP1 PUSH1 0x40 MSTORE POP DUP2 ADD SWAP1 PUSH2 0x1B0A SWAP2 SWAP1 PUSH2 0x3948 JUMP JUMPDEST POP PUSH1 0x2 PUSH0 SWAP1 SLOAD SWAP1 PUSH2 0x100 EXP SWAP1 DIV PUSH20 0xFFFFFFFFFFFFFFFFFFFFFFFFFFFFFFFFFFFFFFFF AND PUSH20 0xFFFFFFFFFFFFFFFFFFFFFFFFFFFFFFFFFFFFFFFF AND PUSH4 0x5DF277FA PUSH0 PUSH0 SWAP1 SLOAD SWAP1 PUSH2 0x100 EXP SWAP1 DIV PUSH20 0xFFFFFFFFFFFFFFFFFFFFFFFFFFFFFFFFFFFFFFFF AND PUSH1 0x7 PUSH1 0x40 MLOAD DUP4 PUSH4 0xFFFFFFFF AND PUSH1 0xE0 SHL DUP2 MSTORE PUSH1 0x4 ADD PUSH2 0x1B88 SWAP3 SWAP2 SWAP1 PUSH2 0x46BB JUMP JUMPDEST PUSH1 0x20 PUSH1 0x40 MLOAD DUP1 DUP4 SUB DUP2 PUSH0 DUP8 GAS CALL ISZERO DUP1 ISZERO PUSH2 0x1BA4 JUMPI RETURNDATASIZE PUSH0 PUSH0 RETURNDATACOPY RETURNDATASIZE PUSH0 REVERT JUMPDEST POP POP POP POP PUSH1 0x40 MLOAD RETURNDATASIZE PUSH1 0x1F NOT PUSH1 0x1F DUP3 ADD AND DUP3 ADD DUP1 PUSH1 0x40 MSTORE POP DUP2 ADD SWAP1 PUSH2 0x1BC8 SWAP2 SWAP1 PUSH2 0x3948 JUMP JUMPDEST POP PUSH1 0x3 PUSH0 SWAP1 SLOAD SWAP1 PUSH2 0x100 EXP SWAP1 DIV PUSH20 0xFFFFFFFFFFFFFFFFFFFFFFFFFFFFFFFFFFFFFFFF AND PUSH20 0xFFFFFFFFFFFFFFFFFFFFFFFFFFFFFFFFFFFFFFFF AND PUSH4 0x5DF277FA PUSH0 PUSH0 SWAP1 SLOAD SWAP1 PUSH2 0x100 EXP SWAP1 DIV PUSH20 0xFFFFFFFFFFFFFFFFFFFFFFFFFFFFFFFFFFFFFFFF AND PUSH1 0x7 PUSH1 0x40 MLOAD DUP4 PUSH4 0xFFFFFFFF AND PUSH1 0xE0 SHL DUP2 MSTORE PUSH1 0x4 ADD PUSH2 0x1C46 SWAP3 SWAP2 SWAP1 PUSH2 0x46BB JUMP JUMPDEST PUSH1 0x20 PUSH1 0x40 MLOAD DUP1 DUP4 SUB DUP2 PUSH0 DUP8 GAS CALL ISZERO DUP1 ISZERO PUSH2 0x1C62 JUMPI RETURNDATASIZE PUSH0 PUSH0 RETURNDATACOPY RETURNDATASIZE PUSH0 REVERT JUMPDEST POP POP POP POP PUSH1 0x40 MLOAD RETURNDATASIZE PUSH1 0x1F NOT PUSH1 0x1F DUP3 ADD AND DUP3 ADD DUP1 PUSH1 0x40 MSTORE POP DUP2 ADD SWAP1 PUSH2 0x1C86 SWAP2 SWAP1 PUSH2 0x3948 JUMP JUMPDEST POP PUSH1 0x4 PUSH0 SWAP1 SLOAD SWAP1 PUSH2 0x100 EXP SWAP1 DIV PUSH20 0xFFFFFFFFFFFFFFFFFFFFFFFFFFFFFFFFFFFFFFFF AND PUSH20 0xFFFFFFFFFFFFFFFFFFFFFFFFFFFFFFFFFFFFFFFF AND PUSH4 0x5DF277FA PUSH0 PUSH0 SWAP1 SLOAD SWAP1 PUSH2 0x100 EXP SWAP1 DIV PUSH20 0xFFFFFFFFFFFFFFFFFFFFFFFFFFFFFFFFFFFFFFFF AND PUSH1 0x7 PUSH1 0x40 MLOAD DUP4 PUSH4 0xFFFFFFFF AND PUSH1 0xE0 SHL DUP2 MSTORE PUSH1 0x4 ADD PUSH2 0x1D04 SWAP3 SWAP2 SWAP1 PUSH2 0x46BB JUMP JUMPDEST PUSH1 0x20 PUSH1 0x40 MLOAD DUP1 DUP4 SUB DUP2 PUSH0 DUP8 GAS CALL ISZERO DUP1 ISZERO PUSH2 0x1D20 JUMPI RETURNDATASIZE PUSH0 PUSH0 RETURNDATACOPY RETURNDATASIZE PUSH0 REVERT JUMPDEST POP POP POP POP PUSH1 0x40 MLOAD RETURNDATASIZE PUSH1 0x1F NOT PUSH1 0x1F DUP3 ADD AND DUP3 ADD DUP1 PUSH1 0x40 MSTORE POP DUP2 ADD SWAP1 PUSH2 0x1D44 SWAP2 SWAP1 PUSH2 0x3948 JUMP JUMPDEST POP PUSH0 PUSH1 0x3 PUSH0 SWAP1 SLOAD SWAP1 PUSH2 0x100 EXP SWAP1 DIV PUSH20 0xFFFFFFFFFFFFFFFFFFFFFFFFFFFFFFFFFFFFFFFF AND PUSH20 0xFFFFFFFFFFFFFFFFFFFFFFFFFFFFFFFFFFFFFFFF AND PUSH4 0xBFC42645 PUSH0 PUSH0 SWAP1 SLOAD SWAP1 PUSH2 0x100 EXP SWAP1 DIV PUSH20 0xFFFFFFFFFFFFFFFFFFFFFFFFFFFFFFFFFFFFFFFF AND PUSH1 0x7 PUSH1 0x40 MLOAD DUP4 PUSH4 0xFFFFFFFF AND PUSH1 0xE0 SHL DUP2 MSTORE PUSH1 0x4 ADD PUSH2 0x1DC3 SWAP3 SWAP2 SWAP1 PUSH2 0x46BB JUMP JUMPDEST PUSH1 0x20 PUSH1 0x40 MLOAD DUP1 DUP4 SUB DUP2 PUSH0 DUP8 GAS CALL ISZERO DUP1 ISZERO PUSH2 0x1DDF JUMPI RETURNDATASIZE PUSH0 PUSH0 RETURNDATACOPY RETURNDATASIZE PUSH0 REVERT JUMPDEST POP POP POP POP PUSH1 0x40 MLOAD RETURNDATASIZE PUSH1 0x1F NOT PUSH1 0x1F DUP3 ADD AND DUP3 ADD DUP1 PUSH1 0x40 MSTORE POP DUP2 ADD SWAP1 PUSH2 0x1E03 SWAP2 SWAP1 PUSH2 0x3948 JUMP JUMPDEST SWAP1 POP PUSH20 0x0 PUSH4 0x39DF137F DUP3 PUSH1 0x40 MLOAD DUP3 PUSH4 0xFFFFFFFF AND PUSH1 0xE0 SHL DUP2 MSTORE PUSH1 0x4 ADD PUSH2 0x1E3C SWAP2 SWAP1 PUSH2 0x472C JUMP JUMPDEST PUSH1 0x20 PUSH1 0x40 MLOAD DUP1 DUP4 SUB DUP2 DUP7 GAS DELEGATECALL ISZERO DUP1 ISZERO PUSH2 0x1E57 JUMPI RETURNDATASIZE PUSH0 PUSH0 RETURNDATACOPY RETURNDATASIZE PUSH0 REVERT JUMPDEST POP POP POP POP PUSH1 0x40 MLOAD RETURNDATASIZE PUSH1 0x1F NOT PUSH1 0x1F DUP3 ADD AND DUP3 ADD DUP1 PUSH1 0x40 MSTORE POP DUP2 ADD SWAP1 PUSH2 0x1E7B SWAP2 SWAP1 PUSH2 0x3948 JUMP JUMPDEST POP PUSH20 0x0 PUSH4 0xABCD7960 PUSH0 PUSH0 SWAP1 SLOAD SWAP1 PUSH2 0x100 EXP SWAP1 DIV PUSH20 0xFFFFFFFFFFFFFFFFFFFFFFFFFFFFFFFFFFFFFFFF AND PUSH20 0xFFFFFFFFFFFFFFFFFFFFFFFFFFFFFFFFFFFFFFFF AND PUSH4 0xE8C9FD45 PUSH1 0x40 MLOAD DUP2 PUSH4 0xFFFFFFFF AND PUSH1 0xE0 SHL DUP2 MSTORE PUSH1 0x4 ADD PUSH1 0x20 PUSH1 0x40 MLOAD DUP1 DUP4 SUB DUP2 DUP7 GAS STATICCALL ISZERO DUP1 ISZERO PUSH2 0x1EFF JUMPI RETURNDATASIZE PUSH0 PUSH0 RETURNDATACOPY RETURNDATASIZE PUSH0 REVERT JUMPDEST POP POP POP POP PUSH1 0x40 MLOAD RETURNDATASIZE PUSH1 0x1F NOT PUSH1 0x1F DUP3 ADD AND DUP3 ADD DUP1 PUSH1 0x40 MSTORE POP DUP2 ADD SWAP1 PUSH2 0x1F23 SWAP2 SWAP1 PUSH2 0x380C JUMP JUMPDEST PUSH1 0x3 PUSH1 0x40 MLOAD DUP4 PUSH4 0xFFFFFFFF AND PUSH1 0xE0 SHL DUP2 MSTORE PUSH1 0x4 ADD PUSH2 0x1F42 SWAP3 SWAP2 SWAP1 PUSH2 0x47A2 JUMP JUMPDEST PUSH1 0x20 PUSH1 0x40 MLOAD DUP1 DUP4 SUB DUP2 DUP7 GAS DELEGATECALL ISZERO DUP1 ISZERO PUSH2 0x1F5D JUMPI RETURNDATASIZE PUSH0 PUSH0 RETURNDATACOPY RETURNDATASIZE PUSH0 REVERT JUMPDEST POP POP POP POP PUSH1 0x40 MLOAD RETURNDATASIZE PUSH1 0x1F NOT PUSH1 0x1F DUP3 ADD AND DUP3 ADD DUP1 PUSH1 0x40 MSTORE POP DUP2 ADD SWAP1 PUSH2 0x1F81 SWAP2 SWAP1 PUSH2 0x3948 JUMP JUMPDEST POP PUSH20 0x0 PUSH4 0x39DF137F PUSH0 PUSH0 SWAP1 SLOAD SWAP1 PUSH2 0x100 EXP SWAP1 DIV PUSH20 0xFFFFFFFFFFFFFFFFFFFFFFFFFFFFFFFFFFFFFFFF AND PUSH20 0xFFFFFFFFFFFFFFFFFFFFFFFFFFFFFFFFFFFFFFFF AND PUSH4 0xE43581B8 PUSH1 0x2 PUSH0 SWAP1 SLOAD SWAP1 PUSH2 0x100 EXP SWAP1 DIV PUSH20 0xFFFFFFFFFFFFFFFFFFFFFFFFFFFFFFFFFFFFFFFF AND PUSH1 0x40 MLOAD DUP3 PUSH4 0xFFFFFFFF AND PUSH1 0xE0 SHL DUP2 MSTORE PUSH1 0x4 ADD PUSH2 0x2016 SWAP2 SWAP1 PUSH2 0x3B37 JUMP JUMPDEST PUSH1 0x20 PUSH1 0x40 MLOAD DUP1 DUP4 SUB DUP2 DUP7 GAS STATICCALL ISZERO DUP1 ISZERO PUSH2 0x2031 JUMPI RETURNDATASIZE PUSH0 PUSH0 RETURNDATACOPY RETURNDATASIZE PUSH0 REVERT JUMPDEST POP POP POP POP PUSH1 0x40 MLOAD RETURNDATASIZE PUSH1 0x1F NOT PUSH1 0x1F DUP3 ADD AND DUP3 ADD DUP1 PUSH1 0x40 MSTORE POP DUP2 ADD SWAP1 PUSH2 0x2055 SWAP2 SWAP1 PUSH2 0x3948 JUMP JUMPDEST ISZERO PUSH1 0x40 MLOAD DUP3 PUSH4 0xFFFFFFFF AND PUSH1 0xE0 SHL DUP2 MSTORE PUSH1 0x4 ADD PUSH2 0x2072 SWAP2 SWAP1 PUSH2 0x4826 JUMP JUMPDEST PUSH1 0x20 PUSH1 0x40 MLOAD DUP1 DUP4 SUB DUP2 DUP7 GAS DELEGATECALL ISZERO DUP1 ISZERO PUSH2 0x208D JUMPI RETURNDATASIZE PUSH0 PUSH0 RETURNDATACOPY RETURNDATASIZE PUSH0 REVERT JUMPDEST POP POP POP POP PUSH1 0x40 MLOAD RETURNDATASIZE PUSH1 0x1F NOT PUSH1 0x1F DUP3 ADD AND DUP3 ADD DUP1 PUSH1 0x40 MSTORE POP DUP2 ADD SWAP1 PUSH2 0x20B1 SWAP2 SWAP1 PUSH2 0x3948 JUMP JUMPDEST POP POP POP JUMP JUMPDEST PUSH0 PUSH1 0x2 PUSH0 SWAP1 SLOAD SWAP1 PUSH2 0x100 EXP SWAP1 DIV PUSH20 0xFFFFFFFFFFFFFFFFFFFFFFFFFFFFFFFFFFFFFFFF AND PUSH20 0xFFFFFFFFFFFFFFFFFFFFFFFFFFFFFFFFFFFFFFFF AND PUSH4 0x84FC00BA PUSH0 PUSH0 SWAP1 SLOAD SWAP1 PUSH2 0x100 EXP SWAP1 DIV PUSH20 0xFFFFFFFFFFFFFFFFFFFFFFFFFFFFFFFFFFFFFFFF AND PUSH0 PUSH1 0x6 PUSH0 SWAP1 SLOAD SWAP1 PUSH2 0x100 EXP SWAP1 DIV PUSH20 0xFFFFFFFFFFFFFFFFFFFFFFFFFFFFFFFFFFFFFFFF AND PUSH1 0x40 MLOAD DUP5 PUSH4 0xFFFFFFFF AND PUSH1 0xE0 SHL DUP2 MSTORE PUSH1 0x4 ADD PUSH2 0x2156 SWAP4 SWAP3 SWAP2 SWAP1 PUSH2 0x37A0 JUMP JUMPDEST PUSH1 0x20 PUSH1 0x40 MLOAD DUP1 DUP4 SUB DUP2 PUSH0 DUP8 GAS CALL ISZERO DUP1 ISZERO PUSH2 0x2172 JUMPI RETURNDATASIZE PUSH0 PUSH0 RETURNDATACOPY RETURNDATASIZE PUSH0 REVERT JUMPDEST POP POP POP POP PUSH1 0x40 MLOAD RETURNDATASIZE PUSH1 0x1F NOT PUSH1 0x1F DUP3 ADD AND DUP3 ADD DUP1 PUSH1 0x40 MSTORE POP DUP2 ADD SWAP1 PUSH2 0x2196 SWAP2 SWAP1 PUSH2 0x380C JUMP JUMPDEST SWAP1 POP PUSH20 0x0 PUSH4 0xABCD7960 DUP3 PUSH1 0x4 PUSH1 0x40 MLOAD DUP4 PUSH4 0xFFFFFFFF AND PUSH1 0xE0 SHL DUP2 MSTORE PUSH1 0x4 ADD PUSH2 0x21D2 SWAP3 SWAP2 SWAP1 PUSH2 0x489C JUMP JUMPDEST PUSH1 0x20 PUSH1 0x40 MLOAD DUP1 DUP4 SUB DUP2 DUP7 GAS DELEGATECALL ISZERO DUP1 ISZERO PUSH2 0x21ED JUMPI RETURNDATASIZE PUSH0 PUSH0 RETURNDATACOPY RETURNDATASIZE PUSH0 REVERT JUMPDEST POP POP POP POP PUSH1 0x40 MLOAD RETURNDATASIZE PUSH1 0x1F NOT PUSH1 0x1F DUP3 ADD AND DUP3 ADD DUP1 PUSH1 0x40 MSTORE POP DUP2 ADD SWAP1 PUSH2 0x2211 SWAP2 SWAP1 PUSH2 0x3948 JUMP JUMPDEST POP PUSH1 0x2 PUSH0 SWAP1 SLOAD SWAP1 PUSH2 0x100 EXP SWAP1 DIV PUSH20 0xFFFFFFFFFFFFFFFFFFFFFFFFFFFFFFFFFFFFFFFF AND PUSH20 0xFFFFFFFFFFFFFFFFFFFFFFFFFFFFFFFFFFFFFFFF AND PUSH4 0x5DF277FA PUSH0 PUSH0 SWAP1 SLOAD SWAP1 PUSH2 0x100 EXP SWAP1 DIV PUSH20 0xFFFFFFFFFFFFFFFFFFFFFFFFFFFFFFFFFFFFFFFF AND PUSH1 0x4 PUSH1 0x40 MLOAD DUP4 PUSH4 0xFFFFFFFF AND PUSH1 0xE0 SHL DUP2 MSTORE PUSH1 0x4 ADD PUSH2 0x228F SWAP3 SWAP2 SWAP1 PUSH2 0x48E5 JUMP JUMPDEST PUSH1 0x20 PUSH1 0x40 MLOAD DUP1 DUP4 SUB DUP2 PUSH0 DUP8 GAS CALL ISZERO DUP1 ISZERO PUSH2 0x22AB JUMPI RETURNDATASIZE PUSH0 PUSH0 RETURNDATACOPY RETURNDATASIZE PUSH0 REVERT JUMPDEST POP POP POP POP PUSH1 0x40 MLOAD RETURNDATASIZE PUSH1 0x1F NOT PUSH1 0x1F DUP3 ADD AND DUP3 ADD DUP1 PUSH1 0x40 MSTORE POP DUP2 ADD SWAP1 PUSH2 0x22CF SWAP2 SWAP1 PUSH2 0x3948 JUMP JUMPDEST POP PUSH0 PUSH1 0x2 PUSH0 SWAP1 SLOAD SWAP1 PUSH2 0x100 EXP SWAP1 DIV PUSH20 0xFFFFFFFFFFFFFFFFFFFFFFFFFFFFFFFFFFFFFFFF AND PUSH20 0xFFFFFFFFFFFFFFFFFFFFFFFFFFFFFFFFFFFFFFFF AND PUSH4 0xBFC42645 PUSH0 PUSH0 SWAP1 SLOAD SWAP1 PUSH2 0x100 EXP SWAP1 DIV PUSH20 0xFFFFFFFFFFFFFFFFFFFFFFFFFFFFFFFFFFFFFFFF AND PUSH1 0x4 PUSH1 0x40 MLOAD DUP4 PUSH4 0xFFFFFFFF AND PUSH1 0xE0 SHL DUP2 MSTORE PUSH1 0x4 ADD PUSH2 0x234E SWAP3 SWAP2 SWAP1 PUSH2 0x48E5 JUMP JUMPDEST PUSH1 0x20 PUSH1 0x40 MLOAD DUP1 DUP4 SUB DUP2 PUSH0 DUP8 GAS CALL ISZERO DUP1 ISZERO PUSH2 0x236A JUMPI RETURNDATASIZE PUSH0 PUSH0 RETURNDATACOPY RETURNDATASIZE PUSH0 REVERT JUMPDEST POP POP POP POP PUSH1 0x40 MLOAD RETURNDATASIZE PUSH1 0x1F NOT PUSH1 0x1F DUP3 ADD AND DUP3 ADD DUP1 PUSH1 0x40 MSTORE POP DUP2 ADD SWAP1 PUSH2 0x238E SWAP2 SWAP1 PUSH2 0x3948 JUMP JUMPDEST SWAP1 POP PUSH20 0x0 PUSH4 0x39DF137F DUP3 ISZERO PUSH1 0x40 MLOAD DUP3 PUSH4 0xFFFFFFFF AND PUSH1 0xE0 SHL DUP2 MSTORE PUSH1 0x4 ADD PUSH2 0x23C8 SWAP2 SWAP1 PUSH2 0x49A2 JUMP JUMPDEST PUSH1 0x20 PUSH1 0x40 MLOAD DUP1 DUP4 SUB DUP2 DUP7 GAS DELEGATECALL ISZERO DUP1 ISZERO PUSH2 0x23E3 JUMPI RETURNDATASIZE PUSH0 PUSH0 RETURNDATACOPY RETURNDATASIZE PUSH0 REVERT JUMPDEST POP POP POP POP PUSH1 0x40 MLOAD RETURNDATASIZE PUSH1 0x1F NOT PUSH1 0x1F DUP3 ADD AND DUP3 ADD DUP1 PUSH1 0x40 MSTORE POP DUP2 ADD SWAP1 PUSH2 0x2407 SWAP2 SWAP1 PUSH2 0x3948 JUMP JUMPDEST POP POP POP JUMP JUMPDEST PUSH1 0x40 MLOAD PUSH2 0x2418 SWAP1 PUSH2 0x3679 JUMP JUMPDEST PUSH1 0x40 MLOAD DUP1 SWAP2 SUB SWAP1 PUSH0 CREATE DUP1 ISZERO DUP1 ISZERO PUSH2 0x2431 JUMPI RETURNDATASIZE PUSH0 PUSH0 RETURNDATACOPY RETURNDATASIZE PUSH0 REVERT JUMPDEST POP PUSH1 0x2 PUSH0 PUSH2 0x100 EXP DUP2 SLOAD DUP2 PUSH20 0xFFFFFFFFFFFFFFFFFFFFFFFFFFFFFFFFFFFFFFFF MUL NOT AND SWAP1 DUP4 PUSH20 0xFFFFFFFFFFFFFFFFFFFFFFFFFFFFFFFFFFFFFFFF AND MUL OR SWAP1 SSTORE POP PUSH1 0x40 MLOAD PUSH2 0x247D SWAP1 PUSH2 0x3679 JUMP JUMPDEST PUSH1 0x40 MLOAD DUP1 SWAP2 SUB SWAP1 PUSH0 CREATE DUP1 ISZERO DUP1 ISZERO PUSH2 0x2496 JUMPI RETURNDATASIZE PUSH0 PUSH0 RETURNDATACOPY RETURNDATASIZE PUSH0 REVERT JUMPDEST POP PUSH1 0x3 PUSH0 PUSH2 0x100 EXP DUP2 SLOAD DUP2 PUSH20 0xFFFFFFFFFFFFFFFFFFFFFFFFFFFFFFFFFFFFFFFF MUL NOT AND SWAP1 DUP4 PUSH20 0xFFFFFFFFFFFFFFFFFFFFFFFFFFFFFFFFFFFFFFFF AND MUL OR SWAP1 SSTORE POP PUSH1 0x40 MLOAD PUSH2 0x24E2 SWAP1 PUSH2 0x3679 JUMP JUMPDEST PUSH1 0x40 MLOAD DUP1 SWAP2 SUB SWAP1 PUSH0 CREATE DUP1 ISZERO DUP1 ISZERO PUSH2 0x24FB JUMPI RETURNDATASIZE PUSH0 PUSH0 RETURNDATACOPY RETURNDATASIZE PUSH0 REVERT JUMPDEST POP PUSH1 0x4 PUSH0 PUSH2 0x100 EXP DUP2 SLOAD DUP2 PUSH20 0xFFFFFFFFFFFFFFFFFFFFFFFFFFFFFFFFFFFFFFFF MUL NOT AND SWAP1 DUP4 PUSH20 0xFFFFFFFFFFFFFFFFFFFFFFFFFFFFFFFFFFFFFFFF AND MUL OR SWAP1 SSTORE POP PUSH1 0x8 PUSH1 0x2 PUSH0 SWAP1 SLOAD SWAP1 PUSH2 0x100 EXP SWAP1 DIV PUSH20 0xFFFFFFFFFFFFFFFFFFFFFFFFFFFFFFFFFFFFFFFF AND SWAP1 DUP1 PUSH1 0x1 DUP2 SLOAD ADD DUP1 DUP3 SSTORE DUP1 SWAP2 POP POP PUSH1 0x1 SWAP1 SUB SWAP1 PUSH0 MSTORE PUSH1 0x20 PUSH0 KECCAK256 ADD PUSH0 SWAP1 SWAP2 SWAP1 SWAP2 SWAP1 SWAP2 PUSH2 0x100 EXP DUP2 SLOAD DUP2 PUSH20 0xFFFFFFFFFFFFFFFFFFFFFFFFFFFFFFFFFFFFFFFF MUL NOT AND SWAP1 DUP4 PUSH20 0xFFFFFFFFFFFFFFFFFFFFFFFFFFFFFFFFFFFFFFFF AND MUL OR SWAP1 SSTORE POP PUSH1 0x8 PUSH1 0x3 PUSH0 SWAP1 SLOAD SWAP1 PUSH2 0x100 EXP SWAP1 DIV PUSH20 0xFFFFFFFFFFFFFFFFFFFFFFFFFFFFFFFFFFFFFFFF AND SWAP1 DUP1 PUSH1 0x1 DUP2 SLOAD ADD DUP1 DUP3 SSTORE DUP1 SWAP2 POP POP PUSH1 0x1 SWAP1 SUB SWAP1 PUSH0 MSTORE PUSH1 0x20 PUSH0 KECCAK256 ADD PUSH0 SWAP1 SWAP2 SWAP1 SWAP2 SWAP1 SWAP2 PUSH2 0x100 EXP DUP2 SLOAD DUP2 PUSH20 0xFFFFFFFFFFFFFFFFFFFFFFFFFFFFFFFFFFFFFFFF MUL NOT AND SWAP1 DUP4 PUSH20 0xFFFFFFFFFFFFFFFFFFFFFFFFFFFFFFFFFFFFFFFF AND MUL OR SWAP1 SSTORE POP PUSH1 0x8 PUSH1 0x4 PUSH0 SWAP1 SLOAD SWAP1 PUSH2 0x100 EXP SWAP1 DIV PUSH20 0xFFFFFFFFFFFFFFFFFFFFFFFFFFFFFFFFFFFFFFFF AND SWAP1 DUP1 PUSH1 0x1 DUP2 SLOAD ADD DUP1 DUP3 SSTORE DUP1 SWAP2 POP POP PUSH1 0x1 SWAP1 SUB SWAP1 PUSH0 MSTORE PUSH1 0x20 PUSH0 KECCAK256 ADD PUSH0 SWAP1 SWAP2 SWAP1 SWAP2 SWAP1 SWAP2 PUSH2 0x100 EXP DUP2 SLOAD DUP2 PUSH20 0xFFFFFFFFFFFFFFFFFFFFFFFFFFFFFFFFFFFFFFFF MUL NOT AND SWAP1 DUP4 PUSH20 0xFFFFFFFFFFFFFFFFFFFFFFFFFFFFFFFFFFFFFFFF AND MUL OR SWAP1 SSTORE POP PUSH1 0x8 PUSH1 0x1 PUSH0 SWAP1 SLOAD SWAP1 PUSH2 0x100 EXP SWAP1 DIV PUSH20 0xFFFFFFFFFFFFFFFFFFFFFFFFFFFFFFFFFFFFFFFF AND PUSH1 0x40 MLOAD PUSH2 0x26EE SWAP1 PUSH2 0x3686 JUMP JUMPDEST PUSH2 0x26F9 SWAP3 SWAP2 SWAP1 PUSH2 0x4AE4 JUMP JUMPDEST PUSH1 0x40 MLOAD DUP1 SWAP2 SUB SWAP1 PUSH0 CREATE DUP1 ISZERO DUP1 ISZERO PUSH2 0x2712 JUMPI RETURNDATASIZE PUSH0 PUSH0 RETURNDATACOPY RETURNDATASIZE PUSH0 REVERT JUMPDEST POP PUSH0 PUSH0 PUSH2 0x100 EXP DUP2 SLOAD DUP2 PUSH20 0xFFFFFFFFFFFFFFFFFFFFFFFFFFFFFFFFFFFFFFFF MUL NOT AND SWAP1 DUP4 PUSH20 0xFFFFFFFFFFFFFFFFFFFFFFFFFFFFFFFFFFFFFFFF AND MUL OR SWAP1 SSTORE POP JUMP JUMPDEST PUSH0 PUSH1 0x2 PUSH0 SWAP1 SLOAD SWAP1 PUSH2 0x100 EXP SWAP1 DIV PUSH20 0xFFFFFFFFFFFFFFFFFFFFFFFFFFFFFFFFFFFFFFFF AND PUSH20 0xFFFFFFFFFFFFFFFFFFFFFFFFFFFFFFFFFFFFFFFF AND PUSH4 0x84FC00BA PUSH0 PUSH0 SWAP1 SLOAD SWAP1 PUSH2 0x100 EXP SWAP1 DIV PUSH20 0xFFFFFFFFFFFFFFFFFFFFFFFFFFFFFFFFFFFFFFFF AND PUSH1 0x2 PUSH1 0x5 PUSH0 SWAP1 SLOAD SWAP1 PUSH2 0x100 EXP SWAP1 DIV PUSH20 0xFFFFFFFFFFFFFFFFFFFFFFFFFFFFFFFFFFFFFFFF AND PUSH1 0x40 MLOAD DUP5 PUSH4 0xFFFFFFFF AND PUSH1 0xE0 SHL DUP2 MSTORE PUSH1 0x4 ADD PUSH2 0x27F4 SWAP4 SWAP3 SWAP2 SWAP1 PUSH2 0x37A0 JUMP JUMPDEST PUSH1 0x20 PUSH1 0x40 MLOAD DUP1 DUP4 SUB DUP2 PUSH0 DUP8 GAS CALL ISZERO DUP1 ISZERO PUSH2 0x2810 JUMPI RETURNDATASIZE PUSH0 PUSH0 RETURNDATACOPY RETURNDATASIZE PUSH0 REVERT JUMPDEST POP POP POP POP PUSH1 0x40 MLOAD RETURNDATASIZE PUSH1 0x1F NOT PUSH1 0x1F DUP3 ADD AND DUP3 ADD DUP1 PUSH1 0x40 MSTORE POP DUP2 ADD SWAP1 PUSH2 0x2834 SWAP2 SWAP1 PUSH2 0x380C JUMP JUMPDEST SWAP1 POP PUSH20 0x0 PUSH4 0xABCD7960 DUP3 PUSH1 0x6 PUSH1 0x40 MLOAD DUP4 PUSH4 0xFFFFFFFF AND PUSH1 0xE0 SHL DUP2 MSTORE PUSH1 0x4 ADD PUSH2 0x2870 SWAP3 SWAP2 SWAP1 PUSH2 0x4B95 JUMP JUMPDEST PUSH1 0x20 PUSH1 0x40 MLOAD DUP1 DUP4 SUB DUP2 DUP7 GAS DELEGATECALL ISZERO DUP1 ISZERO PUSH2 0x288B JUMPI RETURNDATASIZE PUSH0 PUSH0 RETURNDATACOPY RETURNDATASIZE PUSH0 REVERT JUMPDEST POP POP POP POP PUSH1 0x40 MLOAD RETURNDATASIZE PUSH1 0x1F NOT PUSH1 0x1F DUP3 ADD AND DUP3 ADD DUP1 PUSH1 0x40 MSTORE POP DUP2 ADD SWAP1 PUSH2 0x28AF SWAP2 SWAP1 PUSH2 0x3948 JUMP JUMPDEST POP PUSH1 0x2 PUSH0 SWAP1 SLOAD SWAP1 PUSH2 0x100 EXP SWAP1 DIV PUSH20 0xFFFFFFFFFFFFFFFFFFFFFFFFFFFFFFFFFFFFFFFF AND PUSH20 0xFFFFFFFFFFFFFFFFFFFFFFFFFFFFFFFFFFFFFFFF AND PUSH4 0x5DF277FA PUSH0 PUSH0 SWAP1 SLOAD SWAP1 PUSH2 0x100 EXP SWAP1 DIV PUSH20 0xFFFFFFFFFFFFFFFFFFFFFFFFFFFFFFFFFFFFFFFF AND PUSH1 0x6 PUSH1 0x40 MLOAD DUP4 PUSH4 0xFFFFFFFF AND PUSH1 0xE0 SHL DUP2 MSTORE PUSH1 0x4 ADD PUSH2 0x292D SWAP3 SWAP2 SWAP1 PUSH2 0x4BDE JUMP JUMPDEST PUSH1 0x20 PUSH1 0x40 MLOAD DUP1 DUP4 SUB DUP2 PUSH0 DUP8 GAS CALL ISZERO DUP1 ISZERO PUSH2 0x2949 JUMPI RETURNDATASIZE PUSH0 PUSH0 RETURNDATACOPY RETURNDATASIZE PUSH0 REVERT JUMPDEST POP POP POP POP PUSH1 0x40 MLOAD RETURNDATASIZE PUSH1 0x1F NOT PUSH1 0x1F DUP3 ADD AND DUP3 ADD DUP1 PUSH1 0x40 MSTORE POP DUP2 ADD SWAP1 PUSH2 0x296D SWAP2 SWAP1 PUSH2 0x3948 JUMP JUMPDEST POP PUSH1 0x3 PUSH0 SWAP1 SLOAD SWAP1 PUSH2 0x100 EXP SWAP1 DIV PUSH20 0xFFFFFFFFFFFFFFFFFFFFFFFFFFFFFFFFFFFFFFFF AND PUSH20 0xFFFFFFFFFFFFFFFFFFFFFFFFFFFFFFFFFFFFFFFF AND PUSH4 0x5DF277FA PUSH0 PUSH0 SWAP1 SLOAD SWAP1 PUSH2 0x100 EXP SWAP1 DIV PUSH20 0xFFFFFFFFFFFFFFFFFFFFFFFFFFFFFFFFFFFFFFFF AND PUSH1 0x6 PUSH1 0x40 MLOAD DUP4 PUSH4 0xFFFFFFFF AND PUSH1 0xE0 SHL DUP2 MSTORE PUSH1 0x4 ADD PUSH2 0x29EB SWAP3 SWAP2 SWAP1 PUSH2 0x4BDE JUMP JUMPDEST PUSH1 0x20 PUSH1 0x40 MLOAD DUP1 DUP4 SUB DUP2 PUSH0 DUP8 GAS CALL ISZERO DUP1 ISZERO PUSH2 0x2A07 JUMPI RETURNDATASIZE PUSH0 PUSH0 RETURNDATACOPY RETURNDATASIZE PUSH0 REVERT JUMPDEST POP POP POP POP PUSH1 0x40 MLOAD RETURNDATASIZE PUSH1 0x1F NOT PUSH1 0x1F DUP3 ADD AND DUP3 ADD DUP1 PUSH1 0x40 MSTORE POP DUP2 ADD SWAP1 PUSH2 0x2A2B SWAP2 SWAP1 PUSH2 0x3948 JUMP JUMPDEST POP PUSH1 0x4 PUSH0 SWAP1 SLOAD SWAP1 PUSH2 0x100 EXP SWAP1 DIV PUSH20 0xFFFFFFFFFFFFFFFFFFFFFFFFFFFFFFFFFFFFFFFF AND PUSH20 0xFFFFFFFFFFFFFFFFFFFFFFFFFFFFFFFFFFFFFFFF AND PUSH4 0x5DF277FA PUSH0 PUSH0 SWAP1 SLOAD SWAP1 PUSH2 0x100 EXP SWAP1 DIV PUSH20 0xFFFFFFFFFFFFFFFFFFFFFFFFFFFFFFFFFFFFFFFF AND PUSH1 0x6 PUSH1 0x40 MLOAD DUP4 PUSH4 0xFFFFFFFF AND PUSH1 0xE0 SHL DUP2 MSTORE PUSH1 0x4 ADD PUSH2 0x2AA9 SWAP3 SWAP2 SWAP1 PUSH2 0x4BDE JUMP JUMPDEST PUSH1 0x20 PUSH1 0x40 MLOAD DUP1 DUP4 SUB DUP2 PUSH0 DUP8 GAS CALL ISZERO DUP1 ISZERO PUSH2 0x2AC5 JUMPI RETURNDATASIZE PUSH0 PUSH0 RETURNDATACOPY RETURNDATASIZE PUSH0 REVERT JUMPDEST POP POP POP POP PUSH1 0x40 MLOAD RETURNDATASIZE PUSH1 0x1F NOT PUSH1 0x1F DUP3 ADD AND DUP3 ADD DUP1 PUSH1 0x40 MSTORE POP DUP2 ADD SWAP1 PUSH2 0x2AE9 SWAP2 SWAP1 PUSH2 0x3948 JUMP JUMPDEST POP PUSH0 PUSH1 0x2 PUSH0 SWAP1 SLOAD SWAP1 PUSH2 0x100 EXP SWAP1 DIV PUSH20 0xFFFFFFFFFFFFFFFFFFFFFFFFFFFFFFFFFFFFFFFF AND PUSH20 0xFFFFFFFFFFFFFFFFFFFFFFFFFFFFFFFFFFFFFFFF AND PUSH4 0xBFC42645 PUSH0 PUSH0 SWAP1 SLOAD SWAP1 PUSH2 0x100 EXP SWAP1 DIV PUSH20 0xFFFFFFFFFFFFFFFFFFFFFFFFFFFFFFFFFFFFFFFF AND PUSH1 0x6 PUSH1 0x40 MLOAD DUP4 PUSH4 0xFFFFFFFF AND PUSH1 0xE0 SHL DUP2 MSTORE PUSH1 0x4 ADD PUSH2 0x2B68 SWAP3 SWAP2 SWAP1 PUSH2 0x4BDE JUMP JUMPDEST PUSH1 0x20 PUSH1 0x40 MLOAD DUP1 DUP4 SUB DUP2 PUSH0 DUP8 GAS CALL ISZERO DUP1 ISZERO PUSH2 0x2B84 JUMPI RETURNDATASIZE PUSH0 PUSH0 RETURNDATACOPY RETURNDATASIZE PUSH0 REVERT JUMPDEST POP POP POP POP PUSH1 0x40 MLOAD RETURNDATASIZE PUSH1 0x1F NOT PUSH1 0x1F DUP3 ADD AND DUP3 ADD DUP1 PUSH1 0x40 MSTORE POP DUP2 ADD SWAP1 PUSH2 0x2BA8 SWAP2 SWAP1 PUSH2 0x3948 JUMP JUMPDEST SWAP1 POP PUSH20 0x0 PUSH4 0x39DF137F DUP3 ISZERO PUSH1 0x40 MLOAD DUP3 PUSH4 0xFFFFFFFF AND PUSH1 0xE0 SHL DUP2 MSTORE PUSH1 0x4 ADD PUSH2 0x2BE2 SWAP2 SWAP1 PUSH2 0x4C75 JUMP JUMPDEST PUSH1 0x20 PUSH1 0x40 MLOAD DUP1 DUP4 SUB DUP2 DUP7 GAS DELEGATECALL ISZERO DUP1 ISZERO PUSH2 0x2BFD JUMPI RETURNDATASIZE PUSH0 PUSH0 RETURNDATACOPY RETURNDATASIZE PUSH0 REVERT JUMPDEST POP POP POP POP PUSH1 0x40 MLOAD RETURNDATASIZE PUSH1 0x1F NOT PUSH1 0x1F DUP3 ADD AND DUP3 ADD DUP1 PUSH1 0x40 MSTORE POP DUP2 ADD SWAP1 PUSH2 0x2C21 SWAP2 SWAP1 PUSH2 0x3948 JUMP JUMPDEST POP POP POP JUMP JUMPDEST PUSH20 0x0 PUSH4 0xABCD7960 PUSH0 PUSH0 SWAP1 SLOAD SWAP1 PUSH2 0x100 EXP SWAP1 DIV PUSH20 0xFFFFFFFFFFFFFFFFFFFFFFFFFFFFFFFFFFFFFFFF AND PUSH20 0xFFFFFFFFFFFFFFFFFFFFFFFFFFFFFFFFFFFFFFFF AND PUSH4 0xE8C9FD45 PUSH1 0x40 MLOAD DUP2 PUSH4 0xFFFFFFFF AND PUSH1 0xE0 SHL DUP2 MSTORE PUSH1 0x4 ADD PUSH1 0x20 PUSH1 0x40 MLOAD DUP1 DUP4 SUB DUP2 DUP7 GAS STATICCALL ISZERO DUP1 ISZERO PUSH2 0x2CA9 JUMPI RETURNDATASIZE PUSH0 PUSH0 RETURNDATACOPY RETURNDATASIZE PUSH0 REVERT JUMPDEST POP POP POP POP PUSH1 0x40 MLOAD RETURNDATASIZE PUSH1 0x1F NOT PUSH1 0x1F DUP3 ADD AND DUP3 ADD DUP1 PUSH1 0x40 MSTORE POP DUP2 ADD SWAP1 PUSH2 0x2CCD SWAP2 SWAP1 PUSH2 0x380C JUMP JUMPDEST PUSH1 0x3 PUSH1 0x40 MLOAD DUP4 PUSH4 0xFFFFFFFF AND PUSH1 0xE0 SHL DUP2 MSTORE PUSH1 0x4 ADD PUSH2 0x2CEC SWAP3 SWAP2 SWAP1 PUSH2 0x4D11 JUMP JUMPDEST PUSH1 0x20 PUSH1 0x40 MLOAD DUP1 DUP4 SUB DUP2 DUP7 GAS DELEGATECALL ISZERO DUP1 ISZERO PUSH2 0x2D07 JUMPI RETURNDATASIZE PUSH0 PUSH0 RETURNDATACOPY RETURNDATASIZE PUSH0 REVERT JUMPDEST POP POP POP POP PUSH1 0x40 MLOAD RETURNDATASIZE PUSH1 0x1F NOT PUSH1 0x1F DUP3 ADD AND DUP3 ADD DUP1 PUSH1 0x40 MSTORE POP DUP2 ADD SWAP1 PUSH2 0x2D2B SWAP2 SWAP1 PUSH2 0x3948 JUMP JUMPDEST POP PUSH20 0x0 PUSH4 0x39DF137F PUSH0 PUSH0 SWAP1 SLOAD SWAP1 PUSH2 0x100 EXP SWAP1 DIV PUSH20 0xFFFFFFFFFFFFFFFFFFFFFFFFFFFFFFFFFFFFFFFF AND PUSH20 0xFFFFFFFFFFFFFFFFFFFFFFFFFFFFFFFFFFFFFFFF AND PUSH4 0xE43581B8 PUSH1 0x2 PUSH0 SWAP1 SLOAD SWAP1 PUSH2 0x100 EXP SWAP1 DIV PUSH20 0xFFFFFFFFFFFFFFFFFFFFFFFFFFFFFFFFFFFFFFFF AND PUSH1 0x40 MLOAD DUP3 PUSH4 0xFFFFFFFF AND PUSH1 0xE0 SHL DUP2 MSTORE PUSH1 0x4 ADD PUSH2 0x2DC0 SWAP2 SWAP1 PUSH2 0x3B37 JUMP JUMPDEST PUSH1 0x20 PUSH1 0x40 MLOAD DUP1 DUP4 SUB DUP2 DUP7 GAS STATICCALL ISZERO DUP1 ISZERO PUSH2 0x2DDB JUMPI RETURNDATASIZE PUSH0 PUSH0 RETURNDATACOPY RETURNDATASIZE PUSH0 REVERT JUMPDEST POP POP POP POP PUSH1 0x40 MLOAD RETURNDATASIZE PUSH1 0x1F NOT PUSH1 0x1F DUP3 ADD AND DUP3 ADD DUP1 PUSH1 0x40 MSTORE POP DUP2 ADD SWAP1 PUSH2 0x2DFF SWAP2 SWAP1 PUSH2 0x3948 JUMP JUMPDEST PUSH1 0x40 MLOAD DUP3 PUSH4 0xFFFFFFFF AND PUSH1 0xE0 SHL DUP2 MSTORE PUSH1 0x4 ADD PUSH2 0x2E1B SWAP2 SWAP1 PUSH2 0x4D95 JUMP JUMPDEST PUSH1 0x20 PUSH1 0x40 MLOAD DUP1 DUP4 SUB DUP2 DUP7 GAS DELEGATECALL ISZERO DUP1 ISZERO PUSH2 0x2E36 JUMPI RETURNDATASIZE PUSH0 PUSH0 RETURNDATACOPY RETURNDATASIZE PUSH0 REVERT JUMPDEST POP POP POP POP PUSH1 0x40 MLOAD RETURNDATASIZE PUSH1 0x1F NOT PUSH1 0x1F DUP3 ADD AND DUP3 ADD DUP1 PUSH1 0x40 MSTORE POP DUP2 ADD SWAP1 PUSH2 0x2E5A SWAP2 SWAP1 PUSH2 0x3948 JUMP JUMPDEST POP PUSH20 0x0 PUSH4 0x39DF137F PUSH0 PUSH0 SWAP1 SLOAD SWAP1 PUSH2 0x100 EXP SWAP1 DIV PUSH20 0xFFFFFFFFFFFFFFFFFFFFFFFFFFFFFFFFFFFFFFFF AND PUSH20 0xFFFFFFFFFFFFFFFFFFFFFFFFFFFFFFFFFFFFFFFF AND PUSH4 0xE43581B8 PUSH1 0x7 PUSH0 SWAP1 SLOAD SWAP1 PUSH2 0x100 EXP SWAP1 DIV PUSH20 0xFFFFFFFFFFFFFFFFFFFFFFFFFFFFFFFFFFFFFFFF AND PUSH1 0x40 MLOAD DUP3 PUSH4 0xFFFFFFFF AND PUSH1 0xE0 SHL DUP2 MSTORE PUSH1 0x4 ADD PUSH2 0x2EEF SWAP2 SWAP1 PUSH2 0x3B37 JUMP JUMPDEST PUSH1 0x20 PUSH1 0x40 MLOAD DUP1 DUP4 SUB DUP2 DUP7 GAS STATICCALL ISZERO DUP1 ISZERO PUSH2 0x2F0A JUMPI RETURNDATASIZE PUSH0 PUSH0 RETURNDATACOPY RETURNDATASIZE PUSH0 REVERT JUMPDEST POP POP POP POP PUSH1 0x40 MLOAD RETURNDATASIZE PUSH1 0x1F NOT PUSH1 0x1F DUP3 ADD AND DUP3 ADD DUP1 PUSH1 0x40 MSTORE POP DUP2 ADD SWAP1 PUSH2 0x2F2E SWAP2 SWAP1 PUSH2 0x3948 JUMP JUMPDEST ISZERO PUSH1 0x40 MLOAD DUP3 PUSH4 0xFFFFFFFF AND PUSH1 0xE0 SHL DUP2 MSTORE PUSH1 0x4 ADD PUSH2 0x2F4B SWAP2 SWAP1 PUSH2 0x4E31 JUMP JUMPDEST PUSH1 0x20 PUSH1 0x40 MLOAD DUP1 DUP4 SUB DUP2 DUP7 GAS DELEGATECALL ISZERO DUP1 ISZERO PUSH2 0x2F66 JUMPI RETURNDATASIZE PUSH0 PUSH0 RETURNDATACOPY RETURNDATASIZE PUSH0 REVERT JUMPDEST POP POP POP POP PUSH1 0x40 MLOAD RETURNDATASIZE PUSH1 0x1F NOT PUSH1 0x1F DUP3 ADD AND DUP3 ADD DUP1 PUSH1 0x40 MSTORE POP DUP2 ADD SWAP1 PUSH2 0x2F8A SWAP2 SWAP1 PUSH2 0x3948 JUMP JUMPDEST POP JUMP JUMPDEST PUSH0 PUSH0 PUSH0 SWAP1 SLOAD SWAP1 PUSH2 0x100 EXP SWAP1 DIV PUSH20 0xFFFFFFFFFFFFFFFFFFFFFFFFFFFFFFFFFFFFFFFF AND PUSH20 0xFFFFFFFFFFFFFFFFFFFFFFFFFFFFFFFFFFFFFFFF AND PUSH0 PUSH1 0x3 DUP2 GT ISZERO PUSH2 0x2FD8 JUMPI PUSH2 0x2FD7 PUSH2 0x370D JUMP JUMPDEST JUMPDEST PUSH1 0x6 PUSH0 SWAP1 SLOAD SWAP1 PUSH2 0x100 EXP SWAP1 DIV PUSH20 0xFFFFFFFFFFFFFFFFFFFFFFFFFFFFFFFFFFFFFFFF AND PUSH1 0x40 MLOAD PUSH1 0x24 ADD PUSH2 0x300B SWAP3 SWAP2 SWAP1 PUSH2 0x4E78 JUMP JUMPDEST PUSH1 0x40 MLOAD PUSH1 0x20 DUP2 DUP4 SUB SUB DUP2 MSTORE SWAP1 PUSH1 0x40 MSTORE PUSH32 0xD530BF1100000000000000000000000000000000000000000000000000000000 PUSH28 0xFFFFFFFFFFFFFFFFFFFFFFFFFFFFFFFFFFFFFFFFFFFFFFFFFFFFFFFF NOT AND PUSH1 0x20 DUP3 ADD DUP1 MLOAD PUSH28 0xFFFFFFFFFFFFFFFFFFFFFFFFFFFFFFFFFFFFFFFFFFFFFFFFFFFFFFFF DUP4 DUP2 DUP4 AND OR DUP4 MSTORE POP POP POP POP PUSH1 0x40 MLOAD PUSH2 0x3095 SWAP2 SWAP1 PUSH2 0x3C9D JUMP JUMPDEST PUSH0 PUSH1 0x40 MLOAD DUP1 DUP4 SUB DUP2 PUSH0 DUP7 GAS CALL SWAP2 POP POP RETURNDATASIZE DUP1 PUSH0 DUP2 EQ PUSH2 0x30CE JUMPI PUSH1 0x40 MLOAD SWAP2 POP PUSH1 0x1F NOT PUSH1 0x3F RETURNDATASIZE ADD AND DUP3 ADD PUSH1 0x40 MSTORE RETURNDATASIZE DUP3 MSTORE RETURNDATASIZE PUSH0 PUSH1 0x20 DUP5 ADD RETURNDATACOPY PUSH2 0x30D3 JUMP JUMPDEST PUSH1 0x60 SWAP2 POP JUMPDEST POP POP SWAP1 POP PUSH20 0x0 PUSH4 0x39DF137F DUP3 ISZERO PUSH1 0x40 MLOAD DUP3 PUSH4 0xFFFFFFFF AND PUSH1 0xE0 SHL DUP2 MSTORE PUSH1 0x4 ADD PUSH2 0x310F SWAP2 SWAP1 PUSH2 0x4F0F JUMP JUMPDEST PUSH1 0x20 PUSH1 0x40 MLOAD DUP1 DUP4 SUB DUP2 DUP7 GAS DELEGATECALL ISZERO DUP1 ISZERO PUSH2 0x312A JUMPI RETURNDATASIZE PUSH0 PUSH0 RETURNDATACOPY RETURNDATASIZE PUSH0 REVERT JUMPDEST POP POP POP POP PUSH1 0x40 MLOAD RETURNDATASIZE PUSH1 0x1F NOT PUSH1 0x1F DUP3 ADD AND DUP3 ADD DUP1 PUSH1 0x40 MSTORE POP DUP2 ADD SWAP1 PUSH2 0x314E SWAP2 SWAP1 PUSH2 0x3948 JUMP JUMPDEST POP POP JUMP JUMPDEST PUSH0 PUSH1 0x2 PUSH0 SWAP1 SLOAD SWAP1 PUSH2 0x100 EXP SWAP1 DIV PUSH20 0xFFFFFFFFFFFFFFFFFFFFFFFFFFFFFFFFFFFFFFFF AND PUSH20 0xFFFFFFFFFFFFFFFFFFFFFFFFFFFFFFFFFFFFFFFF AND PUSH4 0x84FC00BA PUSH0 PUSH0 SWAP1 SLOAD SWAP1 PUSH2 0x100 EXP SWAP1 DIV PUSH20 0xFFFFFFFFFFFFFFFFFFFFFFFFFFFFFFFFFFFFFFFF AND PUSH0 PUSH1 0x6 PUSH0 SWAP1 SLOAD SWAP1 PUSH2 0x100 EXP SWAP1 DIV PUSH20 0xFFFFFFFFFFFFFFFFFFFFFFFFFFFFFFFFFFFFFFFF AND PUSH1 0x40 MLOAD DUP5 PUSH4 0xFFFFFFFF AND PUSH1 0xE0 SHL DUP2 MSTORE PUSH1 0x4 ADD PUSH2 0x31F2 SWAP4 SWAP3 SWAP2 SWAP1 PUSH2 0x37A0 JUMP JUMPDEST PUSH1 0x20 PUSH1 0x40 MLOAD DUP1 DUP4 SUB DUP2 PUSH0 DUP8 GAS CALL ISZERO DUP1 ISZERO PUSH2 0x320E JUMPI RETURNDATASIZE PUSH0 PUSH0 RETURNDATACOPY RETURNDATASIZE PUSH0 REVERT JUMPDEST POP POP POP POP PUSH1 0x40 MLOAD RETURNDATASIZE PUSH1 0x1F NOT PUSH1 0x1F DUP3 ADD AND DUP3 ADD DUP1 PUSH1 0x40 MSTORE POP DUP2 ADD SWAP1 PUSH2 0x3232 SWAP2 SWAP1 PUSH2 0x380C JUMP JUMPDEST SWAP1 POP PUSH20 0x0 PUSH4 0xABCD7960 DUP3 PUSH1 0x2 PUSH1 0x40 MLOAD DUP4 PUSH4 0xFFFFFFFF AND PUSH1 0xE0 SHL DUP2 MSTORE PUSH1 0x4 ADD PUSH2 0x326E SWAP3 SWAP2 SWAP1 PUSH2 0x4FBE JUMP JUMPDEST PUSH1 0x20 PUSH1 0x40 MLOAD DUP1 DUP4 SUB DUP2 DUP7 GAS DELEGATECALL ISZERO DUP1 ISZERO PUSH2 0x3289 JUMPI RETURNDATASIZE PUSH0 PUSH0 RETURNDATACOPY RETURNDATASIZE PUSH0 REVERT JUMPDEST POP POP POP POP PUSH1 0x40 MLOAD RETURNDATASIZE PUSH1 0x1F NOT PUSH1 0x1F DUP3 ADD AND DUP3 ADD DUP1 PUSH1 0x40 MSTORE POP DUP2 ADD SWAP1 PUSH2 0x32AD SWAP2 SWAP1 PUSH2 0x3948 JUMP JUMPDEST POP PUSH1 0x2 PUSH0 SWAP1 SLOAD SWAP1 PUSH2 0x100 EXP SWAP1 DIV PUSH20 0xFFFFFFFFFFFFFFFFFFFFFFFFFFFFFFFFFFFFFFFF AND PUSH20 0xFFFFFFFFFFFFFFFFFFFFFFFFFFFFFFFFFFFFFFFF AND PUSH4 0x5DF277FA PUSH0 PUSH0 SWAP1 SLOAD SWAP1 PUSH2 0x100 EXP SWAP1 DIV PUSH20 0xFFFFFFFFFFFFFFFFFFFFFFFFFFFFFFFFFFFFFFFF AND PUSH1 0x2 PUSH1 0x40 MLOAD DUP4 PUSH4 0xFFFFFFFF AND PUSH1 0xE0 SHL DUP2 MSTORE PUSH1 0x4 ADD PUSH2 0x332B SWAP3 SWAP2 SWAP1 PUSH2 0x5007 JUMP JUMPDEST PUSH1 0x20 PUSH1 0x40 MLOAD DUP1 DUP4 SUB DUP2 PUSH0 DUP8 GAS CALL ISZERO DUP1 ISZERO PUSH2 0x3347 JUMPI RETURNDATASIZE PUSH0 PUSH0 RETURNDATACOPY RETURNDATASIZE PUSH0 REVERT JUMPDEST POP POP POP POP PUSH1 0x40 MLOAD RETURNDATASIZE PUSH1 0x1F NOT PUSH1 0x1F DUP3 ADD AND DUP3 ADD DUP1 PUSH1 0x40 MSTORE POP DUP2 ADD SWAP1 PUSH2 0x336B SWAP2 SWAP1 PUSH2 0x3948 JUMP JUMPDEST POP PUSH1 0x3 PUSH0 SWAP1 SLOAD SWAP1 PUSH2 0x100 EXP SWAP1 DIV PUSH20 0xFFFFFFFFFFFFFFFFFFFFFFFFFFFFFFFFFFFFFFFF AND PUSH20 0xFFFFFFFFFFFFFFFFFFFFFFFFFFFFFFFFFFFFFFFF AND PUSH4 0x5DF277FA PUSH0 PUSH0 SWAP1 SLOAD SWAP1 PUSH2 0x100 EXP SWAP1 DIV PUSH20 0xFFFFFFFFFFFFFFFFFFFFFFFFFFFFFFFFFFFFFFFF AND PUSH1 0x2 PUSH1 0x40 MLOAD DUP4 PUSH4 0xFFFFFFFF AND PUSH1 0xE0 SHL DUP2 MSTORE PUSH1 0x4 ADD PUSH2 0x33E9 SWAP3 SWAP2 SWAP1 PUSH2 0x5007 JUMP JUMPDEST PUSH1 0x20 PUSH1 0x40 MLOAD DUP1 DUP4 SUB DUP2 PUSH0 DUP8 GAS CALL ISZERO DUP1 ISZERO PUSH2 0x3405 JUMPI RETURNDATASIZE PUSH0 PUSH0 RETURNDATACOPY RETURNDATASIZE PUSH0 REVERT JUMPDEST POP POP POP POP PUSH1 0x40 MLOAD RETURNDATASIZE PUSH1 0x1F NOT PUSH1 0x1F DUP3 ADD AND DUP3 ADD DUP1 PUSH1 0x40 MSTORE POP DUP2 ADD SWAP1 PUSH2 0x3429 SWAP2 SWAP1 PUSH2 0x3948 JUMP JUMPDEST POP PUSH0 PUSH0 PUSH0 PUSH0 SWAP1 SLOAD SWAP1 PUSH2 0x100 EXP SWAP1 DIV PUSH20 0xFFFFFFFFFFFFFFFFFFFFFFFFFFFFFFFFFFFFFFFF AND PUSH20 0xFFFFFFFFFFFFFFFFFFFFFFFFFFFFFFFFFFFFFFFF AND PUSH4 0x3B4D01A7 PUSH1 0x2 PUSH1 0x40 MLOAD DUP3 PUSH4 0xFFFFFFFF AND PUSH1 0xE0 SHL DUP2 MSTORE PUSH1 0x4 ADD PUSH2 0x3486 SWAP2 SWAP1 PUSH2 0x502E JUMP JUMPDEST PUSH1 0xA0 PUSH1 0x40 MLOAD DUP1 DUP4 SUB DUP2 DUP7 GAS STATICCALL ISZERO DUP1 ISZERO PUSH2 0x34A1 JUMPI RETURNDATASIZE PUSH0 PUSH0 RETURNDATACOPY RETURNDATASIZE PUSH0 REVERT JUMPDEST POP POP POP POP PUSH1 0x40 MLOAD RETURNDATASIZE PUSH1 0x1F NOT PUSH1 0x1F DUP3 ADD AND DUP3 ADD DUP1 PUSH1 0x40 MSTORE POP DUP2 ADD SWAP1 PUSH2 0x34C5 SWAP2 SWAP1 PUSH2 0x41B1 JUMP JUMPDEST POP SWAP4 POP SWAP4 POP POP POP PUSH0 PUSH0 PUSH0 SWAP1 SLOAD SWAP1 PUSH2 0x100 EXP SWAP1 DIV PUSH20 0xFFFFFFFFFFFFFFFFFFFFFFFFFFFFFFFFFFFFFFFF AND PUSH20 0xFFFFFFFFFFFFFFFFFFFFFFFFFFFFFFFFFFFFFFFF AND PUSH4 0x8E2767EF PUSH1 0x2 PUSH1 0x40 MLOAD DUP3 PUSH4 0xFFFFFFFF AND PUSH1 0xE0 SHL DUP2 MSTORE PUSH1 0x4 ADD PUSH2 0x3527 SWAP2 SWAP1 PUSH2 0x502E JUMP JUMPDEST PUSH1 0x20 PUSH1 0x40 MLOAD DUP1 DUP4 SUB DUP2 DUP7 GAS STATICCALL ISZERO DUP1 ISZERO PUSH2 0x3542 JUMPI RETURNDATASIZE PUSH0 PUSH0 RETURNDATACOPY RETURNDATASIZE PUSH0 REVERT JUMPDEST POP POP POP POP PUSH1 0x40 MLOAD RETURNDATASIZE PUSH1 0x1F NOT PUSH1 0x1F DUP3 ADD AND DUP3 ADD DUP1 PUSH1 0x40 MSTORE POP DUP2 ADD SWAP1 PUSH2 0x3566 SWAP2 SWAP1 PUSH2 0x380C JUMP JUMPDEST SWAP1 POP PUSH20 0x0 PUSH4 0xABCD7960 DUP3 PUSH1 0x1 PUSH1 0x2 DUP7 PUSH2 0x3592 SWAP2 SWAP1 PUSH2 0x50A1 JUMP JUMPDEST PUSH2 0x359C SWAP2 SWAP1 PUSH2 0x50D1 JUMP JUMPDEST PUSH1 0x40 MLOAD DUP4 PUSH4 0xFFFFFFFF AND PUSH1 0xE0 SHL DUP2 MSTORE PUSH1 0x4 ADD PUSH2 0x35B9 SWAP3 SWAP2 SWAP1 PUSH2 0x5174 JUMP JUMPDEST PUSH1 0x20 PUSH1 0x40 MLOAD DUP1 DUP4 SUB DUP2 DUP7 GAS DELEGATECALL ISZERO DUP1 ISZERO PUSH2 0x35D4 JUMPI RETURNDATASIZE PUSH0 PUSH0 RETURNDATACOPY RETURNDATASIZE PUSH0 REVERT JUMPDEST POP POP POP POP PUSH1 0x40 MLOAD RETURNDATASIZE PUSH1 0x1F NOT PUSH1 0x1F DUP3 ADD AND DUP3 ADD DUP1 PUSH1 0x40 MSTORE POP DUP2 ADD SWAP1 PUSH2 0x35F8 SWAP2 SWAP1 PUSH2 0x3948 JUMP JUMPDEST POP PUSH20 0x0 PUSH4 0xABCD7960 DUP5 PUSH1 0x2 PUSH1 0x40 MLOAD DUP4 PUSH4 0xFFFFFFFF AND PUSH1 0xE0 SHL DUP2 MSTORE PUSH1 0x4 ADD PUSH2 0x3633 SWAP3 SWAP2 SWAP1 PUSH2 0x521E JUMP JUMPDEST PUSH1 0x20 PUSH1 0x40 MLOAD DUP1 DUP4 SUB DUP2 DUP7 GAS DELEGATECALL ISZERO DUP1 ISZERO PUSH2 0x364E JUMPI RETURNDATASIZE PUSH0 PUSH0 RETURNDATACOPY RETURNDATASIZE PUSH0 REVERT JUMPDEST POP POP POP POP PUSH1 0x40 MLOAD RETURNDATASIZE PUSH1 0x1F NOT PUSH1 0x1F DUP3 ADD AND DUP3 ADD DUP1 PUSH1 0x40 MSTORE POP DUP2 ADD SWAP1 PUSH2 0x3672 SWAP2 SWAP1 PUSH2 0x3948 JUMP JUMPDEST POP POP POP POP POP JUMP JUMPDEST PUSH2 0x6D2 DUP1 PUSH2 0x5259 DUP4 CODECOPY ADD SWAP1 JUMP JUMPDEST PUSH2 0x2097 DUP1 PUSH2 0x592B DUP4 CODECOPY ADD SWAP1 JUMP JUMPDEST PUSH0 PUSH20 0xFFFFFFFFFFFFFFFFFFFFFFFFFFFFFFFFFFFFFFFF DUP3 AND SWAP1 POP SWAP2 SWAP1 POP JUMP JUMPDEST PUSH0 DUP2 SWAP1 POP SWAP2 SWAP1 POP JUMP JUMPDEST PUSH0 PUSH2 0x36D5 PUSH2 0x36D0 PUSH2 0x36CB DUP5 PUSH2 0x3693 JUMP JUMPDEST PUSH2 0x36B2 JUMP JUMPDEST PUSH2 0x3693 JUMP JUMPDEST SWAP1 POP SWAP2 SWAP1 POP JUMP JUMPDEST PUSH0 PUSH2 0x36E6 DUP3 PUSH2 0x36BB JUMP JUMPDEST SWAP1 POP SWAP2 SWAP1 POP JUMP JUMPDEST PUSH0 PUSH2 0x36F7 DUP3 PUSH2 0x36DC JUMP JUMPDEST SWAP1 POP SWAP2 SWAP1 POP JUMP JUMPDEST PUSH2 0x3707 DUP2 PUSH2 0x36ED JUMP JUMPDEST DUP3 MSTORE POP POP JUMP JUMPDEST PUSH32 0x4E487B7100000000000000000000000000000000000000000000000000000000 PUSH0 MSTORE PUSH1 0x21 PUSH1 0x4 MSTORE PUSH1 0x24 PUSH0 REVERT JUMPDEST PUSH1 0x4 DUP2 LT PUSH2 0x374B JUMPI PUSH2 0x374A PUSH2 0x370D JUMP JUMPDEST JUMPDEST POP JUMP JUMPDEST PUSH0 DUP2 SWAP1 POP PUSH2 0x375B DUP3 PUSH2 0x373A JUMP JUMPDEST SWAP2 SWAP1 POP JUMP JUMPDEST PUSH0 PUSH2 0x376A DUP3 PUSH2 0x374E JUMP JUMPDEST SWAP1 POP SWAP2 SWAP1 POP JUMP JUMPDEST PUSH2 0x377A DUP2 PUSH2 0x3760 JUMP JUMPDEST DUP3 MSTORE POP POP JUMP JUMPDEST PUSH0 PUSH2 0x378A DUP3 PUSH2 0x3693 JUMP JUMPDEST SWAP1 POP SWAP2 SWAP1 POP JUMP JUMPDEST PUSH2 0x379A DUP2 PUSH2 0x3780 JUMP JUMPDEST DUP3 MSTORE POP POP JUMP JUMPDEST PUSH0 PUSH1 0x60 DUP3 ADD SWAP1 POP PUSH2 0x37B3 PUSH0 DUP4 ADD DUP7 PUSH2 0x36FE JUMP JUMPDEST PUSH2 0x37C0 PUSH1 0x20 DUP4 ADD DUP6 PUSH2 0x3771 JUMP JUMPDEST PUSH2 0x37CD PUSH1 0x40 DUP4 ADD DUP5 PUSH2 0x3791 JUMP JUMPDEST SWAP5 SWAP4 POP POP POP POP JUMP JUMPDEST PUSH0 PUSH0 REVERT JUMPDEST PUSH0 DUP2 SWAP1 POP SWAP2 SWAP1 POP JUMP JUMPDEST PUSH2 0x37EB DUP2 PUSH2 0x37D9 JUMP JUMPDEST DUP2 EQ PUSH2 0x37F5 JUMPI PUSH0 PUSH0 REVERT JUMPDEST POP JUMP JUMPDEST PUSH0 DUP2 MLOAD SWAP1 POP PUSH2 0x3806 DUP2 PUSH2 0x37E2 JUMP JUMPDEST SWAP3 SWAP2 POP POP JUMP JUMPDEST PUSH0 PUSH1 0x20 DUP3 DUP5 SUB SLT ISZERO PUSH2 0x3821 JUMPI PUSH2 0x3820 PUSH2 0x37D5 JUMP JUMPDEST JUMPDEST PUSH0 PUSH2 0x382E DUP5 DUP3 DUP6 ADD PUSH2 0x37F8 JUMP JUMPDEST SWAP2 POP POP SWAP3 SWAP2 POP POP JUMP JUMPDEST PUSH2 0x3840 DUP2 PUSH2 0x37D9 JUMP JUMPDEST DUP3 MSTORE POP POP JUMP JUMPDEST PUSH0 DUP2 SWAP1 POP SWAP2 SWAP1 POP JUMP JUMPDEST PUSH0 PUSH2 0x3869 PUSH2 0x3864 PUSH2 0x385F DUP5 PUSH2 0x3846 JUMP JUMPDEST PUSH2 0x36B2 JUMP JUMPDEST PUSH2 0x37D9 JUMP JUMPDEST SWAP1 POP SWAP2 SWAP1 POP JUMP JUMPDEST PUSH2 0x3879 DUP2 PUSH2 0x384F JUMP JUMPDEST DUP3 MSTORE POP POP JUMP JUMPDEST PUSH0 DUP3 DUP3 MSTORE PUSH1 0x20 DUP3 ADD SWAP1 POP SWAP3 SWAP2 POP POP JUMP JUMPDEST PUSH32 0x546869732073686F756C642062652070726F706F73616C203500000000000000 PUSH0 DUP3 ADD MSTORE POP JUMP JUMPDEST PUSH0 PUSH2 0x38C3 PUSH1 0x19 DUP4 PUSH2 0x387F JUMP JUMPDEST SWAP2 POP PUSH2 0x38CE DUP3 PUSH2 0x388F JUMP JUMPDEST PUSH1 0x20 DUP3 ADD SWAP1 POP SWAP2 SWAP1 POP JUMP JUMPDEST PUSH0 PUSH1 0x60 DUP3 ADD SWAP1 POP PUSH2 0x38EC PUSH0 DUP4 ADD DUP6 PUSH2 0x3837 JUMP JUMPDEST PUSH2 0x38F9 PUSH1 0x20 DUP4 ADD DUP5 PUSH2 0x3870 JUMP JUMPDEST DUP2 DUP2 SUB PUSH1 0x40 DUP4 ADD MSTORE PUSH2 0x390A DUP2 PUSH2 0x38B7 JUMP JUMPDEST SWAP1 POP SWAP4 SWAP3 POP POP POP JUMP JUMPDEST PUSH0 DUP2 ISZERO ISZERO SWAP1 POP SWAP2 SWAP1 POP JUMP JUMPDEST PUSH2 0x3927 DUP2 PUSH2 0x3913 JUMP JUMPDEST DUP2 EQ PUSH2 0x3931 JUMPI PUSH0 PUSH0 REVERT JUMPDEST POP JUMP JUMPDEST PUSH0 DUP2 MLOAD SWAP1 POP PUSH2 0x3942 DUP2 PUSH2 0x391E JUMP JUMPDEST SWAP3 SWAP2 POP POP JUMP JUMPDEST PUSH0 PUSH1 0x20 DUP3 DUP5 SUB SLT ISZERO PUSH2 0x395D JUMPI PUSH2 0x395C PUSH2 0x37D5 JUMP JUMPDEST JUMPDEST PUSH0 PUSH2 0x396A DUP5 DUP3 DUP6 ADD PUSH2 0x3934 JUMP JUMPDEST SWAP2 POP POP SWAP3 SWAP2 POP POP JUMP JUMPDEST PUSH2 0x397C DUP2 PUSH2 0x384F JUMP JUMPDEST DUP3 MSTORE POP POP JUMP JUMPDEST PUSH0 PUSH1 0x40 DUP3 ADD SWAP1 POP PUSH2 0x3995 PUSH0 DUP4 ADD DUP6 PUSH2 0x36FE JUMP JUMPDEST PUSH2 0x39A2 PUSH1 0x20 DUP4 ADD DUP5 PUSH2 0x3973 JUMP JUMPDEST SWAP4 SWAP3 POP POP POP JUMP JUMPDEST PUSH2 0x39B2 DUP2 PUSH2 0x3913 JUMP JUMPDEST DUP3 MSTORE POP POP JUMP JUMPDEST PUSH32 0x476F7665726E657231206E65657420746F2062652061626C6520746F20616464 PUSH0 DUP3 ADD MSTORE PUSH32 0x206E657720676F7665726E6572206173207468726573686F6C64206973207265 PUSH1 0x20 DUP3 ADD MSTORE PUSH32 0x61636865642E0000000000000000000000000000000000000000000000000000 PUSH1 0x40 DUP3 ADD MSTORE POP JUMP JUMPDEST PUSH0 PUSH2 0x3A38 PUSH1 0x46 DUP4 PUSH2 0x387F JUMP JUMPDEST SWAP2 POP PUSH2 0x3A43 DUP3 PUSH2 0x39B8 JUMP JUMPDEST PUSH1 0x60 DUP3 ADD SWAP1 POP SWAP2 SWAP1 POP JUMP JUMPDEST PUSH0 PUSH1 0x40 DUP3 ADD SWAP1 POP PUSH2 0x3A61 PUSH0 DUP4 ADD DUP5 PUSH2 0x39A9 JUMP JUMPDEST DUP2 DUP2 SUB PUSH1 0x20 DUP4 ADD MSTORE PUSH2 0x3A72 DUP2 PUSH2 0x3A2C JUMP JUMPDEST SWAP1 POP SWAP3 SWAP2 POP POP JUMP JUMPDEST PUSH0 DUP2 SWAP1 POP SWAP2 SWAP1 POP JUMP JUMPDEST PUSH0 PUSH2 0x3A9D PUSH2 0x3A98 PUSH2 0x3A93 DUP5 PUSH2 0x3A7A JUMP JUMPDEST PUSH2 0x36B2 JUMP JUMPDEST PUSH2 0x37D9 JUMP JUMPDEST SWAP1 POP SWAP2 SWAP1 POP JUMP JUMPDEST PUSH2 0x3AAD DUP2 PUSH2 0x3A83 JUMP JUMPDEST DUP3 MSTORE POP POP JUMP JUMPDEST PUSH32 0x4E6F772074686572652073686F756C64206265203420676F7665726E6F727300 PUSH0 DUP3 ADD MSTORE POP JUMP JUMPDEST PUSH0 PUSH2 0x3AE7 PUSH1 0x1F DUP4 PUSH2 0x387F JUMP JUMPDEST SWAP2 POP PUSH2 0x3AF2 DUP3 PUSH2 0x3AB3 JUMP JUMPDEST PUSH1 0x20 DUP3 ADD SWAP1 POP SWAP2 SWAP1 POP JUMP JUMPDEST PUSH0 PUSH1 0x60 DUP3 ADD SWAP1 POP PUSH2 0x3B10 PUSH0 DUP4 ADD DUP6 PUSH2 0x3837 JUMP JUMPDEST PUSH2 0x3B1D PUSH1 0x20 DUP4 ADD DUP5 PUSH2 0x3AA4 JUMP JUMPDEST DUP2 DUP2 SUB PUSH1 0x40 DUP4 ADD MSTORE PUSH2 0x3B2E DUP2 PUSH2 0x3ADB JUMP JUMPDEST SWAP1 POP SWAP4 SWAP3 POP POP POP JUMP JUMPDEST PUSH0 PUSH1 0x20 DUP3 ADD SWAP1 POP PUSH2 0x3B4A PUSH0 DUP4 ADD DUP5 PUSH2 0x3791 JUMP JUMPDEST SWAP3 SWAP2 POP POP JUMP JUMPDEST PUSH32 0x4E6577476F7665726E6F72206E65656420746F20626520696E2074686520676F PUSH0 DUP3 ADD MSTORE PUSH32 0x7665726E6F72206C697374000000000000000000000000000000000000000000 PUSH1 0x20 DUP3 ADD MSTORE POP JUMP JUMPDEST PUSH0 PUSH2 0x3BAA PUSH1 0x2B DUP4 PUSH2 0x387F JUMP JUMPDEST SWAP2 POP PUSH2 0x3BB5 DUP3 PUSH2 0x3B50 JUMP JUMPDEST PUSH1 0x40 DUP3 ADD SWAP1 POP SWAP2 SWAP1 POP JUMP JUMPDEST PUSH0 PUSH1 0x40 DUP3 ADD SWAP1 POP PUSH2 0x3BD3 PUSH0 DUP4 ADD DUP5 PUSH2 0x39A9 JUMP JUMPDEST DUP2 DUP2 SUB PUSH1 0x20 DUP4 ADD MSTORE PUSH2 0x3BE4 DUP2 PUSH2 0x3B9E JUMP JUMPDEST SWAP1 POP SWAP3 SWAP2 POP POP JUMP JUMPDEST PUSH0 DUP2 SWAP1 POP SWAP2 SWAP1 POP JUMP JUMPDEST PUSH0 PUSH2 0xFFFF DUP3 AND SWAP1 POP SWAP2 SWAP1 POP JUMP JUMPDEST PUSH0 PUSH2 0x3C1C PUSH2 0x3C17 PUSH2 0x3C12 DUP5 PUSH2 0x3BEC JUMP JUMPDEST PUSH2 0x36B2 JUMP JUMPDEST PUSH2 0x3BF5 JUMP JUMPDEST SWAP1 POP SWAP2 SWAP1 POP JUMP JUMPDEST PUSH2 0x3C2C DUP2 PUSH2 0x3C02 JUMP JUMPDEST DUP3 MSTORE POP POP JUMP JUMPDEST PUSH0 PUSH1 0x20 DUP3 ADD SWAP1 POP PUSH2 0x3C45 PUSH0 DUP4 ADD DUP5 PUSH2 0x3C23 JUMP JUMPDEST SWAP3 SWAP2 POP POP JUMP JUMPDEST PUSH0 DUP2 MLOAD SWAP1 POP SWAP2 SWAP1 POP JUMP JUMPDEST PUSH0 DUP2 SWAP1 POP SWAP3 SWAP2 POP POP JUMP JUMPDEST DUP3 DUP2 DUP4 MCOPY PUSH0 DUP4 DUP4 ADD MSTORE POP POP POP JUMP JUMPDEST PUSH0 PUSH2 0x3C77 DUP3 PUSH2 0x3C4B JUMP JUMPDEST PUSH2 0x3C81 DUP2 DUP6 PUSH2 0x3C55 JUMP JUMPDEST SWAP4 POP PUSH2 0x3C91 DUP2 DUP6 PUSH1 0x20 DUP7 ADD PUSH2 0x3C5F JUMP JUMPDEST DUP1 DUP5 ADD SWAP2 POP POP SWAP3 SWAP2 POP POP JUMP JUMPDEST PUSH0 PUSH2 0x3CA8 DUP3 DUP5 PUSH2 0x3C6D JUMP JUMPDEST SWAP2 POP DUP2 SWAP1 POP SWAP3 SWAP2 POP POP JUMP JUMPDEST PUSH32 0x5765206D757374206E6F742062652061626C6520746F2067657420616E20696E PUSH0 DUP3 ADD MSTORE PUSH32 0x76616C69642070726F706F73616C207769746820696E76616C69642069642E00 PUSH1 0x20 DUP3 ADD MSTORE POP JUMP JUMPDEST PUSH0 PUSH2 0x3D0D PUSH1 0x3F DUP4 PUSH2 0x387F JUMP JUMPDEST SWAP2 POP PUSH2 0x3D18 DUP3 PUSH2 0x3CB3 JUMP JUMPDEST PUSH1 0x40 DUP3 ADD SWAP1 POP SWAP2 SWAP1 POP JUMP JUMPDEST PUSH0 PUSH1 0x40 DUP3 ADD SWAP1 POP PUSH2 0x3D36 PUSH0 DUP4 ADD DUP5 PUSH2 0x39A9 JUMP JUMPDEST DUP2 DUP2 SUB PUSH1 0x20 DUP4 ADD MSTORE PUSH2 0x3D47 DUP2 PUSH2 0x3D01 JUMP JUMPDEST SWAP1 POP SWAP3 SWAP2 POP POP JUMP JUMPDEST PUSH0 PUSH2 0x3D69 PUSH2 0x3D64 PUSH2 0x3D5F DUP5 PUSH2 0x3BEC JUMP JUMPDEST PUSH2 0x36B2 JUMP JUMPDEST PUSH2 0x37D9 JUMP JUMPDEST SWAP1 POP SWAP2 SWAP1 POP JUMP JUMPDEST PUSH2 0x3D79 DUP2 PUSH2 0x3D4F JUMP JUMPDEST DUP3 MSTORE POP POP JUMP JUMPDEST PUSH0 PUSH1 0x40 DUP3 ADD SWAP1 POP PUSH2 0x3D92 PUSH0 DUP4 ADD DUP6 PUSH2 0x36FE JUMP JUMPDEST PUSH2 0x3D9F PUSH1 0x20 DUP4 ADD DUP5 PUSH2 0x3D70 JUMP JUMPDEST SWAP4 SWAP3 POP POP POP JUMP JUMPDEST PUSH32 0x53686F756C64206E6F742062652061626C6520746F20766F7465206F6E206120 PUSH0 DUP3 ADD MSTORE PUSH32 0x6E6F6E206578697374656E742070726F706F73616C0000000000000000000000 PUSH1 0x20 DUP3 ADD MSTORE POP JUMP JUMPDEST PUSH0 PUSH2 0x3E00 PUSH1 0x35 DUP4 PUSH2 0x387F JUMP JUMPDEST SWAP2 POP PUSH2 0x3E0B DUP3 PUSH2 0x3DA6 JUMP JUMPDEST PUSH1 0x40 DUP3 ADD SWAP1 POP SWAP2 SWAP1 POP JUMP JUMPDEST PUSH0 PUSH1 0x40 DUP3 ADD SWAP1 POP PUSH2 0x3E29 PUSH0 DUP4 ADD DUP5 PUSH2 0x39A9 JUMP JUMPDEST DUP2 DUP2 SUB PUSH1 0x20 DUP4 ADD MSTORE PUSH2 0x3E3A DUP2 PUSH2 0x3DF4 JUMP JUMPDEST SWAP1 POP SWAP3 SWAP2 POP POP JUMP JUMPDEST PUSH0 DUP2 SWAP1 POP SWAP2 SWAP1 POP JUMP JUMPDEST PUSH0 PUSH2 0x3E65 PUSH2 0x3E60 PUSH2 0x3E5B DUP5 PUSH2 0x3E42 JUMP JUMPDEST PUSH2 0x36B2 JUMP JUMPDEST PUSH2 0x37D9 JUMP JUMPDEST SWAP1 POP SWAP2 SWAP1 POP JUMP JUMPDEST PUSH2 0x3E75 DUP2 PUSH2 0x3E4B JUMP JUMPDEST DUP3 MSTORE POP POP JUMP JUMPDEST PUSH32 0x46697273742070726F706F73616C204944206E65656420746F20626520300000 PUSH0 DUP3 ADD MSTORE POP JUMP JUMPDEST PUSH0 PUSH2 0x3EAF PUSH1 0x1E DUP4 PUSH2 0x387F JUMP JUMPDEST SWAP2 POP PUSH2 0x3EBA DUP3 PUSH2 0x3E7B JUMP JUMPDEST PUSH1 0x20 DUP3 ADD SWAP1 POP SWAP2 SWAP1 POP JUMP JUMPDEST PUSH0 PUSH1 0x60 DUP3 ADD SWAP1 POP PUSH2 0x3ED8 PUSH0 DUP4 ADD DUP6 PUSH2 0x3837 JUMP JUMPDEST PUSH2 0x3EE5 PUSH1 0x20 DUP4 ADD DUP5 PUSH2 0x3E6C JUMP JUMPDEST DUP2 DUP2 SUB PUSH1 0x40 DUP4 ADD MSTORE PUSH2 0x3EF6 DUP2 PUSH2 0x3EA3 JUMP JUMPDEST SWAP1 POP SWAP4 SWAP3 POP POP POP JUMP JUMPDEST PUSH0 DUP2 SWAP1 POP SWAP2 SWAP1 POP JUMP JUMPDEST PUSH0 PUSH2 0x3F22 PUSH2 0x3F1D PUSH2 0x3F18 DUP5 PUSH2 0x3EFF JUMP JUMPDEST PUSH2 0x36B2 JUMP JUMPDEST PUSH2 0x37D9 JUMP JUMPDEST SWAP1 POP SWAP2 SWAP1 POP JUMP JUMPDEST PUSH2 0x3F32 DUP2 PUSH2 0x3F08 JUMP JUMPDEST DUP3 MSTORE POP POP JUMP JUMPDEST PUSH32 0x4E756D626572206F662070726F706F73616C73206E65656420746F2062652031 PUSH0 DUP3 ADD MSTORE POP JUMP JUMPDEST PUSH0 PUSH2 0x3F6C PUSH1 0x20 DUP4 PUSH2 0x387F JUMP JUMPDEST SWAP2 POP PUSH2 0x3F77 DUP3 PUSH2 0x3F38 JUMP JUMPDEST PUSH1 0x20 DUP3 ADD SWAP1 POP SWAP2 SWAP1 POP JUMP JUMPDEST PUSH0 PUSH1 0x60 DUP3 ADD SWAP1 POP PUSH2 0x3F95 PUSH0 DUP4 ADD DUP6 PUSH2 0x3837 JUMP JUMPDEST PUSH2 0x3FA2 PUSH1 0x20 DUP4 ADD DUP5 PUSH2 0x3F29 JUMP JUMPDEST DUP2 DUP2 SUB PUSH1 0x40 DUP4 ADD MSTORE PUSH2 0x3FB3 DUP2 PUSH2 0x3F60 JUMP JUMPDEST SWAP1 POP SWAP4 SWAP3 POP POP POP JUMP JUMPDEST PUSH0 DUP2 SWAP1 POP SWAP2 SWAP1 POP JUMP JUMPDEST PUSH0 PUSH2 0x3FDF PUSH2 0x3FDA PUSH2 0x3FD5 DUP5 PUSH2 0x3FBC JUMP JUMPDEST PUSH2 0x36B2 JUMP JUMPDEST PUSH2 0x37D9 JUMP JUMPDEST SWAP1 POP SWAP2 SWAP1 POP JUMP JUMPDEST PUSH2 0x3FEF DUP2 PUSH2 0x3FC5 JUMP JUMPDEST DUP3 MSTORE POP POP JUMP JUMPDEST PUSH32 0x546869732073686F756C642062652070726F706F73616C203300000000000000 PUSH0 DUP3 ADD MSTORE POP JUMP JUMPDEST PUSH0 PUSH2 0x4029 PUSH1 0x19 DUP4 PUSH2 0x387F JUMP JUMPDEST SWAP2 POP PUSH2 0x4034 DUP3 PUSH2 0x3FF5 JUMP JUMPDEST PUSH1 0x20 DUP3 ADD SWAP1 POP SWAP2 SWAP1 POP JUMP JUMPDEST PUSH0 PUSH1 0x60 DUP3 ADD SWAP1 POP PUSH2 0x4052 PUSH0 DUP4 ADD DUP6 PUSH2 0x3837 JUMP JUMPDEST PUSH2 0x405F PUSH1 0x20 DUP4 ADD DUP5 PUSH2 0x3FE6 JUMP JUMPDEST DUP2 DUP2 SUB PUSH1 0x40 DUP4 ADD MSTORE PUSH2 0x4070 DUP2 PUSH2 0x401D JUMP JUMPDEST SWAP1 POP SWAP4 SWAP3 POP POP POP JUMP JUMPDEST PUSH2 0x4082 DUP2 PUSH2 0x3FC5 JUMP JUMPDEST DUP3 MSTORE POP POP JUMP JUMPDEST PUSH0 PUSH1 0x40 DUP3 ADD SWAP1 POP PUSH2 0x409B PUSH0 DUP4 ADD DUP6 PUSH2 0x36FE JUMP JUMPDEST PUSH2 0x40A8 PUSH1 0x20 DUP4 ADD DUP5 PUSH2 0x4079 JUMP JUMPDEST SWAP4 SWAP3 POP POP POP JUMP JUMPDEST PUSH32 0x476F7665726E6F7231206D7573742062652061626C6520746F20657865637574 PUSH0 DUP3 ADD MSTORE PUSH32 0x65206166746572207265616368696E67207468726573686F6C642E0000000000 PUSH1 0x20 DUP3 ADD MSTORE POP JUMP JUMPDEST PUSH0 PUSH2 0x4109 PUSH1 0x3B DUP4 PUSH2 0x387F JUMP JUMPDEST SWAP2 POP PUSH2 0x4114 DUP3 PUSH2 0x40AF JUMP JUMPDEST PUSH1 0x40 DUP3 ADD SWAP1 POP SWAP2 SWAP1 POP JUMP JUMPDEST PUSH0 PUSH1 0x40 DUP3 ADD SWAP1 POP PUSH2 0x4132 PUSH0 DUP4 ADD DUP5 PUSH2 0x39A9 JUMP JUMPDEST DUP2 DUP2 SUB PUSH1 0x20 DUP4 ADD MSTORE PUSH2 0x4143 DUP2 PUSH2 0x40FD JUMP JUMPDEST SWAP1 POP SWAP3 SWAP2 POP POP JUMP JUMPDEST PUSH0 PUSH1 0x20 DUP3 ADD SWAP1 POP PUSH2 0x415E PUSH0 DUP4 ADD DUP5 PUSH2 0x4079 JUMP JUMPDEST SWAP3 SWAP2 POP POP JUMP JUMPDEST PUSH1 0x4 DUP2 LT PUSH2 0x4170 JUMPI PUSH0 PUSH0 REVERT JUMPDEST POP JUMP JUMPDEST PUSH0 DUP2 MLOAD SWAP1 POP PUSH2 0x4181 DUP2 PUSH2 0x4164 JUMP JUMPDEST SWAP3 SWAP2 POP POP JUMP JUMPDEST PUSH2 0x4190 DUP2 PUSH2 0x3780 JUMP JUMPDEST DUP2 EQ PUSH2 0x419A JUMPI PUSH0 PUSH0 REVERT JUMPDEST POP JUMP JUMPDEST PUSH0 DUP2 MLOAD SWAP1 POP PUSH2 0x41AB DUP2 PUSH2 0x4187 JUMP JUMPDEST SWAP3 SWAP2 POP POP JUMP JUMPDEST PUSH0 PUSH0 PUSH0 PUSH0 PUSH0 PUSH1 0xA0 DUP7 DUP9 SUB SLT ISZERO PUSH2 0x41CA JUMPI PUSH2 0x41C9 PUSH2 0x37D5 JUMP JUMPDEST JUMPDEST PUSH0 PUSH2 0x41D7 DUP9 DUP3 DUP10 ADD PUSH2 0x4173 JUMP JUMPDEST SWAP6 POP POP PUSH1 0x20 PUSH2 0x41E8 DUP9 DUP3 DUP10 ADD PUSH2 0x419D JUMP JUMPDEST SWAP5 POP POP PUSH1 0x40 PUSH2 0x41F9 DUP9 DUP3 DUP10 ADD PUSH2 0x37F8 JUMP JUMPDEST SWAP4 POP POP PUSH1 0x60 PUSH2 0x420A DUP9 DUP3 DUP10 ADD PUSH2 0x37F8 JUMP JUMPDEST SWAP3 POP POP PUSH1 0x80 PUSH2 0x421B DUP9 DUP3 DUP10 ADD PUSH2 0x3934 JUMP JUMPDEST SWAP2 POP POP SWAP3 SWAP6 POP SWAP3 SWAP6 SWAP1 SWAP4 POP JUMP JUMPDEST PUSH32 0x50726F706F73616C2033277320657865637574656420666C61672073686F756C PUSH0 DUP3 ADD MSTORE PUSH32 0x642062652073657420746F207472756500000000000000000000000000000000 PUSH1 0x20 DUP3 ADD MSTORE POP JUMP JUMPDEST PUSH0 PUSH2 0x4282 PUSH1 0x30 DUP4 PUSH2 0x387F JUMP JUMPDEST SWAP2 POP PUSH2 0x428D DUP3 PUSH2 0x4228 JUMP JUMPDEST PUSH1 0x40 DUP3 ADD SWAP1 POP SWAP2 SWAP1 POP JUMP JUMPDEST PUSH0 PUSH1 0x40 DUP3 ADD SWAP1 POP PUSH2 0x42AB PUSH0 DUP4 ADD DUP5 PUSH2 0x39A9 JUMP JUMPDEST DUP2 DUP2 SUB PUSH1 0x20 DUP4 ADD MSTORE PUSH2 0x42BC DUP2 PUSH2 0x4276 JUMP JUMPDEST SWAP1 POP SWAP3 SWAP2 POP POP JUMP JUMPDEST PUSH32 0x546869732073686F756C642062652070726F706F73616C203100000000000000 PUSH0 DUP3 ADD MSTORE POP JUMP JUMPDEST PUSH0 PUSH2 0x42F8 PUSH1 0x19 DUP4 PUSH2 0x387F JUMP JUMPDEST SWAP2 POP PUSH2 0x4303 DUP3 PUSH2 0x42C4 JUMP JUMPDEST PUSH1 0x20 DUP3 ADD SWAP1 POP SWAP2 SWAP1 POP JUMP JUMPDEST PUSH0 PUSH1 0x60 DUP3 ADD SWAP1 POP PUSH2 0x4321 PUSH0 DUP4 ADD DUP6 PUSH2 0x3837 JUMP JUMPDEST PUSH2 0x432E PUSH1 0x20 DUP4 ADD DUP5 PUSH2 0x3F29 JUMP JUMPDEST DUP2 DUP2 SUB PUSH1 0x40 DUP4 ADD MSTORE PUSH2 0x433F DUP2 PUSH2 0x42EC JUMP JUMPDEST SWAP1 POP SWAP4 SWAP3 POP POP POP JUMP JUMPDEST PUSH2 0x4351 DUP2 PUSH2 0x3F08 JUMP JUMPDEST DUP3 MSTORE POP POP JUMP JUMPDEST PUSH0 PUSH1 0x40 DUP3 ADD SWAP1 POP PUSH2 0x436A PUSH0 DUP4 ADD DUP6 PUSH2 0x36FE JUMP JUMPDEST PUSH2 0x4377 PUSH1 0x20 DUP4 ADD DUP5 PUSH2 0x4348 JUMP JUMPDEST SWAP4 SWAP3 POP POP POP JUMP JUMPDEST PUSH32 0x476F7665726E6F7231206D7573742062652061626C6520746F20766F74650000 PUSH0 DUP3 ADD MSTORE POP JUMP JUMPDEST PUSH0 PUSH2 0x43B2 PUSH1 0x1E DUP4 PUSH2 0x387F JUMP JUMPDEST SWAP2 POP PUSH2 0x43BD DUP3 PUSH2 0x437E JUMP JUMPDEST PUSH1 0x20 DUP3 ADD SWAP1 POP SWAP2 SWAP1 POP JUMP JUMPDEST PUSH0 PUSH1 0x40 DUP3 ADD SWAP1 POP PUSH2 0x43DB PUSH0 DUP4 ADD DUP5 PUSH2 0x39A9 JUMP JUMPDEST DUP2 DUP2 SUB PUSH1 0x20 DUP4 ADD MSTORE PUSH2 0x43EC DUP2 PUSH2 0x43A6 JUMP JUMPDEST SWAP1 POP SWAP3 SWAP2 POP POP JUMP JUMPDEST PUSH0 PUSH1 0x40 DUP3 ADD SWAP1 POP PUSH2 0x4407 PUSH0 DUP4 ADD DUP6 PUSH2 0x4348 JUMP JUMPDEST PUSH2 0x4414 PUSH1 0x20 DUP4 ADD DUP5 PUSH2 0x3791 JUMP JUMPDEST SWAP4 SWAP3 POP POP POP JUMP JUMPDEST PUSH32 0x4E6F7720476F7665726E6F7231206E65656420746F206265206D61726B656420 PUSH0 DUP3 ADD MSTORE PUSH32 0x617320766F746564000000000000000000000000000000000000000000000000 PUSH1 0x20 DUP3 ADD MSTORE POP JUMP JUMPDEST PUSH0 PUSH2 0x4475 PUSH1 0x28 DUP4 PUSH2 0x387F JUMP JUMPDEST SWAP2 POP PUSH2 0x4480 DUP3 PUSH2 0x441B JUMP JUMPDEST PUSH1 0x40 DUP3 ADD SWAP1 POP SWAP2 SWAP1 POP JUMP JUMPDEST PUSH0 PUSH1 0x40 DUP3 ADD SWAP1 POP PUSH2 0x449E PUSH0 DUP4 ADD DUP5 PUSH2 0x39A9 JUMP JUMPDEST DUP2 DUP2 SUB PUSH1 0x20 DUP4 ADD MSTORE PUSH2 0x44AF DUP2 PUSH2 0x4469 JUMP JUMPDEST SWAP1 POP SWAP3 SWAP2 POP POP JUMP JUMPDEST PUSH32 0x476F7665726E6F723220616C736F206D7573742062652061626C6520746F2076 PUSH0 DUP3 ADD MSTORE PUSH32 0x6F74650000000000000000000000000000000000000000000000000000000000 PUSH1 0x20 DUP3 ADD MSTORE POP JUMP JUMPDEST PUSH0 PUSH2 0x4511 PUSH1 0x23 DUP4 PUSH2 0x387F JUMP JUMPDEST SWAP2 POP PUSH2 0x451C DUP3 PUSH2 0x44B7 JUMP JUMPDEST PUSH1 0x40 DUP3 ADD SWAP1 POP SWAP2 SWAP1 POP JUMP JUMPDEST PUSH0 PUSH1 0x40 DUP3 ADD SWAP1 POP PUSH2 0x453A PUSH0 DUP4 ADD DUP5 PUSH2 0x39A9 JUMP JUMPDEST DUP2 DUP2 SUB PUSH1 0x20 DUP4 ADD MSTORE PUSH2 0x454B DUP2 PUSH2 0x4505 JUMP JUMPDEST SWAP1 POP SWAP3 SWAP2 POP POP JUMP JUMPDEST PUSH32 0x476F7665726E6F7232206D757374206E6F742062652061626C6520746F20766F PUSH0 DUP3 ADD MSTORE PUSH32 0x7465207477696365000000000000000000000000000000000000000000000000 PUSH1 0x20 DUP3 ADD MSTORE POP JUMP JUMPDEST PUSH0 PUSH2 0x45AD PUSH1 0x28 DUP4 PUSH2 0x387F JUMP JUMPDEST SWAP2 POP PUSH2 0x45B8 DUP3 PUSH2 0x4553 JUMP JUMPDEST PUSH1 0x40 DUP3 ADD SWAP1 POP SWAP2 SWAP1 POP JUMP JUMPDEST PUSH0 PUSH1 0x40 DUP3 ADD SWAP1 POP PUSH2 0x45D6 PUSH0 DUP4 ADD DUP5 PUSH2 0x39A9 JUMP JUMPDEST DUP2 DUP2 SUB PUSH1 0x20 DUP4 ADD MSTORE PUSH2 0x45E7 DUP2 PUSH2 0x45A1 JUMP JUMPDEST SWAP1 POP SWAP3 SWAP2 POP POP JUMP JUMPDEST PUSH0 DUP2 SWAP1 POP SWAP2 SWAP1 POP JUMP JUMPDEST PUSH0 PUSH2 0x4612 PUSH2 0x460D PUSH2 0x4608 DUP5 PUSH2 0x45EF JUMP JUMPDEST PUSH2 0x36B2 JUMP JUMPDEST PUSH2 0x37D9 JUMP JUMPDEST SWAP1 POP SWAP2 SWAP1 POP JUMP JUMPDEST PUSH2 0x4622 DUP2 PUSH2 0x45F8 JUMP JUMPDEST DUP3 MSTORE POP POP JUMP JUMPDEST PUSH32 0x546869732069732070726F706F73616C20233700000000000000000000000000 PUSH0 DUP3 ADD MSTORE POP JUMP JUMPDEST PUSH0 PUSH2 0x465C PUSH1 0x13 DUP4 PUSH2 0x387F JUMP JUMPDEST SWAP2 POP PUSH2 0x4667 DUP3 PUSH2 0x4628 JUMP JUMPDEST PUSH1 0x20 DUP3 ADD SWAP1 POP SWAP2 SWAP1 POP JUMP JUMPDEST PUSH0 PUSH1 0x60 DUP3 ADD SWAP1 POP PUSH2 0x4685 PUSH0 DUP4 ADD DUP6 PUSH2 0x3837 JUMP JUMPDEST PUSH2 0x4692 PUSH1 0x20 DUP4 ADD DUP5 PUSH2 0x4619 JUMP JUMPDEST DUP2 DUP2 SUB PUSH1 0x40 DUP4 ADD MSTORE PUSH2 0x46A3 DUP2 PUSH2 0x4650 JUMP JUMPDEST SWAP1 POP SWAP4 SWAP3 POP POP POP JUMP JUMPDEST PUSH2 0x46B5 DUP2 PUSH2 0x45F8 JUMP JUMPDEST DUP3 MSTORE POP POP JUMP JUMPDEST PUSH0 PUSH1 0x40 DUP3 ADD SWAP1 POP PUSH2 0x46CE PUSH0 DUP4 ADD DUP6 PUSH2 0x36FE JUMP JUMPDEST PUSH2 0x46DB PUSH1 0x20 DUP4 ADD DUP5 PUSH2 0x46AC JUMP JUMPDEST SWAP4 SWAP3 POP POP POP JUMP JUMPDEST PUSH32 0x476F7665726E657231206D7573742062652072656D6F7665642E000000000000 PUSH0 DUP3 ADD MSTORE POP JUMP JUMPDEST PUSH0 PUSH2 0x4716 PUSH1 0x1A DUP4 PUSH2 0x387F JUMP JUMPDEST SWAP2 POP PUSH2 0x4721 DUP3 PUSH2 0x46E2 JUMP JUMPDEST PUSH1 0x20 DUP3 ADD SWAP1 POP SWAP2 SWAP1 POP JUMP JUMPDEST PUSH0 PUSH1 0x40 DUP3 ADD SWAP1 POP PUSH2 0x473F PUSH0 DUP4 ADD DUP5 PUSH2 0x39A9 JUMP JUMPDEST DUP2 DUP2 SUB PUSH1 0x20 DUP4 ADD MSTORE PUSH2 0x4750 DUP2 PUSH2 0x470A JUMP JUMPDEST SWAP1 POP SWAP3 SWAP2 POP POP JUMP JUMPDEST PUSH32 0x5765207374696C6C2068617665203320676F7665726E6F727320746F74616C00 PUSH0 DUP3 ADD MSTORE POP JUMP JUMPDEST PUSH0 PUSH2 0x478C PUSH1 0x1F DUP4 PUSH2 0x387F JUMP JUMPDEST SWAP2 POP PUSH2 0x4797 DUP3 PUSH2 0x4758 JUMP JUMPDEST PUSH1 0x20 DUP3 ADD SWAP1 POP SWAP2 SWAP1 POP JUMP JUMPDEST PUSH0 PUSH1 0x60 DUP3 ADD SWAP1 POP PUSH2 0x47B5 PUSH0 DUP4 ADD DUP6 PUSH2 0x3837 JUMP JUMPDEST PUSH2 0x47C2 PUSH1 0x20 DUP4 ADD DUP5 PUSH2 0x3FE6 JUMP JUMPDEST DUP2 DUP2 SUB PUSH1 0x40 DUP4 ADD MSTORE PUSH2 0x47D3 DUP2 PUSH2 0x4780 JUMP JUMPDEST SWAP1 POP SWAP4 SWAP3 POP POP POP JUMP JUMPDEST PUSH32 0x676F7665726E6F7231207761732072656D6F7665640000000000000000000000 PUSH0 DUP3 ADD MSTORE POP JUMP JUMPDEST PUSH0 PUSH2 0x4810 PUSH1 0x15 DUP4 PUSH2 0x387F JUMP JUMPDEST SWAP2 POP PUSH2 0x481B DUP3 PUSH2 0x47DC JUMP JUMPDEST PUSH1 0x20 DUP3 ADD SWAP1 POP SWAP2 SWAP1 POP JUMP JUMPDEST PUSH0 PUSH1 0x40 DUP3 ADD SWAP1 POP PUSH2 0x4839 PUSH0 DUP4 ADD DUP5 PUSH2 0x39A9 JUMP JUMPDEST DUP2 DUP2 SUB PUSH1 0x20 DUP4 ADD MSTORE PUSH2 0x484A DUP2 PUSH2 0x4804 JUMP JUMPDEST SWAP1 POP SWAP3 SWAP2 POP POP JUMP JUMPDEST PUSH32 0x546869732073686F756C642062652070726F706F73616C203400000000000000 PUSH0 DUP3 ADD MSTORE POP JUMP JUMPDEST PUSH0 PUSH2 0x4886 PUSH1 0x19 DUP4 PUSH2 0x387F JUMP JUMPDEST SWAP2 POP PUSH2 0x4891 DUP3 PUSH2 0x4852 JUMP JUMPDEST PUSH1 0x20 DUP3 ADD SWAP1 POP SWAP2 SWAP1 POP JUMP JUMPDEST PUSH0 PUSH1 0x60 DUP3 ADD SWAP1 POP PUSH2 0x48AF PUSH0 DUP4 ADD DUP6 PUSH2 0x3837 JUMP JUMPDEST PUSH2 0x48BC PUSH1 0x20 DUP4 ADD DUP5 PUSH2 0x3AA4 JUMP JUMPDEST DUP2 DUP2 SUB PUSH1 0x40 DUP4 ADD MSTORE PUSH2 0x48CD DUP2 PUSH2 0x487A JUMP JUMPDEST SWAP1 POP SWAP4 SWAP3 POP POP POP JUMP JUMPDEST PUSH2 0x48DF DUP2 PUSH2 0x3A83 JUMP JUMPDEST DUP3 MSTORE POP POP JUMP JUMPDEST PUSH0 PUSH1 0x40 DUP3 ADD SWAP1 POP PUSH2 0x48F8 PUSH0 DUP4 ADD DUP6 PUSH2 0x36FE JUMP JUMPDEST PUSH2 0x4905 PUSH1 0x20 DUP4 ADD DUP5 PUSH2 0x48D6 JUMP JUMPDEST SWAP4 SWAP3 POP POP POP JUMP JUMPDEST PUSH32 0x53686F756C64206E6F74206578656375746520342077697468206F6E6C792031 PUSH0 DUP3 ADD MSTORE PUSH32 0x20766F746520287468726573686F6C6420686173206E6F74206265656E207265 PUSH1 0x20 DUP3 ADD MSTORE PUSH32 0x6163686564290000000000000000000000000000000000000000000000000000 PUSH1 0x40 DUP3 ADD MSTORE POP JUMP JUMPDEST PUSH0 PUSH2 0x498C PUSH1 0x46 DUP4 PUSH2 0x387F JUMP JUMPDEST SWAP2 POP PUSH2 0x4997 DUP3 PUSH2 0x490C JUMP JUMPDEST PUSH1 0x60 DUP3 ADD SWAP1 POP SWAP2 SWAP1 POP JUMP JUMPDEST PUSH0 PUSH1 0x40 DUP3 ADD SWAP1 POP PUSH2 0x49B5 PUSH0 DUP4 ADD DUP5 PUSH2 0x39A9 JUMP JUMPDEST DUP2 DUP2 SUB PUSH1 0x20 DUP4 ADD MSTORE PUSH2 0x49C6 DUP2 PUSH2 0x4980 JUMP JUMPDEST SWAP1 POP SWAP3 SWAP2 POP POP JUMP JUMPDEST PUSH0 DUP2 SLOAD SWAP1 POP SWAP2 SWAP1 POP JUMP JUMPDEST PUSH0 DUP3 DUP3 MSTORE PUSH1 0x20 DUP3 ADD SWAP1 POP SWAP3 SWAP2 POP POP JUMP JUMPDEST PUSH0 DUP2 SWAP1 POP DUP2 PUSH0 MSTORE PUSH1 0x20 PUSH0 KECCAK256 SWAP1 POP SWAP2 SWAP1 POP JUMP JUMPDEST PUSH2 0x4A03 DUP2 PUSH2 0x3780 JUMP JUMPDEST DUP3 MSTORE POP POP JUMP JUMPDEST PUSH0 PUSH2 0x4A14 DUP4 DUP4 PUSH2 0x49FA JUMP JUMPDEST PUSH1 0x20 DUP4 ADD SWAP1 POP SWAP3 SWAP2 POP POP JUMP JUMPDEST PUSH0 DUP2 PUSH0 SHR SWAP1 POP SWAP2 SWAP1 POP JUMP JUMPDEST PUSH0 PUSH20 0xFFFFFFFFFFFFFFFFFFFFFFFFFFFFFFFFFFFFFFFF DUP3 AND SWAP1 POP SWAP2 SWAP1 POP JUMP JUMPDEST PUSH0 PUSH2 0x4A5C PUSH2 0x4A57 DUP4 PUSH2 0x4A20 JUMP JUMPDEST PUSH2 0x4A2B JUMP JUMPDEST SWAP1 POP SWAP2 SWAP1 POP JUMP JUMPDEST PUSH0 PUSH2 0x4A6E DUP3 SLOAD PUSH2 0x4A4A JUMP JUMPDEST SWAP1 POP SWAP2 SWAP1 POP JUMP JUMPDEST PUSH0 PUSH1 0x1 DUP3 ADD SWAP1 POP SWAP2 SWAP1 POP JUMP JUMPDEST PUSH0 PUSH2 0x4A8B DUP3 PUSH2 0x49CE JUMP JUMPDEST PUSH2 0x4A95 DUP2 DUP6 PUSH2 0x49D8 JUMP JUMPDEST SWAP4 POP PUSH2 0x4AA0 DUP4 PUSH2 0x49E8 JUMP JUMPDEST DUP1 PUSH0 JUMPDEST DUP4 DUP2 LT ISZERO PUSH2 0x4AD7 JUMPI PUSH2 0x4AB4 DUP3 PUSH2 0x4A63 JUMP JUMPDEST PUSH2 0x4ABE DUP9 DUP3 PUSH2 0x4A09 JUMP JUMPDEST SWAP8 POP PUSH2 0x4AC9 DUP4 PUSH2 0x4A75 JUMP JUMPDEST SWAP3 POP POP PUSH1 0x1 DUP2 ADD SWAP1 POP PUSH2 0x4AA3 JUMP JUMPDEST POP DUP6 SWAP4 POP POP POP POP SWAP3 SWAP2 POP POP JUMP JUMPDEST PUSH0 PUSH1 0x40 DUP3 ADD SWAP1 POP DUP2 DUP2 SUB PUSH0 DUP4 ADD MSTORE PUSH2 0x4AFC DUP2 DUP6 PUSH2 0x4A81 JUMP JUMPDEST SWAP1 POP PUSH2 0x4B0B PUSH1 0x20 DUP4 ADD DUP5 PUSH2 0x3791 JUMP JUMPDEST SWAP4 SWAP3 POP POP POP JUMP JUMPDEST PUSH0 DUP2 SWAP1 POP SWAP2 SWAP1 POP JUMP JUMPDEST PUSH0 PUSH2 0x4B35 PUSH2 0x4B30 PUSH2 0x4B2B DUP5 PUSH2 0x4B12 JUMP JUMPDEST PUSH2 0x36B2 JUMP JUMPDEST PUSH2 0x37D9 JUMP JUMPDEST SWAP1 POP SWAP2 SWAP1 POP JUMP JUMPDEST PUSH2 0x4B45 DUP2 PUSH2 0x4B1B JUMP JUMPDEST DUP3 MSTORE POP POP JUMP JUMPDEST PUSH32 0x546869732069732070726F706F73616C20360000000000000000000000000000 PUSH0 DUP3 ADD MSTORE POP JUMP JUMPDEST PUSH0 PUSH2 0x4B7F PUSH1 0x12 DUP4 PUSH2 0x387F JUMP JUMPDEST SWAP2 POP PUSH2 0x4B8A DUP3 PUSH2 0x4B4B JUMP JUMPDEST PUSH1 0x20 DUP3 ADD SWAP1 POP SWAP2 SWAP1 POP JUMP JUMPDEST PUSH0 PUSH1 0x60 DUP3 ADD SWAP1 POP PUSH2 0x4BA8 PUSH0 DUP4 ADD DUP6 PUSH2 0x3837 JUMP JUMPDEST PUSH2 0x4BB5 PUSH1 0x20 DUP4 ADD DUP5 PUSH2 0x4B3C JUMP JUMPDEST DUP2 DUP2 SUB PUSH1 0x40 DUP4 ADD MSTORE PUSH2 0x4BC6 DUP2 PUSH2 0x4B73 JUMP JUMPDEST SWAP1 POP SWAP4 SWAP3 POP POP POP JUMP JUMPDEST PUSH2 0x4BD8 DUP2 PUSH2 0x4B1B JUMP JUMPDEST DUP3 MSTORE POP POP JUMP JUMPDEST PUSH0 PUSH1 0x40 DUP3 ADD SWAP1 POP PUSH2 0x4BF1 PUSH0 DUP4 ADD DUP6 PUSH2 0x36FE JUMP JUMPDEST PUSH2 0x4BFE PUSH1 0x20 DUP4 ADD DUP5 PUSH2 0x4BCF JUMP JUMPDEST SWAP4 SWAP3 POP POP POP JUMP JUMPDEST PUSH32 0x53686F756C64206E6F742061646420616E20616C726561647920657869737469 PUSH0 DUP3 ADD MSTORE PUSH32 0x6E6720676F7665726E6F72000000000000000000000000000000000000000000 PUSH1 0x20 DUP3 ADD MSTORE POP JUMP JUMPDEST PUSH0 PUSH2 0x4C5F PUSH1 0x2B DUP4 PUSH2 0x387F JUMP JUMPDEST SWAP2 POP PUSH2 0x4C6A DUP3 PUSH2 0x4C05 JUMP JUMPDEST PUSH1 0x40 DUP3 ADD SWAP1 POP SWAP2 SWAP1 POP JUMP JUMPDEST PUSH0 PUSH1 0x40 DUP3 ADD SWAP1 POP PUSH2 0x4C88 PUSH0 DUP4 ADD DUP5 PUSH2 0x39A9 JUMP JUMPDEST DUP2 DUP2 SUB PUSH1 0x20 DUP4 ADD MSTORE PUSH2 0x4C99 DUP2 PUSH2 0x4C53 JUMP JUMPDEST SWAP1 POP SWAP3 SWAP2 POP POP JUMP JUMPDEST PUSH32 0x496E697469616C20676F7665726E6F7220636F756E74206E65656420746F2062 PUSH0 DUP3 ADD MSTORE PUSH32 0x6520330000000000000000000000000000000000000000000000000000000000 PUSH1 0x20 DUP3 ADD MSTORE POP JUMP JUMPDEST PUSH0 PUSH2 0x4CFB PUSH1 0x23 DUP4 PUSH2 0x387F JUMP JUMPDEST SWAP2 POP PUSH2 0x4D06 DUP3 PUSH2 0x4CA1 JUMP JUMPDEST PUSH1 0x40 DUP3 ADD SWAP1 POP SWAP2 SWAP1 POP JUMP JUMPDEST PUSH0 PUSH1 0x60 DUP3 ADD SWAP1 POP PUSH2 0x4D24 PUSH0 DUP4 ADD DUP6 PUSH2 0x3837 JUMP JUMPDEST PUSH2 0x4D31 PUSH1 0x20 DUP4 ADD DUP5 PUSH2 0x3FE6 JUMP JUMPDEST DUP2 DUP2 SUB PUSH1 0x40 DUP4 ADD MSTORE PUSH2 0x4D42 DUP2 PUSH2 0x4CEF JUMP JUMPDEST SWAP1 POP SWAP4 SWAP3 POP POP POP JUMP JUMPDEST PUSH32 0x676F7665726E6F7231206D757374206265206120676F7665726E6F7200000000 PUSH0 DUP3 ADD MSTORE POP JUMP JUMPDEST PUSH0 PUSH2 0x4D7F PUSH1 0x1C DUP4 PUSH2 0x387F JUMP JUMPDEST SWAP2 POP PUSH2 0x4D8A DUP3 PUSH2 0x4D4B JUMP JUMPDEST PUSH1 0x20 DUP3 ADD SWAP1 POP SWAP2 SWAP1 POP JUMP JUMPDEST PUSH0 PUSH1 0x40 DUP3 ADD SWAP1 POP PUSH2 0x4DA8 PUSH0 DUP4 ADD DUP5 PUSH2 0x39A9 JUMP JUMPDEST DUP2 DUP2 SUB PUSH1 0x20 DUP4 ADD MSTORE PUSH2 0x4DB9 DUP2 PUSH2 0x4D73 JUMP JUMPDEST SWAP1 POP SWAP3 SWAP2 POP POP JUMP JUMPDEST PUSH32 0x52616E646F6D206164647265737320286E6F6E20676F7665726E6F7229207368 PUSH0 DUP3 ADD MSTORE PUSH32 0x6F756C64206E6F74206265206120676F7665726E6F7200000000000000000000 PUSH1 0x20 DUP3 ADD MSTORE POP JUMP JUMPDEST PUSH0 PUSH2 0x4E1B PUSH1 0x36 DUP4 PUSH2 0x387F JUMP JUMPDEST SWAP2 POP PUSH2 0x4E26 DUP3 PUSH2 0x4DC1 JUMP JUMPDEST PUSH1 0x40 DUP3 ADD SWAP1 POP SWAP2 SWAP1 POP JUMP JUMPDEST PUSH0 PUSH1 0x40 DUP3 ADD SWAP1 POP PUSH2 0x4E44 PUSH0 DUP4 ADD DUP5 PUSH2 0x39A9 JUMP JUMPDEST DUP2 DUP2 SUB PUSH1 0x20 DUP4 ADD MSTORE PUSH2 0x4E55 DUP2 PUSH2 0x4E0F JUMP JUMPDEST SWAP1 POP SWAP3 SWAP2 POP POP JUMP JUMPDEST PUSH0 PUSH1 0xFF DUP3 AND SWAP1 POP SWAP2 SWAP1 POP JUMP JUMPDEST PUSH2 0x4E72 DUP2 PUSH2 0x4E5D JUMP JUMPDEST DUP3 MSTORE POP POP JUMP JUMPDEST PUSH0 PUSH1 0x40 DUP3 ADD SWAP1 POP PUSH2 0x4E8B PUSH0 DUP4 ADD DUP6 PUSH2 0x4E69 JUMP JUMPDEST PUSH2 0x4E98 PUSH1 0x20 DUP4 ADD DUP5 PUSH2 0x3791 JUMP JUMPDEST SWAP4 SWAP3 POP POP POP JUMP JUMPDEST PUSH32 0x41206E6F6E20676F7665726E6F72206D757374206E6F742062652061626C6520 PUSH0 DUP3 ADD MSTORE PUSH32 0x746F206D616B6520612070726F706F73616C0000000000000000000000000000 PUSH1 0x20 DUP3 ADD MSTORE POP JUMP JUMPDEST PUSH0 PUSH2 0x4EF9 PUSH1 0x32 DUP4 PUSH2 0x387F JUMP JUMPDEST SWAP2 POP PUSH2 0x4F04 DUP3 PUSH2 0x4E9F JUMP JUMPDEST PUSH1 0x40 DUP3 ADD SWAP1 POP SWAP2 SWAP1 POP JUMP JUMPDEST PUSH0 PUSH1 0x40 DUP3 ADD SWAP1 POP PUSH2 0x4F22 PUSH0 DUP4 ADD DUP5 PUSH2 0x39A9 JUMP JUMPDEST DUP2 DUP2 SUB PUSH1 0x20 DUP4 ADD MSTORE PUSH2 0x4F33 DUP2 PUSH2 0x4EED JUMP JUMPDEST SWAP1 POP SWAP3 SWAP2 POP POP JUMP JUMPDEST PUSH0 DUP2 SWAP1 POP SWAP2 SWAP1 POP JUMP JUMPDEST PUSH0 PUSH2 0x4F5E PUSH2 0x4F59 PUSH2 0x4F54 DUP5 PUSH2 0x4F3B JUMP JUMPDEST PUSH2 0x36B2 JUMP JUMPDEST PUSH2 0x37D9 JUMP JUMPDEST SWAP1 POP SWAP2 SWAP1 POP JUMP JUMPDEST PUSH2 0x4F6E DUP2 PUSH2 0x4F44 JUMP JUMPDEST DUP3 MSTORE POP POP JUMP JUMPDEST PUSH32 0x546869732073686F756C642062652070726F706F73616C203200000000000000 PUSH0 DUP3 ADD MSTORE POP JUMP JUMPDEST PUSH0 PUSH2 0x4FA8 PUSH1 0x19 DUP4 PUSH2 0x387F JUMP JUMPDEST SWAP2 POP PUSH2 0x4FB3 DUP3 PUSH2 0x4F74 JUMP JUMPDEST PUSH1 0x20 DUP3 ADD SWAP1 POP SWAP2 SWAP1 POP JUMP JUMPDEST PUSH0 PUSH1 0x60 DUP3 ADD SWAP1 POP PUSH2 0x4FD1 PUSH0 DUP4 ADD DUP6 PUSH2 0x3837 JUMP JUMPDEST PUSH2 0x4FDE PUSH1 0x20 DUP4 ADD DUP5 PUSH2 0x4F65 JUMP JUMPDEST DUP2 DUP2 SUB PUSH1 0x40 DUP4 ADD MSTORE PUSH2 0x4FEF DUP2 PUSH2 0x4F9C JUMP JUMPDEST SWAP1 POP SWAP4 SWAP3 POP POP POP JUMP JUMPDEST PUSH2 0x5001 DUP2 PUSH2 0x4F44 JUMP JUMPDEST DUP3 MSTORE POP POP JUMP JUMPDEST PUSH0 PUSH1 0x40 DUP3 ADD SWAP1 POP PUSH2 0x501A PUSH0 DUP4 ADD DUP6 PUSH2 0x36FE JUMP JUMPDEST PUSH2 0x5027 PUSH1 0x20 DUP4 ADD DUP5 PUSH2 0x4FF8 JUMP JUMPDEST SWAP4 SWAP3 POP POP POP JUMP JUMPDEST PUSH0 PUSH1 0x20 DUP3 ADD SWAP1 POP PUSH2 0x5041 PUSH0 DUP4 ADD DUP5 PUSH2 0x4FF8 JUMP JUMPDEST SWAP3 SWAP2 POP POP JUMP JUMPDEST PUSH32 0x4E487B7100000000000000000000000000000000000000000000000000000000 PUSH0 MSTORE PUSH1 0x12 PUSH1 0x4 MSTORE PUSH1 0x24 PUSH0 REVERT JUMPDEST PUSH32 0x4E487B7100000000000000000000000000000000000000000000000000000000 PUSH0 MSTORE PUSH1 0x11 PUSH1 0x4 MSTORE PUSH1 0x24 PUSH0 REVERT JUMPDEST PUSH0 PUSH2 0x50AB DUP3 PUSH2 0x37D9 JUMP JUMPDEST SWAP2 POP PUSH2 0x50B6 DUP4 PUSH2 0x37D9 JUMP JUMPDEST SWAP3 POP DUP3 PUSH2 0x50C6 JUMPI PUSH2 0x50C5 PUSH2 0x5047 JUMP JUMPDEST JUMPDEST DUP3 DUP3 DIV SWAP1 POP SWAP3 SWAP2 POP POP JUMP JUMPDEST PUSH0 PUSH2 0x50DB DUP3 PUSH2 0x37D9 JUMP JUMPDEST SWAP2 POP PUSH2 0x50E6 DUP4 PUSH2 0x37D9 JUMP JUMPDEST SWAP3 POP DUP3 DUP3 ADD SWAP1 POP DUP1 DUP3 GT ISZERO PUSH2 0x50FE JUMPI PUSH2 0x50FD PUSH2 0x5074 JUMP JUMPDEST JUMPDEST SWAP3 SWAP2 POP POP JUMP JUMPDEST PUSH32 0x5468726573686F6C64206E65656420746F20666F6C6C6F772074686520353125 PUSH0 DUP3 ADD MSTORE PUSH32 0x2072756C65000000000000000000000000000000000000000000000000000000 PUSH1 0x20 DUP3 ADD MSTORE POP JUMP JUMPDEST PUSH0 PUSH2 0x515E PUSH1 0x25 DUP4 PUSH2 0x387F JUMP JUMPDEST SWAP2 POP PUSH2 0x5169 DUP3 PUSH2 0x5104 JUMP JUMPDEST PUSH1 0x40 DUP3 ADD SWAP1 POP SWAP2 SWAP1 POP JUMP JUMPDEST PUSH0 PUSH1 0x60 DUP3 ADD SWAP1 POP PUSH2 0x5187 PUSH0 DUP4 ADD DUP6 PUSH2 0x3837 JUMP JUMPDEST PUSH2 0x5194 PUSH1 0x20 DUP4 ADD DUP5 PUSH2 0x3837 JUMP JUMPDEST DUP2 DUP2 SUB PUSH1 0x40 DUP4 ADD MSTORE PUSH2 0x51A5 DUP2 PUSH2 0x5152 JUMP JUMPDEST SWAP1 POP SWAP4 SWAP3 POP POP POP JUMP JUMPDEST PUSH32 0x54686572652073686F756C642062652065786163746C7920322079657320766F PUSH0 DUP3 ADD MSTORE PUSH32 0x746573206E6F7700000000000000000000000000000000000000000000000000 PUSH1 0x20 DUP3 ADD MSTORE POP JUMP JUMPDEST PUSH0 PUSH2 0x5208 PUSH1 0x27 DUP4 PUSH2 0x387F JUMP JUMPDEST SWAP2 POP PUSH2 0x5213 DUP3 PUSH2 0x51AE JUMP JUMPDEST PUSH1 0x40 DUP3 ADD SWAP1 POP SWAP2 SWAP1 POP JUMP JUMPDEST PUSH0 PUSH1 0x60 DUP3 ADD SWAP1 POP PUSH2 0x5231 PUSH0 DUP4 ADD DUP6 PUSH2 0x3837 JUMP JUMPDEST PUSH2 0x523E PUSH1 0x20 DUP4 ADD DUP5 PUSH2 0x4F65 JUMP JUMPDEST DUP2 DUP2 SUB PUSH1 0x40 DUP4 ADD MSTORE PUSH2 0x524F DUP2 PUSH2 0x51FC JUMP JUMPDEST SWAP1 POP SWAP4 SWAP3 POP POP POP JUMP INVALID PUSH1 0x80 PUSH1 0x40 MSTORE CALLVALUE DUP1 ISZERO PUSH1 0xE JUMPI PUSH0 PUSH0 REVERT JUMPDEST POP PUSH2 0x6B6 DUP1 PUSH2 0x1C PUSH0 CODECOPY PUSH0 RETURN INVALID PUSH1 0x80 PUSH1 0x40 MSTORE CALLVALUE DUP1 ISZERO PUSH2 0xF JUMPI PUSH0 PUSH0 REVERT JUMPDEST POP PUSH1 0x4 CALLDATASIZE LT PUSH2 0x3F JUMPI PUSH0 CALLDATALOAD PUSH1 0xE0 SHR DUP1 PUSH4 0x5DF277FA EQ PUSH2 0x43 JUMPI DUP1 PUSH4 0x84FC00BA EQ PUSH2 0x73 JUMPI DUP1 PUSH4 0xBFC42645 EQ PUSH2 0xA3 JUMPI JUMPDEST PUSH0 PUSH0 REVERT JUMPDEST PUSH2 0x5D PUSH1 0x4 DUP1 CALLDATASIZE SUB DUP2 ADD SWAP1 PUSH2 0x58 SWAP2 SWAP1 PUSH2 0x3FA JUMP JUMPDEST PUSH2 0xD3 JUMP JUMPDEST PUSH1 0x40 MLOAD PUSH2 0x6A SWAP2 SWAP1 PUSH2 0x452 JUMP JUMPDEST PUSH1 0x40 MLOAD DUP1 SWAP2 SUB SWAP1 RETURN JUMPDEST PUSH2 0x8D PUSH1 0x4 DUP1 CALLDATASIZE SUB DUP2 ADD SWAP1 PUSH2 0x88 SWAP2 SWAP1 PUSH2 0x4B8 JUMP JUMPDEST PUSH2 0x1D3 JUMP JUMPDEST PUSH1 0x40 MLOAD PUSH2 0x9A SWAP2 SWAP1 PUSH2 0x517 JUMP JUMPDEST PUSH1 0x40 MLOAD DUP1 SWAP2 SUB SWAP1 RETURN JUMPDEST PUSH2 0xBD PUSH1 0x4 DUP1 CALLDATASIZE SUB DUP2 ADD SWAP1 PUSH2 0xB8 SWAP2 SWAP1 PUSH2 0x3FA JUMP JUMPDEST PUSH2 0x258 JUMP JUMPDEST PUSH1 0x40 MLOAD PUSH2 0xCA SWAP2 SWAP1 PUSH2 0x452 JUMP JUMPDEST PUSH1 0x40 MLOAD DUP1 SWAP2 SUB SWAP1 RETURN JUMPDEST PUSH0 PUSH0 DUP4 PUSH20 0xFFFFFFFFFFFFFFFFFFFFFFFFFFFFFFFFFFFFFFFF AND DUP4 PUSH1 0x40 MLOAD PUSH1 0x24 ADD PUSH2 0xFD SWAP2 SWAP1 PUSH2 0x517 JUMP JUMPDEST PUSH1 0x40 MLOAD PUSH1 0x20 DUP2 DUP4 SUB SUB DUP2 MSTORE SWAP1 PUSH1 0x40 MSTORE PUSH32 0x121B93F00000000000000000000000000000000000000000000000000000000 PUSH28 0xFFFFFFFFFFFFFFFFFFFFFFFFFFFFFFFFFFFFFFFFFFFFFFFFFFFFFFFF NOT AND PUSH1 0x20 DUP3 ADD DUP1 MLOAD PUSH28 0xFFFFFFFFFFFFFFFFFFFFFFFFFFFFFFFFFFFFFFFFFFFFFFFFFFFFFFFF DUP4 DUP2 DUP4 AND OR DUP4 MSTORE POP POP POP POP PUSH1 0x40 MLOAD PUSH2 0x187 SWAP2 SWAP1 PUSH2 0x582 JUMP JUMPDEST PUSH0 PUSH1 0x40 MLOAD DUP1 DUP4 SUB DUP2 PUSH0 DUP7 GAS CALL SWAP2 POP POP RETURNDATASIZE DUP1 PUSH0 DUP2 EQ PUSH2 0x1C0 JUMPI PUSH1 0x40 MLOAD SWAP2 POP PUSH1 0x1F NOT PUSH1 0x3F RETURNDATASIZE ADD AND DUP3 ADD PUSH1 0x40 MSTORE RETURNDATASIZE DUP3 MSTORE RETURNDATASIZE PUSH0 PUSH1 0x20 DUP5 ADD RETURNDATACOPY PUSH2 0x1C5 JUMP JUMPDEST PUSH1 0x60 SWAP2 POP JUMPDEST POP POP SWAP1 POP DUP1 SWAP2 POP POP SWAP3 SWAP2 POP POP JUMP JUMPDEST PUSH0 DUP4 PUSH20 0xFFFFFFFFFFFFFFFFFFFFFFFFFFFFFFFFFFFFFFFF AND PUSH4 0xAEBE39CA DUP5 DUP5 PUSH1 0x40 MLOAD DUP4 PUSH4 0xFFFFFFFF AND PUSH1 0xE0 SHL DUP2 MSTORE PUSH1 0x4 ADD PUSH2 0x20F SWAP3 SWAP2 SWAP1 PUSH2 0x61A JUMP JUMPDEST PUSH1 0x20 PUSH1 0x40 MLOAD DUP1 DUP4 SUB DUP2 PUSH0 DUP8 GAS CALL ISZERO DUP1 ISZERO PUSH2 0x22B JUMPI RETURNDATASIZE PUSH0 PUSH0 RETURNDATACOPY RETURNDATASIZE PUSH0 REVERT JUMPDEST POP POP POP POP PUSH1 0x40 MLOAD RETURNDATASIZE PUSH1 0x1F NOT PUSH1 0x1F DUP3 ADD AND DUP3 ADD DUP1 PUSH1 0x40 MSTORE POP DUP2 ADD SWAP1 PUSH2 0x24F SWAP2 SWAP1 PUSH2 0x655 JUMP JUMPDEST SWAP1 POP SWAP4 SWAP3 POP POP POP JUMP JUMPDEST PUSH0 PUSH0 DUP4 PUSH20 0xFFFFFFFFFFFFFFFFFFFFFFFFFFFFFFFFFFFFFFFF AND DUP4 PUSH1 0x40 MLOAD PUSH1 0x24 ADD PUSH2 0x282 SWAP2 SWAP1 PUSH2 0x517 JUMP JUMPDEST PUSH1 0x40 MLOAD PUSH1 0x20 DUP2 DUP4 SUB SUB DUP2 MSTORE SWAP1 PUSH1 0x40 MSTORE PUSH32 0xD61B51900000000000000000000000000000000000000000000000000000000 PUSH28 0xFFFFFFFFFFFFFFFFFFFFFFFFFFFFFFFFFFFFFFFFFFFFFFFFFFFFFFFF NOT AND PUSH1 0x20 DUP3 ADD DUP1 MLOAD PUSH28 0xFFFFFFFFFFFFFFFFFFFFFFFFFFFFFFFFFFFFFFFFFFFFFFFFFFFFFFFF DUP4 DUP2 DUP4 AND OR DUP4 MSTORE POP POP POP POP PUSH1 0x40 MLOAD PUSH2 0x30C SWAP2 SWAP1 PUSH2 0x582 JUMP JUMPDEST PUSH0 PUSH1 0x40 MLOAD DUP1 DUP4 SUB DUP2 PUSH0 DUP7 GAS CALL SWAP2 POP POP RETURNDATASIZE DUP1 PUSH0 DUP2 EQ PUSH2 0x345 JUMPI PUSH1 0x40 MLOAD SWAP2 POP PUSH1 0x1F NOT PUSH1 0x3F RETURNDATASIZE ADD AND DUP3 ADD PUSH1 0x40 MSTORE RETURNDATASIZE DUP3 MSTORE RETURNDATASIZE PUSH0 PUSH1 0x20 DUP5 ADD RETURNDATACOPY PUSH2 0x34A JUMP JUMPDEST PUSH1 0x60 SWAP2 POP JUMPDEST POP POP SWAP1 POP DUP1 SWAP2 POP POP SWAP3 SWAP2 POP POP JUMP JUMPDEST PUSH0 PUSH0 REVERT JUMPDEST PUSH0 PUSH20 0xFFFFFFFFFFFFFFFFFFFFFFFFFFFFFFFFFFFFFFFF DUP3 AND SWAP1 POP SWAP2 SWAP1 POP JUMP JUMPDEST PUSH0 PUSH2 0x385 DUP3 PUSH2 0x35C JUMP JUMPDEST SWAP1 POP SWAP2 SWAP1 POP JUMP JUMPDEST PUSH0 PUSH2 0x396 DUP3 PUSH2 0x37B JUMP JUMPDEST SWAP1 POP SWAP2 SWAP1 POP JUMP JUMPDEST PUSH2 0x3A6 DUP2 PUSH2 0x38C JUMP JUMPDEST DUP2 EQ PUSH2 0x3B0 JUMPI PUSH0 PUSH0 REVERT JUMPDEST POP JUMP JUMPDEST PUSH0 DUP2 CALLDATALOAD SWAP1 POP PUSH2 0x3C1 DUP2 PUSH2 0x39D JUMP JUMPDEST SWAP3 SWAP2 POP POP JUMP JUMPDEST PUSH0 DUP2 SWAP1 POP SWAP2 SWAP1 POP JUMP JUMPDEST PUSH2 0x3D9 DUP2 PUSH2 0x3C7 JUMP JUMPDEST DUP2 EQ PUSH2 0x3E3 JUMPI PUSH0 PUSH0 REVERT JUMPDEST POP JUMP JUMPDEST PUSH0 DUP2 CALLDATALOAD SWAP1 POP PUSH2 0x3F4 DUP2 PUSH2 0x3D0 JUMP JUMPDEST SWAP3 SWAP2 POP POP JUMP JUMPDEST PUSH0 PUSH0 PUSH1 0x40 DUP4 DUP6 SUB SLT ISZERO PUSH2 0x410 JUMPI PUSH2 0x40F PUSH2 0x358 JUMP JUMPDEST JUMPDEST PUSH0 PUSH2 0x41D DUP6 DUP3 DUP7 ADD PUSH2 0x3B3 JUMP JUMPDEST SWAP3 POP POP PUSH1 0x20 PUSH2 0x42E DUP6 DUP3 DUP7 ADD PUSH2 0x3E6 JUMP JUMPDEST SWAP2 POP POP SWAP3 POP SWAP3 SWAP1 POP JUMP JUMPDEST PUSH0 DUP2 ISZERO ISZERO SWAP1 POP SWAP2 SWAP1 POP JUMP JUMPDEST PUSH2 0x44C DUP2 PUSH2 0x438 JUMP JUMPDEST DUP3 MSTORE POP POP JUMP JUMPDEST PUSH0 PUSH1 0x20 DUP3 ADD SWAP1 POP PUSH2 0x465 PUSH0 DUP4 ADD DUP5 PUSH2 0x443 JUMP JUMPDEST SWAP3 SWAP2 POP POP JUMP JUMPDEST PUSH1 0x4 DUP2 LT PUSH2 0x477 JUMPI PUSH0 PUSH0 REVERT JUMPDEST POP JUMP JUMPDEST PUSH0 DUP2 CALLDATALOAD SWAP1 POP PUSH2 0x488 DUP2 PUSH2 0x46B JUMP JUMPDEST SWAP3 SWAP2 POP POP JUMP JUMPDEST PUSH2 0x497 DUP2 PUSH2 0x37B JUMP JUMPDEST DUP2 EQ PUSH2 0x4A1 JUMPI PUSH0 PUSH0 REVERT JUMPDEST POP JUMP JUMPDEST PUSH0 DUP2 CALLDATALOAD SWAP1 POP PUSH2 0x4B2 DUP2 PUSH2 0x48E JUMP JUMPDEST SWAP3 SWAP2 POP POP JUMP JUMPDEST PUSH0 PUSH0 PUSH0 PUSH1 0x60 DUP5 DUP7 SUB SLT ISZERO PUSH2 0x4CF JUMPI PUSH2 0x4CE PUSH2 0x358 JUMP JUMPDEST JUMPDEST PUSH0 PUSH2 0x4DC DUP7 DUP3 DUP8 ADD PUSH2 0x3B3 JUMP JUMPDEST SWAP4 POP POP PUSH1 0x20 PUSH2 0x4ED DUP7 DUP3 DUP8 ADD PUSH2 0x47A JUMP JUMPDEST SWAP3 POP POP PUSH1 0x40 PUSH2 0x4FE DUP7 DUP3 DUP8 ADD PUSH2 0x4A4 JUMP JUMPDEST SWAP2 POP POP SWAP3 POP SWAP3 POP SWAP3 JUMP JUMPDEST PUSH2 0x511 DUP2 PUSH2 0x3C7 JUMP JUMPDEST DUP3 MSTORE POP POP JUMP JUMPDEST PUSH0 PUSH1 0x20 DUP3 ADD SWAP1 POP PUSH2 0x52A PUSH0 DUP4 ADD DUP5 PUSH2 0x508 JUMP JUMPDEST SWAP3 SWAP2 POP POP JUMP JUMPDEST PUSH0 DUP2 MLOAD SWAP1 POP SWAP2 SWAP1 POP JUMP JUMPDEST PUSH0 DUP2 SWAP1 POP SWAP3 SWAP2 POP POP JUMP JUMPDEST DUP3 DUP2 DUP4 MCOPY PUSH0 DUP4 DUP4 ADD MSTORE POP POP POP JUMP JUMPDEST PUSH0 PUSH2 0x55C DUP3 PUSH2 0x530 JUMP JUMPDEST PUSH2 0x566 DUP2 DUP6 PUSH2 0x53A JUMP JUMPDEST SWAP4 POP PUSH2 0x576 DUP2 DUP6 PUSH1 0x20 DUP7 ADD PUSH2 0x544 JUMP JUMPDEST DUP1 DUP5 ADD SWAP2 POP POP SWAP3 SWAP2 POP POP JUMP JUMPDEST PUSH0 PUSH2 0x58D DUP3 DUP5 PUSH2 0x552 JUMP JUMPDEST SWAP2 POP DUP2 SWAP1 POP SWAP3 SWAP2 POP POP JUMP JUMPDEST PUSH32 0x4E487B7100000000000000000000000000000000000000000000000000000000 PUSH0 MSTORE PUSH1 0x21 PUSH1 0x4 MSTORE PUSH1 0x24 PUSH0 REVERT JUMPDEST PUSH1 0x4 DUP2 LT PUSH2 0x5D6 JUMPI PUSH2 0x5D5 PUSH2 0x598 JUMP JUMPDEST JUMPDEST POP JUMP JUMPDEST PUSH0 DUP2 SWAP1 POP PUSH2 0x5E6 DUP3 PUSH2 0x5C5 JUMP JUMPDEST SWAP2 SWAP1 POP JUMP JUMPDEST PUSH0 PUSH2 0x5F5 DUP3 PUSH2 0x5D9 JUMP JUMPDEST SWAP1 POP SWAP2 SWAP1 POP JUMP JUMPDEST PUSH2 0x605 DUP2 PUSH2 0x5EB JUMP JUMPDEST DUP3 MSTORE POP POP JUMP JUMPDEST PUSH2 0x614 DUP2 PUSH2 0x37B JUMP JUMPDEST DUP3 MSTORE POP POP JUMP JUMPDEST PUSH0 PUSH1 0x40 DUP3 ADD SWAP1 POP PUSH2 0x62D PUSH0 DUP4 ADD DUP6 PUSH2 0x5FC JUMP JUMPDEST PUSH2 0x63A PUSH1 0x20 DUP4 ADD DUP5 PUSH2 0x60B JUMP JUMPDEST SWAP4 SWAP3 POP POP POP JUMP JUMPDEST PUSH0 DUP2 MLOAD SWAP1 POP PUSH2 0x64F DUP2 PUSH2 0x3D0 JUMP JUMPDEST SWAP3 SWAP2 POP POP JUMP JUMPDEST PUSH0 PUSH1 0x20 DUP3 DUP5 SUB SLT ISZERO PUSH2 0x66A JUMPI PUSH2 0x669 PUSH2 0x358 JUMP JUMPDEST JUMPDEST PUSH0 PUSH2 0x677 DUP5 DUP3 DUP6 ADD PUSH2 0x641 JUMP JUMPDEST SWAP2 POP POP SWAP3 SWAP2 POP POP JUMP INVALID LOG2 PUSH5 0x6970667358 0x22 SLT KECCAK256 SIGNEXTEND 0xA9 SWAPN 0x18 0xD3 BALANCE 0xC6 PUSH8 0x2E4009FA92592BC4 CALLDATALOAD LOG1 SWAP8 JUMPI PUSH7 0x16F0680E14EF80 0xDB PUSH23 0xC45A64736F6C634300081E003360806040523480156100 0xF JUMPI PUSH0 PUSH0 REVERT JUMPDEST POP PUSH1 0x40 MLOAD PUSH2 0x2097 CODESIZE SUB DUP1 PUSH2 0x2097 DUP4 CODECOPY DUP2 DUP2 ADD PUSH1 0x40 MSTORE DUP2 ADD SWAP1 PUSH2 0x31 SWAP2 SWAP1 PUSH2 0x2EB JUMP JUMPDEST DUP2 PUSH0 SWAP1 DUP1 MLOAD SWAP1 PUSH1 0x20 ADD SWAP1 PUSH2 0x46 SWAP3 SWAP2 SWAP1 PUSH2 0x8E JUMP JUMPDEST POP DUP1 PUSH1 0x1 PUSH0 PUSH2 0x100 EXP DUP2 SLOAD DUP2 PUSH20 0xFFFFFFFFFFFFFFFFFFFFFFFFFFFFFFFFFFFFFFFF MUL NOT AND SWAP1 DUP4 PUSH20 0xFFFFFFFFFFFFFFFFFFFFFFFFFFFFFFFFFFFFFFFF AND MUL OR SWAP1 SSTORE POP POP POP PUSH2 0x345 JUMP JUMPDEST DUP3 DUP1 SLOAD DUP3 DUP3 SSTORE SWAP1 PUSH0 MSTORE PUSH1 0x20 PUSH0 KECCAK256 SWAP1 DUP2 ADD SWAP3 DUP3 ISZERO PUSH2 0x104 JUMPI SWAP2 PUSH1 0x20 MUL DUP3 ADD JUMPDEST DUP3 DUP2 GT ISZERO PUSH2 0x103 JUMPI DUP3 MLOAD DUP3 PUSH0 PUSH2 0x100 EXP DUP2 SLOAD DUP2 PUSH20 0xFFFFFFFFFFFFFFFFFFFFFFFFFFFFFFFFFFFFFFFF MUL NOT AND SWAP1 DUP4 PUSH20 0xFFFFFFFFFFFFFFFFFFFFFFFFFFFFFFFFFFFFFFFF AND MUL OR SWAP1 SSTORE POP SWAP2 PUSH1 0x20 ADD SWAP2 SWAP1 PUSH1 0x1 ADD SWAP1 PUSH2 0xAC JUMP JUMPDEST JUMPDEST POP SWAP1 POP PUSH2 0x111 SWAP2 SWAP1 PUSH2 0x115 JUMP JUMPDEST POP SWAP1 JUMP JUMPDEST JUMPDEST DUP1 DUP3 GT ISZERO PUSH2 0x12C JUMPI PUSH0 DUP2 PUSH0 SWAP1 SSTORE POP PUSH1 0x1 ADD PUSH2 0x116 JUMP JUMPDEST POP SWAP1 JUMP JUMPDEST PUSH0 PUSH1 0x40 MLOAD SWAP1 POP SWAP1 JUMP JUMPDEST PUSH0 PUSH0 REVERT JUMPDEST PUSH0 PUSH0 REVERT JUMPDEST PUSH0 PUSH0 REVERT JUMPDEST PUSH0 PUSH1 0x1F NOT PUSH1 0x1F DUP4 ADD AND SWAP1 POP SWAP2 SWAP1 POP JUMP JUMPDEST PUSH32 0x4E487B7100000000000000000000000000000000000000000000000000000000 PUSH0 MSTORE PUSH1 0x41 PUSH1 0x4 MSTORE PUSH1 0x24 PUSH0 REVERT JUMPDEST PUSH2 0x18B DUP3 PUSH2 0x145 JUMP JUMPDEST DUP2 ADD DUP2 DUP2 LT PUSH8 0xFFFFFFFFFFFFFFFF DUP3 GT OR ISZERO PUSH2 0x1AA JUMPI PUSH2 0x1A9 PUSH2 0x155 JUMP JUMPDEST JUMPDEST DUP1 PUSH1 0x40 MSTORE POP POP POP JUMP JUMPDEST PUSH0 PUSH2 0x1BC PUSH2 0x130 JUMP JUMPDEST SWAP1 POP PUSH2 0x1C8 DUP3 DUP3 PUSH2 0x182 JUMP JUMPDEST SWAP2 SWAP1 POP JUMP JUMPDEST PUSH0 PUSH8 0xFFFFFFFFFFFFFFFF DUP3 GT ISZERO PUSH2 0x1E7 JUMPI PUSH2 0x1E6 PUSH2 0x155 JUMP JUMPDEST JUMPDEST PUSH1 0x20 DUP3 MUL SWAP1 POP PUSH1 0x20 DUP2 ADD SWAP1 POP SWAP2 SWAP1 POP JUMP JUMPDEST PUSH0 PUSH0 REVERT JUMPDEST PUSH0 PUSH20 0xFFFFFFFFFFFFFFFFFFFFFFFFFFFFFFFFFFFFFFFF DUP3 AND SWAP1 POP SWAP2 SWAP1 POP JUMP JUMPDEST PUSH0 PUSH2 0x225 DUP3 PUSH2 0x1FC JUMP JUMPDEST SWAP1 POP SWAP2 SWAP1 POP JUMP JUMPDEST PUSH2 0x235 DUP2 PUSH2 0x21B JUMP JUMPDEST DUP2 EQ PUSH2 0x23F JUMPI PUSH0 PUSH0 REVERT JUMPDEST POP JUMP JUMPDEST PUSH0 DUP2 MLOAD SWAP1 POP PUSH2 0x250 DUP2 PUSH2 0x22C JUMP JUMPDEST SWAP3 SWAP2 POP POP JUMP JUMPDEST PUSH0 PUSH2 0x268 PUSH2 0x263 DUP5 PUSH2 0x1CD JUMP JUMPDEST PUSH2 0x1B3 JUMP JUMPDEST SWAP1 POP DUP1 DUP4 DUP3 MSTORE PUSH1 0x20 DUP3 ADD SWAP1 POP PUSH1 0x20 DUP5 MUL DUP4 ADD DUP6 DUP2 GT ISZERO PUSH2 0x28B JUMPI PUSH2 0x28A PUSH2 0x1F8 JUMP JUMPDEST JUMPDEST DUP4 JUMPDEST DUP2 DUP2 LT ISZERO PUSH2 0x2B4 JUMPI DUP1 PUSH2 0x2A0 DUP9 DUP3 PUSH2 0x242 JUMP JUMPDEST DUP5 MSTORE PUSH1 0x20 DUP5 ADD SWAP4 POP POP PUSH1 0x20 DUP2 ADD SWAP1 POP PUSH2 0x28D JUMP JUMPDEST POP POP POP SWAP4 SWAP3 POP POP POP JUMP JUMPDEST PUSH0 DUP3 PUSH1 0x1F DUP4 ADD SLT PUSH2 0x2D2 JUMPI PUSH2 0x2D1 PUSH2 0x141 JUMP JUMPDEST JUMPDEST DUP2 MLOAD PUSH2 0x2E2 DUP5 DUP3 PUSH1 0x20 DUP7 ADD PUSH2 0x256 JUMP JUMPDEST SWAP2 POP POP SWAP3 SWAP2 POP POP JUMP JUMPDEST PUSH0 PUSH0 PUSH1 0x40 DUP4 DUP6 SUB SLT ISZERO PUSH2 0x301 JUMPI PUSH2 0x300 PUSH2 0x139 JUMP JUMPDEST JUMPDEST PUSH0 DUP4 ADD MLOAD PUSH8 0xFFFFFFFFFFFFFFFF DUP2 GT ISZERO PUSH2 0x31E JUMPI PUSH2 0x31D PUSH2 0x13D JUMP JUMPDEST JUMPDEST PUSH2 0x32A DUP6 DUP3 DUP7 ADD PUSH2 0x2BE JUMP JUMPDEST SWAP3 POP POP PUSH1 0x20 PUSH2 0x33B DUP6 DUP3 DUP7 ADD PUSH2 0x242 JUMP JUMPDEST SWAP2 POP POP SWAP3 POP SWAP3 SWAP1 POP JUMP JUMPDEST PUSH2 0x1D45 DUP1 PUSH2 0x352 PUSH0 CODECOPY PUSH0 RETURN INVALID PUSH1 0x80 PUSH1 0x40 MSTORE CALLVALUE DUP1 ISZERO PUSH2 0xF JUMPI PUSH0 PUSH0 REVERT JUMPDEST POP PUSH1 0x4 CALLDATASIZE LT PUSH2 0xE8 JUMPI PUSH0 CALLDATALOAD PUSH1 0xE0 SHR DUP1 PUSH4 0xA7277B00 GT PUSH2 0x8A JUMPI DUP1 PUSH4 0xDC999C8D GT PUSH2 0x64 JUMPI DUP1 PUSH4 0xDC999C8D EQ PUSH2 0x289 JUMPI DUP1 PUSH4 0xE0901D7A EQ PUSH2 0x2A7 JUMPI DUP1 PUSH4 0xE43581B8 EQ PUSH2 0x2C3 JUMPI DUP1 PUSH4 0xE8C9FD45 EQ PUSH2 0x2F3 JUMPI PUSH2 0xE8 JUMP JUMPDEST DUP1 PUSH4 0xA7277B00 EQ PUSH2 0x20B JUMPI DUP1 PUSH4 0xAEBE39CA EQ PUSH2 0x23B JUMPI DUP1 PUSH4 0xDA35C664 EQ PUSH2 0x26B JUMPI PUSH2 0xE8 JUMP JUMPDEST DUP1 PUSH4 0xEB3813A GT PUSH2 0xC6 JUMPI DUP1 PUSH4 0xEB3813A EQ PUSH2 0x159 JUMPI DUP1 PUSH4 0x3B4D01A7 EQ PUSH2 0x177 JUMPI DUP1 PUSH4 0x43859632 EQ PUSH2 0x1AB JUMPI DUP1 PUSH4 0x8E2767EF EQ PUSH2 0x1DB JUMPI PUSH2 0xE8 JUMP JUMPDEST DUP1 PUSH4 0x121B93F EQ PUSH2 0xEC JUMPI DUP1 PUSH4 0x13CF08B EQ PUSH2 0x108 JUMPI DUP1 PUSH4 0xD61B519 EQ PUSH2 0x13D JUMPI JUMPDEST PUSH0 PUSH0 REVERT JUMPDEST PUSH2 0x106 PUSH1 0x4 DUP1 CALLDATASIZE SUB DUP2 ADD SWAP1 PUSH2 0x101 SWAP2 SWAP1 PUSH2 0x143D JUMP JUMPDEST PUSH2 0x311 JUMP JUMPDEST STOP JUMPDEST PUSH2 0x122 PUSH1 0x4 DUP1 CALLDATASIZE SUB DUP2 ADD SWAP1 PUSH2 0x11D SWAP2 SWAP1 PUSH2 0x143D JUMP JUMPDEST PUSH2 0x513 JUMP JUMPDEST PUSH1 0x40 MLOAD PUSH2 0x134 SWAP7 SWAP6 SWAP5 SWAP4 SWAP3 SWAP2 SWAP1 PUSH2 0x1543 JUMP JUMPDEST PUSH1 0x40 MLOAD DUP1 SWAP2 SUB SWAP1 RETURN JUMPDEST PUSH2 0x157 PUSH1 0x4 DUP1 CALLDATASIZE SUB DUP2 ADD SWAP1 PUSH2 0x152 SWAP2 SWAP1 PUSH2 0x143D JUMP JUMPDEST PUSH2 0x592 JUMP JUMPDEST STOP JUMPDEST PUSH2 0x161 PUSH2 0xF0A JUMP JUMPDEST PUSH1 0x40 MLOAD PUSH2 0x16E SWAP2 SWAP1 PUSH2 0x15A2 JUMP JUMPDEST PUSH1 0x40 MLOAD DUP1 SWAP2 SUB SWAP1 RETURN JUMPDEST PUSH2 0x191 PUSH1 0x4 DUP1 CALLDATASIZE SUB DUP2 ADD SWAP1 PUSH2 0x18C SWAP2 SWAP1 PUSH2 0x143D JUMP JUMPDEST PUSH2 0xF2D JUMP JUMPDEST PUSH1 0x40 MLOAD PUSH2 0x1A2 SWAP6 SWAP5 SWAP4 SWAP3 SWAP2 SWAP1 PUSH2 0x15BB JUMP JUMPDEST PUSH1 0x40 MLOAD DUP1 SWAP2 SUB SWAP1 RETURN JUMPDEST PUSH2 0x1C5 PUSH1 0x4 DUP1 CALLDATASIZE SUB DUP2 ADD SWAP1 PUSH2 0x1C0 SWAP2 SWAP1 PUSH2 0x1636 JUMP JUMPDEST PUSH2 0xFBA JUMP JUMPDEST PUSH1 0x40 MLOAD PUSH2 0x1D2 SWAP2 SWAP1 PUSH2 0x1674 JUMP JUMPDEST PUSH1 0x40 MLOAD DUP1 SWAP2 SUB SWAP1 RETURN JUMPDEST PUSH2 0x1F5 PUSH1 0x4 DUP1 CALLDATASIZE SUB DUP2 ADD SWAP1 PUSH2 0x1F0 SWAP2 SWAP1 PUSH2 0x143D JUMP JUMPDEST PUSH2 0x102E JUMP JUMPDEST PUSH1 0x40 MLOAD PUSH2 0x202 SWAP2 SWAP1 PUSH2 0x15A2 JUMP JUMPDEST PUSH1 0x40 MLOAD DUP1 SWAP2 SUB SWAP1 RETURN JUMPDEST PUSH2 0x225 PUSH1 0x4 DUP1 CALLDATASIZE SUB DUP2 ADD SWAP1 PUSH2 0x220 SWAP2 SWAP1 PUSH2 0x143D JUMP JUMPDEST PUSH2 0x1077 JUMP JUMPDEST PUSH1 0x40 MLOAD PUSH2 0x232 SWAP2 SWAP1 PUSH2 0x168D JUMP JUMPDEST PUSH1 0x40 MLOAD DUP1 SWAP2 SUB SWAP1 RETURN JUMPDEST PUSH2 0x255 PUSH1 0x4 DUP1 CALLDATASIZE SUB DUP2 ADD SWAP1 PUSH2 0x250 SWAP2 SWAP1 PUSH2 0x16C9 JUMP JUMPDEST PUSH2 0x10B1 JUMP JUMPDEST PUSH1 0x40 MLOAD PUSH2 0x262 SWAP2 SWAP1 PUSH2 0x15A2 JUMP JUMPDEST PUSH1 0x40 MLOAD DUP1 SWAP2 SUB SWAP1 RETURN JUMPDEST PUSH2 0x273 PUSH2 0x1210 JUMP JUMPDEST PUSH1 0x40 MLOAD PUSH2 0x280 SWAP2 SWAP1 PUSH2 0x15A2 JUMP JUMPDEST PUSH1 0x40 MLOAD DUP1 SWAP2 SUB SWAP1 RETURN JUMPDEST PUSH2 0x291 PUSH2 0x121C JUMP JUMPDEST PUSH1 0x40 MLOAD PUSH2 0x29E SWAP2 SWAP1 PUSH2 0x168D JUMP JUMPDEST PUSH1 0x40 MLOAD DUP1 SWAP2 SUB SWAP1 RETURN JUMPDEST PUSH2 0x2C1 PUSH1 0x4 DUP1 CALLDATASIZE SUB DUP2 ADD SWAP1 PUSH2 0x2BC SWAP2 SWAP1 PUSH2 0x1707 JUMP JUMPDEST PUSH2 0x1241 JUMP JUMPDEST STOP JUMPDEST PUSH2 0x2DD PUSH1 0x4 DUP1 CALLDATASIZE SUB DUP2 ADD SWAP1 PUSH2 0x2D8 SWAP2 SWAP1 PUSH2 0x1707 JUMP JUMPDEST PUSH2 0x135B JUMP JUMPDEST PUSH1 0x40 MLOAD PUSH2 0x2EA SWAP2 SWAP1 PUSH2 0x1674 JUMP JUMPDEST PUSH1 0x40 MLOAD DUP1 SWAP2 SUB SWAP1 RETURN JUMPDEST PUSH2 0x2FB PUSH2 0x13FB JUMP JUMPDEST PUSH1 0x40 MLOAD PUSH2 0x308 SWAP2 SWAP1 PUSH2 0x15A2 JUMP JUMPDEST PUSH1 0x40 MLOAD DUP1 SWAP2 SUB SWAP1 RETURN JUMPDEST PUSH2 0x31A CALLER PUSH2 0x135B JUMP JUMPDEST PUSH2 0x359 JUMPI PUSH1 0x40 MLOAD PUSH32 0x8C379A000000000000000000000000000000000000000000000000000000000 DUP2 MSTORE PUSH1 0x4 ADD PUSH2 0x350 SWAP1 PUSH2 0x178C JUMP JUMPDEST PUSH1 0x40 MLOAD DUP1 SWAP2 SUB SWAP1 REVERT JUMPDEST PUSH0 PUSH1 0x2 DUP3 DUP2 SLOAD DUP2 LT PUSH2 0x36E JUMPI PUSH2 0x36D PUSH2 0x17AA JUMP JUMPDEST JUMPDEST SWAP1 PUSH0 MSTORE PUSH1 0x20 PUSH0 KECCAK256 SWAP1 PUSH1 0x6 MUL ADD SWAP1 POP DUP1 PUSH1 0x5 ADD PUSH0 CALLER PUSH20 0xFFFFFFFFFFFFFFFFFFFFFFFFFFFFFFFFFFFFFFFF AND PUSH20 0xFFFFFFFFFFFFFFFFFFFFFFFFFFFFFFFFFFFFFFFF AND DUP2 MSTORE PUSH1 0x20 ADD SWAP1 DUP2 MSTORE PUSH1 0x20 ADD PUSH0 KECCAK256 PUSH0 SWAP1 SLOAD SWAP1 PUSH2 0x100 EXP SWAP1 DIV PUSH1 0xFF AND ISZERO PUSH2 0x408 JUMPI PUSH1 0x40 MLOAD PUSH32 0x8C379A000000000000000000000000000000000000000000000000000000000 DUP2 MSTORE PUSH1 0x4 ADD PUSH2 0x3FF SWAP1 PUSH2 0x1821 JUMP JUMPDEST PUSH1 0x40 MLOAD DUP1 SWAP2 SUB SWAP1 REVERT JUMPDEST DUP1 PUSH1 0x4 ADD PUSH0 SWAP1 SLOAD SWAP1 PUSH2 0x100 EXP SWAP1 DIV PUSH1 0xFF AND ISZERO PUSH2 0x459 JUMPI PUSH1 0x40 MLOAD PUSH32 0x8C379A000000000000000000000000000000000000000000000000000000000 DUP2 MSTORE PUSH1 0x4 ADD PUSH2 0x450 SWAP1 PUSH2 0x1889 JUMP JUMPDEST PUSH1 0x40 MLOAD DUP1 SWAP2 SUB SWAP1 REVERT JUMPDEST PUSH1 0x1 DUP2 PUSH1 0x5 ADD PUSH0 CALLER PUSH20 0xFFFFFFFFFFFFFFFFFFFFFFFFFFFFFFFFFFFFFFFF AND PUSH20 0xFFFFFFFFFFFFFFFFFFFFFFFFFFFFFFFFFFFFFFFF AND DUP2 MSTORE PUSH1 0x20 ADD SWAP1 DUP2 MSTORE PUSH1 0x20 ADD PUSH0 KECCAK256 PUSH0 PUSH2 0x100 EXP DUP2 SLOAD DUP2 PUSH1 0xFF MUL NOT AND SWAP1 DUP4 ISZERO ISZERO MUL OR SWAP1 SSTORE POP PUSH1 0x1 DUP2 PUSH1 0x2 ADD PUSH0 DUP3 DUP3 SLOAD PUSH2 0x4C4 SWAP2 SWAP1 PUSH2 0x18D4 JUMP JUMPDEST SWAP3 POP POP DUP2 SWAP1 SSTORE POP CALLER PUSH20 0xFFFFFFFFFFFFFFFFFFFFFFFFFFFFFFFFFFFFFFFF AND DUP3 PUSH32 0xF1003B73C437642C0460AEE9CD9628B0B8C447B66E6C7C905531B9C644214A11 PUSH1 0x40 MLOAD PUSH1 0x40 MLOAD DUP1 SWAP2 SUB SWAP1 LOG3 POP POP JUMP JUMPDEST PUSH1 0x2 DUP2 DUP2 SLOAD DUP2 LT PUSH2 0x522 JUMPI PUSH0 DUP1 REVERT JUMPDEST SWAP1 PUSH0 MSTORE PUSH1 0x20 PUSH0 KECCAK256 SWAP1 PUSH1 0x6 MUL ADD PUSH0 SWAP2 POP SWAP1 POP DUP1 PUSH0 ADD SLOAD SWAP1 DUP1 PUSH1 0x1 ADD PUSH0 SWAP1 SLOAD SWAP1 PUSH2 0x100 EXP SWAP1 DIV PUSH1 0xFF AND SWAP1 DUP1 PUSH1 0x1 ADD PUSH1 0x1 SWAP1 SLOAD SWAP1 PUSH2 0x100 EXP SWAP1 DIV PUSH20 0xFFFFFFFFFFFFFFFFFFFFFFFFFFFFFFFFFFFFFFFF AND SWAP1 DUP1 PUSH1 0x2 ADD SLOAD SWAP1 DUP1 PUSH1 0x3 ADD SLOAD SWAP1 DUP1 PUSH1 0x4 ADD PUSH0 SWAP1 SLOAD SWAP1 PUSH2 0x100 EXP SWAP1 DIV PUSH1 0xFF AND SWAP1 POP DUP7 JUMP JUMPDEST PUSH2 0x59B CALLER PUSH2 0x135B JUMP JUMPDEST PUSH2 0x5DA JUMPI PUSH1 0x40 MLOAD PUSH32 0x8C379A000000000000000000000000000000000000000000000000000000000 DUP2 MSTORE PUSH1 0x4 ADD PUSH2 0x5D1 SWAP1 PUSH2 0x178C JUMP JUMPDEST PUSH1 0x40 MLOAD DUP1 SWAP2 SUB SWAP1 REVERT JUMPDEST PUSH0 PUSH1 0x2 DUP3 DUP2 SLOAD DUP2 LT PUSH2 0x5EF JUMPI PUSH2 0x5EE PUSH2 0x17AA JUMP JUMPDEST JUMPDEST SWAP1 PUSH0 MSTORE PUSH1 0x20 PUSH0 KECCAK256 SWAP1 PUSH1 0x6 MUL ADD SWAP1 POP PUSH0 PUSH1 0x1 PUSH1 0x2 DUP4 PUSH1 0x3 ADD SLOAD PUSH2 0x611 SWAP2 SWAP1 PUSH2 0x1934 JUMP JUMPDEST PUSH2 0x61B SWAP2 SWAP1 PUSH2 0x18D4 JUMP JUMPDEST SWAP1 POP DUP1 DUP3 PUSH1 0x2 ADD SLOAD LT ISZERO PUSH2 0x664 JUMPI PUSH1 0x40 MLOAD PUSH32 0x8C379A000000000000000000000000000000000000000000000000000000000 DUP2 MSTORE PUSH1 0x4 ADD PUSH2 0x65B SWAP1 PUSH2 0x19D4 JUMP JUMPDEST PUSH1 0x40 MLOAD DUP1 SWAP2 SUB SWAP1 REVERT JUMPDEST DUP2 PUSH1 0x4 ADD PUSH0 SWAP1 SLOAD SWAP1 PUSH2 0x100 EXP SWAP1 DIV PUSH1 0xFF AND ISZERO PUSH2 0x6B5 JUMPI PUSH1 0x40 MLOAD PUSH32 0x8C379A000000000000000000000000000000000000000000000000000000000 DUP2 MSTORE PUSH1 0x4 ADD PUSH2 0x6AC SWAP1 PUSH2 0x1889 JUMP JUMPDEST PUSH1 0x40 MLOAD DUP1 SWAP2 SUB SWAP1 REVERT JUMPDEST PUSH0 PUSH1 0x3 DUP2 GT ISZERO PUSH2 0x6C8 JUMPI PUSH2 0x6C7 PUSH2 0x1477 JUMP JUMPDEST JUMPDEST DUP3 PUSH1 0x1 ADD PUSH0 SWAP1 SLOAD SWAP1 PUSH2 0x100 EXP SWAP1 DIV PUSH1 0xFF AND PUSH1 0x3 DUP2 GT ISZERO PUSH2 0x6EB JUMPI PUSH2 0x6EA PUSH2 0x1477 JUMP JUMPDEST JUMPDEST SUB PUSH2 0x870 JUMPI PUSH0 PUSH1 0x1 PUSH0 SWAP1 SLOAD SWAP1 PUSH2 0x100 EXP SWAP1 DIV PUSH20 0xFFFFFFFFFFFFFFFFFFFFFFFFFFFFFFFFFFFFFFFF AND PUSH20 0xFFFFFFFFFFFFFFFFFFFFFFFFFFFFFFFFFFFFFFFF AND DUP4 PUSH1 0x1 ADD PUSH1 0x1 SWAP1 SLOAD SWAP1 PUSH2 0x100 EXP SWAP1 DIV PUSH20 0xFFFFFFFFFFFFFFFFFFFFFFFFFFFFFFFFFFFFFFFF AND PUSH1 0x40 MLOAD PUSH1 0x24 ADD PUSH2 0x75E SWAP2 SWAP1 PUSH2 0x168D JUMP JUMPDEST PUSH1 0x40 MLOAD PUSH1 0x20 DUP2 DUP4 SUB SUB DUP2 MSTORE SWAP1 PUSH1 0x40 MSTORE PUSH32 0xBD4D8BCB00000000000000000000000000000000000000000000000000000000 PUSH28 0xFFFFFFFFFFFFFFFFFFFFFFFFFFFFFFFFFFFFFFFFFFFFFFFFFFFFFFFF NOT AND PUSH1 0x20 DUP3 ADD DUP1 MLOAD PUSH28 0xFFFFFFFFFFFFFFFFFFFFFFFFFFFFFFFFFFFFFFFFFFFFFFFFFFFFFFFF DUP4 DUP2 DUP4 AND OR DUP4 MSTORE POP POP POP POP PUSH1 0x40 MLOAD PUSH2 0x7E8 SWAP2 SWAP1 PUSH2 0x1A44 JUMP JUMPDEST PUSH0 PUSH1 0x40 MLOAD DUP1 DUP4 SUB DUP2 PUSH0 DUP7 GAS CALL SWAP2 POP POP RETURNDATASIZE DUP1 PUSH0 DUP2 EQ PUSH2 0x821 JUMPI PUSH1 0x40 MLOAD SWAP2 POP PUSH1 0x1F NOT PUSH1 0x3F RETURNDATASIZE ADD AND DUP3 ADD PUSH1 0x40 MSTORE RETURNDATASIZE DUP3 MSTORE RETURNDATASIZE PUSH0 PUSH1 0x20 DUP5 ADD RETURNDATACOPY PUSH2 0x826 JUMP JUMPDEST PUSH1 0x60 SWAP2 POP JUMPDEST POP POP SWAP1 POP DUP1 PUSH2 0x86A JUMPI PUSH1 0x40 MLOAD PUSH32 0x8C379A000000000000000000000000000000000000000000000000000000000 DUP2 MSTORE PUSH1 0x4 ADD PUSH2 0x861 SWAP1 PUSH2 0x1AA4 JUMP JUMPDEST PUSH1 0x40 MLOAD DUP1 SWAP2 SUB SWAP1 REVERT JUMPDEST POP PUSH2 0xEBC JUMP JUMPDEST PUSH1 0x1 PUSH1 0x3 DUP2 GT ISZERO PUSH2 0x884 JUMPI PUSH2 0x883 PUSH2 0x1477 JUMP JUMPDEST JUMPDEST DUP3 PUSH1 0x1 ADD PUSH0 SWAP1 SLOAD SWAP1 PUSH2 0x100 EXP SWAP1 DIV PUSH1 0xFF AND PUSH1 0x3 DUP2 GT ISZERO PUSH2 0x8A7 JUMPI PUSH2 0x8A6 PUSH2 0x1477 JUMP JUMPDEST JUMPDEST SUB PUSH2 0xA2C JUMPI PUSH0 PUSH1 0x1 PUSH0 SWAP1 SLOAD SWAP1 PUSH2 0x100 EXP SWAP1 DIV PUSH20 0xFFFFFFFFFFFFFFFFFFFFFFFFFFFFFFFFFFFFFFFF AND PUSH20 0xFFFFFFFFFFFFFFFFFFFFFFFFFFFFFFFFFFFFFFFF AND DUP4 PUSH1 0x1 ADD PUSH1 0x1 SWAP1 SLOAD SWAP1 PUSH2 0x100 EXP SWAP1 DIV PUSH20 0xFFFFFFFFFFFFFFFFFFFFFFFFFFFFFFFFFFFFFFFF AND PUSH1 0x40 MLOAD PUSH1 0x24 ADD PUSH2 0x91A SWAP2 SWAP1 PUSH2 0x168D JUMP JUMPDEST PUSH1 0x40 MLOAD PUSH1 0x20 DUP2 DUP4 SUB SUB DUP2 MSTORE SWAP1 PUSH1 0x40 MSTORE PUSH32 0x1C67494E00000000000000000000000000000000000000000000000000000000 PUSH28 0xFFFFFFFFFFFFFFFFFFFFFFFFFFFFFFFFFFFFFFFFFFFFFFFFFFFFFFFF NOT AND PUSH1 0x20 DUP3 ADD DUP1 MLOAD PUSH28 0xFFFFFFFFFFFFFFFFFFFFFFFFFFFFFFFFFFFFFFFFFFFFFFFFFFFFFFFF DUP4 DUP2 DUP4 AND OR DUP4 MSTORE POP POP POP POP PUSH1 0x40 MLOAD PUSH2 0x9A4 SWAP2 SWAP1 PUSH2 0x1A44 JUMP JUMPDEST PUSH0 PUSH1 0x40 MLOAD DUP1 DUP4 SUB DUP2 PUSH0 DUP7 GAS CALL SWAP2 POP POP RETURNDATASIZE DUP1 PUSH0 DUP2 EQ PUSH2 0x9DD JUMPI PUSH1 0x40 MLOAD SWAP2 POP PUSH1 0x1F NOT PUSH1 0x3F RETURNDATASIZE ADD AND DUP3 ADD PUSH1 0x40 MSTORE RETURNDATASIZE DUP3 MSTORE RETURNDATASIZE PUSH0 PUSH1 0x20 DUP5 ADD RETURNDATACOPY PUSH2 0x9E2 JUMP JUMPDEST PUSH1 0x60 SWAP2 POP JUMPDEST POP POP SWAP1 POP DUP1 PUSH2 0xA26 JUMPI PUSH1 0x40 MLOAD PUSH32 0x8C379A000000000000000000000000000000000000000000000000000000000 DUP2 MSTORE PUSH1 0x4 ADD PUSH2 0xA1D SWAP1 PUSH2 0x1B0C JUMP JUMPDEST PUSH1 0x40 MLOAD DUP1 SWAP2 SUB SWAP1 REVERT JUMPDEST POP PUSH2 0xEBB JUMP JUMPDEST PUSH1 0x2 PUSH1 0x3 DUP2 GT ISZERO PUSH2 0xA40 JUMPI PUSH2 0xA3F PUSH2 0x1477 JUMP JUMPDEST JUMPDEST DUP3 PUSH1 0x1 ADD PUSH0 SWAP1 SLOAD SWAP1 PUSH2 0x100 EXP SWAP1 DIV PUSH1 0xFF AND PUSH1 0x3 DUP2 GT ISZERO PUSH2 0xA63 JUMPI PUSH2 0xA62 PUSH2 0x1477 JUMP JUMPDEST JUMPDEST SUB PUSH2 0xBC4 JUMPI PUSH2 0xA95 DUP3 PUSH1 0x1 ADD PUSH1 0x1 SWAP1 SLOAD SWAP1 PUSH2 0x100 EXP SWAP1 DIV PUSH20 0xFFFFFFFFFFFFFFFFFFFFFFFFFFFFFFFFFFFFFFFF AND PUSH2 0x135B JUMP JUMPDEST ISZERO PUSH2 0xAD5 JUMPI PUSH1 0x40 MLOAD PUSH32 0x8C379A000000000000000000000000000000000000000000000000000000000 DUP2 MSTORE PUSH1 0x4 ADD PUSH2 0xACC SWAP1 PUSH2 0x1B74 JUMP JUMPDEST PUSH1 0x40 MLOAD DUP1 SWAP2 SUB SWAP1 REVERT JUMPDEST PUSH0 DUP3 PUSH1 0x1 ADD PUSH1 0x1 SWAP1 SLOAD SWAP1 PUSH2 0x100 EXP SWAP1 DIV PUSH20 0xFFFFFFFFFFFFFFFFFFFFFFFFFFFFFFFFFFFFFFFF AND SWAP1 DUP1 PUSH1 0x1 DUP2 SLOAD ADD DUP1 DUP3 SSTORE DUP1 SWAP2 POP POP PUSH1 0x1 SWAP1 SUB SWAP1 PUSH0 MSTORE PUSH1 0x20 PUSH0 KECCAK256 ADD PUSH0 SWAP1 SWAP2 SWAP1 SWAP2 SWAP1 SWAP2 PUSH2 0x100 EXP DUP2 SLOAD DUP2 PUSH20 0xFFFFFFFFFFFFFFFFFFFFFFFFFFFFFFFFFFFFFFFF MUL NOT AND SWAP1 DUP4 PUSH20 0xFFFFFFFFFFFFFFFFFFFFFFFFFFFFFFFFFFFFFFFF AND MUL OR SWAP1 SSTORE POP DUP2 PUSH1 0x1 ADD PUSH1 0x1 SWAP1 SLOAD SWAP1 PUSH2 0x100 EXP SWAP1 DIV PUSH20 0xFFFFFFFFFFFFFFFFFFFFFFFFFFFFFFFFFFFFFFFF AND PUSH20 0xFFFFFFFFFFFFFFFFFFFFFFFFFFFFFFFFFFFFFFFF AND PUSH32 0xDC5A48D79E2E147530FF63ECDBED5A5A66ADB9D5CF339384D5D076DA197C40B5 PUSH1 0x40 MLOAD PUSH1 0x40 MLOAD DUP1 SWAP2 SUB SWAP1 LOG2 PUSH2 0xEBA JUMP JUMPDEST PUSH1 0x3 DUP1 DUP2 GT ISZERO PUSH2 0xBD7 JUMPI PUSH2 0xBD6 PUSH2 0x1477 JUMP JUMPDEST JUMPDEST DUP3 PUSH1 0x1 ADD PUSH0 SWAP1 SLOAD SWAP1 PUSH2 0x100 EXP SWAP1 DIV PUSH1 0xFF AND PUSH1 0x3 DUP2 GT ISZERO PUSH2 0xBFA JUMPI PUSH2 0xBF9 PUSH2 0x1477 JUMP JUMPDEST JUMPDEST SUB PUSH2 0xEB9 JUMPI PUSH2 0xC2C DUP3 PUSH1 0x1 ADD PUSH1 0x1 SWAP1 SLOAD SWAP1 PUSH2 0x100 EXP SWAP1 DIV PUSH20 0xFFFFFFFFFFFFFFFFFFFFFFFFFFFFFFFFFFFFFFFF AND PUSH2 0x135B JUMP JUMPDEST PUSH2 0xC6B JUMPI PUSH1 0x40 MLOAD PUSH32 0x8C379A000000000000000000000000000000000000000000000000000000000 DUP2 MSTORE PUSH1 0x4 ADD PUSH2 0xC62 SWAP1 PUSH2 0x178C JUMP JUMPDEST PUSH1 0x40 MLOAD DUP1 SWAP2 SUB SWAP1 REVERT JUMPDEST PUSH1 0x2 PUSH2 0xC75 PUSH2 0x13FB JUMP JUMPDEST LT ISZERO PUSH2 0xCB6 JUMPI PUSH1 0x40 MLOAD PUSH32 0x8C379A000000000000000000000000000000000000000000000000000000000 DUP2 MSTORE PUSH1 0x4 ADD PUSH2 0xCAD SWAP1 PUSH2 0x1C02 JUMP JUMPDEST PUSH1 0x40 MLOAD DUP1 SWAP2 SUB SWAP1 REVERT JUMPDEST PUSH0 PUSH0 SWAP1 POP JUMPDEST PUSH0 DUP1 SLOAD SWAP1 POP DUP2 LT ISZERO PUSH2 0xEB7 JUMPI DUP3 PUSH1 0x1 ADD PUSH1 0x1 SWAP1 SLOAD SWAP1 PUSH2 0x100 EXP SWAP1 DIV PUSH20 0xFFFFFFFFFFFFFFFFFFFFFFFFFFFFFFFFFFFFFFFF AND PUSH20 0xFFFFFFFFFFFFFFFFFFFFFFFFFFFFFFFFFFFFFFFF AND PUSH0 DUP3 DUP2 SLOAD DUP2 LT PUSH2 0xD15 JUMPI PUSH2 0xD14 PUSH2 0x17AA JUMP JUMPDEST JUMPDEST SWAP1 PUSH0 MSTORE PUSH1 0x20 PUSH0 KECCAK256 ADD PUSH0 SWAP1 SLOAD SWAP1 PUSH2 0x100 EXP SWAP1 DIV PUSH20 0xFFFFFFFFFFFFFFFFFFFFFFFFFFFFFFFFFFFFFFFF AND PUSH20 0xFFFFFFFFFFFFFFFFFFFFFFFFFFFFFFFFFFFFFFFF AND SUB PUSH2 0xEAA JUMPI PUSH0 PUSH1 0x1 PUSH0 DUP1 SLOAD SWAP1 POP PUSH2 0xD6A SWAP2 SWAP1 PUSH2 0x1C20 JUMP JUMPDEST DUP2 SLOAD DUP2 LT PUSH2 0xD7B JUMPI PUSH2 0xD7A PUSH2 0x17AA JUMP JUMPDEST JUMPDEST SWAP1 PUSH0 MSTORE PUSH1 0x20 PUSH0 KECCAK256 ADD PUSH0 SWAP1 SLOAD SWAP1 PUSH2 0x100 EXP SWAP1 DIV PUSH20 0xFFFFFFFFFFFFFFFFFFFFFFFFFFFFFFFFFFFFFFFF AND PUSH0 DUP3 DUP2 SLOAD DUP2 LT PUSH2 0xDB6 JUMPI PUSH2 0xDB5 PUSH2 0x17AA JUMP JUMPDEST JUMPDEST SWAP1 PUSH0 MSTORE PUSH1 0x20 PUSH0 KECCAK256 ADD PUSH0 PUSH2 0x100 EXP DUP2 SLOAD DUP2 PUSH20 0xFFFFFFFFFFFFFFFFFFFFFFFFFFFFFFFFFFFFFFFF MUL NOT AND SWAP1 DUP4 PUSH20 0xFFFFFFFFFFFFFFFFFFFFFFFFFFFFFFFFFFFFFFFF AND MUL OR SWAP1 SSTORE POP PUSH0 DUP1 SLOAD DUP1 PUSH2 0xE0C JUMPI PUSH2 0xE0B PUSH2 0x1C53 JUMP JUMPDEST JUMPDEST PUSH1 0x1 SWAP1 SUB DUP2 DUP2 SWAP1 PUSH0 MSTORE PUSH1 0x20 PUSH0 KECCAK256 ADD PUSH0 PUSH2 0x100 EXP DUP2 SLOAD SWAP1 PUSH20 0xFFFFFFFFFFFFFFFFFFFFFFFFFFFFFFFFFFFFFFFF MUL NOT AND SWAP1 SSTORE SWAP1 SSTORE DUP3 PUSH1 0x1 ADD PUSH1 0x1 SWAP1 SLOAD SWAP1 PUSH2 0x100 EXP SWAP1 DIV PUSH20 0xFFFFFFFFFFFFFFFFFFFFFFFFFFFFFFFFFFFFFFFF AND PUSH20 0xFFFFFFFFFFFFFFFFFFFFFFFFFFFFFFFFFFFFFFFF AND PUSH32 0x1EBE834E73D60A5FEC822C1E1727D34BC79F2AD977ED504581CC1822FE20FB5B PUSH1 0x40 MLOAD PUSH1 0x40 MLOAD DUP1 SWAP2 SUB SWAP1 LOG2 PUSH2 0xEB7 JUMP JUMPDEST DUP1 DUP1 PUSH1 0x1 ADD SWAP2 POP POP PUSH2 0xCBB JUMP JUMPDEST POP JUMPDEST JUMPDEST JUMPDEST JUMPDEST PUSH1 0x1 DUP3 PUSH1 0x4 ADD PUSH0 PUSH2 0x100 EXP DUP2 SLOAD DUP2 PUSH1 0xFF MUL NOT AND SWAP1 DUP4 ISZERO ISZERO MUL OR SWAP1 SSTORE POP DUP3 PUSH32 0x712AE1383F79AC853F8D882153778E0260EF8F03B504E2866E0593E04D2B291F PUSH1 0x40 MLOAD PUSH1 0x40 MLOAD DUP1 SWAP2 SUB SWAP1 LOG2 POP POP POP JUMP JUMPDEST PUSH0 PUSH1 0x1 PUSH1 0x2 PUSH0 DUP1 SLOAD SWAP1 POP PUSH2 0xF1E SWAP2 SWAP1 PUSH2 0x1934 JUMP JUMPDEST PUSH2 0xF28 SWAP2 SWAP1 PUSH2 0x18D4 JUMP JUMPDEST SWAP1 POP SWAP1 JUMP JUMPDEST PUSH0 PUSH0 PUSH0 PUSH0 PUSH0 PUSH0 PUSH1 0x2 DUP8 DUP2 SLOAD DUP2 LT PUSH2 0xF47 JUMPI PUSH2 0xF46 PUSH2 0x17AA JUMP JUMPDEST JUMPDEST SWAP1 PUSH0 MSTORE PUSH1 0x20 PUSH0 KECCAK256 SWAP1 PUSH1 0x6 MUL ADD SWAP1 POP DUP1 PUSH1 0x1 ADD PUSH0 SWAP1 SLOAD SWAP1 PUSH2 0x100 EXP SWAP1 DIV PUSH1 0xFF AND DUP2 PUSH1 0x1 ADD PUSH1 0x1 SWAP1 SLOAD SWAP1 PUSH2 0x100 EXP SWAP1 DIV PUSH20 0xFFFFFFFFFFFFFFFFFFFFFFFFFFFFFFFFFFFFFFFF AND DUP3 PUSH1 0x2 ADD SLOAD DUP4 PUSH1 0x3 ADD SLOAD DUP5 PUSH1 0x4 ADD PUSH0 SWAP1 SLOAD SWAP1 PUSH2 0x100 EXP SWAP1 DIV PUSH1 0xFF AND SWAP6 POP SWAP6 POP SWAP6 POP SWAP6 POP SWAP6 POP POP SWAP2 SWAP4 SWAP6 SWAP1 SWAP3 SWAP5 POP JUMP JUMPDEST PUSH0 PUSH1 0x2 DUP4 DUP2 SLOAD DUP2 LT PUSH2 0xFCF JUMPI PUSH2 0xFCE PUSH2 0x17AA JUMP JUMPDEST JUMPDEST SWAP1 PUSH0 MSTORE PUSH1 0x20 PUSH0 KECCAK256 SWAP1 PUSH1 0x6 MUL ADD PUSH1 0x5 ADD PUSH0 DUP4 PUSH20 0xFFFFFFFFFFFFFFFFFFFFFFFFFFFFFFFFFFFFFFFF AND PUSH20 0xFFFFFFFFFFFFFFFFFFFFFFFFFFFFFFFFFFFFFFFF AND DUP2 MSTORE PUSH1 0x20 ADD SWAP1 DUP2 MSTORE PUSH1 0x20 ADD PUSH0 KECCAK256 PUSH0 SWAP1 SLOAD SWAP1 PUSH2 0x100 EXP SWAP1 DIV PUSH1 0xFF AND SWAP1 POP SWAP3 SWAP2 POP POP JUMP JUMPDEST PUSH0 PUSH0 PUSH1 0x2 DUP4 DUP2 SLOAD DUP2 LT PUSH2 0x1044 JUMPI PUSH2 0x1043 PUSH2 0x17AA JUMP JUMPDEST JUMPDEST SWAP1 PUSH0 MSTORE PUSH1 0x20 PUSH0 KECCAK256 SWAP1 PUSH1 0x6 MUL ADD SWAP1 POP PUSH1 0x1 PUSH1 0x2 DUP3 PUSH1 0x3 ADD SLOAD PUSH2 0x1065 SWAP2 SWAP1 PUSH2 0x1934 JUMP JUMPDEST PUSH2 0x106F SWAP2 SWAP1 PUSH2 0x18D4 JUMP JUMPDEST SWAP2 POP POP SWAP2 SWAP1 POP JUMP JUMPDEST PUSH0 DUP2 DUP2 SLOAD DUP2 LT PUSH2 0x1085 JUMPI PUSH0 DUP1 REVERT JUMPDEST SWAP1 PUSH0 MSTORE PUSH1 0x20 PUSH0 KECCAK256 ADD PUSH0 SWAP2 POP SLOAD SWAP1 PUSH2 0x100 EXP SWAP1 DIV PUSH20 0xFFFFFFFFFFFFFFFFFFFFFFFFFFFFFFFFFFFFFFFF AND DUP2 JUMP JUMPDEST PUSH0 PUSH2 0x10BB CALLER PUSH2 0x135B JUMP JUMPDEST PUSH2 0x10FA JUMPI PUSH1 0x40 MLOAD PUSH32 0x8C379A000000000000000000000000000000000000000000000000000000000 DUP2 MSTORE PUSH1 0x4 ADD PUSH2 0x10F1 SWAP1 PUSH2 0x178C JUMP JUMPDEST PUSH1 0x40 MLOAD DUP1 SWAP2 SUB SWAP1 REVERT JUMPDEST PUSH0 PUSH1 0x2 DUP1 SLOAD SWAP1 POP SWAP1 POP PUSH0 PUSH1 0x2 PUSH1 0x1 DUP2 PUSH1 0x1 DUP2 SLOAD ADD DUP1 DUP3 SSTORE DUP1 SWAP2 POP POP SUB SWAP1 PUSH0 MSTORE PUSH1 0x20 PUSH0 KECCAK256 SWAP1 PUSH1 0x6 MUL ADD SWAP1 POP DUP2 DUP2 PUSH0 ADD DUP2 SWAP1 SSTORE POP DUP5 DUP2 PUSH1 0x1 ADD PUSH0 PUSH2 0x100 EXP DUP2 SLOAD DUP2 PUSH1 0xFF MUL NOT AND SWAP1 DUP4 PUSH1 0x3 DUP2 GT ISZERO PUSH2 0x1152 JUMPI PUSH2 0x1151 PUSH2 0x1477 JUMP JUMPDEST JUMPDEST MUL OR SWAP1 SSTORE POP DUP4 DUP2 PUSH1 0x1 ADD PUSH1 0x1 PUSH2 0x100 EXP DUP2 SLOAD DUP2 PUSH20 0xFFFFFFFFFFFFFFFFFFFFFFFFFFFFFFFFFFFFFFFF MUL NOT AND SWAP1 DUP4 PUSH20 0xFFFFFFFFFFFFFFFFFFFFFFFFFFFFFFFFFFFFFFFF AND MUL OR SWAP1 SSTORE POP PUSH0 DUP2 PUSH1 0x2 ADD DUP2 SWAP1 SSTORE POP PUSH0 DUP1 SLOAD SWAP1 POP DUP2 PUSH1 0x3 ADD DUP2 SWAP1 SSTORE POP PUSH0 DUP2 PUSH1 0x4 ADD PUSH0 PUSH2 0x100 EXP DUP2 SLOAD DUP2 PUSH1 0xFF MUL NOT AND SWAP1 DUP4 ISZERO ISZERO MUL OR SWAP1 SSTORE POP DUP2 PUSH32 0x3263432A41F78A4701CC9465F62411ED717ADE32290C084135A3DD6B29F4BF28 DUP7 DUP7 PUSH1 0x40 MLOAD PUSH2 0x11FD SWAP3 SWAP2 SWAP1 PUSH2 0x1C80 JUMP JUMPDEST PUSH1 0x40 MLOAD DUP1 SWAP2 SUB SWAP1 LOG2 DUP2 SWAP3 POP POP POP SWAP3 SWAP2 POP POP JUMP JUMPDEST PUSH0 PUSH1 0x2 DUP1 SLOAD SWAP1 POP SWAP1 POP SWAP1 JUMP JUMPDEST PUSH1 0x1 PUSH0 SWAP1 SLOAD SWAP1 PUSH2 0x100 EXP SWAP1 DIV PUSH20 0xFFFFFFFFFFFFFFFFFFFFFFFFFFFFFFFFFFFFFFFF AND DUP2 JUMP JUMPDEST PUSH2 0x124A CALLER PUSH2 0x135B JUMP JUMPDEST PUSH2 0x1289 JUMPI PUSH1 0x40 MLOAD PUSH32 0x8C379A000000000000000000000000000000000000000000000000000000000 DUP2 MSTORE PUSH1 0x4 ADD PUSH2 0x1280 SWAP1 PUSH2 0x178C JUMP JUMPDEST PUSH1 0x40 MLOAD DUP1 SWAP2 SUB SWAP1 REVERT JUMPDEST PUSH0 PUSH20 0xFFFFFFFFFFFFFFFFFFFFFFFFFFFFFFFFFFFFFFFF AND PUSH1 0x1 PUSH0 SWAP1 SLOAD SWAP1 PUSH2 0x100 EXP SWAP1 DIV PUSH20 0xFFFFFFFFFFFFFFFFFFFFFFFFFFFFFFFFFFFFFFFF AND PUSH20 0xFFFFFFFFFFFFFFFFFFFFFFFFFFFFFFFFFFFFFFFF AND EQ PUSH2 0x1318 JUMPI PUSH1 0x40 MLOAD PUSH32 0x8C379A000000000000000000000000000000000000000000000000000000000 DUP2 MSTORE PUSH1 0x4 ADD PUSH2 0x130F SWAP1 PUSH2 0x1CF1 JUMP JUMPDEST PUSH1 0x40 MLOAD DUP1 SWAP2 SUB SWAP1 REVERT JUMPDEST DUP1 PUSH1 0x1 PUSH0 PUSH2 0x100 EXP DUP2 SLOAD DUP2 PUSH20 0xFFFFFFFFFFFFFFFFFFFFFFFFFFFFFFFFFFFFFFFF MUL NOT AND SWAP1 DUP4 PUSH20 0xFFFFFFFFFFFFFFFFFFFFFFFFFFFFFFFFFFFFFFFF AND MUL OR SWAP1 SSTORE POP POP JUMP JUMPDEST PUSH0 PUSH0 PUSH0 SWAP1 POP JUMPDEST PUSH0 DUP1 SLOAD SWAP1 POP DUP2 LT ISZERO PUSH2 0x13F1 JUMPI DUP3 PUSH20 0xFFFFFFFFFFFFFFFFFFFFFFFFFFFFFFFFFFFFFFFF AND PUSH0 DUP3 DUP2 SLOAD DUP2 LT PUSH2 0x1397 JUMPI PUSH2 0x1396 PUSH2 0x17AA JUMP JUMPDEST JUMPDEST SWAP1 PUSH0 MSTORE PUSH1 0x20 PUSH0 KECCAK256 ADD PUSH0 SWAP1 SLOAD SWAP1 PUSH2 0x100 EXP SWAP1 DIV PUSH20 0xFFFFFFFFFFFFFFFFFFFFFFFFFFFFFFFFFFFFFFFF AND PUSH20 0xFFFFFFFFFFFFFFFFFFFFFFFFFFFFFFFFFFFFFFFF AND SUB PUSH2 0x13E4 JUMPI PUSH1 0x1 SWAP2 POP POP PUSH2 0x13F6 JUMP JUMPDEST DUP1 DUP1 PUSH1 0x1 ADD SWAP2 POP POP PUSH2 0x1361 JUMP JUMPDEST POP PUSH0 SWAP1 POP JUMPDEST SWAP2 SWAP1 POP JUMP JUMPDEST PUSH0 PUSH0 DUP1 SLOAD SWAP1 POP SWAP1 POP SWAP1 JUMP JUMPDEST PUSH0 PUSH0 REVERT JUMPDEST PUSH0 DUP2 SWAP1 POP SWAP2 SWAP1 POP JUMP JUMPDEST PUSH2 0x141C DUP2 PUSH2 0x140A JUMP JUMPDEST DUP2 EQ PUSH2 0x1426 JUMPI PUSH0 PUSH0 REVERT JUMPDEST POP JUMP JUMPDEST PUSH0 DUP2 CALLDATALOAD SWAP1 POP PUSH2 0x1437 DUP2 PUSH2 0x1413 JUMP JUMPDEST SWAP3 SWAP2 POP POP JUMP JUMPDEST PUSH0 PUSH1 0x20 DUP3 DUP5 SUB SLT ISZERO PUSH2 0x1452 JUMPI PUSH2 0x1451 PUSH2 0x1406 JUMP JUMPDEST JUMPDEST PUSH0 PUSH2 0x145F DUP5 DUP3 DUP6 ADD PUSH2 0x1429 JUMP JUMPDEST SWAP2 POP POP SWAP3 SWAP2 POP POP JUMP JUMPDEST PUSH2 0x1471 DUP2 PUSH2 0x140A JUMP JUMPDEST DUP3 MSTORE POP POP JUMP JUMPDEST PUSH32 0x4E487B7100000000000000000000000000000000000000000000000000000000 PUSH0 MSTORE PUSH1 0x21 PUSH1 0x4 MSTORE PUSH1 0x24 PUSH0 REVERT JUMPDEST PUSH1 0x4 DUP2 LT PUSH2 0x14B5 JUMPI PUSH2 0x14B4 PUSH2 0x1477 JUMP JUMPDEST JUMPDEST POP JUMP JUMPDEST PUSH0 DUP2 SWAP1 POP PUSH2 0x14C5 DUP3 PUSH2 0x14A4 JUMP JUMPDEST SWAP2 SWAP1 POP JUMP JUMPDEST PUSH0 PUSH2 0x14D4 DUP3 PUSH2 0x14B8 JUMP JUMPDEST SWAP1 POP SWAP2 SWAP1 POP JUMP JUMPDEST PUSH2 0x14E4 DUP2 PUSH2 0x14CA JUMP JUMPDEST DUP3 MSTORE POP POP JUMP JUMPDEST PUSH0 PUSH20 0xFFFFFFFFFFFFFFFFFFFFFFFFFFFFFFFFFFFFFFFF DUP3 AND SWAP1 POP SWAP2 SWAP1 POP JUMP JUMPDEST PUSH0 PUSH2 0x1513 DUP3 PUSH2 0x14EA JUMP JUMPDEST SWAP1 POP SWAP2 SWAP1 POP JUMP JUMPDEST PUSH2 0x1523 DUP2 PUSH2 0x1509 JUMP JUMPDEST DUP3 MSTORE POP POP JUMP JUMPDEST PUSH0 DUP2 ISZERO ISZERO SWAP1 POP SWAP2 SWAP1 POP JUMP JUMPDEST PUSH2 0x153D DUP2 PUSH2 0x1529 JUMP JUMPDEST DUP3 MSTORE POP POP JUMP JUMPDEST PUSH0 PUSH1 0xC0 DUP3 ADD SWAP1 POP PUSH2 0x1556 PUSH0 DUP4 ADD DUP10 PUSH2 0x1468 JUMP JUMPDEST PUSH2 0x1563 PUSH1 0x20 DUP4 ADD DUP9 PUSH2 0x14DB JUMP JUMPDEST PUSH2 0x1570 PUSH1 0x40 DUP4 ADD DUP8 PUSH2 0x151A JUMP JUMPDEST PUSH2 0x157D PUSH1 0x60 DUP4 ADD DUP7 PUSH2 0x1468 JUMP JUMPDEST PUSH2 0x158A PUSH1 0x80 DUP4 ADD DUP6 PUSH2 0x1468 JUMP JUMPDEST PUSH2 0x1597 PUSH1 0xA0 DUP4 ADD DUP5 PUSH2 0x1534 JUMP JUMPDEST SWAP8 SWAP7 POP POP POP POP POP POP POP JUMP JUMPDEST PUSH0 PUSH1 0x20 DUP3 ADD SWAP1 POP PUSH2 0x15B5 PUSH0 DUP4 ADD DUP5 PUSH2 0x1468 JUMP JUMPDEST SWAP3 SWAP2 POP POP JUMP JUMPDEST PUSH0 PUSH1 0xA0 DUP3 ADD SWAP1 POP PUSH2 0x15CE PUSH0 DUP4 ADD DUP9 PUSH2 0x14DB JUMP JUMPDEST PUSH2 0x15DB PUSH1 0x20 DUP4 ADD DUP8 PUSH2 0x151A JUMP JUMPDEST PUSH2 0x15E8 PUSH1 0x40 DUP4 ADD DUP7 PUSH2 0x1468 JUMP JUMPDEST PUSH2 0x15F5 PUSH1 0x60 DUP4 ADD DUP6 PUSH2 0x1468 JUMP JUMPDEST PUSH2 0x1602 PUSH1 0x80 DUP4 ADD DUP5 PUSH2 0x1534 JUMP JUMPDEST SWAP7 SWAP6 POP POP POP POP POP POP JUMP JUMPDEST PUSH2 0x1615 DUP2 PUSH2 0x1509 JUMP JUMPDEST DUP2 EQ PUSH2 0x161F JUMPI PUSH0 PUSH0 REVERT JUMPDEST POP JUMP JUMPDEST PUSH0 DUP2 CALLDATALOAD SWAP1 POP PUSH2 0x1630 DUP2 PUSH2 0x160C JUMP JUMPDEST SWAP3 SWAP2 POP POP JUMP JUMPDEST PUSH0 PUSH0 PUSH1 0x40 DUP4 DUP6 SUB SLT ISZERO PUSH2 0x164C JUMPI PUSH2 0x164B PUSH2 0x1406 JUMP JUMPDEST JUMPDEST PUSH0 PUSH2 0x1659 DUP6 DUP3 DUP7 ADD PUSH2 0x1429 JUMP JUMPDEST SWAP3 POP POP PUSH1 0x20 PUSH2 0x166A DUP6 DUP3 DUP7 ADD PUSH2 0x1622 JUMP JUMPDEST SWAP2 POP POP SWAP3 POP SWAP3 SWAP1 POP JUMP JUMPDEST PUSH0 PUSH1 0x20 DUP3 ADD SWAP1 POP PUSH2 0x1687 PUSH0 DUP4 ADD DUP5 PUSH2 0x1534 JUMP JUMPDEST SWAP3 SWAP2 POP POP JUMP JUMPDEST PUSH0 PUSH1 0x20 DUP3 ADD SWAP1 POP PUSH2 0x16A0 PUSH0 DUP4 ADD DUP5 PUSH2 0x151A JUMP JUMPDEST SWAP3 SWAP2 POP POP JUMP JUMPDEST PUSH1 0x4 DUP2 LT PUSH2 0x16B2 JUMPI PUSH0 PUSH0 REVERT JUMPDEST POP JUMP JUMPDEST PUSH0 DUP2 CALLDATALOAD SWAP1 POP PUSH2 0x16C3 DUP2 PUSH2 0x16A6 JUMP JUMPDEST SWAP3 SWAP2 POP POP JUMP JUMPDEST PUSH0 PUSH0 PUSH1 0x40 DUP4 DUP6 SUB SLT ISZERO PUSH2 0x16DF JUMPI PUSH2 0x16DE PUSH2 0x1406 JUMP JUMPDEST JUMPDEST PUSH0 PUSH2 0x16EC DUP6 DUP3 DUP7 ADD PUSH2 0x16B5 JUMP JUMPDEST SWAP3 POP POP PUSH1 0x20 PUSH2 0x16FD DUP6 DUP3 DUP7 ADD PUSH2 0x1622 JUMP JUMPDEST SWAP2 POP POP SWAP3 POP SWAP3 SWAP1 POP JUMP JUMPDEST PUSH0 PUSH1 0x20 DUP3 DUP5 SUB SLT ISZERO PUSH2 0x171C JUMPI PUSH2 0x171B PUSH2 0x1406 JUMP JUMPDEST JUMPDEST PUSH0 PUSH2 0x1729 DUP5 DUP3 DUP6 ADD PUSH2 0x1622 JUMP JUMPDEST SWAP2 POP POP SWAP3 SWAP2 POP POP JUMP JUMPDEST PUSH0 DUP3 DUP3 MSTORE PUSH1 0x20 DUP3 ADD SWAP1 POP SWAP3 SWAP2 POP POP JUMP JUMPDEST PUSH32 0x4E6F74206120676F7665726E6F72000000000000000000000000000000000000 PUSH0 DUP3 ADD MSTORE POP JUMP JUMPDEST PUSH0 PUSH2 0x1776 PUSH1 0xE DUP4 PUSH2 0x1732 JUMP JUMPDEST SWAP2 POP PUSH2 0x1781 DUP3 PUSH2 0x1742 JUMP JUMPDEST PUSH1 0x20 DUP3 ADD SWAP1 POP SWAP2 SWAP1 POP JUMP JUMPDEST PUSH0 PUSH1 0x20 DUP3 ADD SWAP1 POP DUP2 DUP2 SUB PUSH0 DUP4 ADD MSTORE PUSH2 0x17A3 DUP2 PUSH2 0x176A JUMP JUMPDEST SWAP1 POP SWAP2 SWAP1 POP JUMP JUMPDEST PUSH32 0x4E487B7100000000000000000000000000000000000000000000000000000000 PUSH0 MSTORE PUSH1 0x32 PUSH1 0x4 MSTORE PUSH1 0x24 PUSH0 REVERT JUMPDEST PUSH32 0x476F7665726E6F7220616C726561647920766F74656400000000000000000000 PUSH0 DUP3 ADD MSTORE POP JUMP JUMPDEST PUSH0 PUSH2 0x180B PUSH1 0x16 DUP4 PUSH2 0x1732 JUMP JUMPDEST SWAP2 POP PUSH2 0x1816 DUP3 PUSH2 0x17D7 JUMP JUMPDEST PUSH1 0x20 DUP3 ADD SWAP1 POP SWAP2 SWAP1 POP JUMP JUMPDEST PUSH0 PUSH1 0x20 DUP3 ADD SWAP1 POP DUP2 DUP2 SUB PUSH0 DUP4 ADD MSTORE PUSH2 0x1838 DUP2 PUSH2 0x17FF JUMP JUMPDEST SWAP1 POP SWAP2 SWAP1 POP JUMP JUMPDEST PUSH32 0x50726F706F73616C20616C726561647920657865637574656400000000000000 PUSH0 DUP3 ADD MSTORE POP JUMP JUMPDEST PUSH0 PUSH2 0x1873 PUSH1 0x19 DUP4 PUSH2 0x1732 JUMP JUMPDEST SWAP2 POP PUSH2 0x187E DUP3 PUSH2 0x183F JUMP JUMPDEST PUSH1 0x20 DUP3 ADD SWAP1 POP SWAP2 SWAP1 POP JUMP JUMPDEST PUSH0 PUSH1 0x20 DUP3 ADD SWAP1 POP DUP2 DUP2 SUB PUSH0 DUP4 ADD MSTORE PUSH2 0x18A0 DUP2 PUSH2 0x1867 JUMP JUMPDEST SWAP1 POP SWAP2 SWAP1 POP JUMP JUMPDEST PUSH32 0x4E487B7100000000000000000000000000000000000000000000000000000000 PUSH0 MSTORE PUSH1 0x11 PUSH1 0x4 MSTORE PUSH1 0x24 PUSH0 REVERT JUMPDEST PUSH0 PUSH2 0x18DE DUP3 PUSH2 0x140A JUMP JUMPDEST SWAP2 POP PUSH2 0x18E9 DUP4 PUSH2 0x140A JUMP JUMPDEST SWAP3 POP DUP3 DUP3 ADD SWAP1 POP DUP1 DUP3 GT ISZERO PUSH2 0x1901 JUMPI PUSH2 0x1900 PUSH2 0x18A7 JUMP JUMPDEST JUMPDEST SWAP3 SWAP2 POP POP JUMP JUMPDEST PUSH32 0x4E487B7100000000000000000000000000000000000000000000000000000000 PUSH0 MSTORE PUSH1 0x12 PUSH1 0x4 MSTORE PUSH1 0x24 PUSH0 REVERT JUMPDEST PUSH0 PUSH2 0x193E DUP3 PUSH2 0x140A JUMP JUMPDEST SWAP2 POP PUSH2 0x1949 DUP4 PUSH2 0x140A JUMP JUMPDEST SWAP3 POP DUP3 PUSH2 0x1959 JUMPI PUSH2 0x1958 PUSH2 0x1907 JUMP JUMPDEST JUMPDEST DUP3 DUP3 DIV SWAP1 POP SWAP3 SWAP2 POP POP JUMP JUMPDEST PUSH32 0x496E73756666696369656E7420766F74657320746F2065786563757465207072 PUSH0 DUP3 ADD MSTORE PUSH32 0x6F706F73616C0000000000000000000000000000000000000000000000000000 PUSH1 0x20 DUP3 ADD MSTORE POP JUMP JUMPDEST PUSH0 PUSH2 0x19BE PUSH1 0x26 DUP4 PUSH2 0x1732 JUMP JUMPDEST SWAP2 POP PUSH2 0x19C9 DUP3 PUSH2 0x1964 JUMP JUMPDEST PUSH1 0x40 DUP3 ADD SWAP1 POP SWAP2 SWAP1 POP JUMP JUMPDEST PUSH0 PUSH1 0x20 DUP3 ADD SWAP1 POP DUP2 DUP2 SUB PUSH0 DUP4 ADD MSTORE PUSH2 0x19EB DUP2 PUSH2 0x19B2 JUMP JUMPDEST SWAP1 POP SWAP2 SWAP1 POP JUMP JUMPDEST PUSH0 DUP2 MLOAD SWAP1 POP SWAP2 SWAP1 POP JUMP JUMPDEST PUSH0 DUP2 SWAP1 POP SWAP3 SWAP2 POP POP JUMP JUMPDEST DUP3 DUP2 DUP4 MCOPY PUSH0 DUP4 DUP4 ADD MSTORE POP POP POP JUMP JUMPDEST PUSH0 PUSH2 0x1A1E DUP3 PUSH2 0x19F2 JUMP JUMPDEST PUSH2 0x1A28 DUP2 DUP6 PUSH2 0x19FC JUMP JUMPDEST SWAP4 POP PUSH2 0x1A38 DUP2 DUP6 PUSH1 0x20 DUP7 ADD PUSH2 0x1A06 JUMP JUMPDEST DUP1 DUP5 ADD SWAP2 POP POP SWAP3 SWAP2 POP POP JUMP JUMPDEST PUSH0 PUSH2 0x1A4F DUP3 DUP5 PUSH2 0x1A14 JUMP JUMPDEST SWAP2 POP DUP2 SWAP1 POP SWAP3 SWAP2 POP POP JUMP JUMPDEST PUSH32 0x417574686F72697A6174696F6E206661696C6564000000000000000000000000 PUSH0 DUP3 ADD MSTORE POP JUMP JUMPDEST PUSH0 PUSH2 0x1A8E PUSH1 0x14 DUP4 PUSH2 0x1732 JUMP JUMPDEST SWAP2 POP PUSH2 0x1A99 DUP3 PUSH2 0x1A5A JUMP JUMPDEST PUSH1 0x20 DUP3 ADD SWAP1 POP SWAP2 SWAP1 POP JUMP JUMPDEST PUSH0 PUSH1 0x20 DUP3 ADD SWAP1 POP DUP2 DUP2 SUB PUSH0 DUP4 ADD MSTORE PUSH2 0x1ABB DUP2 PUSH2 0x1A82 JUMP JUMPDEST SWAP1 POP SWAP2 SWAP1 POP JUMP JUMPDEST PUSH32 0x5265766F636174696F6E206661696C6564000000000000000000000000000000 PUSH0 DUP3 ADD MSTORE POP JUMP JUMPDEST PUSH0 PUSH2 0x1AF6 PUSH1 0x11 DUP4 PUSH2 0x1732 JUMP JUMPDEST SWAP2 POP PUSH2 0x1B01 DUP3 PUSH2 0x1AC2 JUMP JUMPDEST PUSH1 0x20 DUP3 ADD SWAP1 POP SWAP2 SWAP1 POP JUMP JUMPDEST PUSH0 PUSH1 0x20 DUP3 ADD SWAP1 POP DUP2 DUP2 SUB PUSH0 DUP4 ADD MSTORE PUSH2 0x1B23 DUP2 PUSH2 0x1AEA JUMP JUMPDEST SWAP1 POP SWAP2 SWAP1 POP JUMP JUMPDEST PUSH32 0x54617267657420697320616C7265616479206120676F7665726E6F7200000000 PUSH0 DUP3 ADD MSTORE POP JUMP JUMPDEST PUSH0 PUSH2 0x1B5E PUSH1 0x1C DUP4 PUSH2 0x1732 JUMP JUMPDEST SWAP2 POP PUSH2 0x1B69 DUP3 PUSH2 0x1B2A JUMP JUMPDEST PUSH1 0x20 DUP3 ADD SWAP1 POP SWAP2 SWAP1 POP JUMP JUMPDEST PUSH0 PUSH1 0x20 DUP3 ADD SWAP1 POP DUP2 DUP2 SUB PUSH0 DUP4 ADD MSTORE PUSH2 0x1B8B DUP2 PUSH2 0x1B52 JUMP JUMPDEST SWAP1 POP SWAP2 SWAP1 POP JUMP JUMPDEST PUSH32 0x54776F20676F7665726E6F72732063616E6E6F742072656D6F76652065616368 PUSH0 DUP3 ADD MSTORE PUSH32 0x206F746865720000000000000000000000000000000000000000000000000000 PUSH1 0x20 DUP3 ADD MSTORE POP JUMP JUMPDEST PUSH0 PUSH2 0x1BEC PUSH1 0x26 DUP4 PUSH2 0x1732 JUMP JUMPDEST SWAP2 POP PUSH2 0x1BF7 DUP3 PUSH2 0x1B92 JUMP JUMPDEST PUSH1 0x40 DUP3 ADD SWAP1 POP SWAP2 SWAP1 POP JUMP JUMPDEST PUSH0 PUSH1 0x20 DUP3 ADD SWAP1 POP DUP2 DUP2 SUB PUSH0 DUP4 ADD MSTORE PUSH2 0x1C19 DUP2 PUSH2 0x1BE0 JUMP JUMPDEST SWAP1 POP SWAP2 SWAP1 POP JUMP JUMPDEST PUSH0 PUSH2 0x1C2A DUP3 PUSH2 0x140A JUMP JUMPDEST SWAP2 POP PUSH2 0x1C35 DUP4 PUSH2 0x140A JUMP JUMPDEST SWAP3 POP DUP3 DUP3 SUB SWAP1 POP DUP2 DUP2 GT ISZERO PUSH2 0x1C4D JUMPI PUSH2 0x1C4C PUSH2 0x18A7 JUMP JUMPDEST JUMPDEST SWAP3 SWAP2 POP POP JUMP JUMPDEST PUSH32 0x4E487B7100000000000000000000000000000000000000000000000000000000 PUSH0 MSTORE PUSH1 0x31 PUSH1 0x4 MSTORE PUSH1 0x24 PUSH0 REVERT JUMPDEST PUSH0 PUSH1 0x40 DUP3 ADD SWAP1 POP PUSH2 0x1C93 PUSH0 DUP4 ADD DUP6 PUSH2 0x14DB JUMP JUMPDEST PUSH2 0x1CA0 PUSH1 0x20 DUP4 ADD DUP5 PUSH2 0x151A JUMP JUMPDEST SWAP4 SWAP3 POP POP POP JUMP JUMPDEST PUSH32 0x4164647265737320616C72656164792073657400000000000000000000000000 PUSH0 DUP3 ADD MSTORE POP JUMP JUMPDEST PUSH0 PUSH2 0x1CDB PUSH1 0x13 DUP4 PUSH2 0x1732 JUMP JUMPDEST SWAP2 POP PUSH2 0x1CE6 DUP3 PUSH2 0x1CA7 JUMP JUMPDEST PUSH1 0x20 DUP3 ADD SWAP1 POP SWAP2 SWAP1 POP JUMP JUMPDEST PUSH0 PUSH1 0x20 DUP3 ADD SWAP1 POP DUP2 DUP2 SUB PUSH0 DUP4 ADD MSTORE PUSH2 0x1D08 DUP2 PUSH2 0x1CCF JUMP JUMPDEST SWAP1 POP SWAP2 SWAP1 POP JUMP INVALID LOG2 PUSH5 0x6970667358 0x22 SLT KECCAK256 0xC0 SELFBALANCE 0xAF 0x4D JUMPI 0xAC 0xD5 0xB1 GASPRICE SDIV PUSH30 0x48602D7CE3FBBB1C9EB3CCE81BF2E7C000B0D43AAF64736F6C634300081E STOP CALLER LOG2 PUSH5 0x6970667358 0x22 SLT KECCAK256 0xDB 0xE9 EOFCREATE 0x36 0xDB 0xC KECCAK256 KECCAK256 MSTORE8 EXTCODECOPY OR PUSH22 0xC97E5628671F55507948F78EB1E375ED5B82AF3E6473 PUSH16 0x6C634300081E00330000000000000000 "
		},
		"gasEstimates": {
			"creation": {
				"codeDepositCost": "6244600",
				"executionCost": "104829",
				"totalCost": "6349429"
			},
			"external": {
				"beforeAll()": "infinite",
				"testAddExistingGovernor()": "infinite",
				"testAddGovernor()": "infinite",
				"testGetInvalidProposal()": "infinite",
				"testInitialSetup()": "infinite",
				"testInsufficientVotesExecution()": "infinite",
				"testNonGovernorCannotpropose()": "infinite",
				"testProposalCreation()": "infinite",
				"testProposalExecution()": "infinite",
				"testRemoveGovernor()": "infinite",
				"testThresholdCalculation()": "infinite",
				"testVoteOnInvalidProposal()": "infinite",
				"testVoting()": "infinite"
			}
		},
		"methodIdentifiers": {
			"beforeAll()": "7fea0d4b",
			"testAddExistingGovernor()": "88c39a74",
			"testAddGovernor()": "00dc50f4",
			"testGetInvalidProposal()": "16e43814",
			"testInitialSetup()": "8e82eddd",
			"testInsufficientVotesExecution()": "7cac6231",
			"testNonGovernorCannotpropose()": "cc27f7f3",
			"testProposalCreation()": "6760ee17",
			"testProposalExecution()": "6b505a42",
			"testRemoveGovernor()": "7942e1fe",
			"testThresholdCalculation()": "cd4afa91",
			"testVoteOnInvalidProposal()": "238b16d3",
			"testVoting()": "78e9b62b"
		}
	},
	"abi": [
		{
			"inputs": [],
			"name": "beforeAll",
			"outputs": [],
			"stateMutability": "nonpayable",
			"type": "function"
		},
		{
			"inputs": [],
			"name": "testAddExistingGovernor",
			"outputs": [],
			"stateMutability": "nonpayable",
			"type": "function"
		},
		{
			"inputs": [],
			"name": "testAddGovernor",
			"outputs": [],
			"stateMutability": "nonpayable",
			"type": "function"
		},
		{
			"inputs": [],
			"name": "testGetInvalidProposal",
			"outputs": [],
			"stateMutability": "nonpayable",
			"type": "function"
		},
		{
			"inputs": [],
			"name": "testInitialSetup",
			"outputs": [],
			"stateMutability": "nonpayable",
			"type": "function"
		},
		{
			"inputs": [],
			"name": "testInsufficientVotesExecution",
			"outputs": [],
			"stateMutability": "nonpayable",
			"type": "function"
		},
		{
			"inputs": [],
			"name": "testNonGovernorCannotpropose",
			"outputs": [],
			"stateMutability": "nonpayable",
			"type": "function"
		},
		{
			"inputs": [],
			"name": "testProposalCreation",
			"outputs": [],
			"stateMutability": "nonpayable",
			"type": "function"
		},
		{
			"inputs": [],
			"name": "testProposalExecution",
			"outputs": [],
			"stateMutability": "nonpayable",
			"type": "function"
		},
		{
			"inputs": [],
			"name": "testRemoveGovernor",
			"outputs": [],
			"stateMutability": "nonpayable",
			"type": "function"
		},
		{
			"inputs": [],
			"name": "testThresholdCalculation",
			"outputs": [],
			"stateMutability": "nonpayable",
			"type": "function"
		},
		{
			"inputs": [],
			"name": "testVoteOnInvalidProposal",
			"outputs": [],
			"stateMutability": "nonpayable",
			"type": "function"
		},
		{
			"inputs": [],
			"name": "testVoting",
			"outputs": [],
			"stateMutability": "nonpayable",
			"type": "function"
		}
	]
}