{
	"new-contracts/EduVerifyAdmin.sol": {
		"EduVerifyAdmin": {
			"abi": [
				{
					"inputs": [
						{
							"internalType": "address[]",
							"name": "_initialGovernors",
							"type": "address[]"
						},
						{
							"internalType": "address",
							"name": "_eduVerify",
							"type": "address"
						}
					],
					"stateMutability": "nonpayable",
					"type": "constructor"
				},
				{
					"anonymous": false,
					"inputs": [
						{
							"indexed": true,
							"internalType": "address",
							"name": "governor",
							"type": "address"
						}
					],
					"name": "GovernorAdded",
					"type": "event"
				},
				{
					"anonymous": false,
					"inputs": [
						{
							"indexed": true,
							"internalType": "address",
							"name": "governor",
							"type": "address"
						}
					],
					"name": "GovernorRemoved",
					"type": "event"
				},
				{
					"anonymous": false,
					"inputs": [
						{
							"indexed": true,
							"internalType": "uint256",
							"name": "proposalId",
							"type": "uint256"
						},
						{
							"indexed": false,
							"internalType": "enum EduVerifyAdmin.Action",
							"name": "action",
							"type": "uint8"
						},
						{
							"indexed": false,
							"internalType": "address",
							"name": "target",
							"type": "address"
						}
					],
					"name": "ProposalCreated",
					"type": "event"
				},
				{
					"anonymous": false,
					"inputs": [
						{
							"indexed": true,
							"internalType": "uint256",
							"name": "proposalId",
							"type": "uint256"
						}
					],
					"name": "ProposalExecuted",
					"type": "event"
				},
				{
					"anonymous": false,
					"inputs": [
						{
							"indexed": true,
							"internalType": "uint256",
							"name": "proposalId",
							"type": "uint256"
						},
						{
							"indexed": true,
							"internalType": "address",
							"name": "voter",
							"type": "address"
						}
					],
					"name": "VoteCast",
					"type": "event"
				},
				{
					"inputs": [],
					"name": "calculateThreshold",
					"outputs": [
						{
							"internalType": "uint256",
							"name": "",
							"type": "uint256"
						}
					],
					"stateMutability": "view",
					"type": "function"
				},
				{
					"inputs": [],
					"name": "eduVerify",
					"outputs": [
						{
							"internalType": "address",
							"name": "",
							"type": "address"
						}
					],
					"stateMutability": "view",
					"type": "function"
				},
				{
					"inputs": [
						{
							"internalType": "uint256",
							"name": "proposalId",
							"type": "uint256"
						}
					],
					"name": "executeProposal",
					"outputs": [],
					"stateMutability": "nonpayable",
					"type": "function"
				},
				{
					"inputs": [
						{
							"internalType": "uint256",
							"name": "proposalId",
							"type": "uint256"
						}
					],
					"name": "getProposalDetails",
					"outputs": [
						{
							"internalType": "enum EduVerifyAdmin.Action",
							"name": "action",
							"type": "uint8"
						},
						{
							"internalType": "address",
							"name": "target",
							"type": "address"
						},
						{
							"internalType": "uint256",
							"name": "yesVotes",
							"type": "uint256"
						},
						{
							"internalType": "uint256",
							"name": "snapshotGovernorCount",
							"type": "uint256"
						},
						{
							"internalType": "bool",
							"name": "executed",
							"type": "bool"
						}
					],
					"stateMutability": "view",
					"type": "function"
				},
				{
					"inputs": [
						{
							"internalType": "uint256",
							"name": "proposalId",
							"type": "uint256"
						}
					],
					"name": "getThresholdForProposal",
					"outputs": [
						{
							"internalType": "uint256",
							"name": "",
							"type": "uint256"
						}
					],
					"stateMutability": "view",
					"type": "function"
				},
				{
					"inputs": [],
					"name": "governorCount",
					"outputs": [
						{
							"internalType": "uint256",
							"name": "",
							"type": "uint256"
						}
					],
					"stateMutability": "view",
					"type": "function"
				},
				{
					"inputs": [
						{
							"internalType": "uint256",
							"name": "proposalId",
							"type": "uint256"
						},
						{
							"internalType": "address",
							"name": "governor",
							"type": "address"
						}
					],
					"name": "hasVoted",
					"outputs": [
						{
							"internalType": "bool",
							"name": "",
							"type": "bool"
						}
					],
					"stateMutability": "view",
					"type": "function"
				},
				{
					"inputs": [
						{
							"internalType": "address",
							"name": "",
							"type": "address"
						}
					],
					"name": "isGovernor",
					"outputs": [
						{
							"internalType": "bool",
							"name": "",
							"type": "bool"
						}
					],
					"stateMutability": "view",
					"type": "function"
				},
				{
					"inputs": [],
					"name": "proposalCount",
					"outputs": [
						{
							"internalType": "uint256",
							"name": "",
							"type": "uint256"
						}
					],
					"stateMutability": "view",
					"type": "function"
				},
				{
					"inputs": [
						{
							"internalType": "uint256",
							"name": "",
							"type": "uint256"
						}
					],
					"name": "proposals",
					"outputs": [
						{
							"internalType": "uint256",
							"name": "id",
							"type": "uint256"
						},
						{
							"internalType": "enum EduVerifyAdmin.Action",
							"name": "action",
							"type": "uint8"
						},
						{
							"internalType": "address",
							"name": "target",
							"type": "address"
						},
						{
							"internalType": "uint256",
							"name": "yesVotes",
							"type": "uint256"
						},
						{
							"internalType": "uint256",
							"name": "snapshotGovernorCount",
							"type": "uint256"
						},
						{
							"internalType": "bool",
							"name": "executed",
							"type": "bool"
						}
					],
					"stateMutability": "view",
					"type": "function"
				},
				{
					"inputs": [
						{
							"internalType": "enum EduVerifyAdmin.Action",
							"name": "action",
							"type": "uint8"
						},
						{
							"internalType": "address",
							"name": "target",
							"type": "address"
						}
					],
					"name": "propose",
					"outputs": [
						{
							"internalType": "uint256",
							"name": "",
							"type": "uint256"
						}
					],
					"stateMutability": "nonpayable",
					"type": "function"
				},
				{
					"inputs": [
						{
							"internalType": "address",
							"name": "_eduVerify",
							"type": "address"
						}
					],
					"name": "setEduVerifyAddress",
					"outputs": [],
					"stateMutability": "nonpayable",
					"type": "function"
				},
				{
					"inputs": [],
					"name": "totalGovernors",
					"outputs": [
						{
							"internalType": "uint256",
							"name": "",
							"type": "uint256"
						}
					],
					"stateMutability": "view",
					"type": "function"
				},
				{
					"inputs": [
						{
							"internalType": "uint256",
							"name": "proposalId",
							"type": "uint256"
						}
					],
					"name": "vote",
					"outputs": [],
					"stateMutability": "nonpayable",
					"type": "function"
				}
			],
			"devdoc": {
				"kind": "dev",
				"methods": {},
				"version": 1
			},
			"evm": {
				"assembly": "    /* \"new-contracts/EduVerifyAdmin.sol\":121:5585  contract EduVerifyAdmin {... */\n  mstore(0x40, 0x80)\n    /* \"new-contracts/EduVerifyAdmin.sol\":1382:1895  constructor(address[] memory _initialGovernors, address _eduVerify) {... */\n  callvalue\n  dup1\n  iszero\n  tag_1\n  jumpi\n  revert(0x00, 0x00)\ntag_1:\n  pop\n  mload(0x40)\n  sub(codesize, bytecodeSize)\n  dup1\n  bytecodeSize\n  dup4\n  codecopy\n  dup2\n  dup2\n  add\n  0x40\n  mstore\n  dup2\n  add\n  swap1\n  tag_2\n  swap2\n  swap1\n  tag_3\n  jump\t// in\ntag_2:\n    /* \"new-contracts/EduVerifyAdmin.sol\":1477:1494  _initialGovernors */\n  dup2\n    /* \"new-contracts/EduVerifyAdmin.sol\":1477:1501  _initialGovernors.length */\n  mload\n    /* \"new-contracts/EduVerifyAdmin.sol\":1460:1474  totalGovernors */\n  0x01\n    /* \"new-contracts/EduVerifyAdmin.sol\":1460:1501  totalGovernors = _initialGovernors.length */\n  dup2\n  swap1\n  sstore\n  pop\n    /* \"new-contracts/EduVerifyAdmin.sol\":1523:1533  _eduVerify */\n  dup1\n    /* \"new-contracts/EduVerifyAdmin.sol\":1511:1520  eduVerify */\n  0x02\n  0x00\n    /* \"new-contracts/EduVerifyAdmin.sol\":1511:1533  eduVerify = _eduVerify */\n  0x0100\n  exp\n  dup2\n  sload\n  dup2\n  0xffffffffffffffffffffffffffffffffffffffff\n  mul\n  not\n  and\n  swap1\n  dup4\n  0xffffffffffffffffffffffffffffffffffffffff\n  and\n  mul\n  or\n  swap1\n  sstore\n  pop\n    /* \"new-contracts/EduVerifyAdmin.sol\":1544:1555  uint length */\n  0x00\n    /* \"new-contracts/EduVerifyAdmin.sol\":1558:1575  _initialGovernors */\n  dup3\n    /* \"new-contracts/EduVerifyAdmin.sol\":1558:1582  _initialGovernors.length */\n  mload\n    /* \"new-contracts/EduVerifyAdmin.sol\":1544:1582  uint length = _initialGovernors.length */\n  swap1\n  pop\n    /* \"new-contracts/EduVerifyAdmin.sol\":1597:1603  uint i */\n  0x00\n    /* \"new-contracts/EduVerifyAdmin.sol\":1606:1607  0 */\n  0x00\n    /* \"new-contracts/EduVerifyAdmin.sol\":1597:1607  uint i = 0 */\n  swap1\n  pop\n    /* \"new-contracts/EduVerifyAdmin.sol\":1592:1889  for (uint i = 0; i < length;) {... */\ntag_6:\n    /* \"new-contracts/EduVerifyAdmin.sol\":1613:1619  length */\n  dup2\n    /* \"new-contracts/EduVerifyAdmin.sol\":1609:1610  i */\n  dup2\n    /* \"new-contracts/EduVerifyAdmin.sol\":1609:1619  i < length */\n  lt\n    /* \"new-contracts/EduVerifyAdmin.sol\":1592:1889  for (uint i = 0; i < length;) {... */\n  iszero\n  tag_7\n  jumpi\n    /* \"new-contracts/EduVerifyAdmin.sol\":1636:1652  address governor */\n  0x00\n    /* \"new-contracts/EduVerifyAdmin.sol\":1655:1672  _initialGovernors */\n  dup5\n    /* \"new-contracts/EduVerifyAdmin.sol\":1673:1674  i */\n  dup3\n    /* \"new-contracts/EduVerifyAdmin.sol\":1655:1675  _initialGovernors[i] */\n  dup2\n  mload\n  dup2\n  lt\n  tag_9\n  jumpi\n  tag_10\n  tag_11\n  jump\t// in\ntag_10:\ntag_9:\n  0x20\n  mul\n  0x20\n  add\n  add\n  mload\n    /* \"new-contracts/EduVerifyAdmin.sol\":1636:1675  address governor = _initialGovernors[i] */\n  swap1\n  pop\n    /* \"new-contracts/EduVerifyAdmin.sol\":1717:1718  0 */\n  0x00\n    /* \"new-contracts/EduVerifyAdmin.sol\":1697:1719  governor != address(0) */\n  0xffffffffffffffffffffffffffffffffffffffff\n  and\n    /* \"new-contracts/EduVerifyAdmin.sol\":1697:1705  governor */\n  dup2\n    /* \"new-contracts/EduVerifyAdmin.sol\":1697:1719  governor != address(0) */\n  0xffffffffffffffffffffffffffffffffffffffff\n  and\n  sub\n    /* \"new-contracts/EduVerifyAdmin.sol\":1689:1740  require(governor != address(0), \"Invalid governor\") */\n  tag_12\n  jumpi\n  mload(0x40)\n  0x08c379a000000000000000000000000000000000000000000000000000000000\n  dup2\n  mstore\n  0x04\n  add\n  tag_13\n  swap1\n  tag_14\n  jump\t// in\ntag_13:\n  mload(0x40)\n  dup1\n  swap2\n  sub\n  swap1\n  revert\ntag_12:\n    /* \"new-contracts/EduVerifyAdmin.sol\":1763:1773  isGovernor */\n  0x00\n    /* \"new-contracts/EduVerifyAdmin.sol\":1763:1783  isGovernor[governor] */\n  0x00\n    /* \"new-contracts/EduVerifyAdmin.sol\":1774:1782  governor */\n  dup3\n    /* \"new-contracts/EduVerifyAdmin.sol\":1763:1783  isGovernor[governor] */\n  0xffffffffffffffffffffffffffffffffffffffff\n  and\n  0xffffffffffffffffffffffffffffffffffffffff\n  and\n  dup2\n  mstore\n  0x20\n  add\n  swap1\n  dup2\n  mstore\n  0x20\n  add\n  0x00\n  keccak256\n  0x00\n  swap1\n  sload\n  swap1\n  0x0100\n  exp\n  swap1\n  div\n  0xff\n  and\n    /* \"new-contracts/EduVerifyAdmin.sol\":1762:1783  !isGovernor[governor] */\n  iszero\n    /* \"new-contracts/EduVerifyAdmin.sol\":1754:1806  require(!isGovernor[governor], \"Duplicate governor\") */\n  tag_15\n  jumpi\n  mload(0x40)\n  0x08c379a000000000000000000000000000000000000000000000000000000000\n  dup2\n  mstore\n  0x04\n  add\n  tag_16\n  swap1\n  tag_17\n  jump\t// in\ntag_16:\n  mload(0x40)\n  dup1\n  swap2\n  sub\n  swap1\n  revert\ntag_15:\n    /* \"new-contracts/EduVerifyAdmin.sol\":1843:1847  true */\n  0x01\n    /* \"new-contracts/EduVerifyAdmin.sol\":1820:1830  isGovernor */\n  0x00\n    /* \"new-contracts/EduVerifyAdmin.sol\":1820:1840  isGovernor[governor] */\n  0x00\n    /* \"new-contracts/EduVerifyAdmin.sol\":1831:1839  governor */\n  dup4\n    /* \"new-contracts/EduVerifyAdmin.sol\":1820:1840  isGovernor[governor] */\n  0xffffffffffffffffffffffffffffffffffffffff\n  and\n  0xffffffffffffffffffffffffffffffffffffffff\n  and\n  dup2\n  mstore\n  0x20\n  add\n  swap1\n  dup2\n  mstore\n  0x20\n  add\n  0x00\n  keccak256\n  0x00\n    /* \"new-contracts/EduVerifyAdmin.sol\":1820:1847  isGovernor[governor] = true */\n  0x0100\n  exp\n  dup2\n  sload\n  dup2\n  0xff\n  mul\n  not\n  and\n  swap1\n  dup4\n  iszero\n  iszero\n  mul\n  or\n  swap1\n  sstore\n  pop\n    /* \"new-contracts/EduVerifyAdmin.sol\":1873:1876  ++i */\n  dup2\n  0x01\n  add\n  swap2\n  pop\n    /* \"new-contracts/EduVerifyAdmin.sol\":1622:1889  {... */\n  pop\n    /* \"new-contracts/EduVerifyAdmin.sol\":1592:1889  for (uint i = 0; i < length;) {... */\n  jump(tag_6)\ntag_7:\n  pop\n    /* \"new-contracts/EduVerifyAdmin.sol\":1450:1895  {... */\n  pop\n    /* \"new-contracts/EduVerifyAdmin.sol\":1382:1895  constructor(address[] memory _initialGovernors, address _eduVerify) {... */\n  pop\n  pop\n    /* \"new-contracts/EduVerifyAdmin.sol\":121:5585  contract EduVerifyAdmin {... */\n  jump(tag_18)\n    /* \"#utility.yul\":7:82   */\ntag_19:\n    /* \"#utility.yul\":40:46   */\n  0x00\n    /* \"#utility.yul\":73:75   */\n  0x40\n    /* \"#utility.yul\":67:76   */\n  mload\n    /* \"#utility.yul\":57:76   */\n  swap1\n  pop\n    /* \"#utility.yul\":7:82   */\n  swap1\n  jump\t// out\n    /* \"#utility.yul\":88:205   */\ntag_20:\n    /* \"#utility.yul\":197:198   */\n  0x00\n    /* \"#utility.yul\":194:195   */\n  0x00\n    /* \"#utility.yul\":187:199   */\n  revert\n    /* \"#utility.yul\":211:328   */\ntag_21:\n    /* \"#utility.yul\":320:321   */\n  0x00\n    /* \"#utility.yul\":317:318   */\n  0x00\n    /* \"#utility.yul\":310:322   */\n  revert\n    /* \"#utility.yul\":334:451   */\ntag_22:\n    /* \"#utility.yul\":443:444   */\n  0x00\n    /* \"#utility.yul\":440:441   */\n  0x00\n    /* \"#utility.yul\":433:445   */\n  revert\n    /* \"#utility.yul\":457:559   */\ntag_23:\n    /* \"#utility.yul\":498:504   */\n  0x00\n    /* \"#utility.yul\":549:551   */\n  0x1f\n    /* \"#utility.yul\":545:552   */\n  not\n    /* \"#utility.yul\":540:542   */\n  0x1f\n    /* \"#utility.yul\":533:538   */\n  dup4\n    /* \"#utility.yul\":529:543   */\n  add\n    /* \"#utility.yul\":525:553   */\n  and\n    /* \"#utility.yul\":515:553   */\n  swap1\n  pop\n    /* \"#utility.yul\":457:559   */\n  swap2\n  swap1\n  pop\n  jump\t// out\n    /* \"#utility.yul\":565:745   */\ntag_24:\n    /* \"#utility.yul\":613:690   */\n  0x4e487b7100000000000000000000000000000000000000000000000000000000\n    /* \"#utility.yul\":610:611   */\n  0x00\n    /* \"#utility.yul\":603:691   */\n  mstore\n    /* \"#utility.yul\":710:714   */\n  0x41\n    /* \"#utility.yul\":707:708   */\n  0x04\n    /* \"#utility.yul\":700:715   */\n  mstore\n    /* \"#utility.yul\":734:738   */\n  0x24\n    /* \"#utility.yul\":731:732   */\n  0x00\n    /* \"#utility.yul\":724:739   */\n  revert\n    /* \"#utility.yul\":751:1032   */\ntag_25:\n    /* \"#utility.yul\":834:861   */\n  tag_48\n    /* \"#utility.yul\":856:860   */\n  dup3\n    /* \"#utility.yul\":834:861   */\n  tag_23\n  jump\t// in\ntag_48:\n    /* \"#utility.yul\":826:832   */\n  dup2\n    /* \"#utility.yul\":822:862   */\n  add\n    /* \"#utility.yul\":964:970   */\n  dup2\n    /* \"#utility.yul\":952:962   */\n  dup2\n    /* \"#utility.yul\":949:971   */\n  lt\n    /* \"#utility.yul\":928:946   */\n  0xffffffffffffffff\n    /* \"#utility.yul\":916:926   */\n  dup3\n    /* \"#utility.yul\":913:947   */\n  gt\n    /* \"#utility.yul\":910:972   */\n  or\n    /* \"#utility.yul\":907:995   */\n  iszero\n  tag_49\n  jumpi\n    /* \"#utility.yul\":975:993   */\n  tag_50\n  tag_24\n  jump\t// in\ntag_50:\n    /* \"#utility.yul\":907:995   */\ntag_49:\n    /* \"#utility.yul\":1015:1025   */\n  dup1\n    /* \"#utility.yul\":1011:1013   */\n  0x40\n    /* \"#utility.yul\":1004:1026   */\n  mstore\n    /* \"#utility.yul\":794:1032   */\n  pop\n    /* \"#utility.yul\":751:1032   */\n  pop\n  pop\n  jump\t// out\n    /* \"#utility.yul\":1038:1167   */\ntag_26:\n    /* \"#utility.yul\":1072:1078   */\n  0x00\n    /* \"#utility.yul\":1099:1119   */\n  tag_52\n  tag_19\n  jump\t// in\ntag_52:\n    /* \"#utility.yul\":1089:1119   */\n  swap1\n  pop\n    /* \"#utility.yul\":1128:1161   */\n  tag_53\n    /* \"#utility.yul\":1156:1160   */\n  dup3\n    /* \"#utility.yul\":1148:1154   */\n  dup3\n    /* \"#utility.yul\":1128:1161   */\n  tag_25\n  jump\t// in\ntag_53:\n    /* \"#utility.yul\":1038:1167   */\n  swap2\n  swap1\n  pop\n  jump\t// out\n    /* \"#utility.yul\":1173:1484   */\ntag_27:\n    /* \"#utility.yul\":1250:1254   */\n  0x00\n    /* \"#utility.yul\":1340:1358   */\n  0xffffffffffffffff\n    /* \"#utility.yul\":1332:1338   */\n  dup3\n    /* \"#utility.yul\":1329:1359   */\n  gt\n    /* \"#utility.yul\":1326:1382   */\n  iszero\n  tag_55\n  jumpi\n    /* \"#utility.yul\":1362:1380   */\n  tag_56\n  tag_24\n  jump\t// in\ntag_56:\n    /* \"#utility.yul\":1326:1382   */\ntag_55:\n    /* \"#utility.yul\":1412:1416   */\n  0x20\n    /* \"#utility.yul\":1404:1410   */\n  dup3\n    /* \"#utility.yul\":1400:1417   */\n  mul\n    /* \"#utility.yul\":1392:1417   */\n  swap1\n  pop\n    /* \"#utility.yul\":1472:1476   */\n  0x20\n    /* \"#utility.yul\":1466:1470   */\n  dup2\n    /* \"#utility.yul\":1462:1477   */\n  add\n    /* \"#utility.yul\":1454:1477   */\n  swap1\n  pop\n    /* \"#utility.yul\":1173:1484   */\n  swap2\n  swap1\n  pop\n  jump\t// out\n    /* \"#utility.yul\":1490:1607   */\ntag_28:\n    /* \"#utility.yul\":1599:1600   */\n  0x00\n    /* \"#utility.yul\":1596:1597   */\n  0x00\n    /* \"#utility.yul\":1589:1601   */\n  revert\n    /* \"#utility.yul\":1613:1739   */\ntag_29:\n    /* \"#utility.yul\":1650:1657   */\n  0x00\n    /* \"#utility.yul\":1690:1732   */\n  0xffffffffffffffffffffffffffffffffffffffff\n    /* \"#utility.yul\":1683:1688   */\n  dup3\n    /* \"#utility.yul\":1679:1733   */\n  and\n    /* \"#utility.yul\":1668:1733   */\n  swap1\n  pop\n    /* \"#utility.yul\":1613:1739   */\n  swap2\n  swap1\n  pop\n  jump\t// out\n    /* \"#utility.yul\":1745:1841   */\ntag_30:\n    /* \"#utility.yul\":1782:1789   */\n  0x00\n    /* \"#utility.yul\":1811:1835   */\n  tag_60\n    /* \"#utility.yul\":1829:1834   */\n  dup3\n    /* \"#utility.yul\":1811:1835   */\n  tag_29\n  jump\t// in\ntag_60:\n    /* \"#utility.yul\":1800:1835   */\n  swap1\n  pop\n    /* \"#utility.yul\":1745:1841   */\n  swap2\n  swap1\n  pop\n  jump\t// out\n    /* \"#utility.yul\":1847:1969   */\ntag_31:\n    /* \"#utility.yul\":1920:1944   */\n  tag_62\n    /* \"#utility.yul\":1938:1943   */\n  dup2\n    /* \"#utility.yul\":1920:1944   */\n  tag_30\n  jump\t// in\ntag_62:\n    /* \"#utility.yul\":1913:1918   */\n  dup2\n    /* \"#utility.yul\":1910:1945   */\n  eq\n    /* \"#utility.yul\":1900:1963   */\n  tag_63\n  jumpi\n    /* \"#utility.yul\":1959:1960   */\n  0x00\n    /* \"#utility.yul\":1956:1957   */\n  0x00\n    /* \"#utility.yul\":1949:1961   */\n  revert\n    /* \"#utility.yul\":1900:1963   */\ntag_63:\n    /* \"#utility.yul\":1847:1969   */\n  pop\n  jump\t// out\n    /* \"#utility.yul\":1975:2118   */\ntag_32:\n    /* \"#utility.yul\":2032:2037   */\n  0x00\n    /* \"#utility.yul\":2063:2069   */\n  dup2\n    /* \"#utility.yul\":2057:2070   */\n  mload\n    /* \"#utility.yul\":2048:2070   */\n  swap1\n  pop\n    /* \"#utility.yul\":2079:2112   */\n  tag_65\n    /* \"#utility.yul\":2106:2111   */\n  dup2\n    /* \"#utility.yul\":2079:2112   */\n  tag_31\n  jump\t// in\ntag_65:\n    /* \"#utility.yul\":1975:2118   */\n  swap3\n  swap2\n  pop\n  pop\n  jump\t// out\n    /* \"#utility.yul\":2141:2873   */\ntag_33:\n    /* \"#utility.yul\":2248:2253   */\n  0x00\n    /* \"#utility.yul\":2273:2354   */\n  tag_67\n    /* \"#utility.yul\":2289:2353   */\n  tag_68\n    /* \"#utility.yul\":2346:2352   */\n  dup5\n    /* \"#utility.yul\":2289:2353   */\n  tag_27\n  jump\t// in\ntag_68:\n    /* \"#utility.yul\":2273:2354   */\n  tag_26\n  jump\t// in\ntag_67:\n    /* \"#utility.yul\":2264:2354   */\n  swap1\n  pop\n    /* \"#utility.yul\":2374:2379   */\n  dup1\n    /* \"#utility.yul\":2403:2409   */\n  dup4\n    /* \"#utility.yul\":2396:2401   */\n  dup3\n    /* \"#utility.yul\":2389:2410   */\n  mstore\n    /* \"#utility.yul\":2437:2441   */\n  0x20\n    /* \"#utility.yul\":2430:2435   */\n  dup3\n    /* \"#utility.yul\":2426:2442   */\n  add\n    /* \"#utility.yul\":2419:2442   */\n  swap1\n  pop\n    /* \"#utility.yul\":2490:2494   */\n  0x20\n    /* \"#utility.yul\":2482:2488   */\n  dup5\n    /* \"#utility.yul\":2478:2495   */\n  mul\n    /* \"#utility.yul\":2470:2476   */\n  dup4\n    /* \"#utility.yul\":2466:2496   */\n  add\n    /* \"#utility.yul\":2519:2522   */\n  dup6\n    /* \"#utility.yul\":2511:2517   */\n  dup2\n    /* \"#utility.yul\":2508:2523   */\n  gt\n    /* \"#utility.yul\":2505:2627   */\n  iszero\n  tag_69\n  jumpi\n    /* \"#utility.yul\":2538:2617   */\n  tag_70\n  tag_28\n  jump\t// in\ntag_70:\n    /* \"#utility.yul\":2505:2627   */\ntag_69:\n    /* \"#utility.yul\":2653:2659   */\n  dup4\n    /* \"#utility.yul\":2636:2867   */\ntag_71:\n    /* \"#utility.yul\":2670:2676   */\n  dup2\n    /* \"#utility.yul\":2665:2668   */\n  dup2\n    /* \"#utility.yul\":2662:2677   */\n  lt\n    /* \"#utility.yul\":2636:2867   */\n  iszero\n  tag_73\n  jumpi\n    /* \"#utility.yul\":2745:2748   */\n  dup1\n    /* \"#utility.yul\":2774:2822   */\n  tag_74\n    /* \"#utility.yul\":2818:2821   */\n  dup9\n    /* \"#utility.yul\":2806:2816   */\n  dup3\n    /* \"#utility.yul\":2774:2822   */\n  tag_32\n  jump\t// in\ntag_74:\n    /* \"#utility.yul\":2769:2772   */\n  dup5\n    /* \"#utility.yul\":2762:2823   */\n  mstore\n    /* \"#utility.yul\":2852:2856   */\n  0x20\n    /* \"#utility.yul\":2847:2850   */\n  dup5\n    /* \"#utility.yul\":2843:2857   */\n  add\n    /* \"#utility.yul\":2836:2857   */\n  swap4\n  pop\n    /* \"#utility.yul\":2712:2867   */\n  pop\n    /* \"#utility.yul\":2696:2700   */\n  0x20\n    /* \"#utility.yul\":2691:2694   */\n  dup2\n    /* \"#utility.yul\":2687:2701   */\n  add\n    /* \"#utility.yul\":2680:2701   */\n  swap1\n  pop\n    /* \"#utility.yul\":2636:2867   */\n  jump(tag_71)\ntag_73:\n    /* \"#utility.yul\":2640:2661   */\n  pop\n    /* \"#utility.yul\":2254:2873   */\n  pop\n  pop\n    /* \"#utility.yul\":2141:2873   */\n  swap4\n  swap3\n  pop\n  pop\n  pop\n  jump\t// out\n    /* \"#utility.yul\":2896:3281   */\ntag_34:\n    /* \"#utility.yul\":2978:2983   */\n  0x00\n    /* \"#utility.yul\":3027:3030   */\n  dup3\n    /* \"#utility.yul\":3020:3024   */\n  0x1f\n    /* \"#utility.yul\":3012:3018   */\n  dup4\n    /* \"#utility.yul\":3008:3025   */\n  add\n    /* \"#utility.yul\":3004:3031   */\n  slt\n    /* \"#utility.yul\":2994:3116   */\n  tag_76\n  jumpi\n    /* \"#utility.yul\":3035:3114   */\n  tag_77\n  tag_22\n  jump\t// in\ntag_77:\n    /* \"#utility.yul\":2994:3116   */\ntag_76:\n    /* \"#utility.yul\":3145:3151   */\n  dup2\n    /* \"#utility.yul\":3139:3152   */\n  mload\n    /* \"#utility.yul\":3170:3275   */\n  tag_78\n    /* \"#utility.yul\":3271:3274   */\n  dup5\n    /* \"#utility.yul\":3263:3269   */\n  dup3\n    /* \"#utility.yul\":3256:3260   */\n  0x20\n    /* \"#utility.yul\":3248:3254   */\n  dup7\n    /* \"#utility.yul\":3244:3261   */\n  add\n    /* \"#utility.yul\":3170:3275   */\n  tag_33\n  jump\t// in\ntag_78:\n    /* \"#utility.yul\":3161:3275   */\n  swap2\n  pop\n    /* \"#utility.yul\":2984:3281   */\n  pop\n    /* \"#utility.yul\":2896:3281   */\n  swap3\n  swap2\n  pop\n  pop\n  jump\t// out\n    /* \"#utility.yul\":3287:3997   */\ntag_3:\n    /* \"#utility.yul\":3391:3397   */\n  0x00\n    /* \"#utility.yul\":3399:3405   */\n  0x00\n    /* \"#utility.yul\":3448:3450   */\n  0x40\n    /* \"#utility.yul\":3436:3445   */\n  dup4\n    /* \"#utility.yul\":3427:3434   */\n  dup6\n    /* \"#utility.yul\":3423:3446   */\n  sub\n    /* \"#utility.yul\":3419:3451   */\n  slt\n    /* \"#utility.yul\":3416:3535   */\n  iszero\n  tag_80\n  jumpi\n    /* \"#utility.yul\":3454:3533   */\n  tag_81\n  tag_20\n  jump\t// in\ntag_81:\n    /* \"#utility.yul\":3416:3535   */\ntag_80:\n    /* \"#utility.yul\":3595:3596   */\n  0x00\n    /* \"#utility.yul\":3584:3593   */\n  dup4\n    /* \"#utility.yul\":3580:3597   */\n  add\n    /* \"#utility.yul\":3574:3598   */\n  mload\n    /* \"#utility.yul\":3625:3643   */\n  0xffffffffffffffff\n    /* \"#utility.yul\":3617:3623   */\n  dup2\n    /* \"#utility.yul\":3614:3644   */\n  gt\n    /* \"#utility.yul\":3611:3728   */\n  iszero\n  tag_82\n  jumpi\n    /* \"#utility.yul\":3647:3726   */\n  tag_83\n  tag_21\n  jump\t// in\ntag_83:\n    /* \"#utility.yul\":3611:3728   */\ntag_82:\n    /* \"#utility.yul\":3752:3841   */\n  tag_84\n    /* \"#utility.yul\":3833:3840   */\n  dup6\n    /* \"#utility.yul\":3824:3830   */\n  dup3\n    /* \"#utility.yul\":3813:3822   */\n  dup7\n    /* \"#utility.yul\":3809:3831   */\n  add\n    /* \"#utility.yul\":3752:3841   */\n  tag_34\n  jump\t// in\ntag_84:\n    /* \"#utility.yul\":3742:3841   */\n  swap3\n  pop\n    /* \"#utility.yul\":3545:3851   */\n  pop\n    /* \"#utility.yul\":3890:3892   */\n  0x20\n    /* \"#utility.yul\":3916:3980   */\n  tag_85\n    /* \"#utility.yul\":3972:3979   */\n  dup6\n    /* \"#utility.yul\":3963:3969   */\n  dup3\n    /* \"#utility.yul\":3952:3961   */\n  dup7\n    /* \"#utility.yul\":3948:3970   */\n  add\n    /* \"#utility.yul\":3916:3980   */\n  tag_32\n  jump\t// in\ntag_85:\n    /* \"#utility.yul\":3906:3980   */\n  swap2\n  pop\n    /* \"#utility.yul\":3861:3990   */\n  pop\n    /* \"#utility.yul\":3287:3997   */\n  swap3\n  pop\n  swap3\n  swap1\n  pop\n  jump\t// out\n    /* \"#utility.yul\":4003:4183   */\ntag_11:\n    /* \"#utility.yul\":4051:4128   */\n  0x4e487b7100000000000000000000000000000000000000000000000000000000\n    /* \"#utility.yul\":4048:4049   */\n  0x00\n    /* \"#utility.yul\":4041:4129   */\n  mstore\n    /* \"#utility.yul\":4148:4152   */\n  0x32\n    /* \"#utility.yul\":4145:4146   */\n  0x04\n    /* \"#utility.yul\":4138:4153   */\n  mstore\n    /* \"#utility.yul\":4172:4176   */\n  0x24\n    /* \"#utility.yul\":4169:4170   */\n  0x00\n    /* \"#utility.yul\":4162:4177   */\n  revert\n    /* \"#utility.yul\":4189:4358   */\ntag_35:\n    /* \"#utility.yul\":4273:4284   */\n  0x00\n    /* \"#utility.yul\":4307:4313   */\n  dup3\n    /* \"#utility.yul\":4302:4305   */\n  dup3\n    /* \"#utility.yul\":4295:4314   */\n  mstore\n    /* \"#utility.yul\":4347:4351   */\n  0x20\n    /* \"#utility.yul\":4342:4345   */\n  dup3\n    /* \"#utility.yul\":4338:4352   */\n  add\n    /* \"#utility.yul\":4323:4352   */\n  swap1\n  pop\n    /* \"#utility.yul\":4189:4358   */\n  swap3\n  swap2\n  pop\n  pop\n  jump\t// out\n    /* \"#utility.yul\":4364:4530   */\ntag_36:\n    /* \"#utility.yul\":4504:4522   */\n  0x496e76616c696420676f7665726e6f7200000000000000000000000000000000\n    /* \"#utility.yul\":4500:4501   */\n  0x00\n    /* \"#utility.yul\":4492:4498   */\n  dup3\n    /* \"#utility.yul\":4488:4502   */\n  add\n    /* \"#utility.yul\":4481:4523   */\n  mstore\n    /* \"#utility.yul\":4364:4530   */\n  pop\n  jump\t// out\n    /* \"#utility.yul\":4536:4902   */\ntag_37:\n    /* \"#utility.yul\":4678:4681   */\n  0x00\n    /* \"#utility.yul\":4699:4766   */\n  tag_90\n    /* \"#utility.yul\":4763:4765   */\n  0x10\n    /* \"#utility.yul\":4758:4761   */\n  dup4\n    /* \"#utility.yul\":4699:4766   */\n  tag_35\n  jump\t// in\ntag_90:\n    /* \"#utility.yul\":4692:4766   */\n  swap2\n  pop\n    /* \"#utility.yul\":4775:4868   */\n  tag_91\n    /* \"#utility.yul\":4864:4867   */\n  dup3\n    /* \"#utility.yul\":4775:4868   */\n  tag_36\n  jump\t// in\ntag_91:\n    /* \"#utility.yul\":4893:4895   */\n  0x20\n    /* \"#utility.yul\":4888:4891   */\n  dup3\n    /* \"#utility.yul\":4884:4896   */\n  add\n    /* \"#utility.yul\":4877:4896   */\n  swap1\n  pop\n    /* \"#utility.yul\":4536:4902   */\n  swap2\n  swap1\n  pop\n  jump\t// out\n    /* \"#utility.yul\":4908:5327   */\ntag_14:\n    /* \"#utility.yul\":5074:5078   */\n  0x00\n    /* \"#utility.yul\":5112:5114   */\n  0x20\n    /* \"#utility.yul\":5101:5110   */\n  dup3\n    /* \"#utility.yul\":5097:5115   */\n  add\n    /* \"#utility.yul\":5089:5115   */\n  swap1\n  pop\n    /* \"#utility.yul\":5161:5170   */\n  dup2\n    /* \"#utility.yul\":5155:5159   */\n  dup2\n    /* \"#utility.yul\":5151:5171   */\n  sub\n    /* \"#utility.yul\":5147:5148   */\n  0x00\n    /* \"#utility.yul\":5136:5145   */\n  dup4\n    /* \"#utility.yul\":5132:5149   */\n  add\n    /* \"#utility.yul\":5125:5172   */\n  mstore\n    /* \"#utility.yul\":5189:5320   */\n  tag_93\n    /* \"#utility.yul\":5315:5319   */\n  dup2\n    /* \"#utility.yul\":5189:5320   */\n  tag_37\n  jump\t// in\ntag_93:\n    /* \"#utility.yul\":5181:5320   */\n  swap1\n  pop\n    /* \"#utility.yul\":4908:5327   */\n  swap2\n  swap1\n  pop\n  jump\t// out\n    /* \"#utility.yul\":5333:5501   */\ntag_38:\n    /* \"#utility.yul\":5473:5493   */\n  0x4475706c696361746520676f7665726e6f720000000000000000000000000000\n    /* \"#utility.yul\":5469:5470   */\n  0x00\n    /* \"#utility.yul\":5461:5467   */\n  dup3\n    /* \"#utility.yul\":5457:5471   */\n  add\n    /* \"#utility.yul\":5450:5494   */\n  mstore\n    /* \"#utility.yul\":5333:5501   */\n  pop\n  jump\t// out\n    /* \"#utility.yul\":5507:5873   */\ntag_39:\n    /* \"#utility.yul\":5649:5652   */\n  0x00\n    /* \"#utility.yul\":5670:5737   */\n  tag_96\n    /* \"#utility.yul\":5734:5736   */\n  0x12\n    /* \"#utility.yul\":5729:5732   */\n  dup4\n    /* \"#utility.yul\":5670:5737   */\n  tag_35\n  jump\t// in\ntag_96:\n    /* \"#utility.yul\":5663:5737   */\n  swap2\n  pop\n    /* \"#utility.yul\":5746:5839   */\n  tag_97\n    /* \"#utility.yul\":5835:5838   */\n  dup3\n    /* \"#utility.yul\":5746:5839   */\n  tag_38\n  jump\t// in\ntag_97:\n    /* \"#utility.yul\":5864:5866   */\n  0x20\n    /* \"#utility.yul\":5859:5862   */\n  dup3\n    /* \"#utility.yul\":5855:5867   */\n  add\n    /* \"#utility.yul\":5848:5867   */\n  swap1\n  pop\n    /* \"#utility.yul\":5507:5873   */\n  swap2\n  swap1\n  pop\n  jump\t// out\n    /* \"#utility.yul\":5879:6298   */\ntag_17:\n    /* \"#utility.yul\":6045:6049   */\n  0x00\n    /* \"#utility.yul\":6083:6085   */\n  0x20\n    /* \"#utility.yul\":6072:6081   */\n  dup3\n    /* \"#utility.yul\":6068:6086   */\n  add\n    /* \"#utility.yul\":6060:6086   */\n  swap1\n  pop\n    /* \"#utility.yul\":6132:6141   */\n  dup2\n    /* \"#utility.yul\":6126:6130   */\n  dup2\n    /* \"#utility.yul\":6122:6142   */\n  sub\n    /* \"#utility.yul\":6118:6119   */\n  0x00\n    /* \"#utility.yul\":6107:6116   */\n  dup4\n    /* \"#utility.yul\":6103:6120   */\n  add\n    /* \"#utility.yul\":6096:6143   */\n  mstore\n    /* \"#utility.yul\":6160:6291   */\n  tag_99\n    /* \"#utility.yul\":6286:6290   */\n  dup2\n    /* \"#utility.yul\":6160:6291   */\n  tag_39\n  jump\t// in\ntag_99:\n    /* \"#utility.yul\":6152:6291   */\n  swap1\n  pop\n    /* \"#utility.yul\":5879:6298   */\n  swap2\n  swap1\n  pop\n  jump\t// out\n    /* \"new-contracts/EduVerifyAdmin.sol\":121:5585  contract EduVerifyAdmin {... */\ntag_18:\n  dataSize(sub_0)\n  dup1\n  dataOffset(sub_0)\n  0x00\n  codecopy\n  0x00\n  return\nstop\n\nsub_0: assembly {\n        /* \"new-contracts/EduVerifyAdmin.sol\":121:5585  contract EduVerifyAdmin {... */\n      mstore(0x40, 0x80)\n      callvalue\n      dup1\n      iszero\n      tag_1\n      jumpi\n      revert(0x00, 0x00)\n    tag_1:\n      pop\n      jumpi(tag_2, lt(calldatasize, 0x04))\n      shr(0xe0, calldataload(0x00))\n      dup1\n      0x8e2767ef\n      gt\n      tag_17\n      jumpi\n      dup1\n      0xdc999c8d\n      gt\n      tag_18\n      jumpi\n      dup1\n      0xdc999c8d\n      eq\n      tag_13\n      jumpi\n      dup1\n      0xe0901d7a\n      eq\n      tag_14\n      jumpi\n      dup1\n      0xe43581b8\n      eq\n      tag_15\n      jumpi\n      dup1\n      0xe8c9fd45\n      eq\n      tag_16\n      jumpi\n      jump(tag_2)\n    tag_18:\n      dup1\n      0x8e2767ef\n      eq\n      tag_10\n      jumpi\n      dup1\n      0xaebe39ca\n      eq\n      tag_11\n      jumpi\n      dup1\n      0xda35c664\n      eq\n      tag_12\n      jumpi\n      jump(tag_2)\n    tag_17:\n      dup1\n      0x0eb3813a\n      gt\n      tag_19\n      jumpi\n      dup1\n      0x0eb3813a\n      eq\n      tag_6\n      jumpi\n      dup1\n      0x0ef60a85\n      eq\n      tag_7\n      jumpi\n      dup1\n      0x3b4d01a7\n      eq\n      tag_8\n      jumpi\n      dup1\n      0x43859632\n      eq\n      tag_9\n      jumpi\n      jump(tag_2)\n    tag_19:\n      dup1\n      0x0121b93f\n      eq\n      tag_3\n      jumpi\n      dup1\n      0x013cf08b\n      eq\n      tag_4\n      jumpi\n      dup1\n      0x0d61b519\n      eq\n      tag_5\n      jumpi\n    tag_2:\n      revert(0x00, 0x00)\n        /* \"new-contracts/EduVerifyAdmin.sol\":2554:2946  function vote(uint proposalId) external onlyGovernor {... */\n    tag_3:\n      tag_20\n      0x04\n      dup1\n      calldatasize\n      sub\n      dup2\n      add\n      swap1\n      tag_21\n      swap2\n      swap1\n      tag_22\n      jump\t// in\n    tag_21:\n      tag_23\n      jump\t// in\n    tag_20:\n      stop\n        /* \"new-contracts/EduVerifyAdmin.sol\":911:938  Proposal[] public proposals */\n    tag_4:\n      tag_24\n      0x04\n      dup1\n      calldatasize\n      sub\n      dup2\n      add\n      swap1\n      tag_25\n      swap2\n      swap1\n      tag_22\n      jump\t// in\n    tag_25:\n      tag_26\n      jump\t// in\n    tag_24:\n      mload(0x40)\n      tag_27\n      swap7\n      swap6\n      swap5\n      swap4\n      swap3\n      swap2\n      swap1\n      tag_28\n      jump\t// in\n    tag_27:\n      mload(0x40)\n      dup1\n      swap2\n      sub\n      swap1\n      return\n        /* \"new-contracts/EduVerifyAdmin.sol\":2956:4543  function executeProposal(uint proposalId) external onlyGovernor {... */\n    tag_5:\n      tag_29\n      0x04\n      dup1\n      calldatasize\n      sub\n      dup2\n      add\n      swap1\n      tag_30\n      swap2\n      swap1\n      tag_22\n      jump\t// in\n    tag_30:\n      tag_31\n      jump\t// in\n    tag_29:\n      stop\n        /* \"new-contracts/EduVerifyAdmin.sol\":1905:2009  function calculateThreshold() public view returns(uint) {... */\n    tag_6:\n      tag_32\n      tag_33\n      jump\t// in\n    tag_32:\n      mload(0x40)\n      tag_34\n      swap2\n      swap1\n      tag_35\n      jump\t// in\n    tag_34:\n      mload(0x40)\n      dup1\n      swap2\n      sub\n      swap1\n      return\n        /* \"new-contracts/EduVerifyAdmin.sol\":822:848  uint public totalGovernors */\n    tag_7:\n      tag_36\n      tag_37\n      jump\t// in\n    tag_36:\n      mload(0x40)\n      tag_38\n      swap2\n      swap1\n      tag_35\n      jump\t// in\n    tag_38:\n      mload(0x40)\n      dup1\n      swap2\n      sub\n      swap1\n      return\n        /* \"new-contracts/EduVerifyAdmin.sol\":4553:4854  function getProposalDetails(uint proposalId) public view returns( Action action, address target, uint yesVotes, uint snapshotGovernorCount,  bool executed) {... */\n    tag_8:\n      tag_39\n      0x04\n      dup1\n      calldatasize\n      sub\n      dup2\n      add\n      swap1\n      tag_40\n      swap2\n      swap1\n      tag_22\n      jump\t// in\n    tag_40:\n      tag_41\n      jump\t// in\n    tag_39:\n      mload(0x40)\n      tag_42\n      swap6\n      swap5\n      swap4\n      swap3\n      swap2\n      swap1\n      tag_43\n      jump\t// in\n    tag_42:\n      mload(0x40)\n      dup1\n      swap2\n      sub\n      swap1\n      return\n        /* \"new-contracts/EduVerifyAdmin.sol\":5059:5202  function hasVoted(uint proposalId, address governor) public view returns(bool) {... */\n    tag_9:\n      tag_44\n      0x04\n      dup1\n      calldatasize\n      sub\n      dup2\n      add\n      swap1\n      tag_45\n      swap2\n      swap1\n      tag_46\n      jump\t// in\n    tag_45:\n      tag_47\n      jump\t// in\n    tag_44:\n      mload(0x40)\n      tag_48\n      swap2\n      swap1\n      tag_49\n      jump\t// in\n    tag_48:\n      mload(0x40)\n      dup1\n      swap2\n      sub\n      swap1\n      return\n        /* \"new-contracts/EduVerifyAdmin.sol\":4864:5049  function getThresholdForProposal(uint proposalId) public view returns(uint) {... */\n    tag_10:\n      tag_50\n      0x04\n      dup1\n      calldatasize\n      sub\n      dup2\n      add\n      swap1\n      tag_51\n      swap2\n      swap1\n      tag_22\n      jump\t// in\n    tag_51:\n      tag_52\n      jump\t// in\n    tag_50:\n      mload(0x40)\n      tag_53\n      swap2\n      swap1\n      tag_35\n      jump\t// in\n    tag_53:\n      mload(0x40)\n      dup1\n      swap2\n      sub\n      swap1\n      return\n        /* \"new-contracts/EduVerifyAdmin.sol\":2019:2548  function propose(Action action, address target) external onlyGovernor returns(uint) {... */\n    tag_11:\n      tag_54\n      0x04\n      dup1\n      calldatasize\n      sub\n      dup2\n      add\n      swap1\n      tag_55\n      swap2\n      swap1\n      tag_56\n      jump\t// in\n    tag_55:\n      tag_57\n      jump\t// in\n    tag_54:\n      mload(0x40)\n      tag_58\n      swap2\n      swap1\n      tag_35\n      jump\t// in\n    tag_58:\n      mload(0x40)\n      dup1\n      swap2\n      sub\n      swap1\n      return\n        /* \"new-contracts/EduVerifyAdmin.sol\":5212:5303  function proposalCount() public view returns(uint) {... */\n    tag_12:\n      tag_59\n      tag_60\n      jump\t// in\n    tag_59:\n      mload(0x40)\n      tag_61\n      swap2\n      swap1\n      tag_35\n      jump\t// in\n    tag_61:\n      mload(0x40)\n      dup1\n      swap2\n      sub\n      swap1\n      return\n        /* \"new-contracts/EduVerifyAdmin.sol\":854:878  address public eduVerify */\n    tag_13:\n      tag_62\n      tag_63\n      jump\t// in\n    tag_62:\n      mload(0x40)\n      tag_64\n      swap2\n      swap1\n      tag_65\n      jump\t// in\n    tag_64:\n      mload(0x40)\n      dup1\n      swap2\n      sub\n      swap1\n      return\n        /* \"new-contracts/EduVerifyAdmin.sol\":5408:5583  function setEduVerifyAddress(address _eduVerify) external onlyGovernor {... */\n    tag_14:\n      tag_66\n      0x04\n      dup1\n      calldatasize\n      sub\n      dup2\n      add\n      swap1\n      tag_67\n      swap2\n      swap1\n      tag_68\n      jump\t// in\n    tag_67:\n      tag_69\n      jump\t// in\n    tag_66:\n      stop\n        /* \"new-contracts/EduVerifyAdmin.sol\":774:816  mapping(address => bool) public isGovernor */\n    tag_15:\n      tag_70\n      0x04\n      dup1\n      calldatasize\n      sub\n      dup2\n      add\n      swap1\n      tag_71\n      swap2\n      swap1\n      tag_68\n      jump\t// in\n    tag_71:\n      tag_72\n      jump\t// in\n    tag_70:\n      mload(0x40)\n      tag_73\n      swap2\n      swap1\n      tag_49\n      jump\t// in\n    tag_73:\n      mload(0x40)\n      dup1\n      swap2\n      sub\n      swap1\n      return\n        /* \"new-contracts/EduVerifyAdmin.sol\":5313:5402  function governorCount() public view returns(uint) {... */\n    tag_16:\n      tag_74\n      tag_75\n      jump\t// in\n    tag_74:\n      mload(0x40)\n      tag_76\n      swap2\n      swap1\n      tag_35\n      jump\t// in\n    tag_76:\n      mload(0x40)\n      dup1\n      swap2\n      sub\n      swap1\n      return\n        /* \"new-contracts/EduVerifyAdmin.sol\":2554:2946  function vote(uint proposalId) external onlyGovernor {... */\n    tag_23:\n        /* \"new-contracts/EduVerifyAdmin.sol\":1313:1323  isGovernor */\n      0x00\n        /* \"new-contracts/EduVerifyAdmin.sol\":1313:1335  isGovernor[msg.sender] */\n      0x00\n        /* \"new-contracts/EduVerifyAdmin.sol\":1324:1334  msg.sender */\n      caller\n        /* \"new-contracts/EduVerifyAdmin.sol\":1313:1335  isGovernor[msg.sender] */\n      0xffffffffffffffffffffffffffffffffffffffff\n      and\n      0xffffffffffffffffffffffffffffffffffffffff\n      and\n      dup2\n      mstore\n      0x20\n      add\n      swap1\n      dup2\n      mstore\n      0x20\n      add\n      0x00\n      keccak256\n      0x00\n      swap1\n      sload\n      swap1\n      0x0100\n      exp\n      swap1\n      div\n      0xff\n      and\n        /* \"new-contracts/EduVerifyAdmin.sol\":1305:1354  require(isGovernor[msg.sender], \"Not a governor\") */\n      tag_78\n      jumpi\n      mload(0x40)\n      0x08c379a000000000000000000000000000000000000000000000000000000000\n      dup2\n      mstore\n      0x04\n      add\n      tag_79\n      swap1\n      tag_80\n      jump\t// in\n    tag_79:\n      mload(0x40)\n      dup1\n      swap2\n      sub\n      swap1\n      revert\n    tag_78:\n        /* \"new-contracts/EduVerifyAdmin.sol\":2617:2642  Proposal storage proposal */\n      0x00\n        /* \"new-contracts/EduVerifyAdmin.sol\":2645:2654  proposals */\n      0x03\n        /* \"new-contracts/EduVerifyAdmin.sol\":2655:2665  proposalId */\n      dup3\n        /* \"new-contracts/EduVerifyAdmin.sol\":2645:2666  proposals[proposalId] */\n      dup2\n      sload\n      dup2\n      lt\n      tag_82\n      jumpi\n      tag_83\n      tag_84\n      jump\t// in\n    tag_83:\n    tag_82:\n      swap1\n      0x00\n      mstore\n      keccak256(0x00, 0x20)\n      swap1\n      0x06\n      mul\n      add\n        /* \"new-contracts/EduVerifyAdmin.sol\":2617:2666  Proposal storage proposal = proposals[proposalId] */\n      swap1\n      pop\n        /* \"new-contracts/EduVerifyAdmin.sol\":2685:2693  proposal */\n      dup1\n        /* \"new-contracts/EduVerifyAdmin.sol\":2685:2702  proposal.hasVoted */\n      0x05\n      add\n        /* \"new-contracts/EduVerifyAdmin.sol\":2685:2714  proposal.hasVoted[msg.sender] */\n      0x00\n        /* \"new-contracts/EduVerifyAdmin.sol\":2703:2713  msg.sender */\n      caller\n        /* \"new-contracts/EduVerifyAdmin.sol\":2685:2714  proposal.hasVoted[msg.sender] */\n      0xffffffffffffffffffffffffffffffffffffffff\n      and\n      0xffffffffffffffffffffffffffffffffffffffff\n      and\n      dup2\n      mstore\n      0x20\n      add\n      swap1\n      dup2\n      mstore\n      0x20\n      add\n      0x00\n      keccak256\n      0x00\n      swap1\n      sload\n      swap1\n      0x0100\n      exp\n      swap1\n      div\n      0xff\n      and\n        /* \"new-contracts/EduVerifyAdmin.sol\":2684:2714  !proposal.hasVoted[msg.sender] */\n      iszero\n        /* \"new-contracts/EduVerifyAdmin.sol\":2676:2741  require(!proposal.hasVoted[msg.sender], \"Governor already voted\") */\n      tag_86\n      jumpi\n      mload(0x40)\n      0x08c379a000000000000000000000000000000000000000000000000000000000\n      dup2\n      mstore\n      0x04\n      add\n      tag_87\n      swap1\n      tag_88\n      jump\t// in\n    tag_87:\n      mload(0x40)\n      dup1\n      swap2\n      sub\n      swap1\n      revert\n    tag_86:\n        /* \"new-contracts/EduVerifyAdmin.sol\":2760:2768  proposal */\n      dup1\n        /* \"new-contracts/EduVerifyAdmin.sol\":2760:2777  proposal.executed */\n      0x04\n      add\n      0x00\n      swap1\n      sload\n      swap1\n      0x0100\n      exp\n      swap1\n      div\n      0xff\n      and\n        /* \"new-contracts/EduVerifyAdmin.sol\":2759:2777  !proposal.executed */\n      iszero\n        /* \"new-contracts/EduVerifyAdmin.sol\":2751:2807  require(!proposal.executed, \"Proposal already executed\") */\n      tag_89\n      jumpi\n      mload(0x40)\n      0x08c379a000000000000000000000000000000000000000000000000000000000\n      dup2\n      mstore\n      0x04\n      add\n      tag_90\n      swap1\n      tag_91\n      jump\t// in\n    tag_90:\n      mload(0x40)\n      dup1\n      swap2\n      sub\n      swap1\n      revert\n    tag_89:\n        /* \"new-contracts/EduVerifyAdmin.sol\":2858:2862  true */\n      0x01\n        /* \"new-contracts/EduVerifyAdmin.sol\":2826:2834  proposal */\n      dup2\n        /* \"new-contracts/EduVerifyAdmin.sol\":2826:2843  proposal.hasVoted */\n      0x05\n      add\n        /* \"new-contracts/EduVerifyAdmin.sol\":2826:2855  proposal.hasVoted[msg.sender] */\n      0x00\n        /* \"new-contracts/EduVerifyAdmin.sol\":2844:2854  msg.sender */\n      caller\n        /* \"new-contracts/EduVerifyAdmin.sol\":2826:2855  proposal.hasVoted[msg.sender] */\n      0xffffffffffffffffffffffffffffffffffffffff\n      and\n      0xffffffffffffffffffffffffffffffffffffffff\n      and\n      dup2\n      mstore\n      0x20\n      add\n      swap1\n      dup2\n      mstore\n      0x20\n      add\n      0x00\n      keccak256\n      0x00\n        /* \"new-contracts/EduVerifyAdmin.sol\":2826:2862  proposal.hasVoted[msg.sender] = true */\n      0x0100\n      exp\n      dup2\n      sload\n      dup2\n      0xff\n      mul\n      not\n      and\n      swap1\n      dup4\n      iszero\n      iszero\n      mul\n      or\n      swap1\n      sstore\n      pop\n        /* \"new-contracts/EduVerifyAdmin.sol\":2891:2892  1 */\n      0x01\n        /* \"new-contracts/EduVerifyAdmin.sol\":2872:2880  proposal */\n      dup2\n        /* \"new-contracts/EduVerifyAdmin.sol\":2872:2889  proposal.yesVotes */\n      0x02\n      add\n      0x00\n        /* \"new-contracts/EduVerifyAdmin.sol\":2872:2892  proposal.yesVotes+=1 */\n      dup3\n      dup3\n      sload\n      tag_92\n      swap2\n      swap1\n      tag_93\n      jump\t// in\n    tag_92:\n      swap3\n      pop\n      pop\n      dup2\n      swap1\n      sstore\n      pop\n        /* \"new-contracts/EduVerifyAdmin.sol\":2928:2938  msg.sender */\n      caller\n        /* \"new-contracts/EduVerifyAdmin.sol\":2907:2939  VoteCast(proposalId, msg.sender) */\n      0xffffffffffffffffffffffffffffffffffffffff\n      and\n        /* \"new-contracts/EduVerifyAdmin.sol\":2916:2926  proposalId */\n      dup3\n        /* \"new-contracts/EduVerifyAdmin.sol\":2907:2939  VoteCast(proposalId, msg.sender) */\n      0xf1003b73c437642c0460aee9cd9628b0b8c447b66e6c7c905531b9c644214a11\n      mload(0x40)\n      mload(0x40)\n      dup1\n      swap2\n      sub\n      swap1\n      log3\n        /* \"new-contracts/EduVerifyAdmin.sol\":2607:2946  {... */\n      pop\n        /* \"new-contracts/EduVerifyAdmin.sol\":2554:2946  function vote(uint proposalId) external onlyGovernor {... */\n      pop\n      jump\t// out\n        /* \"new-contracts/EduVerifyAdmin.sol\":911:938  Proposal[] public proposals */\n    tag_26:\n      0x03\n      dup2\n      dup2\n      sload\n      dup2\n      lt\n      tag_94\n      jumpi\n      0x00\n      dup1\n      revert\n    tag_94:\n      swap1\n      0x00\n      mstore\n      keccak256(0x00, 0x20)\n      swap1\n      0x06\n      mul\n      add\n      0x00\n      swap2\n      pop\n      swap1\n      pop\n      dup1\n      0x00\n      add\n      sload\n      swap1\n      dup1\n      0x01\n      add\n      0x00\n      swap1\n      sload\n      swap1\n      0x0100\n      exp\n      swap1\n      div\n      0xff\n      and\n      swap1\n      dup1\n      0x01\n      add\n      0x01\n      swap1\n      sload\n      swap1\n      0x0100\n      exp\n      swap1\n      div\n      0xffffffffffffffffffffffffffffffffffffffff\n      and\n      swap1\n      dup1\n      0x02\n      add\n      sload\n      swap1\n      dup1\n      0x03\n      add\n      sload\n      swap1\n      dup1\n      0x04\n      add\n      0x00\n      swap1\n      sload\n      swap1\n      0x0100\n      exp\n      swap1\n      div\n      0xff\n      and\n      swap1\n      pop\n      dup7\n      jump\t// out\n        /* \"new-contracts/EduVerifyAdmin.sol\":2956:4543  function executeProposal(uint proposalId) external onlyGovernor {... */\n    tag_31:\n        /* \"new-contracts/EduVerifyAdmin.sol\":1313:1323  isGovernor */\n      0x00\n        /* \"new-contracts/EduVerifyAdmin.sol\":1313:1335  isGovernor[msg.sender] */\n      0x00\n        /* \"new-contracts/EduVerifyAdmin.sol\":1324:1334  msg.sender */\n      caller\n        /* \"new-contracts/EduVerifyAdmin.sol\":1313:1335  isGovernor[msg.sender] */\n      0xffffffffffffffffffffffffffffffffffffffff\n      and\n      0xffffffffffffffffffffffffffffffffffffffff\n      and\n      dup2\n      mstore\n      0x20\n      add\n      swap1\n      dup2\n      mstore\n      0x20\n      add\n      0x00\n      keccak256\n      0x00\n      swap1\n      sload\n      swap1\n      0x0100\n      exp\n      swap1\n      div\n      0xff\n      and\n        /* \"new-contracts/EduVerifyAdmin.sol\":1305:1354  require(isGovernor[msg.sender], \"Not a governor\") */\n      tag_97\n      jumpi\n      mload(0x40)\n      0x08c379a000000000000000000000000000000000000000000000000000000000\n      dup2\n      mstore\n      0x04\n      add\n      tag_98\n      swap1\n      tag_80\n      jump\t// in\n    tag_98:\n      mload(0x40)\n      dup1\n      swap2\n      sub\n      swap1\n      revert\n    tag_97:\n        /* \"new-contracts/EduVerifyAdmin.sol\":3030:3055  Proposal storage proposal */\n      0x00\n        /* \"new-contracts/EduVerifyAdmin.sol\":3058:3067  proposals */\n      0x03\n        /* \"new-contracts/EduVerifyAdmin.sol\":3068:3078  proposalId */\n      dup3\n        /* \"new-contracts/EduVerifyAdmin.sol\":3058:3079  proposals[proposalId] */\n      dup2\n      sload\n      dup2\n      lt\n      tag_100\n      jumpi\n      tag_101\n      tag_84\n      jump\t// in\n    tag_101:\n    tag_100:\n      swap1\n      0x00\n      mstore\n      keccak256(0x00, 0x20)\n      swap1\n      0x06\n      mul\n      add\n        /* \"new-contracts/EduVerifyAdmin.sol\":3030:3079  Proposal storage proposal = proposals[proposalId] */\n      swap1\n      pop\n        /* \"new-contracts/EduVerifyAdmin.sol\":3089:3111  uint requiredThreshold */\n      0x00\n        /* \"new-contracts/EduVerifyAdmin.sol\":3153:3154  1 */\n      0x01\n        /* \"new-contracts/EduVerifyAdmin.sol\":3148:3149  2 */\n      0x02\n        /* \"new-contracts/EduVerifyAdmin.sol\":3115:3123  proposal */\n      dup4\n        /* \"new-contracts/EduVerifyAdmin.sol\":3115:3145  proposal.snapshotGovernorCount */\n      0x03\n      add\n      sload\n        /* \"new-contracts/EduVerifyAdmin.sol\":3115:3149  proposal.snapshotGovernorCount / 2 */\n      tag_103\n      swap2\n      swap1\n      tag_104\n      jump\t// in\n    tag_103:\n        /* \"new-contracts/EduVerifyAdmin.sol\":3114:3154  (proposal.snapshotGovernorCount / 2) + 1 */\n      tag_105\n      swap2\n      swap1\n      tag_93\n      jump\t// in\n    tag_105:\n        /* \"new-contracts/EduVerifyAdmin.sol\":3089:3154  uint requiredThreshold = (proposal.snapshotGovernorCount / 2) + 1 */\n      swap1\n      pop\n        /* \"new-contracts/EduVerifyAdmin.sol\":3202:3219  requiredThreshold */\n      dup1\n        /* \"new-contracts/EduVerifyAdmin.sol\":3181:3189  proposal */\n      dup3\n        /* \"new-contracts/EduVerifyAdmin.sol\":3181:3198  proposal.yesVotes */\n      0x02\n      add\n      sload\n        /* \"new-contracts/EduVerifyAdmin.sol\":3181:3219  proposal.yesVotes >= requiredThreshold */\n      lt\n      iszero\n        /* \"new-contracts/EduVerifyAdmin.sol\":3173:3262  require(proposal.yesVotes >= requiredThreshold, \"Insufficient votes to execute proposal\") */\n      tag_106\n      jumpi\n      mload(0x40)\n      0x08c379a000000000000000000000000000000000000000000000000000000000\n      dup2\n      mstore\n      0x04\n      add\n      tag_107\n      swap1\n      tag_108\n      jump\t// in\n    tag_107:\n      mload(0x40)\n      dup1\n      swap2\n      sub\n      swap1\n      revert\n    tag_106:\n        /* \"new-contracts/EduVerifyAdmin.sol\":3281:3289  proposal */\n      dup2\n        /* \"new-contracts/EduVerifyAdmin.sol\":3281:3298  proposal.executed */\n      0x04\n      add\n      0x00\n      swap1\n      sload\n      swap1\n      0x0100\n      exp\n      swap1\n      div\n      0xff\n      and\n        /* \"new-contracts/EduVerifyAdmin.sol\":3280:3298  !proposal.executed */\n      iszero\n        /* \"new-contracts/EduVerifyAdmin.sol\":3272:3328  require(!proposal.executed, \"Proposal already executed\") */\n      tag_109\n      jumpi\n      mload(0x40)\n      0x08c379a000000000000000000000000000000000000000000000000000000000\n      dup2\n      mstore\n      0x04\n      add\n      tag_110\n      swap1\n      tag_91\n      jump\t// in\n    tag_110:\n      mload(0x40)\n      dup1\n      swap2\n      sub\n      swap1\n      revert\n    tag_109:\n        /* \"new-contracts/EduVerifyAdmin.sol\":3369:3390  Action.AddInstitution */\n      0x00\n        /* \"new-contracts/EduVerifyAdmin.sol\":3350:3390  proposal.action == Action.AddInstitution */\n      0x03\n      dup2\n      gt\n      iszero\n      tag_111\n      jumpi\n      tag_112\n      tag_113\n      jump\t// in\n    tag_112:\n    tag_111:\n        /* \"new-contracts/EduVerifyAdmin.sol\":3350:3358  proposal */\n      dup3\n        /* \"new-contracts/EduVerifyAdmin.sol\":3350:3365  proposal.action */\n      0x01\n      add\n      0x00\n      swap1\n      sload\n      swap1\n      0x0100\n      exp\n      swap1\n      div\n      0xff\n      and\n        /* \"new-contracts/EduVerifyAdmin.sol\":3350:3390  proposal.action == Action.AddInstitution */\n      0x03\n      dup2\n      gt\n      iszero\n      tag_114\n      jumpi\n      tag_115\n      tag_113\n      jump\t// in\n    tag_115:\n    tag_114:\n      sub\n        /* \"new-contracts/EduVerifyAdmin.sol\":3347:4451  if(proposal.action == Action.AddInstitution) {... */\n      tag_116\n      jumpi\n        /* \"new-contracts/EduVerifyAdmin.sol\":3407:3419  bool success */\n      0x00\n        /* \"new-contracts/EduVerifyAdmin.sol\":3425:3434  eduVerify */\n      0x02\n      0x00\n      swap1\n      sload\n      swap1\n      0x0100\n      exp\n      swap1\n      div\n      0xffffffffffffffffffffffffffffffffffffffff\n      and\n        /* \"new-contracts/EduVerifyAdmin.sol\":3425:3439  eduVerify.call */\n      0xffffffffffffffffffffffffffffffffffffffff\n      and\n        /* \"new-contracts/EduVerifyAdmin.sol\":3497:3505  proposal */\n      dup4\n        /* \"new-contracts/EduVerifyAdmin.sol\":3497:3512  proposal.target */\n      0x01\n      add\n      0x01\n      swap1\n      sload\n      swap1\n      0x0100\n      exp\n      swap1\n      div\n      0xffffffffffffffffffffffffffffffffffffffff\n      and\n        /* \"new-contracts/EduVerifyAdmin.sol\":3440:3513  abi.encodeWithSignature(\"authorizeInstitution(address)\", proposal.target) */\n      add(0x24, mload(0x40))\n      tag_117\n      swap2\n      swap1\n      tag_65\n      jump\t// in\n    tag_117:\n      mload(0x40)\n      0x20\n      dup2\n      dup4\n      sub\n      sub\n      dup2\n      mstore\n      swap1\n      0x40\n      mstore\n      and(not(0xffffffffffffffffffffffffffffffffffffffffffffffffffffffff), 0xbd4d8bcb00000000000000000000000000000000000000000000000000000000)\n      0x20\n      dup3\n      add\n      dup1\n      mload\n      0xffffffffffffffffffffffffffffffffffffffffffffffffffffffff\n      dup4\n      dup2\n      dup4\n      and\n      or\n      dup4\n      mstore\n      pop\n      pop\n      pop\n      pop\n        /* \"new-contracts/EduVerifyAdmin.sol\":3425:3514  eduVerify.call(abi.encodeWithSignature(\"authorizeInstitution(address)\", proposal.target)) */\n      mload(0x40)\n      tag_118\n      swap2\n      swap1\n      tag_119\n      jump\t// in\n    tag_118:\n      0x00\n      mload(0x40)\n      dup1\n      dup4\n      sub\n      dup2\n      0x00\n      dup7\n      gas\n      call\n      swap2\n      pop\n      pop\n      returndatasize\n      dup1\n      0x00\n      dup2\n      eq\n      tag_122\n      jumpi\n      mload(0x40)\n      swap2\n      pop\n      and(add(returndatasize, 0x3f), not(0x1f))\n      dup3\n      add\n      0x40\n      mstore\n      returndatasize\n      dup3\n      mstore\n      returndatasize\n      0x00\n      0x20\n      dup5\n      add\n      returndatacopy\n      jump(tag_121)\n    tag_122:\n      0x60\n      swap2\n      pop\n    tag_121:\n      pop\n        /* \"new-contracts/EduVerifyAdmin.sol\":3406:3514  (bool success, ) = eduVerify.call(abi.encodeWithSignature(\"authorizeInstitution(address)\", proposal.target)) */\n      pop\n      swap1\n      pop\n        /* \"new-contracts/EduVerifyAdmin.sol\":3536:3543  success */\n      dup1\n        /* \"new-contracts/EduVerifyAdmin.sol\":3528:3568  require(success, \"Authorization failed\") */\n      tag_123\n      jumpi\n      mload(0x40)\n      0x08c379a000000000000000000000000000000000000000000000000000000000\n      dup2\n      mstore\n      0x04\n      add\n      tag_124\n      swap1\n      tag_125\n      jump\t// in\n    tag_124:\n      mload(0x40)\n      dup1\n      swap2\n      sub\n      swap1\n      revert\n    tag_123:\n        /* \"new-contracts/EduVerifyAdmin.sol\":3392:3579  {... */\n      pop\n        /* \"new-contracts/EduVerifyAdmin.sol\":3347:4451  if(proposal.action == Action.AddInstitution) {... */\n      jump(tag_126)\n    tag_116:\n        /* \"new-contracts/EduVerifyAdmin.sol\":3615:3639  Action.RevokeInstitution */\n      0x01\n        /* \"new-contracts/EduVerifyAdmin.sol\":3596:3639  proposal.action == Action.RevokeInstitution */\n      0x03\n      dup2\n      gt\n      iszero\n      tag_127\n      jumpi\n      tag_128\n      tag_113\n      jump\t// in\n    tag_128:\n    tag_127:\n        /* \"new-contracts/EduVerifyAdmin.sol\":3596:3604  proposal */\n      dup3\n        /* \"new-contracts/EduVerifyAdmin.sol\":3596:3611  proposal.action */\n      0x01\n      add\n      0x00\n      swap1\n      sload\n      swap1\n      0x0100\n      exp\n      swap1\n      div\n      0xff\n      and\n        /* \"new-contracts/EduVerifyAdmin.sol\":3596:3639  proposal.action == Action.RevokeInstitution */\n      0x03\n      dup2\n      gt\n      iszero\n      tag_129\n      jumpi\n      tag_130\n      tag_113\n      jump\t// in\n    tag_130:\n    tag_129:\n      sub\n        /* \"new-contracts/EduVerifyAdmin.sol\":3593:4451  if(proposal.action == Action.RevokeInstitution) {... */\n      tag_131\n      jumpi\n        /* \"new-contracts/EduVerifyAdmin.sol\":3656:3668  bool success */\n      0x00\n        /* \"new-contracts/EduVerifyAdmin.sol\":3674:3683  eduVerify */\n      0x02\n      0x00\n      swap1\n      sload\n      swap1\n      0x0100\n      exp\n      swap1\n      div\n      0xffffffffffffffffffffffffffffffffffffffff\n      and\n        /* \"new-contracts/EduVerifyAdmin.sol\":3674:3688  eduVerify.call */\n      0xffffffffffffffffffffffffffffffffffffffff\n      and\n        /* \"new-contracts/EduVerifyAdmin.sol\":3743:3751  proposal */\n      dup4\n        /* \"new-contracts/EduVerifyAdmin.sol\":3743:3758  proposal.target */\n      0x01\n      add\n      0x01\n      swap1\n      sload\n      swap1\n      0x0100\n      exp\n      swap1\n      div\n      0xffffffffffffffffffffffffffffffffffffffff\n      and\n        /* \"new-contracts/EduVerifyAdmin.sol\":3689:3759  abi.encodeWithSignature(\"revokeInstitution(address)\", proposal.target) */\n      add(0x24, mload(0x40))\n      tag_132\n      swap2\n      swap1\n      tag_65\n      jump\t// in\n    tag_132:\n      mload(0x40)\n      0x20\n      dup2\n      dup4\n      sub\n      sub\n      dup2\n      mstore\n      swap1\n      0x40\n      mstore\n      and(not(0xffffffffffffffffffffffffffffffffffffffffffffffffffffffff), 0x1c67494e00000000000000000000000000000000000000000000000000000000)\n      0x20\n      dup3\n      add\n      dup1\n      mload\n      0xffffffffffffffffffffffffffffffffffffffffffffffffffffffff\n      dup4\n      dup2\n      dup4\n      and\n      or\n      dup4\n      mstore\n      pop\n      pop\n      pop\n      pop\n        /* \"new-contracts/EduVerifyAdmin.sol\":3674:3760  eduVerify.call(abi.encodeWithSignature(\"revokeInstitution(address)\", proposal.target)) */\n      mload(0x40)\n      tag_133\n      swap2\n      swap1\n      tag_119\n      jump\t// in\n    tag_133:\n      0x00\n      mload(0x40)\n      dup1\n      dup4\n      sub\n      dup2\n      0x00\n      dup7\n      gas\n      call\n      swap2\n      pop\n      pop\n      returndatasize\n      dup1\n      0x00\n      dup2\n      eq\n      tag_136\n      jumpi\n      mload(0x40)\n      swap2\n      pop\n      and(add(returndatasize, 0x3f), not(0x1f))\n      dup3\n      add\n      0x40\n      mstore\n      returndatasize\n      dup3\n      mstore\n      returndatasize\n      0x00\n      0x20\n      dup5\n      add\n      returndatacopy\n      jump(tag_135)\n    tag_136:\n      0x60\n      swap2\n      pop\n    tag_135:\n      pop\n        /* \"new-contracts/EduVerifyAdmin.sol\":3655:3760  (bool success, ) = eduVerify.call(abi.encodeWithSignature(\"revokeInstitution(address)\", proposal.target)) */\n      pop\n      swap1\n      pop\n        /* \"new-contracts/EduVerifyAdmin.sol\":3782:3789  success */\n      dup1\n        /* \"new-contracts/EduVerifyAdmin.sol\":3774:3811  require(success, \"Revocation failed\") */\n      tag_137\n      jumpi\n      mload(0x40)\n      0x08c379a000000000000000000000000000000000000000000000000000000000\n      dup2\n      mstore\n      0x04\n      add\n      tag_138\n      swap1\n      tag_139\n      jump\t// in\n    tag_138:\n      mload(0x40)\n      dup1\n      swap2\n      sub\n      swap1\n      revert\n    tag_137:\n        /* \"new-contracts/EduVerifyAdmin.sol\":3641:3822  {... */\n      pop\n        /* \"new-contracts/EduVerifyAdmin.sol\":3593:4451  if(proposal.action == Action.RevokeInstitution) {... */\n      jump(tag_140)\n    tag_131:\n        /* \"new-contracts/EduVerifyAdmin.sol\":3858:3876  Action.AddGovernor */\n      0x02\n        /* \"new-contracts/EduVerifyAdmin.sol\":3839:3876  proposal.action == Action.AddGovernor */\n      0x03\n      dup2\n      gt\n      iszero\n      tag_141\n      jumpi\n      tag_142\n      tag_113\n      jump\t// in\n    tag_142:\n    tag_141:\n        /* \"new-contracts/EduVerifyAdmin.sol\":3839:3847  proposal */\n      dup3\n        /* \"new-contracts/EduVerifyAdmin.sol\":3839:3854  proposal.action */\n      0x01\n      add\n      0x00\n      swap1\n      sload\n      swap1\n      0x0100\n      exp\n      swap1\n      div\n      0xff\n      and\n        /* \"new-contracts/EduVerifyAdmin.sol\":3839:3876  proposal.action == Action.AddGovernor */\n      0x03\n      dup2\n      gt\n      iszero\n      tag_143\n      jumpi\n      tag_144\n      tag_113\n      jump\t// in\n    tag_144:\n    tag_143:\n      sub\n        /* \"new-contracts/EduVerifyAdmin.sol\":3836:4451  if(proposal.action == Action.AddGovernor) {... */\n      tag_145\n      jumpi\n        /* \"new-contracts/EduVerifyAdmin.sol\":3901:3911  isGovernor */\n      0x00\n        /* \"new-contracts/EduVerifyAdmin.sol\":3901:3928  isGovernor[proposal.target] */\n      0x00\n        /* \"new-contracts/EduVerifyAdmin.sol\":3912:3920  proposal */\n      dup4\n        /* \"new-contracts/EduVerifyAdmin.sol\":3912:3927  proposal.target */\n      0x01\n      add\n      0x01\n      swap1\n      sload\n      swap1\n      0x0100\n      exp\n      swap1\n      div\n      0xffffffffffffffffffffffffffffffffffffffff\n      and\n        /* \"new-contracts/EduVerifyAdmin.sol\":3901:3928  isGovernor[proposal.target] */\n      0xffffffffffffffffffffffffffffffffffffffff\n      and\n      0xffffffffffffffffffffffffffffffffffffffff\n      and\n      dup2\n      mstore\n      0x20\n      add\n      swap1\n      dup2\n      mstore\n      0x20\n      add\n      0x00\n      keccak256\n      0x00\n      swap1\n      sload\n      swap1\n      0x0100\n      exp\n      swap1\n      div\n      0xff\n      and\n        /* \"new-contracts/EduVerifyAdmin.sol\":3900:3928  !isGovernor[proposal.target] */\n      iszero\n        /* \"new-contracts/EduVerifyAdmin.sol\":3892:3961  require(!isGovernor[proposal.target], \"Target is already a governor\") */\n      tag_146\n      jumpi\n      mload(0x40)\n      0x08c379a000000000000000000000000000000000000000000000000000000000\n      dup2\n      mstore\n      0x04\n      add\n      tag_147\n      swap1\n      tag_148\n      jump\t// in\n    tag_147:\n      mload(0x40)\n      dup1\n      swap2\n      sub\n      swap1\n      revert\n    tag_146:\n        /* \"new-contracts/EduVerifyAdmin.sol\":4005:4009  true */\n      0x01\n        /* \"new-contracts/EduVerifyAdmin.sol\":3975:3985  isGovernor */\n      0x00\n        /* \"new-contracts/EduVerifyAdmin.sol\":3975:4002  isGovernor[proposal.target] */\n      0x00\n        /* \"new-contracts/EduVerifyAdmin.sol\":3986:3994  proposal */\n      dup5\n        /* \"new-contracts/EduVerifyAdmin.sol\":3986:4001  proposal.target */\n      0x01\n      add\n      0x01\n      swap1\n      sload\n      swap1\n      0x0100\n      exp\n      swap1\n      div\n      0xffffffffffffffffffffffffffffffffffffffff\n      and\n        /* \"new-contracts/EduVerifyAdmin.sol\":3975:4002  isGovernor[proposal.target] */\n      0xffffffffffffffffffffffffffffffffffffffff\n      and\n      0xffffffffffffffffffffffffffffffffffffffff\n      and\n      dup2\n      mstore\n      0x20\n      add\n      swap1\n      dup2\n      mstore\n      0x20\n      add\n      0x00\n      keccak256\n      0x00\n        /* \"new-contracts/EduVerifyAdmin.sol\":3975:4009  isGovernor[proposal.target] = true */\n      0x0100\n      exp\n      dup2\n      sload\n      dup2\n      0xff\n      mul\n      not\n      and\n      swap1\n      dup4\n      iszero\n      iszero\n      mul\n      or\n      swap1\n      sstore\n      pop\n        /* \"new-contracts/EduVerifyAdmin.sol\":4023:4037  totalGovernors */\n      0x01\n      0x00\n        /* \"new-contracts/EduVerifyAdmin.sol\":4023:4039  totalGovernors++ */\n      dup2\n      sload\n      dup1\n      swap3\n      swap2\n      swap1\n      tag_149\n      swap1\n      tag_150\n      jump\t// in\n    tag_149:\n      swap2\n      swap1\n      pop\n      sstore\n      pop\n        /* \"new-contracts/EduVerifyAdmin.sol\":4072:4080  proposal */\n      dup2\n        /* \"new-contracts/EduVerifyAdmin.sol\":4072:4087  proposal.target */\n      0x01\n      add\n      0x01\n      swap1\n      sload\n      swap1\n      0x0100\n      exp\n      swap1\n      div\n      0xffffffffffffffffffffffffffffffffffffffff\n      and\n        /* \"new-contracts/EduVerifyAdmin.sol\":4058:4088  GovernorAdded(proposal.target) */\n      0xffffffffffffffffffffffffffffffffffffffff\n      and\n      0xdc5a48d79e2e147530ff63ecdbed5a5a66adb9d5cf339384d5d076da197c40b5\n      mload(0x40)\n      mload(0x40)\n      dup1\n      swap2\n      sub\n      swap1\n      log2\n        /* \"new-contracts/EduVerifyAdmin.sol\":3836:4451  if(proposal.action == Action.AddGovernor) {... */\n      jump(tag_151)\n    tag_145:\n        /* \"new-contracts/EduVerifyAdmin.sol\":4135:4156  Action.RevokeGovernor */\n      0x03\n        /* \"new-contracts/EduVerifyAdmin.sol\":4116:4156  proposal.action == Action.RevokeGovernor */\n      dup1\n      dup2\n      gt\n      iszero\n      tag_152\n      jumpi\n      tag_153\n      tag_113\n      jump\t// in\n    tag_153:\n    tag_152:\n        /* \"new-contracts/EduVerifyAdmin.sol\":4116:4124  proposal */\n      dup3\n        /* \"new-contracts/EduVerifyAdmin.sol\":4116:4131  proposal.action */\n      0x01\n      add\n      0x00\n      swap1\n      sload\n      swap1\n      0x0100\n      exp\n      swap1\n      div\n      0xff\n      and\n        /* \"new-contracts/EduVerifyAdmin.sol\":4116:4156  proposal.action == Action.RevokeGovernor */\n      0x03\n      dup2\n      gt\n      iszero\n      tag_154\n      jumpi\n      tag_155\n      tag_113\n      jump\t// in\n    tag_155:\n    tag_154:\n      sub\n        /* \"new-contracts/EduVerifyAdmin.sol\":4113:4451  if(proposal.action == Action.RevokeGovernor) {... */\n      tag_156\n      jumpi\n        /* \"new-contracts/EduVerifyAdmin.sol\":4180:4190  isGovernor */\n      0x00\n        /* \"new-contracts/EduVerifyAdmin.sol\":4180:4207  isGovernor[proposal.target] */\n      0x00\n        /* \"new-contracts/EduVerifyAdmin.sol\":4191:4199  proposal */\n      dup4\n        /* \"new-contracts/EduVerifyAdmin.sol\":4191:4206  proposal.target */\n      0x01\n      add\n      0x01\n      swap1\n      sload\n      swap1\n      0x0100\n      exp\n      swap1\n      div\n      0xffffffffffffffffffffffffffffffffffffffff\n      and\n        /* \"new-contracts/EduVerifyAdmin.sol\":4180:4207  isGovernor[proposal.target] */\n      0xffffffffffffffffffffffffffffffffffffffff\n      and\n      0xffffffffffffffffffffffffffffffffffffffff\n      and\n      dup2\n      mstore\n      0x20\n      add\n      swap1\n      dup2\n      mstore\n      0x20\n      add\n      0x00\n      keccak256\n      0x00\n      swap1\n      sload\n      swap1\n      0x0100\n      exp\n      swap1\n      div\n      0xff\n      and\n        /* \"new-contracts/EduVerifyAdmin.sol\":4172:4226  require(isGovernor[proposal.target], \"Not a governor\") */\n      tag_157\n      jumpi\n      mload(0x40)\n      0x08c379a000000000000000000000000000000000000000000000000000000000\n      dup2\n      mstore\n      0x04\n      add\n      tag_158\n      swap1\n      tag_80\n      jump\t// in\n    tag_158:\n      mload(0x40)\n      dup1\n      swap2\n      sub\n      swap1\n      revert\n    tag_157:\n        /* \"new-contracts/EduVerifyAdmin.sol\":4266:4267  2 */\n      0x02\n        /* \"new-contracts/EduVerifyAdmin.sol\":4248:4262  totalGovernors */\n      sload(0x01)\n        /* \"new-contracts/EduVerifyAdmin.sol\":4248:4267  totalGovernors >= 2 */\n      lt\n      iszero\n        /* \"new-contracts/EduVerifyAdmin.sol\":4240:4310  require(totalGovernors >= 2, \"Two governors cannot remove each other\") */\n      tag_159\n      jumpi\n      mload(0x40)\n      0x08c379a000000000000000000000000000000000000000000000000000000000\n      dup2\n      mstore\n      0x04\n      add\n      tag_160\n      swap1\n      tag_161\n      jump\t// in\n    tag_160:\n      mload(0x40)\n      dup1\n      swap2\n      sub\n      swap1\n      revert\n    tag_159:\n        /* \"new-contracts/EduVerifyAdmin.sol\":4354:4359  false */\n      0x00\n        /* \"new-contracts/EduVerifyAdmin.sol\":4324:4334  isGovernor */\n      0x00\n        /* \"new-contracts/EduVerifyAdmin.sol\":4324:4351  isGovernor[proposal.target] */\n      0x00\n        /* \"new-contracts/EduVerifyAdmin.sol\":4335:4343  proposal */\n      dup5\n        /* \"new-contracts/EduVerifyAdmin.sol\":4335:4350  proposal.target */\n      0x01\n      add\n      0x01\n      swap1\n      sload\n      swap1\n      0x0100\n      exp\n      swap1\n      div\n      0xffffffffffffffffffffffffffffffffffffffff\n      and\n        /* \"new-contracts/EduVerifyAdmin.sol\":4324:4351  isGovernor[proposal.target] */\n      0xffffffffffffffffffffffffffffffffffffffff\n      and\n      0xffffffffffffffffffffffffffffffffffffffff\n      and\n      dup2\n      mstore\n      0x20\n      add\n      swap1\n      dup2\n      mstore\n      0x20\n      add\n      0x00\n      keccak256\n      0x00\n        /* \"new-contracts/EduVerifyAdmin.sol\":4324:4359  isGovernor[proposal.target] = false */\n      0x0100\n      exp\n      dup2\n      sload\n      dup2\n      0xff\n      mul\n      not\n      and\n      swap1\n      dup4\n      iszero\n      iszero\n      mul\n      or\n      swap1\n      sstore\n      pop\n        /* \"new-contracts/EduVerifyAdmin.sol\":4373:4387  totalGovernors */\n      0x01\n      0x00\n        /* \"new-contracts/EduVerifyAdmin.sol\":4373:4389  totalGovernors-- */\n      dup2\n      sload\n      dup1\n      swap3\n      swap2\n      swap1\n      tag_162\n      swap1\n      tag_163\n      jump\t// in\n    tag_162:\n      swap2\n      swap1\n      pop\n      sstore\n      pop\n        /* \"new-contracts/EduVerifyAdmin.sol\":4424:4432  proposal */\n      dup2\n        /* \"new-contracts/EduVerifyAdmin.sol\":4424:4439  proposal.target */\n      0x01\n      add\n      0x01\n      swap1\n      sload\n      swap1\n      0x0100\n      exp\n      swap1\n      div\n      0xffffffffffffffffffffffffffffffffffffffff\n      and\n        /* \"new-contracts/EduVerifyAdmin.sol\":4408:4440  GovernorRemoved(proposal.target) */\n      0xffffffffffffffffffffffffffffffffffffffff\n      and\n      0x1ebe834e73d60a5fec822c1e1727d34bc79f2ad977ed504581cc1822fe20fb5b\n      mload(0x40)\n      mload(0x40)\n      dup1\n      swap2\n      sub\n      swap1\n      log2\n        /* \"new-contracts/EduVerifyAdmin.sol\":4113:4451  if(proposal.action == Action.RevokeGovernor) {... */\n    tag_156:\n        /* \"new-contracts/EduVerifyAdmin.sol\":3836:4451  if(proposal.action == Action.AddGovernor) {... */\n    tag_151:\n        /* \"new-contracts/EduVerifyAdmin.sol\":3593:4451  if(proposal.action == Action.RevokeInstitution) {... */\n    tag_140:\n        /* \"new-contracts/EduVerifyAdmin.sol\":3347:4451  if(proposal.action == Action.AddInstitution) {... */\n    tag_126:\n        /* \"new-contracts/EduVerifyAdmin.sol\":4489:4493  true */\n      0x01\n        /* \"new-contracts/EduVerifyAdmin.sol\":4469:4477  proposal */\n      dup3\n        /* \"new-contracts/EduVerifyAdmin.sol\":4469:4486  proposal.executed */\n      0x04\n      add\n      0x00\n        /* \"new-contracts/EduVerifyAdmin.sol\":4469:4493  proposal.executed = true */\n      0x0100\n      exp\n      dup2\n      sload\n      dup2\n      0xff\n      mul\n      not\n      and\n      swap1\n      dup4\n      iszero\n      iszero\n      mul\n      or\n      swap1\n      sstore\n      pop\n        /* \"new-contracts/EduVerifyAdmin.sol\":4525:4535  proposalId */\n      dup3\n        /* \"new-contracts/EduVerifyAdmin.sol\":4508:4536  ProposalExecuted(proposalId) */\n      0x712ae1383f79ac853f8d882153778e0260ef8f03b504e2866e0593e04d2b291f\n      mload(0x40)\n      mload(0x40)\n      dup1\n      swap2\n      sub\n      swap1\n      log2\n        /* \"new-contracts/EduVerifyAdmin.sol\":3020:4543  {... */\n      pop\n      pop\n        /* \"new-contracts/EduVerifyAdmin.sol\":2956:4543  function executeProposal(uint proposalId) external onlyGovernor {... */\n      pop\n      jump\t// out\n        /* \"new-contracts/EduVerifyAdmin.sol\":1905:2009  function calculateThreshold() public view returns(uint) {... */\n    tag_33:\n        /* \"new-contracts/EduVerifyAdmin.sol\":1955:1959  uint */\n      0x00\n        /* \"new-contracts/EduVerifyAdmin.sol\":2001:2002  1 */\n      0x01\n        /* \"new-contracts/EduVerifyAdmin.sol\":1996:1997  2 */\n      0x02\n        /* \"new-contracts/EduVerifyAdmin.sol\":1979:1993  totalGovernors */\n      sload(0x01)\n        /* \"new-contracts/EduVerifyAdmin.sol\":1979:1997  totalGovernors / 2 */\n      tag_165\n      swap2\n      swap1\n      tag_104\n      jump\t// in\n    tag_165:\n        /* \"new-contracts/EduVerifyAdmin.sol\":1978:2002  (totalGovernors / 2) + 1 */\n      tag_166\n      swap2\n      swap1\n      tag_93\n      jump\t// in\n    tag_166:\n        /* \"new-contracts/EduVerifyAdmin.sol\":1971:2002  return (totalGovernors / 2) + 1 */\n      swap1\n      pop\n        /* \"new-contracts/EduVerifyAdmin.sol\":1905:2009  function calculateThreshold() public view returns(uint) {... */\n      swap1\n      jump\t// out\n        /* \"new-contracts/EduVerifyAdmin.sol\":822:848  uint public totalGovernors */\n    tag_37:\n      sload(0x01)\n      dup2\n      jump\t// out\n        /* \"new-contracts/EduVerifyAdmin.sol\":4553:4854  function getProposalDetails(uint proposalId) public view returns( Action action, address target, uint yesVotes, uint snapshotGovernorCount,  bool executed) {... */\n    tag_41:\n        /* \"new-contracts/EduVerifyAdmin.sol\":4619:4632  Action action */\n      0x00\n        /* \"new-contracts/EduVerifyAdmin.sol\":4634:4648  address target */\n      0x00\n        /* \"new-contracts/EduVerifyAdmin.sol\":4650:4663  uint yesVotes */\n      0x00\n        /* \"new-contracts/EduVerifyAdmin.sol\":4665:4691  uint snapshotGovernorCount */\n      0x00\n        /* \"new-contracts/EduVerifyAdmin.sol\":4694:4707  bool executed */\n      0x00\n        /* \"new-contracts/EduVerifyAdmin.sol\":4719:4737  Proposal storage p */\n      0x00\n        /* \"new-contracts/EduVerifyAdmin.sol\":4740:4749  proposals */\n      0x03\n        /* \"new-contracts/EduVerifyAdmin.sol\":4750:4760  proposalId */\n      dup8\n        /* \"new-contracts/EduVerifyAdmin.sol\":4740:4761  proposals[proposalId] */\n      dup2\n      sload\n      dup2\n      lt\n      tag_168\n      jumpi\n      tag_169\n      tag_84\n      jump\t// in\n    tag_169:\n    tag_168:\n      swap1\n      0x00\n      mstore\n      keccak256(0x00, 0x20)\n      swap1\n      0x06\n      mul\n      add\n        /* \"new-contracts/EduVerifyAdmin.sol\":4719:4761  Proposal storage p = proposals[proposalId] */\n      swap1\n      pop\n        /* \"new-contracts/EduVerifyAdmin.sol\":4779:4780  p */\n      dup1\n        /* \"new-contracts/EduVerifyAdmin.sol\":4779:4787  p.action */\n      0x01\n      add\n      0x00\n      swap1\n      sload\n      swap1\n      0x0100\n      exp\n      swap1\n      div\n      0xff\n      and\n        /* \"new-contracts/EduVerifyAdmin.sol\":4789:4790  p */\n      dup2\n        /* \"new-contracts/EduVerifyAdmin.sol\":4789:4797  p.target */\n      0x01\n      add\n      0x01\n      swap1\n      sload\n      swap1\n      0x0100\n      exp\n      swap1\n      div\n      0xffffffffffffffffffffffffffffffffffffffff\n      and\n        /* \"new-contracts/EduVerifyAdmin.sol\":4799:4800  p */\n      dup3\n        /* \"new-contracts/EduVerifyAdmin.sol\":4799:4809  p.yesVotes */\n      0x02\n      add\n      sload\n        /* \"new-contracts/EduVerifyAdmin.sol\":4811:4812  p */\n      dup4\n        /* \"new-contracts/EduVerifyAdmin.sol\":4811:4834  p.snapshotGovernorCount */\n      0x03\n      add\n      sload\n        /* \"new-contracts/EduVerifyAdmin.sol\":4836:4837  p */\n      dup5\n        /* \"new-contracts/EduVerifyAdmin.sol\":4836:4846  p.executed */\n      0x04\n      add\n      0x00\n      swap1\n      sload\n      swap1\n      0x0100\n      exp\n      swap1\n      div\n      0xff\n      and\n        /* \"new-contracts/EduVerifyAdmin.sol\":4771:4847  return (p.action, p.target, p.yesVotes, p.snapshotGovernorCount, p.executed) */\n      swap6\n      pop\n      swap6\n      pop\n      swap6\n      pop\n      swap6\n      pop\n      swap6\n      pop\n      pop\n        /* \"new-contracts/EduVerifyAdmin.sol\":4553:4854  function getProposalDetails(uint proposalId) public view returns( Action action, address target, uint yesVotes, uint snapshotGovernorCount,  bool executed) {... */\n      swap2\n      swap4\n      swap6\n      swap1\n      swap3\n      swap5\n      pop\n      jump\t// out\n        /* \"new-contracts/EduVerifyAdmin.sol\":5059:5202  function hasVoted(uint proposalId, address governor) public view returns(bool) {... */\n    tag_47:\n        /* \"new-contracts/EduVerifyAdmin.sol\":5132:5136  bool */\n      0x00\n        /* \"new-contracts/EduVerifyAdmin.sol\":5155:5164  proposals */\n      0x03\n        /* \"new-contracts/EduVerifyAdmin.sol\":5165:5175  proposalId */\n      dup4\n        /* \"new-contracts/EduVerifyAdmin.sol\":5155:5176  proposals[proposalId] */\n      dup2\n      sload\n      dup2\n      lt\n      tag_172\n      jumpi\n      tag_173\n      tag_84\n      jump\t// in\n    tag_173:\n    tag_172:\n      swap1\n      0x00\n      mstore\n      keccak256(0x00, 0x20)\n      swap1\n      0x06\n      mul\n      add\n        /* \"new-contracts/EduVerifyAdmin.sol\":5155:5185  proposals[proposalId].hasVoted */\n      0x05\n      add\n        /* \"new-contracts/EduVerifyAdmin.sol\":5155:5195  proposals[proposalId].hasVoted[governor] */\n      0x00\n        /* \"new-contracts/EduVerifyAdmin.sol\":5186:5194  governor */\n      dup4\n        /* \"new-contracts/EduVerifyAdmin.sol\":5155:5195  proposals[proposalId].hasVoted[governor] */\n      0xffffffffffffffffffffffffffffffffffffffff\n      and\n      0xffffffffffffffffffffffffffffffffffffffff\n      and\n      dup2\n      mstore\n      0x20\n      add\n      swap1\n      dup2\n      mstore\n      0x20\n      add\n      0x00\n      keccak256\n      0x00\n      swap1\n      sload\n      swap1\n      0x0100\n      exp\n      swap1\n      div\n      0xff\n      and\n        /* \"new-contracts/EduVerifyAdmin.sol\":5148:5195  return proposals[proposalId].hasVoted[governor] */\n      swap1\n      pop\n        /* \"new-contracts/EduVerifyAdmin.sol\":5059:5202  function hasVoted(uint proposalId, address governor) public view returns(bool) {... */\n      swap3\n      swap2\n      pop\n      pop\n      jump\t// out\n        /* \"new-contracts/EduVerifyAdmin.sol\":4864:5049  function getThresholdForProposal(uint proposalId) public view returns(uint) {... */\n    tag_52:\n        /* \"new-contracts/EduVerifyAdmin.sol\":4934:4938  uint */\n      0x00\n        /* \"new-contracts/EduVerifyAdmin.sol\":4950:4968  Proposal storage p */\n      0x00\n        /* \"new-contracts/EduVerifyAdmin.sol\":4971:4980  proposals */\n      0x03\n        /* \"new-contracts/EduVerifyAdmin.sol\":4981:4991  proposalId */\n      dup4\n        /* \"new-contracts/EduVerifyAdmin.sol\":4971:4992  proposals[proposalId] */\n      dup2\n      sload\n      dup2\n      lt\n      tag_176\n      jumpi\n      tag_177\n      tag_84\n      jump\t// in\n    tag_177:\n    tag_176:\n      swap1\n      0x00\n      mstore\n      keccak256(0x00, 0x20)\n      swap1\n      0x06\n      mul\n      add\n        /* \"new-contracts/EduVerifyAdmin.sol\":4950:4992  Proposal storage p = proposals[proposalId] */\n      swap1\n      pop\n        /* \"new-contracts/EduVerifyAdmin.sol\":5041:5042  1 */\n      0x01\n        /* \"new-contracts/EduVerifyAdmin.sol\":5036:5037  2 */\n      0x02\n        /* \"new-contracts/EduVerifyAdmin.sol\":5010:5011  p */\n      dup3\n        /* \"new-contracts/EduVerifyAdmin.sol\":5010:5033  p.snapshotGovernorCount */\n      0x03\n      add\n      sload\n        /* \"new-contracts/EduVerifyAdmin.sol\":5010:5037  p.snapshotGovernorCount / 2 */\n      tag_179\n      swap2\n      swap1\n      tag_104\n      jump\t// in\n    tag_179:\n        /* \"new-contracts/EduVerifyAdmin.sol\":5009:5042  (p.snapshotGovernorCount / 2) + 1 */\n      tag_180\n      swap2\n      swap1\n      tag_93\n      jump\t// in\n    tag_180:\n        /* \"new-contracts/EduVerifyAdmin.sol\":5002:5042  return (p.snapshotGovernorCount / 2) + 1 */\n      swap2\n      pop\n      pop\n        /* \"new-contracts/EduVerifyAdmin.sol\":4864:5049  function getThresholdForProposal(uint proposalId) public view returns(uint) {... */\n      swap2\n      swap1\n      pop\n      jump\t// out\n        /* \"new-contracts/EduVerifyAdmin.sol\":2019:2548  function propose(Action action, address target) external onlyGovernor returns(uint) {... */\n    tag_57:\n        /* \"new-contracts/EduVerifyAdmin.sol\":2097:2101  uint */\n      0x00\n        /* \"new-contracts/EduVerifyAdmin.sol\":1313:1323  isGovernor */\n      0x00\n        /* \"new-contracts/EduVerifyAdmin.sol\":1313:1335  isGovernor[msg.sender] */\n      0x00\n        /* \"new-contracts/EduVerifyAdmin.sol\":1324:1334  msg.sender */\n      caller\n        /* \"new-contracts/EduVerifyAdmin.sol\":1313:1335  isGovernor[msg.sender] */\n      0xffffffffffffffffffffffffffffffffffffffff\n      and\n      0xffffffffffffffffffffffffffffffffffffffff\n      and\n      dup2\n      mstore\n      0x20\n      add\n      swap1\n      dup2\n      mstore\n      0x20\n      add\n      0x00\n      keccak256\n      0x00\n      swap1\n      sload\n      swap1\n      0x0100\n      exp\n      swap1\n      div\n      0xff\n      and\n        /* \"new-contracts/EduVerifyAdmin.sol\":1305:1354  require(isGovernor[msg.sender], \"Not a governor\") */\n      tag_182\n      jumpi\n      mload(0x40)\n      0x08c379a000000000000000000000000000000000000000000000000000000000\n      dup2\n      mstore\n      0x04\n      add\n      tag_183\n      swap1\n      tag_80\n      jump\t// in\n    tag_183:\n      mload(0x40)\n      dup1\n      swap2\n      sub\n      swap1\n      revert\n    tag_182:\n        /* \"new-contracts/EduVerifyAdmin.sol\":2113:2128  uint proposalId */\n      0x00\n        /* \"new-contracts/EduVerifyAdmin.sol\":2131:2140  proposals */\n      0x03\n        /* \"new-contracts/EduVerifyAdmin.sol\":2131:2147  proposals.length */\n      dup1\n      sload\n      swap1\n      pop\n        /* \"new-contracts/EduVerifyAdmin.sol\":2113:2147  uint proposalId = proposals.length */\n      swap1\n      pop\n        /* \"new-contracts/EduVerifyAdmin.sol\":2157:2185  Proposal storage newProposal */\n      0x00\n        /* \"new-contracts/EduVerifyAdmin.sol\":2188:2197  proposals */\n      0x03\n        /* \"new-contracts/EduVerifyAdmin.sol\":2188:2204  proposals.push() */\n      0x01\n      dup2\n      0x01\n      dup2\n      sload\n      add\n      dup1\n      dup3\n      sstore\n      dup1\n      swap2\n      pop\n      pop\n      sub\n      swap1\n      0x00\n      mstore\n      keccak256(0x00, 0x20)\n      swap1\n      0x06\n      mul\n      add\n        /* \"new-contracts/EduVerifyAdmin.sol\":2157:2204  Proposal storage newProposal = proposals.push() */\n      swap1\n      pop\n        /* \"new-contracts/EduVerifyAdmin.sol\":2231:2241  proposalId */\n      dup2\n        /* \"new-contracts/EduVerifyAdmin.sol\":2214:2225  newProposal */\n      dup2\n        /* \"new-contracts/EduVerifyAdmin.sol\":2214:2228  newProposal.id */\n      0x00\n      add\n        /* \"new-contracts/EduVerifyAdmin.sol\":2214:2241  newProposal.id = proposalId */\n      dup2\n      swap1\n      sstore\n      pop\n        /* \"new-contracts/EduVerifyAdmin.sol\":2272:2278  action */\n      dup5\n        /* \"new-contracts/EduVerifyAdmin.sol\":2251:2262  newProposal */\n      dup2\n        /* \"new-contracts/EduVerifyAdmin.sol\":2251:2269  newProposal.action */\n      0x01\n      add\n      0x00\n        /* \"new-contracts/EduVerifyAdmin.sol\":2251:2278  newProposal.action = action */\n      0x0100\n      exp\n      dup2\n      sload\n      dup2\n      0xff\n      mul\n      not\n      and\n      swap1\n      dup4\n      0x03\n      dup2\n      gt\n      iszero\n      tag_186\n      jumpi\n      tag_187\n      tag_113\n      jump\t// in\n    tag_187:\n    tag_186:\n      mul\n      or\n      swap1\n      sstore\n      pop\n        /* \"new-contracts/EduVerifyAdmin.sol\":2309:2315  target */\n      dup4\n        /* \"new-contracts/EduVerifyAdmin.sol\":2288:2299  newProposal */\n      dup2\n        /* \"new-contracts/EduVerifyAdmin.sol\":2288:2306  newProposal.target */\n      0x01\n      add\n      0x01\n        /* \"new-contracts/EduVerifyAdmin.sol\":2288:2315  newProposal.target = target */\n      0x0100\n      exp\n      dup2\n      sload\n      dup2\n      0xffffffffffffffffffffffffffffffffffffffff\n      mul\n      not\n      and\n      swap1\n      dup4\n      0xffffffffffffffffffffffffffffffffffffffff\n      and\n      mul\n      or\n      swap1\n      sstore\n      pop\n        /* \"new-contracts/EduVerifyAdmin.sol\":2348:2349  0 */\n      0x00\n        /* \"new-contracts/EduVerifyAdmin.sol\":2325:2336  newProposal */\n      dup2\n        /* \"new-contracts/EduVerifyAdmin.sol\":2325:2345  newProposal.yesVotes */\n      0x02\n      add\n        /* \"new-contracts/EduVerifyAdmin.sol\":2325:2349  newProposal.yesVotes = 0 */\n      dup2\n      swap1\n      sstore\n      pop\n        /* \"new-contracts/EduVerifyAdmin.sol\":2395:2409  totalGovernors */\n      sload(0x01)\n        /* \"new-contracts/EduVerifyAdmin.sol\":2359:2370  newProposal */\n      dup2\n        /* \"new-contracts/EduVerifyAdmin.sol\":2359:2392  newProposal.snapshotGovernorCount */\n      0x03\n      add\n        /* \"new-contracts/EduVerifyAdmin.sol\":2359:2409  newProposal.snapshotGovernorCount = totalGovernors */\n      dup2\n      swap1\n      sstore\n      pop\n        /* \"new-contracts/EduVerifyAdmin.sol\":2442:2447  false */\n      0x00\n        /* \"new-contracts/EduVerifyAdmin.sol\":2419:2430  newProposal */\n      dup2\n        /* \"new-contracts/EduVerifyAdmin.sol\":2419:2439  newProposal.executed */\n      0x04\n      add\n      0x00\n        /* \"new-contracts/EduVerifyAdmin.sol\":2419:2447  newProposal.executed = false */\n      0x0100\n      exp\n      dup2\n      sload\n      dup2\n      0xff\n      mul\n      not\n      and\n      swap1\n      dup4\n      iszero\n      iszero\n      mul\n      or\n      swap1\n      sstore\n      pop\n        /* \"new-contracts/EduVerifyAdmin.sol\":2487:2497  proposalId */\n      dup2\n        /* \"new-contracts/EduVerifyAdmin.sol\":2471:2514  ProposalCreated(proposalId, action, target) */\n      0x3263432a41f78a4701cc9465f62411ed717ade32290c084135a3dd6b29f4bf28\n        /* \"new-contracts/EduVerifyAdmin.sol\":2499:2505  action */\n      dup7\n        /* \"new-contracts/EduVerifyAdmin.sol\":2507:2513  target */\n      dup7\n        /* \"new-contracts/EduVerifyAdmin.sol\":2471:2514  ProposalCreated(proposalId, action, target) */\n      mload(0x40)\n      tag_188\n      swap3\n      swap2\n      swap1\n      tag_189\n      jump\t// in\n    tag_188:\n      mload(0x40)\n      dup1\n      swap2\n      sub\n      swap1\n      log2\n        /* \"new-contracts/EduVerifyAdmin.sol\":2531:2541  proposalId */\n      dup2\n        /* \"new-contracts/EduVerifyAdmin.sol\":2524:2541  return proposalId */\n      swap3\n      pop\n      pop\n      pop\n        /* \"new-contracts/EduVerifyAdmin.sol\":2019:2548  function propose(Action action, address target) external onlyGovernor returns(uint) {... */\n      swap3\n      swap2\n      pop\n      pop\n      jump\t// out\n        /* \"new-contracts/EduVerifyAdmin.sol\":5212:5303  function proposalCount() public view returns(uint) {... */\n    tag_60:\n        /* \"new-contracts/EduVerifyAdmin.sol\":5257:5261  uint */\n      0x00\n        /* \"new-contracts/EduVerifyAdmin.sol\":5280:5289  proposals */\n      0x03\n        /* \"new-contracts/EduVerifyAdmin.sol\":5280:5296  proposals.length */\n      dup1\n      sload\n      swap1\n      pop\n        /* \"new-contracts/EduVerifyAdmin.sol\":5273:5296  return proposals.length */\n      swap1\n      pop\n        /* \"new-contracts/EduVerifyAdmin.sol\":5212:5303  function proposalCount() public view returns(uint) {... */\n      swap1\n      jump\t// out\n        /* \"new-contracts/EduVerifyAdmin.sol\":854:878  address public eduVerify */\n    tag_63:\n      0x02\n      0x00\n      swap1\n      sload\n      swap1\n      0x0100\n      exp\n      swap1\n      div\n      0xffffffffffffffffffffffffffffffffffffffff\n      and\n      dup2\n      jump\t// out\n        /* \"new-contracts/EduVerifyAdmin.sol\":5408:5583  function setEduVerifyAddress(address _eduVerify) external onlyGovernor {... */\n    tag_69:\n        /* \"new-contracts/EduVerifyAdmin.sol\":1313:1323  isGovernor */\n      0x00\n        /* \"new-contracts/EduVerifyAdmin.sol\":1313:1335  isGovernor[msg.sender] */\n      0x00\n        /* \"new-contracts/EduVerifyAdmin.sol\":1324:1334  msg.sender */\n      caller\n        /* \"new-contracts/EduVerifyAdmin.sol\":1313:1335  isGovernor[msg.sender] */\n      0xffffffffffffffffffffffffffffffffffffffff\n      and\n      0xffffffffffffffffffffffffffffffffffffffff\n      and\n      dup2\n      mstore\n      0x20\n      add\n      swap1\n      dup2\n      mstore\n      0x20\n      add\n      0x00\n      keccak256\n      0x00\n      swap1\n      sload\n      swap1\n      0x0100\n      exp\n      swap1\n      div\n      0xff\n      and\n        /* \"new-contracts/EduVerifyAdmin.sol\":1305:1354  require(isGovernor[msg.sender], \"Not a governor\") */\n      tag_192\n      jumpi\n      mload(0x40)\n      0x08c379a000000000000000000000000000000000000000000000000000000000\n      dup2\n      mstore\n      0x04\n      add\n      tag_193\n      swap1\n      tag_80\n      jump\t// in\n    tag_193:\n      mload(0x40)\n      dup1\n      swap2\n      sub\n      swap1\n      revert\n    tag_192:\n        /* \"new-contracts/EduVerifyAdmin.sol\":5518:5519  0 */\n      0x00\n        /* \"new-contracts/EduVerifyAdmin.sol\":5497:5520  eduVerify == address(0) */\n      0xffffffffffffffffffffffffffffffffffffffff\n      and\n        /* \"new-contracts/EduVerifyAdmin.sol\":5497:5506  eduVerify */\n      0x02\n      0x00\n      swap1\n      sload\n      swap1\n      0x0100\n      exp\n      swap1\n      div\n      0xffffffffffffffffffffffffffffffffffffffff\n      and\n        /* \"new-contracts/EduVerifyAdmin.sol\":5497:5520  eduVerify == address(0) */\n      0xffffffffffffffffffffffffffffffffffffffff\n      and\n      eq\n        /* \"new-contracts/EduVerifyAdmin.sol\":5489:5544  require(eduVerify == address(0), \"Address already set\") */\n      tag_195\n      jumpi\n      mload(0x40)\n      0x08c379a000000000000000000000000000000000000000000000000000000000\n      dup2\n      mstore\n      0x04\n      add\n      tag_196\n      swap1\n      tag_197\n      jump\t// in\n    tag_196:\n      mload(0x40)\n      dup1\n      swap2\n      sub\n      swap1\n      revert\n    tag_195:\n        /* \"new-contracts/EduVerifyAdmin.sol\":5566:5576  _eduVerify */\n      dup1\n        /* \"new-contracts/EduVerifyAdmin.sol\":5554:5563  eduVerify */\n      0x02\n      0x00\n        /* \"new-contracts/EduVerifyAdmin.sol\":5554:5576  eduVerify = _eduVerify */\n      0x0100\n      exp\n      dup2\n      sload\n      dup2\n      0xffffffffffffffffffffffffffffffffffffffff\n      mul\n      not\n      and\n      swap1\n      dup4\n      0xffffffffffffffffffffffffffffffffffffffff\n      and\n      mul\n      or\n      swap1\n      sstore\n      pop\n        /* \"new-contracts/EduVerifyAdmin.sol\":5408:5583  function setEduVerifyAddress(address _eduVerify) external onlyGovernor {... */\n      pop\n      jump\t// out\n        /* \"new-contracts/EduVerifyAdmin.sol\":774:816  mapping(address => bool) public isGovernor */\n    tag_72:\n      mstore(0x20, 0x00)\n      dup1\n      0x00\n      mstore\n      keccak256(0x00, 0x40)\n      0x00\n      swap2\n      pop\n      sload\n      swap1\n      0x0100\n      exp\n      swap1\n      div\n      0xff\n      and\n      dup2\n      jump\t// out\n        /* \"new-contracts/EduVerifyAdmin.sol\":5313:5402  function governorCount() public view returns(uint) {... */\n    tag_75:\n        /* \"new-contracts/EduVerifyAdmin.sol\":5358:5362  uint */\n      0x00\n        /* \"new-contracts/EduVerifyAdmin.sol\":5381:5395  totalGovernors */\n      sload(0x01)\n        /* \"new-contracts/EduVerifyAdmin.sol\":5374:5395  return totalGovernors */\n      swap1\n      pop\n        /* \"new-contracts/EduVerifyAdmin.sol\":5313:5402  function governorCount() public view returns(uint) {... */\n      swap1\n      jump\t// out\n        /* \"#utility.yul\":88:205   */\n    tag_200:\n        /* \"#utility.yul\":197:198   */\n      0x00\n        /* \"#utility.yul\":194:195   */\n      0x00\n        /* \"#utility.yul\":187:199   */\n      revert\n        /* \"#utility.yul\":334:411   */\n    tag_202:\n        /* \"#utility.yul\":371:378   */\n      0x00\n        /* \"#utility.yul\":400:405   */\n      dup2\n        /* \"#utility.yul\":389:405   */\n      swap1\n      pop\n        /* \"#utility.yul\":334:411   */\n      swap2\n      swap1\n      pop\n      jump\t// out\n        /* \"#utility.yul\":417:539   */\n    tag_203:\n        /* \"#utility.yul\":490:514   */\n      tag_250\n        /* \"#utility.yul\":508:513   */\n      dup2\n        /* \"#utility.yul\":490:514   */\n      tag_202\n      jump\t// in\n    tag_250:\n        /* \"#utility.yul\":483:488   */\n      dup2\n        /* \"#utility.yul\":480:515   */\n      eq\n        /* \"#utility.yul\":470:533   */\n      tag_251\n      jumpi\n        /* \"#utility.yul\":529:530   */\n      0x00\n        /* \"#utility.yul\":526:527   */\n      0x00\n        /* \"#utility.yul\":519:531   */\n      revert\n        /* \"#utility.yul\":470:533   */\n    tag_251:\n        /* \"#utility.yul\":417:539   */\n      pop\n      jump\t// out\n        /* \"#utility.yul\":545:684   */\n    tag_204:\n        /* \"#utility.yul\":591:596   */\n      0x00\n        /* \"#utility.yul\":629:635   */\n      dup2\n        /* \"#utility.yul\":616:636   */\n      calldataload\n        /* \"#utility.yul\":607:636   */\n      swap1\n      pop\n        /* \"#utility.yul\":645:678   */\n      tag_253\n        /* \"#utility.yul\":672:677   */\n      dup2\n        /* \"#utility.yul\":645:678   */\n      tag_203\n      jump\t// in\n    tag_253:\n        /* \"#utility.yul\":545:684   */\n      swap3\n      swap2\n      pop\n      pop\n      jump\t// out\n        /* \"#utility.yul\":690:1019   */\n    tag_22:\n        /* \"#utility.yul\":749:755   */\n      0x00\n        /* \"#utility.yul\":798:800   */\n      0x20\n        /* \"#utility.yul\":786:795   */\n      dup3\n        /* \"#utility.yul\":777:784   */\n      dup5\n        /* \"#utility.yul\":773:796   */\n      sub\n        /* \"#utility.yul\":769:801   */\n      slt\n        /* \"#utility.yul\":766:885   */\n      iszero\n      tag_255\n      jumpi\n        /* \"#utility.yul\":804:883   */\n      tag_256\n      tag_200\n      jump\t// in\n    tag_256:\n        /* \"#utility.yul\":766:885   */\n    tag_255:\n        /* \"#utility.yul\":924:925   */\n      0x00\n        /* \"#utility.yul\":949:1002   */\n      tag_257\n        /* \"#utility.yul\":994:1001   */\n      dup5\n        /* \"#utility.yul\":985:991   */\n      dup3\n        /* \"#utility.yul\":974:983   */\n      dup6\n        /* \"#utility.yul\":970:992   */\n      add\n        /* \"#utility.yul\":949:1002   */\n      tag_204\n      jump\t// in\n    tag_257:\n        /* \"#utility.yul\":939:1002   */\n      swap2\n      pop\n        /* \"#utility.yul\":895:1012   */\n      pop\n        /* \"#utility.yul\":690:1019   */\n      swap3\n      swap2\n      pop\n      pop\n      jump\t// out\n        /* \"#utility.yul\":1025:1143   */\n    tag_205:\n        /* \"#utility.yul\":1112:1136   */\n      tag_259\n        /* \"#utility.yul\":1130:1135   */\n      dup2\n        /* \"#utility.yul\":1112:1136   */\n      tag_202\n      jump\t// in\n    tag_259:\n        /* \"#utility.yul\":1107:1110   */\n      dup3\n        /* \"#utility.yul\":1100:1137   */\n      mstore\n        /* \"#utility.yul\":1025:1143   */\n      pop\n      pop\n      jump\t// out\n        /* \"#utility.yul\":1149:1329   */\n    tag_113:\n        /* \"#utility.yul\":1197:1274   */\n      0x4e487b7100000000000000000000000000000000000000000000000000000000\n        /* \"#utility.yul\":1194:1195   */\n      0x00\n        /* \"#utility.yul\":1187:1275   */\n      mstore\n        /* \"#utility.yul\":1294:1298   */\n      0x21\n        /* \"#utility.yul\":1291:1292   */\n      0x04\n        /* \"#utility.yul\":1284:1299   */\n      mstore\n        /* \"#utility.yul\":1318:1322   */\n      0x24\n        /* \"#utility.yul\":1315:1316   */\n      0x00\n        /* \"#utility.yul\":1308:1323   */\n      revert\n        /* \"#utility.yul\":1335:1450   */\n    tag_206:\n        /* \"#utility.yul\":1418:1419   */\n      0x04\n        /* \"#utility.yul\":1411:1416   */\n      dup2\n        /* \"#utility.yul\":1408:1420   */\n      lt\n        /* \"#utility.yul\":1398:1444   */\n      tag_262\n      jumpi\n        /* \"#utility.yul\":1424:1442   */\n      tag_263\n      tag_113\n      jump\t// in\n    tag_263:\n        /* \"#utility.yul\":1398:1444   */\n    tag_262:\n        /* \"#utility.yul\":1335:1450   */\n      pop\n      jump\t// out\n        /* \"#utility.yul\":1456:1587   */\n    tag_207:\n        /* \"#utility.yul\":1503:1510   */\n      0x00\n        /* \"#utility.yul\":1532:1537   */\n      dup2\n        /* \"#utility.yul\":1521:1537   */\n      swap1\n      pop\n        /* \"#utility.yul\":1538:1581   */\n      tag_265\n        /* \"#utility.yul\":1575:1580   */\n      dup3\n        /* \"#utility.yul\":1538:1581   */\n      tag_206\n      jump\t// in\n    tag_265:\n        /* \"#utility.yul\":1456:1587   */\n      swap2\n      swap1\n      pop\n      jump\t// out\n        /* \"#utility.yul\":1593:1724   */\n    tag_208:\n        /* \"#utility.yul\":1651:1660   */\n      0x00\n        /* \"#utility.yul\":1684:1718   */\n      tag_267\n        /* \"#utility.yul\":1712:1717   */\n      dup3\n        /* \"#utility.yul\":1684:1718   */\n      tag_207\n      jump\t// in\n    tag_267:\n        /* \"#utility.yul\":1671:1718   */\n      swap1\n      pop\n        /* \"#utility.yul\":1593:1724   */\n      swap2\n      swap1\n      pop\n      jump\t// out\n        /* \"#utility.yul\":1730:1877   */\n    tag_209:\n        /* \"#utility.yul\":1825:1870   */\n      tag_269\n        /* \"#utility.yul\":1864:1869   */\n      dup2\n        /* \"#utility.yul\":1825:1870   */\n      tag_208\n      jump\t// in\n    tag_269:\n        /* \"#utility.yul\":1820:1823   */\n      dup3\n        /* \"#utility.yul\":1813:1871   */\n      mstore\n        /* \"#utility.yul\":1730:1877   */\n      pop\n      pop\n      jump\t// out\n        /* \"#utility.yul\":1883:2009   */\n    tag_210:\n        /* \"#utility.yul\":1920:1927   */\n      0x00\n        /* \"#utility.yul\":1960:2002   */\n      0xffffffffffffffffffffffffffffffffffffffff\n        /* \"#utility.yul\":1953:1958   */\n      dup3\n        /* \"#utility.yul\":1949:2003   */\n      and\n        /* \"#utility.yul\":1938:2003   */\n      swap1\n      pop\n        /* \"#utility.yul\":1883:2009   */\n      swap2\n      swap1\n      pop\n      jump\t// out\n        /* \"#utility.yul\":2015:2111   */\n    tag_211:\n        /* \"#utility.yul\":2052:2059   */\n      0x00\n        /* \"#utility.yul\":2081:2105   */\n      tag_272\n        /* \"#utility.yul\":2099:2104   */\n      dup3\n        /* \"#utility.yul\":2081:2105   */\n      tag_210\n      jump\t// in\n    tag_272:\n        /* \"#utility.yul\":2070:2105   */\n      swap1\n      pop\n        /* \"#utility.yul\":2015:2111   */\n      swap2\n      swap1\n      pop\n      jump\t// out\n        /* \"#utility.yul\":2117:2235   */\n    tag_212:\n        /* \"#utility.yul\":2204:2228   */\n      tag_274\n        /* \"#utility.yul\":2222:2227   */\n      dup2\n        /* \"#utility.yul\":2204:2228   */\n      tag_211\n      jump\t// in\n    tag_274:\n        /* \"#utility.yul\":2199:2202   */\n      dup3\n        /* \"#utility.yul\":2192:2229   */\n      mstore\n        /* \"#utility.yul\":2117:2235   */\n      pop\n      pop\n      jump\t// out\n        /* \"#utility.yul\":2241:2331   */\n    tag_213:\n        /* \"#utility.yul\":2275:2282   */\n      0x00\n        /* \"#utility.yul\":2318:2323   */\n      dup2\n        /* \"#utility.yul\":2311:2324   */\n      iszero\n        /* \"#utility.yul\":2304:2325   */\n      iszero\n        /* \"#utility.yul\":2293:2325   */\n      swap1\n      pop\n        /* \"#utility.yul\":2241:2331   */\n      swap2\n      swap1\n      pop\n      jump\t// out\n        /* \"#utility.yul\":2337:2446   */\n    tag_214:\n        /* \"#utility.yul\":2418:2439   */\n      tag_277\n        /* \"#utility.yul\":2433:2438   */\n      dup2\n        /* \"#utility.yul\":2418:2439   */\n      tag_213\n      jump\t// in\n    tag_277:\n        /* \"#utility.yul\":2413:2416   */\n      dup3\n        /* \"#utility.yul\":2406:2440   */\n      mstore\n        /* \"#utility.yul\":2337:2446   */\n      pop\n      pop\n      jump\t// out\n        /* \"#utility.yul\":2452:3231   */\n    tag_28:\n        /* \"#utility.yul\":2687:2691   */\n      0x00\n        /* \"#utility.yul\":2725:2728   */\n      0xc0\n        /* \"#utility.yul\":2714:2723   */\n      dup3\n        /* \"#utility.yul\":2710:2729   */\n      add\n        /* \"#utility.yul\":2702:2729   */\n      swap1\n      pop\n        /* \"#utility.yul\":2739:2810   */\n      tag_279\n        /* \"#utility.yul\":2807:2808   */\n      0x00\n        /* \"#utility.yul\":2796:2805   */\n      dup4\n        /* \"#utility.yul\":2792:2809   */\n      add\n        /* \"#utility.yul\":2783:2789   */\n      dup10\n        /* \"#utility.yul\":2739:2810   */\n      tag_205\n      jump\t// in\n    tag_279:\n        /* \"#utility.yul\":2820:2900   */\n      tag_280\n        /* \"#utility.yul\":2896:2898   */\n      0x20\n        /* \"#utility.yul\":2885:2894   */\n      dup4\n        /* \"#utility.yul\":2881:2899   */\n      add\n        /* \"#utility.yul\":2872:2878   */\n      dup9\n        /* \"#utility.yul\":2820:2900   */\n      tag_209\n      jump\t// in\n    tag_280:\n        /* \"#utility.yul\":2910:2982   */\n      tag_281\n        /* \"#utility.yul\":2978:2980   */\n      0x40\n        /* \"#utility.yul\":2967:2976   */\n      dup4\n        /* \"#utility.yul\":2963:2981   */\n      add\n        /* \"#utility.yul\":2954:2960   */\n      dup8\n        /* \"#utility.yul\":2910:2982   */\n      tag_212\n      jump\t// in\n    tag_281:\n        /* \"#utility.yul\":2992:3064   */\n      tag_282\n        /* \"#utility.yul\":3060:3062   */\n      0x60\n        /* \"#utility.yul\":3049:3058   */\n      dup4\n        /* \"#utility.yul\":3045:3063   */\n      add\n        /* \"#utility.yul\":3036:3042   */\n      dup7\n        /* \"#utility.yul\":2992:3064   */\n      tag_205\n      jump\t// in\n    tag_282:\n        /* \"#utility.yul\":3074:3147   */\n      tag_283\n        /* \"#utility.yul\":3142:3145   */\n      0x80\n        /* \"#utility.yul\":3131:3140   */\n      dup4\n        /* \"#utility.yul\":3127:3146   */\n      add\n        /* \"#utility.yul\":3118:3124   */\n      dup6\n        /* \"#utility.yul\":3074:3147   */\n      tag_205\n      jump\t// in\n    tag_283:\n        /* \"#utility.yul\":3157:3224   */\n      tag_284\n        /* \"#utility.yul\":3219:3222   */\n      0xa0\n        /* \"#utility.yul\":3208:3217   */\n      dup4\n        /* \"#utility.yul\":3204:3223   */\n      add\n        /* \"#utility.yul\":3195:3201   */\n      dup5\n        /* \"#utility.yul\":3157:3224   */\n      tag_214\n      jump\t// in\n    tag_284:\n        /* \"#utility.yul\":2452:3231   */\n      swap8\n      swap7\n      pop\n      pop\n      pop\n      pop\n      pop\n      pop\n      pop\n      jump\t// out\n        /* \"#utility.yul\":3237:3459   */\n    tag_35:\n        /* \"#utility.yul\":3330:3334   */\n      0x00\n        /* \"#utility.yul\":3368:3370   */\n      0x20\n        /* \"#utility.yul\":3357:3366   */\n      dup3\n        /* \"#utility.yul\":3353:3371   */\n      add\n        /* \"#utility.yul\":3345:3371   */\n      swap1\n      pop\n        /* \"#utility.yul\":3381:3452   */\n      tag_286\n        /* \"#utility.yul\":3449:3450   */\n      0x00\n        /* \"#utility.yul\":3438:3447   */\n      dup4\n        /* \"#utility.yul\":3434:3451   */\n      add\n        /* \"#utility.yul\":3425:3431   */\n      dup5\n        /* \"#utility.yul\":3381:3452   */\n      tag_205\n      jump\t// in\n    tag_286:\n        /* \"#utility.yul\":3237:3459   */\n      swap3\n      swap2\n      pop\n      pop\n      jump\t// out\n        /* \"#utility.yul\":3465:4133   */\n    tag_43:\n        /* \"#utility.yul\":3672:3676   */\n      0x00\n        /* \"#utility.yul\":3710:3713   */\n      0xa0\n        /* \"#utility.yul\":3699:3708   */\n      dup3\n        /* \"#utility.yul\":3695:3714   */\n      add\n        /* \"#utility.yul\":3687:3714   */\n      swap1\n      pop\n        /* \"#utility.yul\":3724:3803   */\n      tag_288\n        /* \"#utility.yul\":3800:3801   */\n      0x00\n        /* \"#utility.yul\":3789:3798   */\n      dup4\n        /* \"#utility.yul\":3785:3802   */\n      add\n        /* \"#utility.yul\":3776:3782   */\n      dup9\n        /* \"#utility.yul\":3724:3803   */\n      tag_209\n      jump\t// in\n    tag_288:\n        /* \"#utility.yul\":3813:3885   */\n      tag_289\n        /* \"#utility.yul\":3881:3883   */\n      0x20\n        /* \"#utility.yul\":3870:3879   */\n      dup4\n        /* \"#utility.yul\":3866:3884   */\n      add\n        /* \"#utility.yul\":3857:3863   */\n      dup8\n        /* \"#utility.yul\":3813:3885   */\n      tag_212\n      jump\t// in\n    tag_289:\n        /* \"#utility.yul\":3895:3967   */\n      tag_290\n        /* \"#utility.yul\":3963:3965   */\n      0x40\n        /* \"#utility.yul\":3952:3961   */\n      dup4\n        /* \"#utility.yul\":3948:3966   */\n      add\n        /* \"#utility.yul\":3939:3945   */\n      dup7\n        /* \"#utility.yul\":3895:3967   */\n      tag_205\n      jump\t// in\n    tag_290:\n        /* \"#utility.yul\":3977:4049   */\n      tag_291\n        /* \"#utility.yul\":4045:4047   */\n      0x60\n        /* \"#utility.yul\":4034:4043   */\n      dup4\n        /* \"#utility.yul\":4030:4048   */\n      add\n        /* \"#utility.yul\":4021:4027   */\n      dup6\n        /* \"#utility.yul\":3977:4049   */\n      tag_205\n      jump\t// in\n    tag_291:\n        /* \"#utility.yul\":4059:4126   */\n      tag_292\n        /* \"#utility.yul\":4121:4124   */\n      0x80\n        /* \"#utility.yul\":4110:4119   */\n      dup4\n        /* \"#utility.yul\":4106:4125   */\n      add\n        /* \"#utility.yul\":4097:4103   */\n      dup5\n        /* \"#utility.yul\":4059:4126   */\n      tag_214\n      jump\t// in\n    tag_292:\n        /* \"#utility.yul\":3465:4133   */\n      swap7\n      swap6\n      pop\n      pop\n      pop\n      pop\n      pop\n      pop\n      jump\t// out\n        /* \"#utility.yul\":4139:4261   */\n    tag_215:\n        /* \"#utility.yul\":4212:4236   */\n      tag_294\n        /* \"#utility.yul\":4230:4235   */\n      dup2\n        /* \"#utility.yul\":4212:4236   */\n      tag_211\n      jump\t// in\n    tag_294:\n        /* \"#utility.yul\":4205:4210   */\n      dup2\n        /* \"#utility.yul\":4202:4237   */\n      eq\n        /* \"#utility.yul\":4192:4255   */\n      tag_295\n      jumpi\n        /* \"#utility.yul\":4251:4252   */\n      0x00\n        /* \"#utility.yul\":4248:4249   */\n      0x00\n        /* \"#utility.yul\":4241:4253   */\n      revert\n        /* \"#utility.yul\":4192:4255   */\n    tag_295:\n        /* \"#utility.yul\":4139:4261   */\n      pop\n      jump\t// out\n        /* \"#utility.yul\":4267:4406   */\n    tag_216:\n        /* \"#utility.yul\":4313:4318   */\n      0x00\n        /* \"#utility.yul\":4351:4357   */\n      dup2\n        /* \"#utility.yul\":4338:4358   */\n      calldataload\n        /* \"#utility.yul\":4329:4358   */\n      swap1\n      pop\n        /* \"#utility.yul\":4367:4400   */\n      tag_297\n        /* \"#utility.yul\":4394:4399   */\n      dup2\n        /* \"#utility.yul\":4367:4400   */\n      tag_215\n      jump\t// in\n    tag_297:\n        /* \"#utility.yul\":4267:4406   */\n      swap3\n      swap2\n      pop\n      pop\n      jump\t// out\n        /* \"#utility.yul\":4412:4886   */\n    tag_46:\n        /* \"#utility.yul\":4480:4486   */\n      0x00\n        /* \"#utility.yul\":4488:4494   */\n      0x00\n        /* \"#utility.yul\":4537:4539   */\n      0x40\n        /* \"#utility.yul\":4525:4534   */\n      dup4\n        /* \"#utility.yul\":4516:4523   */\n      dup6\n        /* \"#utility.yul\":4512:4535   */\n      sub\n        /* \"#utility.yul\":4508:4540   */\n      slt\n        /* \"#utility.yul\":4505:4624   */\n      iszero\n      tag_299\n      jumpi\n        /* \"#utility.yul\":4543:4622   */\n      tag_300\n      tag_200\n      jump\t// in\n    tag_300:\n        /* \"#utility.yul\":4505:4624   */\n    tag_299:\n        /* \"#utility.yul\":4663:4664   */\n      0x00\n        /* \"#utility.yul\":4688:4741   */\n      tag_301\n        /* \"#utility.yul\":4733:4740   */\n      dup6\n        /* \"#utility.yul\":4724:4730   */\n      dup3\n        /* \"#utility.yul\":4713:4722   */\n      dup7\n        /* \"#utility.yul\":4709:4731   */\n      add\n        /* \"#utility.yul\":4688:4741   */\n      tag_204\n      jump\t// in\n    tag_301:\n        /* \"#utility.yul\":4678:4741   */\n      swap3\n      pop\n        /* \"#utility.yul\":4634:4751   */\n      pop\n        /* \"#utility.yul\":4790:4792   */\n      0x20\n        /* \"#utility.yul\":4816:4869   */\n      tag_302\n        /* \"#utility.yul\":4861:4868   */\n      dup6\n        /* \"#utility.yul\":4852:4858   */\n      dup3\n        /* \"#utility.yul\":4841:4850   */\n      dup7\n        /* \"#utility.yul\":4837:4859   */\n      add\n        /* \"#utility.yul\":4816:4869   */\n      tag_216\n      jump\t// in\n    tag_302:\n        /* \"#utility.yul\":4806:4869   */\n      swap2\n      pop\n        /* \"#utility.yul\":4761:4879   */\n      pop\n        /* \"#utility.yul\":4412:4886   */\n      swap3\n      pop\n      swap3\n      swap1\n      pop\n      jump\t// out\n        /* \"#utility.yul\":4892:5102   */\n    tag_49:\n        /* \"#utility.yul\":4979:4983   */\n      0x00\n        /* \"#utility.yul\":5017:5019   */\n      0x20\n        /* \"#utility.yul\":5006:5015   */\n      dup3\n        /* \"#utility.yul\":5002:5020   */\n      add\n        /* \"#utility.yul\":4994:5020   */\n      swap1\n      pop\n        /* \"#utility.yul\":5030:5095   */\n      tag_304\n        /* \"#utility.yul\":5092:5093   */\n      0x00\n        /* \"#utility.yul\":5081:5090   */\n      dup4\n        /* \"#utility.yul\":5077:5094   */\n      add\n        /* \"#utility.yul\":5068:5074   */\n      dup5\n        /* \"#utility.yul\":5030:5095   */\n      tag_214\n      jump\t// in\n    tag_304:\n        /* \"#utility.yul\":4892:5102   */\n      swap3\n      swap2\n      pop\n      pop\n      jump\t// out\n        /* \"#utility.yul\":5108:5217   */\n    tag_217:\n        /* \"#utility.yul\":5191:5192   */\n      0x04\n        /* \"#utility.yul\":5184:5189   */\n      dup2\n        /* \"#utility.yul\":5181:5193   */\n      lt\n        /* \"#utility.yul\":5171:5211   */\n      tag_306\n      jumpi\n        /* \"#utility.yul\":5207:5208   */\n      0x00\n        /* \"#utility.yul\":5204:5205   */\n      0x00\n        /* \"#utility.yul\":5197:5209   */\n      revert\n        /* \"#utility.yul\":5171:5211   */\n    tag_306:\n        /* \"#utility.yul\":5108:5217   */\n      pop\n      jump\t// out\n        /* \"#utility.yul\":5223:5382   */\n    tag_218:\n        /* \"#utility.yul\":5279:5284   */\n      0x00\n        /* \"#utility.yul\":5317:5323   */\n      dup2\n        /* \"#utility.yul\":5304:5324   */\n      calldataload\n        /* \"#utility.yul\":5295:5324   */\n      swap1\n      pop\n        /* \"#utility.yul\":5333:5376   */\n      tag_308\n        /* \"#utility.yul\":5370:5375   */\n      dup2\n        /* \"#utility.yul\":5333:5376   */\n      tag_217\n      jump\t// in\n    tag_308:\n        /* \"#utility.yul\":5223:5382   */\n      swap3\n      swap2\n      pop\n      pop\n      jump\t// out\n        /* \"#utility.yul\":5388:5882   */\n    tag_56:\n        /* \"#utility.yul\":5466:5472   */\n      0x00\n        /* \"#utility.yul\":5474:5480   */\n      0x00\n        /* \"#utility.yul\":5523:5525   */\n      0x40\n        /* \"#utility.yul\":5511:5520   */\n      dup4\n        /* \"#utility.yul\":5502:5509   */\n      dup6\n        /* \"#utility.yul\":5498:5521   */\n      sub\n        /* \"#utility.yul\":5494:5526   */\n      slt\n        /* \"#utility.yul\":5491:5610   */\n      iszero\n      tag_310\n      jumpi\n        /* \"#utility.yul\":5529:5608   */\n      tag_311\n      tag_200\n      jump\t// in\n    tag_311:\n        /* \"#utility.yul\":5491:5610   */\n    tag_310:\n        /* \"#utility.yul\":5649:5650   */\n      0x00\n        /* \"#utility.yul\":5674:5737   */\n      tag_312\n        /* \"#utility.yul\":5729:5736   */\n      dup6\n        /* \"#utility.yul\":5720:5726   */\n      dup3\n        /* \"#utility.yul\":5709:5718   */\n      dup7\n        /* \"#utility.yul\":5705:5727   */\n      add\n        /* \"#utility.yul\":5674:5737   */\n      tag_218\n      jump\t// in\n    tag_312:\n        /* \"#utility.yul\":5664:5737   */\n      swap3\n      pop\n        /* \"#utility.yul\":5620:5747   */\n      pop\n        /* \"#utility.yul\":5786:5788   */\n      0x20\n        /* \"#utility.yul\":5812:5865   */\n      tag_313\n        /* \"#utility.yul\":5857:5864   */\n      dup6\n        /* \"#utility.yul\":5848:5854   */\n      dup3\n        /* \"#utility.yul\":5837:5846   */\n      dup7\n        /* \"#utility.yul\":5833:5855   */\n      add\n        /* \"#utility.yul\":5812:5865   */\n      tag_216\n      jump\t// in\n    tag_313:\n        /* \"#utility.yul\":5802:5865   */\n      swap2\n      pop\n        /* \"#utility.yul\":5757:5875   */\n      pop\n        /* \"#utility.yul\":5388:5882   */\n      swap3\n      pop\n      swap3\n      swap1\n      pop\n      jump\t// out\n        /* \"#utility.yul\":5888:6110   */\n    tag_65:\n        /* \"#utility.yul\":5981:5985   */\n      0x00\n        /* \"#utility.yul\":6019:6021   */\n      0x20\n        /* \"#utility.yul\":6008:6017   */\n      dup3\n        /* \"#utility.yul\":6004:6022   */\n      add\n        /* \"#utility.yul\":5996:6022   */\n      swap1\n      pop\n        /* \"#utility.yul\":6032:6103   */\n      tag_315\n        /* \"#utility.yul\":6100:6101   */\n      0x00\n        /* \"#utility.yul\":6089:6098   */\n      dup4\n        /* \"#utility.yul\":6085:6102   */\n      add\n        /* \"#utility.yul\":6076:6082   */\n      dup5\n        /* \"#utility.yul\":6032:6103   */\n      tag_212\n      jump\t// in\n    tag_315:\n        /* \"#utility.yul\":5888:6110   */\n      swap3\n      swap2\n      pop\n      pop\n      jump\t// out\n        /* \"#utility.yul\":6116:6445   */\n    tag_68:\n        /* \"#utility.yul\":6175:6181   */\n      0x00\n        /* \"#utility.yul\":6224:6226   */\n      0x20\n        /* \"#utility.yul\":6212:6221   */\n      dup3\n        /* \"#utility.yul\":6203:6210   */\n      dup5\n        /* \"#utility.yul\":6199:6222   */\n      sub\n        /* \"#utility.yul\":6195:6227   */\n      slt\n        /* \"#utility.yul\":6192:6311   */\n      iszero\n      tag_317\n      jumpi\n        /* \"#utility.yul\":6230:6309   */\n      tag_318\n      tag_200\n      jump\t// in\n    tag_318:\n        /* \"#utility.yul\":6192:6311   */\n    tag_317:\n        /* \"#utility.yul\":6350:6351   */\n      0x00\n        /* \"#utility.yul\":6375:6428   */\n      tag_319\n        /* \"#utility.yul\":6420:6427   */\n      dup5\n        /* \"#utility.yul\":6411:6417   */\n      dup3\n        /* \"#utility.yul\":6400:6409   */\n      dup6\n        /* \"#utility.yul\":6396:6418   */\n      add\n        /* \"#utility.yul\":6375:6428   */\n      tag_216\n      jump\t// in\n    tag_319:\n        /* \"#utility.yul\":6365:6428   */\n      swap2\n      pop\n        /* \"#utility.yul\":6321:6438   */\n      pop\n        /* \"#utility.yul\":6116:6445   */\n      swap3\n      swap2\n      pop\n      pop\n      jump\t// out\n        /* \"#utility.yul\":6451:6620   */\n    tag_219:\n        /* \"#utility.yul\":6535:6546   */\n      0x00\n        /* \"#utility.yul\":6569:6575   */\n      dup3\n        /* \"#utility.yul\":6564:6567   */\n      dup3\n        /* \"#utility.yul\":6557:6576   */\n      mstore\n        /* \"#utility.yul\":6609:6613   */\n      0x20\n        /* \"#utility.yul\":6604:6607   */\n      dup3\n        /* \"#utility.yul\":6600:6614   */\n      add\n        /* \"#utility.yul\":6585:6614   */\n      swap1\n      pop\n        /* \"#utility.yul\":6451:6620   */\n      swap3\n      swap2\n      pop\n      pop\n      jump\t// out\n        /* \"#utility.yul\":6626:6790   */\n    tag_220:\n        /* \"#utility.yul\":6766:6782   */\n      0x4e6f74206120676f7665726e6f72000000000000000000000000000000000000\n        /* \"#utility.yul\":6762:6763   */\n      0x00\n        /* \"#utility.yul\":6754:6760   */\n      dup3\n        /* \"#utility.yul\":6750:6764   */\n      add\n        /* \"#utility.yul\":6743:6783   */\n      mstore\n        /* \"#utility.yul\":6626:6790   */\n      pop\n      jump\t// out\n        /* \"#utility.yul\":6796:7162   */\n    tag_221:\n        /* \"#utility.yul\":6938:6941   */\n      0x00\n        /* \"#utility.yul\":6959:7026   */\n      tag_323\n        /* \"#utility.yul\":7023:7025   */\n      0x0e\n        /* \"#utility.yul\":7018:7021   */\n      dup4\n        /* \"#utility.yul\":6959:7026   */\n      tag_219\n      jump\t// in\n    tag_323:\n        /* \"#utility.yul\":6952:7026   */\n      swap2\n      pop\n        /* \"#utility.yul\":7035:7128   */\n      tag_324\n        /* \"#utility.yul\":7124:7127   */\n      dup3\n        /* \"#utility.yul\":7035:7128   */\n      tag_220\n      jump\t// in\n    tag_324:\n        /* \"#utility.yul\":7153:7155   */\n      0x20\n        /* \"#utility.yul\":7148:7151   */\n      dup3\n        /* \"#utility.yul\":7144:7156   */\n      add\n        /* \"#utility.yul\":7137:7156   */\n      swap1\n      pop\n        /* \"#utility.yul\":6796:7162   */\n      swap2\n      swap1\n      pop\n      jump\t// out\n        /* \"#utility.yul\":7168:7587   */\n    tag_80:\n        /* \"#utility.yul\":7334:7338   */\n      0x00\n        /* \"#utility.yul\":7372:7374   */\n      0x20\n        /* \"#utility.yul\":7361:7370   */\n      dup3\n        /* \"#utility.yul\":7357:7375   */\n      add\n        /* \"#utility.yul\":7349:7375   */\n      swap1\n      pop\n        /* \"#utility.yul\":7421:7430   */\n      dup2\n        /* \"#utility.yul\":7415:7419   */\n      dup2\n        /* \"#utility.yul\":7411:7431   */\n      sub\n        /* \"#utility.yul\":7407:7408   */\n      0x00\n        /* \"#utility.yul\":7396:7405   */\n      dup4\n        /* \"#utility.yul\":7392:7409   */\n      add\n        /* \"#utility.yul\":7385:7432   */\n      mstore\n        /* \"#utility.yul\":7449:7580   */\n      tag_326\n        /* \"#utility.yul\":7575:7579   */\n      dup2\n        /* \"#utility.yul\":7449:7580   */\n      tag_221\n      jump\t// in\n    tag_326:\n        /* \"#utility.yul\":7441:7580   */\n      swap1\n      pop\n        /* \"#utility.yul\":7168:7587   */\n      swap2\n      swap1\n      pop\n      jump\t// out\n        /* \"#utility.yul\":7593:7773   */\n    tag_84:\n        /* \"#utility.yul\":7641:7718   */\n      0x4e487b7100000000000000000000000000000000000000000000000000000000\n        /* \"#utility.yul\":7638:7639   */\n      0x00\n        /* \"#utility.yul\":7631:7719   */\n      mstore\n        /* \"#utility.yul\":7738:7742   */\n      0x32\n        /* \"#utility.yul\":7735:7736   */\n      0x04\n        /* \"#utility.yul\":7728:7743   */\n      mstore\n        /* \"#utility.yul\":7762:7766   */\n      0x24\n        /* \"#utility.yul\":7759:7760   */\n      0x00\n        /* \"#utility.yul\":7752:7767   */\n      revert\n        /* \"#utility.yul\":7779:7951   */\n    tag_222:\n        /* \"#utility.yul\":7919:7943   */\n      0x476f7665726e6f7220616c726561647920766f74656400000000000000000000\n        /* \"#utility.yul\":7915:7916   */\n      0x00\n        /* \"#utility.yul\":7907:7913   */\n      dup3\n        /* \"#utility.yul\":7903:7917   */\n      add\n        /* \"#utility.yul\":7896:7944   */\n      mstore\n        /* \"#utility.yul\":7779:7951   */\n      pop\n      jump\t// out\n        /* \"#utility.yul\":7957:8323   */\n    tag_223:\n        /* \"#utility.yul\":8099:8102   */\n      0x00\n        /* \"#utility.yul\":8120:8187   */\n      tag_330\n        /* \"#utility.yul\":8184:8186   */\n      0x16\n        /* \"#utility.yul\":8179:8182   */\n      dup4\n        /* \"#utility.yul\":8120:8187   */\n      tag_219\n      jump\t// in\n    tag_330:\n        /* \"#utility.yul\":8113:8187   */\n      swap2\n      pop\n        /* \"#utility.yul\":8196:8289   */\n      tag_331\n        /* \"#utility.yul\":8285:8288   */\n      dup3\n        /* \"#utility.yul\":8196:8289   */\n      tag_222\n      jump\t// in\n    tag_331:\n        /* \"#utility.yul\":8314:8316   */\n      0x20\n        /* \"#utility.yul\":8309:8312   */\n      dup3\n        /* \"#utility.yul\":8305:8317   */\n      add\n        /* \"#utility.yul\":8298:8317   */\n      swap1\n      pop\n        /* \"#utility.yul\":7957:8323   */\n      swap2\n      swap1\n      pop\n      jump\t// out\n        /* \"#utility.yul\":8329:8748   */\n    tag_88:\n        /* \"#utility.yul\":8495:8499   */\n      0x00\n        /* \"#utility.yul\":8533:8535   */\n      0x20\n        /* \"#utility.yul\":8522:8531   */\n      dup3\n        /* \"#utility.yul\":8518:8536   */\n      add\n        /* \"#utility.yul\":8510:8536   */\n      swap1\n      pop\n        /* \"#utility.yul\":8582:8591   */\n      dup2\n        /* \"#utility.yul\":8576:8580   */\n      dup2\n        /* \"#utility.yul\":8572:8592   */\n      sub\n        /* \"#utility.yul\":8568:8569   */\n      0x00\n        /* \"#utility.yul\":8557:8566   */\n      dup4\n        /* \"#utility.yul\":8553:8570   */\n      add\n        /* \"#utility.yul\":8546:8593   */\n      mstore\n        /* \"#utility.yul\":8610:8741   */\n      tag_333\n        /* \"#utility.yul\":8736:8740   */\n      dup2\n        /* \"#utility.yul\":8610:8741   */\n      tag_223\n      jump\t// in\n    tag_333:\n        /* \"#utility.yul\":8602:8741   */\n      swap1\n      pop\n        /* \"#utility.yul\":8329:8748   */\n      swap2\n      swap1\n      pop\n      jump\t// out\n        /* \"#utility.yul\":8754:8929   */\n    tag_224:\n        /* \"#utility.yul\":8894:8921   */\n      0x50726f706f73616c20616c726561647920657865637574656400000000000000\n        /* \"#utility.yul\":8890:8891   */\n      0x00\n        /* \"#utility.yul\":8882:8888   */\n      dup3\n        /* \"#utility.yul\":8878:8892   */\n      add\n        /* \"#utility.yul\":8871:8922   */\n      mstore\n        /* \"#utility.yul\":8754:8929   */\n      pop\n      jump\t// out\n        /* \"#utility.yul\":8935:9301   */\n    tag_225:\n        /* \"#utility.yul\":9077:9080   */\n      0x00\n        /* \"#utility.yul\":9098:9165   */\n      tag_336\n        /* \"#utility.yul\":9162:9164   */\n      0x19\n        /* \"#utility.yul\":9157:9160   */\n      dup4\n        /* \"#utility.yul\":9098:9165   */\n      tag_219\n      jump\t// in\n    tag_336:\n        /* \"#utility.yul\":9091:9165   */\n      swap2\n      pop\n        /* \"#utility.yul\":9174:9267   */\n      tag_337\n        /* \"#utility.yul\":9263:9266   */\n      dup3\n        /* \"#utility.yul\":9174:9267   */\n      tag_224\n      jump\t// in\n    tag_337:\n        /* \"#utility.yul\":9292:9294   */\n      0x20\n        /* \"#utility.yul\":9287:9290   */\n      dup3\n        /* \"#utility.yul\":9283:9295   */\n      add\n        /* \"#utility.yul\":9276:9295   */\n      swap1\n      pop\n        /* \"#utility.yul\":8935:9301   */\n      swap2\n      swap1\n      pop\n      jump\t// out\n        /* \"#utility.yul\":9307:9726   */\n    tag_91:\n        /* \"#utility.yul\":9473:9477   */\n      0x00\n        /* \"#utility.yul\":9511:9513   */\n      0x20\n        /* \"#utility.yul\":9500:9509   */\n      dup3\n        /* \"#utility.yul\":9496:9514   */\n      add\n        /* \"#utility.yul\":9488:9514   */\n      swap1\n      pop\n        /* \"#utility.yul\":9560:9569   */\n      dup2\n        /* \"#utility.yul\":9554:9558   */\n      dup2\n        /* \"#utility.yul\":9550:9570   */\n      sub\n        /* \"#utility.yul\":9546:9547   */\n      0x00\n        /* \"#utility.yul\":9535:9544   */\n      dup4\n        /* \"#utility.yul\":9531:9548   */\n      add\n        /* \"#utility.yul\":9524:9571   */\n      mstore\n        /* \"#utility.yul\":9588:9719   */\n      tag_339\n        /* \"#utility.yul\":9714:9718   */\n      dup2\n        /* \"#utility.yul\":9588:9719   */\n      tag_225\n      jump\t// in\n    tag_339:\n        /* \"#utility.yul\":9580:9719   */\n      swap1\n      pop\n        /* \"#utility.yul\":9307:9726   */\n      swap2\n      swap1\n      pop\n      jump\t// out\n        /* \"#utility.yul\":9732:9912   */\n    tag_226:\n        /* \"#utility.yul\":9780:9857   */\n      0x4e487b7100000000000000000000000000000000000000000000000000000000\n        /* \"#utility.yul\":9777:9778   */\n      0x00\n        /* \"#utility.yul\":9770:9858   */\n      mstore\n        /* \"#utility.yul\":9877:9881   */\n      0x11\n        /* \"#utility.yul\":9874:9875   */\n      0x04\n        /* \"#utility.yul\":9867:9882   */\n      mstore\n        /* \"#utility.yul\":9901:9905   */\n      0x24\n        /* \"#utility.yul\":9898:9899   */\n      0x00\n        /* \"#utility.yul\":9891:9906   */\n      revert\n        /* \"#utility.yul\":9918:10109   */\n    tag_93:\n        /* \"#utility.yul\":9958:9961   */\n      0x00\n        /* \"#utility.yul\":9977:9997   */\n      tag_342\n        /* \"#utility.yul\":9995:9996   */\n      dup3\n        /* \"#utility.yul\":9977:9997   */\n      tag_202\n      jump\t// in\n    tag_342:\n        /* \"#utility.yul\":9972:9997   */\n      swap2\n      pop\n        /* \"#utility.yul\":10011:10031   */\n      tag_343\n        /* \"#utility.yul\":10029:10030   */\n      dup4\n        /* \"#utility.yul\":10011:10031   */\n      tag_202\n      jump\t// in\n    tag_343:\n        /* \"#utility.yul\":10006:10031   */\n      swap3\n      pop\n        /* \"#utility.yul\":10054:10055   */\n      dup3\n        /* \"#utility.yul\":10051:10052   */\n      dup3\n        /* \"#utility.yul\":10047:10056   */\n      add\n        /* \"#utility.yul\":10040:10056   */\n      swap1\n      pop\n        /* \"#utility.yul\":10075:10078   */\n      dup1\n        /* \"#utility.yul\":10072:10073   */\n      dup3\n        /* \"#utility.yul\":10069:10079   */\n      gt\n        /* \"#utility.yul\":10066:10102   */\n      iszero\n      tag_344\n      jumpi\n        /* \"#utility.yul\":10082:10100   */\n      tag_345\n      tag_226\n      jump\t// in\n    tag_345:\n        /* \"#utility.yul\":10066:10102   */\n    tag_344:\n        /* \"#utility.yul\":9918:10109   */\n      swap3\n      swap2\n      pop\n      pop\n      jump\t// out\n        /* \"#utility.yul\":10115:10295   */\n    tag_227:\n        /* \"#utility.yul\":10163:10240   */\n      0x4e487b7100000000000000000000000000000000000000000000000000000000\n        /* \"#utility.yul\":10160:10161   */\n      0x00\n        /* \"#utility.yul\":10153:10241   */\n      mstore\n        /* \"#utility.yul\":10260:10264   */\n      0x12\n        /* \"#utility.yul\":10257:10258   */\n      0x04\n        /* \"#utility.yul\":10250:10265   */\n      mstore\n        /* \"#utility.yul\":10284:10288   */\n      0x24\n        /* \"#utility.yul\":10281:10282   */\n      0x00\n        /* \"#utility.yul\":10274:10289   */\n      revert\n        /* \"#utility.yul\":10301:10486   */\n    tag_104:\n        /* \"#utility.yul\":10341:10342   */\n      0x00\n        /* \"#utility.yul\":10358:10378   */\n      tag_348\n        /* \"#utility.yul\":10376:10377   */\n      dup3\n        /* \"#utility.yul\":10358:10378   */\n      tag_202\n      jump\t// in\n    tag_348:\n        /* \"#utility.yul\":10353:10378   */\n      swap2\n      pop\n        /* \"#utility.yul\":10392:10412   */\n      tag_349\n        /* \"#utility.yul\":10410:10411   */\n      dup4\n        /* \"#utility.yul\":10392:10412   */\n      tag_202\n      jump\t// in\n    tag_349:\n        /* \"#utility.yul\":10387:10412   */\n      swap3\n      pop\n        /* \"#utility.yul\":10431:10432   */\n      dup3\n        /* \"#utility.yul\":10421:10456   */\n      tag_350\n      jumpi\n        /* \"#utility.yul\":10436:10454   */\n      tag_351\n      tag_227\n      jump\t// in\n    tag_351:\n        /* \"#utility.yul\":10421:10456   */\n    tag_350:\n        /* \"#utility.yul\":10478:10479   */\n      dup3\n        /* \"#utility.yul\":10475:10476   */\n      dup3\n        /* \"#utility.yul\":10471:10480   */\n      div\n        /* \"#utility.yul\":10466:10480   */\n      swap1\n      pop\n        /* \"#utility.yul\":10301:10486   */\n      swap3\n      swap2\n      pop\n      pop\n      jump\t// out\n        /* \"#utility.yul\":10492:10717   */\n    tag_228:\n        /* \"#utility.yul\":10632:10666   */\n      0x496e73756666696369656e7420766f74657320746f2065786563757465207072\n        /* \"#utility.yul\":10628:10629   */\n      0x00\n        /* \"#utility.yul\":10620:10626   */\n      dup3\n        /* \"#utility.yul\":10616:10630   */\n      add\n        /* \"#utility.yul\":10609:10667   */\n      mstore\n        /* \"#utility.yul\":10701:10709   */\n      0x6f706f73616c0000000000000000000000000000000000000000000000000000\n        /* \"#utility.yul\":10696:10698   */\n      0x20\n        /* \"#utility.yul\":10688:10694   */\n      dup3\n        /* \"#utility.yul\":10684:10699   */\n      add\n        /* \"#utility.yul\":10677:10710   */\n      mstore\n        /* \"#utility.yul\":10492:10717   */\n      pop\n      jump\t// out\n        /* \"#utility.yul\":10723:11089   */\n    tag_229:\n        /* \"#utility.yul\":10865:10868   */\n      0x00\n        /* \"#utility.yul\":10886:10953   */\n      tag_354\n        /* \"#utility.yul\":10950:10952   */\n      0x26\n        /* \"#utility.yul\":10945:10948   */\n      dup4\n        /* \"#utility.yul\":10886:10953   */\n      tag_219\n      jump\t// in\n    tag_354:\n        /* \"#utility.yul\":10879:10953   */\n      swap2\n      pop\n        /* \"#utility.yul\":10962:11055   */\n      tag_355\n        /* \"#utility.yul\":11051:11054   */\n      dup3\n        /* \"#utility.yul\":10962:11055   */\n      tag_228\n      jump\t// in\n    tag_355:\n        /* \"#utility.yul\":11080:11082   */\n      0x40\n        /* \"#utility.yul\":11075:11078   */\n      dup3\n        /* \"#utility.yul\":11071:11083   */\n      add\n        /* \"#utility.yul\":11064:11083   */\n      swap1\n      pop\n        /* \"#utility.yul\":10723:11089   */\n      swap2\n      swap1\n      pop\n      jump\t// out\n        /* \"#utility.yul\":11095:11514   */\n    tag_108:\n        /* \"#utility.yul\":11261:11265   */\n      0x00\n        /* \"#utility.yul\":11299:11301   */\n      0x20\n        /* \"#utility.yul\":11288:11297   */\n      dup3\n        /* \"#utility.yul\":11284:11302   */\n      add\n        /* \"#utility.yul\":11276:11302   */\n      swap1\n      pop\n        /* \"#utility.yul\":11348:11357   */\n      dup2\n        /* \"#utility.yul\":11342:11346   */\n      dup2\n        /* \"#utility.yul\":11338:11358   */\n      sub\n        /* \"#utility.yul\":11334:11335   */\n      0x00\n        /* \"#utility.yul\":11323:11332   */\n      dup4\n        /* \"#utility.yul\":11319:11336   */\n      add\n        /* \"#utility.yul\":11312:11359   */\n      mstore\n        /* \"#utility.yul\":11376:11507   */\n      tag_357\n        /* \"#utility.yul\":11502:11506   */\n      dup2\n        /* \"#utility.yul\":11376:11507   */\n      tag_229\n      jump\t// in\n    tag_357:\n        /* \"#utility.yul\":11368:11507   */\n      swap1\n      pop\n        /* \"#utility.yul\":11095:11514   */\n      swap2\n      swap1\n      pop\n      jump\t// out\n        /* \"#utility.yul\":11520:11618   */\n    tag_230:\n        /* \"#utility.yul\":11571:11577   */\n      0x00\n        /* \"#utility.yul\":11605:11610   */\n      dup2\n        /* \"#utility.yul\":11599:11611   */\n      mload\n        /* \"#utility.yul\":11589:11611   */\n      swap1\n      pop\n        /* \"#utility.yul\":11520:11618   */\n      swap2\n      swap1\n      pop\n      jump\t// out\n        /* \"#utility.yul\":11624:11771   */\n    tag_231:\n        /* \"#utility.yul\":11725:11736   */\n      0x00\n        /* \"#utility.yul\":11762:11765   */\n      dup2\n        /* \"#utility.yul\":11747:11765   */\n      swap1\n      pop\n        /* \"#utility.yul\":11624:11771   */\n      swap3\n      swap2\n      pop\n      pop\n      jump\t// out\n        /* \"#utility.yul\":11777:11916   */\n    tag_232:\n        /* \"#utility.yul\":11866:11872   */\n      dup3\n        /* \"#utility.yul\":11861:11864   */\n      dup2\n        /* \"#utility.yul\":11856:11859   */\n      dup4\n        /* \"#utility.yul\":11850:11873   */\n      mcopy\n        /* \"#utility.yul\":11907:11908   */\n      0x00\n        /* \"#utility.yul\":11898:11904   */\n      dup4\n        /* \"#utility.yul\":11893:11896   */\n      dup4\n        /* \"#utility.yul\":11889:11905   */\n      add\n        /* \"#utility.yul\":11882:11909   */\n      mstore\n        /* \"#utility.yul\":11777:11916   */\n      pop\n      pop\n      pop\n      jump\t// out\n        /* \"#utility.yul\":11922:12308   */\n    tag_233:\n        /* \"#utility.yul\":12026:12029   */\n      0x00\n        /* \"#utility.yul\":12054:12092   */\n      tag_362\n        /* \"#utility.yul\":12086:12091   */\n      dup3\n        /* \"#utility.yul\":12054:12092   */\n      tag_230\n      jump\t// in\n    tag_362:\n        /* \"#utility.yul\":12108:12196   */\n      tag_363\n        /* \"#utility.yul\":12189:12195   */\n      dup2\n        /* \"#utility.yul\":12184:12187   */\n      dup6\n        /* \"#utility.yul\":12108:12196   */\n      tag_231\n      jump\t// in\n    tag_363:\n        /* \"#utility.yul\":12101:12196   */\n      swap4\n      pop\n        /* \"#utility.yul\":12205:12270   */\n      tag_364\n        /* \"#utility.yul\":12263:12269   */\n      dup2\n        /* \"#utility.yul\":12258:12261   */\n      dup6\n        /* \"#utility.yul\":12251:12255   */\n      0x20\n        /* \"#utility.yul\":12244:12249   */\n      dup7\n        /* \"#utility.yul\":12240:12256   */\n      add\n        /* \"#utility.yul\":12205:12270   */\n      tag_232\n      jump\t// in\n    tag_364:\n        /* \"#utility.yul\":12295:12301   */\n      dup1\n        /* \"#utility.yul\":12290:12293   */\n      dup5\n        /* \"#utility.yul\":12286:12302   */\n      add\n        /* \"#utility.yul\":12279:12302   */\n      swap2\n      pop\n        /* \"#utility.yul\":12030:12308   */\n      pop\n        /* \"#utility.yul\":11922:12308   */\n      swap3\n      swap2\n      pop\n      pop\n      jump\t// out\n        /* \"#utility.yul\":12314:12585   */\n    tag_119:\n        /* \"#utility.yul\":12444:12447   */\n      0x00\n        /* \"#utility.yul\":12466:12559   */\n      tag_366\n        /* \"#utility.yul\":12555:12558   */\n      dup3\n        /* \"#utility.yul\":12546:12552   */\n      dup5\n        /* \"#utility.yul\":12466:12559   */\n      tag_233\n      jump\t// in\n    tag_366:\n        /* \"#utility.yul\":12459:12559   */\n      swap2\n      pop\n        /* \"#utility.yul\":12576:12579   */\n      dup2\n        /* \"#utility.yul\":12569:12579   */\n      swap1\n      pop\n        /* \"#utility.yul\":12314:12585   */\n      swap3\n      swap2\n      pop\n      pop\n      jump\t// out\n        /* \"#utility.yul\":12591:12761   */\n    tag_234:\n        /* \"#utility.yul\":12731:12753   */\n      0x417574686f72697a6174696f6e206661696c6564000000000000000000000000\n        /* \"#utility.yul\":12727:12728   */\n      0x00\n        /* \"#utility.yul\":12719:12725   */\n      dup3\n        /* \"#utility.yul\":12715:12729   */\n      add\n        /* \"#utility.yul\":12708:12754   */\n      mstore\n        /* \"#utility.yul\":12591:12761   */\n      pop\n      jump\t// out\n        /* \"#utility.yul\":12767:13133   */\n    tag_235:\n        /* \"#utility.yul\":12909:12912   */\n      0x00\n        /* \"#utility.yul\":12930:12997   */\n      tag_369\n        /* \"#utility.yul\":12994:12996   */\n      0x14\n        /* \"#utility.yul\":12989:12992   */\n      dup4\n        /* \"#utility.yul\":12930:12997   */\n      tag_219\n      jump\t// in\n    tag_369:\n        /* \"#utility.yul\":12923:12997   */\n      swap2\n      pop\n        /* \"#utility.yul\":13006:13099   */\n      tag_370\n        /* \"#utility.yul\":13095:13098   */\n      dup3\n        /* \"#utility.yul\":13006:13099   */\n      tag_234\n      jump\t// in\n    tag_370:\n        /* \"#utility.yul\":13124:13126   */\n      0x20\n        /* \"#utility.yul\":13119:13122   */\n      dup3\n        /* \"#utility.yul\":13115:13127   */\n      add\n        /* \"#utility.yul\":13108:13127   */\n      swap1\n      pop\n        /* \"#utility.yul\":12767:13133   */\n      swap2\n      swap1\n      pop\n      jump\t// out\n        /* \"#utility.yul\":13139:13558   */\n    tag_125:\n        /* \"#utility.yul\":13305:13309   */\n      0x00\n        /* \"#utility.yul\":13343:13345   */\n      0x20\n        /* \"#utility.yul\":13332:13341   */\n      dup3\n        /* \"#utility.yul\":13328:13346   */\n      add\n        /* \"#utility.yul\":13320:13346   */\n      swap1\n      pop\n        /* \"#utility.yul\":13392:13401   */\n      dup2\n        /* \"#utility.yul\":13386:13390   */\n      dup2\n        /* \"#utility.yul\":13382:13402   */\n      sub\n        /* \"#utility.yul\":13378:13379   */\n      0x00\n        /* \"#utility.yul\":13367:13376   */\n      dup4\n        /* \"#utility.yul\":13363:13380   */\n      add\n        /* \"#utility.yul\":13356:13403   */\n      mstore\n        /* \"#utility.yul\":13420:13551   */\n      tag_372\n        /* \"#utility.yul\":13546:13550   */\n      dup2\n        /* \"#utility.yul\":13420:13551   */\n      tag_235\n      jump\t// in\n    tag_372:\n        /* \"#utility.yul\":13412:13551   */\n      swap1\n      pop\n        /* \"#utility.yul\":13139:13558   */\n      swap2\n      swap1\n      pop\n      jump\t// out\n        /* \"#utility.yul\":13564:13731   */\n    tag_236:\n        /* \"#utility.yul\":13704:13723   */\n      0x5265766f636174696f6e206661696c6564000000000000000000000000000000\n        /* \"#utility.yul\":13700:13701   */\n      0x00\n        /* \"#utility.yul\":13692:13698   */\n      dup3\n        /* \"#utility.yul\":13688:13702   */\n      add\n        /* \"#utility.yul\":13681:13724   */\n      mstore\n        /* \"#utility.yul\":13564:13731   */\n      pop\n      jump\t// out\n        /* \"#utility.yul\":13737:14103   */\n    tag_237:\n        /* \"#utility.yul\":13879:13882   */\n      0x00\n        /* \"#utility.yul\":13900:13967   */\n      tag_375\n        /* \"#utility.yul\":13964:13966   */\n      0x11\n        /* \"#utility.yul\":13959:13962   */\n      dup4\n        /* \"#utility.yul\":13900:13967   */\n      tag_219\n      jump\t// in\n    tag_375:\n        /* \"#utility.yul\":13893:13967   */\n      swap2\n      pop\n        /* \"#utility.yul\":13976:14069   */\n      tag_376\n        /* \"#utility.yul\":14065:14068   */\n      dup3\n        /* \"#utility.yul\":13976:14069   */\n      tag_236\n      jump\t// in\n    tag_376:\n        /* \"#utility.yul\":14094:14096   */\n      0x20\n        /* \"#utility.yul\":14089:14092   */\n      dup3\n        /* \"#utility.yul\":14085:14097   */\n      add\n        /* \"#utility.yul\":14078:14097   */\n      swap1\n      pop\n        /* \"#utility.yul\":13737:14103   */\n      swap2\n      swap1\n      pop\n      jump\t// out\n        /* \"#utility.yul\":14109:14528   */\n    tag_139:\n        /* \"#utility.yul\":14275:14279   */\n      0x00\n        /* \"#utility.yul\":14313:14315   */\n      0x20\n        /* \"#utility.yul\":14302:14311   */\n      dup3\n        /* \"#utility.yul\":14298:14316   */\n      add\n        /* \"#utility.yul\":14290:14316   */\n      swap1\n      pop\n        /* \"#utility.yul\":14362:14371   */\n      dup2\n        /* \"#utility.yul\":14356:14360   */\n      dup2\n        /* \"#utility.yul\":14352:14372   */\n      sub\n        /* \"#utility.yul\":14348:14349   */\n      0x00\n        /* \"#utility.yul\":14337:14346   */\n      dup4\n        /* \"#utility.yul\":14333:14350   */\n      add\n        /* \"#utility.yul\":14326:14373   */\n      mstore\n        /* \"#utility.yul\":14390:14521   */\n      tag_378\n        /* \"#utility.yul\":14516:14520   */\n      dup2\n        /* \"#utility.yul\":14390:14521   */\n      tag_237\n      jump\t// in\n    tag_378:\n        /* \"#utility.yul\":14382:14521   */\n      swap1\n      pop\n        /* \"#utility.yul\":14109:14528   */\n      swap2\n      swap1\n      pop\n      jump\t// out\n        /* \"#utility.yul\":14534:14712   */\n    tag_238:\n        /* \"#utility.yul\":14674:14704   */\n      0x54617267657420697320616c7265616479206120676f7665726e6f7200000000\n        /* \"#utility.yul\":14670:14671   */\n      0x00\n        /* \"#utility.yul\":14662:14668   */\n      dup3\n        /* \"#utility.yul\":14658:14672   */\n      add\n        /* \"#utility.yul\":14651:14705   */\n      mstore\n        /* \"#utility.yul\":14534:14712   */\n      pop\n      jump\t// out\n        /* \"#utility.yul\":14718:15084   */\n    tag_239:\n        /* \"#utility.yul\":14860:14863   */\n      0x00\n        /* \"#utility.yul\":14881:14948   */\n      tag_381\n        /* \"#utility.yul\":14945:14947   */\n      0x1c\n        /* \"#utility.yul\":14940:14943   */\n      dup4\n        /* \"#utility.yul\":14881:14948   */\n      tag_219\n      jump\t// in\n    tag_381:\n        /* \"#utility.yul\":14874:14948   */\n      swap2\n      pop\n        /* \"#utility.yul\":14957:15050   */\n      tag_382\n        /* \"#utility.yul\":15046:15049   */\n      dup3\n        /* \"#utility.yul\":14957:15050   */\n      tag_238\n      jump\t// in\n    tag_382:\n        /* \"#utility.yul\":15075:15077   */\n      0x20\n        /* \"#utility.yul\":15070:15073   */\n      dup3\n        /* \"#utility.yul\":15066:15078   */\n      add\n        /* \"#utility.yul\":15059:15078   */\n      swap1\n      pop\n        /* \"#utility.yul\":14718:15084   */\n      swap2\n      swap1\n      pop\n      jump\t// out\n        /* \"#utility.yul\":15090:15509   */\n    tag_148:\n        /* \"#utility.yul\":15256:15260   */\n      0x00\n        /* \"#utility.yul\":15294:15296   */\n      0x20\n        /* \"#utility.yul\":15283:15292   */\n      dup3\n        /* \"#utility.yul\":15279:15297   */\n      add\n        /* \"#utility.yul\":15271:15297   */\n      swap1\n      pop\n        /* \"#utility.yul\":15343:15352   */\n      dup2\n        /* \"#utility.yul\":15337:15341   */\n      dup2\n        /* \"#utility.yul\":15333:15353   */\n      sub\n        /* \"#utility.yul\":15329:15330   */\n      0x00\n        /* \"#utility.yul\":15318:15327   */\n      dup4\n        /* \"#utility.yul\":15314:15331   */\n      add\n        /* \"#utility.yul\":15307:15354   */\n      mstore\n        /* \"#utility.yul\":15371:15502   */\n      tag_384\n        /* \"#utility.yul\":15497:15501   */\n      dup2\n        /* \"#utility.yul\":15371:15502   */\n      tag_239\n      jump\t// in\n    tag_384:\n        /* \"#utility.yul\":15363:15502   */\n      swap1\n      pop\n        /* \"#utility.yul\":15090:15509   */\n      swap2\n      swap1\n      pop\n      jump\t// out\n        /* \"#utility.yul\":15515:15748   */\n    tag_150:\n        /* \"#utility.yul\":15554:15557   */\n      0x00\n        /* \"#utility.yul\":15577:15601   */\n      tag_386\n        /* \"#utility.yul\":15595:15600   */\n      dup3\n        /* \"#utility.yul\":15577:15601   */\n      tag_202\n      jump\t// in\n    tag_386:\n        /* \"#utility.yul\":15568:15601   */\n      swap2\n      pop\n        /* \"#utility.yul\":15623:15689   */\n      0xffffffffffffffffffffffffffffffffffffffffffffffffffffffffffffffff\n        /* \"#utility.yul\":15616:15621   */\n      dup3\n        /* \"#utility.yul\":15613:15690   */\n      sub\n        /* \"#utility.yul\":15610:15713   */\n      tag_387\n      jumpi\n        /* \"#utility.yul\":15693:15711   */\n      tag_388\n      tag_226\n      jump\t// in\n    tag_388:\n        /* \"#utility.yul\":15610:15713   */\n    tag_387:\n        /* \"#utility.yul\":15740:15741   */\n      0x01\n        /* \"#utility.yul\":15733:15738   */\n      dup3\n        /* \"#utility.yul\":15729:15742   */\n      add\n        /* \"#utility.yul\":15722:15742   */\n      swap1\n      pop\n        /* \"#utility.yul\":15515:15748   */\n      swap2\n      swap1\n      pop\n      jump\t// out\n        /* \"#utility.yul\":15754:15979   */\n    tag_240:\n        /* \"#utility.yul\":15894:15928   */\n      0x54776f20676f7665726e6f72732063616e6e6f742072656d6f76652065616368\n        /* \"#utility.yul\":15890:15891   */\n      0x00\n        /* \"#utility.yul\":15882:15888   */\n      dup3\n        /* \"#utility.yul\":15878:15892   */\n      add\n        /* \"#utility.yul\":15871:15929   */\n      mstore\n        /* \"#utility.yul\":15963:15971   */\n      0x206f746865720000000000000000000000000000000000000000000000000000\n        /* \"#utility.yul\":15958:15960   */\n      0x20\n        /* \"#utility.yul\":15950:15956   */\n      dup3\n        /* \"#utility.yul\":15946:15961   */\n      add\n        /* \"#utility.yul\":15939:15972   */\n      mstore\n        /* \"#utility.yul\":15754:15979   */\n      pop\n      jump\t// out\n        /* \"#utility.yul\":15985:16351   */\n    tag_241:\n        /* \"#utility.yul\":16127:16130   */\n      0x00\n        /* \"#utility.yul\":16148:16215   */\n      tag_391\n        /* \"#utility.yul\":16212:16214   */\n      0x26\n        /* \"#utility.yul\":16207:16210   */\n      dup4\n        /* \"#utility.yul\":16148:16215   */\n      tag_219\n      jump\t// in\n    tag_391:\n        /* \"#utility.yul\":16141:16215   */\n      swap2\n      pop\n        /* \"#utility.yul\":16224:16317   */\n      tag_392\n        /* \"#utility.yul\":16313:16316   */\n      dup3\n        /* \"#utility.yul\":16224:16317   */\n      tag_240\n      jump\t// in\n    tag_392:\n        /* \"#utility.yul\":16342:16344   */\n      0x40\n        /* \"#utility.yul\":16337:16340   */\n      dup3\n        /* \"#utility.yul\":16333:16345   */\n      add\n        /* \"#utility.yul\":16326:16345   */\n      swap1\n      pop\n        /* \"#utility.yul\":15985:16351   */\n      swap2\n      swap1\n      pop\n      jump\t// out\n        /* \"#utility.yul\":16357:16776   */\n    tag_161:\n        /* \"#utility.yul\":16523:16527   */\n      0x00\n        /* \"#utility.yul\":16561:16563   */\n      0x20\n        /* \"#utility.yul\":16550:16559   */\n      dup3\n        /* \"#utility.yul\":16546:16564   */\n      add\n        /* \"#utility.yul\":16538:16564   */\n      swap1\n      pop\n        /* \"#utility.yul\":16610:16619   */\n      dup2\n        /* \"#utility.yul\":16604:16608   */\n      dup2\n        /* \"#utility.yul\":16600:16620   */\n      sub\n        /* \"#utility.yul\":16596:16597   */\n      0x00\n        /* \"#utility.yul\":16585:16594   */\n      dup4\n        /* \"#utility.yul\":16581:16598   */\n      add\n        /* \"#utility.yul\":16574:16621   */\n      mstore\n        /* \"#utility.yul\":16638:16769   */\n      tag_394\n        /* \"#utility.yul\":16764:16768   */\n      dup2\n        /* \"#utility.yul\":16638:16769   */\n      tag_241\n      jump\t// in\n    tag_394:\n        /* \"#utility.yul\":16630:16769   */\n      swap1\n      pop\n        /* \"#utility.yul\":16357:16776   */\n      swap2\n      swap1\n      pop\n      jump\t// out\n        /* \"#utility.yul\":16782:16953   */\n    tag_163:\n        /* \"#utility.yul\":16821:16824   */\n      0x00\n        /* \"#utility.yul\":16844:16868   */\n      tag_396\n        /* \"#utility.yul\":16862:16867   */\n      dup3\n        /* \"#utility.yul\":16844:16868   */\n      tag_202\n      jump\t// in\n    tag_396:\n        /* \"#utility.yul\":16835:16868   */\n      swap2\n      pop\n        /* \"#utility.yul\":16890:16894   */\n      0x00\n        /* \"#utility.yul\":16883:16888   */\n      dup3\n        /* \"#utility.yul\":16880:16895   */\n      sub\n        /* \"#utility.yul\":16877:16918   */\n      tag_397\n      jumpi\n        /* \"#utility.yul\":16898:16916   */\n      tag_398\n      tag_226\n      jump\t// in\n    tag_398:\n        /* \"#utility.yul\":16877:16918   */\n    tag_397:\n        /* \"#utility.yul\":16945:16946   */\n      0x01\n        /* \"#utility.yul\":16938:16943   */\n      dup3\n        /* \"#utility.yul\":16934:16947   */\n      sub\n        /* \"#utility.yul\":16927:16947   */\n      swap1\n      pop\n        /* \"#utility.yul\":16782:16953   */\n      swap2\n      swap1\n      pop\n      jump\t// out\n        /* \"#utility.yul\":16959:17307   */\n    tag_189:\n        /* \"#utility.yul\":17088:17092   */\n      0x00\n        /* \"#utility.yul\":17126:17128   */\n      0x40\n        /* \"#utility.yul\":17115:17124   */\n      dup3\n        /* \"#utility.yul\":17111:17129   */\n      add\n        /* \"#utility.yul\":17103:17129   */\n      swap1\n      pop\n        /* \"#utility.yul\":17139:17218   */\n      tag_400\n        /* \"#utility.yul\":17215:17216   */\n      0x00\n        /* \"#utility.yul\":17204:17213   */\n      dup4\n        /* \"#utility.yul\":17200:17217   */\n      add\n        /* \"#utility.yul\":17191:17197   */\n      dup6\n        /* \"#utility.yul\":17139:17218   */\n      tag_209\n      jump\t// in\n    tag_400:\n        /* \"#utility.yul\":17228:17300   */\n      tag_401\n        /* \"#utility.yul\":17296:17298   */\n      0x20\n        /* \"#utility.yul\":17285:17294   */\n      dup4\n        /* \"#utility.yul\":17281:17299   */\n      add\n        /* \"#utility.yul\":17272:17278   */\n      dup5\n        /* \"#utility.yul\":17228:17300   */\n      tag_212\n      jump\t// in\n    tag_401:\n        /* \"#utility.yul\":16959:17307   */\n      swap4\n      swap3\n      pop\n      pop\n      pop\n      jump\t// out\n        /* \"#utility.yul\":17313:17482   */\n    tag_242:\n        /* \"#utility.yul\":17453:17474   */\n      0x4164647265737320616c72656164792073657400000000000000000000000000\n        /* \"#utility.yul\":17449:17450   */\n      0x00\n        /* \"#utility.yul\":17441:17447   */\n      dup3\n        /* \"#utility.yul\":17437:17451   */\n      add\n        /* \"#utility.yul\":17430:17475   */\n      mstore\n        /* \"#utility.yul\":17313:17482   */\n      pop\n      jump\t// out\n        /* \"#utility.yul\":17488:17854   */\n    tag_243:\n        /* \"#utility.yul\":17630:17633   */\n      0x00\n        /* \"#utility.yul\":17651:17718   */\n      tag_404\n        /* \"#utility.yul\":17715:17717   */\n      0x13\n        /* \"#utility.yul\":17710:17713   */\n      dup4\n        /* \"#utility.yul\":17651:17718   */\n      tag_219\n      jump\t// in\n    tag_404:\n        /* \"#utility.yul\":17644:17718   */\n      swap2\n      pop\n        /* \"#utility.yul\":17727:17820   */\n      tag_405\n        /* \"#utility.yul\":17816:17819   */\n      dup3\n        /* \"#utility.yul\":17727:17820   */\n      tag_242\n      jump\t// in\n    tag_405:\n        /* \"#utility.yul\":17845:17847   */\n      0x20\n        /* \"#utility.yul\":17840:17843   */\n      dup3\n        /* \"#utility.yul\":17836:17848   */\n      add\n        /* \"#utility.yul\":17829:17848   */\n      swap1\n      pop\n        /* \"#utility.yul\":17488:17854   */\n      swap2\n      swap1\n      pop\n      jump\t// out\n        /* \"#utility.yul\":17860:18279   */\n    tag_197:\n        /* \"#utility.yul\":18026:18030   */\n      0x00\n        /* \"#utility.yul\":18064:18066   */\n      0x20\n        /* \"#utility.yul\":18053:18062   */\n      dup3\n        /* \"#utility.yul\":18049:18067   */\n      add\n        /* \"#utility.yul\":18041:18067   */\n      swap1\n      pop\n        /* \"#utility.yul\":18113:18122   */\n      dup2\n        /* \"#utility.yul\":18107:18111   */\n      dup2\n        /* \"#utility.yul\":18103:18123   */\n      sub\n        /* \"#utility.yul\":18099:18100   */\n      0x00\n        /* \"#utility.yul\":18088:18097   */\n      dup4\n        /* \"#utility.yul\":18084:18101   */\n      add\n        /* \"#utility.yul\":18077:18124   */\n      mstore\n        /* \"#utility.yul\":18141:18272   */\n      tag_407\n        /* \"#utility.yul\":18267:18271   */\n      dup2\n        /* \"#utility.yul\":18141:18272   */\n      tag_243\n      jump\t// in\n    tag_407:\n        /* \"#utility.yul\":18133:18272   */\n      swap1\n      pop\n        /* \"#utility.yul\":17860:18279   */\n      swap2\n      swap1\n      pop\n      jump\t// out\n\n    auxdata: 0xa2646970667358221220a6210449af95b2456db422b7871e616ba01682d2a47ba418d271cf64572d23a864736f6c634300081e0033\n}\n",
				"bytecode": {
					"linkReferences": {},
					"object": "608060405234801561000f575f5ffd5b50604051612235380380612235833981810160405281019061003191906103c4565b81516001819055508060025f6101000a81548173ffffffffffffffffffffffffffffffffffffffff021916908373ffffffffffffffffffffffffffffffffffffffff1602179055505f825190505f5f90505b81811015610200575f84828151811061009f5761009e61041e565b5b602002602001015190505f73ffffffffffffffffffffffffffffffffffffffff168173ffffffffffffffffffffffffffffffffffffffff1603610117576040517f08c379a000000000000000000000000000000000000000000000000000000000815260040161010e906104a5565b60405180910390fd5b5f5f8273ffffffffffffffffffffffffffffffffffffffff1673ffffffffffffffffffffffffffffffffffffffff1681526020019081526020015f205f9054906101000a900460ff16156101a0576040517f08c379a00000000000000000000000000000000000000000000000000000000081526004016101979061050d565b60405180910390fd5b60015f5f8373ffffffffffffffffffffffffffffffffffffffff1673ffffffffffffffffffffffffffffffffffffffff1681526020019081526020015f205f6101000a81548160ff02191690831515021790555081600101915050610083565b5050505061052b565b5f604051905090565b5f5ffd5b5f5ffd5b5f5ffd5b5f601f19601f8301169050919050565b7f4e487b71000000000000000000000000000000000000000000000000000000005f52604160045260245ffd5b6102648261021e565b810181811067ffffffffffffffff821117156102835761028261022e565b5b80604052505050565b5f610295610209565b90506102a1828261025b565b919050565b5f67ffffffffffffffff8211156102c0576102bf61022e565b5b602082029050602081019050919050565b5f5ffd5b5f73ffffffffffffffffffffffffffffffffffffffff82169050919050565b5f6102fe826102d5565b9050919050565b61030e816102f4565b8114610318575f5ffd5b50565b5f8151905061032981610305565b92915050565b5f61034161033c846102a6565b61028c565b90508083825260208201905060208402830185811115610364576103636102d1565b5b835b8181101561038d5780610379888261031b565b845260208401935050602081019050610366565b5050509392505050565b5f82601f8301126103ab576103aa61021a565b5b81516103bb84826020860161032f565b91505092915050565b5f5f604083850312156103da576103d9610212565b5b5f83015167ffffffffffffffff8111156103f7576103f6610216565b5b61040385828601610397565b92505060206104148582860161031b565b9150509250929050565b7f4e487b71000000000000000000000000000000000000000000000000000000005f52603260045260245ffd5b5f82825260208201905092915050565b7f496e76616c696420676f7665726e6f72000000000000000000000000000000005f82015250565b5f61048f60108361044b565b915061049a8261045b565b602082019050919050565b5f6020820190508181035f8301526104bc81610483565b9050919050565b7f4475706c696361746520676f7665726e6f7200000000000000000000000000005f82015250565b5f6104f760128361044b565b9150610502826104c3565b602082019050919050565b5f6020820190508181035f830152610524816104eb565b9050919050565b611cfd806105385f395ff3fe608060405234801561000f575f5ffd5b50600436106100e8575f3560e01c80638e2767ef1161008a578063dc999c8d11610064578063dc999c8d14610277578063e0901d7a14610295578063e43581b8146102b1578063e8c9fd45146102e1576100e8565b80638e2767ef146101f9578063aebe39ca14610229578063da35c66414610259576100e8565b80630eb3813a116100c65780630eb3813a146101595780630ef60a85146101775780633b4d01a71461019557806343859632146101c9576100e8565b80630121b93f146100ec578063013cf08b146101085780630d61b5191461013d575b5f5ffd5b610106600480360381019061010191906113e7565b6102ff565b005b610122600480360381019061011d91906113e7565b610541565b604051610134969594939291906114ed565b60405180910390f35b610157600480360381019061015291906113e7565b6105c0565b005b610161610ef2565b60405161016e919061154c565b60405180910390f35b61017f610f13565b60405161018c919061154c565b60405180910390f35b6101af60048036038101906101aa91906113e7565b610f19565b6040516101c0959493929190611565565b60405180910390f35b6101e360048036038101906101de91906115e0565b610fa6565b6040516101f0919061161e565b60405180910390f35b610213600480360381019061020e91906113e7565b61101a565b604051610220919061154c565b60405180910390f35b610243600480360381019061023e919061165a565b611063565b604051610250919061154c565b60405180910390f35b610261611200565b60405161026e919061154c565b60405180910390f35b61027f61120c565b60405161028c9190611698565b60405180910390f35b6102af60048036038101906102aa91906116b1565b611231565b005b6102cb60048036038101906102c691906116b1565b61138b565b6040516102d8919061161e565b60405180910390f35b6102e96113a7565b6040516102f6919061154c565b60405180910390f35b5f5f3373ffffffffffffffffffffffffffffffffffffffff1673ffffffffffffffffffffffffffffffffffffffff1681526020019081526020015f205f9054906101000a900460ff16610387576040517f08c379a000000000000000000000000000000000000000000000000000000000815260040161037e90611736565b60405180910390fd5b5f6003828154811061039c5761039b611754565b5b905f5260205f2090600602019050806005015f3373ffffffffffffffffffffffffffffffffffffffff1673ffffffffffffffffffffffffffffffffffffffff1681526020019081526020015f205f9054906101000a900460ff1615610436576040517f08c379a000000000000000000000000000000000000000000000000000000000815260040161042d906117cb565b60405180910390fd5b806004015f9054906101000a900460ff1615610487576040517f08c379a000000000000000000000000000000000000000000000000000000000815260040161047e90611833565b60405180910390fd5b6001816005015f3373ffffffffffffffffffffffffffffffffffffffff1673ffffffffffffffffffffffffffffffffffffffff1681526020019081526020015f205f6101000a81548160ff0219169083151502179055506001816002015f8282546104f2919061187e565b925050819055503373ffffffffffffffffffffffffffffffffffffffff16827ff1003b73c437642c0460aee9cd9628b0b8c447b66e6c7c905531b9c644214a1160405160405180910390a35050565b60038181548110610550575f80fd5b905f5260205f2090600602015f91509050805f015490806001015f9054906101000a900460ff16908060010160019054906101000a900473ffffffffffffffffffffffffffffffffffffffff1690806002015490806003015490806004015f9054906101000a900460ff16905086565b5f5f3373ffffffffffffffffffffffffffffffffffffffff1673ffffffffffffffffffffffffffffffffffffffff1681526020019081526020015f205f9054906101000a900460ff16610648576040517f08c379a000000000000000000000000000000000000000000000000000000000815260040161063f90611736565b60405180910390fd5b5f6003828154811061065d5761065c611754565b5b905f5260205f20906006020190505f60016002836003015461067f91906118de565b610689919061187e565b905080826002015410156106d2576040517f08c379a00000000000000000000000000000000000000000000000000000000081526004016106c99061197e565b60405180910390fd5b816004015f9054906101000a900460ff1615610723576040517f08c379a000000000000000000000000000000000000000000000000000000000815260040161071a90611833565b60405180910390fd5b5f600381111561073657610735611421565b5b826001015f9054906101000a900460ff16600381111561075957610758611421565b5b036108de575f60025f9054906101000a900473ffffffffffffffffffffffffffffffffffffffff1673ffffffffffffffffffffffffffffffffffffffff168360010160019054906101000a900473ffffffffffffffffffffffffffffffffffffffff166040516024016107cc9190611698565b6040516020818303038152906040527fbd4d8bcb000000000000000000000000000000000000000000000000000000007bffffffffffffffffffffffffffffffffffffffffffffffffffffffff19166020820180517bffffffffffffffffffffffffffffffffffffffffffffffffffffffff838183161783525050505060405161085691906119ee565b5f604051808303815f865af19150503d805f811461088f576040519150601f19603f3d011682016040523d82523d5f602084013e610894565b606091505b50509050806108d8576040517f08c379a00000000000000000000000000000000000000000000000000000000081526004016108cf90611a4e565b60405180910390fd5b50610ea4565b600160038111156108f2576108f1611421565b5b826001015f9054906101000a900460ff16600381111561091557610914611421565b5b03610a9a575f60025f9054906101000a900473ffffffffffffffffffffffffffffffffffffffff1673ffffffffffffffffffffffffffffffffffffffff168360010160019054906101000a900473ffffffffffffffffffffffffffffffffffffffff166040516024016109889190611698565b6040516020818303038152906040527f1c67494e000000000000000000000000000000000000000000000000000000007bffffffffffffffffffffffffffffffffffffffffffffffffffffffff19166020820180517bffffffffffffffffffffffffffffffffffffffffffffffffffffffff8381831617835250505050604051610a1291906119ee565b5f604051808303815f865af19150503d805f8114610a4b576040519150601f19603f3d011682016040523d82523d5f602084013e610a50565b606091505b5050905080610a94576040517f08c379a0000000000000000000000000000000000000000000000000000000008152600401610a8b90611ab6565b60405180910390fd5b50610ea3565b60026003811115610aae57610aad611421565b5b826001015f9054906101000a900460ff166003811115610ad157610ad0611421565b5b03610c7e575f5f8360010160019054906101000a900473ffffffffffffffffffffffffffffffffffffffff1673ffffffffffffffffffffffffffffffffffffffff1673ffffffffffffffffffffffffffffffffffffffff1681526020019081526020015f205f9054906101000a900460ff1615610b83576040517f08c379a0000000000000000000000000000000000000000000000000000000008152600401610b7a90611b1e565b60405180910390fd5b60015f5f8460010160019054906101000a900473ffffffffffffffffffffffffffffffffffffffff1673ffffffffffffffffffffffffffffffffffffffff1673ffffffffffffffffffffffffffffffffffffffff1681526020019081526020015f205f6101000a81548160ff02191690831515021790555060015f815480929190610c0d90611b3c565b91905055508160010160019054906101000a900473ffffffffffffffffffffffffffffffffffffffff1673ffffffffffffffffffffffffffffffffffffffff167fdc5a48d79e2e147530ff63ecdbed5a5a66adb9d5cf339384d5d076da197c40b560405160405180910390a2610ea2565b600380811115610c9157610c90611421565b5b826001015f9054906101000a900460ff166003811115610cb457610cb3611421565b5b03610ea1575f5f8360010160019054906101000a900473ffffffffffffffffffffffffffffffffffffffff1673ffffffffffffffffffffffffffffffffffffffff1673ffffffffffffffffffffffffffffffffffffffff1681526020019081526020015f205f9054906101000a900460ff16610d65576040517f08c379a0000000000000000000000000000000000000000000000000000000008152600401610d5c90611736565b60405180910390fd5b60026001541015610dab576040517f08c379a0000000000000000000000000000000000000000000000000000000008152600401610da290611bf3565b60405180910390fd5b5f5f5f8460010160019054906101000a900473ffffffffffffffffffffffffffffffffffffffff1673ffffffffffffffffffffffffffffffffffffffff1673ffffffffffffffffffffffffffffffffffffffff1681526020019081526020015f205f6101000a81548160ff02191690831515021790555060015f815480929190610e3490611c11565b91905055508160010160019054906101000a900473ffffffffffffffffffffffffffffffffffffffff1673ffffffffffffffffffffffffffffffffffffffff167f1ebe834e73d60a5fec822c1e1727d34bc79f2ad977ed504581cc1822fe20fb5b60405160405180910390a25b5b5b5b6001826004015f6101000a81548160ff021916908315150217905550827f712ae1383f79ac853f8d882153778e0260ef8f03b504e2866e0593e04d2b291f60405160405180910390a2505050565b5f60016002600154610f0491906118de565b610f0e919061187e565b905090565b60015481565b5f5f5f5f5f5f60038781548110610f3357610f32611754565b5b905f5260205f2090600602019050806001015f9054906101000a900460ff168160010160019054906101000a900473ffffffffffffffffffffffffffffffffffffffff1682600201548360030154846004015f9054906101000a900460ff16955095509550955095505091939590929450565b5f60038381548110610fbb57610fba611754565b5b905f5260205f2090600602016005015f8373ffffffffffffffffffffffffffffffffffffffff1673ffffffffffffffffffffffffffffffffffffffff1681526020019081526020015f205f9054906101000a900460ff16905092915050565b5f5f600383815481106110305761102f611754565b5b905f5260205f209060060201905060016002826003015461105191906118de565b61105b919061187e565b915050919050565b5f5f5f3373ffffffffffffffffffffffffffffffffffffffff1673ffffffffffffffffffffffffffffffffffffffff1681526020019081526020015f205f9054906101000a900460ff166110ec576040517f08c379a00000000000000000000000000000000000000000000000000000000081526004016110e390611736565b60405180910390fd5b5f60038054905090505f600360018160018154018082558091505003905f5260205f209060060201905081815f018190555084816001015f6101000a81548160ff0219169083600381111561114457611143611421565b5b0217905550838160010160016101000a81548173ffffffffffffffffffffffffffffffffffffffff021916908373ffffffffffffffffffffffffffffffffffffffff1602179055505f816002018190555060015481600301819055505f816004015f6101000a81548160ff021916908315150217905550817f3263432a41f78a4701cc9465f62411ed717ade32290c084135a3dd6b29f4bf2886866040516111ed929190611c38565b60405180910390a2819250505092915050565b5f600380549050905090565b60025f9054906101000a900473ffffffffffffffffffffffffffffffffffffffff1681565b5f5f3373ffffffffffffffffffffffffffffffffffffffff1673ffffffffffffffffffffffffffffffffffffffff1681526020019081526020015f205f9054906101000a900460ff166112b9576040517f08c379a00000000000000000000000000000000000000000000000000000000081526004016112b090611736565b60405180910390fd5b5f73ffffffffffffffffffffffffffffffffffffffff1660025f9054906101000a900473ffffffffffffffffffffffffffffffffffffffff1673ffffffffffffffffffffffffffffffffffffffff1614611348576040517f08c379a000000000000000000000000000000000000000000000000000000000815260040161133f90611ca9565b60405180910390fd5b8060025f6101000a81548173ffffffffffffffffffffffffffffffffffffffff021916908373ffffffffffffffffffffffffffffffffffffffff16021790555050565b5f602052805f5260405f205f915054906101000a900460ff1681565b5f600154905090565b5f5ffd5b5f819050919050565b6113c6816113b4565b81146113d0575f5ffd5b50565b5f813590506113e1816113bd565b92915050565b5f602082840312156113fc576113fb6113b0565b5b5f611409848285016113d3565b91505092915050565b61141b816113b4565b82525050565b7f4e487b71000000000000000000000000000000000000000000000000000000005f52602160045260245ffd5b6004811061145f5761145e611421565b5b50565b5f81905061146f8261144e565b919050565b5f61147e82611462565b9050919050565b61148e81611474565b82525050565b5f73ffffffffffffffffffffffffffffffffffffffff82169050919050565b5f6114bd82611494565b9050919050565b6114cd816114b3565b82525050565b5f8115159050919050565b6114e7816114d3565b82525050565b5f60c0820190506115005f830189611412565b61150d6020830188611485565b61151a60408301876114c4565b6115276060830186611412565b6115346080830185611412565b61154160a08301846114de565b979650505050505050565b5f60208201905061155f5f830184611412565b92915050565b5f60a0820190506115785f830188611485565b61158560208301876114c4565b6115926040830186611412565b61159f6060830185611412565b6115ac60808301846114de565b9695505050505050565b6115bf816114b3565b81146115c9575f5ffd5b50565b5f813590506115da816115b6565b92915050565b5f5f604083850312156115f6576115f56113b0565b5b5f611603858286016113d3565b9250506020611614858286016115cc565b9150509250929050565b5f6020820190506116315f8301846114de565b92915050565b60048110611643575f5ffd5b50565b5f8135905061165481611637565b92915050565b5f5f604083850312156116705761166f6113b0565b5b5f61167d85828601611646565b925050602061168e858286016115cc565b9150509250929050565b5f6020820190506116ab5f8301846114c4565b92915050565b5f602082840312156116c6576116c56113b0565b5b5f6116d3848285016115cc565b91505092915050565b5f82825260208201905092915050565b7f4e6f74206120676f7665726e6f720000000000000000000000000000000000005f82015250565b5f611720600e836116dc565b915061172b826116ec565b602082019050919050565b5f6020820190508181035f83015261174d81611714565b9050919050565b7f4e487b71000000000000000000000000000000000000000000000000000000005f52603260045260245ffd5b7f476f7665726e6f7220616c726561647920766f746564000000000000000000005f82015250565b5f6117b56016836116dc565b91506117c082611781565b602082019050919050565b5f6020820190508181035f8301526117e2816117a9565b9050919050565b7f50726f706f73616c20616c7265616479206578656375746564000000000000005f82015250565b5f61181d6019836116dc565b9150611828826117e9565b602082019050919050565b5f6020820190508181035f83015261184a81611811565b9050919050565b7f4e487b71000000000000000000000000000000000000000000000000000000005f52601160045260245ffd5b5f611888826113b4565b9150611893836113b4565b92508282019050808211156118ab576118aa611851565b5b92915050565b7f4e487b71000000000000000000000000000000000000000000000000000000005f52601260045260245ffd5b5f6118e8826113b4565b91506118f3836113b4565b925082611903576119026118b1565b5b828204905092915050565b7f496e73756666696369656e7420766f74657320746f20657865637574652070725f8201527f6f706f73616c0000000000000000000000000000000000000000000000000000602082015250565b5f6119686026836116dc565b91506119738261190e565b604082019050919050565b5f6020820190508181035f8301526119958161195c565b9050919050565b5f81519050919050565b5f81905092915050565b8281835e5f83830152505050565b5f6119c88261199c565b6119d281856119a6565b93506119e28185602086016119b0565b80840191505092915050565b5f6119f982846119be565b915081905092915050565b7f417574686f72697a6174696f6e206661696c65640000000000000000000000005f82015250565b5f611a386014836116dc565b9150611a4382611a04565b602082019050919050565b5f6020820190508181035f830152611a6581611a2c565b9050919050565b7f5265766f636174696f6e206661696c65640000000000000000000000000000005f82015250565b5f611aa06011836116dc565b9150611aab82611a6c565b602082019050919050565b5f6020820190508181035f830152611acd81611a94565b9050919050565b7f54617267657420697320616c7265616479206120676f7665726e6f72000000005f82015250565b5f611b08601c836116dc565b9150611b1382611ad4565b602082019050919050565b5f6020820190508181035f830152611b3581611afc565b9050919050565b5f611b46826113b4565b91507fffffffffffffffffffffffffffffffffffffffffffffffffffffffffffffffff8203611b7857611b77611851565b5b600182019050919050565b7f54776f20676f7665726e6f72732063616e6e6f742072656d6f766520656163685f8201527f206f746865720000000000000000000000000000000000000000000000000000602082015250565b5f611bdd6026836116dc565b9150611be882611b83565b604082019050919050565b5f6020820190508181035f830152611c0a81611bd1565b9050919050565b5f611c1b826113b4565b91505f8203611c2d57611c2c611851565b5b600182039050919050565b5f604082019050611c4b5f830185611485565b611c5860208301846114c4565b9392505050565b7f4164647265737320616c726561647920736574000000000000000000000000005f82015250565b5f611c936013836116dc565b9150611c9e82611c5f565b602082019050919050565b5f6020820190508181035f830152611cc081611c87565b905091905056fea2646970667358221220a6210449af95b2456db422b7871e616ba01682d2a47ba418d271cf64572d23a864736f6c634300081e0033",
					"opcodes": "PUSH1 0x80 PUSH1 0x40 MSTORE CALLVALUE DUP1 ISZERO PUSH2 0xF JUMPI PUSH0 PUSH0 REVERT JUMPDEST POP PUSH1 0x40 MLOAD PUSH2 0x2235 CODESIZE SUB DUP1 PUSH2 0x2235 DUP4 CODECOPY DUP2 DUP2 ADD PUSH1 0x40 MSTORE DUP2 ADD SWAP1 PUSH2 0x31 SWAP2 SWAP1 PUSH2 0x3C4 JUMP JUMPDEST DUP2 MLOAD PUSH1 0x1 DUP2 SWAP1 SSTORE POP DUP1 PUSH1 0x2 PUSH0 PUSH2 0x100 EXP DUP2 SLOAD DUP2 PUSH20 0xFFFFFFFFFFFFFFFFFFFFFFFFFFFFFFFFFFFFFFFF MUL NOT AND SWAP1 DUP4 PUSH20 0xFFFFFFFFFFFFFFFFFFFFFFFFFFFFFFFFFFFFFFFF AND MUL OR SWAP1 SSTORE POP PUSH0 DUP3 MLOAD SWAP1 POP PUSH0 PUSH0 SWAP1 POP JUMPDEST DUP2 DUP2 LT ISZERO PUSH2 0x200 JUMPI PUSH0 DUP5 DUP3 DUP2 MLOAD DUP2 LT PUSH2 0x9F JUMPI PUSH2 0x9E PUSH2 0x41E JUMP JUMPDEST JUMPDEST PUSH1 0x20 MUL PUSH1 0x20 ADD ADD MLOAD SWAP1 POP PUSH0 PUSH20 0xFFFFFFFFFFFFFFFFFFFFFFFFFFFFFFFFFFFFFFFF AND DUP2 PUSH20 0xFFFFFFFFFFFFFFFFFFFFFFFFFFFFFFFFFFFFFFFF AND SUB PUSH2 0x117 JUMPI PUSH1 0x40 MLOAD PUSH32 0x8C379A000000000000000000000000000000000000000000000000000000000 DUP2 MSTORE PUSH1 0x4 ADD PUSH2 0x10E SWAP1 PUSH2 0x4A5 JUMP JUMPDEST PUSH1 0x40 MLOAD DUP1 SWAP2 SUB SWAP1 REVERT JUMPDEST PUSH0 PUSH0 DUP3 PUSH20 0xFFFFFFFFFFFFFFFFFFFFFFFFFFFFFFFFFFFFFFFF AND PUSH20 0xFFFFFFFFFFFFFFFFFFFFFFFFFFFFFFFFFFFFFFFF AND DUP2 MSTORE PUSH1 0x20 ADD SWAP1 DUP2 MSTORE PUSH1 0x20 ADD PUSH0 KECCAK256 PUSH0 SWAP1 SLOAD SWAP1 PUSH2 0x100 EXP SWAP1 DIV PUSH1 0xFF AND ISZERO PUSH2 0x1A0 JUMPI PUSH1 0x40 MLOAD PUSH32 0x8C379A000000000000000000000000000000000000000000000000000000000 DUP2 MSTORE PUSH1 0x4 ADD PUSH2 0x197 SWAP1 PUSH2 0x50D JUMP JUMPDEST PUSH1 0x40 MLOAD DUP1 SWAP2 SUB SWAP1 REVERT JUMPDEST PUSH1 0x1 PUSH0 PUSH0 DUP4 PUSH20 0xFFFFFFFFFFFFFFFFFFFFFFFFFFFFFFFFFFFFFFFF AND PUSH20 0xFFFFFFFFFFFFFFFFFFFFFFFFFFFFFFFFFFFFFFFF AND DUP2 MSTORE PUSH1 0x20 ADD SWAP1 DUP2 MSTORE PUSH1 0x20 ADD PUSH0 KECCAK256 PUSH0 PUSH2 0x100 EXP DUP2 SLOAD DUP2 PUSH1 0xFF MUL NOT AND SWAP1 DUP4 ISZERO ISZERO MUL OR SWAP1 SSTORE POP DUP2 PUSH1 0x1 ADD SWAP2 POP POP PUSH2 0x83 JUMP JUMPDEST POP POP POP POP PUSH2 0x52B JUMP JUMPDEST PUSH0 PUSH1 0x40 MLOAD SWAP1 POP SWAP1 JUMP JUMPDEST PUSH0 PUSH0 REVERT JUMPDEST PUSH0 PUSH0 REVERT JUMPDEST PUSH0 PUSH0 REVERT JUMPDEST PUSH0 PUSH1 0x1F NOT PUSH1 0x1F DUP4 ADD AND SWAP1 POP SWAP2 SWAP1 POP JUMP JUMPDEST PUSH32 0x4E487B7100000000000000000000000000000000000000000000000000000000 PUSH0 MSTORE PUSH1 0x41 PUSH1 0x4 MSTORE PUSH1 0x24 PUSH0 REVERT JUMPDEST PUSH2 0x264 DUP3 PUSH2 0x21E JUMP JUMPDEST DUP2 ADD DUP2 DUP2 LT PUSH8 0xFFFFFFFFFFFFFFFF DUP3 GT OR ISZERO PUSH2 0x283 JUMPI PUSH2 0x282 PUSH2 0x22E JUMP JUMPDEST JUMPDEST DUP1 PUSH1 0x40 MSTORE POP POP POP JUMP JUMPDEST PUSH0 PUSH2 0x295 PUSH2 0x209 JUMP JUMPDEST SWAP1 POP PUSH2 0x2A1 DUP3 DUP3 PUSH2 0x25B JUMP JUMPDEST SWAP2 SWAP1 POP JUMP JUMPDEST PUSH0 PUSH8 0xFFFFFFFFFFFFFFFF DUP3 GT ISZERO PUSH2 0x2C0 JUMPI PUSH2 0x2BF PUSH2 0x22E JUMP JUMPDEST JUMPDEST PUSH1 0x20 DUP3 MUL SWAP1 POP PUSH1 0x20 DUP2 ADD SWAP1 POP SWAP2 SWAP1 POP JUMP JUMPDEST PUSH0 PUSH0 REVERT JUMPDEST PUSH0 PUSH20 0xFFFFFFFFFFFFFFFFFFFFFFFFFFFFFFFFFFFFFFFF DUP3 AND SWAP1 POP SWAP2 SWAP1 POP JUMP JUMPDEST PUSH0 PUSH2 0x2FE DUP3 PUSH2 0x2D5 JUMP JUMPDEST SWAP1 POP SWAP2 SWAP1 POP JUMP JUMPDEST PUSH2 0x30E DUP2 PUSH2 0x2F4 JUMP JUMPDEST DUP2 EQ PUSH2 0x318 JUMPI PUSH0 PUSH0 REVERT JUMPDEST POP JUMP JUMPDEST PUSH0 DUP2 MLOAD SWAP1 POP PUSH2 0x329 DUP2 PUSH2 0x305 JUMP JUMPDEST SWAP3 SWAP2 POP POP JUMP JUMPDEST PUSH0 PUSH2 0x341 PUSH2 0x33C DUP5 PUSH2 0x2A6 JUMP JUMPDEST PUSH2 0x28C JUMP JUMPDEST SWAP1 POP DUP1 DUP4 DUP3 MSTORE PUSH1 0x20 DUP3 ADD SWAP1 POP PUSH1 0x20 DUP5 MUL DUP4 ADD DUP6 DUP2 GT ISZERO PUSH2 0x364 JUMPI PUSH2 0x363 PUSH2 0x2D1 JUMP JUMPDEST JUMPDEST DUP4 JUMPDEST DUP2 DUP2 LT ISZERO PUSH2 0x38D JUMPI DUP1 PUSH2 0x379 DUP9 DUP3 PUSH2 0x31B JUMP JUMPDEST DUP5 MSTORE PUSH1 0x20 DUP5 ADD SWAP4 POP POP PUSH1 0x20 DUP2 ADD SWAP1 POP PUSH2 0x366 JUMP JUMPDEST POP POP POP SWAP4 SWAP3 POP POP POP JUMP JUMPDEST PUSH0 DUP3 PUSH1 0x1F DUP4 ADD SLT PUSH2 0x3AB JUMPI PUSH2 0x3AA PUSH2 0x21A JUMP JUMPDEST JUMPDEST DUP2 MLOAD PUSH2 0x3BB DUP5 DUP3 PUSH1 0x20 DUP7 ADD PUSH2 0x32F JUMP JUMPDEST SWAP2 POP POP SWAP3 SWAP2 POP POP JUMP JUMPDEST PUSH0 PUSH0 PUSH1 0x40 DUP4 DUP6 SUB SLT ISZERO PUSH2 0x3DA JUMPI PUSH2 0x3D9 PUSH2 0x212 JUMP JUMPDEST JUMPDEST PUSH0 DUP4 ADD MLOAD PUSH8 0xFFFFFFFFFFFFFFFF DUP2 GT ISZERO PUSH2 0x3F7 JUMPI PUSH2 0x3F6 PUSH2 0x216 JUMP JUMPDEST JUMPDEST PUSH2 0x403 DUP6 DUP3 DUP7 ADD PUSH2 0x397 JUMP JUMPDEST SWAP3 POP POP PUSH1 0x20 PUSH2 0x414 DUP6 DUP3 DUP7 ADD PUSH2 0x31B JUMP JUMPDEST SWAP2 POP POP SWAP3 POP SWAP3 SWAP1 POP JUMP JUMPDEST PUSH32 0x4E487B7100000000000000000000000000000000000000000000000000000000 PUSH0 MSTORE PUSH1 0x32 PUSH1 0x4 MSTORE PUSH1 0x24 PUSH0 REVERT JUMPDEST PUSH0 DUP3 DUP3 MSTORE PUSH1 0x20 DUP3 ADD SWAP1 POP SWAP3 SWAP2 POP POP JUMP JUMPDEST PUSH32 0x496E76616C696420676F7665726E6F7200000000000000000000000000000000 PUSH0 DUP3 ADD MSTORE POP JUMP JUMPDEST PUSH0 PUSH2 0x48F PUSH1 0x10 DUP4 PUSH2 0x44B JUMP JUMPDEST SWAP2 POP PUSH2 0x49A DUP3 PUSH2 0x45B JUMP JUMPDEST PUSH1 0x20 DUP3 ADD SWAP1 POP SWAP2 SWAP1 POP JUMP JUMPDEST PUSH0 PUSH1 0x20 DUP3 ADD SWAP1 POP DUP2 DUP2 SUB PUSH0 DUP4 ADD MSTORE PUSH2 0x4BC DUP2 PUSH2 0x483 JUMP JUMPDEST SWAP1 POP SWAP2 SWAP1 POP JUMP JUMPDEST PUSH32 0x4475706C696361746520676F7665726E6F720000000000000000000000000000 PUSH0 DUP3 ADD MSTORE POP JUMP JUMPDEST PUSH0 PUSH2 0x4F7 PUSH1 0x12 DUP4 PUSH2 0x44B JUMP JUMPDEST SWAP2 POP PUSH2 0x502 DUP3 PUSH2 0x4C3 JUMP JUMPDEST PUSH1 0x20 DUP3 ADD SWAP1 POP SWAP2 SWAP1 POP JUMP JUMPDEST PUSH0 PUSH1 0x20 DUP3 ADD SWAP1 POP DUP2 DUP2 SUB PUSH0 DUP4 ADD MSTORE PUSH2 0x524 DUP2 PUSH2 0x4EB JUMP JUMPDEST SWAP1 POP SWAP2 SWAP1 POP JUMP JUMPDEST PUSH2 0x1CFD DUP1 PUSH2 0x538 PUSH0 CODECOPY PUSH0 RETURN INVALID PUSH1 0x80 PUSH1 0x40 MSTORE CALLVALUE DUP1 ISZERO PUSH2 0xF JUMPI PUSH0 PUSH0 REVERT JUMPDEST POP PUSH1 0x4 CALLDATASIZE LT PUSH2 0xE8 JUMPI PUSH0 CALLDATALOAD PUSH1 0xE0 SHR DUP1 PUSH4 0x8E2767EF GT PUSH2 0x8A JUMPI DUP1 PUSH4 0xDC999C8D GT PUSH2 0x64 JUMPI DUP1 PUSH4 0xDC999C8D EQ PUSH2 0x277 JUMPI DUP1 PUSH4 0xE0901D7A EQ PUSH2 0x295 JUMPI DUP1 PUSH4 0xE43581B8 EQ PUSH2 0x2B1 JUMPI DUP1 PUSH4 0xE8C9FD45 EQ PUSH2 0x2E1 JUMPI PUSH2 0xE8 JUMP JUMPDEST DUP1 PUSH4 0x8E2767EF EQ PUSH2 0x1F9 JUMPI DUP1 PUSH4 0xAEBE39CA EQ PUSH2 0x229 JUMPI DUP1 PUSH4 0xDA35C664 EQ PUSH2 0x259 JUMPI PUSH2 0xE8 JUMP JUMPDEST DUP1 PUSH4 0xEB3813A GT PUSH2 0xC6 JUMPI DUP1 PUSH4 0xEB3813A EQ PUSH2 0x159 JUMPI DUP1 PUSH4 0xEF60A85 EQ PUSH2 0x177 JUMPI DUP1 PUSH4 0x3B4D01A7 EQ PUSH2 0x195 JUMPI DUP1 PUSH4 0x43859632 EQ PUSH2 0x1C9 JUMPI PUSH2 0xE8 JUMP JUMPDEST DUP1 PUSH4 0x121B93F EQ PUSH2 0xEC JUMPI DUP1 PUSH4 0x13CF08B EQ PUSH2 0x108 JUMPI DUP1 PUSH4 0xD61B519 EQ PUSH2 0x13D JUMPI JUMPDEST PUSH0 PUSH0 REVERT JUMPDEST PUSH2 0x106 PUSH1 0x4 DUP1 CALLDATASIZE SUB DUP2 ADD SWAP1 PUSH2 0x101 SWAP2 SWAP1 PUSH2 0x13E7 JUMP JUMPDEST PUSH2 0x2FF JUMP JUMPDEST STOP JUMPDEST PUSH2 0x122 PUSH1 0x4 DUP1 CALLDATASIZE SUB DUP2 ADD SWAP1 PUSH2 0x11D SWAP2 SWAP1 PUSH2 0x13E7 JUMP JUMPDEST PUSH2 0x541 JUMP JUMPDEST PUSH1 0x40 MLOAD PUSH2 0x134 SWAP7 SWAP6 SWAP5 SWAP4 SWAP3 SWAP2 SWAP1 PUSH2 0x14ED JUMP JUMPDEST PUSH1 0x40 MLOAD DUP1 SWAP2 SUB SWAP1 RETURN JUMPDEST PUSH2 0x157 PUSH1 0x4 DUP1 CALLDATASIZE SUB DUP2 ADD SWAP1 PUSH2 0x152 SWAP2 SWAP1 PUSH2 0x13E7 JUMP JUMPDEST PUSH2 0x5C0 JUMP JUMPDEST STOP JUMPDEST PUSH2 0x161 PUSH2 0xEF2 JUMP JUMPDEST PUSH1 0x40 MLOAD PUSH2 0x16E SWAP2 SWAP1 PUSH2 0x154C JUMP JUMPDEST PUSH1 0x40 MLOAD DUP1 SWAP2 SUB SWAP1 RETURN JUMPDEST PUSH2 0x17F PUSH2 0xF13 JUMP JUMPDEST PUSH1 0x40 MLOAD PUSH2 0x18C SWAP2 SWAP1 PUSH2 0x154C JUMP JUMPDEST PUSH1 0x40 MLOAD DUP1 SWAP2 SUB SWAP1 RETURN JUMPDEST PUSH2 0x1AF PUSH1 0x4 DUP1 CALLDATASIZE SUB DUP2 ADD SWAP1 PUSH2 0x1AA SWAP2 SWAP1 PUSH2 0x13E7 JUMP JUMPDEST PUSH2 0xF19 JUMP JUMPDEST PUSH1 0x40 MLOAD PUSH2 0x1C0 SWAP6 SWAP5 SWAP4 SWAP3 SWAP2 SWAP1 PUSH2 0x1565 JUMP JUMPDEST PUSH1 0x40 MLOAD DUP1 SWAP2 SUB SWAP1 RETURN JUMPDEST PUSH2 0x1E3 PUSH1 0x4 DUP1 CALLDATASIZE SUB DUP2 ADD SWAP1 PUSH2 0x1DE SWAP2 SWAP1 PUSH2 0x15E0 JUMP JUMPDEST PUSH2 0xFA6 JUMP JUMPDEST PUSH1 0x40 MLOAD PUSH2 0x1F0 SWAP2 SWAP1 PUSH2 0x161E JUMP JUMPDEST PUSH1 0x40 MLOAD DUP1 SWAP2 SUB SWAP1 RETURN JUMPDEST PUSH2 0x213 PUSH1 0x4 DUP1 CALLDATASIZE SUB DUP2 ADD SWAP1 PUSH2 0x20E SWAP2 SWAP1 PUSH2 0x13E7 JUMP JUMPDEST PUSH2 0x101A JUMP JUMPDEST PUSH1 0x40 MLOAD PUSH2 0x220 SWAP2 SWAP1 PUSH2 0x154C JUMP JUMPDEST PUSH1 0x40 MLOAD DUP1 SWAP2 SUB SWAP1 RETURN JUMPDEST PUSH2 0x243 PUSH1 0x4 DUP1 CALLDATASIZE SUB DUP2 ADD SWAP1 PUSH2 0x23E SWAP2 SWAP1 PUSH2 0x165A JUMP JUMPDEST PUSH2 0x1063 JUMP JUMPDEST PUSH1 0x40 MLOAD PUSH2 0x250 SWAP2 SWAP1 PUSH2 0x154C JUMP JUMPDEST PUSH1 0x40 MLOAD DUP1 SWAP2 SUB SWAP1 RETURN JUMPDEST PUSH2 0x261 PUSH2 0x1200 JUMP JUMPDEST PUSH1 0x40 MLOAD PUSH2 0x26E SWAP2 SWAP1 PUSH2 0x154C JUMP JUMPDEST PUSH1 0x40 MLOAD DUP1 SWAP2 SUB SWAP1 RETURN JUMPDEST PUSH2 0x27F PUSH2 0x120C JUMP JUMPDEST PUSH1 0x40 MLOAD PUSH2 0x28C SWAP2 SWAP1 PUSH2 0x1698 JUMP JUMPDEST PUSH1 0x40 MLOAD DUP1 SWAP2 SUB SWAP1 RETURN JUMPDEST PUSH2 0x2AF PUSH1 0x4 DUP1 CALLDATASIZE SUB DUP2 ADD SWAP1 PUSH2 0x2AA SWAP2 SWAP1 PUSH2 0x16B1 JUMP JUMPDEST PUSH2 0x1231 JUMP JUMPDEST STOP JUMPDEST PUSH2 0x2CB PUSH1 0x4 DUP1 CALLDATASIZE SUB DUP2 ADD SWAP1 PUSH2 0x2C6 SWAP2 SWAP1 PUSH2 0x16B1 JUMP JUMPDEST PUSH2 0x138B JUMP JUMPDEST PUSH1 0x40 MLOAD PUSH2 0x2D8 SWAP2 SWAP1 PUSH2 0x161E JUMP JUMPDEST PUSH1 0x40 MLOAD DUP1 SWAP2 SUB SWAP1 RETURN JUMPDEST PUSH2 0x2E9 PUSH2 0x13A7 JUMP JUMPDEST PUSH1 0x40 MLOAD PUSH2 0x2F6 SWAP2 SWAP1 PUSH2 0x154C JUMP JUMPDEST PUSH1 0x40 MLOAD DUP1 SWAP2 SUB SWAP1 RETURN JUMPDEST PUSH0 PUSH0 CALLER PUSH20 0xFFFFFFFFFFFFFFFFFFFFFFFFFFFFFFFFFFFFFFFF AND PUSH20 0xFFFFFFFFFFFFFFFFFFFFFFFFFFFFFFFFFFFFFFFF AND DUP2 MSTORE PUSH1 0x20 ADD SWAP1 DUP2 MSTORE PUSH1 0x20 ADD PUSH0 KECCAK256 PUSH0 SWAP1 SLOAD SWAP1 PUSH2 0x100 EXP SWAP1 DIV PUSH1 0xFF AND PUSH2 0x387 JUMPI PUSH1 0x40 MLOAD PUSH32 0x8C379A000000000000000000000000000000000000000000000000000000000 DUP2 MSTORE PUSH1 0x4 ADD PUSH2 0x37E SWAP1 PUSH2 0x1736 JUMP JUMPDEST PUSH1 0x40 MLOAD DUP1 SWAP2 SUB SWAP1 REVERT JUMPDEST PUSH0 PUSH1 0x3 DUP3 DUP2 SLOAD DUP2 LT PUSH2 0x39C JUMPI PUSH2 0x39B PUSH2 0x1754 JUMP JUMPDEST JUMPDEST SWAP1 PUSH0 MSTORE PUSH1 0x20 PUSH0 KECCAK256 SWAP1 PUSH1 0x6 MUL ADD SWAP1 POP DUP1 PUSH1 0x5 ADD PUSH0 CALLER PUSH20 0xFFFFFFFFFFFFFFFFFFFFFFFFFFFFFFFFFFFFFFFF AND PUSH20 0xFFFFFFFFFFFFFFFFFFFFFFFFFFFFFFFFFFFFFFFF AND DUP2 MSTORE PUSH1 0x20 ADD SWAP1 DUP2 MSTORE PUSH1 0x20 ADD PUSH0 KECCAK256 PUSH0 SWAP1 SLOAD SWAP1 PUSH2 0x100 EXP SWAP1 DIV PUSH1 0xFF AND ISZERO PUSH2 0x436 JUMPI PUSH1 0x40 MLOAD PUSH32 0x8C379A000000000000000000000000000000000000000000000000000000000 DUP2 MSTORE PUSH1 0x4 ADD PUSH2 0x42D SWAP1 PUSH2 0x17CB JUMP JUMPDEST PUSH1 0x40 MLOAD DUP1 SWAP2 SUB SWAP1 REVERT JUMPDEST DUP1 PUSH1 0x4 ADD PUSH0 SWAP1 SLOAD SWAP1 PUSH2 0x100 EXP SWAP1 DIV PUSH1 0xFF AND ISZERO PUSH2 0x487 JUMPI PUSH1 0x40 MLOAD PUSH32 0x8C379A000000000000000000000000000000000000000000000000000000000 DUP2 MSTORE PUSH1 0x4 ADD PUSH2 0x47E SWAP1 PUSH2 0x1833 JUMP JUMPDEST PUSH1 0x40 MLOAD DUP1 SWAP2 SUB SWAP1 REVERT JUMPDEST PUSH1 0x1 DUP2 PUSH1 0x5 ADD PUSH0 CALLER PUSH20 0xFFFFFFFFFFFFFFFFFFFFFFFFFFFFFFFFFFFFFFFF AND PUSH20 0xFFFFFFFFFFFFFFFFFFFFFFFFFFFFFFFFFFFFFFFF AND DUP2 MSTORE PUSH1 0x20 ADD SWAP1 DUP2 MSTORE PUSH1 0x20 ADD PUSH0 KECCAK256 PUSH0 PUSH2 0x100 EXP DUP2 SLOAD DUP2 PUSH1 0xFF MUL NOT AND SWAP1 DUP4 ISZERO ISZERO MUL OR SWAP1 SSTORE POP PUSH1 0x1 DUP2 PUSH1 0x2 ADD PUSH0 DUP3 DUP3 SLOAD PUSH2 0x4F2 SWAP2 SWAP1 PUSH2 0x187E JUMP JUMPDEST SWAP3 POP POP DUP2 SWAP1 SSTORE POP CALLER PUSH20 0xFFFFFFFFFFFFFFFFFFFFFFFFFFFFFFFFFFFFFFFF AND DUP3 PUSH32 0xF1003B73C437642C0460AEE9CD9628B0B8C447B66E6C7C905531B9C644214A11 PUSH1 0x40 MLOAD PUSH1 0x40 MLOAD DUP1 SWAP2 SUB SWAP1 LOG3 POP POP JUMP JUMPDEST PUSH1 0x3 DUP2 DUP2 SLOAD DUP2 LT PUSH2 0x550 JUMPI PUSH0 DUP1 REVERT JUMPDEST SWAP1 PUSH0 MSTORE PUSH1 0x20 PUSH0 KECCAK256 SWAP1 PUSH1 0x6 MUL ADD PUSH0 SWAP2 POP SWAP1 POP DUP1 PUSH0 ADD SLOAD SWAP1 DUP1 PUSH1 0x1 ADD PUSH0 SWAP1 SLOAD SWAP1 PUSH2 0x100 EXP SWAP1 DIV PUSH1 0xFF AND SWAP1 DUP1 PUSH1 0x1 ADD PUSH1 0x1 SWAP1 SLOAD SWAP1 PUSH2 0x100 EXP SWAP1 DIV PUSH20 0xFFFFFFFFFFFFFFFFFFFFFFFFFFFFFFFFFFFFFFFF AND SWAP1 DUP1 PUSH1 0x2 ADD SLOAD SWAP1 DUP1 PUSH1 0x3 ADD SLOAD SWAP1 DUP1 PUSH1 0x4 ADD PUSH0 SWAP1 SLOAD SWAP1 PUSH2 0x100 EXP SWAP1 DIV PUSH1 0xFF AND SWAP1 POP DUP7 JUMP JUMPDEST PUSH0 PUSH0 CALLER PUSH20 0xFFFFFFFFFFFFFFFFFFFFFFFFFFFFFFFFFFFFFFFF AND PUSH20 0xFFFFFFFFFFFFFFFFFFFFFFFFFFFFFFFFFFFFFFFF AND DUP2 MSTORE PUSH1 0x20 ADD SWAP1 DUP2 MSTORE PUSH1 0x20 ADD PUSH0 KECCAK256 PUSH0 SWAP1 SLOAD SWAP1 PUSH2 0x100 EXP SWAP1 DIV PUSH1 0xFF AND PUSH2 0x648 JUMPI PUSH1 0x40 MLOAD PUSH32 0x8C379A000000000000000000000000000000000000000000000000000000000 DUP2 MSTORE PUSH1 0x4 ADD PUSH2 0x63F SWAP1 PUSH2 0x1736 JUMP JUMPDEST PUSH1 0x40 MLOAD DUP1 SWAP2 SUB SWAP1 REVERT JUMPDEST PUSH0 PUSH1 0x3 DUP3 DUP2 SLOAD DUP2 LT PUSH2 0x65D JUMPI PUSH2 0x65C PUSH2 0x1754 JUMP JUMPDEST JUMPDEST SWAP1 PUSH0 MSTORE PUSH1 0x20 PUSH0 KECCAK256 SWAP1 PUSH1 0x6 MUL ADD SWAP1 POP PUSH0 PUSH1 0x1 PUSH1 0x2 DUP4 PUSH1 0x3 ADD SLOAD PUSH2 0x67F SWAP2 SWAP1 PUSH2 0x18DE JUMP JUMPDEST PUSH2 0x689 SWAP2 SWAP1 PUSH2 0x187E JUMP JUMPDEST SWAP1 POP DUP1 DUP3 PUSH1 0x2 ADD SLOAD LT ISZERO PUSH2 0x6D2 JUMPI PUSH1 0x40 MLOAD PUSH32 0x8C379A000000000000000000000000000000000000000000000000000000000 DUP2 MSTORE PUSH1 0x4 ADD PUSH2 0x6C9 SWAP1 PUSH2 0x197E JUMP JUMPDEST PUSH1 0x40 MLOAD DUP1 SWAP2 SUB SWAP1 REVERT JUMPDEST DUP2 PUSH1 0x4 ADD PUSH0 SWAP1 SLOAD SWAP1 PUSH2 0x100 EXP SWAP1 DIV PUSH1 0xFF AND ISZERO PUSH2 0x723 JUMPI PUSH1 0x40 MLOAD PUSH32 0x8C379A000000000000000000000000000000000000000000000000000000000 DUP2 MSTORE PUSH1 0x4 ADD PUSH2 0x71A SWAP1 PUSH2 0x1833 JUMP JUMPDEST PUSH1 0x40 MLOAD DUP1 SWAP2 SUB SWAP1 REVERT JUMPDEST PUSH0 PUSH1 0x3 DUP2 GT ISZERO PUSH2 0x736 JUMPI PUSH2 0x735 PUSH2 0x1421 JUMP JUMPDEST JUMPDEST DUP3 PUSH1 0x1 ADD PUSH0 SWAP1 SLOAD SWAP1 PUSH2 0x100 EXP SWAP1 DIV PUSH1 0xFF AND PUSH1 0x3 DUP2 GT ISZERO PUSH2 0x759 JUMPI PUSH2 0x758 PUSH2 0x1421 JUMP JUMPDEST JUMPDEST SUB PUSH2 0x8DE JUMPI PUSH0 PUSH1 0x2 PUSH0 SWAP1 SLOAD SWAP1 PUSH2 0x100 EXP SWAP1 DIV PUSH20 0xFFFFFFFFFFFFFFFFFFFFFFFFFFFFFFFFFFFFFFFF AND PUSH20 0xFFFFFFFFFFFFFFFFFFFFFFFFFFFFFFFFFFFFFFFF AND DUP4 PUSH1 0x1 ADD PUSH1 0x1 SWAP1 SLOAD SWAP1 PUSH2 0x100 EXP SWAP1 DIV PUSH20 0xFFFFFFFFFFFFFFFFFFFFFFFFFFFFFFFFFFFFFFFF AND PUSH1 0x40 MLOAD PUSH1 0x24 ADD PUSH2 0x7CC SWAP2 SWAP1 PUSH2 0x1698 JUMP JUMPDEST PUSH1 0x40 MLOAD PUSH1 0x20 DUP2 DUP4 SUB SUB DUP2 MSTORE SWAP1 PUSH1 0x40 MSTORE PUSH32 0xBD4D8BCB00000000000000000000000000000000000000000000000000000000 PUSH28 0xFFFFFFFFFFFFFFFFFFFFFFFFFFFFFFFFFFFFFFFFFFFFFFFFFFFFFFFF NOT AND PUSH1 0x20 DUP3 ADD DUP1 MLOAD PUSH28 0xFFFFFFFFFFFFFFFFFFFFFFFFFFFFFFFFFFFFFFFFFFFFFFFFFFFFFFFF DUP4 DUP2 DUP4 AND OR DUP4 MSTORE POP POP POP POP PUSH1 0x40 MLOAD PUSH2 0x856 SWAP2 SWAP1 PUSH2 0x19EE JUMP JUMPDEST PUSH0 PUSH1 0x40 MLOAD DUP1 DUP4 SUB DUP2 PUSH0 DUP7 GAS CALL SWAP2 POP POP RETURNDATASIZE DUP1 PUSH0 DUP2 EQ PUSH2 0x88F JUMPI PUSH1 0x40 MLOAD SWAP2 POP PUSH1 0x1F NOT PUSH1 0x3F RETURNDATASIZE ADD AND DUP3 ADD PUSH1 0x40 MSTORE RETURNDATASIZE DUP3 MSTORE RETURNDATASIZE PUSH0 PUSH1 0x20 DUP5 ADD RETURNDATACOPY PUSH2 0x894 JUMP JUMPDEST PUSH1 0x60 SWAP2 POP JUMPDEST POP POP SWAP1 POP DUP1 PUSH2 0x8D8 JUMPI PUSH1 0x40 MLOAD PUSH32 0x8C379A000000000000000000000000000000000000000000000000000000000 DUP2 MSTORE PUSH1 0x4 ADD PUSH2 0x8CF SWAP1 PUSH2 0x1A4E JUMP JUMPDEST PUSH1 0x40 MLOAD DUP1 SWAP2 SUB SWAP1 REVERT JUMPDEST POP PUSH2 0xEA4 JUMP JUMPDEST PUSH1 0x1 PUSH1 0x3 DUP2 GT ISZERO PUSH2 0x8F2 JUMPI PUSH2 0x8F1 PUSH2 0x1421 JUMP JUMPDEST JUMPDEST DUP3 PUSH1 0x1 ADD PUSH0 SWAP1 SLOAD SWAP1 PUSH2 0x100 EXP SWAP1 DIV PUSH1 0xFF AND PUSH1 0x3 DUP2 GT ISZERO PUSH2 0x915 JUMPI PUSH2 0x914 PUSH2 0x1421 JUMP JUMPDEST JUMPDEST SUB PUSH2 0xA9A JUMPI PUSH0 PUSH1 0x2 PUSH0 SWAP1 SLOAD SWAP1 PUSH2 0x100 EXP SWAP1 DIV PUSH20 0xFFFFFFFFFFFFFFFFFFFFFFFFFFFFFFFFFFFFFFFF AND PUSH20 0xFFFFFFFFFFFFFFFFFFFFFFFFFFFFFFFFFFFFFFFF AND DUP4 PUSH1 0x1 ADD PUSH1 0x1 SWAP1 SLOAD SWAP1 PUSH2 0x100 EXP SWAP1 DIV PUSH20 0xFFFFFFFFFFFFFFFFFFFFFFFFFFFFFFFFFFFFFFFF AND PUSH1 0x40 MLOAD PUSH1 0x24 ADD PUSH2 0x988 SWAP2 SWAP1 PUSH2 0x1698 JUMP JUMPDEST PUSH1 0x40 MLOAD PUSH1 0x20 DUP2 DUP4 SUB SUB DUP2 MSTORE SWAP1 PUSH1 0x40 MSTORE PUSH32 0x1C67494E00000000000000000000000000000000000000000000000000000000 PUSH28 0xFFFFFFFFFFFFFFFFFFFFFFFFFFFFFFFFFFFFFFFFFFFFFFFFFFFFFFFF NOT AND PUSH1 0x20 DUP3 ADD DUP1 MLOAD PUSH28 0xFFFFFFFFFFFFFFFFFFFFFFFFFFFFFFFFFFFFFFFFFFFFFFFFFFFFFFFF DUP4 DUP2 DUP4 AND OR DUP4 MSTORE POP POP POP POP PUSH1 0x40 MLOAD PUSH2 0xA12 SWAP2 SWAP1 PUSH2 0x19EE JUMP JUMPDEST PUSH0 PUSH1 0x40 MLOAD DUP1 DUP4 SUB DUP2 PUSH0 DUP7 GAS CALL SWAP2 POP POP RETURNDATASIZE DUP1 PUSH0 DUP2 EQ PUSH2 0xA4B JUMPI PUSH1 0x40 MLOAD SWAP2 POP PUSH1 0x1F NOT PUSH1 0x3F RETURNDATASIZE ADD AND DUP3 ADD PUSH1 0x40 MSTORE RETURNDATASIZE DUP3 MSTORE RETURNDATASIZE PUSH0 PUSH1 0x20 DUP5 ADD RETURNDATACOPY PUSH2 0xA50 JUMP JUMPDEST PUSH1 0x60 SWAP2 POP JUMPDEST POP POP SWAP1 POP DUP1 PUSH2 0xA94 JUMPI PUSH1 0x40 MLOAD PUSH32 0x8C379A000000000000000000000000000000000000000000000000000000000 DUP2 MSTORE PUSH1 0x4 ADD PUSH2 0xA8B SWAP1 PUSH2 0x1AB6 JUMP JUMPDEST PUSH1 0x40 MLOAD DUP1 SWAP2 SUB SWAP1 REVERT JUMPDEST POP PUSH2 0xEA3 JUMP JUMPDEST PUSH1 0x2 PUSH1 0x3 DUP2 GT ISZERO PUSH2 0xAAE JUMPI PUSH2 0xAAD PUSH2 0x1421 JUMP JUMPDEST JUMPDEST DUP3 PUSH1 0x1 ADD PUSH0 SWAP1 SLOAD SWAP1 PUSH2 0x100 EXP SWAP1 DIV PUSH1 0xFF AND PUSH1 0x3 DUP2 GT ISZERO PUSH2 0xAD1 JUMPI PUSH2 0xAD0 PUSH2 0x1421 JUMP JUMPDEST JUMPDEST SUB PUSH2 0xC7E JUMPI PUSH0 PUSH0 DUP4 PUSH1 0x1 ADD PUSH1 0x1 SWAP1 SLOAD SWAP1 PUSH2 0x100 EXP SWAP1 DIV PUSH20 0xFFFFFFFFFFFFFFFFFFFFFFFFFFFFFFFFFFFFFFFF AND PUSH20 0xFFFFFFFFFFFFFFFFFFFFFFFFFFFFFFFFFFFFFFFF AND PUSH20 0xFFFFFFFFFFFFFFFFFFFFFFFFFFFFFFFFFFFFFFFF AND DUP2 MSTORE PUSH1 0x20 ADD SWAP1 DUP2 MSTORE PUSH1 0x20 ADD PUSH0 KECCAK256 PUSH0 SWAP1 SLOAD SWAP1 PUSH2 0x100 EXP SWAP1 DIV PUSH1 0xFF AND ISZERO PUSH2 0xB83 JUMPI PUSH1 0x40 MLOAD PUSH32 0x8C379A000000000000000000000000000000000000000000000000000000000 DUP2 MSTORE PUSH1 0x4 ADD PUSH2 0xB7A SWAP1 PUSH2 0x1B1E JUMP JUMPDEST PUSH1 0x40 MLOAD DUP1 SWAP2 SUB SWAP1 REVERT JUMPDEST PUSH1 0x1 PUSH0 PUSH0 DUP5 PUSH1 0x1 ADD PUSH1 0x1 SWAP1 SLOAD SWAP1 PUSH2 0x100 EXP SWAP1 DIV PUSH20 0xFFFFFFFFFFFFFFFFFFFFFFFFFFFFFFFFFFFFFFFF AND PUSH20 0xFFFFFFFFFFFFFFFFFFFFFFFFFFFFFFFFFFFFFFFF AND PUSH20 0xFFFFFFFFFFFFFFFFFFFFFFFFFFFFFFFFFFFFFFFF AND DUP2 MSTORE PUSH1 0x20 ADD SWAP1 DUP2 MSTORE PUSH1 0x20 ADD PUSH0 KECCAK256 PUSH0 PUSH2 0x100 EXP DUP2 SLOAD DUP2 PUSH1 0xFF MUL NOT AND SWAP1 DUP4 ISZERO ISZERO MUL OR SWAP1 SSTORE POP PUSH1 0x1 PUSH0 DUP2 SLOAD DUP1 SWAP3 SWAP2 SWAP1 PUSH2 0xC0D SWAP1 PUSH2 0x1B3C JUMP JUMPDEST SWAP2 SWAP1 POP SSTORE POP DUP2 PUSH1 0x1 ADD PUSH1 0x1 SWAP1 SLOAD SWAP1 PUSH2 0x100 EXP SWAP1 DIV PUSH20 0xFFFFFFFFFFFFFFFFFFFFFFFFFFFFFFFFFFFFFFFF AND PUSH20 0xFFFFFFFFFFFFFFFFFFFFFFFFFFFFFFFFFFFFFFFF AND PUSH32 0xDC5A48D79E2E147530FF63ECDBED5A5A66ADB9D5CF339384D5D076DA197C40B5 PUSH1 0x40 MLOAD PUSH1 0x40 MLOAD DUP1 SWAP2 SUB SWAP1 LOG2 PUSH2 0xEA2 JUMP JUMPDEST PUSH1 0x3 DUP1 DUP2 GT ISZERO PUSH2 0xC91 JUMPI PUSH2 0xC90 PUSH2 0x1421 JUMP JUMPDEST JUMPDEST DUP3 PUSH1 0x1 ADD PUSH0 SWAP1 SLOAD SWAP1 PUSH2 0x100 EXP SWAP1 DIV PUSH1 0xFF AND PUSH1 0x3 DUP2 GT ISZERO PUSH2 0xCB4 JUMPI PUSH2 0xCB3 PUSH2 0x1421 JUMP JUMPDEST JUMPDEST SUB PUSH2 0xEA1 JUMPI PUSH0 PUSH0 DUP4 PUSH1 0x1 ADD PUSH1 0x1 SWAP1 SLOAD SWAP1 PUSH2 0x100 EXP SWAP1 DIV PUSH20 0xFFFFFFFFFFFFFFFFFFFFFFFFFFFFFFFFFFFFFFFF AND PUSH20 0xFFFFFFFFFFFFFFFFFFFFFFFFFFFFFFFFFFFFFFFF AND PUSH20 0xFFFFFFFFFFFFFFFFFFFFFFFFFFFFFFFFFFFFFFFF AND DUP2 MSTORE PUSH1 0x20 ADD SWAP1 DUP2 MSTORE PUSH1 0x20 ADD PUSH0 KECCAK256 PUSH0 SWAP1 SLOAD SWAP1 PUSH2 0x100 EXP SWAP1 DIV PUSH1 0xFF AND PUSH2 0xD65 JUMPI PUSH1 0x40 MLOAD PUSH32 0x8C379A000000000000000000000000000000000000000000000000000000000 DUP2 MSTORE PUSH1 0x4 ADD PUSH2 0xD5C SWAP1 PUSH2 0x1736 JUMP JUMPDEST PUSH1 0x40 MLOAD DUP1 SWAP2 SUB SWAP1 REVERT JUMPDEST PUSH1 0x2 PUSH1 0x1 SLOAD LT ISZERO PUSH2 0xDAB JUMPI PUSH1 0x40 MLOAD PUSH32 0x8C379A000000000000000000000000000000000000000000000000000000000 DUP2 MSTORE PUSH1 0x4 ADD PUSH2 0xDA2 SWAP1 PUSH2 0x1BF3 JUMP JUMPDEST PUSH1 0x40 MLOAD DUP1 SWAP2 SUB SWAP1 REVERT JUMPDEST PUSH0 PUSH0 PUSH0 DUP5 PUSH1 0x1 ADD PUSH1 0x1 SWAP1 SLOAD SWAP1 PUSH2 0x100 EXP SWAP1 DIV PUSH20 0xFFFFFFFFFFFFFFFFFFFFFFFFFFFFFFFFFFFFFFFF AND PUSH20 0xFFFFFFFFFFFFFFFFFFFFFFFFFFFFFFFFFFFFFFFF AND PUSH20 0xFFFFFFFFFFFFFFFFFFFFFFFFFFFFFFFFFFFFFFFF AND DUP2 MSTORE PUSH1 0x20 ADD SWAP1 DUP2 MSTORE PUSH1 0x20 ADD PUSH0 KECCAK256 PUSH0 PUSH2 0x100 EXP DUP2 SLOAD DUP2 PUSH1 0xFF MUL NOT AND SWAP1 DUP4 ISZERO ISZERO MUL OR SWAP1 SSTORE POP PUSH1 0x1 PUSH0 DUP2 SLOAD DUP1 SWAP3 SWAP2 SWAP1 PUSH2 0xE34 SWAP1 PUSH2 0x1C11 JUMP JUMPDEST SWAP2 SWAP1 POP SSTORE POP DUP2 PUSH1 0x1 ADD PUSH1 0x1 SWAP1 SLOAD SWAP1 PUSH2 0x100 EXP SWAP1 DIV PUSH20 0xFFFFFFFFFFFFFFFFFFFFFFFFFFFFFFFFFFFFFFFF AND PUSH20 0xFFFFFFFFFFFFFFFFFFFFFFFFFFFFFFFFFFFFFFFF AND PUSH32 0x1EBE834E73D60A5FEC822C1E1727D34BC79F2AD977ED504581CC1822FE20FB5B PUSH1 0x40 MLOAD PUSH1 0x40 MLOAD DUP1 SWAP2 SUB SWAP1 LOG2 JUMPDEST JUMPDEST JUMPDEST JUMPDEST PUSH1 0x1 DUP3 PUSH1 0x4 ADD PUSH0 PUSH2 0x100 EXP DUP2 SLOAD DUP2 PUSH1 0xFF MUL NOT AND SWAP1 DUP4 ISZERO ISZERO MUL OR SWAP1 SSTORE POP DUP3 PUSH32 0x712AE1383F79AC853F8D882153778E0260EF8F03B504E2866E0593E04D2B291F PUSH1 0x40 MLOAD PUSH1 0x40 MLOAD DUP1 SWAP2 SUB SWAP1 LOG2 POP POP POP JUMP JUMPDEST PUSH0 PUSH1 0x1 PUSH1 0x2 PUSH1 0x1 SLOAD PUSH2 0xF04 SWAP2 SWAP1 PUSH2 0x18DE JUMP JUMPDEST PUSH2 0xF0E SWAP2 SWAP1 PUSH2 0x187E JUMP JUMPDEST SWAP1 POP SWAP1 JUMP JUMPDEST PUSH1 0x1 SLOAD DUP2 JUMP JUMPDEST PUSH0 PUSH0 PUSH0 PUSH0 PUSH0 PUSH0 PUSH1 0x3 DUP8 DUP2 SLOAD DUP2 LT PUSH2 0xF33 JUMPI PUSH2 0xF32 PUSH2 0x1754 JUMP JUMPDEST JUMPDEST SWAP1 PUSH0 MSTORE PUSH1 0x20 PUSH0 KECCAK256 SWAP1 PUSH1 0x6 MUL ADD SWAP1 POP DUP1 PUSH1 0x1 ADD PUSH0 SWAP1 SLOAD SWAP1 PUSH2 0x100 EXP SWAP1 DIV PUSH1 0xFF AND DUP2 PUSH1 0x1 ADD PUSH1 0x1 SWAP1 SLOAD SWAP1 PUSH2 0x100 EXP SWAP1 DIV PUSH20 0xFFFFFFFFFFFFFFFFFFFFFFFFFFFFFFFFFFFFFFFF AND DUP3 PUSH1 0x2 ADD SLOAD DUP4 PUSH1 0x3 ADD SLOAD DUP5 PUSH1 0x4 ADD PUSH0 SWAP1 SLOAD SWAP1 PUSH2 0x100 EXP SWAP1 DIV PUSH1 0xFF AND SWAP6 POP SWAP6 POP SWAP6 POP SWAP6 POP SWAP6 POP POP SWAP2 SWAP4 SWAP6 SWAP1 SWAP3 SWAP5 POP JUMP JUMPDEST PUSH0 PUSH1 0x3 DUP4 DUP2 SLOAD DUP2 LT PUSH2 0xFBB JUMPI PUSH2 0xFBA PUSH2 0x1754 JUMP JUMPDEST JUMPDEST SWAP1 PUSH0 MSTORE PUSH1 0x20 PUSH0 KECCAK256 SWAP1 PUSH1 0x6 MUL ADD PUSH1 0x5 ADD PUSH0 DUP4 PUSH20 0xFFFFFFFFFFFFFFFFFFFFFFFFFFFFFFFFFFFFFFFF AND PUSH20 0xFFFFFFFFFFFFFFFFFFFFFFFFFFFFFFFFFFFFFFFF AND DUP2 MSTORE PUSH1 0x20 ADD SWAP1 DUP2 MSTORE PUSH1 0x20 ADD PUSH0 KECCAK256 PUSH0 SWAP1 SLOAD SWAP1 PUSH2 0x100 EXP SWAP1 DIV PUSH1 0xFF AND SWAP1 POP SWAP3 SWAP2 POP POP JUMP JUMPDEST PUSH0 PUSH0 PUSH1 0x3 DUP4 DUP2 SLOAD DUP2 LT PUSH2 0x1030 JUMPI PUSH2 0x102F PUSH2 0x1754 JUMP JUMPDEST JUMPDEST SWAP1 PUSH0 MSTORE PUSH1 0x20 PUSH0 KECCAK256 SWAP1 PUSH1 0x6 MUL ADD SWAP1 POP PUSH1 0x1 PUSH1 0x2 DUP3 PUSH1 0x3 ADD SLOAD PUSH2 0x1051 SWAP2 SWAP1 PUSH2 0x18DE JUMP JUMPDEST PUSH2 0x105B SWAP2 SWAP1 PUSH2 0x187E JUMP JUMPDEST SWAP2 POP POP SWAP2 SWAP1 POP JUMP JUMPDEST PUSH0 PUSH0 PUSH0 CALLER PUSH20 0xFFFFFFFFFFFFFFFFFFFFFFFFFFFFFFFFFFFFFFFF AND PUSH20 0xFFFFFFFFFFFFFFFFFFFFFFFFFFFFFFFFFFFFFFFF AND DUP2 MSTORE PUSH1 0x20 ADD SWAP1 DUP2 MSTORE PUSH1 0x20 ADD PUSH0 KECCAK256 PUSH0 SWAP1 SLOAD SWAP1 PUSH2 0x100 EXP SWAP1 DIV PUSH1 0xFF AND PUSH2 0x10EC JUMPI PUSH1 0x40 MLOAD PUSH32 0x8C379A000000000000000000000000000000000000000000000000000000000 DUP2 MSTORE PUSH1 0x4 ADD PUSH2 0x10E3 SWAP1 PUSH2 0x1736 JUMP JUMPDEST PUSH1 0x40 MLOAD DUP1 SWAP2 SUB SWAP1 REVERT JUMPDEST PUSH0 PUSH1 0x3 DUP1 SLOAD SWAP1 POP SWAP1 POP PUSH0 PUSH1 0x3 PUSH1 0x1 DUP2 PUSH1 0x1 DUP2 SLOAD ADD DUP1 DUP3 SSTORE DUP1 SWAP2 POP POP SUB SWAP1 PUSH0 MSTORE PUSH1 0x20 PUSH0 KECCAK256 SWAP1 PUSH1 0x6 MUL ADD SWAP1 POP DUP2 DUP2 PUSH0 ADD DUP2 SWAP1 SSTORE POP DUP5 DUP2 PUSH1 0x1 ADD PUSH0 PUSH2 0x100 EXP DUP2 SLOAD DUP2 PUSH1 0xFF MUL NOT AND SWAP1 DUP4 PUSH1 0x3 DUP2 GT ISZERO PUSH2 0x1144 JUMPI PUSH2 0x1143 PUSH2 0x1421 JUMP JUMPDEST JUMPDEST MUL OR SWAP1 SSTORE POP DUP4 DUP2 PUSH1 0x1 ADD PUSH1 0x1 PUSH2 0x100 EXP DUP2 SLOAD DUP2 PUSH20 0xFFFFFFFFFFFFFFFFFFFFFFFFFFFFFFFFFFFFFFFF MUL NOT AND SWAP1 DUP4 PUSH20 0xFFFFFFFFFFFFFFFFFFFFFFFFFFFFFFFFFFFFFFFF AND MUL OR SWAP1 SSTORE POP PUSH0 DUP2 PUSH1 0x2 ADD DUP2 SWAP1 SSTORE POP PUSH1 0x1 SLOAD DUP2 PUSH1 0x3 ADD DUP2 SWAP1 SSTORE POP PUSH0 DUP2 PUSH1 0x4 ADD PUSH0 PUSH2 0x100 EXP DUP2 SLOAD DUP2 PUSH1 0xFF MUL NOT AND SWAP1 DUP4 ISZERO ISZERO MUL OR SWAP1 SSTORE POP DUP2 PUSH32 0x3263432A41F78A4701CC9465F62411ED717ADE32290C084135A3DD6B29F4BF28 DUP7 DUP7 PUSH1 0x40 MLOAD PUSH2 0x11ED SWAP3 SWAP2 SWAP1 PUSH2 0x1C38 JUMP JUMPDEST PUSH1 0x40 MLOAD DUP1 SWAP2 SUB SWAP1 LOG2 DUP2 SWAP3 POP POP POP SWAP3 SWAP2 POP POP JUMP JUMPDEST PUSH0 PUSH1 0x3 DUP1 SLOAD SWAP1 POP SWAP1 POP SWAP1 JUMP JUMPDEST PUSH1 0x2 PUSH0 SWAP1 SLOAD SWAP1 PUSH2 0x100 EXP SWAP1 DIV PUSH20 0xFFFFFFFFFFFFFFFFFFFFFFFFFFFFFFFFFFFFFFFF AND DUP2 JUMP JUMPDEST PUSH0 PUSH0 CALLER PUSH20 0xFFFFFFFFFFFFFFFFFFFFFFFFFFFFFFFFFFFFFFFF AND PUSH20 0xFFFFFFFFFFFFFFFFFFFFFFFFFFFFFFFFFFFFFFFF AND DUP2 MSTORE PUSH1 0x20 ADD SWAP1 DUP2 MSTORE PUSH1 0x20 ADD PUSH0 KECCAK256 PUSH0 SWAP1 SLOAD SWAP1 PUSH2 0x100 EXP SWAP1 DIV PUSH1 0xFF AND PUSH2 0x12B9 JUMPI PUSH1 0x40 MLOAD PUSH32 0x8C379A000000000000000000000000000000000000000000000000000000000 DUP2 MSTORE PUSH1 0x4 ADD PUSH2 0x12B0 SWAP1 PUSH2 0x1736 JUMP JUMPDEST PUSH1 0x40 MLOAD DUP1 SWAP2 SUB SWAP1 REVERT JUMPDEST PUSH0 PUSH20 0xFFFFFFFFFFFFFFFFFFFFFFFFFFFFFFFFFFFFFFFF AND PUSH1 0x2 PUSH0 SWAP1 SLOAD SWAP1 PUSH2 0x100 EXP SWAP1 DIV PUSH20 0xFFFFFFFFFFFFFFFFFFFFFFFFFFFFFFFFFFFFFFFF AND PUSH20 0xFFFFFFFFFFFFFFFFFFFFFFFFFFFFFFFFFFFFFFFF AND EQ PUSH2 0x1348 JUMPI PUSH1 0x40 MLOAD PUSH32 0x8C379A000000000000000000000000000000000000000000000000000000000 DUP2 MSTORE PUSH1 0x4 ADD PUSH2 0x133F SWAP1 PUSH2 0x1CA9 JUMP JUMPDEST PUSH1 0x40 MLOAD DUP1 SWAP2 SUB SWAP1 REVERT JUMPDEST DUP1 PUSH1 0x2 PUSH0 PUSH2 0x100 EXP DUP2 SLOAD DUP2 PUSH20 0xFFFFFFFFFFFFFFFFFFFFFFFFFFFFFFFFFFFFFFFF MUL NOT AND SWAP1 DUP4 PUSH20 0xFFFFFFFFFFFFFFFFFFFFFFFFFFFFFFFFFFFFFFFF AND MUL OR SWAP1 SSTORE POP POP JUMP JUMPDEST PUSH0 PUSH1 0x20 MSTORE DUP1 PUSH0 MSTORE PUSH1 0x40 PUSH0 KECCAK256 PUSH0 SWAP2 POP SLOAD SWAP1 PUSH2 0x100 EXP SWAP1 DIV PUSH1 0xFF AND DUP2 JUMP JUMPDEST PUSH0 PUSH1 0x1 SLOAD SWAP1 POP SWAP1 JUMP JUMPDEST PUSH0 PUSH0 REVERT JUMPDEST PUSH0 DUP2 SWAP1 POP SWAP2 SWAP1 POP JUMP JUMPDEST PUSH2 0x13C6 DUP2 PUSH2 0x13B4 JUMP JUMPDEST DUP2 EQ PUSH2 0x13D0 JUMPI PUSH0 PUSH0 REVERT JUMPDEST POP JUMP JUMPDEST PUSH0 DUP2 CALLDATALOAD SWAP1 POP PUSH2 0x13E1 DUP2 PUSH2 0x13BD JUMP JUMPDEST SWAP3 SWAP2 POP POP JUMP JUMPDEST PUSH0 PUSH1 0x20 DUP3 DUP5 SUB SLT ISZERO PUSH2 0x13FC JUMPI PUSH2 0x13FB PUSH2 0x13B0 JUMP JUMPDEST JUMPDEST PUSH0 PUSH2 0x1409 DUP5 DUP3 DUP6 ADD PUSH2 0x13D3 JUMP JUMPDEST SWAP2 POP POP SWAP3 SWAP2 POP POP JUMP JUMPDEST PUSH2 0x141B DUP2 PUSH2 0x13B4 JUMP JUMPDEST DUP3 MSTORE POP POP JUMP JUMPDEST PUSH32 0x4E487B7100000000000000000000000000000000000000000000000000000000 PUSH0 MSTORE PUSH1 0x21 PUSH1 0x4 MSTORE PUSH1 0x24 PUSH0 REVERT JUMPDEST PUSH1 0x4 DUP2 LT PUSH2 0x145F JUMPI PUSH2 0x145E PUSH2 0x1421 JUMP JUMPDEST JUMPDEST POP JUMP JUMPDEST PUSH0 DUP2 SWAP1 POP PUSH2 0x146F DUP3 PUSH2 0x144E JUMP JUMPDEST SWAP2 SWAP1 POP JUMP JUMPDEST PUSH0 PUSH2 0x147E DUP3 PUSH2 0x1462 JUMP JUMPDEST SWAP1 POP SWAP2 SWAP1 POP JUMP JUMPDEST PUSH2 0x148E DUP2 PUSH2 0x1474 JUMP JUMPDEST DUP3 MSTORE POP POP JUMP JUMPDEST PUSH0 PUSH20 0xFFFFFFFFFFFFFFFFFFFFFFFFFFFFFFFFFFFFFFFF DUP3 AND SWAP1 POP SWAP2 SWAP1 POP JUMP JUMPDEST PUSH0 PUSH2 0x14BD DUP3 PUSH2 0x1494 JUMP JUMPDEST SWAP1 POP SWAP2 SWAP1 POP JUMP JUMPDEST PUSH2 0x14CD DUP2 PUSH2 0x14B3 JUMP JUMPDEST DUP3 MSTORE POP POP JUMP JUMPDEST PUSH0 DUP2 ISZERO ISZERO SWAP1 POP SWAP2 SWAP1 POP JUMP JUMPDEST PUSH2 0x14E7 DUP2 PUSH2 0x14D3 JUMP JUMPDEST DUP3 MSTORE POP POP JUMP JUMPDEST PUSH0 PUSH1 0xC0 DUP3 ADD SWAP1 POP PUSH2 0x1500 PUSH0 DUP4 ADD DUP10 PUSH2 0x1412 JUMP JUMPDEST PUSH2 0x150D PUSH1 0x20 DUP4 ADD DUP9 PUSH2 0x1485 JUMP JUMPDEST PUSH2 0x151A PUSH1 0x40 DUP4 ADD DUP8 PUSH2 0x14C4 JUMP JUMPDEST PUSH2 0x1527 PUSH1 0x60 DUP4 ADD DUP7 PUSH2 0x1412 JUMP JUMPDEST PUSH2 0x1534 PUSH1 0x80 DUP4 ADD DUP6 PUSH2 0x1412 JUMP JUMPDEST PUSH2 0x1541 PUSH1 0xA0 DUP4 ADD DUP5 PUSH2 0x14DE JUMP JUMPDEST SWAP8 SWAP7 POP POP POP POP POP POP POP JUMP JUMPDEST PUSH0 PUSH1 0x20 DUP3 ADD SWAP1 POP PUSH2 0x155F PUSH0 DUP4 ADD DUP5 PUSH2 0x1412 JUMP JUMPDEST SWAP3 SWAP2 POP POP JUMP JUMPDEST PUSH0 PUSH1 0xA0 DUP3 ADD SWAP1 POP PUSH2 0x1578 PUSH0 DUP4 ADD DUP9 PUSH2 0x1485 JUMP JUMPDEST PUSH2 0x1585 PUSH1 0x20 DUP4 ADD DUP8 PUSH2 0x14C4 JUMP JUMPDEST PUSH2 0x1592 PUSH1 0x40 DUP4 ADD DUP7 PUSH2 0x1412 JUMP JUMPDEST PUSH2 0x159F PUSH1 0x60 DUP4 ADD DUP6 PUSH2 0x1412 JUMP JUMPDEST PUSH2 0x15AC PUSH1 0x80 DUP4 ADD DUP5 PUSH2 0x14DE JUMP JUMPDEST SWAP7 SWAP6 POP POP POP POP POP POP JUMP JUMPDEST PUSH2 0x15BF DUP2 PUSH2 0x14B3 JUMP JUMPDEST DUP2 EQ PUSH2 0x15C9 JUMPI PUSH0 PUSH0 REVERT JUMPDEST POP JUMP JUMPDEST PUSH0 DUP2 CALLDATALOAD SWAP1 POP PUSH2 0x15DA DUP2 PUSH2 0x15B6 JUMP JUMPDEST SWAP3 SWAP2 POP POP JUMP JUMPDEST PUSH0 PUSH0 PUSH1 0x40 DUP4 DUP6 SUB SLT ISZERO PUSH2 0x15F6 JUMPI PUSH2 0x15F5 PUSH2 0x13B0 JUMP JUMPDEST JUMPDEST PUSH0 PUSH2 0x1603 DUP6 DUP3 DUP7 ADD PUSH2 0x13D3 JUMP JUMPDEST SWAP3 POP POP PUSH1 0x20 PUSH2 0x1614 DUP6 DUP3 DUP7 ADD PUSH2 0x15CC JUMP JUMPDEST SWAP2 POP POP SWAP3 POP SWAP3 SWAP1 POP JUMP JUMPDEST PUSH0 PUSH1 0x20 DUP3 ADD SWAP1 POP PUSH2 0x1631 PUSH0 DUP4 ADD DUP5 PUSH2 0x14DE JUMP JUMPDEST SWAP3 SWAP2 POP POP JUMP JUMPDEST PUSH1 0x4 DUP2 LT PUSH2 0x1643 JUMPI PUSH0 PUSH0 REVERT JUMPDEST POP JUMP JUMPDEST PUSH0 DUP2 CALLDATALOAD SWAP1 POP PUSH2 0x1654 DUP2 PUSH2 0x1637 JUMP JUMPDEST SWAP3 SWAP2 POP POP JUMP JUMPDEST PUSH0 PUSH0 PUSH1 0x40 DUP4 DUP6 SUB SLT ISZERO PUSH2 0x1670 JUMPI PUSH2 0x166F PUSH2 0x13B0 JUMP JUMPDEST JUMPDEST PUSH0 PUSH2 0x167D DUP6 DUP3 DUP7 ADD PUSH2 0x1646 JUMP JUMPDEST SWAP3 POP POP PUSH1 0x20 PUSH2 0x168E DUP6 DUP3 DUP7 ADD PUSH2 0x15CC JUMP JUMPDEST SWAP2 POP POP SWAP3 POP SWAP3 SWAP1 POP JUMP JUMPDEST PUSH0 PUSH1 0x20 DUP3 ADD SWAP1 POP PUSH2 0x16AB PUSH0 DUP4 ADD DUP5 PUSH2 0x14C4 JUMP JUMPDEST SWAP3 SWAP2 POP POP JUMP JUMPDEST PUSH0 PUSH1 0x20 DUP3 DUP5 SUB SLT ISZERO PUSH2 0x16C6 JUMPI PUSH2 0x16C5 PUSH2 0x13B0 JUMP JUMPDEST JUMPDEST PUSH0 PUSH2 0x16D3 DUP5 DUP3 DUP6 ADD PUSH2 0x15CC JUMP JUMPDEST SWAP2 POP POP SWAP3 SWAP2 POP POP JUMP JUMPDEST PUSH0 DUP3 DUP3 MSTORE PUSH1 0x20 DUP3 ADD SWAP1 POP SWAP3 SWAP2 POP POP JUMP JUMPDEST PUSH32 0x4E6F74206120676F7665726E6F72000000000000000000000000000000000000 PUSH0 DUP3 ADD MSTORE POP JUMP JUMPDEST PUSH0 PUSH2 0x1720 PUSH1 0xE DUP4 PUSH2 0x16DC JUMP JUMPDEST SWAP2 POP PUSH2 0x172B DUP3 PUSH2 0x16EC JUMP JUMPDEST PUSH1 0x20 DUP3 ADD SWAP1 POP SWAP2 SWAP1 POP JUMP JUMPDEST PUSH0 PUSH1 0x20 DUP3 ADD SWAP1 POP DUP2 DUP2 SUB PUSH0 DUP4 ADD MSTORE PUSH2 0x174D DUP2 PUSH2 0x1714 JUMP JUMPDEST SWAP1 POP SWAP2 SWAP1 POP JUMP JUMPDEST PUSH32 0x4E487B7100000000000000000000000000000000000000000000000000000000 PUSH0 MSTORE PUSH1 0x32 PUSH1 0x4 MSTORE PUSH1 0x24 PUSH0 REVERT JUMPDEST PUSH32 0x476F7665726E6F7220616C726561647920766F74656400000000000000000000 PUSH0 DUP3 ADD MSTORE POP JUMP JUMPDEST PUSH0 PUSH2 0x17B5 PUSH1 0x16 DUP4 PUSH2 0x16DC JUMP JUMPDEST SWAP2 POP PUSH2 0x17C0 DUP3 PUSH2 0x1781 JUMP JUMPDEST PUSH1 0x20 DUP3 ADD SWAP1 POP SWAP2 SWAP1 POP JUMP JUMPDEST PUSH0 PUSH1 0x20 DUP3 ADD SWAP1 POP DUP2 DUP2 SUB PUSH0 DUP4 ADD MSTORE PUSH2 0x17E2 DUP2 PUSH2 0x17A9 JUMP JUMPDEST SWAP1 POP SWAP2 SWAP1 POP JUMP JUMPDEST PUSH32 0x50726F706F73616C20616C726561647920657865637574656400000000000000 PUSH0 DUP3 ADD MSTORE POP JUMP JUMPDEST PUSH0 PUSH2 0x181D PUSH1 0x19 DUP4 PUSH2 0x16DC JUMP JUMPDEST SWAP2 POP PUSH2 0x1828 DUP3 PUSH2 0x17E9 JUMP JUMPDEST PUSH1 0x20 DUP3 ADD SWAP1 POP SWAP2 SWAP1 POP JUMP JUMPDEST PUSH0 PUSH1 0x20 DUP3 ADD SWAP1 POP DUP2 DUP2 SUB PUSH0 DUP4 ADD MSTORE PUSH2 0x184A DUP2 PUSH2 0x1811 JUMP JUMPDEST SWAP1 POP SWAP2 SWAP1 POP JUMP JUMPDEST PUSH32 0x4E487B7100000000000000000000000000000000000000000000000000000000 PUSH0 MSTORE PUSH1 0x11 PUSH1 0x4 MSTORE PUSH1 0x24 PUSH0 REVERT JUMPDEST PUSH0 PUSH2 0x1888 DUP3 PUSH2 0x13B4 JUMP JUMPDEST SWAP2 POP PUSH2 0x1893 DUP4 PUSH2 0x13B4 JUMP JUMPDEST SWAP3 POP DUP3 DUP3 ADD SWAP1 POP DUP1 DUP3 GT ISZERO PUSH2 0x18AB JUMPI PUSH2 0x18AA PUSH2 0x1851 JUMP JUMPDEST JUMPDEST SWAP3 SWAP2 POP POP JUMP JUMPDEST PUSH32 0x4E487B7100000000000000000000000000000000000000000000000000000000 PUSH0 MSTORE PUSH1 0x12 PUSH1 0x4 MSTORE PUSH1 0x24 PUSH0 REVERT JUMPDEST PUSH0 PUSH2 0x18E8 DUP3 PUSH2 0x13B4 JUMP JUMPDEST SWAP2 POP PUSH2 0x18F3 DUP4 PUSH2 0x13B4 JUMP JUMPDEST SWAP3 POP DUP3 PUSH2 0x1903 JUMPI PUSH2 0x1902 PUSH2 0x18B1 JUMP JUMPDEST JUMPDEST DUP3 DUP3 DIV SWAP1 POP SWAP3 SWAP2 POP POP JUMP JUMPDEST PUSH32 0x496E73756666696369656E7420766F74657320746F2065786563757465207072 PUSH0 DUP3 ADD MSTORE PUSH32 0x6F706F73616C0000000000000000000000000000000000000000000000000000 PUSH1 0x20 DUP3 ADD MSTORE POP JUMP JUMPDEST PUSH0 PUSH2 0x1968 PUSH1 0x26 DUP4 PUSH2 0x16DC JUMP JUMPDEST SWAP2 POP PUSH2 0x1973 DUP3 PUSH2 0x190E JUMP JUMPDEST PUSH1 0x40 DUP3 ADD SWAP1 POP SWAP2 SWAP1 POP JUMP JUMPDEST PUSH0 PUSH1 0x20 DUP3 ADD SWAP1 POP DUP2 DUP2 SUB PUSH0 DUP4 ADD MSTORE PUSH2 0x1995 DUP2 PUSH2 0x195C JUMP JUMPDEST SWAP1 POP SWAP2 SWAP1 POP JUMP JUMPDEST PUSH0 DUP2 MLOAD SWAP1 POP SWAP2 SWAP1 POP JUMP JUMPDEST PUSH0 DUP2 SWAP1 POP SWAP3 SWAP2 POP POP JUMP JUMPDEST DUP3 DUP2 DUP4 MCOPY PUSH0 DUP4 DUP4 ADD MSTORE POP POP POP JUMP JUMPDEST PUSH0 PUSH2 0x19C8 DUP3 PUSH2 0x199C JUMP JUMPDEST PUSH2 0x19D2 DUP2 DUP6 PUSH2 0x19A6 JUMP JUMPDEST SWAP4 POP PUSH2 0x19E2 DUP2 DUP6 PUSH1 0x20 DUP7 ADD PUSH2 0x19B0 JUMP JUMPDEST DUP1 DUP5 ADD SWAP2 POP POP SWAP3 SWAP2 POP POP JUMP JUMPDEST PUSH0 PUSH2 0x19F9 DUP3 DUP5 PUSH2 0x19BE JUMP JUMPDEST SWAP2 POP DUP2 SWAP1 POP SWAP3 SWAP2 POP POP JUMP JUMPDEST PUSH32 0x417574686F72697A6174696F6E206661696C6564000000000000000000000000 PUSH0 DUP3 ADD MSTORE POP JUMP JUMPDEST PUSH0 PUSH2 0x1A38 PUSH1 0x14 DUP4 PUSH2 0x16DC JUMP JUMPDEST SWAP2 POP PUSH2 0x1A43 DUP3 PUSH2 0x1A04 JUMP JUMPDEST PUSH1 0x20 DUP3 ADD SWAP1 POP SWAP2 SWAP1 POP JUMP JUMPDEST PUSH0 PUSH1 0x20 DUP3 ADD SWAP1 POP DUP2 DUP2 SUB PUSH0 DUP4 ADD MSTORE PUSH2 0x1A65 DUP2 PUSH2 0x1A2C JUMP JUMPDEST SWAP1 POP SWAP2 SWAP1 POP JUMP JUMPDEST PUSH32 0x5265766F636174696F6E206661696C6564000000000000000000000000000000 PUSH0 DUP3 ADD MSTORE POP JUMP JUMPDEST PUSH0 PUSH2 0x1AA0 PUSH1 0x11 DUP4 PUSH2 0x16DC JUMP JUMPDEST SWAP2 POP PUSH2 0x1AAB DUP3 PUSH2 0x1A6C JUMP JUMPDEST PUSH1 0x20 DUP3 ADD SWAP1 POP SWAP2 SWAP1 POP JUMP JUMPDEST PUSH0 PUSH1 0x20 DUP3 ADD SWAP1 POP DUP2 DUP2 SUB PUSH0 DUP4 ADD MSTORE PUSH2 0x1ACD DUP2 PUSH2 0x1A94 JUMP JUMPDEST SWAP1 POP SWAP2 SWAP1 POP JUMP JUMPDEST PUSH32 0x54617267657420697320616C7265616479206120676F7665726E6F7200000000 PUSH0 DUP3 ADD MSTORE POP JUMP JUMPDEST PUSH0 PUSH2 0x1B08 PUSH1 0x1C DUP4 PUSH2 0x16DC JUMP JUMPDEST SWAP2 POP PUSH2 0x1B13 DUP3 PUSH2 0x1AD4 JUMP JUMPDEST PUSH1 0x20 DUP3 ADD SWAP1 POP SWAP2 SWAP1 POP JUMP JUMPDEST PUSH0 PUSH1 0x20 DUP3 ADD SWAP1 POP DUP2 DUP2 SUB PUSH0 DUP4 ADD MSTORE PUSH2 0x1B35 DUP2 PUSH2 0x1AFC JUMP JUMPDEST SWAP1 POP SWAP2 SWAP1 POP JUMP JUMPDEST PUSH0 PUSH2 0x1B46 DUP3 PUSH2 0x13B4 JUMP JUMPDEST SWAP2 POP PUSH32 0xFFFFFFFFFFFFFFFFFFFFFFFFFFFFFFFFFFFFFFFFFFFFFFFFFFFFFFFFFFFFFFFF DUP3 SUB PUSH2 0x1B78 JUMPI PUSH2 0x1B77 PUSH2 0x1851 JUMP JUMPDEST JUMPDEST PUSH1 0x1 DUP3 ADD SWAP1 POP SWAP2 SWAP1 POP JUMP JUMPDEST PUSH32 0x54776F20676F7665726E6F72732063616E6E6F742072656D6F76652065616368 PUSH0 DUP3 ADD MSTORE PUSH32 0x206F746865720000000000000000000000000000000000000000000000000000 PUSH1 0x20 DUP3 ADD MSTORE POP JUMP JUMPDEST PUSH0 PUSH2 0x1BDD PUSH1 0x26 DUP4 PUSH2 0x16DC JUMP JUMPDEST SWAP2 POP PUSH2 0x1BE8 DUP3 PUSH2 0x1B83 JUMP JUMPDEST PUSH1 0x40 DUP3 ADD SWAP1 POP SWAP2 SWAP1 POP JUMP JUMPDEST PUSH0 PUSH1 0x20 DUP3 ADD SWAP1 POP DUP2 DUP2 SUB PUSH0 DUP4 ADD MSTORE PUSH2 0x1C0A DUP2 PUSH2 0x1BD1 JUMP JUMPDEST SWAP1 POP SWAP2 SWAP1 POP JUMP JUMPDEST PUSH0 PUSH2 0x1C1B DUP3 PUSH2 0x13B4 JUMP JUMPDEST SWAP2 POP PUSH0 DUP3 SUB PUSH2 0x1C2D JUMPI PUSH2 0x1C2C PUSH2 0x1851 JUMP JUMPDEST JUMPDEST PUSH1 0x1 DUP3 SUB SWAP1 POP SWAP2 SWAP1 POP JUMP JUMPDEST PUSH0 PUSH1 0x40 DUP3 ADD SWAP1 POP PUSH2 0x1C4B PUSH0 DUP4 ADD DUP6 PUSH2 0x1485 JUMP JUMPDEST PUSH2 0x1C58 PUSH1 0x20 DUP4 ADD DUP5 PUSH2 0x14C4 JUMP JUMPDEST SWAP4 SWAP3 POP POP POP JUMP JUMPDEST PUSH32 0x4164647265737320616C72656164792073657400000000000000000000000000 PUSH0 DUP3 ADD MSTORE POP JUMP JUMPDEST PUSH0 PUSH2 0x1C93 PUSH1 0x13 DUP4 PUSH2 0x16DC JUMP JUMPDEST SWAP2 POP PUSH2 0x1C9E DUP3 PUSH2 0x1C5F JUMP JUMPDEST PUSH1 0x20 DUP3 ADD SWAP1 POP SWAP2 SWAP1 POP JUMP JUMPDEST PUSH0 PUSH1 0x20 DUP3 ADD SWAP1 POP DUP2 DUP2 SUB PUSH0 DUP4 ADD MSTORE PUSH2 0x1CC0 DUP2 PUSH2 0x1C87 JUMP JUMPDEST SWAP1 POP SWAP2 SWAP1 POP JUMP INVALID LOG2 PUSH5 0x6970667358 0x22 SLT KECCAK256 0xA6 0x21 DIV BLOBHASH 0xAF SWAP6 0xB2 GASLIMIT PUSH14 0xB422B7871E616BA01682D2A47BA4 XOR 0xD2 PUSH18 0xCF64572D23A864736F6C634300081E003300 "
				},
				"gasEstimates": {
					"creation": {
						"codeDepositCost": "1484200",
						"executionCost": "infinite",
						"totalCost": "infinite"
					},
					"external": {
						"calculateThreshold()": "infinite",
						"eduVerify()": "2530",
						"executeProposal(uint256)": "infinite",
						"getProposalDetails(uint256)": "infinite",
						"getThresholdForProposal(uint256)": "infinite",
						"governorCount()": "2520",
						"hasVoted(uint256,address)": "5324",
						"isGovernor(address)": "2898",
						"proposalCount()": "2507",
						"proposals(uint256)": "infinite",
						"propose(uint8,address)": "infinite",
						"setEduVerifyAddress(address)": "29166",
						"totalGovernors()": "2470",
						"vote(uint256)": "infinite"
					}
				},
				"methodIdentifiers": {
					"calculateThreshold()": "0eb3813a",
					"eduVerify()": "dc999c8d",
					"executeProposal(uint256)": "0d61b519",
					"getProposalDetails(uint256)": "3b4d01a7",
					"getThresholdForProposal(uint256)": "8e2767ef",
					"governorCount()": "e8c9fd45",
					"hasVoted(uint256,address)": "43859632",
					"isGovernor(address)": "e43581b8",
					"proposalCount()": "da35c664",
					"proposals(uint256)": "013cf08b",
					"propose(uint8,address)": "aebe39ca",
					"setEduVerifyAddress(address)": "e0901d7a",
					"totalGovernors()": "0ef60a85",
					"vote(uint256)": "0121b93f"
				}
			},
			"storageLayout": {
				"storage": [
					{
						"astId": 380,
						"contract": "new-contracts/EduVerifyAdmin.sol:EduVerifyAdmin",
						"label": "isGovernor",
						"offset": 0,
						"slot": "0",
						"type": "t_mapping(t_address,t_bool)"
					},
					{
						"astId": 382,
						"contract": "new-contracts/EduVerifyAdmin.sol:EduVerifyAdmin",
						"label": "totalGovernors",
						"offset": 0,
						"slot": "1",
						"type": "t_uint256"
					},
					{
						"astId": 384,
						"contract": "new-contracts/EduVerifyAdmin.sol:EduVerifyAdmin",
						"label": "eduVerify",
						"offset": 0,
						"slot": "2",
						"type": "t_address"
					},
					{
						"astId": 388,
						"contract": "new-contracts/EduVerifyAdmin.sol:EduVerifyAdmin",
						"label": "proposals",
						"offset": 0,
						"slot": "3",
						"type": "t_array(t_struct(Proposal)376_storage)dyn_storage"
					}
				],
				"types": {
					"t_address": {
						"encoding": "inplace",
						"label": "address",
						"numberOfBytes": "20"
					},
					"t_array(t_struct(Proposal)376_storage)dyn_storage": {
						"base": "t_struct(Proposal)376_storage",
						"encoding": "dynamic_array",
						"label": "struct EduVerifyAdmin.Proposal[]",
						"numberOfBytes": "32"
					},
					"t_bool": {
						"encoding": "inplace",
						"label": "bool",
						"numberOfBytes": "1"
					},
					"t_enum(Action)358": {
						"encoding": "inplace",
						"label": "enum EduVerifyAdmin.Action",
						"numberOfBytes": "1"
					},
					"t_mapping(t_address,t_bool)": {
						"encoding": "mapping",
						"key": "t_address",
						"label": "mapping(address => bool)",
						"numberOfBytes": "32",
						"value": "t_bool"
					},
					"t_struct(Proposal)376_storage": {
						"encoding": "inplace",
						"label": "struct EduVerifyAdmin.Proposal",
						"members": [
							{
								"astId": 360,
								"contract": "new-contracts/EduVerifyAdmin.sol:EduVerifyAdmin",
								"label": "id",
								"offset": 0,
								"slot": "0",
								"type": "t_uint256"
							},
							{
								"astId": 363,
								"contract": "new-contracts/EduVerifyAdmin.sol:EduVerifyAdmin",
								"label": "action",
								"offset": 0,
								"slot": "1",
								"type": "t_enum(Action)358"
							},
							{
								"astId": 365,
								"contract": "new-contracts/EduVerifyAdmin.sol:EduVerifyAdmin",
								"label": "target",
								"offset": 1,
								"slot": "1",
								"type": "t_address"
							},
							{
								"astId": 367,
								"contract": "new-contracts/EduVerifyAdmin.sol:EduVerifyAdmin",
								"label": "yesVotes",
								"offset": 0,
								"slot": "2",
								"type": "t_uint256"
							},
							{
								"astId": 369,
								"contract": "new-contracts/EduVerifyAdmin.sol:EduVerifyAdmin",
								"label": "snapshotGovernorCount",
								"offset": 0,
								"slot": "3",
								"type": "t_uint256"
							},
							{
								"astId": 371,
								"contract": "new-contracts/EduVerifyAdmin.sol:EduVerifyAdmin",
								"label": "executed",
								"offset": 0,
								"slot": "4",
								"type": "t_bool"
							},
							{
								"astId": 375,
								"contract": "new-contracts/EduVerifyAdmin.sol:EduVerifyAdmin",
								"label": "hasVoted",
								"offset": 0,
								"slot": "5",
								"type": "t_mapping(t_address,t_bool)"
							}
						],
						"numberOfBytes": "192"
					},
					"t_uint256": {
						"encoding": "inplace",
						"label": "uint256",
						"numberOfBytes": "32"
					}
				}
			},
			"userdoc": {
				"kind": "user",
				"methods": {},
				"version": 1
			}
		}
	}
}