{
	"new-contracts/EduVerify.sol": {
		"EduVerify": {
			"abi": [
				{
					"inputs": [
						{
							"internalType": "address",
							"name": "_adminContract",
							"type": "address"
						}
					],
					"stateMutability": "nonpayable",
					"type": "constructor"
				},
				{
					"anonymous": false,
					"inputs": [
						{
							"indexed": true,
							"internalType": "string",
							"name": "credentialId",
							"type": "string"
						},
						{
							"indexed": true,
							"internalType": "address",
							"name": "issuer",
							"type": "address"
						},
						{
							"indexed": true,
							"internalType": "address",
							"name": "student",
							"type": "address"
						}
					],
					"name": "CredentialIssued",
					"type": "event"
				},
				{
					"anonymous": false,
					"inputs": [
						{
							"indexed": true,
							"internalType": "address",
							"name": "institution",
							"type": "address"
						}
					],
					"name": "InstitutionAuthorized",
					"type": "event"
				},
				{
					"anonymous": false,
					"inputs": [
						{
							"indexed": true,
							"internalType": "address",
							"name": "institution",
							"type": "address"
						}
					],
					"name": "InstitutionRevoked",
					"type": "event"
				},
				{
					"inputs": [],
					"name": "adminContract",
					"outputs": [
						{
							"internalType": "address",
							"name": "",
							"type": "address"
						}
					],
					"stateMutability": "view",
					"type": "function"
				},
				{
					"inputs": [
						{
							"internalType": "address",
							"name": "institution",
							"type": "address"
						}
					],
					"name": "authorizeInstitution",
					"outputs": [],
					"stateMutability": "nonpayable",
					"type": "function"
				},
				{
					"inputs": [
						{
							"internalType": "address",
							"name": "",
							"type": "address"
						}
					],
					"name": "authorizedInstitutions",
					"outputs": [
						{
							"internalType": "bool",
							"name": "",
							"type": "bool"
						}
					],
					"stateMutability": "view",
					"type": "function"
				},
				{
					"inputs": [
						{
							"internalType": "string",
							"name": "",
							"type": "string"
						}
					],
					"name": "cidToCredentialId",
					"outputs": [
						{
							"internalType": "string",
							"name": "",
							"type": "string"
						}
					],
					"stateMutability": "view",
					"type": "function"
				},
				{
					"inputs": [
						{
							"internalType": "string",
							"name": "",
							"type": "string"
						}
					],
					"name": "cidToIssuer",
					"outputs": [
						{
							"internalType": "address",
							"name": "",
							"type": "address"
						}
					],
					"stateMutability": "view",
					"type": "function"
				},
				{
					"inputs": [
						{
							"internalType": "address",
							"name": "",
							"type": "address"
						},
						{
							"internalType": "string",
							"name": "",
							"type": "string"
						}
					],
					"name": "credentials",
					"outputs": [
						{
							"internalType": "string",
							"name": "institution",
							"type": "string"
						},
						{
							"internalType": "string",
							"name": "degree",
							"type": "string"
						},
						{
							"internalType": "uint256",
							"name": "issueDate",
							"type": "uint256"
						},
						{
							"internalType": "string",
							"name": "cid",
							"type": "string"
						},
						{
							"internalType": "address",
							"name": "issuer",
							"type": "address"
						},
						{
							"internalType": "address",
							"name": "studentAddress",
							"type": "address"
						}
					],
					"stateMutability": "view",
					"type": "function"
				},
				{
					"inputs": [
						{
							"internalType": "address",
							"name": "issuer",
							"type": "address"
						},
						{
							"internalType": "string",
							"name": "credentialId",
							"type": "string"
						}
					],
					"name": "getCredential",
					"outputs": [
						{
							"components": [
								{
									"internalType": "string",
									"name": "institution",
									"type": "string"
								},
								{
									"internalType": "string",
									"name": "degree",
									"type": "string"
								},
								{
									"internalType": "uint256",
									"name": "issueDate",
									"type": "uint256"
								},
								{
									"internalType": "string",
									"name": "cid",
									"type": "string"
								},
								{
									"internalType": "address",
									"name": "issuer",
									"type": "address"
								},
								{
									"internalType": "address",
									"name": "studentAddress",
									"type": "address"
								}
							],
							"internalType": "struct EduVerify.Credential",
							"name": "",
							"type": "tuple"
						}
					],
					"stateMutability": "view",
					"type": "function"
				},
				{
					"inputs": [
						{
							"internalType": "string",
							"name": "cid",
							"type": "string"
						}
					],
					"name": "getCredentialByCID",
					"outputs": [
						{
							"components": [
								{
									"internalType": "string",
									"name": "institution",
									"type": "string"
								},
								{
									"internalType": "string",
									"name": "degree",
									"type": "string"
								},
								{
									"internalType": "uint256",
									"name": "issueDate",
									"type": "uint256"
								},
								{
									"internalType": "string",
									"name": "cid",
									"type": "string"
								},
								{
									"internalType": "address",
									"name": "issuer",
									"type": "address"
								},
								{
									"internalType": "address",
									"name": "studentAddress",
									"type": "address"
								}
							],
							"internalType": "struct EduVerify.Credential",
							"name": "",
							"type": "tuple"
						}
					],
					"stateMutability": "view",
					"type": "function"
				},
				{
					"inputs": [
						{
							"internalType": "address",
							"name": "institution",
							"type": "address"
						}
					],
					"name": "getInstitutionCredentials",
					"outputs": [
						{
							"internalType": "string[]",
							"name": "",
							"type": "string[]"
						}
					],
					"stateMutability": "view",
					"type": "function"
				},
				{
					"inputs": [
						{
							"internalType": "address",
							"name": "student",
							"type": "address"
						}
					],
					"name": "getStudentCredentialsFull",
					"outputs": [
						{
							"components": [
								{
									"internalType": "string",
									"name": "institution",
									"type": "string"
								},
								{
									"internalType": "string",
									"name": "degree",
									"type": "string"
								},
								{
									"internalType": "uint256",
									"name": "issueDate",
									"type": "uint256"
								},
								{
									"internalType": "string",
									"name": "cid",
									"type": "string"
								},
								{
									"internalType": "address",
									"name": "issuer",
									"type": "address"
								},
								{
									"internalType": "address",
									"name": "studentAddress",
									"type": "address"
								}
							],
							"internalType": "struct EduVerify.Credential[]",
							"name": "",
							"type": "tuple[]"
						}
					],
					"stateMutability": "view",
					"type": "function"
				},
				{
					"inputs": [
						{
							"internalType": "address",
							"name": "",
							"type": "address"
						},
						{
							"internalType": "uint256",
							"name": "",
							"type": "uint256"
						}
					],
					"name": "institutionCredentials",
					"outputs": [
						{
							"internalType": "string",
							"name": "",
							"type": "string"
						}
					],
					"stateMutability": "view",
					"type": "function"
				},
				{
					"inputs": [
						{
							"internalType": "string",
							"name": "credentialId",
							"type": "string"
						},
						{
							"internalType": "address",
							"name": "studentAddress",
							"type": "address"
						},
						{
							"internalType": "string",
							"name": "institution",
							"type": "string"
						},
						{
							"internalType": "string",
							"name": "degree",
							"type": "string"
						},
						{
							"internalType": "string",
							"name": "cid",
							"type": "string"
						}
					],
					"name": "issueCredential",
					"outputs": [],
					"stateMutability": "nonpayable",
					"type": "function"
				},
				{
					"inputs": [
						{
							"internalType": "address",
							"name": "institution",
							"type": "address"
						}
					],
					"name": "revokeInstitution",
					"outputs": [],
					"stateMutability": "nonpayable",
					"type": "function"
				},
				{
					"inputs": [
						{
							"internalType": "address",
							"name": "",
							"type": "address"
						},
						{
							"internalType": "uint256",
							"name": "",
							"type": "uint256"
						}
					],
					"name": "studentCredentials",
					"outputs": [
						{
							"internalType": "address",
							"name": "issuer",
							"type": "address"
						},
						{
							"internalType": "string",
							"name": "credentialId",
							"type": "string"
						}
					],
					"stateMutability": "view",
					"type": "function"
				}
			],
			"devdoc": {
				"kind": "dev",
				"methods": {},
				"version": 1
			},
			"evm": {
				"assembly": "    /* \"new-contracts/EduVerify.sol\":57:4508  contract EduVerify {... */\n  mstore(0x40, 0xa0)\n    /* \"new-contracts/EduVerify.sol\":1331:1414  constructor(address _adminContract) {... */\n  callvalue\n  dup1\n  iszero\n  tag_1\n  jumpi\n  revert(0x00, 0x00)\ntag_1:\n  pop\n  mload(0x40)\n  sub(codesize, bytecodeSize)\n  dup1\n  bytecodeSize\n  dup4\n  codecopy\n  dup2\n  dup2\n  add\n  0x40\n  mstore\n  dup2\n  add\n  swap1\n  tag_2\n  swap2\n  swap1\n  tag_3\n  jump\t// in\ntag_2:\n    /* \"new-contracts/EduVerify.sol\":1393:1407  _adminContract */\n  dup1\n    /* \"new-contracts/EduVerify.sol\":1377:1407  adminContract = _adminContract */\n  0xffffffffffffffffffffffffffffffffffffffff\n  and\n  0x80\n  dup2\n  0xffffffffffffffffffffffffffffffffffffffff\n  and\n  dup2\n  mstore\n  pop\n  pop\n    /* \"new-contracts/EduVerify.sol\":1331:1414  constructor(address _adminContract) {... */\n  pop\n    /* \"new-contracts/EduVerify.sol\":57:4508  contract EduVerify {... */\n  jump(tag_6)\n    /* \"#utility.yul\":88:205   */\ntag_8:\n    /* \"#utility.yul\":197:198   */\n  0x00\n    /* \"#utility.yul\":194:195   */\n  0x00\n    /* \"#utility.yul\":187:199   */\n  revert\n    /* \"#utility.yul\":334:460   */\ntag_10:\n    /* \"#utility.yul\":371:378   */\n  0x00\n    /* \"#utility.yul\":411:453   */\n  0xffffffffffffffffffffffffffffffffffffffff\n    /* \"#utility.yul\":404:409   */\n  dup3\n    /* \"#utility.yul\":400:454   */\n  and\n    /* \"#utility.yul\":389:454   */\n  swap1\n  pop\n    /* \"#utility.yul\":334:460   */\n  swap2\n  swap1\n  pop\n  jump\t// out\n    /* \"#utility.yul\":466:562   */\ntag_11:\n    /* \"#utility.yul\":503:510   */\n  0x00\n    /* \"#utility.yul\":532:556   */\n  tag_20\n    /* \"#utility.yul\":550:555   */\n  dup3\n    /* \"#utility.yul\":532:556   */\n  tag_10\n  jump\t// in\ntag_20:\n    /* \"#utility.yul\":521:556   */\n  swap1\n  pop\n    /* \"#utility.yul\":466:562   */\n  swap2\n  swap1\n  pop\n  jump\t// out\n    /* \"#utility.yul\":568:690   */\ntag_12:\n    /* \"#utility.yul\":641:665   */\n  tag_22\n    /* \"#utility.yul\":659:664   */\n  dup2\n    /* \"#utility.yul\":641:665   */\n  tag_11\n  jump\t// in\ntag_22:\n    /* \"#utility.yul\":634:639   */\n  dup2\n    /* \"#utility.yul\":631:666   */\n  eq\n    /* \"#utility.yul\":621:684   */\n  tag_23\n  jumpi\n    /* \"#utility.yul\":680:681   */\n  0x00\n    /* \"#utility.yul\":677:678   */\n  0x00\n    /* \"#utility.yul\":670:682   */\n  revert\n    /* \"#utility.yul\":621:684   */\ntag_23:\n    /* \"#utility.yul\":568:690   */\n  pop\n  jump\t// out\n    /* \"#utility.yul\":696:839   */\ntag_13:\n    /* \"#utility.yul\":753:758   */\n  0x00\n    /* \"#utility.yul\":784:790   */\n  dup2\n    /* \"#utility.yul\":778:791   */\n  mload\n    /* \"#utility.yul\":769:791   */\n  swap1\n  pop\n    /* \"#utility.yul\":800:833   */\n  tag_25\n    /* \"#utility.yul\":827:832   */\n  dup2\n    /* \"#utility.yul\":800:833   */\n  tag_12\n  jump\t// in\ntag_25:\n    /* \"#utility.yul\":696:839   */\n  swap3\n  swap2\n  pop\n  pop\n  jump\t// out\n    /* \"#utility.yul\":845:1196   */\ntag_3:\n    /* \"#utility.yul\":915:921   */\n  0x00\n    /* \"#utility.yul\":964:966   */\n  0x20\n    /* \"#utility.yul\":952:961   */\n  dup3\n    /* \"#utility.yul\":943:950   */\n  dup5\n    /* \"#utility.yul\":939:962   */\n  sub\n    /* \"#utility.yul\":935:967   */\n  slt\n    /* \"#utility.yul\":932:1051   */\n  iszero\n  tag_27\n  jumpi\n    /* \"#utility.yul\":970:1049   */\n  tag_28\n  tag_8\n  jump\t// in\ntag_28:\n    /* \"#utility.yul\":932:1051   */\ntag_27:\n    /* \"#utility.yul\":1090:1091   */\n  0x00\n    /* \"#utility.yul\":1115:1179   */\n  tag_29\n    /* \"#utility.yul\":1171:1178   */\n  dup5\n    /* \"#utility.yul\":1162:1168   */\n  dup3\n    /* \"#utility.yul\":1151:1160   */\n  dup6\n    /* \"#utility.yul\":1147:1169   */\n  add\n    /* \"#utility.yul\":1115:1179   */\n  tag_13\n  jump\t// in\ntag_29:\n    /* \"#utility.yul\":1105:1179   */\n  swap2\n  pop\n    /* \"#utility.yul\":1061:1189   */\n  pop\n    /* \"#utility.yul\":845:1196   */\n  swap3\n  swap2\n  pop\n  pop\n  jump\t// out\n    /* \"new-contracts/EduVerify.sol\":57:4508  contract EduVerify {... */\ntag_6:\n  mload(0x80)\n  codecopy(0x00, dataOffset(sub_0), dataSize(sub_0))\n  0x00\n  assignImmutable(\"0xf4c2b5de886427473655d4c904c743576dc2d53249b7535d96c06cc97ae7216b\")\n  return(0x00, dataSize(sub_0))\nstop\n\nsub_0: assembly {\n        /* \"new-contracts/EduVerify.sol\":57:4508  contract EduVerify {... */\n      mstore(0x40, 0x80)\n      callvalue\n      dup1\n      iszero\n      tag_1\n      jumpi\n      revert(0x00, 0x00)\n    tag_1:\n      pop\n      jumpi(tag_2, lt(calldatasize, 0x04))\n      shr(0xe0, calldataload(0x00))\n      dup1\n      0x76978529\n      gt\n      tag_17\n      jumpi\n      dup1\n      0xc05c5e94\n      gt\n      tag_18\n      jumpi\n      dup1\n      0xc05c5e94\n      eq\n      tag_13\n      jumpi\n      dup1\n      0xc57efc5d\n      eq\n      tag_14\n      jumpi\n      dup1\n      0xd28adb23\n      eq\n      tag_15\n      jumpi\n      dup1\n      0xdbd30262\n      eq\n      tag_16\n      jumpi\n      jump(tag_2)\n    tag_18:\n      dup1\n      0x76978529\n      eq\n      tag_10\n      jumpi\n      dup1\n      0x9b7c79a2\n      eq\n      tag_11\n      jumpi\n      dup1\n      0xbd4d8bcb\n      eq\n      tag_12\n      jumpi\n      jump(tag_2)\n    tag_17:\n      dup1\n      0x2f4b5ad3\n      gt\n      tag_19\n      jumpi\n      dup1\n      0x2f4b5ad3\n      eq\n      tag_6\n      jumpi\n      dup1\n      0x45117177\n      eq\n      tag_7\n      jumpi\n      dup1\n      0x4e83e59a\n      eq\n      tag_8\n      jumpi\n      dup1\n      0x55bedcbb\n      eq\n      tag_9\n      jumpi\n      jump(tag_2)\n    tag_19:\n      dup1\n      0x0dd308cd\n      eq\n      tag_3\n      jumpi\n      dup1\n      0x16b784fe\n      eq\n      tag_4\n      jumpi\n      dup1\n      0x1c67494e\n      eq\n      tag_5\n      jumpi\n    tag_2:\n      revert(0x00, 0x00)\n        /* \"new-contracts/EduVerify.sol\":970:1037  mapping(address => CredentialReference[]) public studentCredentials */\n    tag_3:\n      tag_20\n      0x04\n      dup1\n      calldatasize\n      sub\n      dup2\n      add\n      swap1\n      tag_21\n      swap2\n      swap1\n      tag_22\n      jump\t// in\n    tag_21:\n      tag_23\n      jump\t// in\n    tag_20:\n      mload(0x40)\n      tag_24\n      swap3\n      swap2\n      swap1\n      tag_25\n      jump\t// in\n    tag_24:\n      mload(0x40)\n      dup1\n      swap2\n      sub\n      swap1\n      return\n        /* \"new-contracts/EduVerify.sol\":410:464  mapping(address => bool) public authorizedInstitutions */\n    tag_4:\n      tag_26\n      0x04\n      dup1\n      calldatasize\n      sub\n      dup2\n      add\n      swap1\n      tag_27\n      swap2\n      swap1\n      tag_28\n      jump\t// in\n    tag_27:\n      tag_29\n      jump\t// in\n    tag_26:\n      mload(0x40)\n      tag_30\n      swap2\n      swap1\n      tag_31\n      jump\t// in\n    tag_30:\n      mload(0x40)\n      dup1\n      swap2\n      sub\n      swap1\n      return\n        /* \"new-contracts/EduVerify.sol\":1876:2049  function revokeInstitution(address institution) external onlyAdmin {... */\n    tag_5:\n      tag_32\n      0x04\n      dup1\n      calldatasize\n      sub\n      dup2\n      add\n      swap1\n      tag_33\n      swap2\n      swap1\n      tag_28\n      jump\t// in\n    tag_33:\n      tag_34\n      jump\t// in\n    tag_32:\n      stop\n        /* \"new-contracts/EduVerify.sol\":3383:3550  function getCredential(address issuer, string memory credentialId) external view returns (Credential memory)  {... */\n    tag_6:\n      tag_35\n      0x04\n      dup1\n      calldatasize\n      sub\n      dup2\n      add\n      swap1\n      tag_36\n      swap2\n      swap1\n      tag_37\n      jump\t// in\n    tag_36:\n      tag_38\n      jump\t// in\n    tag_35:\n      mload(0x40)\n      tag_39\n      swap2\n      swap1\n      tag_40\n      jump\t// in\n    tag_39:\n      mload(0x40)\n      dup1\n      swap2\n      sub\n      swap1\n      return\n        /* \"new-contracts/EduVerify.sol\":3877:4342  function getStudentCredentialsFull(address student) external view  returns (Credential[] memory) {... */\n    tag_7:\n      tag_41\n      0x04\n      dup1\n      calldatasize\n      sub\n      dup2\n      add\n      swap1\n      tag_42\n      swap2\n      swap1\n      tag_28\n      jump\t// in\n    tag_42:\n      tag_43\n      jump\t// in\n    tag_41:\n      mload(0x40)\n      tag_44\n      swap2\n      swap1\n      tag_45\n      jump\t// in\n    tag_44:\n      mload(0x40)\n      dup1\n      swap2\n      sub\n      swap1\n      return\n        /* \"new-contracts/EduVerify.sol\":4348:4506  function getInstitutionCredentials(address institution) external view returns (string[] memory)    {... */\n    tag_8:\n      tag_46\n      0x04\n      dup1\n      calldatasize\n      sub\n      dup2\n      add\n      swap1\n      tag_47\n      swap2\n      swap1\n      tag_28\n      jump\t// in\n    tag_47:\n      tag_48\n      jump\t// in\n    tag_46:\n      mload(0x40)\n      tag_49\n      swap2\n      swap1\n      tag_50\n      jump\t// in\n    tag_49:\n      mload(0x40)\n      dup1\n      swap2\n      sub\n      swap1\n      return\n        /* \"new-contracts/EduVerify.sol\":676:734  mapping(address => string[]) public institutionCredentials */\n    tag_9:\n      tag_51\n      0x04\n      dup1\n      calldatasize\n      sub\n      dup2\n      add\n      swap1\n      tag_52\n      swap2\n      swap1\n      tag_22\n      jump\t// in\n    tag_52:\n      tag_53\n      jump\t// in\n    tag_51:\n      mload(0x40)\n      tag_54\n      swap2\n      swap1\n      tag_55\n      jump\t// in\n    tag_54:\n      mload(0x40)\n      dup1\n      swap2\n      sub\n      swap1\n      return\n        /* \"new-contracts/EduVerify.sol\":2055:3377  function issueCredential(... */\n    tag_10:\n      tag_56\n      0x04\n      dup1\n      calldatasize\n      sub\n      dup2\n      add\n      swap1\n      tag_57\n      swap2\n      swap1\n      tag_58\n      jump\t// in\n    tag_57:\n      tag_59\n      jump\t// in\n    tag_56:\n      stop\n        /* \"new-contracts/EduVerify.sol\":778:823  mapping(string => address) public cidToIssuer */\n    tag_11:\n      tag_60\n      0x04\n      dup1\n      calldatasize\n      sub\n      dup2\n      add\n      swap1\n      tag_61\n      swap2\n      swap1\n      tag_62\n      jump\t// in\n    tag_61:\n      tag_63\n      jump\t// in\n    tag_60:\n      mload(0x40)\n      tag_64\n      swap2\n      swap1\n      tag_65\n      jump\t// in\n    tag_64:\n      mload(0x40)\n      dup1\n      swap2\n      sub\n      swap1\n      return\n        /* \"new-contracts/EduVerify.sol\":1612:1790  function authorizeInstitution(address institution) external onlyAdmin {... */\n    tag_12:\n      tag_66\n      0x04\n      dup1\n      calldatasize\n      sub\n      dup2\n      add\n      swap1\n      tag_67\n      swap2\n      swap1\n      tag_28\n      jump\t// in\n    tag_67:\n      tag_68\n      jump\t// in\n    tag_66:\n      stop\n        /* \"new-contracts/EduVerify.sol\":365:403  address public immutable adminContract */\n    tag_13:\n      tag_69\n      tag_70\n      jump\t// in\n    tag_69:\n      mload(0x40)\n      tag_71\n      swap2\n      swap1\n      tag_65\n      jump\t// in\n    tag_71:\n      mload(0x40)\n      dup1\n      swap2\n      sub\n      swap1\n      return\n        /* \"new-contracts/EduVerify.sol\":3556:3872  function getCredentialByCID(string memory cid) external view returns (Credential memory)    {... */\n    tag_14:\n      tag_72\n      0x04\n      dup1\n      calldatasize\n      sub\n      dup2\n      add\n      swap1\n      tag_73\n      swap2\n      swap1\n      tag_62\n      jump\t// in\n    tag_73:\n      tag_74\n      jump\t// in\n    tag_72:\n      mload(0x40)\n      tag_75\n      swap2\n      swap1\n      tag_40\n      jump\t// in\n    tag_75:\n      mload(0x40)\n      dup1\n      swap2\n      sub\n      swap1\n      return\n        /* \"new-contracts/EduVerify.sol\":856:906  mapping(string => string) public cidToCredentialId */\n    tag_15:\n      tag_76\n      0x04\n      dup1\n      calldatasize\n      sub\n      dup2\n      add\n      swap1\n      tag_77\n      swap2\n      swap1\n      tag_62\n      jump\t// in\n    tag_77:\n      tag_78\n      jump\t// in\n    tag_76:\n      mload(0x40)\n      tag_79\n      swap2\n      swap1\n      tag_55\n      jump\t// in\n    tag_79:\n      mload(0x40)\n      dup1\n      swap2\n      sub\n      swap1\n      return\n        /* \"new-contracts/EduVerify.sol\":529:597  mapping(address => mapping(string => Credential)) public credentials */\n    tag_16:\n      tag_80\n      0x04\n      dup1\n      calldatasize\n      sub\n      dup2\n      add\n      swap1\n      tag_81\n      swap2\n      swap1\n      tag_37\n      jump\t// in\n    tag_81:\n      tag_82\n      jump\t// in\n    tag_80:\n      mload(0x40)\n      tag_83\n      swap7\n      swap6\n      swap5\n      swap4\n      swap3\n      swap2\n      swap1\n      tag_84\n      jump\t// in\n    tag_83:\n      mload(0x40)\n      dup1\n      swap2\n      sub\n      swap1\n      return\n        /* \"new-contracts/EduVerify.sol\":970:1037  mapping(address => CredentialReference[]) public studentCredentials */\n    tag_23:\n      mstore(0x20, 0x05)\n      dup2\n      0x00\n      mstore\n      keccak256(0x00, 0x40)\n      dup2\n      dup2\n      sload\n      dup2\n      lt\n      tag_85\n      jumpi\n      0x00\n      dup1\n      revert\n    tag_85:\n      swap1\n      0x00\n      mstore\n      keccak256(0x00, 0x20)\n      swap1\n      0x02\n      mul\n      add\n      0x00\n      swap2\n      pop\n      swap2\n      pop\n      pop\n      dup1\n      0x00\n      add\n      0x00\n      swap1\n      sload\n      swap1\n      0x0100\n      exp\n      swap1\n      div\n      0xffffffffffffffffffffffffffffffffffffffff\n      and\n      swap1\n      dup1\n      0x01\n      add\n      dup1\n      sload\n      tag_87\n      swap1\n      tag_88\n      jump\t// in\n    tag_87:\n      dup1\n      0x1f\n      add\n      0x20\n      dup1\n      swap2\n      div\n      mul\n      0x20\n      add\n      mload(0x40)\n      swap1\n      dup2\n      add\n      0x40\n      mstore\n      dup1\n      swap3\n      swap2\n      swap1\n      dup2\n      dup2\n      mstore\n      0x20\n      add\n      dup3\n      dup1\n      sload\n      tag_89\n      swap1\n      tag_88\n      jump\t// in\n    tag_89:\n      dup1\n      iszero\n      tag_90\n      jumpi\n      dup1\n      0x1f\n      lt\n      tag_91\n      jumpi\n      0x0100\n      dup1\n      dup4\n      sload\n      div\n      mul\n      dup4\n      mstore\n      swap2\n      0x20\n      add\n      swap2\n      jump(tag_90)\n    tag_91:\n      dup3\n      add\n      swap2\n      swap1\n      0x00\n      mstore\n      keccak256(0x00, 0x20)\n      swap1\n    tag_92:\n      dup2\n      sload\n      dup2\n      mstore\n      swap1\n      0x01\n      add\n      swap1\n      0x20\n      add\n      dup1\n      dup4\n      gt\n      tag_92\n      jumpi\n      dup3\n      swap1\n      sub\n      0x1f\n      and\n      dup3\n      add\n      swap2\n    tag_90:\n      pop\n      pop\n      pop\n      pop\n      pop\n      swap1\n      pop\n      dup3\n      jump\t// out\n        /* \"new-contracts/EduVerify.sol\":410:464  mapping(address => bool) public authorizedInstitutions */\n    tag_29:\n      mstore(0x20, 0x00)\n      dup1\n      0x00\n      mstore\n      keccak256(0x00, 0x40)\n      0x00\n      swap2\n      pop\n      sload\n      swap1\n      0x0100\n      exp\n      swap1\n      div\n      0xff\n      and\n      dup2\n      jump\t// out\n        /* \"new-contracts/EduVerify.sol\":1876:2049  function revokeInstitution(address institution) external onlyAdmin {... */\n    tag_34:\n        /* \"new-contracts/EduVerify.sol\":1473:1486  adminContract */\n      immutable(\"0xf4c2b5de886427473655d4c904c743576dc2d53249b7535d96c06cc97ae7216b\")\n        /* \"new-contracts/EduVerify.sol\":1459:1486  msg.sender == adminContract */\n      0xffffffffffffffffffffffffffffffffffffffff\n      and\n        /* \"new-contracts/EduVerify.sol\":1459:1469  msg.sender */\n      caller\n        /* \"new-contracts/EduVerify.sol\":1459:1486  msg.sender == adminContract */\n      0xffffffffffffffffffffffffffffffffffffffff\n      and\n      eq\n        /* \"new-contracts/EduVerify.sol\":1451:1505  require(msg.sender == adminContract, \"Not authorized\") */\n      tag_94\n      jumpi\n      mload(0x40)\n      0x08c379a000000000000000000000000000000000000000000000000000000000\n      dup2\n      mstore\n      0x04\n      add\n      tag_95\n      swap1\n      tag_96\n      jump\t// in\n    tag_95:\n      mload(0x40)\n      dup1\n      swap2\n      sub\n      swap1\n      revert\n    tag_94:\n        /* \"new-contracts/EduVerify.sol\":1991:1996  false */\n      0x00\n        /* \"new-contracts/EduVerify.sol\":1953:1975  authorizedInstitutions */\n      0x00\n        /* \"new-contracts/EduVerify.sol\":1953:1988  authorizedInstitutions[institution] */\n      0x00\n        /* \"new-contracts/EduVerify.sol\":1976:1987  institution */\n      dup4\n        /* \"new-contracts/EduVerify.sol\":1953:1988  authorizedInstitutions[institution] */\n      0xffffffffffffffffffffffffffffffffffffffff\n      and\n      0xffffffffffffffffffffffffffffffffffffffff\n      and\n      dup2\n      mstore\n      0x20\n      add\n      swap1\n      dup2\n      mstore\n      0x20\n      add\n      0x00\n      keccak256\n      0x00\n        /* \"new-contracts/EduVerify.sol\":1953:1996  authorizedInstitutions[institution] = false */\n      0x0100\n      exp\n      dup2\n      sload\n      dup2\n      0xff\n      mul\n      not\n      and\n      swap1\n      dup4\n      iszero\n      iszero\n      mul\n      or\n      swap1\n      sstore\n      pop\n        /* \"new-contracts/EduVerify.sol\":2030:2041  institution */\n      dup1\n        /* \"new-contracts/EduVerify.sol\":2011:2042  InstitutionRevoked(institution) */\n      0xffffffffffffffffffffffffffffffffffffffff\n      and\n      0x5f2c961a0db2d72fa01bfae36aaca642457678d9c63adaca86c8cb1b3d1230f4\n      mload(0x40)\n      mload(0x40)\n      dup1\n      swap2\n      sub\n      swap1\n      log2\n        /* \"new-contracts/EduVerify.sol\":1876:2049  function revokeInstitution(address institution) external onlyAdmin {... */\n      pop\n      jump\t// out\n        /* \"new-contracts/EduVerify.sol\":3383:3550  function getCredential(address issuer, string memory credentialId) external view returns (Credential memory)  {... */\n    tag_38:\n        /* \"new-contracts/EduVerify.sol\":3473:3490  Credential memory */\n      tag_98\n      tag_99\n      jump\t// in\n    tag_98:\n        /* \"new-contracts/EduVerify.sol\":3510:3521  credentials */\n      0x01\n        /* \"new-contracts/EduVerify.sol\":3510:3529  credentials[issuer] */\n      0x00\n        /* \"new-contracts/EduVerify.sol\":3522:3528  issuer */\n      dup5\n        /* \"new-contracts/EduVerify.sol\":3510:3529  credentials[issuer] */\n      0xffffffffffffffffffffffffffffffffffffffff\n      and\n      0xffffffffffffffffffffffffffffffffffffffff\n      and\n      dup2\n      mstore\n      0x20\n      add\n      swap1\n      dup2\n      mstore\n      0x20\n      add\n      0x00\n      keccak256\n        /* \"new-contracts/EduVerify.sol\":3530:3542  credentialId */\n      dup3\n        /* \"new-contracts/EduVerify.sol\":3510:3543  credentials[issuer][credentialId] */\n      mload(0x40)\n      tag_101\n      swap2\n      swap1\n      tag_102\n      jump\t// in\n    tag_101:\n      swap1\n      dup2\n      mstore\n      0x20\n      add\n      mload(0x40)\n      dup1\n      swap2\n      sub\n      swap1\n      keccak256\n        /* \"new-contracts/EduVerify.sol\":3503:3543  return credentials[issuer][credentialId] */\n      mload(0x40)\n      dup1\n      0xc0\n      add\n      0x40\n      mstore\n      swap1\n      dup2\n      0x00\n      dup3\n      add\n      dup1\n      sload\n      tag_103\n      swap1\n      tag_88\n      jump\t// in\n    tag_103:\n      dup1\n      0x1f\n      add\n      0x20\n      dup1\n      swap2\n      div\n      mul\n      0x20\n      add\n      mload(0x40)\n      swap1\n      dup2\n      add\n      0x40\n      mstore\n      dup1\n      swap3\n      swap2\n      swap1\n      dup2\n      dup2\n      mstore\n      0x20\n      add\n      dup3\n      dup1\n      sload\n      tag_104\n      swap1\n      tag_88\n      jump\t// in\n    tag_104:\n      dup1\n      iszero\n      tag_105\n      jumpi\n      dup1\n      0x1f\n      lt\n      tag_106\n      jumpi\n      0x0100\n      dup1\n      dup4\n      sload\n      div\n      mul\n      dup4\n      mstore\n      swap2\n      0x20\n      add\n      swap2\n      jump(tag_105)\n    tag_106:\n      dup3\n      add\n      swap2\n      swap1\n      0x00\n      mstore\n      keccak256(0x00, 0x20)\n      swap1\n    tag_107:\n      dup2\n      sload\n      dup2\n      mstore\n      swap1\n      0x01\n      add\n      swap1\n      0x20\n      add\n      dup1\n      dup4\n      gt\n      tag_107\n      jumpi\n      dup3\n      swap1\n      sub\n      0x1f\n      and\n      dup3\n      add\n      swap2\n    tag_105:\n      pop\n      pop\n      pop\n      pop\n      pop\n      dup2\n      mstore\n      0x20\n      add\n      0x01\n      dup3\n      add\n      dup1\n      sload\n      tag_108\n      swap1\n      tag_88\n      jump\t// in\n    tag_108:\n      dup1\n      0x1f\n      add\n      0x20\n      dup1\n      swap2\n      div\n      mul\n      0x20\n      add\n      mload(0x40)\n      swap1\n      dup2\n      add\n      0x40\n      mstore\n      dup1\n      swap3\n      swap2\n      swap1\n      dup2\n      dup2\n      mstore\n      0x20\n      add\n      dup3\n      dup1\n      sload\n      tag_109\n      swap1\n      tag_88\n      jump\t// in\n    tag_109:\n      dup1\n      iszero\n      tag_110\n      jumpi\n      dup1\n      0x1f\n      lt\n      tag_111\n      jumpi\n      0x0100\n      dup1\n      dup4\n      sload\n      div\n      mul\n      dup4\n      mstore\n      swap2\n      0x20\n      add\n      swap2\n      jump(tag_110)\n    tag_111:\n      dup3\n      add\n      swap2\n      swap1\n      0x00\n      mstore\n      keccak256(0x00, 0x20)\n      swap1\n    tag_112:\n      dup2\n      sload\n      dup2\n      mstore\n      swap1\n      0x01\n      add\n      swap1\n      0x20\n      add\n      dup1\n      dup4\n      gt\n      tag_112\n      jumpi\n      dup3\n      swap1\n      sub\n      0x1f\n      and\n      dup3\n      add\n      swap2\n    tag_110:\n      pop\n      pop\n      pop\n      pop\n      pop\n      dup2\n      mstore\n      0x20\n      add\n      0x02\n      dup3\n      add\n      sload\n      dup2\n      mstore\n      0x20\n      add\n      0x03\n      dup3\n      add\n      dup1\n      sload\n      tag_113\n      swap1\n      tag_88\n      jump\t// in\n    tag_113:\n      dup1\n      0x1f\n      add\n      0x20\n      dup1\n      swap2\n      div\n      mul\n      0x20\n      add\n      mload(0x40)\n      swap1\n      dup2\n      add\n      0x40\n      mstore\n      dup1\n      swap3\n      swap2\n      swap1\n      dup2\n      dup2\n      mstore\n      0x20\n      add\n      dup3\n      dup1\n      sload\n      tag_114\n      swap1\n      tag_88\n      jump\t// in\n    tag_114:\n      dup1\n      iszero\n      tag_115\n      jumpi\n      dup1\n      0x1f\n      lt\n      tag_116\n      jumpi\n      0x0100\n      dup1\n      dup4\n      sload\n      div\n      mul\n      dup4\n      mstore\n      swap2\n      0x20\n      add\n      swap2\n      jump(tag_115)\n    tag_116:\n      dup3\n      add\n      swap2\n      swap1\n      0x00\n      mstore\n      keccak256(0x00, 0x20)\n      swap1\n    tag_117:\n      dup2\n      sload\n      dup2\n      mstore\n      swap1\n      0x01\n      add\n      swap1\n      0x20\n      add\n      dup1\n      dup4\n      gt\n      tag_117\n      jumpi\n      dup3\n      swap1\n      sub\n      0x1f\n      and\n      dup3\n      add\n      swap2\n    tag_115:\n      pop\n      pop\n      pop\n      pop\n      pop\n      dup2\n      mstore\n      0x20\n      add\n      0x04\n      dup3\n      add\n      0x00\n      swap1\n      sload\n      swap1\n      0x0100\n      exp\n      swap1\n      div\n      0xffffffffffffffffffffffffffffffffffffffff\n      and\n      0xffffffffffffffffffffffffffffffffffffffff\n      and\n      0xffffffffffffffffffffffffffffffffffffffff\n      and\n      dup2\n      mstore\n      0x20\n      add\n      0x05\n      dup3\n      add\n      0x00\n      swap1\n      sload\n      swap1\n      0x0100\n      exp\n      swap1\n      div\n      0xffffffffffffffffffffffffffffffffffffffff\n      and\n      0xffffffffffffffffffffffffffffffffffffffff\n      and\n      0xffffffffffffffffffffffffffffffffffffffff\n      and\n      dup2\n      mstore\n      pop\n      pop\n      swap1\n      pop\n        /* \"new-contracts/EduVerify.sol\":3383:3550  function getCredential(address issuer, string memory credentialId) external view returns (Credential memory)  {... */\n      swap3\n      swap2\n      pop\n      pop\n      jump\t// out\n        /* \"new-contracts/EduVerify.sol\":3877:4342  function getStudentCredentialsFull(address student) external view  returns (Credential[] memory) {... */\n    tag_43:\n        /* \"new-contracts/EduVerify.sol\":3953:3972  Credential[] memory */\n      0x60\n        /* \"new-contracts/EduVerify.sol\":3984:4017  CredentialReference[] memory refs */\n      0x00\n        /* \"new-contracts/EduVerify.sol\":4020:4038  studentCredentials */\n      0x05\n        /* \"new-contracts/EduVerify.sol\":4020:4047  studentCredentials[student] */\n      0x00\n        /* \"new-contracts/EduVerify.sol\":4039:4046  student */\n      dup5\n        /* \"new-contracts/EduVerify.sol\":4020:4047  studentCredentials[student] */\n      0xffffffffffffffffffffffffffffffffffffffff\n      and\n      0xffffffffffffffffffffffffffffffffffffffff\n      and\n      dup2\n      mstore\n      0x20\n      add\n      swap1\n      dup2\n      mstore\n      0x20\n      add\n      0x00\n      keccak256\n        /* \"new-contracts/EduVerify.sol\":3984:4047  CredentialReference[] memory refs = studentCredentials[student] */\n      dup1\n      sload\n      dup1\n      0x20\n      mul\n      0x20\n      add\n      mload(0x40)\n      swap1\n      dup2\n      add\n      0x40\n      mstore\n      dup1\n      swap3\n      swap2\n      swap1\n      dup2\n      dup2\n      mstore\n      0x20\n      add\n      0x00\n      swap1\n    tag_119:\n      dup3\n      dup3\n      lt\n      iszero\n      tag_120\n      jumpi\n      dup4\n      dup3\n      swap1\n      0x00\n      mstore\n      keccak256(0x00, 0x20)\n      swap1\n      0x02\n      mul\n      add\n      mload(0x40)\n      dup1\n      0x40\n      add\n      0x40\n      mstore\n      swap1\n      dup2\n      0x00\n      dup3\n      add\n      0x00\n      swap1\n      sload\n      swap1\n      0x0100\n      exp\n      swap1\n      div\n      0xffffffffffffffffffffffffffffffffffffffff\n      and\n      0xffffffffffffffffffffffffffffffffffffffff\n      and\n      0xffffffffffffffffffffffffffffffffffffffff\n      and\n      dup2\n      mstore\n      0x20\n      add\n      0x01\n      dup3\n      add\n      dup1\n      sload\n      tag_122\n      swap1\n      tag_88\n      jump\t// in\n    tag_122:\n      dup1\n      0x1f\n      add\n      0x20\n      dup1\n      swap2\n      div\n      mul\n      0x20\n      add\n      mload(0x40)\n      swap1\n      dup2\n      add\n      0x40\n      mstore\n      dup1\n      swap3\n      swap2\n      swap1\n      dup2\n      dup2\n      mstore\n      0x20\n      add\n      dup3\n      dup1\n      sload\n      tag_123\n      swap1\n      tag_88\n      jump\t// in\n    tag_123:\n      dup1\n      iszero\n      tag_124\n      jumpi\n      dup1\n      0x1f\n      lt\n      tag_125\n      jumpi\n      0x0100\n      dup1\n      dup4\n      sload\n      div\n      mul\n      dup4\n      mstore\n      swap2\n      0x20\n      add\n      swap2\n      jump(tag_124)\n    tag_125:\n      dup3\n      add\n      swap2\n      swap1\n      0x00\n      mstore\n      keccak256(0x00, 0x20)\n      swap1\n    tag_126:\n      dup2\n      sload\n      dup2\n      mstore\n      swap1\n      0x01\n      add\n      swap1\n      0x20\n      add\n      dup1\n      dup4\n      gt\n      tag_126\n      jumpi\n      dup3\n      swap1\n      sub\n      0x1f\n      and\n      dup3\n      add\n      swap2\n    tag_124:\n      pop\n      pop\n      pop\n      pop\n      pop\n      dup2\n      mstore\n      pop\n      pop\n      dup2\n      mstore\n      0x20\n      add\n      swap1\n      0x01\n      add\n      swap1\n      jump(tag_119)\n    tag_120:\n      pop\n      pop\n      pop\n      pop\n      swap1\n      pop\n        /* \"new-contracts/EduVerify.sol\":4057:4082  Credential[] memory creds */\n      0x00\n        /* \"new-contracts/EduVerify.sol\":4102:4106  refs */\n      dup2\n        /* \"new-contracts/EduVerify.sol\":4102:4113  refs.length */\n      mload\n        /* \"new-contracts/EduVerify.sol\":4085:4114  new Credential[](refs.length) */\n      0xffffffffffffffff\n      dup2\n      gt\n      iszero\n      tag_127\n      jumpi\n      tag_128\n      tag_129\n      jump\t// in\n    tag_128:\n    tag_127:\n      mload(0x40)\n      swap1\n      dup1\n      dup3\n      mstore\n      dup1\n      0x20\n      mul\n      0x20\n      add\n      dup3\n      add\n      0x40\n      mstore\n      dup1\n      iszero\n      tag_130\n      jumpi\n      dup2\n      0x20\n      add\n    tag_131:\n      tag_132\n      tag_99\n      jump\t// in\n    tag_132:\n      dup2\n      mstore\n      0x20\n      add\n      swap1\n      0x01\n      swap1\n      sub\n      swap1\n      dup2\n      tag_131\n      jumpi\n      swap1\n      pop\n    tag_130:\n      pop\n        /* \"new-contracts/EduVerify.sol\":4057:4114  Credential[] memory creds = new Credential[](refs.length) */\n      swap1\n      pop\n        /* \"new-contracts/EduVerify.sol\":4133:4144  uint length */\n      0x00\n        /* \"new-contracts/EduVerify.sol\":4147:4151  refs */\n      dup3\n        /* \"new-contracts/EduVerify.sol\":4147:4158  refs.length */\n      mload\n        /* \"new-contracts/EduVerify.sol\":4133:4158  uint length = refs.length */\n      swap1\n      pop\n        /* \"new-contracts/EduVerify.sol\":4173:4179  uint i */\n      0x00\n        /* \"new-contracts/EduVerify.sol\":4182:4183  0 */\n      0x00\n        /* \"new-contracts/EduVerify.sol\":4173:4183  uint i = 0 */\n      swap1\n      pop\n        /* \"new-contracts/EduVerify.sol\":4168:4314  for (uint i = 0; i < length;) {... */\n    tag_133:\n        /* \"new-contracts/EduVerify.sol\":4189:4195  length */\n      dup2\n        /* \"new-contracts/EduVerify.sol\":4185:4186  i */\n      dup2\n        /* \"new-contracts/EduVerify.sol\":4185:4195  i < length */\n      lt\n        /* \"new-contracts/EduVerify.sol\":4168:4314  for (uint i = 0; i < length;) {... */\n      iszero\n      tag_134\n      jumpi\n        /* \"new-contracts/EduVerify.sol\":4223:4234  credentials */\n      0x01\n        /* \"new-contracts/EduVerify.sol\":4223:4250  credentials[refs[i].issuer] */\n      0x00\n        /* \"new-contracts/EduVerify.sol\":4235:4239  refs */\n      dup6\n        /* \"new-contracts/EduVerify.sol\":4240:4241  i */\n      dup4\n        /* \"new-contracts/EduVerify.sol\":4235:4242  refs[i] */\n      dup2\n      mload\n      dup2\n      lt\n      tag_136\n      jumpi\n      tag_137\n      tag_138\n      jump\t// in\n    tag_137:\n    tag_136:\n      0x20\n      mul\n      0x20\n      add\n      add\n      mload\n        /* \"new-contracts/EduVerify.sol\":4235:4249  refs[i].issuer */\n      0x00\n      add\n      mload\n        /* \"new-contracts/EduVerify.sol\":4223:4250  credentials[refs[i].issuer] */\n      0xffffffffffffffffffffffffffffffffffffffff\n      and\n      0xffffffffffffffffffffffffffffffffffffffff\n      and\n      dup2\n      mstore\n      0x20\n      add\n      swap1\n      dup2\n      mstore\n      0x20\n      add\n      0x00\n      keccak256\n        /* \"new-contracts/EduVerify.sol\":4251:4255  refs */\n      dup5\n        /* \"new-contracts/EduVerify.sol\":4256:4257  i */\n      dup3\n        /* \"new-contracts/EduVerify.sol\":4251:4258  refs[i] */\n      dup2\n      mload\n      dup2\n      lt\n      tag_139\n      jumpi\n      tag_140\n      tag_138\n      jump\t// in\n    tag_140:\n    tag_139:\n      0x20\n      mul\n      0x20\n      add\n      add\n      mload\n        /* \"new-contracts/EduVerify.sol\":4251:4271  refs[i].credentialId */\n      0x20\n      add\n      mload\n        /* \"new-contracts/EduVerify.sol\":4223:4272  credentials[refs[i].issuer][refs[i].credentialId] */\n      mload(0x40)\n      tag_141\n      swap2\n      swap1\n      tag_102\n      jump\t// in\n    tag_141:\n      swap1\n      dup2\n      mstore\n      0x20\n      add\n      mload(0x40)\n      dup1\n      swap2\n      sub\n      swap1\n      keccak256\n        /* \"new-contracts/EduVerify.sol\":4212:4272  creds[i] = credentials[refs[i].issuer][refs[i].credentialId] */\n      mload(0x40)\n      dup1\n      0xc0\n      add\n      0x40\n      mstore\n      swap1\n      dup2\n      0x00\n      dup3\n      add\n      dup1\n      sload\n      tag_142\n      swap1\n      tag_88\n      jump\t// in\n    tag_142:\n      dup1\n      0x1f\n      add\n      0x20\n      dup1\n      swap2\n      div\n      mul\n      0x20\n      add\n      mload(0x40)\n      swap1\n      dup2\n      add\n      0x40\n      mstore\n      dup1\n      swap3\n      swap2\n      swap1\n      dup2\n      dup2\n      mstore\n      0x20\n      add\n      dup3\n      dup1\n      sload\n      tag_143\n      swap1\n      tag_88\n      jump\t// in\n    tag_143:\n      dup1\n      iszero\n      tag_144\n      jumpi\n      dup1\n      0x1f\n      lt\n      tag_145\n      jumpi\n      0x0100\n      dup1\n      dup4\n      sload\n      div\n      mul\n      dup4\n      mstore\n      swap2\n      0x20\n      add\n      swap2\n      jump(tag_144)\n    tag_145:\n      dup3\n      add\n      swap2\n      swap1\n      0x00\n      mstore\n      keccak256(0x00, 0x20)\n      swap1\n    tag_146:\n      dup2\n      sload\n      dup2\n      mstore\n      swap1\n      0x01\n      add\n      swap1\n      0x20\n      add\n      dup1\n      dup4\n      gt\n      tag_146\n      jumpi\n      dup3\n      swap1\n      sub\n      0x1f\n      and\n      dup3\n      add\n      swap2\n    tag_144:\n      pop\n      pop\n      pop\n      pop\n      pop\n      dup2\n      mstore\n      0x20\n      add\n      0x01\n      dup3\n      add\n      dup1\n      sload\n      tag_147\n      swap1\n      tag_88\n      jump\t// in\n    tag_147:\n      dup1\n      0x1f\n      add\n      0x20\n      dup1\n      swap2\n      div\n      mul\n      0x20\n      add\n      mload(0x40)\n      swap1\n      dup2\n      add\n      0x40\n      mstore\n      dup1\n      swap3\n      swap2\n      swap1\n      dup2\n      dup2\n      mstore\n      0x20\n      add\n      dup3\n      dup1\n      sload\n      tag_148\n      swap1\n      tag_88\n      jump\t// in\n    tag_148:\n      dup1\n      iszero\n      tag_149\n      jumpi\n      dup1\n      0x1f\n      lt\n      tag_150\n      jumpi\n      0x0100\n      dup1\n      dup4\n      sload\n      div\n      mul\n      dup4\n      mstore\n      swap2\n      0x20\n      add\n      swap2\n      jump(tag_149)\n    tag_150:\n      dup3\n      add\n      swap2\n      swap1\n      0x00\n      mstore\n      keccak256(0x00, 0x20)\n      swap1\n    tag_151:\n      dup2\n      sload\n      dup2\n      mstore\n      swap1\n      0x01\n      add\n      swap1\n      0x20\n      add\n      dup1\n      dup4\n      gt\n      tag_151\n      jumpi\n      dup3\n      swap1\n      sub\n      0x1f\n      and\n      dup3\n      add\n      swap2\n    tag_149:\n      pop\n      pop\n      pop\n      pop\n      pop\n      dup2\n      mstore\n      0x20\n      add\n      0x02\n      dup3\n      add\n      sload\n      dup2\n      mstore\n      0x20\n      add\n      0x03\n      dup3\n      add\n      dup1\n      sload\n      tag_152\n      swap1\n      tag_88\n      jump\t// in\n    tag_152:\n      dup1\n      0x1f\n      add\n      0x20\n      dup1\n      swap2\n      div\n      mul\n      0x20\n      add\n      mload(0x40)\n      swap1\n      dup2\n      add\n      0x40\n      mstore\n      dup1\n      swap3\n      swap2\n      swap1\n      dup2\n      dup2\n      mstore\n      0x20\n      add\n      dup3\n      dup1\n      sload\n      tag_153\n      swap1\n      tag_88\n      jump\t// in\n    tag_153:\n      dup1\n      iszero\n      tag_154\n      jumpi\n      dup1\n      0x1f\n      lt\n      tag_155\n      jumpi\n      0x0100\n      dup1\n      dup4\n      sload\n      div\n      mul\n      dup4\n      mstore\n      swap2\n      0x20\n      add\n      swap2\n      jump(tag_154)\n    tag_155:\n      dup3\n      add\n      swap2\n      swap1\n      0x00\n      mstore\n      keccak256(0x00, 0x20)\n      swap1\n    tag_156:\n      dup2\n      sload\n      dup2\n      mstore\n      swap1\n      0x01\n      add\n      swap1\n      0x20\n      add\n      dup1\n      dup4\n      gt\n      tag_156\n      jumpi\n      dup3\n      swap1\n      sub\n      0x1f\n      and\n      dup3\n      add\n      swap2\n    tag_154:\n      pop\n      pop\n      pop\n      pop\n      pop\n      dup2\n      mstore\n      0x20\n      add\n      0x04\n      dup3\n      add\n      0x00\n      swap1\n      sload\n      swap1\n      0x0100\n      exp\n      swap1\n      div\n      0xffffffffffffffffffffffffffffffffffffffff\n      and\n      0xffffffffffffffffffffffffffffffffffffffff\n      and\n      0xffffffffffffffffffffffffffffffffffffffff\n      and\n      dup2\n      mstore\n      0x20\n      add\n      0x05\n      dup3\n      add\n      0x00\n      swap1\n      sload\n      swap1\n      0x0100\n      exp\n      swap1\n      div\n      0xffffffffffffffffffffffffffffffffffffffff\n      and\n      0xffffffffffffffffffffffffffffffffffffffff\n      and\n      0xffffffffffffffffffffffffffffffffffffffff\n      and\n      dup2\n      mstore\n      pop\n      pop\n        /* \"new-contracts/EduVerify.sol\":4212:4217  creds */\n      dup4\n        /* \"new-contracts/EduVerify.sol\":4218:4219  i */\n      dup3\n        /* \"new-contracts/EduVerify.sol\":4212:4220  creds[i] */\n      dup2\n      mload\n      dup2\n      lt\n      tag_157\n      jumpi\n      tag_158\n      tag_138\n      jump\t// in\n    tag_158:\n    tag_157:\n      0x20\n      mul\n      0x20\n      add\n      add\n        /* \"new-contracts/EduVerify.sol\":4212:4272  creds[i] = credentials[refs[i].issuer][refs[i].credentialId] */\n      dup2\n      swap1\n      mstore\n      pop\n        /* \"new-contracts/EduVerify.sol\":4298:4301  ++i */\n      dup1\n      0x01\n      add\n      swap1\n      pop\n        /* \"new-contracts/EduVerify.sol\":4168:4314  for (uint i = 0; i < length;) {... */\n      jump(tag_133)\n    tag_134:\n      pop\n        /* \"new-contracts/EduVerify.sol\":4330:4335  creds */\n      dup2\n        /* \"new-contracts/EduVerify.sol\":4323:4335  return creds */\n      swap4\n      pop\n      pop\n      pop\n      pop\n        /* \"new-contracts/EduVerify.sol\":3877:4342  function getStudentCredentialsFull(address student) external view  returns (Credential[] memory) {... */\n      swap2\n      swap1\n      pop\n      jump\t// out\n        /* \"new-contracts/EduVerify.sol\":4348:4506  function getInstitutionCredentials(address institution) external view returns (string[] memory)    {... */\n    tag_48:\n        /* \"new-contracts/EduVerify.sol\":4427:4442  string[] memory */\n      0x60\n        /* \"new-contracts/EduVerify.sol\":4464:4486  institutionCredentials */\n      0x02\n        /* \"new-contracts/EduVerify.sol\":4464:4499  institutionCredentials[institution] */\n      0x00\n        /* \"new-contracts/EduVerify.sol\":4487:4498  institution */\n      dup4\n        /* \"new-contracts/EduVerify.sol\":4464:4499  institutionCredentials[institution] */\n      0xffffffffffffffffffffffffffffffffffffffff\n      and\n      0xffffffffffffffffffffffffffffffffffffffff\n      and\n      dup2\n      mstore\n      0x20\n      add\n      swap1\n      dup2\n      mstore\n      0x20\n      add\n      0x00\n      keccak256\n        /* \"new-contracts/EduVerify.sol\":4457:4499  return institutionCredentials[institution] */\n      dup1\n      sload\n      dup1\n      0x20\n      mul\n      0x20\n      add\n      mload(0x40)\n      swap1\n      dup2\n      add\n      0x40\n      mstore\n      dup1\n      swap3\n      swap2\n      swap1\n      dup2\n      dup2\n      mstore\n      0x20\n      add\n      0x00\n      swap1\n    tag_160:\n      dup3\n      dup3\n      lt\n      iszero\n      tag_161\n      jumpi\n      dup4\n      dup3\n      swap1\n      0x00\n      mstore\n      keccak256(0x00, 0x20)\n      add\n      dup1\n      sload\n      tag_163\n      swap1\n      tag_88\n      jump\t// in\n    tag_163:\n      dup1\n      0x1f\n      add\n      0x20\n      dup1\n      swap2\n      div\n      mul\n      0x20\n      add\n      mload(0x40)\n      swap1\n      dup2\n      add\n      0x40\n      mstore\n      dup1\n      swap3\n      swap2\n      swap1\n      dup2\n      dup2\n      mstore\n      0x20\n      add\n      dup3\n      dup1\n      sload\n      tag_164\n      swap1\n      tag_88\n      jump\t// in\n    tag_164:\n      dup1\n      iszero\n      tag_165\n      jumpi\n      dup1\n      0x1f\n      lt\n      tag_166\n      jumpi\n      0x0100\n      dup1\n      dup4\n      sload\n      div\n      mul\n      dup4\n      mstore\n      swap2\n      0x20\n      add\n      swap2\n      jump(tag_165)\n    tag_166:\n      dup3\n      add\n      swap2\n      swap1\n      0x00\n      mstore\n      keccak256(0x00, 0x20)\n      swap1\n    tag_167:\n      dup2\n      sload\n      dup2\n      mstore\n      swap1\n      0x01\n      add\n      swap1\n      0x20\n      add\n      dup1\n      dup4\n      gt\n      tag_167\n      jumpi\n      dup3\n      swap1\n      sub\n      0x1f\n      and\n      dup3\n      add\n      swap2\n    tag_165:\n      pop\n      pop\n      pop\n      pop\n      pop\n      dup2\n      mstore\n      0x20\n      add\n      swap1\n      0x01\n      add\n      swap1\n      jump(tag_160)\n    tag_161:\n      pop\n      pop\n      pop\n      pop\n      swap1\n      pop\n        /* \"new-contracts/EduVerify.sol\":4348:4506  function getInstitutionCredentials(address institution) external view returns (string[] memory)    {... */\n      swap2\n      swap1\n      pop\n      jump\t// out\n        /* \"new-contracts/EduVerify.sol\":676:734  mapping(address => string[]) public institutionCredentials */\n    tag_53:\n      mstore(0x20, 0x02)\n      dup2\n      0x00\n      mstore\n      keccak256(0x00, 0x40)\n      dup2\n      dup2\n      sload\n      dup2\n      lt\n      tag_168\n      jumpi\n      0x00\n      dup1\n      revert\n    tag_168:\n      swap1\n      0x00\n      mstore\n      keccak256(0x00, 0x20)\n      add\n      0x00\n      swap2\n      pop\n      swap2\n      pop\n      pop\n      dup1\n      sload\n      tag_170\n      swap1\n      tag_88\n      jump\t// in\n    tag_170:\n      dup1\n      0x1f\n      add\n      0x20\n      dup1\n      swap2\n      div\n      mul\n      0x20\n      add\n      mload(0x40)\n      swap1\n      dup2\n      add\n      0x40\n      mstore\n      dup1\n      swap3\n      swap2\n      swap1\n      dup2\n      dup2\n      mstore\n      0x20\n      add\n      dup3\n      dup1\n      sload\n      tag_171\n      swap1\n      tag_88\n      jump\t// in\n    tag_171:\n      dup1\n      iszero\n      tag_172\n      jumpi\n      dup1\n      0x1f\n      lt\n      tag_173\n      jumpi\n      0x0100\n      dup1\n      dup4\n      sload\n      div\n      mul\n      dup4\n      mstore\n      swap2\n      0x20\n      add\n      swap2\n      jump(tag_172)\n    tag_173:\n      dup3\n      add\n      swap2\n      swap1\n      0x00\n      mstore\n      keccak256(0x00, 0x20)\n      swap1\n    tag_174:\n      dup2\n      sload\n      dup2\n      mstore\n      swap1\n      0x01\n      add\n      swap1\n      0x20\n      add\n      dup1\n      dup4\n      gt\n      tag_174\n      jumpi\n      dup3\n      swap1\n      sub\n      0x1f\n      and\n      dup3\n      add\n      swap2\n    tag_172:\n      pop\n      pop\n      pop\n      pop\n      pop\n      dup2\n      jump\t// out\n        /* \"new-contracts/EduVerify.sol\":2055:3377  function issueCredential(... */\n    tag_59:\n        /* \"new-contracts/EduVerify.sol\":2483:2505  authorizedInstitutions */\n      0x00\n        /* \"new-contracts/EduVerify.sol\":2483:2517  authorizedInstitutions[msg.sender] */\n      0x00\n        /* \"new-contracts/EduVerify.sol\":2506:2516  msg.sender */\n      caller\n        /* \"new-contracts/EduVerify.sol\":2483:2517  authorizedInstitutions[msg.sender] */\n      0xffffffffffffffffffffffffffffffffffffffff\n      and\n      0xffffffffffffffffffffffffffffffffffffffff\n      and\n      dup2\n      mstore\n      0x20\n      add\n      swap1\n      dup2\n      mstore\n      0x20\n      add\n      0x00\n      keccak256\n      0x00\n      swap1\n      sload\n      swap1\n      0x0100\n      exp\n      swap1\n      div\n      0xff\n      and\n        /* \"new-contracts/EduVerify.sol\":2475:2548  require(authorizedInstitutions[msg.sender], \"Institution not authorized\") */\n      tag_176\n      jumpi\n      mload(0x40)\n      0x08c379a000000000000000000000000000000000000000000000000000000000\n      dup2\n      mstore\n      0x04\n      add\n      tag_177\n      swap1\n      tag_178\n      jump\t// in\n    tag_177:\n      mload(0x40)\n      dup1\n      swap2\n      sub\n      swap1\n      revert\n    tag_176:\n        /* \"new-contracts/EduVerify.sol\":2628:2629  0 */\n      0x00\n        /* \"new-contracts/EduVerify.sol\":2572:2583  credentials */\n      0x01\n        /* \"new-contracts/EduVerify.sol\":2572:2595  credentials[msg.sender] */\n      0x00\n        /* \"new-contracts/EduVerify.sol\":2584:2594  msg.sender */\n      caller\n        /* \"new-contracts/EduVerify.sol\":2572:2595  credentials[msg.sender] */\n      0xffffffffffffffffffffffffffffffffffffffff\n      and\n      0xffffffffffffffffffffffffffffffffffffffff\n      and\n      dup2\n      mstore\n      0x20\n      add\n      swap1\n      dup2\n      mstore\n      0x20\n      add\n      0x00\n      keccak256\n        /* \"new-contracts/EduVerify.sol\":2596:2608  credentialId */\n      dup7\n        /* \"new-contracts/EduVerify.sol\":2572:2609  credentials[msg.sender][credentialId] */\n      mload(0x40)\n      tag_179\n      swap2\n      swap1\n      tag_102\n      jump\t// in\n    tag_179:\n      swap1\n      dup2\n      mstore\n      0x20\n      add\n      mload(0x40)\n      dup1\n      swap2\n      sub\n      swap1\n      keccak256\n        /* \"new-contracts/EduVerify.sol\":2572:2616  credentials[msg.sender][credentialId].degree */\n      0x01\n      add\n        /* \"new-contracts/EduVerify.sol\":2566:2624  bytes(credentials[msg.sender][credentialId].degree).length */\n      dup1\n      sload\n      tag_180\n      swap1\n      tag_88\n      jump\t// in\n    tag_180:\n      swap1\n      pop\n        /* \"new-contracts/EduVerify.sol\":2566:2629  bytes(credentials[msg.sender][credentialId].degree).length == 0 */\n      eq\n        /* \"new-contracts/EduVerify.sol\":2558:2682  require(bytes(credentials[msg.sender][credentialId].degree).length == 0,  \"Credential ID already used by your institution\" ) */\n      tag_181\n      jumpi\n      mload(0x40)\n      0x08c379a000000000000000000000000000000000000000000000000000000000\n      dup2\n      mstore\n      0x04\n      add\n      tag_182\n      swap1\n      tag_183\n      jump\t// in\n    tag_182:\n      mload(0x40)\n      dup1\n      swap2\n      sub\n      swap1\n      revert\n    tag_181:\n        /* \"new-contracts/EduVerify.sol\":2741:2967  Credential({... */\n      mload(0x40)\n      dup1\n      0xc0\n      add\n      0x40\n      mstore\n      dup1\n        /* \"new-contracts/EduVerify.sol\":2779:2790  institution */\n      dup5\n        /* \"new-contracts/EduVerify.sol\":2741:2967  Credential({... */\n      dup2\n      mstore\n      0x20\n      add\n        /* \"new-contracts/EduVerify.sol\":2812:2818  degree */\n      dup4\n        /* \"new-contracts/EduVerify.sol\":2741:2967  Credential({... */\n      dup2\n      mstore\n      0x20\n      add\n        /* \"new-contracts/EduVerify.sol\":2843:2858  block.timestamp */\n      timestamp\n        /* \"new-contracts/EduVerify.sol\":2741:2967  Credential({... */\n      dup2\n      mstore\n      0x20\n      add\n        /* \"new-contracts/EduVerify.sol\":2877:2880  cid */\n      dup3\n        /* \"new-contracts/EduVerify.sol\":2741:2967  Credential({... */\n      dup2\n      mstore\n      0x20\n      add\n        /* \"new-contracts/EduVerify.sol\":2902:2912  msg.sender */\n      caller\n        /* \"new-contracts/EduVerify.sol\":2741:2967  Credential({... */\n      0xffffffffffffffffffffffffffffffffffffffff\n      and\n      dup2\n      mstore\n      0x20\n      add\n        /* \"new-contracts/EduVerify.sol\":2942:2956  studentAddress */\n      dup6\n        /* \"new-contracts/EduVerify.sol\":2741:2967  Credential({... */\n      0xffffffffffffffffffffffffffffffffffffffff\n      and\n      dup2\n      mstore\n      pop\n        /* \"new-contracts/EduVerify.sol\":2701:2712  credentials */\n      0x01\n        /* \"new-contracts/EduVerify.sol\":2701:2724  credentials[msg.sender] */\n      0x00\n        /* \"new-contracts/EduVerify.sol\":2713:2723  msg.sender */\n      caller\n        /* \"new-contracts/EduVerify.sol\":2701:2724  credentials[msg.sender] */\n      0xffffffffffffffffffffffffffffffffffffffff\n      and\n      0xffffffffffffffffffffffffffffffffffffffff\n      and\n      dup2\n      mstore\n      0x20\n      add\n      swap1\n      dup2\n      mstore\n      0x20\n      add\n      0x00\n      keccak256\n        /* \"new-contracts/EduVerify.sol\":2725:2737  credentialId */\n      dup7\n        /* \"new-contracts/EduVerify.sol\":2701:2738  credentials[msg.sender][credentialId] */\n      mload(0x40)\n      tag_184\n      swap2\n      swap1\n      tag_102\n      jump\t// in\n    tag_184:\n      swap1\n      dup2\n      mstore\n      0x20\n      add\n      mload(0x40)\n      dup1\n      swap2\n      sub\n      swap1\n      keccak256\n        /* \"new-contracts/EduVerify.sol\":2701:2967  credentials[msg.sender][credentialId] = Credential({... */\n      0x00\n      dup3\n      add\n      mload\n      dup2\n      0x00\n      add\n      swap1\n      dup2\n      tag_185\n      swap2\n      swap1\n      tag_186\n      jump\t// in\n    tag_185:\n      pop\n      0x20\n      dup3\n      add\n      mload\n      dup2\n      0x01\n      add\n      swap1\n      dup2\n      tag_187\n      swap2\n      swap1\n      tag_186\n      jump\t// in\n    tag_187:\n      pop\n      0x40\n      dup3\n      add\n      mload\n      dup2\n      0x02\n      add\n      sstore\n      0x60\n      dup3\n      add\n      mload\n      dup2\n      0x03\n      add\n      swap1\n      dup2\n      tag_188\n      swap2\n      swap1\n      tag_186\n      jump\t// in\n    tag_188:\n      pop\n      0x80\n      dup3\n      add\n      mload\n      dup2\n      0x04\n      add\n      exp(0x0100, 0x00)\n      dup2\n      sload\n      dup2\n      0xffffffffffffffffffffffffffffffffffffffff\n      mul\n      not\n      and\n      swap1\n      dup4\n      0xffffffffffffffffffffffffffffffffffffffff\n      and\n      mul\n      or\n      swap1\n      sstore\n      pop\n      0xa0\n      dup3\n      add\n      mload\n      dup2\n      0x05\n      add\n      exp(0x0100, 0x00)\n      dup2\n      sload\n      dup2\n      0xffffffffffffffffffffffffffffffffffffffff\n      mul\n      not\n      and\n      swap1\n      dup4\n      0xffffffffffffffffffffffffffffffffffffffff\n      and\n      mul\n      or\n      swap1\n      sstore\n      pop\n      swap1\n      pop\n      pop\n        /* \"new-contracts/EduVerify.sol\":2986:3004  studentCredentials */\n      0x05\n        /* \"new-contracts/EduVerify.sol\":2986:3020  studentCredentials[studentAddress] */\n      0x00\n        /* \"new-contracts/EduVerify.sol\":3005:3019  studentAddress */\n      dup6\n        /* \"new-contracts/EduVerify.sol\":2986:3020  studentCredentials[studentAddress] */\n      0xffffffffffffffffffffffffffffffffffffffff\n      and\n      0xffffffffffffffffffffffffffffffffffffffff\n      and\n      dup2\n      mstore\n      0x20\n      add\n      swap1\n      dup2\n      mstore\n      0x20\n      add\n      0x00\n      keccak256\n        /* \"new-contracts/EduVerify.sol\":3026:3129  CredentialReference({... */\n      mload(0x40)\n      dup1\n      0x40\n      add\n      0x40\n      mstore\n      dup1\n        /* \"new-contracts/EduVerify.sol\":3068:3078  msg.sender */\n      caller\n        /* \"new-contracts/EduVerify.sol\":3026:3129  CredentialReference({... */\n      0xffffffffffffffffffffffffffffffffffffffff\n      and\n      dup2\n      mstore\n      0x20\n      add\n        /* \"new-contracts/EduVerify.sol\":3106:3118  credentialId */\n      dup8\n        /* \"new-contracts/EduVerify.sol\":3026:3129  CredentialReference({... */\n      dup2\n      mstore\n      pop\n        /* \"new-contracts/EduVerify.sol\":2986:3130  studentCredentials[studentAddress].push(CredentialReference({... */\n      swap1\n      dup1\n      0x01\n      dup2\n      sload\n      add\n      dup1\n      dup3\n      sstore\n      dup1\n      swap2\n      pop\n      pop\n      0x01\n      swap1\n      sub\n      swap1\n      0x00\n      mstore\n      keccak256(0x00, 0x20)\n      swap1\n      0x02\n      mul\n      add\n      0x00\n      swap1\n      swap2\n      swap1\n      swap2\n      swap1\n      swap2\n      pop\n      0x00\n      dup3\n      add\n      mload\n      dup2\n      0x00\n      add\n      exp(0x0100, 0x00)\n      dup2\n      sload\n      dup2\n      0xffffffffffffffffffffffffffffffffffffffff\n      mul\n      not\n      and\n      swap1\n      dup4\n      0xffffffffffffffffffffffffffffffffffffffff\n      and\n      mul\n      or\n      swap1\n      sstore\n      pop\n      0x20\n      dup3\n      add\n      mload\n      dup2\n      0x01\n      add\n      swap1\n      dup2\n      tag_190\n      swap2\n      swap1\n      tag_186\n      jump\t// in\n    tag_190:\n      pop\n      pop\n      pop\n        /* \"new-contracts/EduVerify.sol\":3149:3171  institutionCredentials */\n      0x02\n        /* \"new-contracts/EduVerify.sol\":3149:3183  institutionCredentials[msg.sender] */\n      0x00\n        /* \"new-contracts/EduVerify.sol\":3172:3182  msg.sender */\n      caller\n        /* \"new-contracts/EduVerify.sol\":3149:3183  institutionCredentials[msg.sender] */\n      0xffffffffffffffffffffffffffffffffffffffff\n      and\n      0xffffffffffffffffffffffffffffffffffffffff\n      and\n      dup2\n      mstore\n      0x20\n      add\n      swap1\n      dup2\n      mstore\n      0x20\n      add\n      0x00\n      keccak256\n        /* \"new-contracts/EduVerify.sol\":3189:3201  credentialId */\n      dup6\n        /* \"new-contracts/EduVerify.sol\":3149:3202  institutionCredentials[msg.sender].push(credentialId) */\n      swap1\n      dup1\n      0x01\n      dup2\n      sload\n      add\n      dup1\n      dup3\n      sstore\n      dup1\n      swap2\n      pop\n      pop\n      0x01\n      swap1\n      sub\n      swap1\n      0x00\n      mstore\n      keccak256(0x00, 0x20)\n      add\n      0x00\n      swap1\n      swap2\n      swap1\n      swap2\n      swap1\n      swap2\n      pop\n      swap1\n      dup2\n      tag_192\n      swap2\n      swap1\n      tag_186\n      jump\t// in\n    tag_192:\n      pop\n        /* \"new-contracts/EduVerify.sol\":3237:3249  credentialId */\n      dup5\n        /* \"new-contracts/EduVerify.sol\":3212:3229  cidToCredentialId */\n      0x04\n        /* \"new-contracts/EduVerify.sol\":3230:3233  cid */\n      dup3\n        /* \"new-contracts/EduVerify.sol\":3212:3234  cidToCredentialId[cid] */\n      mload(0x40)\n      tag_193\n      swap2\n      swap1\n      tag_102\n      jump\t// in\n    tag_193:\n      swap1\n      dup2\n      mstore\n      0x20\n      add\n      mload(0x40)\n      dup1\n      swap2\n      sub\n      swap1\n      keccak256\n        /* \"new-contracts/EduVerify.sol\":3212:3249  cidToCredentialId[cid] = credentialId */\n      swap1\n      dup2\n      tag_194\n      swap2\n      swap1\n      tag_186\n      jump\t// in\n    tag_194:\n      pop\n        /* \"new-contracts/EduVerify.sol\":3278:3288  msg.sender */\n      caller\n        /* \"new-contracts/EduVerify.sol\":3259:3270  cidToIssuer */\n      0x03\n        /* \"new-contracts/EduVerify.sol\":3271:3274  cid */\n      dup3\n        /* \"new-contracts/EduVerify.sol\":3259:3275  cidToIssuer[cid] */\n      mload(0x40)\n      tag_195\n      swap2\n      swap1\n      tag_102\n      jump\t// in\n    tag_195:\n      swap1\n      dup2\n      mstore\n      0x20\n      add\n      mload(0x40)\n      dup1\n      swap2\n      sub\n      swap1\n      keccak256\n      0x00\n        /* \"new-contracts/EduVerify.sol\":3259:3288  cidToIssuer[cid] = msg.sender */\n      0x0100\n      exp\n      dup2\n      sload\n      dup2\n      0xffffffffffffffffffffffffffffffffffffffff\n      mul\n      not\n      and\n      swap1\n      dup4\n      0xffffffffffffffffffffffffffffffffffffffff\n      and\n      mul\n      or\n      swap1\n      sstore\n      pop\n        /* \"new-contracts/EduVerify.sol\":3355:3369  studentAddress */\n      dup4\n        /* \"new-contracts/EduVerify.sol\":3312:3370  CredentialIssued(credentialId, msg.sender, studentAddress) */\n      0xffffffffffffffffffffffffffffffffffffffff\n      and\n        /* \"new-contracts/EduVerify.sol\":3343:3353  msg.sender */\n      caller\n        /* \"new-contracts/EduVerify.sol\":3312:3370  CredentialIssued(credentialId, msg.sender, studentAddress) */\n      0xffffffffffffffffffffffffffffffffffffffff\n      and\n        /* \"new-contracts/EduVerify.sol\":3329:3341  credentialId */\n      dup7\n        /* \"new-contracts/EduVerify.sol\":3312:3370  CredentialIssued(credentialId, msg.sender, studentAddress) */\n      mload(0x40)\n      tag_196\n      swap2\n      swap1\n      tag_102\n      jump\t// in\n    tag_196:\n      mload(0x40)\n      dup1\n      swap2\n      sub\n      swap1\n      keccak256\n      0x754a5531e45cd3b12a4ad1e6573de002f31131ea821a89fe02613e3e93f99f33\n      mload(0x40)\n      mload(0x40)\n      dup1\n      swap2\n      sub\n      swap1\n      log4\n        /* \"new-contracts/EduVerify.sol\":2055:3377  function issueCredential(... */\n      pop\n      pop\n      pop\n      pop\n      pop\n      jump\t// out\n        /* \"new-contracts/EduVerify.sol\":778:823  mapping(string => address) public cidToIssuer */\n    tag_63:\n      0x03\n      dup2\n      dup1\n      mload\n      0x20\n      dup2\n      add\n      dup3\n      add\n      dup1\n      mload\n      dup5\n      dup3\n      mstore\n      0x20\n      dup4\n      add\n      0x20\n      dup6\n      add\n      keccak256\n      dup2\n      dup4\n      mstore\n      dup1\n      swap6\n      pop\n      pop\n      pop\n      pop\n      pop\n      pop\n      0x00\n      swap2\n      pop\n      sload\n      swap1\n      0x0100\n      exp\n      swap1\n      div\n      0xffffffffffffffffffffffffffffffffffffffff\n      and\n      dup2\n      jump\t// out\n        /* \"new-contracts/EduVerify.sol\":1612:1790  function authorizeInstitution(address institution) external onlyAdmin {... */\n    tag_68:\n        /* \"new-contracts/EduVerify.sol\":1473:1486  adminContract */\n      immutable(\"0xf4c2b5de886427473655d4c904c743576dc2d53249b7535d96c06cc97ae7216b\")\n        /* \"new-contracts/EduVerify.sol\":1459:1486  msg.sender == adminContract */\n      0xffffffffffffffffffffffffffffffffffffffff\n      and\n        /* \"new-contracts/EduVerify.sol\":1459:1469  msg.sender */\n      caller\n        /* \"new-contracts/EduVerify.sol\":1459:1486  msg.sender == adminContract */\n      0xffffffffffffffffffffffffffffffffffffffff\n      and\n      eq\n        /* \"new-contracts/EduVerify.sol\":1451:1505  require(msg.sender == adminContract, \"Not authorized\") */\n      tag_198\n      jumpi\n      mload(0x40)\n      0x08c379a000000000000000000000000000000000000000000000000000000000\n      dup2\n      mstore\n      0x04\n      add\n      tag_199\n      swap1\n      tag_96\n      jump\t// in\n    tag_199:\n      mload(0x40)\n      dup1\n      swap2\n      sub\n      swap1\n      revert\n    tag_198:\n        /* \"new-contracts/EduVerify.sol\":1730:1734  true */\n      0x01\n        /* \"new-contracts/EduVerify.sol\":1692:1714  authorizedInstitutions */\n      0x00\n        /* \"new-contracts/EduVerify.sol\":1692:1727  authorizedInstitutions[institution] */\n      0x00\n        /* \"new-contracts/EduVerify.sol\":1715:1726  institution */\n      dup4\n        /* \"new-contracts/EduVerify.sol\":1692:1727  authorizedInstitutions[institution] */\n      0xffffffffffffffffffffffffffffffffffffffff\n      and\n      0xffffffffffffffffffffffffffffffffffffffff\n      and\n      dup2\n      mstore\n      0x20\n      add\n      swap1\n      dup2\n      mstore\n      0x20\n      add\n      0x00\n      keccak256\n      0x00\n        /* \"new-contracts/EduVerify.sol\":1692:1734  authorizedInstitutions[institution] = true */\n      0x0100\n      exp\n      dup2\n      sload\n      dup2\n      0xff\n      mul\n      not\n      and\n      swap1\n      dup4\n      iszero\n      iszero\n      mul\n      or\n      swap1\n      sstore\n      pop\n        /* \"new-contracts/EduVerify.sol\":1771:1782  institution */\n      dup1\n        /* \"new-contracts/EduVerify.sol\":1749:1783  InstitutionAuthorized(institution) */\n      0xffffffffffffffffffffffffffffffffffffffff\n      and\n      0x2aef8a157b05c49aaaeebd094bf2b10b2b90835af1fd87c288f6effa9a6a2434\n      mload(0x40)\n      mload(0x40)\n      dup1\n      swap2\n      sub\n      swap1\n      log2\n        /* \"new-contracts/EduVerify.sol\":1612:1790  function authorizeInstitution(address institution) external onlyAdmin {... */\n      pop\n      jump\t// out\n        /* \"new-contracts/EduVerify.sol\":365:403  address public immutable adminContract */\n    tag_70:\n      immutable(\"0xf4c2b5de886427473655d4c904c743576dc2d53249b7535d96c06cc97ae7216b\")\n      dup2\n      jump\t// out\n        /* \"new-contracts/EduVerify.sol\":3556:3872  function getCredentialByCID(string memory cid) external view returns (Credential memory)    {... */\n    tag_74:\n        /* \"new-contracts/EduVerify.sol\":3626:3643  Credential memory */\n      tag_201\n      tag_99\n      jump\t// in\n    tag_201:\n        /* \"new-contracts/EduVerify.sol\":3658:3672  address issuer */\n      0x00\n        /* \"new-contracts/EduVerify.sol\":3675:3686  cidToIssuer */\n      0x03\n        /* \"new-contracts/EduVerify.sol\":3687:3690  cid */\n      dup4\n        /* \"new-contracts/EduVerify.sol\":3675:3691  cidToIssuer[cid] */\n      mload(0x40)\n      tag_203\n      swap2\n      swap1\n      tag_102\n      jump\t// in\n    tag_203:\n      swap1\n      dup2\n      mstore\n      0x20\n      add\n      mload(0x40)\n      dup1\n      swap2\n      sub\n      swap1\n      keccak256\n      0x00\n      swap1\n      sload\n      swap1\n      0x0100\n      exp\n      swap1\n      div\n      0xffffffffffffffffffffffffffffffffffffffff\n      and\n        /* \"new-contracts/EduVerify.sol\":3658:3691  address issuer = cidToIssuer[cid] */\n      swap1\n      pop\n        /* \"new-contracts/EduVerify.sol\":3727:3728  0 */\n      0x00\n        /* \"new-contracts/EduVerify.sol\":3709:3729  issuer != address(0) */\n      0xffffffffffffffffffffffffffffffffffffffff\n      and\n        /* \"new-contracts/EduVerify.sol\":3709:3715  issuer */\n      dup2\n        /* \"new-contracts/EduVerify.sol\":3709:3729  issuer != address(0) */\n      0xffffffffffffffffffffffffffffffffffffffff\n      and\n      sub\n        /* \"new-contracts/EduVerify.sol\":3701:3754  require(issuer != address(0), \"Credential not found\") */\n      tag_204\n      jumpi\n      mload(0x40)\n      0x08c379a000000000000000000000000000000000000000000000000000000000\n      dup2\n      mstore\n      0x04\n      add\n      tag_205\n      swap1\n      tag_206\n      jump\t// in\n    tag_205:\n      mload(0x40)\n      dup1\n      swap2\n      sub\n      swap1\n      revert\n    tag_204:\n        /* \"new-contracts/EduVerify.sol\":3764:3790  string memory credentialId */\n      0x00\n        /* \"new-contracts/EduVerify.sol\":3793:3810  cidToCredentialId */\n      0x04\n        /* \"new-contracts/EduVerify.sol\":3811:3814  cid */\n      dup5\n        /* \"new-contracts/EduVerify.sol\":3793:3815  cidToCredentialId[cid] */\n      mload(0x40)\n      tag_207\n      swap2\n      swap1\n      tag_102\n      jump\t// in\n    tag_207:\n      swap1\n      dup2\n      mstore\n      0x20\n      add\n      mload(0x40)\n      dup1\n      swap2\n      sub\n      swap1\n      keccak256\n        /* \"new-contracts/EduVerify.sol\":3764:3815  string memory credentialId = cidToCredentialId[cid] */\n      dup1\n      sload\n      tag_208\n      swap1\n      tag_88\n      jump\t// in\n    tag_208:\n      dup1\n      0x1f\n      add\n      0x20\n      dup1\n      swap2\n      div\n      mul\n      0x20\n      add\n      mload(0x40)\n      swap1\n      dup2\n      add\n      0x40\n      mstore\n      dup1\n      swap3\n      swap2\n      swap1\n      dup2\n      dup2\n      mstore\n      0x20\n      add\n      dup3\n      dup1\n      sload\n      tag_209\n      swap1\n      tag_88\n      jump\t// in\n    tag_209:\n      dup1\n      iszero\n      tag_210\n      jumpi\n      dup1\n      0x1f\n      lt\n      tag_211\n      jumpi\n      0x0100\n      dup1\n      dup4\n      sload\n      div\n      mul\n      dup4\n      mstore\n      swap2\n      0x20\n      add\n      swap2\n      jump(tag_210)\n    tag_211:\n      dup3\n      add\n      swap2\n      swap1\n      0x00\n      mstore\n      keccak256(0x00, 0x20)\n      swap1\n    tag_212:\n      dup2\n      sload\n      dup2\n      mstore\n      swap1\n      0x01\n      add\n      swap1\n      0x20\n      add\n      dup1\n      dup4\n      gt\n      tag_212\n      jumpi\n      dup3\n      swap1\n      sub\n      0x1f\n      and\n      dup3\n      add\n      swap2\n    tag_210:\n      pop\n      pop\n      pop\n      pop\n      pop\n      swap1\n      pop\n        /* \"new-contracts/EduVerify.sol\":3832:3843  credentials */\n      0x01\n        /* \"new-contracts/EduVerify.sol\":3832:3851  credentials[issuer] */\n      0x00\n        /* \"new-contracts/EduVerify.sol\":3844:3850  issuer */\n      dup4\n        /* \"new-contracts/EduVerify.sol\":3832:3851  credentials[issuer] */\n      0xffffffffffffffffffffffffffffffffffffffff\n      and\n      0xffffffffffffffffffffffffffffffffffffffff\n      and\n      dup2\n      mstore\n      0x20\n      add\n      swap1\n      dup2\n      mstore\n      0x20\n      add\n      0x00\n      keccak256\n        /* \"new-contracts/EduVerify.sol\":3852:3864  credentialId */\n      dup2\n        /* \"new-contracts/EduVerify.sol\":3832:3865  credentials[issuer][credentialId] */\n      mload(0x40)\n      tag_213\n      swap2\n      swap1\n      tag_102\n      jump\t// in\n    tag_213:\n      swap1\n      dup2\n      mstore\n      0x20\n      add\n      mload(0x40)\n      dup1\n      swap2\n      sub\n      swap1\n      keccak256\n        /* \"new-contracts/EduVerify.sol\":3825:3865  return credentials[issuer][credentialId] */\n      mload(0x40)\n      dup1\n      0xc0\n      add\n      0x40\n      mstore\n      swap1\n      dup2\n      0x00\n      dup3\n      add\n      dup1\n      sload\n      tag_214\n      swap1\n      tag_88\n      jump\t// in\n    tag_214:\n      dup1\n      0x1f\n      add\n      0x20\n      dup1\n      swap2\n      div\n      mul\n      0x20\n      add\n      mload(0x40)\n      swap1\n      dup2\n      add\n      0x40\n      mstore\n      dup1\n      swap3\n      swap2\n      swap1\n      dup2\n      dup2\n      mstore\n      0x20\n      add\n      dup3\n      dup1\n      sload\n      tag_215\n      swap1\n      tag_88\n      jump\t// in\n    tag_215:\n      dup1\n      iszero\n      tag_216\n      jumpi\n      dup1\n      0x1f\n      lt\n      tag_217\n      jumpi\n      0x0100\n      dup1\n      dup4\n      sload\n      div\n      mul\n      dup4\n      mstore\n      swap2\n      0x20\n      add\n      swap2\n      jump(tag_216)\n    tag_217:\n      dup3\n      add\n      swap2\n      swap1\n      0x00\n      mstore\n      keccak256(0x00, 0x20)\n      swap1\n    tag_218:\n      dup2\n      sload\n      dup2\n      mstore\n      swap1\n      0x01\n      add\n      swap1\n      0x20\n      add\n      dup1\n      dup4\n      gt\n      tag_218\n      jumpi\n      dup3\n      swap1\n      sub\n      0x1f\n      and\n      dup3\n      add\n      swap2\n    tag_216:\n      pop\n      pop\n      pop\n      pop\n      pop\n      dup2\n      mstore\n      0x20\n      add\n      0x01\n      dup3\n      add\n      dup1\n      sload\n      tag_219\n      swap1\n      tag_88\n      jump\t// in\n    tag_219:\n      dup1\n      0x1f\n      add\n      0x20\n      dup1\n      swap2\n      div\n      mul\n      0x20\n      add\n      mload(0x40)\n      swap1\n      dup2\n      add\n      0x40\n      mstore\n      dup1\n      swap3\n      swap2\n      swap1\n      dup2\n      dup2\n      mstore\n      0x20\n      add\n      dup3\n      dup1\n      sload\n      tag_220\n      swap1\n      tag_88\n      jump\t// in\n    tag_220:\n      dup1\n      iszero\n      tag_221\n      jumpi\n      dup1\n      0x1f\n      lt\n      tag_222\n      jumpi\n      0x0100\n      dup1\n      dup4\n      sload\n      div\n      mul\n      dup4\n      mstore\n      swap2\n      0x20\n      add\n      swap2\n      jump(tag_221)\n    tag_222:\n      dup3\n      add\n      swap2\n      swap1\n      0x00\n      mstore\n      keccak256(0x00, 0x20)\n      swap1\n    tag_223:\n      dup2\n      sload\n      dup2\n      mstore\n      swap1\n      0x01\n      add\n      swap1\n      0x20\n      add\n      dup1\n      dup4\n      gt\n      tag_223\n      jumpi\n      dup3\n      swap1\n      sub\n      0x1f\n      and\n      dup3\n      add\n      swap2\n    tag_221:\n      pop\n      pop\n      pop\n      pop\n      pop\n      dup2\n      mstore\n      0x20\n      add\n      0x02\n      dup3\n      add\n      sload\n      dup2\n      mstore\n      0x20\n      add\n      0x03\n      dup3\n      add\n      dup1\n      sload\n      tag_224\n      swap1\n      tag_88\n      jump\t// in\n    tag_224:\n      dup1\n      0x1f\n      add\n      0x20\n      dup1\n      swap2\n      div\n      mul\n      0x20\n      add\n      mload(0x40)\n      swap1\n      dup2\n      add\n      0x40\n      mstore\n      dup1\n      swap3\n      swap2\n      swap1\n      dup2\n      dup2\n      mstore\n      0x20\n      add\n      dup3\n      dup1\n      sload\n      tag_225\n      swap1\n      tag_88\n      jump\t// in\n    tag_225:\n      dup1\n      iszero\n      tag_226\n      jumpi\n      dup1\n      0x1f\n      lt\n      tag_227\n      jumpi\n      0x0100\n      dup1\n      dup4\n      sload\n      div\n      mul\n      dup4\n      mstore\n      swap2\n      0x20\n      add\n      swap2\n      jump(tag_226)\n    tag_227:\n      dup3\n      add\n      swap2\n      swap1\n      0x00\n      mstore\n      keccak256(0x00, 0x20)\n      swap1\n    tag_228:\n      dup2\n      sload\n      dup2\n      mstore\n      swap1\n      0x01\n      add\n      swap1\n      0x20\n      add\n      dup1\n      dup4\n      gt\n      tag_228\n      jumpi\n      dup3\n      swap1\n      sub\n      0x1f\n      and\n      dup3\n      add\n      swap2\n    tag_226:\n      pop\n      pop\n      pop\n      pop\n      pop\n      dup2\n      mstore\n      0x20\n      add\n      0x04\n      dup3\n      add\n      0x00\n      swap1\n      sload\n      swap1\n      0x0100\n      exp\n      swap1\n      div\n      0xffffffffffffffffffffffffffffffffffffffff\n      and\n      0xffffffffffffffffffffffffffffffffffffffff\n      and\n      0xffffffffffffffffffffffffffffffffffffffff\n      and\n      dup2\n      mstore\n      0x20\n      add\n      0x05\n      dup3\n      add\n      0x00\n      swap1\n      sload\n      swap1\n      0x0100\n      exp\n      swap1\n      div\n      0xffffffffffffffffffffffffffffffffffffffff\n      and\n      0xffffffffffffffffffffffffffffffffffffffff\n      and\n      0xffffffffffffffffffffffffffffffffffffffff\n      and\n      dup2\n      mstore\n      pop\n      pop\n      swap3\n      pop\n      pop\n      pop\n        /* \"new-contracts/EduVerify.sol\":3556:3872  function getCredentialByCID(string memory cid) external view returns (Credential memory)    {... */\n      swap2\n      swap1\n      pop\n      jump\t// out\n        /* \"new-contracts/EduVerify.sol\":856:906  mapping(string => string) public cidToCredentialId */\n    tag_78:\n      0x04\n      dup2\n      dup1\n      mload\n      0x20\n      dup2\n      add\n      dup3\n      add\n      dup1\n      mload\n      dup5\n      dup3\n      mstore\n      0x20\n      dup4\n      add\n      0x20\n      dup6\n      add\n      keccak256\n      dup2\n      dup4\n      mstore\n      dup1\n      swap6\n      pop\n      pop\n      pop\n      pop\n      pop\n      pop\n      0x00\n      swap2\n      pop\n      swap1\n      pop\n      dup1\n      sload\n      tag_229\n      swap1\n      tag_88\n      jump\t// in\n    tag_229:\n      dup1\n      0x1f\n      add\n      0x20\n      dup1\n      swap2\n      div\n      mul\n      0x20\n      add\n      mload(0x40)\n      swap1\n      dup2\n      add\n      0x40\n      mstore\n      dup1\n      swap3\n      swap2\n      swap1\n      dup2\n      dup2\n      mstore\n      0x20\n      add\n      dup3\n      dup1\n      sload\n      tag_230\n      swap1\n      tag_88\n      jump\t// in\n    tag_230:\n      dup1\n      iszero\n      tag_231\n      jumpi\n      dup1\n      0x1f\n      lt\n      tag_232\n      jumpi\n      0x0100\n      dup1\n      dup4\n      sload\n      div\n      mul\n      dup4\n      mstore\n      swap2\n      0x20\n      add\n      swap2\n      jump(tag_231)\n    tag_232:\n      dup3\n      add\n      swap2\n      swap1\n      0x00\n      mstore\n      keccak256(0x00, 0x20)\n      swap1\n    tag_233:\n      dup2\n      sload\n      dup2\n      mstore\n      swap1\n      0x01\n      add\n      swap1\n      0x20\n      add\n      dup1\n      dup4\n      gt\n      tag_233\n      jumpi\n      dup3\n      swap1\n      sub\n      0x1f\n      and\n      dup3\n      add\n      swap2\n    tag_231:\n      pop\n      pop\n      pop\n      pop\n      pop\n      dup2\n      jump\t// out\n        /* \"new-contracts/EduVerify.sol\":529:597  mapping(address => mapping(string => Credential)) public credentials */\n    tag_82:\n      mstore(0x20, 0x01)\n      dup2\n      0x00\n      mstore\n      keccak256(0x00, 0x40)\n      dup2\n      dup1\n      mload\n      0x20\n      dup2\n      add\n      dup3\n      add\n      dup1\n      mload\n      dup5\n      dup3\n      mstore\n      0x20\n      dup4\n      add\n      0x20\n      dup6\n      add\n      keccak256\n      dup2\n      dup4\n      mstore\n      dup1\n      swap6\n      pop\n      pop\n      pop\n      pop\n      pop\n      pop\n      0x00\n      swap2\n      pop\n      swap2\n      pop\n      pop\n      dup1\n      0x00\n      add\n      dup1\n      sload\n      tag_234\n      swap1\n      tag_88\n      jump\t// in\n    tag_234:\n      dup1\n      0x1f\n      add\n      0x20\n      dup1\n      swap2\n      div\n      mul\n      0x20\n      add\n      mload(0x40)\n      swap1\n      dup2\n      add\n      0x40\n      mstore\n      dup1\n      swap3\n      swap2\n      swap1\n      dup2\n      dup2\n      mstore\n      0x20\n      add\n      dup3\n      dup1\n      sload\n      tag_235\n      swap1\n      tag_88\n      jump\t// in\n    tag_235:\n      dup1\n      iszero\n      tag_236\n      jumpi\n      dup1\n      0x1f\n      lt\n      tag_237\n      jumpi\n      0x0100\n      dup1\n      dup4\n      sload\n      div\n      mul\n      dup4\n      mstore\n      swap2\n      0x20\n      add\n      swap2\n      jump(tag_236)\n    tag_237:\n      dup3\n      add\n      swap2\n      swap1\n      0x00\n      mstore\n      keccak256(0x00, 0x20)\n      swap1\n    tag_238:\n      dup2\n      sload\n      dup2\n      mstore\n      swap1\n      0x01\n      add\n      swap1\n      0x20\n      add\n      dup1\n      dup4\n      gt\n      tag_238\n      jumpi\n      dup3\n      swap1\n      sub\n      0x1f\n      and\n      dup3\n      add\n      swap2\n    tag_236:\n      pop\n      pop\n      pop\n      pop\n      pop\n      swap1\n      dup1\n      0x01\n      add\n      dup1\n      sload\n      tag_239\n      swap1\n      tag_88\n      jump\t// in\n    tag_239:\n      dup1\n      0x1f\n      add\n      0x20\n      dup1\n      swap2\n      div\n      mul\n      0x20\n      add\n      mload(0x40)\n      swap1\n      dup2\n      add\n      0x40\n      mstore\n      dup1\n      swap3\n      swap2\n      swap1\n      dup2\n      dup2\n      mstore\n      0x20\n      add\n      dup3\n      dup1\n      sload\n      tag_240\n      swap1\n      tag_88\n      jump\t// in\n    tag_240:\n      dup1\n      iszero\n      tag_241\n      jumpi\n      dup1\n      0x1f\n      lt\n      tag_242\n      jumpi\n      0x0100\n      dup1\n      dup4\n      sload\n      div\n      mul\n      dup4\n      mstore\n      swap2\n      0x20\n      add\n      swap2\n      jump(tag_241)\n    tag_242:\n      dup3\n      add\n      swap2\n      swap1\n      0x00\n      mstore\n      keccak256(0x00, 0x20)\n      swap1\n    tag_243:\n      dup2\n      sload\n      dup2\n      mstore\n      swap1\n      0x01\n      add\n      swap1\n      0x20\n      add\n      dup1\n      dup4\n      gt\n      tag_243\n      jumpi\n      dup3\n      swap1\n      sub\n      0x1f\n      and\n      dup3\n      add\n      swap2\n    tag_241:\n      pop\n      pop\n      pop\n      pop\n      pop\n      swap1\n      dup1\n      0x02\n      add\n      sload\n      swap1\n      dup1\n      0x03\n      add\n      dup1\n      sload\n      tag_244\n      swap1\n      tag_88\n      jump\t// in\n    tag_244:\n      dup1\n      0x1f\n      add\n      0x20\n      dup1\n      swap2\n      div\n      mul\n      0x20\n      add\n      mload(0x40)\n      swap1\n      dup2\n      add\n      0x40\n      mstore\n      dup1\n      swap3\n      swap2\n      swap1\n      dup2\n      dup2\n      mstore\n      0x20\n      add\n      dup3\n      dup1\n      sload\n      tag_245\n      swap1\n      tag_88\n      jump\t// in\n    tag_245:\n      dup1\n      iszero\n      tag_246\n      jumpi\n      dup1\n      0x1f\n      lt\n      tag_247\n      jumpi\n      0x0100\n      dup1\n      dup4\n      sload\n      div\n      mul\n      dup4\n      mstore\n      swap2\n      0x20\n      add\n      swap2\n      jump(tag_246)\n    tag_247:\n      dup3\n      add\n      swap2\n      swap1\n      0x00\n      mstore\n      keccak256(0x00, 0x20)\n      swap1\n    tag_248:\n      dup2\n      sload\n      dup2\n      mstore\n      swap1\n      0x01\n      add\n      swap1\n      0x20\n      add\n      dup1\n      dup4\n      gt\n      tag_248\n      jumpi\n      dup3\n      swap1\n      sub\n      0x1f\n      and\n      dup3\n      add\n      swap2\n    tag_246:\n      pop\n      pop\n      pop\n      pop\n      pop\n      swap1\n      dup1\n      0x04\n      add\n      0x00\n      swap1\n      sload\n      swap1\n      0x0100\n      exp\n      swap1\n      div\n      0xffffffffffffffffffffffffffffffffffffffff\n      and\n      swap1\n      dup1\n      0x05\n      add\n      0x00\n      swap1\n      sload\n      swap1\n      0x0100\n      exp\n      swap1\n      div\n      0xffffffffffffffffffffffffffffffffffffffff\n      and\n      swap1\n      pop\n      dup7\n      jump\t// out\n    tag_99:\n      mload(0x40)\n      dup1\n      0xc0\n      add\n      0x40\n      mstore\n      dup1\n      0x60\n      dup2\n      mstore\n      0x20\n      add\n      0x60\n      dup2\n      mstore\n      0x20\n      add\n      0x00\n      dup2\n      mstore\n      0x20\n      add\n      0x60\n      dup2\n      mstore\n      0x20\n      add\n      and(0xffffffffffffffffffffffffffffffffffffffff, 0x00)\n      dup2\n      mstore\n      0x20\n      add\n      and(0xffffffffffffffffffffffffffffffffffffffff, 0x00)\n      dup2\n      mstore\n      pop\n      swap1\n      jump\t// out\n        /* \"#utility.yul\":7:82   */\n    tag_249:\n        /* \"#utility.yul\":40:46   */\n      0x00\n        /* \"#utility.yul\":73:75   */\n      0x40\n        /* \"#utility.yul\":67:76   */\n      mload\n        /* \"#utility.yul\":57:76   */\n      swap1\n      pop\n        /* \"#utility.yul\":7:82   */\n      swap1\n      jump\t// out\n        /* \"#utility.yul\":88:205   */\n    tag_250:\n        /* \"#utility.yul\":197:198   */\n      0x00\n        /* \"#utility.yul\":194:195   */\n      0x00\n        /* \"#utility.yul\":187:199   */\n      revert\n        /* \"#utility.yul\":211:328   */\n    tag_251:\n        /* \"#utility.yul\":320:321   */\n      0x00\n        /* \"#utility.yul\":317:318   */\n      0x00\n        /* \"#utility.yul\":310:322   */\n      revert\n        /* \"#utility.yul\":334:460   */\n    tag_252:\n        /* \"#utility.yul\":371:378   */\n      0x00\n        /* \"#utility.yul\":411:453   */\n      0xffffffffffffffffffffffffffffffffffffffff\n        /* \"#utility.yul\":404:409   */\n      dup3\n        /* \"#utility.yul\":400:454   */\n      and\n        /* \"#utility.yul\":389:454   */\n      swap1\n      pop\n        /* \"#utility.yul\":334:460   */\n      swap2\n      swap1\n      pop\n      jump\t// out\n        /* \"#utility.yul\":466:562   */\n    tag_253:\n        /* \"#utility.yul\":503:510   */\n      0x00\n        /* \"#utility.yul\":532:556   */\n      tag_326\n        /* \"#utility.yul\":550:555   */\n      dup3\n        /* \"#utility.yul\":532:556   */\n      tag_252\n      jump\t// in\n    tag_326:\n        /* \"#utility.yul\":521:556   */\n      swap1\n      pop\n        /* \"#utility.yul\":466:562   */\n      swap2\n      swap1\n      pop\n      jump\t// out\n        /* \"#utility.yul\":568:690   */\n    tag_254:\n        /* \"#utility.yul\":641:665   */\n      tag_328\n        /* \"#utility.yul\":659:664   */\n      dup2\n        /* \"#utility.yul\":641:665   */\n      tag_253\n      jump\t// in\n    tag_328:\n        /* \"#utility.yul\":634:639   */\n      dup2\n        /* \"#utility.yul\":631:666   */\n      eq\n        /* \"#utility.yul\":621:684   */\n      tag_329\n      jumpi\n        /* \"#utility.yul\":680:681   */\n      0x00\n        /* \"#utility.yul\":677:678   */\n      0x00\n        /* \"#utility.yul\":670:682   */\n      revert\n        /* \"#utility.yul\":621:684   */\n    tag_329:\n        /* \"#utility.yul\":568:690   */\n      pop\n      jump\t// out\n        /* \"#utility.yul\":696:835   */\n    tag_255:\n        /* \"#utility.yul\":742:747   */\n      0x00\n        /* \"#utility.yul\":780:786   */\n      dup2\n        /* \"#utility.yul\":767:787   */\n      calldataload\n        /* \"#utility.yul\":758:787   */\n      swap1\n      pop\n        /* \"#utility.yul\":796:829   */\n      tag_331\n        /* \"#utility.yul\":823:828   */\n      dup2\n        /* \"#utility.yul\":796:829   */\n      tag_254\n      jump\t// in\n    tag_331:\n        /* \"#utility.yul\":696:835   */\n      swap3\n      swap2\n      pop\n      pop\n      jump\t// out\n        /* \"#utility.yul\":841:918   */\n    tag_256:\n        /* \"#utility.yul\":878:885   */\n      0x00\n        /* \"#utility.yul\":907:912   */\n      dup2\n        /* \"#utility.yul\":896:912   */\n      swap1\n      pop\n        /* \"#utility.yul\":841:918   */\n      swap2\n      swap1\n      pop\n      jump\t// out\n        /* \"#utility.yul\":924:1046   */\n    tag_257:\n        /* \"#utility.yul\":997:1021   */\n      tag_334\n        /* \"#utility.yul\":1015:1020   */\n      dup2\n        /* \"#utility.yul\":997:1021   */\n      tag_256\n      jump\t// in\n    tag_334:\n        /* \"#utility.yul\":990:995   */\n      dup2\n        /* \"#utility.yul\":987:1022   */\n      eq\n        /* \"#utility.yul\":977:1040   */\n      tag_335\n      jumpi\n        /* \"#utility.yul\":1036:1037   */\n      0x00\n        /* \"#utility.yul\":1033:1034   */\n      0x00\n        /* \"#utility.yul\":1026:1038   */\n      revert\n        /* \"#utility.yul\":977:1040   */\n    tag_335:\n        /* \"#utility.yul\":924:1046   */\n      pop\n      jump\t// out\n        /* \"#utility.yul\":1052:1191   */\n    tag_258:\n        /* \"#utility.yul\":1098:1103   */\n      0x00\n        /* \"#utility.yul\":1136:1142   */\n      dup2\n        /* \"#utility.yul\":1123:1143   */\n      calldataload\n        /* \"#utility.yul\":1114:1143   */\n      swap1\n      pop\n        /* \"#utility.yul\":1152:1185   */\n      tag_337\n        /* \"#utility.yul\":1179:1184   */\n      dup2\n        /* \"#utility.yul\":1152:1185   */\n      tag_257\n      jump\t// in\n    tag_337:\n        /* \"#utility.yul\":1052:1191   */\n      swap3\n      swap2\n      pop\n      pop\n      jump\t// out\n        /* \"#utility.yul\":1197:1671   */\n    tag_22:\n        /* \"#utility.yul\":1265:1271   */\n      0x00\n        /* \"#utility.yul\":1273:1279   */\n      0x00\n        /* \"#utility.yul\":1322:1324   */\n      0x40\n        /* \"#utility.yul\":1310:1319   */\n      dup4\n        /* \"#utility.yul\":1301:1308   */\n      dup6\n        /* \"#utility.yul\":1297:1320   */\n      sub\n        /* \"#utility.yul\":1293:1325   */\n      slt\n        /* \"#utility.yul\":1290:1409   */\n      iszero\n      tag_339\n      jumpi\n        /* \"#utility.yul\":1328:1407   */\n      tag_340\n      tag_250\n      jump\t// in\n    tag_340:\n        /* \"#utility.yul\":1290:1409   */\n    tag_339:\n        /* \"#utility.yul\":1448:1449   */\n      0x00\n        /* \"#utility.yul\":1473:1526   */\n      tag_341\n        /* \"#utility.yul\":1518:1525   */\n      dup6\n        /* \"#utility.yul\":1509:1515   */\n      dup3\n        /* \"#utility.yul\":1498:1507   */\n      dup7\n        /* \"#utility.yul\":1494:1516   */\n      add\n        /* \"#utility.yul\":1473:1526   */\n      tag_255\n      jump\t// in\n    tag_341:\n        /* \"#utility.yul\":1463:1526   */\n      swap3\n      pop\n        /* \"#utility.yul\":1419:1536   */\n      pop\n        /* \"#utility.yul\":1575:1577   */\n      0x20\n        /* \"#utility.yul\":1601:1654   */\n      tag_342\n        /* \"#utility.yul\":1646:1653   */\n      dup6\n        /* \"#utility.yul\":1637:1643   */\n      dup3\n        /* \"#utility.yul\":1626:1635   */\n      dup7\n        /* \"#utility.yul\":1622:1644   */\n      add\n        /* \"#utility.yul\":1601:1654   */\n      tag_258\n      jump\t// in\n    tag_342:\n        /* \"#utility.yul\":1591:1654   */\n      swap2\n      pop\n        /* \"#utility.yul\":1546:1664   */\n      pop\n        /* \"#utility.yul\":1197:1671   */\n      swap3\n      pop\n      swap3\n      swap1\n      pop\n      jump\t// out\n        /* \"#utility.yul\":1677:1795   */\n    tag_259:\n        /* \"#utility.yul\":1764:1788   */\n      tag_344\n        /* \"#utility.yul\":1782:1787   */\n      dup2\n        /* \"#utility.yul\":1764:1788   */\n      tag_253\n      jump\t// in\n    tag_344:\n        /* \"#utility.yul\":1759:1762   */\n      dup3\n        /* \"#utility.yul\":1752:1789   */\n      mstore\n        /* \"#utility.yul\":1677:1795   */\n      pop\n      pop\n      jump\t// out\n        /* \"#utility.yul\":1801:1900   */\n    tag_260:\n        /* \"#utility.yul\":1853:1859   */\n      0x00\n        /* \"#utility.yul\":1887:1892   */\n      dup2\n        /* \"#utility.yul\":1881:1893   */\n      mload\n        /* \"#utility.yul\":1871:1893   */\n      swap1\n      pop\n        /* \"#utility.yul\":1801:1900   */\n      swap2\n      swap1\n      pop\n      jump\t// out\n        /* \"#utility.yul\":1906:2075   */\n    tag_261:\n        /* \"#utility.yul\":1990:2001   */\n      0x00\n        /* \"#utility.yul\":2024:2030   */\n      dup3\n        /* \"#utility.yul\":2019:2022   */\n      dup3\n        /* \"#utility.yul\":2012:2031   */\n      mstore\n        /* \"#utility.yul\":2064:2068   */\n      0x20\n        /* \"#utility.yul\":2059:2062   */\n      dup3\n        /* \"#utility.yul\":2055:2069   */\n      add\n        /* \"#utility.yul\":2040:2069   */\n      swap1\n      pop\n        /* \"#utility.yul\":1906:2075   */\n      swap3\n      swap2\n      pop\n      pop\n      jump\t// out\n        /* \"#utility.yul\":2081:2220   */\n    tag_262:\n        /* \"#utility.yul\":2170:2176   */\n      dup3\n        /* \"#utility.yul\":2165:2168   */\n      dup2\n        /* \"#utility.yul\":2160:2163   */\n      dup4\n        /* \"#utility.yul\":2154:2177   */\n      mcopy\n        /* \"#utility.yul\":2211:2212   */\n      0x00\n        /* \"#utility.yul\":2202:2208   */\n      dup4\n        /* \"#utility.yul\":2197:2200   */\n      dup4\n        /* \"#utility.yul\":2193:2209   */\n      add\n        /* \"#utility.yul\":2186:2213   */\n      mstore\n        /* \"#utility.yul\":2081:2220   */\n      pop\n      pop\n      pop\n      jump\t// out\n        /* \"#utility.yul\":2226:2328   */\n    tag_263:\n        /* \"#utility.yul\":2267:2273   */\n      0x00\n        /* \"#utility.yul\":2318:2320   */\n      0x1f\n        /* \"#utility.yul\":2314:2321   */\n      not\n        /* \"#utility.yul\":2309:2311   */\n      0x1f\n        /* \"#utility.yul\":2302:2307   */\n      dup4\n        /* \"#utility.yul\":2298:2312   */\n      add\n        /* \"#utility.yul\":2294:2322   */\n      and\n        /* \"#utility.yul\":2284:2322   */\n      swap1\n      pop\n        /* \"#utility.yul\":2226:2328   */\n      swap2\n      swap1\n      pop\n      jump\t// out\n        /* \"#utility.yul\":2334:2711   */\n    tag_264:\n        /* \"#utility.yul\":2422:2425   */\n      0x00\n        /* \"#utility.yul\":2450:2489   */\n      tag_350\n        /* \"#utility.yul\":2483:2488   */\n      dup3\n        /* \"#utility.yul\":2450:2489   */\n      tag_260\n      jump\t// in\n    tag_350:\n        /* \"#utility.yul\":2505:2576   */\n      tag_351\n        /* \"#utility.yul\":2569:2575   */\n      dup2\n        /* \"#utility.yul\":2564:2567   */\n      dup6\n        /* \"#utility.yul\":2505:2576   */\n      tag_261\n      jump\t// in\n    tag_351:\n        /* \"#utility.yul\":2498:2576   */\n      swap4\n      pop\n        /* \"#utility.yul\":2585:2650   */\n      tag_352\n        /* \"#utility.yul\":2643:2649   */\n      dup2\n        /* \"#utility.yul\":2638:2641   */\n      dup6\n        /* \"#utility.yul\":2631:2635   */\n      0x20\n        /* \"#utility.yul\":2624:2629   */\n      dup7\n        /* \"#utility.yul\":2620:2636   */\n      add\n        /* \"#utility.yul\":2585:2650   */\n      tag_262\n      jump\t// in\n    tag_352:\n        /* \"#utility.yul\":2675:2704   */\n      tag_353\n        /* \"#utility.yul\":2697:2703   */\n      dup2\n        /* \"#utility.yul\":2675:2704   */\n      tag_263\n      jump\t// in\n    tag_353:\n        /* \"#utility.yul\":2670:2673   */\n      dup5\n        /* \"#utility.yul\":2666:2705   */\n      add\n        /* \"#utility.yul\":2659:2705   */\n      swap2\n      pop\n        /* \"#utility.yul\":2426:2711   */\n      pop\n        /* \"#utility.yul\":2334:2711   */\n      swap3\n      swap2\n      pop\n      pop\n      jump\t// out\n        /* \"#utility.yul\":2717:3140   */\n    tag_25:\n        /* \"#utility.yul\":2858:2862   */\n      0x00\n        /* \"#utility.yul\":2896:2898   */\n      0x40\n        /* \"#utility.yul\":2885:2894   */\n      dup3\n        /* \"#utility.yul\":2881:2899   */\n      add\n        /* \"#utility.yul\":2873:2899   */\n      swap1\n      pop\n        /* \"#utility.yul\":2909:2980   */\n      tag_355\n        /* \"#utility.yul\":2977:2978   */\n      0x00\n        /* \"#utility.yul\":2966:2975   */\n      dup4\n        /* \"#utility.yul\":2962:2979   */\n      add\n        /* \"#utility.yul\":2953:2959   */\n      dup6\n        /* \"#utility.yul\":2909:2980   */\n      tag_259\n      jump\t// in\n    tag_355:\n        /* \"#utility.yul\":3027:3036   */\n      dup2\n        /* \"#utility.yul\":3021:3025   */\n      dup2\n        /* \"#utility.yul\":3017:3037   */\n      sub\n        /* \"#utility.yul\":3012:3014   */\n      0x20\n        /* \"#utility.yul\":3001:3010   */\n      dup4\n        /* \"#utility.yul\":2997:3015   */\n      add\n        /* \"#utility.yul\":2990:3038   */\n      mstore\n        /* \"#utility.yul\":3055:3133   */\n      tag_356\n        /* \"#utility.yul\":3128:3132   */\n      dup2\n        /* \"#utility.yul\":3119:3125   */\n      dup5\n        /* \"#utility.yul\":3055:3133   */\n      tag_264\n      jump\t// in\n    tag_356:\n        /* \"#utility.yul\":3047:3133   */\n      swap1\n      pop\n        /* \"#utility.yul\":2717:3140   */\n      swap4\n      swap3\n      pop\n      pop\n      pop\n      jump\t// out\n        /* \"#utility.yul\":3146:3475   */\n    tag_28:\n        /* \"#utility.yul\":3205:3211   */\n      0x00\n        /* \"#utility.yul\":3254:3256   */\n      0x20\n        /* \"#utility.yul\":3242:3251   */\n      dup3\n        /* \"#utility.yul\":3233:3240   */\n      dup5\n        /* \"#utility.yul\":3229:3252   */\n      sub\n        /* \"#utility.yul\":3225:3257   */\n      slt\n        /* \"#utility.yul\":3222:3341   */\n      iszero\n      tag_358\n      jumpi\n        /* \"#utility.yul\":3260:3339   */\n      tag_359\n      tag_250\n      jump\t// in\n    tag_359:\n        /* \"#utility.yul\":3222:3341   */\n    tag_358:\n        /* \"#utility.yul\":3380:3381   */\n      0x00\n        /* \"#utility.yul\":3405:3458   */\n      tag_360\n        /* \"#utility.yul\":3450:3457   */\n      dup5\n        /* \"#utility.yul\":3441:3447   */\n      dup3\n        /* \"#utility.yul\":3430:3439   */\n      dup6\n        /* \"#utility.yul\":3426:3448   */\n      add\n        /* \"#utility.yul\":3405:3458   */\n      tag_255\n      jump\t// in\n    tag_360:\n        /* \"#utility.yul\":3395:3458   */\n      swap2\n      pop\n        /* \"#utility.yul\":3351:3468   */\n      pop\n        /* \"#utility.yul\":3146:3475   */\n      swap3\n      swap2\n      pop\n      pop\n      jump\t// out\n        /* \"#utility.yul\":3481:3571   */\n    tag_265:\n        /* \"#utility.yul\":3515:3522   */\n      0x00\n        /* \"#utility.yul\":3558:3563   */\n      dup2\n        /* \"#utility.yul\":3551:3564   */\n      iszero\n        /* \"#utility.yul\":3544:3565   */\n      iszero\n        /* \"#utility.yul\":3533:3565   */\n      swap1\n      pop\n        /* \"#utility.yul\":3481:3571   */\n      swap2\n      swap1\n      pop\n      jump\t// out\n        /* \"#utility.yul\":3577:3686   */\n    tag_266:\n        /* \"#utility.yul\":3658:3679   */\n      tag_363\n        /* \"#utility.yul\":3673:3678   */\n      dup2\n        /* \"#utility.yul\":3658:3679   */\n      tag_265\n      jump\t// in\n    tag_363:\n        /* \"#utility.yul\":3653:3656   */\n      dup3\n        /* \"#utility.yul\":3646:3680   */\n      mstore\n        /* \"#utility.yul\":3577:3686   */\n      pop\n      pop\n      jump\t// out\n        /* \"#utility.yul\":3692:3902   */\n    tag_31:\n        /* \"#utility.yul\":3779:3783   */\n      0x00\n        /* \"#utility.yul\":3817:3819   */\n      0x20\n        /* \"#utility.yul\":3806:3815   */\n      dup3\n        /* \"#utility.yul\":3802:3820   */\n      add\n        /* \"#utility.yul\":3794:3820   */\n      swap1\n      pop\n        /* \"#utility.yul\":3830:3895   */\n      tag_365\n        /* \"#utility.yul\":3892:3893   */\n      0x00\n        /* \"#utility.yul\":3881:3890   */\n      dup4\n        /* \"#utility.yul\":3877:3894   */\n      add\n        /* \"#utility.yul\":3868:3874   */\n      dup5\n        /* \"#utility.yul\":3830:3895   */\n      tag_266\n      jump\t// in\n    tag_365:\n        /* \"#utility.yul\":3692:3902   */\n      swap3\n      swap2\n      pop\n      pop\n      jump\t// out\n        /* \"#utility.yul\":3908:4025   */\n    tag_267:\n        /* \"#utility.yul\":4017:4018   */\n      0x00\n        /* \"#utility.yul\":4014:4015   */\n      0x00\n        /* \"#utility.yul\":4007:4019   */\n      revert\n        /* \"#utility.yul\":4031:4148   */\n    tag_268:\n        /* \"#utility.yul\":4140:4141   */\n      0x00\n        /* \"#utility.yul\":4137:4138   */\n      0x00\n        /* \"#utility.yul\":4130:4142   */\n      revert\n        /* \"#utility.yul\":4154:4334   */\n    tag_129:\n        /* \"#utility.yul\":4202:4279   */\n      0x4e487b7100000000000000000000000000000000000000000000000000000000\n        /* \"#utility.yul\":4199:4200   */\n      0x00\n        /* \"#utility.yul\":4192:4280   */\n      mstore\n        /* \"#utility.yul\":4299:4303   */\n      0x41\n        /* \"#utility.yul\":4296:4297   */\n      0x04\n        /* \"#utility.yul\":4289:4304   */\n      mstore\n        /* \"#utility.yul\":4323:4327   */\n      0x24\n        /* \"#utility.yul\":4320:4321   */\n      0x00\n        /* \"#utility.yul\":4313:4328   */\n      revert\n        /* \"#utility.yul\":4340:4621   */\n    tag_269:\n        /* \"#utility.yul\":4423:4450   */\n      tag_370\n        /* \"#utility.yul\":4445:4449   */\n      dup3\n        /* \"#utility.yul\":4423:4450   */\n      tag_263\n      jump\t// in\n    tag_370:\n        /* \"#utility.yul\":4415:4421   */\n      dup2\n        /* \"#utility.yul\":4411:4451   */\n      add\n        /* \"#utility.yul\":4553:4559   */\n      dup2\n        /* \"#utility.yul\":4541:4551   */\n      dup2\n        /* \"#utility.yul\":4538:4560   */\n      lt\n        /* \"#utility.yul\":4517:4535   */\n      0xffffffffffffffff\n        /* \"#utility.yul\":4505:4515   */\n      dup3\n        /* \"#utility.yul\":4502:4536   */\n      gt\n        /* \"#utility.yul\":4499:4561   */\n      or\n        /* \"#utility.yul\":4496:4584   */\n      iszero\n      tag_371\n      jumpi\n        /* \"#utility.yul\":4564:4582   */\n      tag_372\n      tag_129\n      jump\t// in\n    tag_372:\n        /* \"#utility.yul\":4496:4584   */\n    tag_371:\n        /* \"#utility.yul\":4604:4614   */\n      dup1\n        /* \"#utility.yul\":4600:4602   */\n      0x40\n        /* \"#utility.yul\":4593:4615   */\n      mstore\n        /* \"#utility.yul\":4383:4621   */\n      pop\n        /* \"#utility.yul\":4340:4621   */\n      pop\n      pop\n      jump\t// out\n        /* \"#utility.yul\":4627:4756   */\n    tag_270:\n        /* \"#utility.yul\":4661:4667   */\n      0x00\n        /* \"#utility.yul\":4688:4708   */\n      tag_374\n      tag_249\n      jump\t// in\n    tag_374:\n        /* \"#utility.yul\":4678:4708   */\n      swap1\n      pop\n        /* \"#utility.yul\":4717:4750   */\n      tag_375\n        /* \"#utility.yul\":4745:4749   */\n      dup3\n        /* \"#utility.yul\":4737:4743   */\n      dup3\n        /* \"#utility.yul\":4717:4750   */\n      tag_269\n      jump\t// in\n    tag_375:\n        /* \"#utility.yul\":4627:4756   */\n      swap2\n      swap1\n      pop\n      jump\t// out\n        /* \"#utility.yul\":4762:5070   */\n    tag_271:\n        /* \"#utility.yul\":4824:4828   */\n      0x00\n        /* \"#utility.yul\":4914:4932   */\n      0xffffffffffffffff\n        /* \"#utility.yul\":4906:4912   */\n      dup3\n        /* \"#utility.yul\":4903:4933   */\n      gt\n        /* \"#utility.yul\":4900:4956   */\n      iszero\n      tag_377\n      jumpi\n        /* \"#utility.yul\":4936:4954   */\n      tag_378\n      tag_129\n      jump\t// in\n    tag_378:\n        /* \"#utility.yul\":4900:4956   */\n    tag_377:\n        /* \"#utility.yul\":4974:5003   */\n      tag_379\n        /* \"#utility.yul\":4996:5002   */\n      dup3\n        /* \"#utility.yul\":4974:5003   */\n      tag_263\n      jump\t// in\n    tag_379:\n        /* \"#utility.yul\":4966:5003   */\n      swap1\n      pop\n        /* \"#utility.yul\":5058:5062   */\n      0x20\n        /* \"#utility.yul\":5052:5056   */\n      dup2\n        /* \"#utility.yul\":5048:5063   */\n      add\n        /* \"#utility.yul\":5040:5063   */\n      swap1\n      pop\n        /* \"#utility.yul\":4762:5070   */\n      swap2\n      swap1\n      pop\n      jump\t// out\n        /* \"#utility.yul\":5076:5224   */\n    tag_272:\n        /* \"#utility.yul\":5174:5180   */\n      dup3\n        /* \"#utility.yul\":5169:5172   */\n      dup2\n        /* \"#utility.yul\":5164:5167   */\n      dup4\n        /* \"#utility.yul\":5151:5181   */\n      calldatacopy\n        /* \"#utility.yul\":5215:5216   */\n      0x00\n        /* \"#utility.yul\":5206:5212   */\n      dup4\n        /* \"#utility.yul\":5201:5204   */\n      dup4\n        /* \"#utility.yul\":5197:5213   */\n      add\n        /* \"#utility.yul\":5190:5217   */\n      mstore\n        /* \"#utility.yul\":5076:5224   */\n      pop\n      pop\n      pop\n      jump\t// out\n        /* \"#utility.yul\":5230:5655   */\n    tag_273:\n        /* \"#utility.yul\":5308:5313   */\n      0x00\n        /* \"#utility.yul\":5333:5399   */\n      tag_382\n        /* \"#utility.yul\":5349:5398   */\n      tag_383\n        /* \"#utility.yul\":5391:5397   */\n      dup5\n        /* \"#utility.yul\":5349:5398   */\n      tag_271\n      jump\t// in\n    tag_383:\n        /* \"#utility.yul\":5333:5399   */\n      tag_270\n      jump\t// in\n    tag_382:\n        /* \"#utility.yul\":5324:5399   */\n      swap1\n      pop\n        /* \"#utility.yul\":5422:5428   */\n      dup3\n        /* \"#utility.yul\":5415:5420   */\n      dup2\n        /* \"#utility.yul\":5408:5429   */\n      mstore\n        /* \"#utility.yul\":5460:5464   */\n      0x20\n        /* \"#utility.yul\":5453:5458   */\n      dup2\n        /* \"#utility.yul\":5449:5465   */\n      add\n        /* \"#utility.yul\":5498:5501   */\n      dup5\n        /* \"#utility.yul\":5489:5495   */\n      dup5\n        /* \"#utility.yul\":5484:5487   */\n      dup5\n        /* \"#utility.yul\":5480:5496   */\n      add\n        /* \"#utility.yul\":5477:5502   */\n      gt\n        /* \"#utility.yul\":5474:5586   */\n      iszero\n      tag_384\n      jumpi\n        /* \"#utility.yul\":5505:5584   */\n      tag_385\n      tag_268\n      jump\t// in\n    tag_385:\n        /* \"#utility.yul\":5474:5586   */\n    tag_384:\n        /* \"#utility.yul\":5595:5649   */\n      tag_386\n        /* \"#utility.yul\":5642:5648   */\n      dup5\n        /* \"#utility.yul\":5637:5640   */\n      dup3\n        /* \"#utility.yul\":5632:5635   */\n      dup6\n        /* \"#utility.yul\":5595:5649   */\n      tag_272\n      jump\t// in\n    tag_386:\n        /* \"#utility.yul\":5314:5655   */\n      pop\n        /* \"#utility.yul\":5230:5655   */\n      swap4\n      swap3\n      pop\n      pop\n      pop\n      jump\t// out\n        /* \"#utility.yul\":5675:6015   */\n    tag_274:\n        /* \"#utility.yul\":5731:5736   */\n      0x00\n        /* \"#utility.yul\":5780:5783   */\n      dup3\n        /* \"#utility.yul\":5773:5777   */\n      0x1f\n        /* \"#utility.yul\":5765:5771   */\n      dup4\n        /* \"#utility.yul\":5761:5778   */\n      add\n        /* \"#utility.yul\":5757:5784   */\n      slt\n        /* \"#utility.yul\":5747:5869   */\n      tag_388\n      jumpi\n        /* \"#utility.yul\":5788:5867   */\n      tag_389\n      tag_267\n      jump\t// in\n    tag_389:\n        /* \"#utility.yul\":5747:5869   */\n    tag_388:\n        /* \"#utility.yul\":5905:5911   */\n      dup2\n        /* \"#utility.yul\":5892:5912   */\n      calldataload\n        /* \"#utility.yul\":5930:6009   */\n      tag_390\n        /* \"#utility.yul\":6005:6008   */\n      dup5\n        /* \"#utility.yul\":5997:6003   */\n      dup3\n        /* \"#utility.yul\":5990:5994   */\n      0x20\n        /* \"#utility.yul\":5982:5988   */\n      dup7\n        /* \"#utility.yul\":5978:5995   */\n      add\n        /* \"#utility.yul\":5930:6009   */\n      tag_273\n      jump\t// in\n    tag_390:\n        /* \"#utility.yul\":5921:6009   */\n      swap2\n      pop\n        /* \"#utility.yul\":5737:6015   */\n      pop\n        /* \"#utility.yul\":5675:6015   */\n      swap3\n      swap2\n      pop\n      pop\n      jump\t// out\n        /* \"#utility.yul\":6021:6675   */\n    tag_37:\n        /* \"#utility.yul\":6099:6105   */\n      0x00\n        /* \"#utility.yul\":6107:6113   */\n      0x00\n        /* \"#utility.yul\":6156:6158   */\n      0x40\n        /* \"#utility.yul\":6144:6153   */\n      dup4\n        /* \"#utility.yul\":6135:6142   */\n      dup6\n        /* \"#utility.yul\":6131:6154   */\n      sub\n        /* \"#utility.yul\":6127:6159   */\n      slt\n        /* \"#utility.yul\":6124:6243   */\n      iszero\n      tag_392\n      jumpi\n        /* \"#utility.yul\":6162:6241   */\n      tag_393\n      tag_250\n      jump\t// in\n    tag_393:\n        /* \"#utility.yul\":6124:6243   */\n    tag_392:\n        /* \"#utility.yul\":6282:6283   */\n      0x00\n        /* \"#utility.yul\":6307:6360   */\n      tag_394\n        /* \"#utility.yul\":6352:6359   */\n      dup6\n        /* \"#utility.yul\":6343:6349   */\n      dup3\n        /* \"#utility.yul\":6332:6341   */\n      dup7\n        /* \"#utility.yul\":6328:6350   */\n      add\n        /* \"#utility.yul\":6307:6360   */\n      tag_255\n      jump\t// in\n    tag_394:\n        /* \"#utility.yul\":6297:6360   */\n      swap3\n      pop\n        /* \"#utility.yul\":6253:6370   */\n      pop\n        /* \"#utility.yul\":6437:6439   */\n      0x20\n        /* \"#utility.yul\":6426:6435   */\n      dup4\n        /* \"#utility.yul\":6422:6440   */\n      add\n        /* \"#utility.yul\":6409:6441   */\n      calldataload\n        /* \"#utility.yul\":6468:6486   */\n      0xffffffffffffffff\n        /* \"#utility.yul\":6460:6466   */\n      dup2\n        /* \"#utility.yul\":6457:6487   */\n      gt\n        /* \"#utility.yul\":6454:6571   */\n      iszero\n      tag_395\n      jumpi\n        /* \"#utility.yul\":6490:6569   */\n      tag_396\n      tag_251\n      jump\t// in\n    tag_396:\n        /* \"#utility.yul\":6454:6571   */\n    tag_395:\n        /* \"#utility.yul\":6595:6658   */\n      tag_397\n        /* \"#utility.yul\":6650:6657   */\n      dup6\n        /* \"#utility.yul\":6641:6647   */\n      dup3\n        /* \"#utility.yul\":6630:6639   */\n      dup7\n        /* \"#utility.yul\":6626:6648   */\n      add\n        /* \"#utility.yul\":6595:6658   */\n      tag_274\n      jump\t// in\n    tag_397:\n        /* \"#utility.yul\":6585:6658   */\n      swap2\n      pop\n        /* \"#utility.yul\":6380:6668   */\n      pop\n        /* \"#utility.yul\":6021:6675   */\n      swap3\n      pop\n      swap3\n      swap1\n      pop\n      jump\t// out\n        /* \"#utility.yul\":6681:6840   */\n    tag_275:\n        /* \"#utility.yul\":6755:6766   */\n      0x00\n        /* \"#utility.yul\":6789:6795   */\n      dup3\n        /* \"#utility.yul\":6784:6787   */\n      dup3\n        /* \"#utility.yul\":6777:6796   */\n      mstore\n        /* \"#utility.yul\":6829:6833   */\n      0x20\n        /* \"#utility.yul\":6824:6827   */\n      dup3\n        /* \"#utility.yul\":6820:6834   */\n      add\n        /* \"#utility.yul\":6805:6834   */\n      swap1\n      pop\n        /* \"#utility.yul\":6681:6840   */\n      swap3\n      swap2\n      pop\n      pop\n      jump\t// out\n        /* \"#utility.yul\":6846:7203   */\n    tag_276:\n        /* \"#utility.yul\":6924:6927   */\n      0x00\n        /* \"#utility.yul\":6952:6991   */\n      tag_400\n        /* \"#utility.yul\":6985:6990   */\n      dup3\n        /* \"#utility.yul\":6952:6991   */\n      tag_260\n      jump\t// in\n    tag_400:\n        /* \"#utility.yul\":7007:7068   */\n      tag_401\n        /* \"#utility.yul\":7061:7067   */\n      dup2\n        /* \"#utility.yul\":7056:7059   */\n      dup6\n        /* \"#utility.yul\":7007:7068   */\n      tag_275\n      jump\t// in\n    tag_401:\n        /* \"#utility.yul\":7000:7068   */\n      swap4\n      pop\n        /* \"#utility.yul\":7077:7142   */\n      tag_402\n        /* \"#utility.yul\":7135:7141   */\n      dup2\n        /* \"#utility.yul\":7130:7133   */\n      dup6\n        /* \"#utility.yul\":7123:7127   */\n      0x20\n        /* \"#utility.yul\":7116:7121   */\n      dup7\n        /* \"#utility.yul\":7112:7128   */\n      add\n        /* \"#utility.yul\":7077:7142   */\n      tag_262\n      jump\t// in\n    tag_402:\n        /* \"#utility.yul\":7167:7196   */\n      tag_403\n        /* \"#utility.yul\":7189:7195   */\n      dup2\n        /* \"#utility.yul\":7167:7196   */\n      tag_263\n      jump\t// in\n    tag_403:\n        /* \"#utility.yul\":7162:7165   */\n      dup5\n        /* \"#utility.yul\":7158:7197   */\n      add\n        /* \"#utility.yul\":7151:7197   */\n      swap2\n      pop\n        /* \"#utility.yul\":6928:7203   */\n      pop\n        /* \"#utility.yul\":6846:7203   */\n      swap3\n      swap2\n      pop\n      pop\n      jump\t// out\n        /* \"#utility.yul\":7209:7317   */\n    tag_277:\n        /* \"#utility.yul\":7286:7310   */\n      tag_405\n        /* \"#utility.yul\":7304:7309   */\n      dup2\n        /* \"#utility.yul\":7286:7310   */\n      tag_256\n      jump\t// in\n    tag_405:\n        /* \"#utility.yul\":7281:7284   */\n      dup3\n        /* \"#utility.yul\":7274:7311   */\n      mstore\n        /* \"#utility.yul\":7209:7317   */\n      pop\n      pop\n      jump\t// out\n        /* \"#utility.yul\":7323:7431   */\n    tag_278:\n        /* \"#utility.yul\":7400:7424   */\n      tag_407\n        /* \"#utility.yul\":7418:7423   */\n      dup2\n        /* \"#utility.yul\":7400:7424   */\n      tag_253\n      jump\t// in\n    tag_407:\n        /* \"#utility.yul\":7395:7398   */\n      dup3\n        /* \"#utility.yul\":7388:7425   */\n      mstore\n        /* \"#utility.yul\":7323:7431   */\n      pop\n      pop\n      jump\t// out\n        /* \"#utility.yul\":7503:8974   */\n    tag_279:\n        /* \"#utility.yul\":7624:7627   */\n      0x00\n        /* \"#utility.yul\":7660:7664   */\n      0xc0\n        /* \"#utility.yul\":7655:7658   */\n      dup4\n        /* \"#utility.yul\":7651:7665   */\n      add\n        /* \"#utility.yul\":7754:7758   */\n      0x00\n        /* \"#utility.yul\":7747:7752   */\n      dup4\n        /* \"#utility.yul\":7743:7759   */\n      add\n        /* \"#utility.yul\":7737:7760   */\n      mload\n        /* \"#utility.yul\":7807:7810   */\n      dup5\n        /* \"#utility.yul\":7801:7805   */\n      dup3\n        /* \"#utility.yul\":7797:7811   */\n      sub\n        /* \"#utility.yul\":7790:7794   */\n      0x00\n        /* \"#utility.yul\":7785:7788   */\n      dup7\n        /* \"#utility.yul\":7781:7795   */\n      add\n        /* \"#utility.yul\":7774:7812   */\n      mstore\n        /* \"#utility.yul\":7833:7906   */\n      tag_409\n        /* \"#utility.yul\":7901:7905   */\n      dup3\n        /* \"#utility.yul\":7887:7899   */\n      dup3\n        /* \"#utility.yul\":7833:7906   */\n      tag_276\n      jump\t// in\n    tag_409:\n        /* \"#utility.yul\":7825:7906   */\n      swap2\n      pop\n        /* \"#utility.yul\":7675:7917   */\n      pop\n        /* \"#utility.yul\":8001:8005   */\n      0x20\n        /* \"#utility.yul\":7994:7999   */\n      dup4\n        /* \"#utility.yul\":7990:8006   */\n      add\n        /* \"#utility.yul\":7984:8007   */\n      mload\n        /* \"#utility.yul\":8054:8057   */\n      dup5\n        /* \"#utility.yul\":8048:8052   */\n      dup3\n        /* \"#utility.yul\":8044:8058   */\n      sub\n        /* \"#utility.yul\":8037:8041   */\n      0x20\n        /* \"#utility.yul\":8032:8035   */\n      dup7\n        /* \"#utility.yul\":8028:8042   */\n      add\n        /* \"#utility.yul\":8021:8059   */\n      mstore\n        /* \"#utility.yul\":8080:8153   */\n      tag_410\n        /* \"#utility.yul\":8148:8152   */\n      dup3\n        /* \"#utility.yul\":8134:8146   */\n      dup3\n        /* \"#utility.yul\":8080:8153   */\n      tag_276\n      jump\t// in\n    tag_410:\n        /* \"#utility.yul\":8072:8153   */\n      swap2\n      pop\n        /* \"#utility.yul\":7927:8164   */\n      pop\n        /* \"#utility.yul\":8251:8255   */\n      0x40\n        /* \"#utility.yul\":8244:8249   */\n      dup4\n        /* \"#utility.yul\":8240:8256   */\n      add\n        /* \"#utility.yul\":8234:8257   */\n      mload\n        /* \"#utility.yul\":8270:8333   */\n      tag_411\n        /* \"#utility.yul\":8327:8331   */\n      0x40\n        /* \"#utility.yul\":8322:8325   */\n      dup7\n        /* \"#utility.yul\":8318:8332   */\n      add\n        /* \"#utility.yul\":8304:8316   */\n      dup3\n        /* \"#utility.yul\":8270:8333   */\n      tag_277\n      jump\t// in\n    tag_411:\n        /* \"#utility.yul\":8174:8343   */\n      pop\n        /* \"#utility.yul\":8424:8428   */\n      0x60\n        /* \"#utility.yul\":8417:8422   */\n      dup4\n        /* \"#utility.yul\":8413:8429   */\n      add\n        /* \"#utility.yul\":8407:8430   */\n      mload\n        /* \"#utility.yul\":8477:8480   */\n      dup5\n        /* \"#utility.yul\":8471:8475   */\n      dup3\n        /* \"#utility.yul\":8467:8481   */\n      sub\n        /* \"#utility.yul\":8460:8464   */\n      0x60\n        /* \"#utility.yul\":8455:8458   */\n      dup7\n        /* \"#utility.yul\":8451:8465   */\n      add\n        /* \"#utility.yul\":8444:8482   */\n      mstore\n        /* \"#utility.yul\":8503:8576   */\n      tag_412\n        /* \"#utility.yul\":8571:8575   */\n      dup3\n        /* \"#utility.yul\":8557:8569   */\n      dup3\n        /* \"#utility.yul\":8503:8576   */\n      tag_276\n      jump\t// in\n    tag_412:\n        /* \"#utility.yul\":8495:8576   */\n      swap2\n      pop\n        /* \"#utility.yul\":8353:8587   */\n      pop\n        /* \"#utility.yul\":8671:8675   */\n      0x80\n        /* \"#utility.yul\":8664:8669   */\n      dup4\n        /* \"#utility.yul\":8660:8676   */\n      add\n        /* \"#utility.yul\":8654:8677   */\n      mload\n        /* \"#utility.yul\":8690:8753   */\n      tag_413\n        /* \"#utility.yul\":8747:8751   */\n      0x80\n        /* \"#utility.yul\":8742:8745   */\n      dup7\n        /* \"#utility.yul\":8738:8752   */\n      add\n        /* \"#utility.yul\":8724:8736   */\n      dup3\n        /* \"#utility.yul\":8690:8753   */\n      tag_278\n      jump\t// in\n    tag_413:\n        /* \"#utility.yul\":8597:8763   */\n      pop\n        /* \"#utility.yul\":8855:8859   */\n      0xa0\n        /* \"#utility.yul\":8848:8853   */\n      dup4\n        /* \"#utility.yul\":8844:8860   */\n      add\n        /* \"#utility.yul\":8838:8861   */\n      mload\n        /* \"#utility.yul\":8874:8937   */\n      tag_414\n        /* \"#utility.yul\":8931:8935   */\n      0xa0\n        /* \"#utility.yul\":8926:8929   */\n      dup7\n        /* \"#utility.yul\":8922:8936   */\n      add\n        /* \"#utility.yul\":8908:8920   */\n      dup3\n        /* \"#utility.yul\":8874:8937   */\n      tag_278\n      jump\t// in\n    tag_414:\n        /* \"#utility.yul\":8773:8947   */\n      pop\n        /* \"#utility.yul\":8964:8968   */\n      dup1\n        /* \"#utility.yul\":8957:8968   */\n      swap2\n      pop\n        /* \"#utility.yul\":7629:8974   */\n      pop\n        /* \"#utility.yul\":7503:8974   */\n      swap3\n      swap2\n      pop\n      pop\n      jump\t// out\n        /* \"#utility.yul\":8980:9357   */\n    tag_40:\n        /* \"#utility.yul\":9125:9129   */\n      0x00\n        /* \"#utility.yul\":9163:9165   */\n      0x20\n        /* \"#utility.yul\":9152:9161   */\n      dup3\n        /* \"#utility.yul\":9148:9166   */\n      add\n        /* \"#utility.yul\":9140:9166   */\n      swap1\n      pop\n        /* \"#utility.yul\":9212:9221   */\n      dup2\n        /* \"#utility.yul\":9206:9210   */\n      dup2\n        /* \"#utility.yul\":9202:9222   */\n      sub\n        /* \"#utility.yul\":9198:9199   */\n      0x00\n        /* \"#utility.yul\":9187:9196   */\n      dup4\n        /* \"#utility.yul\":9183:9200   */\n      add\n        /* \"#utility.yul\":9176:9223   */\n      mstore\n        /* \"#utility.yul\":9240:9350   */\n      tag_416\n        /* \"#utility.yul\":9345:9349   */\n      dup2\n        /* \"#utility.yul\":9336:9342   */\n      dup5\n        /* \"#utility.yul\":9240:9350   */\n      tag_279\n      jump\t// in\n    tag_416:\n        /* \"#utility.yul\":9232:9350   */\n      swap1\n      pop\n        /* \"#utility.yul\":8980:9357   */\n      swap3\n      swap2\n      pop\n      pop\n      jump\t// out\n        /* \"#utility.yul\":9363:9503   */\n    tag_280:\n        /* \"#utility.yul\":9456:9462   */\n      0x00\n        /* \"#utility.yul\":9490:9495   */\n      dup2\n        /* \"#utility.yul\":9484:9496   */\n      mload\n        /* \"#utility.yul\":9474:9496   */\n      swap1\n      pop\n        /* \"#utility.yul\":9363:9503   */\n      swap2\n      swap1\n      pop\n      jump\t// out\n        /* \"#utility.yul\":9509:9719   */\n    tag_281:\n        /* \"#utility.yul\":9634:9645   */\n      0x00\n        /* \"#utility.yul\":9668:9674   */\n      dup3\n        /* \"#utility.yul\":9663:9666   */\n      dup3\n        /* \"#utility.yul\":9656:9675   */\n      mstore\n        /* \"#utility.yul\":9708:9712   */\n      0x20\n        /* \"#utility.yul\":9703:9706   */\n      dup3\n        /* \"#utility.yul\":9699:9713   */\n      add\n        /* \"#utility.yul\":9684:9713   */\n      swap1\n      pop\n        /* \"#utility.yul\":9509:9719   */\n      swap3\n      swap2\n      pop\n      pop\n      jump\t// out\n        /* \"#utility.yul\":9725:9883   */\n    tag_282:\n        /* \"#utility.yul\":9818:9822   */\n      0x00\n        /* \"#utility.yul\":9841:9844   */\n      dup2\n        /* \"#utility.yul\":9833:9844   */\n      swap1\n      pop\n        /* \"#utility.yul\":9871:9875   */\n      0x20\n        /* \"#utility.yul\":9866:9869   */\n      dup3\n        /* \"#utility.yul\":9862:9876   */\n      add\n        /* \"#utility.yul\":9854:9876   */\n      swap1\n      pop\n        /* \"#utility.yul\":9725:9883   */\n      swap2\n      swap1\n      pop\n      jump\t// out\n        /* \"#utility.yul\":9955:11416   */\n    tag_283:\n        /* \"#utility.yul\":10066:10069   */\n      0x00\n        /* \"#utility.yul\":10102:10106   */\n      0xc0\n        /* \"#utility.yul\":10097:10100   */\n      dup4\n        /* \"#utility.yul\":10093:10107   */\n      add\n        /* \"#utility.yul\":10196:10200   */\n      0x00\n        /* \"#utility.yul\":10189:10194   */\n      dup4\n        /* \"#utility.yul\":10185:10201   */\n      add\n        /* \"#utility.yul\":10179:10202   */\n      mload\n        /* \"#utility.yul\":10249:10252   */\n      dup5\n        /* \"#utility.yul\":10243:10247   */\n      dup3\n        /* \"#utility.yul\":10239:10253   */\n      sub\n        /* \"#utility.yul\":10232:10236   */\n      0x00\n        /* \"#utility.yul\":10227:10230   */\n      dup7\n        /* \"#utility.yul\":10223:10237   */\n      add\n        /* \"#utility.yul\":10216:10254   */\n      mstore\n        /* \"#utility.yul\":10275:10348   */\n      tag_421\n        /* \"#utility.yul\":10343:10347   */\n      dup3\n        /* \"#utility.yul\":10329:10341   */\n      dup3\n        /* \"#utility.yul\":10275:10348   */\n      tag_276\n      jump\t// in\n    tag_421:\n        /* \"#utility.yul\":10267:10348   */\n      swap2\n      pop\n        /* \"#utility.yul\":10117:10359   */\n      pop\n        /* \"#utility.yul\":10443:10447   */\n      0x20\n        /* \"#utility.yul\":10436:10441   */\n      dup4\n        /* \"#utility.yul\":10432:10448   */\n      add\n        /* \"#utility.yul\":10426:10449   */\n      mload\n        /* \"#utility.yul\":10496:10499   */\n      dup5\n        /* \"#utility.yul\":10490:10494   */\n      dup3\n        /* \"#utility.yul\":10486:10500   */\n      sub\n        /* \"#utility.yul\":10479:10483   */\n      0x20\n        /* \"#utility.yul\":10474:10477   */\n      dup7\n        /* \"#utility.yul\":10470:10484   */\n      add\n        /* \"#utility.yul\":10463:10501   */\n      mstore\n        /* \"#utility.yul\":10522:10595   */\n      tag_422\n        /* \"#utility.yul\":10590:10594   */\n      dup3\n        /* \"#utility.yul\":10576:10588   */\n      dup3\n        /* \"#utility.yul\":10522:10595   */\n      tag_276\n      jump\t// in\n    tag_422:\n        /* \"#utility.yul\":10514:10595   */\n      swap2\n      pop\n        /* \"#utility.yul\":10369:10606   */\n      pop\n        /* \"#utility.yul\":10693:10697   */\n      0x40\n        /* \"#utility.yul\":10686:10691   */\n      dup4\n        /* \"#utility.yul\":10682:10698   */\n      add\n        /* \"#utility.yul\":10676:10699   */\n      mload\n        /* \"#utility.yul\":10712:10775   */\n      tag_423\n        /* \"#utility.yul\":10769:10773   */\n      0x40\n        /* \"#utility.yul\":10764:10767   */\n      dup7\n        /* \"#utility.yul\":10760:10774   */\n      add\n        /* \"#utility.yul\":10746:10758   */\n      dup3\n        /* \"#utility.yul\":10712:10775   */\n      tag_277\n      jump\t// in\n    tag_423:\n        /* \"#utility.yul\":10616:10785   */\n      pop\n        /* \"#utility.yul\":10866:10870   */\n      0x60\n        /* \"#utility.yul\":10859:10864   */\n      dup4\n        /* \"#utility.yul\":10855:10871   */\n      add\n        /* \"#utility.yul\":10849:10872   */\n      mload\n        /* \"#utility.yul\":10919:10922   */\n      dup5\n        /* \"#utility.yul\":10913:10917   */\n      dup3\n        /* \"#utility.yul\":10909:10923   */\n      sub\n        /* \"#utility.yul\":10902:10906   */\n      0x60\n        /* \"#utility.yul\":10897:10900   */\n      dup7\n        /* \"#utility.yul\":10893:10907   */\n      add\n        /* \"#utility.yul\":10886:10924   */\n      mstore\n        /* \"#utility.yul\":10945:11018   */\n      tag_424\n        /* \"#utility.yul\":11013:11017   */\n      dup3\n        /* \"#utility.yul\":10999:11011   */\n      dup3\n        /* \"#utility.yul\":10945:11018   */\n      tag_276\n      jump\t// in\n    tag_424:\n        /* \"#utility.yul\":10937:11018   */\n      swap2\n      pop\n        /* \"#utility.yul\":10795:11029   */\n      pop\n        /* \"#utility.yul\":11113:11117   */\n      0x80\n        /* \"#utility.yul\":11106:11111   */\n      dup4\n        /* \"#utility.yul\":11102:11118   */\n      add\n        /* \"#utility.yul\":11096:11119   */\n      mload\n        /* \"#utility.yul\":11132:11195   */\n      tag_425\n        /* \"#utility.yul\":11189:11193   */\n      0x80\n        /* \"#utility.yul\":11184:11187   */\n      dup7\n        /* \"#utility.yul\":11180:11194   */\n      add\n        /* \"#utility.yul\":11166:11178   */\n      dup3\n        /* \"#utility.yul\":11132:11195   */\n      tag_278\n      jump\t// in\n    tag_425:\n        /* \"#utility.yul\":11039:11205   */\n      pop\n        /* \"#utility.yul\":11297:11301   */\n      0xa0\n        /* \"#utility.yul\":11290:11295   */\n      dup4\n        /* \"#utility.yul\":11286:11302   */\n      add\n        /* \"#utility.yul\":11280:11303   */\n      mload\n        /* \"#utility.yul\":11316:11379   */\n      tag_426\n        /* \"#utility.yul\":11373:11377   */\n      0xa0\n        /* \"#utility.yul\":11368:11371   */\n      dup7\n        /* \"#utility.yul\":11364:11378   */\n      add\n        /* \"#utility.yul\":11350:11362   */\n      dup3\n        /* \"#utility.yul\":11316:11379   */\n      tag_278\n      jump\t// in\n    tag_426:\n        /* \"#utility.yul\":11215:11389   */\n      pop\n        /* \"#utility.yul\":11406:11410   */\n      dup1\n        /* \"#utility.yul\":11399:11410   */\n      swap2\n      pop\n        /* \"#utility.yul\":10071:11416   */\n      pop\n        /* \"#utility.yul\":9955:11416   */\n      swap3\n      swap2\n      pop\n      pop\n      jump\t// out\n        /* \"#utility.yul\":11422:11682   */\n    tag_284:\n        /* \"#utility.yul\":11543:11553   */\n      0x00\n        /* \"#utility.yul\":11578:11676   */\n      tag_428\n        /* \"#utility.yul\":11672:11675   */\n      dup4\n        /* \"#utility.yul\":11664:11670   */\n      dup4\n        /* \"#utility.yul\":11578:11676   */\n      tag_283\n      jump\t// in\n    tag_428:\n        /* \"#utility.yul\":11564:11676   */\n      swap1\n      pop\n        /* \"#utility.yul\":11422:11682   */\n      swap3\n      swap2\n      pop\n      pop\n      jump\t// out\n        /* \"#utility.yul\":11688:11827   */\n    tag_285:\n        /* \"#utility.yul\":11784:11788   */\n      0x00\n        /* \"#utility.yul\":11816:11820   */\n      0x20\n        /* \"#utility.yul\":11811:11814   */\n      dup3\n        /* \"#utility.yul\":11807:11821   */\n      add\n        /* \"#utility.yul\":11799:11821   */\n      swap1\n      pop\n        /* \"#utility.yul\":11688:11827   */\n      swap2\n      swap1\n      pop\n      jump\t// out\n        /* \"#utility.yul\":11903:13022   */\n    tag_286:\n        /* \"#utility.yul\":12074:12077   */\n      0x00\n        /* \"#utility.yul\":12103:12183   */\n      tag_431\n        /* \"#utility.yul\":12177:12182   */\n      dup3\n        /* \"#utility.yul\":12103:12183   */\n      tag_280\n      jump\t// in\n    tag_431:\n        /* \"#utility.yul\":12199:12311   */\n      tag_432\n        /* \"#utility.yul\":12304:12310   */\n      dup2\n        /* \"#utility.yul\":12299:12302   */\n      dup6\n        /* \"#utility.yul\":12199:12311   */\n      tag_281\n      jump\t// in\n    tag_432:\n        /* \"#utility.yul\":12192:12311   */\n      swap4\n      pop\n        /* \"#utility.yul\":12337:12340   */\n      dup4\n        /* \"#utility.yul\":12382:12386   */\n      0x20\n        /* \"#utility.yul\":12374:12380   */\n      dup3\n        /* \"#utility.yul\":12370:12387   */\n      mul\n        /* \"#utility.yul\":12365:12368   */\n      dup6\n        /* \"#utility.yul\":12361:12388   */\n      add\n        /* \"#utility.yul\":12412:12494   */\n      tag_433\n        /* \"#utility.yul\":12488:12493   */\n      dup6\n        /* \"#utility.yul\":12412:12494   */\n      tag_282\n      jump\t// in\n    tag_433:\n        /* \"#utility.yul\":12517:12524   */\n      dup1\n        /* \"#utility.yul\":12548:12549   */\n      0x00\n        /* \"#utility.yul\":12533:12977   */\n    tag_434:\n        /* \"#utility.yul\":12558:12564   */\n      dup6\n        /* \"#utility.yul\":12555:12556   */\n      dup2\n        /* \"#utility.yul\":12552:12565   */\n      lt\n        /* \"#utility.yul\":12533:12977   */\n      iszero\n      tag_436\n      jumpi\n        /* \"#utility.yul\":12629:12638   */\n      dup5\n        /* \"#utility.yul\":12623:12627   */\n      dup5\n        /* \"#utility.yul\":12619:12639   */\n      sub\n        /* \"#utility.yul\":12614:12617   */\n      dup10\n        /* \"#utility.yul\":12607:12640   */\n      mstore\n        /* \"#utility.yul\":12680:12686   */\n      dup2\n        /* \"#utility.yul\":12674:12687   */\n      mload\n        /* \"#utility.yul\":12708:12824   */\n      tag_437\n        /* \"#utility.yul\":12819:12823   */\n      dup6\n        /* \"#utility.yul\":12804:12817   */\n      dup3\n        /* \"#utility.yul\":12708:12824   */\n      tag_284\n      jump\t// in\n    tag_437:\n        /* \"#utility.yul\":12700:12824   */\n      swap5\n      pop\n        /* \"#utility.yul\":12847:12933   */\n      tag_438\n        /* \"#utility.yul\":12926:12932   */\n      dup4\n        /* \"#utility.yul\":12847:12933   */\n      tag_285\n      jump\t// in\n    tag_438:\n        /* \"#utility.yul\":12837:12933   */\n      swap3\n      pop\n        /* \"#utility.yul\":12962:12966   */\n      0x20\n        /* \"#utility.yul\":12957:12960   */\n      dup11\n        /* \"#utility.yul\":12953:12967   */\n      add\n        /* \"#utility.yul\":12946:12967   */\n      swap10\n      pop\n        /* \"#utility.yul\":12593:12977   */\n      pop\n        /* \"#utility.yul\":12580:12581   */\n      0x01\n        /* \"#utility.yul\":12577:12578   */\n      dup2\n        /* \"#utility.yul\":12573:12582   */\n      add\n        /* \"#utility.yul\":12568:12582   */\n      swap1\n      pop\n        /* \"#utility.yul\":12533:12977   */\n      jump(tag_434)\n    tag_436:\n        /* \"#utility.yul\":12537:12551   */\n      pop\n        /* \"#utility.yul\":12993:12997   */\n      dup3\n        /* \"#utility.yul\":12986:12997   */\n      swap8\n      pop\n        /* \"#utility.yul\":13013:13016   */\n      dup8\n        /* \"#utility.yul\":13006:13016   */\n      swap6\n      pop\n        /* \"#utility.yul\":12079:13022   */\n      pop\n      pop\n      pop\n      pop\n      pop\n        /* \"#utility.yul\":11903:13022   */\n      swap3\n      swap2\n      pop\n      pop\n      jump\t// out\n        /* \"#utility.yul\":13028:13505   */\n    tag_45:\n        /* \"#utility.yul\":13223:13227   */\n      0x00\n        /* \"#utility.yul\":13261:13263   */\n      0x20\n        /* \"#utility.yul\":13250:13259   */\n      dup3\n        /* \"#utility.yul\":13246:13264   */\n      add\n        /* \"#utility.yul\":13238:13264   */\n      swap1\n      pop\n        /* \"#utility.yul\":13310:13319   */\n      dup2\n        /* \"#utility.yul\":13304:13308   */\n      dup2\n        /* \"#utility.yul\":13300:13320   */\n      sub\n        /* \"#utility.yul\":13296:13297   */\n      0x00\n        /* \"#utility.yul\":13285:13294   */\n      dup4\n        /* \"#utility.yul\":13281:13298   */\n      add\n        /* \"#utility.yul\":13274:13321   */\n      mstore\n        /* \"#utility.yul\":13338:13498   */\n      tag_440\n        /* \"#utility.yul\":13493:13497   */\n      dup2\n        /* \"#utility.yul\":13484:13490   */\n      dup5\n        /* \"#utility.yul\":13338:13498   */\n      tag_286\n      jump\t// in\n    tag_440:\n        /* \"#utility.yul\":13330:13498   */\n      swap1\n      pop\n        /* \"#utility.yul\":13028:13505   */\n      swap3\n      swap2\n      pop\n      pop\n      jump\t// out\n        /* \"#utility.yul\":13511:13635   */\n    tag_287:\n        /* \"#utility.yul\":13588:13594   */\n      0x00\n        /* \"#utility.yul\":13622:13627   */\n      dup2\n        /* \"#utility.yul\":13616:13628   */\n      mload\n        /* \"#utility.yul\":13606:13628   */\n      swap1\n      pop\n        /* \"#utility.yul\":13511:13635   */\n      swap2\n      swap1\n      pop\n      jump\t// out\n        /* \"#utility.yul\":13641:13835   */\n    tag_288:\n        /* \"#utility.yul\":13750:13761   */\n      0x00\n        /* \"#utility.yul\":13784:13790   */\n      dup3\n        /* \"#utility.yul\":13779:13782   */\n      dup3\n        /* \"#utility.yul\":13772:13791   */\n      mstore\n        /* \"#utility.yul\":13824:13828   */\n      0x20\n        /* \"#utility.yul\":13819:13822   */\n      dup3\n        /* \"#utility.yul\":13815:13829   */\n      add\n        /* \"#utility.yul\":13800:13829   */\n      swap1\n      pop\n        /* \"#utility.yul\":13641:13835   */\n      swap3\n      swap2\n      pop\n      pop\n      jump\t// out\n        /* \"#utility.yul\":13841:13983   */\n    tag_289:\n        /* \"#utility.yul\":13918:13922   */\n      0x00\n        /* \"#utility.yul\":13941:13944   */\n      dup2\n        /* \"#utility.yul\":13933:13944   */\n      swap1\n      pop\n        /* \"#utility.yul\":13971:13975   */\n      0x20\n        /* \"#utility.yul\":13966:13969   */\n      dup3\n        /* \"#utility.yul\":13962:13976   */\n      add\n        /* \"#utility.yul\":13954:13976   */\n      swap1\n      pop\n        /* \"#utility.yul\":13841:13983   */\n      swap2\n      swap1\n      pop\n      jump\t// out\n        /* \"#utility.yul\":13989:14185   */\n    tag_290:\n        /* \"#utility.yul\":14078:14088   */\n      0x00\n        /* \"#utility.yul\":14113:14179   */\n      tag_445\n        /* \"#utility.yul\":14175:14178   */\n      dup4\n        /* \"#utility.yul\":14167:14173   */\n      dup4\n        /* \"#utility.yul\":14113:14179   */\n      tag_276\n      jump\t// in\n    tag_445:\n        /* \"#utility.yul\":14099:14179   */\n      swap1\n      pop\n        /* \"#utility.yul\":13989:14185   */\n      swap3\n      swap2\n      pop\n      pop\n      jump\t// out\n        /* \"#utility.yul\":14191:14314   */\n    tag_291:\n        /* \"#utility.yul\":14271:14275   */\n      0x00\n        /* \"#utility.yul\":14303:14307   */\n      0x20\n        /* \"#utility.yul\":14298:14301   */\n      dup3\n        /* \"#utility.yul\":14294:14308   */\n      add\n        /* \"#utility.yul\":14286:14308   */\n      swap1\n      pop\n        /* \"#utility.yul\":14191:14314   */\n      swap2\n      swap1\n      pop\n      jump\t// out\n        /* \"#utility.yul\":14348:15339   */\n    tag_292:\n        /* \"#utility.yul\":14487:14490   */\n      0x00\n        /* \"#utility.yul\":14516:14580   */\n      tag_448\n        /* \"#utility.yul\":14574:14579   */\n      dup3\n        /* \"#utility.yul\":14516:14580   */\n      tag_287\n      jump\t// in\n    tag_448:\n        /* \"#utility.yul\":14596:14692   */\n      tag_449\n        /* \"#utility.yul\":14685:14691   */\n      dup2\n        /* \"#utility.yul\":14680:14683   */\n      dup6\n        /* \"#utility.yul\":14596:14692   */\n      tag_288\n      jump\t// in\n    tag_449:\n        /* \"#utility.yul\":14589:14692   */\n      swap4\n      pop\n        /* \"#utility.yul\":14718:14721   */\n      dup4\n        /* \"#utility.yul\":14763:14767   */\n      0x20\n        /* \"#utility.yul\":14755:14761   */\n      dup3\n        /* \"#utility.yul\":14751:14768   */\n      mul\n        /* \"#utility.yul\":14746:14749   */\n      dup6\n        /* \"#utility.yul\":14742:14769   */\n      add\n        /* \"#utility.yul\":14793:14859   */\n      tag_450\n        /* \"#utility.yul\":14853:14858   */\n      dup6\n        /* \"#utility.yul\":14793:14859   */\n      tag_289\n      jump\t// in\n    tag_450:\n        /* \"#utility.yul\":14882:14889   */\n      dup1\n        /* \"#utility.yul\":14913:14914   */\n      0x00\n        /* \"#utility.yul\":14898:15294   */\n    tag_451:\n        /* \"#utility.yul\":14923:14929   */\n      dup6\n        /* \"#utility.yul\":14920:14921   */\n      dup2\n        /* \"#utility.yul\":14917:14930   */\n      lt\n        /* \"#utility.yul\":14898:15294   */\n      iszero\n      tag_453\n      jumpi\n        /* \"#utility.yul\":14994:15003   */\n      dup5\n        /* \"#utility.yul\":14988:14992   */\n      dup5\n        /* \"#utility.yul\":14984:15004   */\n      sub\n        /* \"#utility.yul\":14979:14982   */\n      dup10\n        /* \"#utility.yul\":14972:15005   */\n      mstore\n        /* \"#utility.yul\":15045:15051   */\n      dup2\n        /* \"#utility.yul\":15039:15052   */\n      mload\n        /* \"#utility.yul\":15073:15157   */\n      tag_454\n        /* \"#utility.yul\":15152:15156   */\n      dup6\n        /* \"#utility.yul\":15137:15150   */\n      dup3\n        /* \"#utility.yul\":15073:15157   */\n      tag_290\n      jump\t// in\n    tag_454:\n        /* \"#utility.yul\":15065:15157   */\n      swap5\n      pop\n        /* \"#utility.yul\":15180:15250   */\n      tag_455\n        /* \"#utility.yul\":15243:15249   */\n      dup4\n        /* \"#utility.yul\":15180:15250   */\n      tag_291\n      jump\t// in\n    tag_455:\n        /* \"#utility.yul\":15170:15250   */\n      swap3\n      pop\n        /* \"#utility.yul\":15279:15283   */\n      0x20\n        /* \"#utility.yul\":15274:15277   */\n      dup11\n        /* \"#utility.yul\":15270:15284   */\n      add\n        /* \"#utility.yul\":15263:15284   */\n      swap10\n      pop\n        /* \"#utility.yul\":14958:15294   */\n      pop\n        /* \"#utility.yul\":14945:14946   */\n      0x01\n        /* \"#utility.yul\":14942:14943   */\n      dup2\n        /* \"#utility.yul\":14938:14947   */\n      add\n        /* \"#utility.yul\":14933:14947   */\n      swap1\n      pop\n        /* \"#utility.yul\":14898:15294   */\n      jump(tag_451)\n    tag_453:\n        /* \"#utility.yul\":14902:14916   */\n      pop\n        /* \"#utility.yul\":15310:15314   */\n      dup3\n        /* \"#utility.yul\":15303:15314   */\n      swap8\n      pop\n        /* \"#utility.yul\":15330:15333   */\n      dup8\n        /* \"#utility.yul\":15323:15333   */\n      swap6\n      pop\n        /* \"#utility.yul\":14492:15339   */\n      pop\n      pop\n      pop\n      pop\n      pop\n        /* \"#utility.yul\":14348:15339   */\n      swap3\n      swap2\n      pop\n      pop\n      jump\t// out\n        /* \"#utility.yul\":15345:15758   */\n    tag_50:\n        /* \"#utility.yul\":15508:15512   */\n      0x00\n        /* \"#utility.yul\":15546:15548   */\n      0x20\n        /* \"#utility.yul\":15535:15544   */\n      dup3\n        /* \"#utility.yul\":15531:15549   */\n      add\n        /* \"#utility.yul\":15523:15549   */\n      swap1\n      pop\n        /* \"#utility.yul\":15595:15604   */\n      dup2\n        /* \"#utility.yul\":15589:15593   */\n      dup2\n        /* \"#utility.yul\":15585:15605   */\n      sub\n        /* \"#utility.yul\":15581:15582   */\n      0x00\n        /* \"#utility.yul\":15570:15579   */\n      dup4\n        /* \"#utility.yul\":15566:15583   */\n      add\n        /* \"#utility.yul\":15559:15606   */\n      mstore\n        /* \"#utility.yul\":15623:15751   */\n      tag_457\n        /* \"#utility.yul\":15746:15750   */\n      dup2\n        /* \"#utility.yul\":15737:15743   */\n      dup5\n        /* \"#utility.yul\":15623:15751   */\n      tag_292\n      jump\t// in\n    tag_457:\n        /* \"#utility.yul\":15615:15751   */\n      swap1\n      pop\n        /* \"#utility.yul\":15345:15758   */\n      swap3\n      swap2\n      pop\n      pop\n      jump\t// out\n        /* \"#utility.yul\":15764:16077   */\n    tag_55:\n        /* \"#utility.yul\":15877:15881   */\n      0x00\n        /* \"#utility.yul\":15915:15917   */\n      0x20\n        /* \"#utility.yul\":15904:15913   */\n      dup3\n        /* \"#utility.yul\":15900:15918   */\n      add\n        /* \"#utility.yul\":15892:15918   */\n      swap1\n      pop\n        /* \"#utility.yul\":15964:15973   */\n      dup2\n        /* \"#utility.yul\":15958:15962   */\n      dup2\n        /* \"#utility.yul\":15954:15974   */\n      sub\n        /* \"#utility.yul\":15950:15951   */\n      0x00\n        /* \"#utility.yul\":15939:15948   */\n      dup4\n        /* \"#utility.yul\":15935:15952   */\n      add\n        /* \"#utility.yul\":15928:15975   */\n      mstore\n        /* \"#utility.yul\":15992:16070   */\n      tag_459\n        /* \"#utility.yul\":16065:16069   */\n      dup2\n        /* \"#utility.yul\":16056:16062   */\n      dup5\n        /* \"#utility.yul\":15992:16070   */\n      tag_264\n      jump\t// in\n    tag_459:\n        /* \"#utility.yul\":15984:16070   */\n      swap1\n      pop\n        /* \"#utility.yul\":15764:16077   */\n      swap3\n      swap2\n      pop\n      pop\n      jump\t// out\n        /* \"#utility.yul\":16083:17714   */\n    tag_58:\n        /* \"#utility.yul\":16218:16224   */\n      0x00\n        /* \"#utility.yul\":16226:16232   */\n      0x00\n        /* \"#utility.yul\":16234:16240   */\n      0x00\n        /* \"#utility.yul\":16242:16248   */\n      0x00\n        /* \"#utility.yul\":16250:16256   */\n      0x00\n        /* \"#utility.yul\":16299:16302   */\n      0xa0\n        /* \"#utility.yul\":16287:16296   */\n      dup7\n        /* \"#utility.yul\":16278:16285   */\n      dup9\n        /* \"#utility.yul\":16274:16297   */\n      sub\n        /* \"#utility.yul\":16270:16303   */\n      slt\n        /* \"#utility.yul\":16267:16387   */\n      iszero\n      tag_461\n      jumpi\n        /* \"#utility.yul\":16306:16385   */\n      tag_462\n      tag_250\n      jump\t// in\n    tag_462:\n        /* \"#utility.yul\":16267:16387   */\n    tag_461:\n        /* \"#utility.yul\":16454:16455   */\n      0x00\n        /* \"#utility.yul\":16443:16452   */\n      dup7\n        /* \"#utility.yul\":16439:16456   */\n      add\n        /* \"#utility.yul\":16426:16457   */\n      calldataload\n        /* \"#utility.yul\":16484:16502   */\n      0xffffffffffffffff\n        /* \"#utility.yul\":16476:16482   */\n      dup2\n        /* \"#utility.yul\":16473:16503   */\n      gt\n        /* \"#utility.yul\":16470:16587   */\n      iszero\n      tag_463\n      jumpi\n        /* \"#utility.yul\":16506:16585   */\n      tag_464\n      tag_251\n      jump\t// in\n    tag_464:\n        /* \"#utility.yul\":16470:16587   */\n    tag_463:\n        /* \"#utility.yul\":16611:16674   */\n      tag_465\n        /* \"#utility.yul\":16666:16673   */\n      dup9\n        /* \"#utility.yul\":16657:16663   */\n      dup3\n        /* \"#utility.yul\":16646:16655   */\n      dup10\n        /* \"#utility.yul\":16642:16664   */\n      add\n        /* \"#utility.yul\":16611:16674   */\n      tag_274\n      jump\t// in\n    tag_465:\n        /* \"#utility.yul\":16601:16674   */\n      swap6\n      pop\n        /* \"#utility.yul\":16397:16684   */\n      pop\n        /* \"#utility.yul\":16723:16725   */\n      0x20\n        /* \"#utility.yul\":16749:16802   */\n      tag_466\n        /* \"#utility.yul\":16794:16801   */\n      dup9\n        /* \"#utility.yul\":16785:16791   */\n      dup3\n        /* \"#utility.yul\":16774:16783   */\n      dup10\n        /* \"#utility.yul\":16770:16792   */\n      add\n        /* \"#utility.yul\":16749:16802   */\n      tag_255\n      jump\t// in\n    tag_466:\n        /* \"#utility.yul\":16739:16802   */\n      swap5\n      pop\n        /* \"#utility.yul\":16694:16812   */\n      pop\n        /* \"#utility.yul\":16879:16881   */\n      0x40\n        /* \"#utility.yul\":16868:16877   */\n      dup7\n        /* \"#utility.yul\":16864:16882   */\n      add\n        /* \"#utility.yul\":16851:16883   */\n      calldataload\n        /* \"#utility.yul\":16910:16928   */\n      0xffffffffffffffff\n        /* \"#utility.yul\":16902:16908   */\n      dup2\n        /* \"#utility.yul\":16899:16929   */\n      gt\n        /* \"#utility.yul\":16896:17013   */\n      iszero\n      tag_467\n      jumpi\n        /* \"#utility.yul\":16932:17011   */\n      tag_468\n      tag_251\n      jump\t// in\n    tag_468:\n        /* \"#utility.yul\":16896:17013   */\n    tag_467:\n        /* \"#utility.yul\":17037:17100   */\n      tag_469\n        /* \"#utility.yul\":17092:17099   */\n      dup9\n        /* \"#utility.yul\":17083:17089   */\n      dup3\n        /* \"#utility.yul\":17072:17081   */\n      dup10\n        /* \"#utility.yul\":17068:17090   */\n      add\n        /* \"#utility.yul\":17037:17100   */\n      tag_274\n      jump\t// in\n    tag_469:\n        /* \"#utility.yul\":17027:17100   */\n      swap4\n      pop\n        /* \"#utility.yul\":16822:17110   */\n      pop\n        /* \"#utility.yul\":17177:17179   */\n      0x60\n        /* \"#utility.yul\":17166:17175   */\n      dup7\n        /* \"#utility.yul\":17162:17180   */\n      add\n        /* \"#utility.yul\":17149:17181   */\n      calldataload\n        /* \"#utility.yul\":17208:17226   */\n      0xffffffffffffffff\n        /* \"#utility.yul\":17200:17206   */\n      dup2\n        /* \"#utility.yul\":17197:17227   */\n      gt\n        /* \"#utility.yul\":17194:17311   */\n      iszero\n      tag_470\n      jumpi\n        /* \"#utility.yul\":17230:17309   */\n      tag_471\n      tag_251\n      jump\t// in\n    tag_471:\n        /* \"#utility.yul\":17194:17311   */\n    tag_470:\n        /* \"#utility.yul\":17335:17398   */\n      tag_472\n        /* \"#utility.yul\":17390:17397   */\n      dup9\n        /* \"#utility.yul\":17381:17387   */\n      dup3\n        /* \"#utility.yul\":17370:17379   */\n      dup10\n        /* \"#utility.yul\":17366:17388   */\n      add\n        /* \"#utility.yul\":17335:17398   */\n      tag_274\n      jump\t// in\n    tag_472:\n        /* \"#utility.yul\":17325:17398   */\n      swap3\n      pop\n        /* \"#utility.yul\":17120:17408   */\n      pop\n        /* \"#utility.yul\":17475:17478   */\n      0x80\n        /* \"#utility.yul\":17464:17473   */\n      dup7\n        /* \"#utility.yul\":17460:17479   */\n      add\n        /* \"#utility.yul\":17447:17480   */\n      calldataload\n        /* \"#utility.yul\":17507:17525   */\n      0xffffffffffffffff\n        /* \"#utility.yul\":17499:17505   */\n      dup2\n        /* \"#utility.yul\":17496:17526   */\n      gt\n        /* \"#utility.yul\":17493:17610   */\n      iszero\n      tag_473\n      jumpi\n        /* \"#utility.yul\":17529:17608   */\n      tag_474\n      tag_251\n      jump\t// in\n    tag_474:\n        /* \"#utility.yul\":17493:17610   */\n    tag_473:\n        /* \"#utility.yul\":17634:17697   */\n      tag_475\n        /* \"#utility.yul\":17689:17696   */\n      dup9\n        /* \"#utility.yul\":17680:17686   */\n      dup3\n        /* \"#utility.yul\":17669:17678   */\n      dup10\n        /* \"#utility.yul\":17665:17687   */\n      add\n        /* \"#utility.yul\":17634:17697   */\n      tag_274\n      jump\t// in\n    tag_475:\n        /* \"#utility.yul\":17624:17697   */\n      swap2\n      pop\n        /* \"#utility.yul\":17418:17707   */\n      pop\n        /* \"#utility.yul\":16083:17714   */\n      swap3\n      swap6\n      pop\n      swap3\n      swap6\n      swap1\n      swap4\n      pop\n      jump\t// out\n        /* \"#utility.yul\":17720:18229   */\n    tag_62:\n        /* \"#utility.yul\":17789:17795   */\n      0x00\n        /* \"#utility.yul\":17838:17840   */\n      0x20\n        /* \"#utility.yul\":17826:17835   */\n      dup3\n        /* \"#utility.yul\":17817:17824   */\n      dup5\n        /* \"#utility.yul\":17813:17836   */\n      sub\n        /* \"#utility.yul\":17809:17841   */\n      slt\n        /* \"#utility.yul\":17806:17925   */\n      iszero\n      tag_477\n      jumpi\n        /* \"#utility.yul\":17844:17923   */\n      tag_478\n      tag_250\n      jump\t// in\n    tag_478:\n        /* \"#utility.yul\":17806:17925   */\n    tag_477:\n        /* \"#utility.yul\":17992:17993   */\n      0x00\n        /* \"#utility.yul\":17981:17990   */\n      dup3\n        /* \"#utility.yul\":17977:17994   */\n      add\n        /* \"#utility.yul\":17964:17995   */\n      calldataload\n        /* \"#utility.yul\":18022:18040   */\n      0xffffffffffffffff\n        /* \"#utility.yul\":18014:18020   */\n      dup2\n        /* \"#utility.yul\":18011:18041   */\n      gt\n        /* \"#utility.yul\":18008:18125   */\n      iszero\n      tag_479\n      jumpi\n        /* \"#utility.yul\":18044:18123   */\n      tag_480\n      tag_251\n      jump\t// in\n    tag_480:\n        /* \"#utility.yul\":18008:18125   */\n    tag_479:\n        /* \"#utility.yul\":18149:18212   */\n      tag_481\n        /* \"#utility.yul\":18204:18211   */\n      dup5\n        /* \"#utility.yul\":18195:18201   */\n      dup3\n        /* \"#utility.yul\":18184:18193   */\n      dup6\n        /* \"#utility.yul\":18180:18202   */\n      add\n        /* \"#utility.yul\":18149:18212   */\n      tag_274\n      jump\t// in\n    tag_481:\n        /* \"#utility.yul\":18139:18212   */\n      swap2\n      pop\n        /* \"#utility.yul\":17935:18222   */\n      pop\n        /* \"#utility.yul\":17720:18229   */\n      swap3\n      swap2\n      pop\n      pop\n      jump\t// out\n        /* \"#utility.yul\":18235:18457   */\n    tag_65:\n        /* \"#utility.yul\":18328:18332   */\n      0x00\n        /* \"#utility.yul\":18366:18368   */\n      0x20\n        /* \"#utility.yul\":18355:18364   */\n      dup3\n        /* \"#utility.yul\":18351:18369   */\n      add\n        /* \"#utility.yul\":18343:18369   */\n      swap1\n      pop\n        /* \"#utility.yul\":18379:18450   */\n      tag_483\n        /* \"#utility.yul\":18447:18448   */\n      0x00\n        /* \"#utility.yul\":18436:18445   */\n      dup4\n        /* \"#utility.yul\":18432:18449   */\n      add\n        /* \"#utility.yul\":18423:18429   */\n      dup5\n        /* \"#utility.yul\":18379:18450   */\n      tag_259\n      jump\t// in\n    tag_483:\n        /* \"#utility.yul\":18235:18457   */\n      swap3\n      swap2\n      pop\n      pop\n      jump\t// out\n        /* \"#utility.yul\":18463:18581   */\n    tag_293:\n        /* \"#utility.yul\":18550:18574   */\n      tag_485\n        /* \"#utility.yul\":18568:18573   */\n      dup2\n        /* \"#utility.yul\":18550:18574   */\n      tag_256\n      jump\t// in\n    tag_485:\n        /* \"#utility.yul\":18545:18548   */\n      dup3\n        /* \"#utility.yul\":18538:18575   */\n      mstore\n        /* \"#utility.yul\":18463:18581   */\n      pop\n      pop\n      jump\t// out\n        /* \"#utility.yul\":18587:19635   */\n    tag_84:\n        /* \"#utility.yul\":18880:18884   */\n      0x00\n        /* \"#utility.yul\":18918:18921   */\n      0xc0\n        /* \"#utility.yul\":18907:18916   */\n      dup3\n        /* \"#utility.yul\":18903:18922   */\n      add\n        /* \"#utility.yul\":18895:18922   */\n      swap1\n      pop\n        /* \"#utility.yul\":18968:18977   */\n      dup2\n        /* \"#utility.yul\":18962:18966   */\n      dup2\n        /* \"#utility.yul\":18958:18978   */\n      sub\n        /* \"#utility.yul\":18954:18955   */\n      0x00\n        /* \"#utility.yul\":18943:18952   */\n      dup4\n        /* \"#utility.yul\":18939:18956   */\n      add\n        /* \"#utility.yul\":18932:18979   */\n      mstore\n        /* \"#utility.yul\":18996:19074   */\n      tag_487\n        /* \"#utility.yul\":19069:19073   */\n      dup2\n        /* \"#utility.yul\":19060:19066   */\n      dup10\n        /* \"#utility.yul\":18996:19074   */\n      tag_264\n      jump\t// in\n    tag_487:\n        /* \"#utility.yul\":18988:19074   */\n      swap1\n      pop\n        /* \"#utility.yul\":19121:19130   */\n      dup2\n        /* \"#utility.yul\":19115:19119   */\n      dup2\n        /* \"#utility.yul\":19111:19131   */\n      sub\n        /* \"#utility.yul\":19106:19108   */\n      0x20\n        /* \"#utility.yul\":19095:19104   */\n      dup4\n        /* \"#utility.yul\":19091:19109   */\n      add\n        /* \"#utility.yul\":19084:19132   */\n      mstore\n        /* \"#utility.yul\":19149:19227   */\n      tag_488\n        /* \"#utility.yul\":19222:19226   */\n      dup2\n        /* \"#utility.yul\":19213:19219   */\n      dup9\n        /* \"#utility.yul\":19149:19227   */\n      tag_264\n      jump\t// in\n    tag_488:\n        /* \"#utility.yul\":19141:19227   */\n      swap1\n      pop\n        /* \"#utility.yul\":19237:19309   */\n      tag_489\n        /* \"#utility.yul\":19305:19307   */\n      0x40\n        /* \"#utility.yul\":19294:19303   */\n      dup4\n        /* \"#utility.yul\":19290:19308   */\n      add\n        /* \"#utility.yul\":19281:19287   */\n      dup8\n        /* \"#utility.yul\":19237:19309   */\n      tag_293\n      jump\t// in\n    tag_489:\n        /* \"#utility.yul\":19356:19365   */\n      dup2\n        /* \"#utility.yul\":19350:19354   */\n      dup2\n        /* \"#utility.yul\":19346:19366   */\n      sub\n        /* \"#utility.yul\":19341:19343   */\n      0x60\n        /* \"#utility.yul\":19330:19339   */\n      dup4\n        /* \"#utility.yul\":19326:19344   */\n      add\n        /* \"#utility.yul\":19319:19367   */\n      mstore\n        /* \"#utility.yul\":19384:19462   */\n      tag_490\n        /* \"#utility.yul\":19457:19461   */\n      dup2\n        /* \"#utility.yul\":19448:19454   */\n      dup7\n        /* \"#utility.yul\":19384:19462   */\n      tag_264\n      jump\t// in\n    tag_490:\n        /* \"#utility.yul\":19376:19462   */\n      swap1\n      pop\n        /* \"#utility.yul\":19472:19545   */\n      tag_491\n        /* \"#utility.yul\":19540:19543   */\n      0x80\n        /* \"#utility.yul\":19529:19538   */\n      dup4\n        /* \"#utility.yul\":19525:19544   */\n      add\n        /* \"#utility.yul\":19516:19522   */\n      dup6\n        /* \"#utility.yul\":19472:19545   */\n      tag_259\n      jump\t// in\n    tag_491:\n        /* \"#utility.yul\":19555:19628   */\n      tag_492\n        /* \"#utility.yul\":19623:19626   */\n      0xa0\n        /* \"#utility.yul\":19612:19621   */\n      dup4\n        /* \"#utility.yul\":19608:19627   */\n      add\n        /* \"#utility.yul\":19599:19605   */\n      dup5\n        /* \"#utility.yul\":19555:19628   */\n      tag_259\n      jump\t// in\n    tag_492:\n        /* \"#utility.yul\":18587:19635   */\n      swap8\n      swap7\n      pop\n      pop\n      pop\n      pop\n      pop\n      pop\n      pop\n      jump\t// out\n        /* \"#utility.yul\":19641:19821   */\n    tag_294:\n        /* \"#utility.yul\":19689:19766   */\n      0x4e487b7100000000000000000000000000000000000000000000000000000000\n        /* \"#utility.yul\":19686:19687   */\n      0x00\n        /* \"#utility.yul\":19679:19767   */\n      mstore\n        /* \"#utility.yul\":19786:19790   */\n      0x22\n        /* \"#utility.yul\":19783:19784   */\n      0x04\n        /* \"#utility.yul\":19776:19791   */\n      mstore\n        /* \"#utility.yul\":19810:19814   */\n      0x24\n        /* \"#utility.yul\":19807:19808   */\n      0x00\n        /* \"#utility.yul\":19800:19815   */\n      revert\n        /* \"#utility.yul\":19827:20147   */\n    tag_88:\n        /* \"#utility.yul\":19871:19877   */\n      0x00\n        /* \"#utility.yul\":19908:19909   */\n      0x02\n        /* \"#utility.yul\":19902:19906   */\n      dup3\n        /* \"#utility.yul\":19898:19910   */\n      div\n        /* \"#utility.yul\":19888:19910   */\n      swap1\n      pop\n        /* \"#utility.yul\":19955:19956   */\n      0x01\n        /* \"#utility.yul\":19949:19953   */\n      dup3\n        /* \"#utility.yul\":19945:19957   */\n      and\n        /* \"#utility.yul\":19976:19994   */\n      dup1\n        /* \"#utility.yul\":19966:20047   */\n      tag_495\n      jumpi\n        /* \"#utility.yul\":20032:20036   */\n      0x7f\n        /* \"#utility.yul\":20024:20030   */\n      dup3\n        /* \"#utility.yul\":20020:20037   */\n      and\n        /* \"#utility.yul\":20010:20037   */\n      swap2\n      pop\n        /* \"#utility.yul\":19966:20047   */\n    tag_495:\n        /* \"#utility.yul\":20094:20096   */\n      0x20\n        /* \"#utility.yul\":20086:20092   */\n      dup3\n        /* \"#utility.yul\":20083:20097   */\n      lt\n        /* \"#utility.yul\":20063:20081   */\n      dup2\n        /* \"#utility.yul\":20060:20098   */\n      sub\n        /* \"#utility.yul\":20057:20141   */\n      tag_496\n      jumpi\n        /* \"#utility.yul\":20113:20131   */\n      tag_497\n      tag_294\n      jump\t// in\n    tag_497:\n        /* \"#utility.yul\":20057:20141   */\n    tag_496:\n        /* \"#utility.yul\":19878:20147   */\n      pop\n        /* \"#utility.yul\":19827:20147   */\n      swap2\n      swap1\n      pop\n      jump\t// out\n        /* \"#utility.yul\":20153:20317   */\n    tag_295:\n        /* \"#utility.yul\":20293:20309   */\n      0x4e6f7420617574686f72697a6564000000000000000000000000000000000000\n        /* \"#utility.yul\":20289:20290   */\n      0x00\n        /* \"#utility.yul\":20281:20287   */\n      dup3\n        /* \"#utility.yul\":20277:20291   */\n      add\n        /* \"#utility.yul\":20270:20310   */\n      mstore\n        /* \"#utility.yul\":20153:20317   */\n      pop\n      jump\t// out\n        /* \"#utility.yul\":20323:20689   */\n    tag_296:\n        /* \"#utility.yul\":20465:20468   */\n      0x00\n        /* \"#utility.yul\":20486:20553   */\n      tag_500\n        /* \"#utility.yul\":20550:20552   */\n      0x0e\n        /* \"#utility.yul\":20545:20548   */\n      dup4\n        /* \"#utility.yul\":20486:20553   */\n      tag_261\n      jump\t// in\n    tag_500:\n        /* \"#utility.yul\":20479:20553   */\n      swap2\n      pop\n        /* \"#utility.yul\":20562:20655   */\n      tag_501\n        /* \"#utility.yul\":20651:20654   */\n      dup3\n        /* \"#utility.yul\":20562:20655   */\n      tag_295\n      jump\t// in\n    tag_501:\n        /* \"#utility.yul\":20680:20682   */\n      0x20\n        /* \"#utility.yul\":20675:20678   */\n      dup3\n        /* \"#utility.yul\":20671:20683   */\n      add\n        /* \"#utility.yul\":20664:20683   */\n      swap1\n      pop\n        /* \"#utility.yul\":20323:20689   */\n      swap2\n      swap1\n      pop\n      jump\t// out\n        /* \"#utility.yul\":20695:21114   */\n    tag_96:\n        /* \"#utility.yul\":20861:20865   */\n      0x00\n        /* \"#utility.yul\":20899:20901   */\n      0x20\n        /* \"#utility.yul\":20888:20897   */\n      dup3\n        /* \"#utility.yul\":20884:20902   */\n      add\n        /* \"#utility.yul\":20876:20902   */\n      swap1\n      pop\n        /* \"#utility.yul\":20948:20957   */\n      dup2\n        /* \"#utility.yul\":20942:20946   */\n      dup2\n        /* \"#utility.yul\":20938:20958   */\n      sub\n        /* \"#utility.yul\":20934:20935   */\n      0x00\n        /* \"#utility.yul\":20923:20932   */\n      dup4\n        /* \"#utility.yul\":20919:20936   */\n      add\n        /* \"#utility.yul\":20912:20959   */\n      mstore\n        /* \"#utility.yul\":20976:21107   */\n      tag_503\n        /* \"#utility.yul\":21102:21106   */\n      dup2\n        /* \"#utility.yul\":20976:21107   */\n      tag_296\n      jump\t// in\n    tag_503:\n        /* \"#utility.yul\":20968:21107   */\n      swap1\n      pop\n        /* \"#utility.yul\":20695:21114   */\n      swap2\n      swap1\n      pop\n      jump\t// out\n        /* \"#utility.yul\":21120:21268   */\n    tag_297:\n        /* \"#utility.yul\":21222:21233   */\n      0x00\n        /* \"#utility.yul\":21259:21262   */\n      dup2\n        /* \"#utility.yul\":21244:21262   */\n      swap1\n      pop\n        /* \"#utility.yul\":21120:21268   */\n      swap3\n      swap2\n      pop\n      pop\n      jump\t// out\n        /* \"#utility.yul\":21274:21664   */\n    tag_298:\n        /* \"#utility.yul\":21380:21383   */\n      0x00\n        /* \"#utility.yul\":21408:21447   */\n      tag_506\n        /* \"#utility.yul\":21441:21446   */\n      dup3\n        /* \"#utility.yul\":21408:21447   */\n      tag_260\n      jump\t// in\n    tag_506:\n        /* \"#utility.yul\":21463:21552   */\n      tag_507\n        /* \"#utility.yul\":21545:21551   */\n      dup2\n        /* \"#utility.yul\":21540:21543   */\n      dup6\n        /* \"#utility.yul\":21463:21552   */\n      tag_297\n      jump\t// in\n    tag_507:\n        /* \"#utility.yul\":21456:21552   */\n      swap4\n      pop\n        /* \"#utility.yul\":21561:21626   */\n      tag_508\n        /* \"#utility.yul\":21619:21625   */\n      dup2\n        /* \"#utility.yul\":21614:21617   */\n      dup6\n        /* \"#utility.yul\":21607:21611   */\n      0x20\n        /* \"#utility.yul\":21600:21605   */\n      dup7\n        /* \"#utility.yul\":21596:21612   */\n      add\n        /* \"#utility.yul\":21561:21626   */\n      tag_262\n      jump\t// in\n    tag_508:\n        /* \"#utility.yul\":21651:21657   */\n      dup1\n        /* \"#utility.yul\":21646:21649   */\n      dup5\n        /* \"#utility.yul\":21642:21658   */\n      add\n        /* \"#utility.yul\":21635:21658   */\n      swap2\n      pop\n        /* \"#utility.yul\":21384:21664   */\n      pop\n        /* \"#utility.yul\":21274:21664   */\n      swap3\n      swap2\n      pop\n      pop\n      jump\t// out\n        /* \"#utility.yul\":21670:21945   */\n    tag_102:\n        /* \"#utility.yul\":21802:21805   */\n      0x00\n        /* \"#utility.yul\":21824:21919   */\n      tag_510\n        /* \"#utility.yul\":21915:21918   */\n      dup3\n        /* \"#utility.yul\":21906:21912   */\n      dup5\n        /* \"#utility.yul\":21824:21919   */\n      tag_298\n      jump\t// in\n    tag_510:\n        /* \"#utility.yul\":21817:21919   */\n      swap2\n      pop\n        /* \"#utility.yul\":21936:21939   */\n      dup2\n        /* \"#utility.yul\":21929:21939   */\n      swap1\n      pop\n        /* \"#utility.yul\":21670:21945   */\n      swap3\n      swap2\n      pop\n      pop\n      jump\t// out\n        /* \"#utility.yul\":21951:22131   */\n    tag_138:\n        /* \"#utility.yul\":21999:22076   */\n      0x4e487b7100000000000000000000000000000000000000000000000000000000\n        /* \"#utility.yul\":21996:21997   */\n      0x00\n        /* \"#utility.yul\":21989:22077   */\n      mstore\n        /* \"#utility.yul\":22096:22100   */\n      0x32\n        /* \"#utility.yul\":22093:22094   */\n      0x04\n        /* \"#utility.yul\":22086:22101   */\n      mstore\n        /* \"#utility.yul\":22120:22124   */\n      0x24\n        /* \"#utility.yul\":22117:22118   */\n      0x00\n        /* \"#utility.yul\":22110:22125   */\n      revert\n        /* \"#utility.yul\":22137:22313   */\n    tag_299:\n        /* \"#utility.yul\":22277:22305   */\n      0x496e737469747574696f6e206e6f7420617574686f72697a6564000000000000\n        /* \"#utility.yul\":22273:22274   */\n      0x00\n        /* \"#utility.yul\":22265:22271   */\n      dup3\n        /* \"#utility.yul\":22261:22275   */\n      add\n        /* \"#utility.yul\":22254:22306   */\n      mstore\n        /* \"#utility.yul\":22137:22313   */\n      pop\n      jump\t// out\n        /* \"#utility.yul\":22319:22685   */\n    tag_300:\n        /* \"#utility.yul\":22461:22464   */\n      0x00\n        /* \"#utility.yul\":22482:22549   */\n      tag_514\n        /* \"#utility.yul\":22546:22548   */\n      0x1a\n        /* \"#utility.yul\":22541:22544   */\n      dup4\n        /* \"#utility.yul\":22482:22549   */\n      tag_261\n      jump\t// in\n    tag_514:\n        /* \"#utility.yul\":22475:22549   */\n      swap2\n      pop\n        /* \"#utility.yul\":22558:22651   */\n      tag_515\n        /* \"#utility.yul\":22647:22650   */\n      dup3\n        /* \"#utility.yul\":22558:22651   */\n      tag_299\n      jump\t// in\n    tag_515:\n        /* \"#utility.yul\":22676:22678   */\n      0x20\n        /* \"#utility.yul\":22671:22674   */\n      dup3\n        /* \"#utility.yul\":22667:22679   */\n      add\n        /* \"#utility.yul\":22660:22679   */\n      swap1\n      pop\n        /* \"#utility.yul\":22319:22685   */\n      swap2\n      swap1\n      pop\n      jump\t// out\n        /* \"#utility.yul\":22691:23110   */\n    tag_178:\n        /* \"#utility.yul\":22857:22861   */\n      0x00\n        /* \"#utility.yul\":22895:22897   */\n      0x20\n        /* \"#utility.yul\":22884:22893   */\n      dup3\n        /* \"#utility.yul\":22880:22898   */\n      add\n        /* \"#utility.yul\":22872:22898   */\n      swap1\n      pop\n        /* \"#utility.yul\":22944:22953   */\n      dup2\n        /* \"#utility.yul\":22938:22942   */\n      dup2\n        /* \"#utility.yul\":22934:22954   */\n      sub\n        /* \"#utility.yul\":22930:22931   */\n      0x00\n        /* \"#utility.yul\":22919:22928   */\n      dup4\n        /* \"#utility.yul\":22915:22932   */\n      add\n        /* \"#utility.yul\":22908:22955   */\n      mstore\n        /* \"#utility.yul\":22972:23103   */\n      tag_517\n        /* \"#utility.yul\":23098:23102   */\n      dup2\n        /* \"#utility.yul\":22972:23103   */\n      tag_300\n      jump\t// in\n    tag_517:\n        /* \"#utility.yul\":22964:23103   */\n      swap1\n      pop\n        /* \"#utility.yul\":22691:23110   */\n      swap2\n      swap1\n      pop\n      jump\t// out\n        /* \"#utility.yul\":23116:23349   */\n    tag_301:\n        /* \"#utility.yul\":23256:23290   */\n      0x43726564656e7469616c20494420616c7265616479207573656420627920796f\n        /* \"#utility.yul\":23252:23253   */\n      0x00\n        /* \"#utility.yul\":23244:23250   */\n      dup3\n        /* \"#utility.yul\":23240:23254   */\n      add\n        /* \"#utility.yul\":23233:23291   */\n      mstore\n        /* \"#utility.yul\":23325:23341   */\n      0x757220696e737469747574696f6e000000000000000000000000000000000000\n        /* \"#utility.yul\":23320:23322   */\n      0x20\n        /* \"#utility.yul\":23312:23318   */\n      dup3\n        /* \"#utility.yul\":23308:23323   */\n      add\n        /* \"#utility.yul\":23301:23342   */\n      mstore\n        /* \"#utility.yul\":23116:23349   */\n      pop\n      jump\t// out\n        /* \"#utility.yul\":23355:23721   */\n    tag_302:\n        /* \"#utility.yul\":23497:23500   */\n      0x00\n        /* \"#utility.yul\":23518:23585   */\n      tag_520\n        /* \"#utility.yul\":23582:23584   */\n      0x2e\n        /* \"#utility.yul\":23577:23580   */\n      dup4\n        /* \"#utility.yul\":23518:23585   */\n      tag_261\n      jump\t// in\n    tag_520:\n        /* \"#utility.yul\":23511:23585   */\n      swap2\n      pop\n        /* \"#utility.yul\":23594:23687   */\n      tag_521\n        /* \"#utility.yul\":23683:23686   */\n      dup3\n        /* \"#utility.yul\":23594:23687   */\n      tag_301\n      jump\t// in\n    tag_521:\n        /* \"#utility.yul\":23712:23714   */\n      0x40\n        /* \"#utility.yul\":23707:23710   */\n      dup3\n        /* \"#utility.yul\":23703:23715   */\n      add\n        /* \"#utility.yul\":23696:23715   */\n      swap1\n      pop\n        /* \"#utility.yul\":23355:23721   */\n      swap2\n      swap1\n      pop\n      jump\t// out\n        /* \"#utility.yul\":23727:24146   */\n    tag_183:\n        /* \"#utility.yul\":23893:23897   */\n      0x00\n        /* \"#utility.yul\":23931:23933   */\n      0x20\n        /* \"#utility.yul\":23920:23929   */\n      dup3\n        /* \"#utility.yul\":23916:23934   */\n      add\n        /* \"#utility.yul\":23908:23934   */\n      swap1\n      pop\n        /* \"#utility.yul\":23980:23989   */\n      dup2\n        /* \"#utility.yul\":23974:23978   */\n      dup2\n        /* \"#utility.yul\":23970:23990   */\n      sub\n        /* \"#utility.yul\":23966:23967   */\n      0x00\n        /* \"#utility.yul\":23955:23964   */\n      dup4\n        /* \"#utility.yul\":23951:23968   */\n      add\n        /* \"#utility.yul\":23944:23991   */\n      mstore\n        /* \"#utility.yul\":24008:24139   */\n      tag_523\n        /* \"#utility.yul\":24134:24138   */\n      dup2\n        /* \"#utility.yul\":24008:24139   */\n      tag_302\n      jump\t// in\n    tag_523:\n        /* \"#utility.yul\":24000:24139   */\n      swap1\n      pop\n        /* \"#utility.yul\":23727:24146   */\n      swap2\n      swap1\n      pop\n      jump\t// out\n        /* \"#utility.yul\":24152:24293   */\n    tag_303:\n        /* \"#utility.yul\":24201:24205   */\n      0x00\n        /* \"#utility.yul\":24224:24227   */\n      dup2\n        /* \"#utility.yul\":24216:24227   */\n      swap1\n      pop\n        /* \"#utility.yul\":24247:24250   */\n      dup2\n        /* \"#utility.yul\":24244:24245   */\n      0x00\n        /* \"#utility.yul\":24237:24251   */\n      mstore\n        /* \"#utility.yul\":24281:24285   */\n      0x20\n        /* \"#utility.yul\":24278:24279   */\n      0x00\n        /* \"#utility.yul\":24268:24286   */\n      keccak256\n        /* \"#utility.yul\":24260:24286   */\n      swap1\n      pop\n        /* \"#utility.yul\":24152:24293   */\n      swap2\n      swap1\n      pop\n      jump\t// out\n        /* \"#utility.yul\":24299:24392   */\n    tag_304:\n        /* \"#utility.yul\":24336:24342   */\n      0x00\n        /* \"#utility.yul\":24383:24385   */\n      0x20\n        /* \"#utility.yul\":24378:24380   */\n      0x1f\n        /* \"#utility.yul\":24371:24376   */\n      dup4\n        /* \"#utility.yul\":24367:24381   */\n      add\n        /* \"#utility.yul\":24363:24386   */\n      div\n        /* \"#utility.yul\":24353:24386   */\n      swap1\n      pop\n        /* \"#utility.yul\":24299:24392   */\n      swap2\n      swap1\n      pop\n      jump\t// out\n        /* \"#utility.yul\":24398:24505   */\n    tag_305:\n        /* \"#utility.yul\":24442:24450   */\n      0x00\n        /* \"#utility.yul\":24492:24497   */\n      dup3\n        /* \"#utility.yul\":24486:24490   */\n      dup3\n        /* \"#utility.yul\":24482:24498   */\n      shl\n        /* \"#utility.yul\":24461:24498   */\n      swap1\n      pop\n        /* \"#utility.yul\":24398:24505   */\n      swap3\n      swap2\n      pop\n      pop\n      jump\t// out\n        /* \"#utility.yul\":24511:24904   */\n    tag_306:\n        /* \"#utility.yul\":24580:24586   */\n      0x00\n        /* \"#utility.yul\":24630:24631   */\n      0x08\n        /* \"#utility.yul\":24618:24628   */\n      dup4\n        /* \"#utility.yul\":24614:24632   */\n      mul\n        /* \"#utility.yul\":24653:24750   */\n      tag_528\n        /* \"#utility.yul\":24683:24749   */\n      0xffffffffffffffffffffffffffffffffffffffffffffffffffffffffffffffff\n        /* \"#utility.yul\":24672:24681   */\n      dup3\n        /* \"#utility.yul\":24653:24750   */\n      tag_305\n      jump\t// in\n    tag_528:\n        /* \"#utility.yul\":24771:24810   */\n      tag_529\n        /* \"#utility.yul\":24801:24809   */\n      dup7\n        /* \"#utility.yul\":24790:24799   */\n      dup4\n        /* \"#utility.yul\":24771:24810   */\n      tag_305\n      jump\t// in\n    tag_529:\n        /* \"#utility.yul\":24759:24810   */\n      swap6\n      pop\n        /* \"#utility.yul\":24843:24847   */\n      dup1\n        /* \"#utility.yul\":24839:24848   */\n      not\n        /* \"#utility.yul\":24832:24837   */\n      dup5\n        /* \"#utility.yul\":24828:24849   */\n      and\n        /* \"#utility.yul\":24819:24849   */\n      swap4\n      pop\n        /* \"#utility.yul\":24892:24896   */\n      dup1\n        /* \"#utility.yul\":24882:24890   */\n      dup7\n        /* \"#utility.yul\":24878:24897   */\n      and\n        /* \"#utility.yul\":24871:24876   */\n      dup5\n        /* \"#utility.yul\":24868:24898   */\n      or\n        /* \"#utility.yul\":24858:24898   */\n      swap3\n      pop\n        /* \"#utility.yul\":24587:24904   */\n      pop\n      pop\n        /* \"#utility.yul\":24511:24904   */\n      swap4\n      swap3\n      pop\n      pop\n      pop\n      jump\t// out\n        /* \"#utility.yul\":24910:24970   */\n    tag_307:\n        /* \"#utility.yul\":24938:24941   */\n      0x00\n        /* \"#utility.yul\":24959:24964   */\n      dup2\n        /* \"#utility.yul\":24952:24964   */\n      swap1\n      pop\n        /* \"#utility.yul\":24910:24970   */\n      swap2\n      swap1\n      pop\n      jump\t// out\n        /* \"#utility.yul\":24976:25118   */\n    tag_308:\n        /* \"#utility.yul\":25026:25035   */\n      0x00\n        /* \"#utility.yul\":25059:25112   */\n      tag_532\n        /* \"#utility.yul\":25077:25111   */\n      tag_533\n        /* \"#utility.yul\":25086:25110   */\n      tag_534\n        /* \"#utility.yul\":25104:25109   */\n      dup5\n        /* \"#utility.yul\":25086:25110   */\n      tag_256\n      jump\t// in\n    tag_534:\n        /* \"#utility.yul\":25077:25111   */\n      tag_307\n      jump\t// in\n    tag_533:\n        /* \"#utility.yul\":25059:25112   */\n      tag_256\n      jump\t// in\n    tag_532:\n        /* \"#utility.yul\":25046:25112   */\n      swap1\n      pop\n        /* \"#utility.yul\":24976:25118   */\n      swap2\n      swap1\n      pop\n      jump\t// out\n        /* \"#utility.yul\":25124:25199   */\n    tag_309:\n        /* \"#utility.yul\":25167:25170   */\n      0x00\n        /* \"#utility.yul\":25188:25193   */\n      dup2\n        /* \"#utility.yul\":25181:25193   */\n      swap1\n      pop\n        /* \"#utility.yul\":25124:25199   */\n      swap2\n      swap1\n      pop\n      jump\t// out\n        /* \"#utility.yul\":25205:25474   */\n    tag_310:\n        /* \"#utility.yul\":25315:25354   */\n      tag_537\n        /* \"#utility.yul\":25346:25353   */\n      dup4\n        /* \"#utility.yul\":25315:25354   */\n      tag_308\n      jump\t// in\n    tag_537:\n        /* \"#utility.yul\":25376:25467   */\n      tag_538\n        /* \"#utility.yul\":25425:25466   */\n      tag_539\n        /* \"#utility.yul\":25449:25465   */\n      dup3\n        /* \"#utility.yul\":25425:25466   */\n      tag_309\n      jump\t// in\n    tag_539:\n        /* \"#utility.yul\":25417:25423   */\n      dup5\n        /* \"#utility.yul\":25410:25414   */\n      dup5\n        /* \"#utility.yul\":25404:25415   */\n      sload\n        /* \"#utility.yul\":25376:25467   */\n      tag_306\n      jump\t// in\n    tag_538:\n        /* \"#utility.yul\":25370:25374   */\n      dup3\n        /* \"#utility.yul\":25363:25468   */\n      sstore\n        /* \"#utility.yul\":25281:25474   */\n      pop\n        /* \"#utility.yul\":25205:25474   */\n      pop\n      pop\n      pop\n      jump\t// out\n        /* \"#utility.yul\":25480:25553   */\n    tag_311:\n        /* \"#utility.yul\":25525:25528   */\n      0x00\n        /* \"#utility.yul\":25546:25547   */\n      0x00\n        /* \"#utility.yul\":25539:25547   */\n      swap1\n      pop\n        /* \"#utility.yul\":25480:25553   */\n      swap1\n      jump\t// out\n        /* \"#utility.yul\":25559:25748   */\n    tag_312:\n        /* \"#utility.yul\":25636:25668   */\n      tag_542\n      tag_311\n      jump\t// in\n    tag_542:\n        /* \"#utility.yul\":25677:25742   */\n      tag_543\n        /* \"#utility.yul\":25735:25741   */\n      dup2\n        /* \"#utility.yul\":25727:25733   */\n      dup5\n        /* \"#utility.yul\":25721:25725   */\n      dup5\n        /* \"#utility.yul\":25677:25742   */\n      tag_310\n      jump\t// in\n    tag_543:\n        /* \"#utility.yul\":25612:25748   */\n      pop\n        /* \"#utility.yul\":25559:25748   */\n      pop\n      pop\n      jump\t// out\n        /* \"#utility.yul\":25754:25940   */\n    tag_313:\n        /* \"#utility.yul\":25814:25934   */\n    tag_545:\n        /* \"#utility.yul\":25831:25834   */\n      dup2\n        /* \"#utility.yul\":25824:25829   */\n      dup2\n        /* \"#utility.yul\":25821:25835   */\n      lt\n        /* \"#utility.yul\":25814:25934   */\n      iszero\n      tag_547\n      jumpi\n        /* \"#utility.yul\":25885:25924   */\n      tag_548\n        /* \"#utility.yul\":25922:25923   */\n      0x00\n        /* \"#utility.yul\":25915:25920   */\n      dup3\n        /* \"#utility.yul\":25885:25924   */\n      tag_312\n      jump\t// in\n    tag_548:\n        /* \"#utility.yul\":25858:25859   */\n      0x01\n        /* \"#utility.yul\":25851:25856   */\n      dup2\n        /* \"#utility.yul\":25847:25860   */\n      add\n        /* \"#utility.yul\":25838:25860   */\n      swap1\n      pop\n        /* \"#utility.yul\":25814:25934   */\n      jump(tag_545)\n    tag_547:\n        /* \"#utility.yul\":25754:25940   */\n      pop\n      pop\n      jump\t// out\n        /* \"#utility.yul\":25946:26489   */\n    tag_314:\n        /* \"#utility.yul\":26047:26049   */\n      0x1f\n        /* \"#utility.yul\":26042:26045   */\n      dup3\n        /* \"#utility.yul\":26039:26050   */\n      gt\n        /* \"#utility.yul\":26036:26482   */\n      iszero\n      tag_550\n      jumpi\n        /* \"#utility.yul\":26081:26119   */\n      tag_551\n        /* \"#utility.yul\":26113:26118   */\n      dup2\n        /* \"#utility.yul\":26081:26119   */\n      tag_303\n      jump\t// in\n    tag_551:\n        /* \"#utility.yul\":26165:26194   */\n      tag_552\n        /* \"#utility.yul\":26183:26193   */\n      dup5\n        /* \"#utility.yul\":26165:26194   */\n      tag_304\n      jump\t// in\n    tag_552:\n        /* \"#utility.yul\":26155:26163   */\n      dup2\n        /* \"#utility.yul\":26151:26195   */\n      add\n        /* \"#utility.yul\":26348:26350   */\n      0x20\n        /* \"#utility.yul\":26336:26346   */\n      dup6\n        /* \"#utility.yul\":26333:26351   */\n      lt\n        /* \"#utility.yul\":26330:26379   */\n      iszero\n      tag_553\n      jumpi\n        /* \"#utility.yul\":26369:26377   */\n      dup2\n        /* \"#utility.yul\":26354:26377   */\n      swap1\n      pop\n        /* \"#utility.yul\":26330:26379   */\n    tag_553:\n        /* \"#utility.yul\":26392:26472   */\n      tag_554\n        /* \"#utility.yul\":26448:26470   */\n      tag_555\n        /* \"#utility.yul\":26466:26469   */\n      dup6\n        /* \"#utility.yul\":26448:26470   */\n      tag_304\n      jump\t// in\n    tag_555:\n        /* \"#utility.yul\":26438:26446   */\n      dup4\n        /* \"#utility.yul\":26434:26471   */\n      add\n        /* \"#utility.yul\":26421:26432   */\n      dup3\n        /* \"#utility.yul\":26392:26472   */\n      tag_313\n      jump\t// in\n    tag_554:\n        /* \"#utility.yul\":26051:26482   */\n      pop\n      pop\n        /* \"#utility.yul\":26036:26482   */\n    tag_550:\n        /* \"#utility.yul\":25946:26489   */\n      pop\n      pop\n      pop\n      jump\t// out\n        /* \"#utility.yul\":26495:26612   */\n    tag_315:\n        /* \"#utility.yul\":26549:26557   */\n      0x00\n        /* \"#utility.yul\":26599:26604   */\n      dup3\n        /* \"#utility.yul\":26593:26597   */\n      dup3\n        /* \"#utility.yul\":26589:26605   */\n      shr\n        /* \"#utility.yul\":26568:26605   */\n      swap1\n      pop\n        /* \"#utility.yul\":26495:26612   */\n      swap3\n      swap2\n      pop\n      pop\n      jump\t// out\n        /* \"#utility.yul\":26618:26787   */\n    tag_316:\n        /* \"#utility.yul\":26662:26668   */\n      0x00\n        /* \"#utility.yul\":26695:26746   */\n      tag_558\n        /* \"#utility.yul\":26743:26744   */\n      0x00\n        /* \"#utility.yul\":26739:26745   */\n      not\n        /* \"#utility.yul\":26731:26736   */\n      dup5\n        /* \"#utility.yul\":26728:26729   */\n      0x08\n        /* \"#utility.yul\":26724:26737   */\n      mul\n        /* \"#utility.yul\":26695:26746   */\n      tag_315\n      jump\t// in\n    tag_558:\n        /* \"#utility.yul\":26691:26747   */\n      not\n        /* \"#utility.yul\":26776:26780   */\n      dup1\n        /* \"#utility.yul\":26770:26774   */\n      dup4\n        /* \"#utility.yul\":26766:26781   */\n      and\n        /* \"#utility.yul\":26756:26781   */\n      swap2\n      pop\n        /* \"#utility.yul\":26669:26787   */\n      pop\n        /* \"#utility.yul\":26618:26787   */\n      swap3\n      swap2\n      pop\n      pop\n      jump\t// out\n        /* \"#utility.yul\":26792:27087   */\n    tag_317:\n        /* \"#utility.yul\":26868:26872   */\n      0x00\n        /* \"#utility.yul\":27014:27043   */\n      tag_560\n        /* \"#utility.yul\":27039:27042   */\n      dup4\n        /* \"#utility.yul\":27033:27037   */\n      dup4\n        /* \"#utility.yul\":27014:27043   */\n      tag_316\n      jump\t// in\n    tag_560:\n        /* \"#utility.yul\":27006:27043   */\n      swap2\n      pop\n        /* \"#utility.yul\":27076:27079   */\n      dup3\n        /* \"#utility.yul\":27073:27074   */\n      0x02\n        /* \"#utility.yul\":27069:27080   */\n      mul\n        /* \"#utility.yul\":27063:27067   */\n      dup3\n        /* \"#utility.yul\":27060:27081   */\n      or\n        /* \"#utility.yul\":27052:27081   */\n      swap1\n      pop\n        /* \"#utility.yul\":26792:27087   */\n      swap3\n      swap2\n      pop\n      pop\n      jump\t// out\n        /* \"#utility.yul\":27092:28487   */\n    tag_186:\n        /* \"#utility.yul\":27209:27246   */\n      tag_562\n        /* \"#utility.yul\":27242:27245   */\n      dup3\n        /* \"#utility.yul\":27209:27246   */\n      tag_260\n      jump\t// in\n    tag_562:\n        /* \"#utility.yul\":27311:27329   */\n      0xffffffffffffffff\n        /* \"#utility.yul\":27303:27309   */\n      dup2\n        /* \"#utility.yul\":27300:27330   */\n      gt\n        /* \"#utility.yul\":27297:27353   */\n      iszero\n      tag_563\n      jumpi\n        /* \"#utility.yul\":27333:27351   */\n      tag_564\n      tag_129\n      jump\t// in\n    tag_564:\n        /* \"#utility.yul\":27297:27353   */\n    tag_563:\n        /* \"#utility.yul\":27377:27415   */\n      tag_565\n        /* \"#utility.yul\":27409:27413   */\n      dup3\n        /* \"#utility.yul\":27403:27414   */\n      sload\n        /* \"#utility.yul\":27377:27415   */\n      tag_88\n      jump\t// in\n    tag_565:\n        /* \"#utility.yul\":27462:27529   */\n      tag_566\n        /* \"#utility.yul\":27522:27528   */\n      dup3\n        /* \"#utility.yul\":27514:27520   */\n      dup3\n        /* \"#utility.yul\":27508:27512   */\n      dup6\n        /* \"#utility.yul\":27462:27529   */\n      tag_314\n      jump\t// in\n    tag_566:\n        /* \"#utility.yul\":27556:27557   */\n      0x00\n        /* \"#utility.yul\":27580:27584   */\n      0x20\n        /* \"#utility.yul\":27567:27584   */\n      swap1\n      pop\n        /* \"#utility.yul\":27612:27614   */\n      0x1f\n        /* \"#utility.yul\":27604:27610   */\n      dup4\n        /* \"#utility.yul\":27601:27615   */\n      gt\n        /* \"#utility.yul\":27629:27630   */\n      0x01\n        /* \"#utility.yul\":27624:28242   */\n      dup2\n      eq\n      tag_568\n      jumpi\n        /* \"#utility.yul\":28286:28287   */\n      0x00\n        /* \"#utility.yul\":28303:28309   */\n      dup5\n        /* \"#utility.yul\":28300:28377   */\n      iszero\n      tag_569\n      jumpi\n        /* \"#utility.yul\":28352:28361   */\n      dup3\n        /* \"#utility.yul\":28347:28350   */\n      dup8\n        /* \"#utility.yul\":28343:28362   */\n      add\n        /* \"#utility.yul\":28337:28363   */\n      mload\n        /* \"#utility.yul\":28328:28363   */\n      swap1\n      pop\n        /* \"#utility.yul\":28300:28377   */\n    tag_569:\n        /* \"#utility.yul\":28403:28470   */\n      tag_570\n        /* \"#utility.yul\":28463:28469   */\n      dup6\n        /* \"#utility.yul\":28456:28461   */\n      dup3\n        /* \"#utility.yul\":28403:28470   */\n      tag_317\n      jump\t// in\n    tag_570:\n        /* \"#utility.yul\":28397:28401   */\n      dup7\n        /* \"#utility.yul\":28390:28471   */\n      sstore\n        /* \"#utility.yul\":28259:28481   */\n      pop\n        /* \"#utility.yul\":27594:28481   */\n      jump(tag_567)\n        /* \"#utility.yul\":27624:28242   */\n    tag_568:\n        /* \"#utility.yul\":27676:27680   */\n      0x1f\n        /* \"#utility.yul\":27672:27681   */\n      not\n        /* \"#utility.yul\":27664:27670   */\n      dup5\n        /* \"#utility.yul\":27660:27682   */\n      and\n        /* \"#utility.yul\":27710:27747   */\n      tag_571\n        /* \"#utility.yul\":27742:27746   */\n      dup7\n        /* \"#utility.yul\":27710:27747   */\n      tag_303\n      jump\t// in\n    tag_571:\n        /* \"#utility.yul\":27769:27770   */\n      0x00\n        /* \"#utility.yul\":27783:27991   */\n    tag_572:\n        /* \"#utility.yul\":27797:27804   */\n      dup3\n        /* \"#utility.yul\":27794:27795   */\n      dup2\n        /* \"#utility.yul\":27791:27805   */\n      lt\n        /* \"#utility.yul\":27783:27991   */\n      iszero\n      tag_574\n      jumpi\n        /* \"#utility.yul\":27876:27885   */\n      dup5\n        /* \"#utility.yul\":27871:27874   */\n      dup10\n        /* \"#utility.yul\":27867:27886   */\n      add\n        /* \"#utility.yul\":27861:27887   */\n      mload\n        /* \"#utility.yul\":27853:27859   */\n      dup3\n        /* \"#utility.yul\":27846:27888   */\n      sstore\n        /* \"#utility.yul\":27927:27928   */\n      0x01\n        /* \"#utility.yul\":27919:27925   */\n      dup3\n        /* \"#utility.yul\":27915:27929   */\n      add\n        /* \"#utility.yul\":27905:27929   */\n      swap2\n      pop\n        /* \"#utility.yul\":27974:27976   */\n      0x20\n        /* \"#utility.yul\":27963:27972   */\n      dup6\n        /* \"#utility.yul\":27959:27977   */\n      add\n        /* \"#utility.yul\":27946:27977   */\n      swap5\n      pop\n        /* \"#utility.yul\":27820:27824   */\n      0x20\n        /* \"#utility.yul\":27817:27818   */\n      dup2\n        /* \"#utility.yul\":27813:27825   */\n      add\n        /* \"#utility.yul\":27808:27825   */\n      swap1\n      pop\n        /* \"#utility.yul\":27783:27991   */\n      jump(tag_572)\n    tag_574:\n        /* \"#utility.yul\":28019:28025   */\n      dup7\n        /* \"#utility.yul\":28010:28017   */\n      dup4\n        /* \"#utility.yul\":28007:28026   */\n      lt\n        /* \"#utility.yul\":28004:28183   */\n      iszero\n      tag_575\n      jumpi\n        /* \"#utility.yul\":28077:28086   */\n      dup5\n        /* \"#utility.yul\":28072:28075   */\n      dup10\n        /* \"#utility.yul\":28068:28087   */\n      add\n        /* \"#utility.yul\":28062:28088   */\n      mload\n        /* \"#utility.yul\":28120:28168   */\n      tag_576\n        /* \"#utility.yul\":28162:28166   */\n      0x1f\n        /* \"#utility.yul\":28154:28160   */\n      dup10\n        /* \"#utility.yul\":28150:28167   */\n      and\n        /* \"#utility.yul\":28139:28148   */\n      dup3\n        /* \"#utility.yul\":28120:28168   */\n      tag_316\n      jump\t// in\n    tag_576:\n        /* \"#utility.yul\":28112:28118   */\n      dup4\n        /* \"#utility.yul\":28105:28169   */\n      sstore\n        /* \"#utility.yul\":28027:28183   */\n      pop\n        /* \"#utility.yul\":28004:28183   */\n    tag_575:\n        /* \"#utility.yul\":28229:28230   */\n      0x01\n        /* \"#utility.yul\":28225:28226   */\n      0x02\n        /* \"#utility.yul\":28217:28223   */\n      dup9\n        /* \"#utility.yul\":28213:28227   */\n      mul\n        /* \"#utility.yul\":28209:28231   */\n      add\n        /* \"#utility.yul\":28203:28207   */\n      dup9\n        /* \"#utility.yul\":28196:28232   */\n      sstore\n        /* \"#utility.yul\":27631:28242   */\n      pop\n      pop\n      pop\n        /* \"#utility.yul\":27594:28481   */\n    tag_567:\n      pop\n        /* \"#utility.yul\":27184:28487   */\n      pop\n      pop\n      pop\n        /* \"#utility.yul\":27092:28487   */\n      pop\n      pop\n      jump\t// out\n        /* \"#utility.yul\":28493:28663   */\n    tag_318:\n        /* \"#utility.yul\":28633:28655   */\n      0x43726564656e7469616c206e6f7420666f756e64000000000000000000000000\n        /* \"#utility.yul\":28629:28630   */\n      0x00\n        /* \"#utility.yul\":28621:28627   */\n      dup3\n        /* \"#utility.yul\":28617:28631   */\n      add\n        /* \"#utility.yul\":28610:28656   */\n      mstore\n        /* \"#utility.yul\":28493:28663   */\n      pop\n      jump\t// out\n        /* \"#utility.yul\":28669:29035   */\n    tag_319:\n        /* \"#utility.yul\":28811:28814   */\n      0x00\n        /* \"#utility.yul\":28832:28899   */\n      tag_579\n        /* \"#utility.yul\":28896:28898   */\n      0x14\n        /* \"#utility.yul\":28891:28894   */\n      dup4\n        /* \"#utility.yul\":28832:28899   */\n      tag_261\n      jump\t// in\n    tag_579:\n        /* \"#utility.yul\":28825:28899   */\n      swap2\n      pop\n        /* \"#utility.yul\":28908:29001   */\n      tag_580\n        /* \"#utility.yul\":28997:29000   */\n      dup3\n        /* \"#utility.yul\":28908:29001   */\n      tag_318\n      jump\t// in\n    tag_580:\n        /* \"#utility.yul\":29026:29028   */\n      0x20\n        /* \"#utility.yul\":29021:29024   */\n      dup3\n        /* \"#utility.yul\":29017:29029   */\n      add\n        /* \"#utility.yul\":29010:29029   */\n      swap1\n      pop\n        /* \"#utility.yul\":28669:29035   */\n      swap2\n      swap1\n      pop\n      jump\t// out\n        /* \"#utility.yul\":29041:29460   */\n    tag_206:\n        /* \"#utility.yul\":29207:29211   */\n      0x00\n        /* \"#utility.yul\":29245:29247   */\n      0x20\n        /* \"#utility.yul\":29234:29243   */\n      dup3\n        /* \"#utility.yul\":29230:29248   */\n      add\n        /* \"#utility.yul\":29222:29248   */\n      swap1\n      pop\n        /* \"#utility.yul\":29294:29303   */\n      dup2\n        /* \"#utility.yul\":29288:29292   */\n      dup2\n        /* \"#utility.yul\":29284:29304   */\n      sub\n        /* \"#utility.yul\":29280:29281   */\n      0x00\n        /* \"#utility.yul\":29269:29278   */\n      dup4\n        /* \"#utility.yul\":29265:29282   */\n      add\n        /* \"#utility.yul\":29258:29305   */\n      mstore\n        /* \"#utility.yul\":29322:29453   */\n      tag_582\n        /* \"#utility.yul\":29448:29452   */\n      dup2\n        /* \"#utility.yul\":29322:29453   */\n      tag_319\n      jump\t// in\n    tag_582:\n        /* \"#utility.yul\":29314:29453   */\n      swap1\n      pop\n        /* \"#utility.yul\":29041:29460   */\n      swap2\n      swap1\n      pop\n      jump\t// out\n\n    auxdata: 0xa26469706673582212203fb713276741df6a9e5974a393d0341d830bb65b18d49de1f6f55f8dbd35628964736f6c634300081e0033\n}\n",
				"bytecode": {
					"linkReferences": {},
					"object": "60a060405234801561000f575f5ffd5b50604051612c46380380612c46833981810160405281019061003191906100c9565b8073ffffffffffffffffffffffffffffffffffffffff1660808173ffffffffffffffffffffffffffffffffffffffff1681525050506100f4565b5f5ffd5b5f73ffffffffffffffffffffffffffffffffffffffff82169050919050565b5f6100988261006f565b9050919050565b6100a88161008e565b81146100b2575f5ffd5b50565b5f815190506100c38161009f565b92915050565b5f602082840312156100de576100dd61006b565b5b5f6100eb848285016100b5565b91505092915050565b608051612b2c61011a5f395f818161044101528181611476015261159e0152612b2c5ff3fe608060405234801561000f575f5ffd5b50600436106100e8575f3560e01c8063769785291161008a578063c05c5e9411610064578063c05c5e9414610291578063c57efc5d146102af578063d28adb23146102df578063dbd302621461030f576100e8565b806376978529146102295780639b7c79a214610245578063bd4d8bcb14610275576100e8565b80632f4b5ad3116100c65780632f4b5ad31461016957806345117177146101995780634e83e59a146101c957806355bedcbb146101f9576100e8565b80630dd308cd146100ec57806316b784fe1461011d5780631c67494e1461014d575b5f5ffd5b61010660048036038101906101019190611dca565b610344565b604051610114929190611e87565b60405180910390f35b61013760048036038101906101329190611eb5565b610423565b6040516101449190611efa565b60405180910390f35b61016760048036038101906101629190611eb5565b61043f565b005b610183600480360381019061017e919061203f565b610566565b6040516101909190612193565b60405180910390f35b6101b360048036038101906101ae9190611eb5565b61083d565b6040516101c09190612302565b60405180910390f35b6101e360048036038101906101de9190611eb5565b610d57565b6040516101f091906123dd565b60405180910390f35b610213600480360381019061020e9190611dca565b610e68565b60405161022091906123fd565b60405180910390f35b610243600480360381019061023e919061241d565b610f19565b005b61025f600480360381019061025a9190612504565b61142c565b60405161026c919061254b565b60405180910390f35b61028f600480360381019061028a9190611eb5565b611474565b005b61029961159c565b6040516102a6919061254b565b60405180910390f35b6102c960048036038101906102c49190612504565b6115c0565b6040516102d69190612193565b60405180910390f35b6102f960048036038101906102f49190612504565b6119ef565b60405161030691906123fd565b60405180910390f35b6103296004803603810190610324919061203f565b611aa2565b60405161033b96959493929190612573565b60405180910390f35b6005602052815f5260405f20818154811061035d575f80fd5b905f5260205f2090600202015f9150915050805f015f9054906101000a900473ffffffffffffffffffffffffffffffffffffffff16908060010180546103a290612614565b80601f01602080910402602001604051908101604052809291908181526020018280546103ce90612614565b80156104195780601f106103f057610100808354040283529160200191610419565b820191905f5260205f20905b8154815290600101906020018083116103fc57829003601f168201915b5050505050905082565b5f602052805f5260405f205f915054906101000a900460ff1681565b7f000000000000000000000000000000000000000000000000000000000000000073ffffffffffffffffffffffffffffffffffffffff163373ffffffffffffffffffffffffffffffffffffffff16146104cd576040517f08c379a00000000000000000000000000000000000000000000000000000000081526004016104c49061268e565b60405180910390fd5b5f5f5f8373ffffffffffffffffffffffffffffffffffffffff1673ffffffffffffffffffffffffffffffffffffffff1681526020019081526020015f205f6101000a81548160ff0219169083151502179055508073ffffffffffffffffffffffffffffffffffffffff167f5f2c961a0db2d72fa01bfae36aaca642457678d9c63adaca86c8cb1b3d1230f460405160405180910390a250565b61056e611ccd565b60015f8473ffffffffffffffffffffffffffffffffffffffff1673ffffffffffffffffffffffffffffffffffffffff1681526020019081526020015f20826040516105b991906126e6565b90815260200160405180910390206040518060c00160405290815f820180546105e190612614565b80601f016020809104026020016040519081016040528092919081815260200182805461060d90612614565b80156106585780601f1061062f57610100808354040283529160200191610658565b820191905f5260205f20905b81548152906001019060200180831161063b57829003601f168201915b5050505050815260200160018201805461067190612614565b80601f016020809104026020016040519081016040528092919081815260200182805461069d90612614565b80156106e85780601f106106bf576101008083540402835291602001916106e8565b820191905f5260205f20905b8154815290600101906020018083116106cb57829003601f168201915b505050505081526020016002820154815260200160038201805461070b90612614565b80601f016020809104026020016040519081016040528092919081815260200182805461073790612614565b80156107825780601f1061075957610100808354040283529160200191610782565b820191905f5260205f20905b81548152906001019060200180831161076557829003601f168201915b50505050508152602001600482015f9054906101000a900473ffffffffffffffffffffffffffffffffffffffff1673ffffffffffffffffffffffffffffffffffffffff1673ffffffffffffffffffffffffffffffffffffffff168152602001600582015f9054906101000a900473ffffffffffffffffffffffffffffffffffffffff1673ffffffffffffffffffffffffffffffffffffffff1673ffffffffffffffffffffffffffffffffffffffff1681525050905092915050565b60605f60055f8473ffffffffffffffffffffffffffffffffffffffff1673ffffffffffffffffffffffffffffffffffffffff1681526020019081526020015f20805480602002602001604051908101604052809291908181526020015f905b828210156109b0578382905f5260205f2090600202016040518060400160405290815f82015f9054906101000a900473ffffffffffffffffffffffffffffffffffffffff1673ffffffffffffffffffffffffffffffffffffffff1673ffffffffffffffffffffffffffffffffffffffff16815260200160018201805461092190612614565b80601f016020809104026020016040519081016040528092919081815260200182805461094d90612614565b80156109985780601f1061096f57610100808354040283529160200191610998565b820191905f5260205f20905b81548152906001019060200180831161097b57829003601f168201915b5050505050815250508152602001906001019061089c565b5050505090505f815167ffffffffffffffff8111156109d2576109d1611f1b565b5b604051908082528060200260200182016040528015610a0b57816020015b6109f8611ccd565b8152602001906001900390816109f05790505b5090505f825190505f5f90505b81811015610d4b5760015f858381518110610a3657610a356126fc565b5b60200260200101515f015173ffffffffffffffffffffffffffffffffffffffff1673ffffffffffffffffffffffffffffffffffffffff1681526020019081526020015f20848281518110610a8d57610a8c6126fc565b5b602002602001015160200151604051610aa691906126e6565b90815260200160405180910390206040518060c00160405290815f82018054610ace90612614565b80601f0160208091040260200160405190810160405280929190818152602001828054610afa90612614565b8015610b455780601f10610b1c57610100808354040283529160200191610b45565b820191905f5260205f20905b815481529060010190602001808311610b2857829003601f168201915b50505050508152602001600182018054610b5e90612614565b80601f0160208091040260200160405190810160405280929190818152602001828054610b8a90612614565b8015610bd55780601f10610bac57610100808354040283529160200191610bd5565b820191905f5260205f20905b815481529060010190602001808311610bb857829003601f168201915b5050505050815260200160028201548152602001600382018054610bf890612614565b80601f0160208091040260200160405190810160405280929190818152602001828054610c2490612614565b8015610c6f5780601f10610c4657610100808354040283529160200191610c6f565b820191905f5260205f20905b815481529060010190602001808311610c5257829003601f168201915b50505050508152602001600482015f9054906101000a900473ffffffffffffffffffffffffffffffffffffffff1673ffffffffffffffffffffffffffffffffffffffff1673ffffffffffffffffffffffffffffffffffffffff168152602001600582015f9054906101000a900473ffffffffffffffffffffffffffffffffffffffff1673ffffffffffffffffffffffffffffffffffffffff1673ffffffffffffffffffffffffffffffffffffffff1681525050838281518110610d3557610d346126fc565b5b6020026020010181905250806001019050610a18565b50819350505050919050565b606060025f8373ffffffffffffffffffffffffffffffffffffffff1673ffffffffffffffffffffffffffffffffffffffff1681526020019081526020015f20805480602002602001604051908101604052809291908181526020015f905b82821015610e5d578382905f5260205f20018054610dd290612614565b80601f0160208091040260200160405190810160405280929190818152602001828054610dfe90612614565b8015610e495780601f10610e2057610100808354040283529160200191610e49565b820191905f5260205f20905b815481529060010190602001808311610e2c57829003601f168201915b505050505081526020019060010190610db5565b505050509050919050565b6002602052815f5260405f208181548110610e81575f80fd5b905f5260205f20015f91509150508054610e9a90612614565b80601f0160208091040260200160405190810160405280929190818152602001828054610ec690612614565b8015610f115780601f10610ee857610100808354040283529160200191610f11565b820191905f5260205f20905b815481529060010190602001808311610ef457829003601f168201915b505050505081565b5f5f3373ffffffffffffffffffffffffffffffffffffffff1673ffffffffffffffffffffffffffffffffffffffff1681526020019081526020015f205f9054906101000a900460ff16610fa1576040517f08c379a0000000000000000000000000000000000000000000000000000000008152600401610f9890612773565b60405180910390fd5b5f60015f3373ffffffffffffffffffffffffffffffffffffffff1673ffffffffffffffffffffffffffffffffffffffff1681526020019081526020015f2086604051610fed91906126e6565b9081526020016040518091039020600101805461100990612614565b90501461104b576040517f08c379a000000000000000000000000000000000000000000000000000000000815260040161104290612801565b60405180910390fd5b6040518060c001604052808481526020018381526020014281526020018281526020013373ffffffffffffffffffffffffffffffffffffffff1681526020018573ffffffffffffffffffffffffffffffffffffffff1681525060015f3373ffffffffffffffffffffffffffffffffffffffff1673ffffffffffffffffffffffffffffffffffffffff1681526020019081526020015f20866040516110ef91906126e6565b90815260200160405180910390205f820151815f01908161111091906129bf565b50602082015181600101908161112691906129bf565b5060408201518160020155606082015181600301908161114691906129bf565b506080820151816004015f6101000a81548173ffffffffffffffffffffffffffffffffffffffff021916908373ffffffffffffffffffffffffffffffffffffffff16021790555060a0820151816005015f6101000a81548173ffffffffffffffffffffffffffffffffffffffff021916908373ffffffffffffffffffffffffffffffffffffffff16021790555090505060055f8573ffffffffffffffffffffffffffffffffffffffff1673ffffffffffffffffffffffffffffffffffffffff1681526020019081526020015f2060405180604001604052803373ffffffffffffffffffffffffffffffffffffffff16815260200187815250908060018154018082558091505060019003905f5260205f2090600202015f909190919091505f820151815f015f6101000a81548173ffffffffffffffffffffffffffffffffffffffff021916908373ffffffffffffffffffffffffffffffffffffffff16021790555060208201518160010190816112bd91906129bf565b50505060025f3373ffffffffffffffffffffffffffffffffffffffff1673ffffffffffffffffffffffffffffffffffffffff1681526020019081526020015f2085908060018154018082558091505060019003905f5260205f20015f90919091909150908161132c91906129bf565b508460048260405161133e91906126e6565b9081526020016040518091039020908161135891906129bf565b503360038260405161136a91906126e6565b90815260200160405180910390205f6101000a81548173ffffffffffffffffffffffffffffffffffffffff021916908373ffffffffffffffffffffffffffffffffffffffff1602179055508373ffffffffffffffffffffffffffffffffffffffff163373ffffffffffffffffffffffffffffffffffffffff16866040516113f191906126e6565b60405180910390207f754a5531e45cd3b12a4ad1e6573de002f31131ea821a89fe02613e3e93f99f3360405160405180910390a45050505050565b6003818051602081018201805184825260208301602085012081835280955050505050505f915054906101000a900473ffffffffffffffffffffffffffffffffffffffff1681565b7f000000000000000000000000000000000000000000000000000000000000000073ffffffffffffffffffffffffffffffffffffffff163373ffffffffffffffffffffffffffffffffffffffff1614611502576040517f08c379a00000000000000000000000000000000000000000000000000000000081526004016114f99061268e565b60405180910390fd5b60015f5f8373ffffffffffffffffffffffffffffffffffffffff1673ffffffffffffffffffffffffffffffffffffffff1681526020019081526020015f205f6101000a81548160ff0219169083151502179055508073ffffffffffffffffffffffffffffffffffffffff167f2aef8a157b05c49aaaeebd094bf2b10b2b90835af1fd87c288f6effa9a6a243460405160405180910390a250565b7f000000000000000000000000000000000000000000000000000000000000000081565b6115c8611ccd565b5f6003836040516115d991906126e6565b90815260200160405180910390205f9054906101000a900473ffffffffffffffffffffffffffffffffffffffff1690505f73ffffffffffffffffffffffffffffffffffffffff168173ffffffffffffffffffffffffffffffffffffffff1603611677576040517f08c379a000000000000000000000000000000000000000000000000000000000815260040161166e90612ad8565b60405180910390fd5b5f60048460405161168891906126e6565b908152602001604051809103902080546116a190612614565b80601f01602080910402602001604051908101604052809291908181526020018280546116cd90612614565b80156117185780601f106116ef57610100808354040283529160200191611718565b820191905f5260205f20905b8154815290600101906020018083116116fb57829003601f168201915b5050505050905060015f8373ffffffffffffffffffffffffffffffffffffffff1673ffffffffffffffffffffffffffffffffffffffff1681526020019081526020015f208160405161176a91906126e6565b90815260200160405180910390206040518060c00160405290815f8201805461179290612614565b80601f01602080910402602001604051908101604052809291908181526020018280546117be90612614565b80156118095780601f106117e057610100808354040283529160200191611809565b820191905f5260205f20905b8154815290600101906020018083116117ec57829003601f168201915b5050505050815260200160018201805461182290612614565b80601f016020809104026020016040519081016040528092919081815260200182805461184e90612614565b80156118995780601f1061187057610100808354040283529160200191611899565b820191905f5260205f20905b81548152906001019060200180831161187c57829003601f168201915b50505050508152602001600282015481526020016003820180546118bc90612614565b80601f01602080910402602001604051908101604052809291908181526020018280546118e890612614565b80156119335780601f1061190a57610100808354040283529160200191611933565b820191905f5260205f20905b81548152906001019060200180831161191657829003601f168201915b50505050508152602001600482015f9054906101000a900473ffffffffffffffffffffffffffffffffffffffff1673ffffffffffffffffffffffffffffffffffffffff1673ffffffffffffffffffffffffffffffffffffffff168152602001600582015f9054906101000a900473ffffffffffffffffffffffffffffffffffffffff1673ffffffffffffffffffffffffffffffffffffffff1673ffffffffffffffffffffffffffffffffffffffff168152505092505050919050565b6004818051602081018201805184825260208301602085012081835280955050505050505f915090508054611a2390612614565b80601f0160208091040260200160405190810160405280929190818152602001828054611a4f90612614565b8015611a9a5780601f10611a7157610100808354040283529160200191611a9a565b820191905f5260205f20905b815481529060010190602001808311611a7d57829003601f168201915b505050505081565b6001602052815f5260405f20818051602081018201805184825260208301602085012081835280955050505050505f9150915050805f018054611ae490612614565b80601f0160208091040260200160405190810160405280929190818152602001828054611b1090612614565b8015611b5b5780601f10611b3257610100808354040283529160200191611b5b565b820191905f5260205f20905b815481529060010190602001808311611b3e57829003601f168201915b505050505090806001018054611b7090612614565b80601f0160208091040260200160405190810160405280929190818152602001828054611b9c90612614565b8015611be75780601f10611bbe57610100808354040283529160200191611be7565b820191905f5260205f20905b815481529060010190602001808311611bca57829003601f168201915b505050505090806002015490806003018054611c0290612614565b80601f0160208091040260200160405190810160405280929190818152602001828054611c2e90612614565b8015611c795780601f10611c5057610100808354040283529160200191611c79565b820191905f5260205f20905b815481529060010190602001808311611c5c57829003601f168201915b505050505090806004015f9054906101000a900473ffffffffffffffffffffffffffffffffffffffff1690806005015f9054906101000a900473ffffffffffffffffffffffffffffffffffffffff16905086565b6040518060c0016040528060608152602001606081526020015f8152602001606081526020015f73ffffffffffffffffffffffffffffffffffffffff1681526020015f73ffffffffffffffffffffffffffffffffffffffff1681525090565b5f604051905090565b5f5ffd5b5f5ffd5b5f73ffffffffffffffffffffffffffffffffffffffff82169050919050565b5f611d6682611d3d565b9050919050565b611d7681611d5c565b8114611d80575f5ffd5b50565b5f81359050611d9181611d6d565b92915050565b5f819050919050565b611da981611d97565b8114611db3575f5ffd5b50565b5f81359050611dc481611da0565b92915050565b5f5f60408385031215611de057611ddf611d35565b5b5f611ded85828601611d83565b9250506020611dfe85828601611db6565b9150509250929050565b611e1181611d5c565b82525050565b5f81519050919050565b5f82825260208201905092915050565b8281835e5f83830152505050565b5f601f19601f8301169050919050565b5f611e5982611e17565b611e638185611e21565b9350611e73818560208601611e31565b611e7c81611e3f565b840191505092915050565b5f604082019050611e9a5f830185611e08565b8181036020830152611eac8184611e4f565b90509392505050565b5f60208284031215611eca57611ec9611d35565b5b5f611ed784828501611d83565b91505092915050565b5f8115159050919050565b611ef481611ee0565b82525050565b5f602082019050611f0d5f830184611eeb565b92915050565b5f5ffd5b5f5ffd5b7f4e487b71000000000000000000000000000000000000000000000000000000005f52604160045260245ffd5b611f5182611e3f565b810181811067ffffffffffffffff82111715611f7057611f6f611f1b565b5b80604052505050565b5f611f82611d2c565b9050611f8e8282611f48565b919050565b5f67ffffffffffffffff821115611fad57611fac611f1b565b5b611fb682611e3f565b9050602081019050919050565b828183375f83830152505050565b5f611fe3611fde84611f93565b611f79565b905082815260208101848484011115611fff57611ffe611f17565b5b61200a848285611fc3565b509392505050565b5f82601f83011261202657612025611f13565b5b8135612036848260208601611fd1565b91505092915050565b5f5f6040838503121561205557612054611d35565b5b5f61206285828601611d83565b925050602083013567ffffffffffffffff81111561208357612082611d39565b5b61208f85828601612012565b9150509250929050565b5f82825260208201905092915050565b5f6120b382611e17565b6120bd8185612099565b93506120cd818560208601611e31565b6120d681611e3f565b840191505092915050565b6120ea81611d97565b82525050565b6120f981611d5c565b82525050565b5f60c083015f8301518482035f86015261211982826120a9565b9150506020830151848203602086015261213382826120a9565b915050604083015161214860408601826120e1565b506060830151848203606086015261216082826120a9565b915050608083015161217560808601826120f0565b5060a083015161218860a08601826120f0565b508091505092915050565b5f6020820190508181035f8301526121ab81846120ff565b905092915050565b5f81519050919050565b5f82825260208201905092915050565b5f819050602082019050919050565b5f60c083015f8301518482035f8601526121f682826120a9565b9150506020830151848203602086015261221082826120a9565b915050604083015161222560408601826120e1565b506060830151848203606086015261223d82826120a9565b915050608083015161225260808601826120f0565b5060a083015161226560a08601826120f0565b508091505092915050565b5f61227b83836121dc565b905092915050565b5f602082019050919050565b5f612299826121b3565b6122a381856121bd565b9350836020820285016122b5856121cd565b805f5b858110156122f057848403895281516122d18582612270565b94506122dc83612283565b925060208a019950506001810190506122b8565b50829750879550505050505092915050565b5f6020820190508181035f83015261231a818461228f565b905092915050565b5f81519050919050565b5f82825260208201905092915050565b5f819050602082019050919050565b5f61235683836120a9565b905092915050565b5f602082019050919050565b5f61237482612322565b61237e818561232c565b9350836020820285016123908561233c565b805f5b858110156123cb57848403895281516123ac858261234b565b94506123b78361235e565b925060208a01995050600181019050612393565b50829750879550505050505092915050565b5f6020820190508181035f8301526123f5818461236a565b905092915050565b5f6020820190508181035f8301526124158184611e4f565b905092915050565b5f5f5f5f5f60a0868803121561243657612435611d35565b5b5f86013567ffffffffffffffff81111561245357612452611d39565b5b61245f88828901612012565b955050602061247088828901611d83565b945050604086013567ffffffffffffffff81111561249157612490611d39565b5b61249d88828901612012565b935050606086013567ffffffffffffffff8111156124be576124bd611d39565b5b6124ca88828901612012565b925050608086013567ffffffffffffffff8111156124eb576124ea611d39565b5b6124f788828901612012565b9150509295509295909350565b5f6020828403121561251957612518611d35565b5b5f82013567ffffffffffffffff81111561253657612535611d39565b5b61254284828501612012565b91505092915050565b5f60208201905061255e5f830184611e08565b92915050565b61256d81611d97565b82525050565b5f60c0820190508181035f83015261258b8189611e4f565b9050818103602083015261259f8188611e4f565b90506125ae6040830187612564565b81810360608301526125c08186611e4f565b90506125cf6080830185611e08565b6125dc60a0830184611e08565b979650505050505050565b7f4e487b71000000000000000000000000000000000000000000000000000000005f52602260045260245ffd5b5f600282049050600182168061262b57607f821691505b60208210810361263e5761263d6125e7565b5b50919050565b7f4e6f7420617574686f72697a65640000000000000000000000000000000000005f82015250565b5f612678600e83611e21565b915061268382612644565b602082019050919050565b5f6020820190508181035f8301526126a58161266c565b9050919050565b5f81905092915050565b5f6126c082611e17565b6126ca81856126ac565b93506126da818560208601611e31565b80840191505092915050565b5f6126f182846126b6565b915081905092915050565b7f4e487b71000000000000000000000000000000000000000000000000000000005f52603260045260245ffd5b7f496e737469747574696f6e206e6f7420617574686f72697a65640000000000005f82015250565b5f61275d601a83611e21565b915061276882612729565b602082019050919050565b5f6020820190508181035f83015261278a81612751565b9050919050565b7f43726564656e7469616c20494420616c7265616479207573656420627920796f5f8201527f757220696e737469747574696f6e000000000000000000000000000000000000602082015250565b5f6127eb602e83611e21565b91506127f682612791565b604082019050919050565b5f6020820190508181035f830152612818816127df565b9050919050565b5f819050815f5260205f209050919050565b5f6020601f8301049050919050565b5f82821b905092915050565b5f6008830261287b7fffffffffffffffffffffffffffffffffffffffffffffffffffffffffffffffff82612840565b6128858683612840565b95508019841693508086168417925050509392505050565b5f819050919050565b5f6128c06128bb6128b684611d97565b61289d565b611d97565b9050919050565b5f819050919050565b6128d9836128a6565b6128ed6128e5826128c7565b84845461284c565b825550505050565b5f5f905090565b6129046128f5565b61290f8184846128d0565b505050565b5b81811015612932576129275f826128fc565b600181019050612915565b5050565b601f821115612977576129488161281f565b61295184612831565b81016020851015612960578190505b61297461296c85612831565b830182612914565b50505b505050565b5f82821c905092915050565b5f6129975f198460080261297c565b1980831691505092915050565b5f6129af8383612988565b9150826002028217905092915050565b6129c882611e17565b67ffffffffffffffff8111156129e1576129e0611f1b565b5b6129eb8254612614565b6129f6828285612936565b5f60209050601f831160018114612a27575f8415612a15578287015190505b612a1f85826129a4565b865550612a86565b601f198416612a358661281f565b5f5b82811015612a5c57848901518255600182019150602085019450602081019050612a37565b86831015612a795784890151612a75601f891682612988565b8355505b6001600288020188555050505b505050505050565b7f43726564656e7469616c206e6f7420666f756e640000000000000000000000005f82015250565b5f612ac2601483611e21565b9150612acd82612a8e565b602082019050919050565b5f6020820190508181035f830152612aef81612ab6565b905091905056fea26469706673582212203fb713276741df6a9e5974a393d0341d830bb65b18d49de1f6f55f8dbd35628964736f6c634300081e0033",
					"opcodes": "PUSH1 0xA0 PUSH1 0x40 MSTORE CALLVALUE DUP1 ISZERO PUSH2 0xF JUMPI PUSH0 PUSH0 REVERT JUMPDEST POP PUSH1 0x40 MLOAD PUSH2 0x2C46 CODESIZE SUB DUP1 PUSH2 0x2C46 DUP4 CODECOPY DUP2 DUP2 ADD PUSH1 0x40 MSTORE DUP2 ADD SWAP1 PUSH2 0x31 SWAP2 SWAP1 PUSH2 0xC9 JUMP JUMPDEST DUP1 PUSH20 0xFFFFFFFFFFFFFFFFFFFFFFFFFFFFFFFFFFFFFFFF AND PUSH1 0x80 DUP2 PUSH20 0xFFFFFFFFFFFFFFFFFFFFFFFFFFFFFFFFFFFFFFFF AND DUP2 MSTORE POP POP POP PUSH2 0xF4 JUMP JUMPDEST PUSH0 PUSH0 REVERT JUMPDEST PUSH0 PUSH20 0xFFFFFFFFFFFFFFFFFFFFFFFFFFFFFFFFFFFFFFFF DUP3 AND SWAP1 POP SWAP2 SWAP1 POP JUMP JUMPDEST PUSH0 PUSH2 0x98 DUP3 PUSH2 0x6F JUMP JUMPDEST SWAP1 POP SWAP2 SWAP1 POP JUMP JUMPDEST PUSH2 0xA8 DUP2 PUSH2 0x8E JUMP JUMPDEST DUP2 EQ PUSH2 0xB2 JUMPI PUSH0 PUSH0 REVERT JUMPDEST POP JUMP JUMPDEST PUSH0 DUP2 MLOAD SWAP1 POP PUSH2 0xC3 DUP2 PUSH2 0x9F JUMP JUMPDEST SWAP3 SWAP2 POP POP JUMP JUMPDEST PUSH0 PUSH1 0x20 DUP3 DUP5 SUB SLT ISZERO PUSH2 0xDE JUMPI PUSH2 0xDD PUSH2 0x6B JUMP JUMPDEST JUMPDEST PUSH0 PUSH2 0xEB DUP5 DUP3 DUP6 ADD PUSH2 0xB5 JUMP JUMPDEST SWAP2 POP POP SWAP3 SWAP2 POP POP JUMP JUMPDEST PUSH1 0x80 MLOAD PUSH2 0x2B2C PUSH2 0x11A PUSH0 CODECOPY PUSH0 DUP2 DUP2 PUSH2 0x441 ADD MSTORE DUP2 DUP2 PUSH2 0x1476 ADD MSTORE PUSH2 0x159E ADD MSTORE PUSH2 0x2B2C PUSH0 RETURN INVALID PUSH1 0x80 PUSH1 0x40 MSTORE CALLVALUE DUP1 ISZERO PUSH2 0xF JUMPI PUSH0 PUSH0 REVERT JUMPDEST POP PUSH1 0x4 CALLDATASIZE LT PUSH2 0xE8 JUMPI PUSH0 CALLDATALOAD PUSH1 0xE0 SHR DUP1 PUSH4 0x76978529 GT PUSH2 0x8A JUMPI DUP1 PUSH4 0xC05C5E94 GT PUSH2 0x64 JUMPI DUP1 PUSH4 0xC05C5E94 EQ PUSH2 0x291 JUMPI DUP1 PUSH4 0xC57EFC5D EQ PUSH2 0x2AF JUMPI DUP1 PUSH4 0xD28ADB23 EQ PUSH2 0x2DF JUMPI DUP1 PUSH4 0xDBD30262 EQ PUSH2 0x30F JUMPI PUSH2 0xE8 JUMP JUMPDEST DUP1 PUSH4 0x76978529 EQ PUSH2 0x229 JUMPI DUP1 PUSH4 0x9B7C79A2 EQ PUSH2 0x245 JUMPI DUP1 PUSH4 0xBD4D8BCB EQ PUSH2 0x275 JUMPI PUSH2 0xE8 JUMP JUMPDEST DUP1 PUSH4 0x2F4B5AD3 GT PUSH2 0xC6 JUMPI DUP1 PUSH4 0x2F4B5AD3 EQ PUSH2 0x169 JUMPI DUP1 PUSH4 0x45117177 EQ PUSH2 0x199 JUMPI DUP1 PUSH4 0x4E83E59A EQ PUSH2 0x1C9 JUMPI DUP1 PUSH4 0x55BEDCBB EQ PUSH2 0x1F9 JUMPI PUSH2 0xE8 JUMP JUMPDEST DUP1 PUSH4 0xDD308CD EQ PUSH2 0xEC JUMPI DUP1 PUSH4 0x16B784FE EQ PUSH2 0x11D JUMPI DUP1 PUSH4 0x1C67494E EQ PUSH2 0x14D JUMPI JUMPDEST PUSH0 PUSH0 REVERT JUMPDEST PUSH2 0x106 PUSH1 0x4 DUP1 CALLDATASIZE SUB DUP2 ADD SWAP1 PUSH2 0x101 SWAP2 SWAP1 PUSH2 0x1DCA JUMP JUMPDEST PUSH2 0x344 JUMP JUMPDEST PUSH1 0x40 MLOAD PUSH2 0x114 SWAP3 SWAP2 SWAP1 PUSH2 0x1E87 JUMP JUMPDEST PUSH1 0x40 MLOAD DUP1 SWAP2 SUB SWAP1 RETURN JUMPDEST PUSH2 0x137 PUSH1 0x4 DUP1 CALLDATASIZE SUB DUP2 ADD SWAP1 PUSH2 0x132 SWAP2 SWAP1 PUSH2 0x1EB5 JUMP JUMPDEST PUSH2 0x423 JUMP JUMPDEST PUSH1 0x40 MLOAD PUSH2 0x144 SWAP2 SWAP1 PUSH2 0x1EFA JUMP JUMPDEST PUSH1 0x40 MLOAD DUP1 SWAP2 SUB SWAP1 RETURN JUMPDEST PUSH2 0x167 PUSH1 0x4 DUP1 CALLDATASIZE SUB DUP2 ADD SWAP1 PUSH2 0x162 SWAP2 SWAP1 PUSH2 0x1EB5 JUMP JUMPDEST PUSH2 0x43F JUMP JUMPDEST STOP JUMPDEST PUSH2 0x183 PUSH1 0x4 DUP1 CALLDATASIZE SUB DUP2 ADD SWAP1 PUSH2 0x17E SWAP2 SWAP1 PUSH2 0x203F JUMP JUMPDEST PUSH2 0x566 JUMP JUMPDEST PUSH1 0x40 MLOAD PUSH2 0x190 SWAP2 SWAP1 PUSH2 0x2193 JUMP JUMPDEST PUSH1 0x40 MLOAD DUP1 SWAP2 SUB SWAP1 RETURN JUMPDEST PUSH2 0x1B3 PUSH1 0x4 DUP1 CALLDATASIZE SUB DUP2 ADD SWAP1 PUSH2 0x1AE SWAP2 SWAP1 PUSH2 0x1EB5 JUMP JUMPDEST PUSH2 0x83D JUMP JUMPDEST PUSH1 0x40 MLOAD PUSH2 0x1C0 SWAP2 SWAP1 PUSH2 0x2302 JUMP JUMPDEST PUSH1 0x40 MLOAD DUP1 SWAP2 SUB SWAP1 RETURN JUMPDEST PUSH2 0x1E3 PUSH1 0x4 DUP1 CALLDATASIZE SUB DUP2 ADD SWAP1 PUSH2 0x1DE SWAP2 SWAP1 PUSH2 0x1EB5 JUMP JUMPDEST PUSH2 0xD57 JUMP JUMPDEST PUSH1 0x40 MLOAD PUSH2 0x1F0 SWAP2 SWAP1 PUSH2 0x23DD JUMP JUMPDEST PUSH1 0x40 MLOAD DUP1 SWAP2 SUB SWAP1 RETURN JUMPDEST PUSH2 0x213 PUSH1 0x4 DUP1 CALLDATASIZE SUB DUP2 ADD SWAP1 PUSH2 0x20E SWAP2 SWAP1 PUSH2 0x1DCA JUMP JUMPDEST PUSH2 0xE68 JUMP JUMPDEST PUSH1 0x40 MLOAD PUSH2 0x220 SWAP2 SWAP1 PUSH2 0x23FD JUMP JUMPDEST PUSH1 0x40 MLOAD DUP1 SWAP2 SUB SWAP1 RETURN JUMPDEST PUSH2 0x243 PUSH1 0x4 DUP1 CALLDATASIZE SUB DUP2 ADD SWAP1 PUSH2 0x23E SWAP2 SWAP1 PUSH2 0x241D JUMP JUMPDEST PUSH2 0xF19 JUMP JUMPDEST STOP JUMPDEST PUSH2 0x25F PUSH1 0x4 DUP1 CALLDATASIZE SUB DUP2 ADD SWAP1 PUSH2 0x25A SWAP2 SWAP1 PUSH2 0x2504 JUMP JUMPDEST PUSH2 0x142C JUMP JUMPDEST PUSH1 0x40 MLOAD PUSH2 0x26C SWAP2 SWAP1 PUSH2 0x254B JUMP JUMPDEST PUSH1 0x40 MLOAD DUP1 SWAP2 SUB SWAP1 RETURN JUMPDEST PUSH2 0x28F PUSH1 0x4 DUP1 CALLDATASIZE SUB DUP2 ADD SWAP1 PUSH2 0x28A SWAP2 SWAP1 PUSH2 0x1EB5 JUMP JUMPDEST PUSH2 0x1474 JUMP JUMPDEST STOP JUMPDEST PUSH2 0x299 PUSH2 0x159C JUMP JUMPDEST PUSH1 0x40 MLOAD PUSH2 0x2A6 SWAP2 SWAP1 PUSH2 0x254B JUMP JUMPDEST PUSH1 0x40 MLOAD DUP1 SWAP2 SUB SWAP1 RETURN JUMPDEST PUSH2 0x2C9 PUSH1 0x4 DUP1 CALLDATASIZE SUB DUP2 ADD SWAP1 PUSH2 0x2C4 SWAP2 SWAP1 PUSH2 0x2504 JUMP JUMPDEST PUSH2 0x15C0 JUMP JUMPDEST PUSH1 0x40 MLOAD PUSH2 0x2D6 SWAP2 SWAP1 PUSH2 0x2193 JUMP JUMPDEST PUSH1 0x40 MLOAD DUP1 SWAP2 SUB SWAP1 RETURN JUMPDEST PUSH2 0x2F9 PUSH1 0x4 DUP1 CALLDATASIZE SUB DUP2 ADD SWAP1 PUSH2 0x2F4 SWAP2 SWAP1 PUSH2 0x2504 JUMP JUMPDEST PUSH2 0x19EF JUMP JUMPDEST PUSH1 0x40 MLOAD PUSH2 0x306 SWAP2 SWAP1 PUSH2 0x23FD JUMP JUMPDEST PUSH1 0x40 MLOAD DUP1 SWAP2 SUB SWAP1 RETURN JUMPDEST PUSH2 0x329 PUSH1 0x4 DUP1 CALLDATASIZE SUB DUP2 ADD SWAP1 PUSH2 0x324 SWAP2 SWAP1 PUSH2 0x203F JUMP JUMPDEST PUSH2 0x1AA2 JUMP JUMPDEST PUSH1 0x40 MLOAD PUSH2 0x33B SWAP7 SWAP6 SWAP5 SWAP4 SWAP3 SWAP2 SWAP1 PUSH2 0x2573 JUMP JUMPDEST PUSH1 0x40 MLOAD DUP1 SWAP2 SUB SWAP1 RETURN JUMPDEST PUSH1 0x5 PUSH1 0x20 MSTORE DUP2 PUSH0 MSTORE PUSH1 0x40 PUSH0 KECCAK256 DUP2 DUP2 SLOAD DUP2 LT PUSH2 0x35D JUMPI PUSH0 DUP1 REVERT JUMPDEST SWAP1 PUSH0 MSTORE PUSH1 0x20 PUSH0 KECCAK256 SWAP1 PUSH1 0x2 MUL ADD PUSH0 SWAP2 POP SWAP2 POP POP DUP1 PUSH0 ADD PUSH0 SWAP1 SLOAD SWAP1 PUSH2 0x100 EXP SWAP1 DIV PUSH20 0xFFFFFFFFFFFFFFFFFFFFFFFFFFFFFFFFFFFFFFFF AND SWAP1 DUP1 PUSH1 0x1 ADD DUP1 SLOAD PUSH2 0x3A2 SWAP1 PUSH2 0x2614 JUMP JUMPDEST DUP1 PUSH1 0x1F ADD PUSH1 0x20 DUP1 SWAP2 DIV MUL PUSH1 0x20 ADD PUSH1 0x40 MLOAD SWAP1 DUP2 ADD PUSH1 0x40 MSTORE DUP1 SWAP3 SWAP2 SWAP1 DUP2 DUP2 MSTORE PUSH1 0x20 ADD DUP3 DUP1 SLOAD PUSH2 0x3CE SWAP1 PUSH2 0x2614 JUMP JUMPDEST DUP1 ISZERO PUSH2 0x419 JUMPI DUP1 PUSH1 0x1F LT PUSH2 0x3F0 JUMPI PUSH2 0x100 DUP1 DUP4 SLOAD DIV MUL DUP4 MSTORE SWAP2 PUSH1 0x20 ADD SWAP2 PUSH2 0x419 JUMP JUMPDEST DUP3 ADD SWAP2 SWAP1 PUSH0 MSTORE PUSH1 0x20 PUSH0 KECCAK256 SWAP1 JUMPDEST DUP2 SLOAD DUP2 MSTORE SWAP1 PUSH1 0x1 ADD SWAP1 PUSH1 0x20 ADD DUP1 DUP4 GT PUSH2 0x3FC JUMPI DUP3 SWAP1 SUB PUSH1 0x1F AND DUP3 ADD SWAP2 JUMPDEST POP POP POP POP POP SWAP1 POP DUP3 JUMP JUMPDEST PUSH0 PUSH1 0x20 MSTORE DUP1 PUSH0 MSTORE PUSH1 0x40 PUSH0 KECCAK256 PUSH0 SWAP2 POP SLOAD SWAP1 PUSH2 0x100 EXP SWAP1 DIV PUSH1 0xFF AND DUP2 JUMP JUMPDEST PUSH32 0x0 PUSH20 0xFFFFFFFFFFFFFFFFFFFFFFFFFFFFFFFFFFFFFFFF AND CALLER PUSH20 0xFFFFFFFFFFFFFFFFFFFFFFFFFFFFFFFFFFFFFFFF AND EQ PUSH2 0x4CD JUMPI PUSH1 0x40 MLOAD PUSH32 0x8C379A000000000000000000000000000000000000000000000000000000000 DUP2 MSTORE PUSH1 0x4 ADD PUSH2 0x4C4 SWAP1 PUSH2 0x268E JUMP JUMPDEST PUSH1 0x40 MLOAD DUP1 SWAP2 SUB SWAP1 REVERT JUMPDEST PUSH0 PUSH0 PUSH0 DUP4 PUSH20 0xFFFFFFFFFFFFFFFFFFFFFFFFFFFFFFFFFFFFFFFF AND PUSH20 0xFFFFFFFFFFFFFFFFFFFFFFFFFFFFFFFFFFFFFFFF AND DUP2 MSTORE PUSH1 0x20 ADD SWAP1 DUP2 MSTORE PUSH1 0x20 ADD PUSH0 KECCAK256 PUSH0 PUSH2 0x100 EXP DUP2 SLOAD DUP2 PUSH1 0xFF MUL NOT AND SWAP1 DUP4 ISZERO ISZERO MUL OR SWAP1 SSTORE POP DUP1 PUSH20 0xFFFFFFFFFFFFFFFFFFFFFFFFFFFFFFFFFFFFFFFF AND PUSH32 0x5F2C961A0DB2D72FA01BFAE36AACA642457678D9C63ADACA86C8CB1B3D1230F4 PUSH1 0x40 MLOAD PUSH1 0x40 MLOAD DUP1 SWAP2 SUB SWAP1 LOG2 POP JUMP JUMPDEST PUSH2 0x56E PUSH2 0x1CCD JUMP JUMPDEST PUSH1 0x1 PUSH0 DUP5 PUSH20 0xFFFFFFFFFFFFFFFFFFFFFFFFFFFFFFFFFFFFFFFF AND PUSH20 0xFFFFFFFFFFFFFFFFFFFFFFFFFFFFFFFFFFFFFFFF AND DUP2 MSTORE PUSH1 0x20 ADD SWAP1 DUP2 MSTORE PUSH1 0x20 ADD PUSH0 KECCAK256 DUP3 PUSH1 0x40 MLOAD PUSH2 0x5B9 SWAP2 SWAP1 PUSH2 0x26E6 JUMP JUMPDEST SWAP1 DUP2 MSTORE PUSH1 0x20 ADD PUSH1 0x40 MLOAD DUP1 SWAP2 SUB SWAP1 KECCAK256 PUSH1 0x40 MLOAD DUP1 PUSH1 0xC0 ADD PUSH1 0x40 MSTORE SWAP1 DUP2 PUSH0 DUP3 ADD DUP1 SLOAD PUSH2 0x5E1 SWAP1 PUSH2 0x2614 JUMP JUMPDEST DUP1 PUSH1 0x1F ADD PUSH1 0x20 DUP1 SWAP2 DIV MUL PUSH1 0x20 ADD PUSH1 0x40 MLOAD SWAP1 DUP2 ADD PUSH1 0x40 MSTORE DUP1 SWAP3 SWAP2 SWAP1 DUP2 DUP2 MSTORE PUSH1 0x20 ADD DUP3 DUP1 SLOAD PUSH2 0x60D SWAP1 PUSH2 0x2614 JUMP JUMPDEST DUP1 ISZERO PUSH2 0x658 JUMPI DUP1 PUSH1 0x1F LT PUSH2 0x62F JUMPI PUSH2 0x100 DUP1 DUP4 SLOAD DIV MUL DUP4 MSTORE SWAP2 PUSH1 0x20 ADD SWAP2 PUSH2 0x658 JUMP JUMPDEST DUP3 ADD SWAP2 SWAP1 PUSH0 MSTORE PUSH1 0x20 PUSH0 KECCAK256 SWAP1 JUMPDEST DUP2 SLOAD DUP2 MSTORE SWAP1 PUSH1 0x1 ADD SWAP1 PUSH1 0x20 ADD DUP1 DUP4 GT PUSH2 0x63B JUMPI DUP3 SWAP1 SUB PUSH1 0x1F AND DUP3 ADD SWAP2 JUMPDEST POP POP POP POP POP DUP2 MSTORE PUSH1 0x20 ADD PUSH1 0x1 DUP3 ADD DUP1 SLOAD PUSH2 0x671 SWAP1 PUSH2 0x2614 JUMP JUMPDEST DUP1 PUSH1 0x1F ADD PUSH1 0x20 DUP1 SWAP2 DIV MUL PUSH1 0x20 ADD PUSH1 0x40 MLOAD SWAP1 DUP2 ADD PUSH1 0x40 MSTORE DUP1 SWAP3 SWAP2 SWAP1 DUP2 DUP2 MSTORE PUSH1 0x20 ADD DUP3 DUP1 SLOAD PUSH2 0x69D SWAP1 PUSH2 0x2614 JUMP JUMPDEST DUP1 ISZERO PUSH2 0x6E8 JUMPI DUP1 PUSH1 0x1F LT PUSH2 0x6BF JUMPI PUSH2 0x100 DUP1 DUP4 SLOAD DIV MUL DUP4 MSTORE SWAP2 PUSH1 0x20 ADD SWAP2 PUSH2 0x6E8 JUMP JUMPDEST DUP3 ADD SWAP2 SWAP1 PUSH0 MSTORE PUSH1 0x20 PUSH0 KECCAK256 SWAP1 JUMPDEST DUP2 SLOAD DUP2 MSTORE SWAP1 PUSH1 0x1 ADD SWAP1 PUSH1 0x20 ADD DUP1 DUP4 GT PUSH2 0x6CB JUMPI DUP3 SWAP1 SUB PUSH1 0x1F AND DUP3 ADD SWAP2 JUMPDEST POP POP POP POP POP DUP2 MSTORE PUSH1 0x20 ADD PUSH1 0x2 DUP3 ADD SLOAD DUP2 MSTORE PUSH1 0x20 ADD PUSH1 0x3 DUP3 ADD DUP1 SLOAD PUSH2 0x70B SWAP1 PUSH2 0x2614 JUMP JUMPDEST DUP1 PUSH1 0x1F ADD PUSH1 0x20 DUP1 SWAP2 DIV MUL PUSH1 0x20 ADD PUSH1 0x40 MLOAD SWAP1 DUP2 ADD PUSH1 0x40 MSTORE DUP1 SWAP3 SWAP2 SWAP1 DUP2 DUP2 MSTORE PUSH1 0x20 ADD DUP3 DUP1 SLOAD PUSH2 0x737 SWAP1 PUSH2 0x2614 JUMP JUMPDEST DUP1 ISZERO PUSH2 0x782 JUMPI DUP1 PUSH1 0x1F LT PUSH2 0x759 JUMPI PUSH2 0x100 DUP1 DUP4 SLOAD DIV MUL DUP4 MSTORE SWAP2 PUSH1 0x20 ADD SWAP2 PUSH2 0x782 JUMP JUMPDEST DUP3 ADD SWAP2 SWAP1 PUSH0 MSTORE PUSH1 0x20 PUSH0 KECCAK256 SWAP1 JUMPDEST DUP2 SLOAD DUP2 MSTORE SWAP1 PUSH1 0x1 ADD SWAP1 PUSH1 0x20 ADD DUP1 DUP4 GT PUSH2 0x765 JUMPI DUP3 SWAP1 SUB PUSH1 0x1F AND DUP3 ADD SWAP2 JUMPDEST POP POP POP POP POP DUP2 MSTORE PUSH1 0x20 ADD PUSH1 0x4 DUP3 ADD PUSH0 SWAP1 SLOAD SWAP1 PUSH2 0x100 EXP SWAP1 DIV PUSH20 0xFFFFFFFFFFFFFFFFFFFFFFFFFFFFFFFFFFFFFFFF AND PUSH20 0xFFFFFFFFFFFFFFFFFFFFFFFFFFFFFFFFFFFFFFFF AND PUSH20 0xFFFFFFFFFFFFFFFFFFFFFFFFFFFFFFFFFFFFFFFF AND DUP2 MSTORE PUSH1 0x20 ADD PUSH1 0x5 DUP3 ADD PUSH0 SWAP1 SLOAD SWAP1 PUSH2 0x100 EXP SWAP1 DIV PUSH20 0xFFFFFFFFFFFFFFFFFFFFFFFFFFFFFFFFFFFFFFFF AND PUSH20 0xFFFFFFFFFFFFFFFFFFFFFFFFFFFFFFFFFFFFFFFF AND PUSH20 0xFFFFFFFFFFFFFFFFFFFFFFFFFFFFFFFFFFFFFFFF AND DUP2 MSTORE POP POP SWAP1 POP SWAP3 SWAP2 POP POP JUMP JUMPDEST PUSH1 0x60 PUSH0 PUSH1 0x5 PUSH0 DUP5 PUSH20 0xFFFFFFFFFFFFFFFFFFFFFFFFFFFFFFFFFFFFFFFF AND PUSH20 0xFFFFFFFFFFFFFFFFFFFFFFFFFFFFFFFFFFFFFFFF AND DUP2 MSTORE PUSH1 0x20 ADD SWAP1 DUP2 MSTORE PUSH1 0x20 ADD PUSH0 KECCAK256 DUP1 SLOAD DUP1 PUSH1 0x20 MUL PUSH1 0x20 ADD PUSH1 0x40 MLOAD SWAP1 DUP2 ADD PUSH1 0x40 MSTORE DUP1 SWAP3 SWAP2 SWAP1 DUP2 DUP2 MSTORE PUSH1 0x20 ADD PUSH0 SWAP1 JUMPDEST DUP3 DUP3 LT ISZERO PUSH2 0x9B0 JUMPI DUP4 DUP3 SWAP1 PUSH0 MSTORE PUSH1 0x20 PUSH0 KECCAK256 SWAP1 PUSH1 0x2 MUL ADD PUSH1 0x40 MLOAD DUP1 PUSH1 0x40 ADD PUSH1 0x40 MSTORE SWAP1 DUP2 PUSH0 DUP3 ADD PUSH0 SWAP1 SLOAD SWAP1 PUSH2 0x100 EXP SWAP1 DIV PUSH20 0xFFFFFFFFFFFFFFFFFFFFFFFFFFFFFFFFFFFFFFFF AND PUSH20 0xFFFFFFFFFFFFFFFFFFFFFFFFFFFFFFFFFFFFFFFF AND PUSH20 0xFFFFFFFFFFFFFFFFFFFFFFFFFFFFFFFFFFFFFFFF AND DUP2 MSTORE PUSH1 0x20 ADD PUSH1 0x1 DUP3 ADD DUP1 SLOAD PUSH2 0x921 SWAP1 PUSH2 0x2614 JUMP JUMPDEST DUP1 PUSH1 0x1F ADD PUSH1 0x20 DUP1 SWAP2 DIV MUL PUSH1 0x20 ADD PUSH1 0x40 MLOAD SWAP1 DUP2 ADD PUSH1 0x40 MSTORE DUP1 SWAP3 SWAP2 SWAP1 DUP2 DUP2 MSTORE PUSH1 0x20 ADD DUP3 DUP1 SLOAD PUSH2 0x94D SWAP1 PUSH2 0x2614 JUMP JUMPDEST DUP1 ISZERO PUSH2 0x998 JUMPI DUP1 PUSH1 0x1F LT PUSH2 0x96F JUMPI PUSH2 0x100 DUP1 DUP4 SLOAD DIV MUL DUP4 MSTORE SWAP2 PUSH1 0x20 ADD SWAP2 PUSH2 0x998 JUMP JUMPDEST DUP3 ADD SWAP2 SWAP1 PUSH0 MSTORE PUSH1 0x20 PUSH0 KECCAK256 SWAP1 JUMPDEST DUP2 SLOAD DUP2 MSTORE SWAP1 PUSH1 0x1 ADD SWAP1 PUSH1 0x20 ADD DUP1 DUP4 GT PUSH2 0x97B JUMPI DUP3 SWAP1 SUB PUSH1 0x1F AND DUP3 ADD SWAP2 JUMPDEST POP POP POP POP POP DUP2 MSTORE POP POP DUP2 MSTORE PUSH1 0x20 ADD SWAP1 PUSH1 0x1 ADD SWAP1 PUSH2 0x89C JUMP JUMPDEST POP POP POP POP SWAP1 POP PUSH0 DUP2 MLOAD PUSH8 0xFFFFFFFFFFFFFFFF DUP2 GT ISZERO PUSH2 0x9D2 JUMPI PUSH2 0x9D1 PUSH2 0x1F1B JUMP JUMPDEST JUMPDEST PUSH1 0x40 MLOAD SWAP1 DUP1 DUP3 MSTORE DUP1 PUSH1 0x20 MUL PUSH1 0x20 ADD DUP3 ADD PUSH1 0x40 MSTORE DUP1 ISZERO PUSH2 0xA0B JUMPI DUP2 PUSH1 0x20 ADD JUMPDEST PUSH2 0x9F8 PUSH2 0x1CCD JUMP JUMPDEST DUP2 MSTORE PUSH1 0x20 ADD SWAP1 PUSH1 0x1 SWAP1 SUB SWAP1 DUP2 PUSH2 0x9F0 JUMPI SWAP1 POP JUMPDEST POP SWAP1 POP PUSH0 DUP3 MLOAD SWAP1 POP PUSH0 PUSH0 SWAP1 POP JUMPDEST DUP2 DUP2 LT ISZERO PUSH2 0xD4B JUMPI PUSH1 0x1 PUSH0 DUP6 DUP4 DUP2 MLOAD DUP2 LT PUSH2 0xA36 JUMPI PUSH2 0xA35 PUSH2 0x26FC JUMP JUMPDEST JUMPDEST PUSH1 0x20 MUL PUSH1 0x20 ADD ADD MLOAD PUSH0 ADD MLOAD PUSH20 0xFFFFFFFFFFFFFFFFFFFFFFFFFFFFFFFFFFFFFFFF AND PUSH20 0xFFFFFFFFFFFFFFFFFFFFFFFFFFFFFFFFFFFFFFFF AND DUP2 MSTORE PUSH1 0x20 ADD SWAP1 DUP2 MSTORE PUSH1 0x20 ADD PUSH0 KECCAK256 DUP5 DUP3 DUP2 MLOAD DUP2 LT PUSH2 0xA8D JUMPI PUSH2 0xA8C PUSH2 0x26FC JUMP JUMPDEST JUMPDEST PUSH1 0x20 MUL PUSH1 0x20 ADD ADD MLOAD PUSH1 0x20 ADD MLOAD PUSH1 0x40 MLOAD PUSH2 0xAA6 SWAP2 SWAP1 PUSH2 0x26E6 JUMP JUMPDEST SWAP1 DUP2 MSTORE PUSH1 0x20 ADD PUSH1 0x40 MLOAD DUP1 SWAP2 SUB SWAP1 KECCAK256 PUSH1 0x40 MLOAD DUP1 PUSH1 0xC0 ADD PUSH1 0x40 MSTORE SWAP1 DUP2 PUSH0 DUP3 ADD DUP1 SLOAD PUSH2 0xACE SWAP1 PUSH2 0x2614 JUMP JUMPDEST DUP1 PUSH1 0x1F ADD PUSH1 0x20 DUP1 SWAP2 DIV MUL PUSH1 0x20 ADD PUSH1 0x40 MLOAD SWAP1 DUP2 ADD PUSH1 0x40 MSTORE DUP1 SWAP3 SWAP2 SWAP1 DUP2 DUP2 MSTORE PUSH1 0x20 ADD DUP3 DUP1 SLOAD PUSH2 0xAFA SWAP1 PUSH2 0x2614 JUMP JUMPDEST DUP1 ISZERO PUSH2 0xB45 JUMPI DUP1 PUSH1 0x1F LT PUSH2 0xB1C JUMPI PUSH2 0x100 DUP1 DUP4 SLOAD DIV MUL DUP4 MSTORE SWAP2 PUSH1 0x20 ADD SWAP2 PUSH2 0xB45 JUMP JUMPDEST DUP3 ADD SWAP2 SWAP1 PUSH0 MSTORE PUSH1 0x20 PUSH0 KECCAK256 SWAP1 JUMPDEST DUP2 SLOAD DUP2 MSTORE SWAP1 PUSH1 0x1 ADD SWAP1 PUSH1 0x20 ADD DUP1 DUP4 GT PUSH2 0xB28 JUMPI DUP3 SWAP1 SUB PUSH1 0x1F AND DUP3 ADD SWAP2 JUMPDEST POP POP POP POP POP DUP2 MSTORE PUSH1 0x20 ADD PUSH1 0x1 DUP3 ADD DUP1 SLOAD PUSH2 0xB5E SWAP1 PUSH2 0x2614 JUMP JUMPDEST DUP1 PUSH1 0x1F ADD PUSH1 0x20 DUP1 SWAP2 DIV MUL PUSH1 0x20 ADD PUSH1 0x40 MLOAD SWAP1 DUP2 ADD PUSH1 0x40 MSTORE DUP1 SWAP3 SWAP2 SWAP1 DUP2 DUP2 MSTORE PUSH1 0x20 ADD DUP3 DUP1 SLOAD PUSH2 0xB8A SWAP1 PUSH2 0x2614 JUMP JUMPDEST DUP1 ISZERO PUSH2 0xBD5 JUMPI DUP1 PUSH1 0x1F LT PUSH2 0xBAC JUMPI PUSH2 0x100 DUP1 DUP4 SLOAD DIV MUL DUP4 MSTORE SWAP2 PUSH1 0x20 ADD SWAP2 PUSH2 0xBD5 JUMP JUMPDEST DUP3 ADD SWAP2 SWAP1 PUSH0 MSTORE PUSH1 0x20 PUSH0 KECCAK256 SWAP1 JUMPDEST DUP2 SLOAD DUP2 MSTORE SWAP1 PUSH1 0x1 ADD SWAP1 PUSH1 0x20 ADD DUP1 DUP4 GT PUSH2 0xBB8 JUMPI DUP3 SWAP1 SUB PUSH1 0x1F AND DUP3 ADD SWAP2 JUMPDEST POP POP POP POP POP DUP2 MSTORE PUSH1 0x20 ADD PUSH1 0x2 DUP3 ADD SLOAD DUP2 MSTORE PUSH1 0x20 ADD PUSH1 0x3 DUP3 ADD DUP1 SLOAD PUSH2 0xBF8 SWAP1 PUSH2 0x2614 JUMP JUMPDEST DUP1 PUSH1 0x1F ADD PUSH1 0x20 DUP1 SWAP2 DIV MUL PUSH1 0x20 ADD PUSH1 0x40 MLOAD SWAP1 DUP2 ADD PUSH1 0x40 MSTORE DUP1 SWAP3 SWAP2 SWAP1 DUP2 DUP2 MSTORE PUSH1 0x20 ADD DUP3 DUP1 SLOAD PUSH2 0xC24 SWAP1 PUSH2 0x2614 JUMP JUMPDEST DUP1 ISZERO PUSH2 0xC6F JUMPI DUP1 PUSH1 0x1F LT PUSH2 0xC46 JUMPI PUSH2 0x100 DUP1 DUP4 SLOAD DIV MUL DUP4 MSTORE SWAP2 PUSH1 0x20 ADD SWAP2 PUSH2 0xC6F JUMP JUMPDEST DUP3 ADD SWAP2 SWAP1 PUSH0 MSTORE PUSH1 0x20 PUSH0 KECCAK256 SWAP1 JUMPDEST DUP2 SLOAD DUP2 MSTORE SWAP1 PUSH1 0x1 ADD SWAP1 PUSH1 0x20 ADD DUP1 DUP4 GT PUSH2 0xC52 JUMPI DUP3 SWAP1 SUB PUSH1 0x1F AND DUP3 ADD SWAP2 JUMPDEST POP POP POP POP POP DUP2 MSTORE PUSH1 0x20 ADD PUSH1 0x4 DUP3 ADD PUSH0 SWAP1 SLOAD SWAP1 PUSH2 0x100 EXP SWAP1 DIV PUSH20 0xFFFFFFFFFFFFFFFFFFFFFFFFFFFFFFFFFFFFFFFF AND PUSH20 0xFFFFFFFFFFFFFFFFFFFFFFFFFFFFFFFFFFFFFFFF AND PUSH20 0xFFFFFFFFFFFFFFFFFFFFFFFFFFFFFFFFFFFFFFFF AND DUP2 MSTORE PUSH1 0x20 ADD PUSH1 0x5 DUP3 ADD PUSH0 SWAP1 SLOAD SWAP1 PUSH2 0x100 EXP SWAP1 DIV PUSH20 0xFFFFFFFFFFFFFFFFFFFFFFFFFFFFFFFFFFFFFFFF AND PUSH20 0xFFFFFFFFFFFFFFFFFFFFFFFFFFFFFFFFFFFFFFFF AND PUSH20 0xFFFFFFFFFFFFFFFFFFFFFFFFFFFFFFFFFFFFFFFF AND DUP2 MSTORE POP POP DUP4 DUP3 DUP2 MLOAD DUP2 LT PUSH2 0xD35 JUMPI PUSH2 0xD34 PUSH2 0x26FC JUMP JUMPDEST JUMPDEST PUSH1 0x20 MUL PUSH1 0x20 ADD ADD DUP2 SWAP1 MSTORE POP DUP1 PUSH1 0x1 ADD SWAP1 POP PUSH2 0xA18 JUMP JUMPDEST POP DUP2 SWAP4 POP POP POP POP SWAP2 SWAP1 POP JUMP JUMPDEST PUSH1 0x60 PUSH1 0x2 PUSH0 DUP4 PUSH20 0xFFFFFFFFFFFFFFFFFFFFFFFFFFFFFFFFFFFFFFFF AND PUSH20 0xFFFFFFFFFFFFFFFFFFFFFFFFFFFFFFFFFFFFFFFF AND DUP2 MSTORE PUSH1 0x20 ADD SWAP1 DUP2 MSTORE PUSH1 0x20 ADD PUSH0 KECCAK256 DUP1 SLOAD DUP1 PUSH1 0x20 MUL PUSH1 0x20 ADD PUSH1 0x40 MLOAD SWAP1 DUP2 ADD PUSH1 0x40 MSTORE DUP1 SWAP3 SWAP2 SWAP1 DUP2 DUP2 MSTORE PUSH1 0x20 ADD PUSH0 SWAP1 JUMPDEST DUP3 DUP3 LT ISZERO PUSH2 0xE5D JUMPI DUP4 DUP3 SWAP1 PUSH0 MSTORE PUSH1 0x20 PUSH0 KECCAK256 ADD DUP1 SLOAD PUSH2 0xDD2 SWAP1 PUSH2 0x2614 JUMP JUMPDEST DUP1 PUSH1 0x1F ADD PUSH1 0x20 DUP1 SWAP2 DIV MUL PUSH1 0x20 ADD PUSH1 0x40 MLOAD SWAP1 DUP2 ADD PUSH1 0x40 MSTORE DUP1 SWAP3 SWAP2 SWAP1 DUP2 DUP2 MSTORE PUSH1 0x20 ADD DUP3 DUP1 SLOAD PUSH2 0xDFE SWAP1 PUSH2 0x2614 JUMP JUMPDEST DUP1 ISZERO PUSH2 0xE49 JUMPI DUP1 PUSH1 0x1F LT PUSH2 0xE20 JUMPI PUSH2 0x100 DUP1 DUP4 SLOAD DIV MUL DUP4 MSTORE SWAP2 PUSH1 0x20 ADD SWAP2 PUSH2 0xE49 JUMP JUMPDEST DUP3 ADD SWAP2 SWAP1 PUSH0 MSTORE PUSH1 0x20 PUSH0 KECCAK256 SWAP1 JUMPDEST DUP2 SLOAD DUP2 MSTORE SWAP1 PUSH1 0x1 ADD SWAP1 PUSH1 0x20 ADD DUP1 DUP4 GT PUSH2 0xE2C JUMPI DUP3 SWAP1 SUB PUSH1 0x1F AND DUP3 ADD SWAP2 JUMPDEST POP POP POP POP POP DUP2 MSTORE PUSH1 0x20 ADD SWAP1 PUSH1 0x1 ADD SWAP1 PUSH2 0xDB5 JUMP JUMPDEST POP POP POP POP SWAP1 POP SWAP2 SWAP1 POP JUMP JUMPDEST PUSH1 0x2 PUSH1 0x20 MSTORE DUP2 PUSH0 MSTORE PUSH1 0x40 PUSH0 KECCAK256 DUP2 DUP2 SLOAD DUP2 LT PUSH2 0xE81 JUMPI PUSH0 DUP1 REVERT JUMPDEST SWAP1 PUSH0 MSTORE PUSH1 0x20 PUSH0 KECCAK256 ADD PUSH0 SWAP2 POP SWAP2 POP POP DUP1 SLOAD PUSH2 0xE9A SWAP1 PUSH2 0x2614 JUMP JUMPDEST DUP1 PUSH1 0x1F ADD PUSH1 0x20 DUP1 SWAP2 DIV MUL PUSH1 0x20 ADD PUSH1 0x40 MLOAD SWAP1 DUP2 ADD PUSH1 0x40 MSTORE DUP1 SWAP3 SWAP2 SWAP1 DUP2 DUP2 MSTORE PUSH1 0x20 ADD DUP3 DUP1 SLOAD PUSH2 0xEC6 SWAP1 PUSH2 0x2614 JUMP JUMPDEST DUP1 ISZERO PUSH2 0xF11 JUMPI DUP1 PUSH1 0x1F LT PUSH2 0xEE8 JUMPI PUSH2 0x100 DUP1 DUP4 SLOAD DIV MUL DUP4 MSTORE SWAP2 PUSH1 0x20 ADD SWAP2 PUSH2 0xF11 JUMP JUMPDEST DUP3 ADD SWAP2 SWAP1 PUSH0 MSTORE PUSH1 0x20 PUSH0 KECCAK256 SWAP1 JUMPDEST DUP2 SLOAD DUP2 MSTORE SWAP1 PUSH1 0x1 ADD SWAP1 PUSH1 0x20 ADD DUP1 DUP4 GT PUSH2 0xEF4 JUMPI DUP3 SWAP1 SUB PUSH1 0x1F AND DUP3 ADD SWAP2 JUMPDEST POP POP POP POP POP DUP2 JUMP JUMPDEST PUSH0 PUSH0 CALLER PUSH20 0xFFFFFFFFFFFFFFFFFFFFFFFFFFFFFFFFFFFFFFFF AND PUSH20 0xFFFFFFFFFFFFFFFFFFFFFFFFFFFFFFFFFFFFFFFF AND DUP2 MSTORE PUSH1 0x20 ADD SWAP1 DUP2 MSTORE PUSH1 0x20 ADD PUSH0 KECCAK256 PUSH0 SWAP1 SLOAD SWAP1 PUSH2 0x100 EXP SWAP1 DIV PUSH1 0xFF AND PUSH2 0xFA1 JUMPI PUSH1 0x40 MLOAD PUSH32 0x8C379A000000000000000000000000000000000000000000000000000000000 DUP2 MSTORE PUSH1 0x4 ADD PUSH2 0xF98 SWAP1 PUSH2 0x2773 JUMP JUMPDEST PUSH1 0x40 MLOAD DUP1 SWAP2 SUB SWAP1 REVERT JUMPDEST PUSH0 PUSH1 0x1 PUSH0 CALLER PUSH20 0xFFFFFFFFFFFFFFFFFFFFFFFFFFFFFFFFFFFFFFFF AND PUSH20 0xFFFFFFFFFFFFFFFFFFFFFFFFFFFFFFFFFFFFFFFF AND DUP2 MSTORE PUSH1 0x20 ADD SWAP1 DUP2 MSTORE PUSH1 0x20 ADD PUSH0 KECCAK256 DUP7 PUSH1 0x40 MLOAD PUSH2 0xFED SWAP2 SWAP1 PUSH2 0x26E6 JUMP JUMPDEST SWAP1 DUP2 MSTORE PUSH1 0x20 ADD PUSH1 0x40 MLOAD DUP1 SWAP2 SUB SWAP1 KECCAK256 PUSH1 0x1 ADD DUP1 SLOAD PUSH2 0x1009 SWAP1 PUSH2 0x2614 JUMP JUMPDEST SWAP1 POP EQ PUSH2 0x104B JUMPI PUSH1 0x40 MLOAD PUSH32 0x8C379A000000000000000000000000000000000000000000000000000000000 DUP2 MSTORE PUSH1 0x4 ADD PUSH2 0x1042 SWAP1 PUSH2 0x2801 JUMP JUMPDEST PUSH1 0x40 MLOAD DUP1 SWAP2 SUB SWAP1 REVERT JUMPDEST PUSH1 0x40 MLOAD DUP1 PUSH1 0xC0 ADD PUSH1 0x40 MSTORE DUP1 DUP5 DUP2 MSTORE PUSH1 0x20 ADD DUP4 DUP2 MSTORE PUSH1 0x20 ADD TIMESTAMP DUP2 MSTORE PUSH1 0x20 ADD DUP3 DUP2 MSTORE PUSH1 0x20 ADD CALLER PUSH20 0xFFFFFFFFFFFFFFFFFFFFFFFFFFFFFFFFFFFFFFFF AND DUP2 MSTORE PUSH1 0x20 ADD DUP6 PUSH20 0xFFFFFFFFFFFFFFFFFFFFFFFFFFFFFFFFFFFFFFFF AND DUP2 MSTORE POP PUSH1 0x1 PUSH0 CALLER PUSH20 0xFFFFFFFFFFFFFFFFFFFFFFFFFFFFFFFFFFFFFFFF AND PUSH20 0xFFFFFFFFFFFFFFFFFFFFFFFFFFFFFFFFFFFFFFFF AND DUP2 MSTORE PUSH1 0x20 ADD SWAP1 DUP2 MSTORE PUSH1 0x20 ADD PUSH0 KECCAK256 DUP7 PUSH1 0x40 MLOAD PUSH2 0x10EF SWAP2 SWAP1 PUSH2 0x26E6 JUMP JUMPDEST SWAP1 DUP2 MSTORE PUSH1 0x20 ADD PUSH1 0x40 MLOAD DUP1 SWAP2 SUB SWAP1 KECCAK256 PUSH0 DUP3 ADD MLOAD DUP2 PUSH0 ADD SWAP1 DUP2 PUSH2 0x1110 SWAP2 SWAP1 PUSH2 0x29BF JUMP JUMPDEST POP PUSH1 0x20 DUP3 ADD MLOAD DUP2 PUSH1 0x1 ADD SWAP1 DUP2 PUSH2 0x1126 SWAP2 SWAP1 PUSH2 0x29BF JUMP JUMPDEST POP PUSH1 0x40 DUP3 ADD MLOAD DUP2 PUSH1 0x2 ADD SSTORE PUSH1 0x60 DUP3 ADD MLOAD DUP2 PUSH1 0x3 ADD SWAP1 DUP2 PUSH2 0x1146 SWAP2 SWAP1 PUSH2 0x29BF JUMP JUMPDEST POP PUSH1 0x80 DUP3 ADD MLOAD DUP2 PUSH1 0x4 ADD PUSH0 PUSH2 0x100 EXP DUP2 SLOAD DUP2 PUSH20 0xFFFFFFFFFFFFFFFFFFFFFFFFFFFFFFFFFFFFFFFF MUL NOT AND SWAP1 DUP4 PUSH20 0xFFFFFFFFFFFFFFFFFFFFFFFFFFFFFFFFFFFFFFFF AND MUL OR SWAP1 SSTORE POP PUSH1 0xA0 DUP3 ADD MLOAD DUP2 PUSH1 0x5 ADD PUSH0 PUSH2 0x100 EXP DUP2 SLOAD DUP2 PUSH20 0xFFFFFFFFFFFFFFFFFFFFFFFFFFFFFFFFFFFFFFFF MUL NOT AND SWAP1 DUP4 PUSH20 0xFFFFFFFFFFFFFFFFFFFFFFFFFFFFFFFFFFFFFFFF AND MUL OR SWAP1 SSTORE POP SWAP1 POP POP PUSH1 0x5 PUSH0 DUP6 PUSH20 0xFFFFFFFFFFFFFFFFFFFFFFFFFFFFFFFFFFFFFFFF AND PUSH20 0xFFFFFFFFFFFFFFFFFFFFFFFFFFFFFFFFFFFFFFFF AND DUP2 MSTORE PUSH1 0x20 ADD SWAP1 DUP2 MSTORE PUSH1 0x20 ADD PUSH0 KECCAK256 PUSH1 0x40 MLOAD DUP1 PUSH1 0x40 ADD PUSH1 0x40 MSTORE DUP1 CALLER PUSH20 0xFFFFFFFFFFFFFFFFFFFFFFFFFFFFFFFFFFFFFFFF AND DUP2 MSTORE PUSH1 0x20 ADD DUP8 DUP2 MSTORE POP SWAP1 DUP1 PUSH1 0x1 DUP2 SLOAD ADD DUP1 DUP3 SSTORE DUP1 SWAP2 POP POP PUSH1 0x1 SWAP1 SUB SWAP1 PUSH0 MSTORE PUSH1 0x20 PUSH0 KECCAK256 SWAP1 PUSH1 0x2 MUL ADD PUSH0 SWAP1 SWAP2 SWAP1 SWAP2 SWAP1 SWAP2 POP PUSH0 DUP3 ADD MLOAD DUP2 PUSH0 ADD PUSH0 PUSH2 0x100 EXP DUP2 SLOAD DUP2 PUSH20 0xFFFFFFFFFFFFFFFFFFFFFFFFFFFFFFFFFFFFFFFF MUL NOT AND SWAP1 DUP4 PUSH20 0xFFFFFFFFFFFFFFFFFFFFFFFFFFFFFFFFFFFFFFFF AND MUL OR SWAP1 SSTORE POP PUSH1 0x20 DUP3 ADD MLOAD DUP2 PUSH1 0x1 ADD SWAP1 DUP2 PUSH2 0x12BD SWAP2 SWAP1 PUSH2 0x29BF JUMP JUMPDEST POP POP POP PUSH1 0x2 PUSH0 CALLER PUSH20 0xFFFFFFFFFFFFFFFFFFFFFFFFFFFFFFFFFFFFFFFF AND PUSH20 0xFFFFFFFFFFFFFFFFFFFFFFFFFFFFFFFFFFFFFFFF AND DUP2 MSTORE PUSH1 0x20 ADD SWAP1 DUP2 MSTORE PUSH1 0x20 ADD PUSH0 KECCAK256 DUP6 SWAP1 DUP1 PUSH1 0x1 DUP2 SLOAD ADD DUP1 DUP3 SSTORE DUP1 SWAP2 POP POP PUSH1 0x1 SWAP1 SUB SWAP1 PUSH0 MSTORE PUSH1 0x20 PUSH0 KECCAK256 ADD PUSH0 SWAP1 SWAP2 SWAP1 SWAP2 SWAP1 SWAP2 POP SWAP1 DUP2 PUSH2 0x132C SWAP2 SWAP1 PUSH2 0x29BF JUMP JUMPDEST POP DUP5 PUSH1 0x4 DUP3 PUSH1 0x40 MLOAD PUSH2 0x133E SWAP2 SWAP1 PUSH2 0x26E6 JUMP JUMPDEST SWAP1 DUP2 MSTORE PUSH1 0x20 ADD PUSH1 0x40 MLOAD DUP1 SWAP2 SUB SWAP1 KECCAK256 SWAP1 DUP2 PUSH2 0x1358 SWAP2 SWAP1 PUSH2 0x29BF JUMP JUMPDEST POP CALLER PUSH1 0x3 DUP3 PUSH1 0x40 MLOAD PUSH2 0x136A SWAP2 SWAP1 PUSH2 0x26E6 JUMP JUMPDEST SWAP1 DUP2 MSTORE PUSH1 0x20 ADD PUSH1 0x40 MLOAD DUP1 SWAP2 SUB SWAP1 KECCAK256 PUSH0 PUSH2 0x100 EXP DUP2 SLOAD DUP2 PUSH20 0xFFFFFFFFFFFFFFFFFFFFFFFFFFFFFFFFFFFFFFFF MUL NOT AND SWAP1 DUP4 PUSH20 0xFFFFFFFFFFFFFFFFFFFFFFFFFFFFFFFFFFFFFFFF AND MUL OR SWAP1 SSTORE POP DUP4 PUSH20 0xFFFFFFFFFFFFFFFFFFFFFFFFFFFFFFFFFFFFFFFF AND CALLER PUSH20 0xFFFFFFFFFFFFFFFFFFFFFFFFFFFFFFFFFFFFFFFF AND DUP7 PUSH1 0x40 MLOAD PUSH2 0x13F1 SWAP2 SWAP1 PUSH2 0x26E6 JUMP JUMPDEST PUSH1 0x40 MLOAD DUP1 SWAP2 SUB SWAP1 KECCAK256 PUSH32 0x754A5531E45CD3B12A4AD1E6573DE002F31131EA821A89FE02613E3E93F99F33 PUSH1 0x40 MLOAD PUSH1 0x40 MLOAD DUP1 SWAP2 SUB SWAP1 LOG4 POP POP POP POP POP JUMP JUMPDEST PUSH1 0x3 DUP2 DUP1 MLOAD PUSH1 0x20 DUP2 ADD DUP3 ADD DUP1 MLOAD DUP5 DUP3 MSTORE PUSH1 0x20 DUP4 ADD PUSH1 0x20 DUP6 ADD KECCAK256 DUP2 DUP4 MSTORE DUP1 SWAP6 POP POP POP POP POP POP PUSH0 SWAP2 POP SLOAD SWAP1 PUSH2 0x100 EXP SWAP1 DIV PUSH20 0xFFFFFFFFFFFFFFFFFFFFFFFFFFFFFFFFFFFFFFFF AND DUP2 JUMP JUMPDEST PUSH32 0x0 PUSH20 0xFFFFFFFFFFFFFFFFFFFFFFFFFFFFFFFFFFFFFFFF AND CALLER PUSH20 0xFFFFFFFFFFFFFFFFFFFFFFFFFFFFFFFFFFFFFFFF AND EQ PUSH2 0x1502 JUMPI PUSH1 0x40 MLOAD PUSH32 0x8C379A000000000000000000000000000000000000000000000000000000000 DUP2 MSTORE PUSH1 0x4 ADD PUSH2 0x14F9 SWAP1 PUSH2 0x268E JUMP JUMPDEST PUSH1 0x40 MLOAD DUP1 SWAP2 SUB SWAP1 REVERT JUMPDEST PUSH1 0x1 PUSH0 PUSH0 DUP4 PUSH20 0xFFFFFFFFFFFFFFFFFFFFFFFFFFFFFFFFFFFFFFFF AND PUSH20 0xFFFFFFFFFFFFFFFFFFFFFFFFFFFFFFFFFFFFFFFF AND DUP2 MSTORE PUSH1 0x20 ADD SWAP1 DUP2 MSTORE PUSH1 0x20 ADD PUSH0 KECCAK256 PUSH0 PUSH2 0x100 EXP DUP2 SLOAD DUP2 PUSH1 0xFF MUL NOT AND SWAP1 DUP4 ISZERO ISZERO MUL OR SWAP1 SSTORE POP DUP1 PUSH20 0xFFFFFFFFFFFFFFFFFFFFFFFFFFFFFFFFFFFFFFFF AND PUSH32 0x2AEF8A157B05C49AAAEEBD094BF2B10B2B90835AF1FD87C288F6EFFA9A6A2434 PUSH1 0x40 MLOAD PUSH1 0x40 MLOAD DUP1 SWAP2 SUB SWAP1 LOG2 POP JUMP JUMPDEST PUSH32 0x0 DUP2 JUMP JUMPDEST PUSH2 0x15C8 PUSH2 0x1CCD JUMP JUMPDEST PUSH0 PUSH1 0x3 DUP4 PUSH1 0x40 MLOAD PUSH2 0x15D9 SWAP2 SWAP1 PUSH2 0x26E6 JUMP JUMPDEST SWAP1 DUP2 MSTORE PUSH1 0x20 ADD PUSH1 0x40 MLOAD DUP1 SWAP2 SUB SWAP1 KECCAK256 PUSH0 SWAP1 SLOAD SWAP1 PUSH2 0x100 EXP SWAP1 DIV PUSH20 0xFFFFFFFFFFFFFFFFFFFFFFFFFFFFFFFFFFFFFFFF AND SWAP1 POP PUSH0 PUSH20 0xFFFFFFFFFFFFFFFFFFFFFFFFFFFFFFFFFFFFFFFF AND DUP2 PUSH20 0xFFFFFFFFFFFFFFFFFFFFFFFFFFFFFFFFFFFFFFFF AND SUB PUSH2 0x1677 JUMPI PUSH1 0x40 MLOAD PUSH32 0x8C379A000000000000000000000000000000000000000000000000000000000 DUP2 MSTORE PUSH1 0x4 ADD PUSH2 0x166E SWAP1 PUSH2 0x2AD8 JUMP JUMPDEST PUSH1 0x40 MLOAD DUP1 SWAP2 SUB SWAP1 REVERT JUMPDEST PUSH0 PUSH1 0x4 DUP5 PUSH1 0x40 MLOAD PUSH2 0x1688 SWAP2 SWAP1 PUSH2 0x26E6 JUMP JUMPDEST SWAP1 DUP2 MSTORE PUSH1 0x20 ADD PUSH1 0x40 MLOAD DUP1 SWAP2 SUB SWAP1 KECCAK256 DUP1 SLOAD PUSH2 0x16A1 SWAP1 PUSH2 0x2614 JUMP JUMPDEST DUP1 PUSH1 0x1F ADD PUSH1 0x20 DUP1 SWAP2 DIV MUL PUSH1 0x20 ADD PUSH1 0x40 MLOAD SWAP1 DUP2 ADD PUSH1 0x40 MSTORE DUP1 SWAP3 SWAP2 SWAP1 DUP2 DUP2 MSTORE PUSH1 0x20 ADD DUP3 DUP1 SLOAD PUSH2 0x16CD SWAP1 PUSH2 0x2614 JUMP JUMPDEST DUP1 ISZERO PUSH2 0x1718 JUMPI DUP1 PUSH1 0x1F LT PUSH2 0x16EF JUMPI PUSH2 0x100 DUP1 DUP4 SLOAD DIV MUL DUP4 MSTORE SWAP2 PUSH1 0x20 ADD SWAP2 PUSH2 0x1718 JUMP JUMPDEST DUP3 ADD SWAP2 SWAP1 PUSH0 MSTORE PUSH1 0x20 PUSH0 KECCAK256 SWAP1 JUMPDEST DUP2 SLOAD DUP2 MSTORE SWAP1 PUSH1 0x1 ADD SWAP1 PUSH1 0x20 ADD DUP1 DUP4 GT PUSH2 0x16FB JUMPI DUP3 SWAP1 SUB PUSH1 0x1F AND DUP3 ADD SWAP2 JUMPDEST POP POP POP POP POP SWAP1 POP PUSH1 0x1 PUSH0 DUP4 PUSH20 0xFFFFFFFFFFFFFFFFFFFFFFFFFFFFFFFFFFFFFFFF AND PUSH20 0xFFFFFFFFFFFFFFFFFFFFFFFFFFFFFFFFFFFFFFFF AND DUP2 MSTORE PUSH1 0x20 ADD SWAP1 DUP2 MSTORE PUSH1 0x20 ADD PUSH0 KECCAK256 DUP2 PUSH1 0x40 MLOAD PUSH2 0x176A SWAP2 SWAP1 PUSH2 0x26E6 JUMP JUMPDEST SWAP1 DUP2 MSTORE PUSH1 0x20 ADD PUSH1 0x40 MLOAD DUP1 SWAP2 SUB SWAP1 KECCAK256 PUSH1 0x40 MLOAD DUP1 PUSH1 0xC0 ADD PUSH1 0x40 MSTORE SWAP1 DUP2 PUSH0 DUP3 ADD DUP1 SLOAD PUSH2 0x1792 SWAP1 PUSH2 0x2614 JUMP JUMPDEST DUP1 PUSH1 0x1F ADD PUSH1 0x20 DUP1 SWAP2 DIV MUL PUSH1 0x20 ADD PUSH1 0x40 MLOAD SWAP1 DUP2 ADD PUSH1 0x40 MSTORE DUP1 SWAP3 SWAP2 SWAP1 DUP2 DUP2 MSTORE PUSH1 0x20 ADD DUP3 DUP1 SLOAD PUSH2 0x17BE SWAP1 PUSH2 0x2614 JUMP JUMPDEST DUP1 ISZERO PUSH2 0x1809 JUMPI DUP1 PUSH1 0x1F LT PUSH2 0x17E0 JUMPI PUSH2 0x100 DUP1 DUP4 SLOAD DIV MUL DUP4 MSTORE SWAP2 PUSH1 0x20 ADD SWAP2 PUSH2 0x1809 JUMP JUMPDEST DUP3 ADD SWAP2 SWAP1 PUSH0 MSTORE PUSH1 0x20 PUSH0 KECCAK256 SWAP1 JUMPDEST DUP2 SLOAD DUP2 MSTORE SWAP1 PUSH1 0x1 ADD SWAP1 PUSH1 0x20 ADD DUP1 DUP4 GT PUSH2 0x17EC JUMPI DUP3 SWAP1 SUB PUSH1 0x1F AND DUP3 ADD SWAP2 JUMPDEST POP POP POP POP POP DUP2 MSTORE PUSH1 0x20 ADD PUSH1 0x1 DUP3 ADD DUP1 SLOAD PUSH2 0x1822 SWAP1 PUSH2 0x2614 JUMP JUMPDEST DUP1 PUSH1 0x1F ADD PUSH1 0x20 DUP1 SWAP2 DIV MUL PUSH1 0x20 ADD PUSH1 0x40 MLOAD SWAP1 DUP2 ADD PUSH1 0x40 MSTORE DUP1 SWAP3 SWAP2 SWAP1 DUP2 DUP2 MSTORE PUSH1 0x20 ADD DUP3 DUP1 SLOAD PUSH2 0x184E SWAP1 PUSH2 0x2614 JUMP JUMPDEST DUP1 ISZERO PUSH2 0x1899 JUMPI DUP1 PUSH1 0x1F LT PUSH2 0x1870 JUMPI PUSH2 0x100 DUP1 DUP4 SLOAD DIV MUL DUP4 MSTORE SWAP2 PUSH1 0x20 ADD SWAP2 PUSH2 0x1899 JUMP JUMPDEST DUP3 ADD SWAP2 SWAP1 PUSH0 MSTORE PUSH1 0x20 PUSH0 KECCAK256 SWAP1 JUMPDEST DUP2 SLOAD DUP2 MSTORE SWAP1 PUSH1 0x1 ADD SWAP1 PUSH1 0x20 ADD DUP1 DUP4 GT PUSH2 0x187C JUMPI DUP3 SWAP1 SUB PUSH1 0x1F AND DUP3 ADD SWAP2 JUMPDEST POP POP POP POP POP DUP2 MSTORE PUSH1 0x20 ADD PUSH1 0x2 DUP3 ADD SLOAD DUP2 MSTORE PUSH1 0x20 ADD PUSH1 0x3 DUP3 ADD DUP1 SLOAD PUSH2 0x18BC SWAP1 PUSH2 0x2614 JUMP JUMPDEST DUP1 PUSH1 0x1F ADD PUSH1 0x20 DUP1 SWAP2 DIV MUL PUSH1 0x20 ADD PUSH1 0x40 MLOAD SWAP1 DUP2 ADD PUSH1 0x40 MSTORE DUP1 SWAP3 SWAP2 SWAP1 DUP2 DUP2 MSTORE PUSH1 0x20 ADD DUP3 DUP1 SLOAD PUSH2 0x18E8 SWAP1 PUSH2 0x2614 JUMP JUMPDEST DUP1 ISZERO PUSH2 0x1933 JUMPI DUP1 PUSH1 0x1F LT PUSH2 0x190A JUMPI PUSH2 0x100 DUP1 DUP4 SLOAD DIV MUL DUP4 MSTORE SWAP2 PUSH1 0x20 ADD SWAP2 PUSH2 0x1933 JUMP JUMPDEST DUP3 ADD SWAP2 SWAP1 PUSH0 MSTORE PUSH1 0x20 PUSH0 KECCAK256 SWAP1 JUMPDEST DUP2 SLOAD DUP2 MSTORE SWAP1 PUSH1 0x1 ADD SWAP1 PUSH1 0x20 ADD DUP1 DUP4 GT PUSH2 0x1916 JUMPI DUP3 SWAP1 SUB PUSH1 0x1F AND DUP3 ADD SWAP2 JUMPDEST POP POP POP POP POP DUP2 MSTORE PUSH1 0x20 ADD PUSH1 0x4 DUP3 ADD PUSH0 SWAP1 SLOAD SWAP1 PUSH2 0x100 EXP SWAP1 DIV PUSH20 0xFFFFFFFFFFFFFFFFFFFFFFFFFFFFFFFFFFFFFFFF AND PUSH20 0xFFFFFFFFFFFFFFFFFFFFFFFFFFFFFFFFFFFFFFFF AND PUSH20 0xFFFFFFFFFFFFFFFFFFFFFFFFFFFFFFFFFFFFFFFF AND DUP2 MSTORE PUSH1 0x20 ADD PUSH1 0x5 DUP3 ADD PUSH0 SWAP1 SLOAD SWAP1 PUSH2 0x100 EXP SWAP1 DIV PUSH20 0xFFFFFFFFFFFFFFFFFFFFFFFFFFFFFFFFFFFFFFFF AND PUSH20 0xFFFFFFFFFFFFFFFFFFFFFFFFFFFFFFFFFFFFFFFF AND PUSH20 0xFFFFFFFFFFFFFFFFFFFFFFFFFFFFFFFFFFFFFFFF AND DUP2 MSTORE POP POP SWAP3 POP POP POP SWAP2 SWAP1 POP JUMP JUMPDEST PUSH1 0x4 DUP2 DUP1 MLOAD PUSH1 0x20 DUP2 ADD DUP3 ADD DUP1 MLOAD DUP5 DUP3 MSTORE PUSH1 0x20 DUP4 ADD PUSH1 0x20 DUP6 ADD KECCAK256 DUP2 DUP4 MSTORE DUP1 SWAP6 POP POP POP POP POP POP PUSH0 SWAP2 POP SWAP1 POP DUP1 SLOAD PUSH2 0x1A23 SWAP1 PUSH2 0x2614 JUMP JUMPDEST DUP1 PUSH1 0x1F ADD PUSH1 0x20 DUP1 SWAP2 DIV MUL PUSH1 0x20 ADD PUSH1 0x40 MLOAD SWAP1 DUP2 ADD PUSH1 0x40 MSTORE DUP1 SWAP3 SWAP2 SWAP1 DUP2 DUP2 MSTORE PUSH1 0x20 ADD DUP3 DUP1 SLOAD PUSH2 0x1A4F SWAP1 PUSH2 0x2614 JUMP JUMPDEST DUP1 ISZERO PUSH2 0x1A9A JUMPI DUP1 PUSH1 0x1F LT PUSH2 0x1A71 JUMPI PUSH2 0x100 DUP1 DUP4 SLOAD DIV MUL DUP4 MSTORE SWAP2 PUSH1 0x20 ADD SWAP2 PUSH2 0x1A9A JUMP JUMPDEST DUP3 ADD SWAP2 SWAP1 PUSH0 MSTORE PUSH1 0x20 PUSH0 KECCAK256 SWAP1 JUMPDEST DUP2 SLOAD DUP2 MSTORE SWAP1 PUSH1 0x1 ADD SWAP1 PUSH1 0x20 ADD DUP1 DUP4 GT PUSH2 0x1A7D JUMPI DUP3 SWAP1 SUB PUSH1 0x1F AND DUP3 ADD SWAP2 JUMPDEST POP POP POP POP POP DUP2 JUMP JUMPDEST PUSH1 0x1 PUSH1 0x20 MSTORE DUP2 PUSH0 MSTORE PUSH1 0x40 PUSH0 KECCAK256 DUP2 DUP1 MLOAD PUSH1 0x20 DUP2 ADD DUP3 ADD DUP1 MLOAD DUP5 DUP3 MSTORE PUSH1 0x20 DUP4 ADD PUSH1 0x20 DUP6 ADD KECCAK256 DUP2 DUP4 MSTORE DUP1 SWAP6 POP POP POP POP POP POP PUSH0 SWAP2 POP SWAP2 POP POP DUP1 PUSH0 ADD DUP1 SLOAD PUSH2 0x1AE4 SWAP1 PUSH2 0x2614 JUMP JUMPDEST DUP1 PUSH1 0x1F ADD PUSH1 0x20 DUP1 SWAP2 DIV MUL PUSH1 0x20 ADD PUSH1 0x40 MLOAD SWAP1 DUP2 ADD PUSH1 0x40 MSTORE DUP1 SWAP3 SWAP2 SWAP1 DUP2 DUP2 MSTORE PUSH1 0x20 ADD DUP3 DUP1 SLOAD PUSH2 0x1B10 SWAP1 PUSH2 0x2614 JUMP JUMPDEST DUP1 ISZERO PUSH2 0x1B5B JUMPI DUP1 PUSH1 0x1F LT PUSH2 0x1B32 JUMPI PUSH2 0x100 DUP1 DUP4 SLOAD DIV MUL DUP4 MSTORE SWAP2 PUSH1 0x20 ADD SWAP2 PUSH2 0x1B5B JUMP JUMPDEST DUP3 ADD SWAP2 SWAP1 PUSH0 MSTORE PUSH1 0x20 PUSH0 KECCAK256 SWAP1 JUMPDEST DUP2 SLOAD DUP2 MSTORE SWAP1 PUSH1 0x1 ADD SWAP1 PUSH1 0x20 ADD DUP1 DUP4 GT PUSH2 0x1B3E JUMPI DUP3 SWAP1 SUB PUSH1 0x1F AND DUP3 ADD SWAP2 JUMPDEST POP POP POP POP POP SWAP1 DUP1 PUSH1 0x1 ADD DUP1 SLOAD PUSH2 0x1B70 SWAP1 PUSH2 0x2614 JUMP JUMPDEST DUP1 PUSH1 0x1F ADD PUSH1 0x20 DUP1 SWAP2 DIV MUL PUSH1 0x20 ADD PUSH1 0x40 MLOAD SWAP1 DUP2 ADD PUSH1 0x40 MSTORE DUP1 SWAP3 SWAP2 SWAP1 DUP2 DUP2 MSTORE PUSH1 0x20 ADD DUP3 DUP1 SLOAD PUSH2 0x1B9C SWAP1 PUSH2 0x2614 JUMP JUMPDEST DUP1 ISZERO PUSH2 0x1BE7 JUMPI DUP1 PUSH1 0x1F LT PUSH2 0x1BBE JUMPI PUSH2 0x100 DUP1 DUP4 SLOAD DIV MUL DUP4 MSTORE SWAP2 PUSH1 0x20 ADD SWAP2 PUSH2 0x1BE7 JUMP JUMPDEST DUP3 ADD SWAP2 SWAP1 PUSH0 MSTORE PUSH1 0x20 PUSH0 KECCAK256 SWAP1 JUMPDEST DUP2 SLOAD DUP2 MSTORE SWAP1 PUSH1 0x1 ADD SWAP1 PUSH1 0x20 ADD DUP1 DUP4 GT PUSH2 0x1BCA JUMPI DUP3 SWAP1 SUB PUSH1 0x1F AND DUP3 ADD SWAP2 JUMPDEST POP POP POP POP POP SWAP1 DUP1 PUSH1 0x2 ADD SLOAD SWAP1 DUP1 PUSH1 0x3 ADD DUP1 SLOAD PUSH2 0x1C02 SWAP1 PUSH2 0x2614 JUMP JUMPDEST DUP1 PUSH1 0x1F ADD PUSH1 0x20 DUP1 SWAP2 DIV MUL PUSH1 0x20 ADD PUSH1 0x40 MLOAD SWAP1 DUP2 ADD PUSH1 0x40 MSTORE DUP1 SWAP3 SWAP2 SWAP1 DUP2 DUP2 MSTORE PUSH1 0x20 ADD DUP3 DUP1 SLOAD PUSH2 0x1C2E SWAP1 PUSH2 0x2614 JUMP JUMPDEST DUP1 ISZERO PUSH2 0x1C79 JUMPI DUP1 PUSH1 0x1F LT PUSH2 0x1C50 JUMPI PUSH2 0x100 DUP1 DUP4 SLOAD DIV MUL DUP4 MSTORE SWAP2 PUSH1 0x20 ADD SWAP2 PUSH2 0x1C79 JUMP JUMPDEST DUP3 ADD SWAP2 SWAP1 PUSH0 MSTORE PUSH1 0x20 PUSH0 KECCAK256 SWAP1 JUMPDEST DUP2 SLOAD DUP2 MSTORE SWAP1 PUSH1 0x1 ADD SWAP1 PUSH1 0x20 ADD DUP1 DUP4 GT PUSH2 0x1C5C JUMPI DUP3 SWAP1 SUB PUSH1 0x1F AND DUP3 ADD SWAP2 JUMPDEST POP POP POP POP POP SWAP1 DUP1 PUSH1 0x4 ADD PUSH0 SWAP1 SLOAD SWAP1 PUSH2 0x100 EXP SWAP1 DIV PUSH20 0xFFFFFFFFFFFFFFFFFFFFFFFFFFFFFFFFFFFFFFFF AND SWAP1 DUP1 PUSH1 0x5 ADD PUSH0 SWAP1 SLOAD SWAP1 PUSH2 0x100 EXP SWAP1 DIV PUSH20 0xFFFFFFFFFFFFFFFFFFFFFFFFFFFFFFFFFFFFFFFF AND SWAP1 POP DUP7 JUMP JUMPDEST PUSH1 0x40 MLOAD DUP1 PUSH1 0xC0 ADD PUSH1 0x40 MSTORE DUP1 PUSH1 0x60 DUP2 MSTORE PUSH1 0x20 ADD PUSH1 0x60 DUP2 MSTORE PUSH1 0x20 ADD PUSH0 DUP2 MSTORE PUSH1 0x20 ADD PUSH1 0x60 DUP2 MSTORE PUSH1 0x20 ADD PUSH0 PUSH20 0xFFFFFFFFFFFFFFFFFFFFFFFFFFFFFFFFFFFFFFFF AND DUP2 MSTORE PUSH1 0x20 ADD PUSH0 PUSH20 0xFFFFFFFFFFFFFFFFFFFFFFFFFFFFFFFFFFFFFFFF AND DUP2 MSTORE POP SWAP1 JUMP JUMPDEST PUSH0 PUSH1 0x40 MLOAD SWAP1 POP SWAP1 JUMP JUMPDEST PUSH0 PUSH0 REVERT JUMPDEST PUSH0 PUSH0 REVERT JUMPDEST PUSH0 PUSH20 0xFFFFFFFFFFFFFFFFFFFFFFFFFFFFFFFFFFFFFFFF DUP3 AND SWAP1 POP SWAP2 SWAP1 POP JUMP JUMPDEST PUSH0 PUSH2 0x1D66 DUP3 PUSH2 0x1D3D JUMP JUMPDEST SWAP1 POP SWAP2 SWAP1 POP JUMP JUMPDEST PUSH2 0x1D76 DUP2 PUSH2 0x1D5C JUMP JUMPDEST DUP2 EQ PUSH2 0x1D80 JUMPI PUSH0 PUSH0 REVERT JUMPDEST POP JUMP JUMPDEST PUSH0 DUP2 CALLDATALOAD SWAP1 POP PUSH2 0x1D91 DUP2 PUSH2 0x1D6D JUMP JUMPDEST SWAP3 SWAP2 POP POP JUMP JUMPDEST PUSH0 DUP2 SWAP1 POP SWAP2 SWAP1 POP JUMP JUMPDEST PUSH2 0x1DA9 DUP2 PUSH2 0x1D97 JUMP JUMPDEST DUP2 EQ PUSH2 0x1DB3 JUMPI PUSH0 PUSH0 REVERT JUMPDEST POP JUMP JUMPDEST PUSH0 DUP2 CALLDATALOAD SWAP1 POP PUSH2 0x1DC4 DUP2 PUSH2 0x1DA0 JUMP JUMPDEST SWAP3 SWAP2 POP POP JUMP JUMPDEST PUSH0 PUSH0 PUSH1 0x40 DUP4 DUP6 SUB SLT ISZERO PUSH2 0x1DE0 JUMPI PUSH2 0x1DDF PUSH2 0x1D35 JUMP JUMPDEST JUMPDEST PUSH0 PUSH2 0x1DED DUP6 DUP3 DUP7 ADD PUSH2 0x1D83 JUMP JUMPDEST SWAP3 POP POP PUSH1 0x20 PUSH2 0x1DFE DUP6 DUP3 DUP7 ADD PUSH2 0x1DB6 JUMP JUMPDEST SWAP2 POP POP SWAP3 POP SWAP3 SWAP1 POP JUMP JUMPDEST PUSH2 0x1E11 DUP2 PUSH2 0x1D5C JUMP JUMPDEST DUP3 MSTORE POP POP JUMP JUMPDEST PUSH0 DUP2 MLOAD SWAP1 POP SWAP2 SWAP1 POP JUMP JUMPDEST PUSH0 DUP3 DUP3 MSTORE PUSH1 0x20 DUP3 ADD SWAP1 POP SWAP3 SWAP2 POP POP JUMP JUMPDEST DUP3 DUP2 DUP4 MCOPY PUSH0 DUP4 DUP4 ADD MSTORE POP POP POP JUMP JUMPDEST PUSH0 PUSH1 0x1F NOT PUSH1 0x1F DUP4 ADD AND SWAP1 POP SWAP2 SWAP1 POP JUMP JUMPDEST PUSH0 PUSH2 0x1E59 DUP3 PUSH2 0x1E17 JUMP JUMPDEST PUSH2 0x1E63 DUP2 DUP6 PUSH2 0x1E21 JUMP JUMPDEST SWAP4 POP PUSH2 0x1E73 DUP2 DUP6 PUSH1 0x20 DUP7 ADD PUSH2 0x1E31 JUMP JUMPDEST PUSH2 0x1E7C DUP2 PUSH2 0x1E3F JUMP JUMPDEST DUP5 ADD SWAP2 POP POP SWAP3 SWAP2 POP POP JUMP JUMPDEST PUSH0 PUSH1 0x40 DUP3 ADD SWAP1 POP PUSH2 0x1E9A PUSH0 DUP4 ADD DUP6 PUSH2 0x1E08 JUMP JUMPDEST DUP2 DUP2 SUB PUSH1 0x20 DUP4 ADD MSTORE PUSH2 0x1EAC DUP2 DUP5 PUSH2 0x1E4F JUMP JUMPDEST SWAP1 POP SWAP4 SWAP3 POP POP POP JUMP JUMPDEST PUSH0 PUSH1 0x20 DUP3 DUP5 SUB SLT ISZERO PUSH2 0x1ECA JUMPI PUSH2 0x1EC9 PUSH2 0x1D35 JUMP JUMPDEST JUMPDEST PUSH0 PUSH2 0x1ED7 DUP5 DUP3 DUP6 ADD PUSH2 0x1D83 JUMP JUMPDEST SWAP2 POP POP SWAP3 SWAP2 POP POP JUMP JUMPDEST PUSH0 DUP2 ISZERO ISZERO SWAP1 POP SWAP2 SWAP1 POP JUMP JUMPDEST PUSH2 0x1EF4 DUP2 PUSH2 0x1EE0 JUMP JUMPDEST DUP3 MSTORE POP POP JUMP JUMPDEST PUSH0 PUSH1 0x20 DUP3 ADD SWAP1 POP PUSH2 0x1F0D PUSH0 DUP4 ADD DUP5 PUSH2 0x1EEB JUMP JUMPDEST SWAP3 SWAP2 POP POP JUMP JUMPDEST PUSH0 PUSH0 REVERT JUMPDEST PUSH0 PUSH0 REVERT JUMPDEST PUSH32 0x4E487B7100000000000000000000000000000000000000000000000000000000 PUSH0 MSTORE PUSH1 0x41 PUSH1 0x4 MSTORE PUSH1 0x24 PUSH0 REVERT JUMPDEST PUSH2 0x1F51 DUP3 PUSH2 0x1E3F JUMP JUMPDEST DUP2 ADD DUP2 DUP2 LT PUSH8 0xFFFFFFFFFFFFFFFF DUP3 GT OR ISZERO PUSH2 0x1F70 JUMPI PUSH2 0x1F6F PUSH2 0x1F1B JUMP JUMPDEST JUMPDEST DUP1 PUSH1 0x40 MSTORE POP POP POP JUMP JUMPDEST PUSH0 PUSH2 0x1F82 PUSH2 0x1D2C JUMP JUMPDEST SWAP1 POP PUSH2 0x1F8E DUP3 DUP3 PUSH2 0x1F48 JUMP JUMPDEST SWAP2 SWAP1 POP JUMP JUMPDEST PUSH0 PUSH8 0xFFFFFFFFFFFFFFFF DUP3 GT ISZERO PUSH2 0x1FAD JUMPI PUSH2 0x1FAC PUSH2 0x1F1B JUMP JUMPDEST JUMPDEST PUSH2 0x1FB6 DUP3 PUSH2 0x1E3F JUMP JUMPDEST SWAP1 POP PUSH1 0x20 DUP2 ADD SWAP1 POP SWAP2 SWAP1 POP JUMP JUMPDEST DUP3 DUP2 DUP4 CALLDATACOPY PUSH0 DUP4 DUP4 ADD MSTORE POP POP POP JUMP JUMPDEST PUSH0 PUSH2 0x1FE3 PUSH2 0x1FDE DUP5 PUSH2 0x1F93 JUMP JUMPDEST PUSH2 0x1F79 JUMP JUMPDEST SWAP1 POP DUP3 DUP2 MSTORE PUSH1 0x20 DUP2 ADD DUP5 DUP5 DUP5 ADD GT ISZERO PUSH2 0x1FFF JUMPI PUSH2 0x1FFE PUSH2 0x1F17 JUMP JUMPDEST JUMPDEST PUSH2 0x200A DUP5 DUP3 DUP6 PUSH2 0x1FC3 JUMP JUMPDEST POP SWAP4 SWAP3 POP POP POP JUMP JUMPDEST PUSH0 DUP3 PUSH1 0x1F DUP4 ADD SLT PUSH2 0x2026 JUMPI PUSH2 0x2025 PUSH2 0x1F13 JUMP JUMPDEST JUMPDEST DUP2 CALLDATALOAD PUSH2 0x2036 DUP5 DUP3 PUSH1 0x20 DUP7 ADD PUSH2 0x1FD1 JUMP JUMPDEST SWAP2 POP POP SWAP3 SWAP2 POP POP JUMP JUMPDEST PUSH0 PUSH0 PUSH1 0x40 DUP4 DUP6 SUB SLT ISZERO PUSH2 0x2055 JUMPI PUSH2 0x2054 PUSH2 0x1D35 JUMP JUMPDEST JUMPDEST PUSH0 PUSH2 0x2062 DUP6 DUP3 DUP7 ADD PUSH2 0x1D83 JUMP JUMPDEST SWAP3 POP POP PUSH1 0x20 DUP4 ADD CALLDATALOAD PUSH8 0xFFFFFFFFFFFFFFFF DUP2 GT ISZERO PUSH2 0x2083 JUMPI PUSH2 0x2082 PUSH2 0x1D39 JUMP JUMPDEST JUMPDEST PUSH2 0x208F DUP6 DUP3 DUP7 ADD PUSH2 0x2012 JUMP JUMPDEST SWAP2 POP POP SWAP3 POP SWAP3 SWAP1 POP JUMP JUMPDEST PUSH0 DUP3 DUP3 MSTORE PUSH1 0x20 DUP3 ADD SWAP1 POP SWAP3 SWAP2 POP POP JUMP JUMPDEST PUSH0 PUSH2 0x20B3 DUP3 PUSH2 0x1E17 JUMP JUMPDEST PUSH2 0x20BD DUP2 DUP6 PUSH2 0x2099 JUMP JUMPDEST SWAP4 POP PUSH2 0x20CD DUP2 DUP6 PUSH1 0x20 DUP7 ADD PUSH2 0x1E31 JUMP JUMPDEST PUSH2 0x20D6 DUP2 PUSH2 0x1E3F JUMP JUMPDEST DUP5 ADD SWAP2 POP POP SWAP3 SWAP2 POP POP JUMP JUMPDEST PUSH2 0x20EA DUP2 PUSH2 0x1D97 JUMP JUMPDEST DUP3 MSTORE POP POP JUMP JUMPDEST PUSH2 0x20F9 DUP2 PUSH2 0x1D5C JUMP JUMPDEST DUP3 MSTORE POP POP JUMP JUMPDEST PUSH0 PUSH1 0xC0 DUP4 ADD PUSH0 DUP4 ADD MLOAD DUP5 DUP3 SUB PUSH0 DUP7 ADD MSTORE PUSH2 0x2119 DUP3 DUP3 PUSH2 0x20A9 JUMP JUMPDEST SWAP2 POP POP PUSH1 0x20 DUP4 ADD MLOAD DUP5 DUP3 SUB PUSH1 0x20 DUP7 ADD MSTORE PUSH2 0x2133 DUP3 DUP3 PUSH2 0x20A9 JUMP JUMPDEST SWAP2 POP POP PUSH1 0x40 DUP4 ADD MLOAD PUSH2 0x2148 PUSH1 0x40 DUP7 ADD DUP3 PUSH2 0x20E1 JUMP JUMPDEST POP PUSH1 0x60 DUP4 ADD MLOAD DUP5 DUP3 SUB PUSH1 0x60 DUP7 ADD MSTORE PUSH2 0x2160 DUP3 DUP3 PUSH2 0x20A9 JUMP JUMPDEST SWAP2 POP POP PUSH1 0x80 DUP4 ADD MLOAD PUSH2 0x2175 PUSH1 0x80 DUP7 ADD DUP3 PUSH2 0x20F0 JUMP JUMPDEST POP PUSH1 0xA0 DUP4 ADD MLOAD PUSH2 0x2188 PUSH1 0xA0 DUP7 ADD DUP3 PUSH2 0x20F0 JUMP JUMPDEST POP DUP1 SWAP2 POP POP SWAP3 SWAP2 POP POP JUMP JUMPDEST PUSH0 PUSH1 0x20 DUP3 ADD SWAP1 POP DUP2 DUP2 SUB PUSH0 DUP4 ADD MSTORE PUSH2 0x21AB DUP2 DUP5 PUSH2 0x20FF JUMP JUMPDEST SWAP1 POP SWAP3 SWAP2 POP POP JUMP JUMPDEST PUSH0 DUP2 MLOAD SWAP1 POP SWAP2 SWAP1 POP JUMP JUMPDEST PUSH0 DUP3 DUP3 MSTORE PUSH1 0x20 DUP3 ADD SWAP1 POP SWAP3 SWAP2 POP POP JUMP JUMPDEST PUSH0 DUP2 SWAP1 POP PUSH1 0x20 DUP3 ADD SWAP1 POP SWAP2 SWAP1 POP JUMP JUMPDEST PUSH0 PUSH1 0xC0 DUP4 ADD PUSH0 DUP4 ADD MLOAD DUP5 DUP3 SUB PUSH0 DUP7 ADD MSTORE PUSH2 0x21F6 DUP3 DUP3 PUSH2 0x20A9 JUMP JUMPDEST SWAP2 POP POP PUSH1 0x20 DUP4 ADD MLOAD DUP5 DUP3 SUB PUSH1 0x20 DUP7 ADD MSTORE PUSH2 0x2210 DUP3 DUP3 PUSH2 0x20A9 JUMP JUMPDEST SWAP2 POP POP PUSH1 0x40 DUP4 ADD MLOAD PUSH2 0x2225 PUSH1 0x40 DUP7 ADD DUP3 PUSH2 0x20E1 JUMP JUMPDEST POP PUSH1 0x60 DUP4 ADD MLOAD DUP5 DUP3 SUB PUSH1 0x60 DUP7 ADD MSTORE PUSH2 0x223D DUP3 DUP3 PUSH2 0x20A9 JUMP JUMPDEST SWAP2 POP POP PUSH1 0x80 DUP4 ADD MLOAD PUSH2 0x2252 PUSH1 0x80 DUP7 ADD DUP3 PUSH2 0x20F0 JUMP JUMPDEST POP PUSH1 0xA0 DUP4 ADD MLOAD PUSH2 0x2265 PUSH1 0xA0 DUP7 ADD DUP3 PUSH2 0x20F0 JUMP JUMPDEST POP DUP1 SWAP2 POP POP SWAP3 SWAP2 POP POP JUMP JUMPDEST PUSH0 PUSH2 0x227B DUP4 DUP4 PUSH2 0x21DC JUMP JUMPDEST SWAP1 POP SWAP3 SWAP2 POP POP JUMP JUMPDEST PUSH0 PUSH1 0x20 DUP3 ADD SWAP1 POP SWAP2 SWAP1 POP JUMP JUMPDEST PUSH0 PUSH2 0x2299 DUP3 PUSH2 0x21B3 JUMP JUMPDEST PUSH2 0x22A3 DUP2 DUP6 PUSH2 0x21BD JUMP JUMPDEST SWAP4 POP DUP4 PUSH1 0x20 DUP3 MUL DUP6 ADD PUSH2 0x22B5 DUP6 PUSH2 0x21CD JUMP JUMPDEST DUP1 PUSH0 JUMPDEST DUP6 DUP2 LT ISZERO PUSH2 0x22F0 JUMPI DUP5 DUP5 SUB DUP10 MSTORE DUP2 MLOAD PUSH2 0x22D1 DUP6 DUP3 PUSH2 0x2270 JUMP JUMPDEST SWAP5 POP PUSH2 0x22DC DUP4 PUSH2 0x2283 JUMP JUMPDEST SWAP3 POP PUSH1 0x20 DUP11 ADD SWAP10 POP POP PUSH1 0x1 DUP2 ADD SWAP1 POP PUSH2 0x22B8 JUMP JUMPDEST POP DUP3 SWAP8 POP DUP8 SWAP6 POP POP POP POP POP POP SWAP3 SWAP2 POP POP JUMP JUMPDEST PUSH0 PUSH1 0x20 DUP3 ADD SWAP1 POP DUP2 DUP2 SUB PUSH0 DUP4 ADD MSTORE PUSH2 0x231A DUP2 DUP5 PUSH2 0x228F JUMP JUMPDEST SWAP1 POP SWAP3 SWAP2 POP POP JUMP JUMPDEST PUSH0 DUP2 MLOAD SWAP1 POP SWAP2 SWAP1 POP JUMP JUMPDEST PUSH0 DUP3 DUP3 MSTORE PUSH1 0x20 DUP3 ADD SWAP1 POP SWAP3 SWAP2 POP POP JUMP JUMPDEST PUSH0 DUP2 SWAP1 POP PUSH1 0x20 DUP3 ADD SWAP1 POP SWAP2 SWAP1 POP JUMP JUMPDEST PUSH0 PUSH2 0x2356 DUP4 DUP4 PUSH2 0x20A9 JUMP JUMPDEST SWAP1 POP SWAP3 SWAP2 POP POP JUMP JUMPDEST PUSH0 PUSH1 0x20 DUP3 ADD SWAP1 POP SWAP2 SWAP1 POP JUMP JUMPDEST PUSH0 PUSH2 0x2374 DUP3 PUSH2 0x2322 JUMP JUMPDEST PUSH2 0x237E DUP2 DUP6 PUSH2 0x232C JUMP JUMPDEST SWAP4 POP DUP4 PUSH1 0x20 DUP3 MUL DUP6 ADD PUSH2 0x2390 DUP6 PUSH2 0x233C JUMP JUMPDEST DUP1 PUSH0 JUMPDEST DUP6 DUP2 LT ISZERO PUSH2 0x23CB JUMPI DUP5 DUP5 SUB DUP10 MSTORE DUP2 MLOAD PUSH2 0x23AC DUP6 DUP3 PUSH2 0x234B JUMP JUMPDEST SWAP5 POP PUSH2 0x23B7 DUP4 PUSH2 0x235E JUMP JUMPDEST SWAP3 POP PUSH1 0x20 DUP11 ADD SWAP10 POP POP PUSH1 0x1 DUP2 ADD SWAP1 POP PUSH2 0x2393 JUMP JUMPDEST POP DUP3 SWAP8 POP DUP8 SWAP6 POP POP POP POP POP POP SWAP3 SWAP2 POP POP JUMP JUMPDEST PUSH0 PUSH1 0x20 DUP3 ADD SWAP1 POP DUP2 DUP2 SUB PUSH0 DUP4 ADD MSTORE PUSH2 0x23F5 DUP2 DUP5 PUSH2 0x236A JUMP JUMPDEST SWAP1 POP SWAP3 SWAP2 POP POP JUMP JUMPDEST PUSH0 PUSH1 0x20 DUP3 ADD SWAP1 POP DUP2 DUP2 SUB PUSH0 DUP4 ADD MSTORE PUSH2 0x2415 DUP2 DUP5 PUSH2 0x1E4F JUMP JUMPDEST SWAP1 POP SWAP3 SWAP2 POP POP JUMP JUMPDEST PUSH0 PUSH0 PUSH0 PUSH0 PUSH0 PUSH1 0xA0 DUP7 DUP9 SUB SLT ISZERO PUSH2 0x2436 JUMPI PUSH2 0x2435 PUSH2 0x1D35 JUMP JUMPDEST JUMPDEST PUSH0 DUP7 ADD CALLDATALOAD PUSH8 0xFFFFFFFFFFFFFFFF DUP2 GT ISZERO PUSH2 0x2453 JUMPI PUSH2 0x2452 PUSH2 0x1D39 JUMP JUMPDEST JUMPDEST PUSH2 0x245F DUP9 DUP3 DUP10 ADD PUSH2 0x2012 JUMP JUMPDEST SWAP6 POP POP PUSH1 0x20 PUSH2 0x2470 DUP9 DUP3 DUP10 ADD PUSH2 0x1D83 JUMP JUMPDEST SWAP5 POP POP PUSH1 0x40 DUP7 ADD CALLDATALOAD PUSH8 0xFFFFFFFFFFFFFFFF DUP2 GT ISZERO PUSH2 0x2491 JUMPI PUSH2 0x2490 PUSH2 0x1D39 JUMP JUMPDEST JUMPDEST PUSH2 0x249D DUP9 DUP3 DUP10 ADD PUSH2 0x2012 JUMP JUMPDEST SWAP4 POP POP PUSH1 0x60 DUP7 ADD CALLDATALOAD PUSH8 0xFFFFFFFFFFFFFFFF DUP2 GT ISZERO PUSH2 0x24BE JUMPI PUSH2 0x24BD PUSH2 0x1D39 JUMP JUMPDEST JUMPDEST PUSH2 0x24CA DUP9 DUP3 DUP10 ADD PUSH2 0x2012 JUMP JUMPDEST SWAP3 POP POP PUSH1 0x80 DUP7 ADD CALLDATALOAD PUSH8 0xFFFFFFFFFFFFFFFF DUP2 GT ISZERO PUSH2 0x24EB JUMPI PUSH2 0x24EA PUSH2 0x1D39 JUMP JUMPDEST JUMPDEST PUSH2 0x24F7 DUP9 DUP3 DUP10 ADD PUSH2 0x2012 JUMP JUMPDEST SWAP2 POP POP SWAP3 SWAP6 POP SWAP3 SWAP6 SWAP1 SWAP4 POP JUMP JUMPDEST PUSH0 PUSH1 0x20 DUP3 DUP5 SUB SLT ISZERO PUSH2 0x2519 JUMPI PUSH2 0x2518 PUSH2 0x1D35 JUMP JUMPDEST JUMPDEST PUSH0 DUP3 ADD CALLDATALOAD PUSH8 0xFFFFFFFFFFFFFFFF DUP2 GT ISZERO PUSH2 0x2536 JUMPI PUSH2 0x2535 PUSH2 0x1D39 JUMP JUMPDEST JUMPDEST PUSH2 0x2542 DUP5 DUP3 DUP6 ADD PUSH2 0x2012 JUMP JUMPDEST SWAP2 POP POP SWAP3 SWAP2 POP POP JUMP JUMPDEST PUSH0 PUSH1 0x20 DUP3 ADD SWAP1 POP PUSH2 0x255E PUSH0 DUP4 ADD DUP5 PUSH2 0x1E08 JUMP JUMPDEST SWAP3 SWAP2 POP POP JUMP JUMPDEST PUSH2 0x256D DUP2 PUSH2 0x1D97 JUMP JUMPDEST DUP3 MSTORE POP POP JUMP JUMPDEST PUSH0 PUSH1 0xC0 DUP3 ADD SWAP1 POP DUP2 DUP2 SUB PUSH0 DUP4 ADD MSTORE PUSH2 0x258B DUP2 DUP10 PUSH2 0x1E4F JUMP JUMPDEST SWAP1 POP DUP2 DUP2 SUB PUSH1 0x20 DUP4 ADD MSTORE PUSH2 0x259F DUP2 DUP9 PUSH2 0x1E4F JUMP JUMPDEST SWAP1 POP PUSH2 0x25AE PUSH1 0x40 DUP4 ADD DUP8 PUSH2 0x2564 JUMP JUMPDEST DUP2 DUP2 SUB PUSH1 0x60 DUP4 ADD MSTORE PUSH2 0x25C0 DUP2 DUP7 PUSH2 0x1E4F JUMP JUMPDEST SWAP1 POP PUSH2 0x25CF PUSH1 0x80 DUP4 ADD DUP6 PUSH2 0x1E08 JUMP JUMPDEST PUSH2 0x25DC PUSH1 0xA0 DUP4 ADD DUP5 PUSH2 0x1E08 JUMP JUMPDEST SWAP8 SWAP7 POP POP POP POP POP POP POP JUMP JUMPDEST PUSH32 0x4E487B7100000000000000000000000000000000000000000000000000000000 PUSH0 MSTORE PUSH1 0x22 PUSH1 0x4 MSTORE PUSH1 0x24 PUSH0 REVERT JUMPDEST PUSH0 PUSH1 0x2 DUP3 DIV SWAP1 POP PUSH1 0x1 DUP3 AND DUP1 PUSH2 0x262B JUMPI PUSH1 0x7F DUP3 AND SWAP2 POP JUMPDEST PUSH1 0x20 DUP3 LT DUP2 SUB PUSH2 0x263E JUMPI PUSH2 0x263D PUSH2 0x25E7 JUMP JUMPDEST JUMPDEST POP SWAP2 SWAP1 POP JUMP JUMPDEST PUSH32 0x4E6F7420617574686F72697A6564000000000000000000000000000000000000 PUSH0 DUP3 ADD MSTORE POP JUMP JUMPDEST PUSH0 PUSH2 0x2678 PUSH1 0xE DUP4 PUSH2 0x1E21 JUMP JUMPDEST SWAP2 POP PUSH2 0x2683 DUP3 PUSH2 0x2644 JUMP JUMPDEST PUSH1 0x20 DUP3 ADD SWAP1 POP SWAP2 SWAP1 POP JUMP JUMPDEST PUSH0 PUSH1 0x20 DUP3 ADD SWAP1 POP DUP2 DUP2 SUB PUSH0 DUP4 ADD MSTORE PUSH2 0x26A5 DUP2 PUSH2 0x266C JUMP JUMPDEST SWAP1 POP SWAP2 SWAP1 POP JUMP JUMPDEST PUSH0 DUP2 SWAP1 POP SWAP3 SWAP2 POP POP JUMP JUMPDEST PUSH0 PUSH2 0x26C0 DUP3 PUSH2 0x1E17 JUMP JUMPDEST PUSH2 0x26CA DUP2 DUP6 PUSH2 0x26AC JUMP JUMPDEST SWAP4 POP PUSH2 0x26DA DUP2 DUP6 PUSH1 0x20 DUP7 ADD PUSH2 0x1E31 JUMP JUMPDEST DUP1 DUP5 ADD SWAP2 POP POP SWAP3 SWAP2 POP POP JUMP JUMPDEST PUSH0 PUSH2 0x26F1 DUP3 DUP5 PUSH2 0x26B6 JUMP JUMPDEST SWAP2 POP DUP2 SWAP1 POP SWAP3 SWAP2 POP POP JUMP JUMPDEST PUSH32 0x4E487B7100000000000000000000000000000000000000000000000000000000 PUSH0 MSTORE PUSH1 0x32 PUSH1 0x4 MSTORE PUSH1 0x24 PUSH0 REVERT JUMPDEST PUSH32 0x496E737469747574696F6E206E6F7420617574686F72697A6564000000000000 PUSH0 DUP3 ADD MSTORE POP JUMP JUMPDEST PUSH0 PUSH2 0x275D PUSH1 0x1A DUP4 PUSH2 0x1E21 JUMP JUMPDEST SWAP2 POP PUSH2 0x2768 DUP3 PUSH2 0x2729 JUMP JUMPDEST PUSH1 0x20 DUP3 ADD SWAP1 POP SWAP2 SWAP1 POP JUMP JUMPDEST PUSH0 PUSH1 0x20 DUP3 ADD SWAP1 POP DUP2 DUP2 SUB PUSH0 DUP4 ADD MSTORE PUSH2 0x278A DUP2 PUSH2 0x2751 JUMP JUMPDEST SWAP1 POP SWAP2 SWAP1 POP JUMP JUMPDEST PUSH32 0x43726564656E7469616C20494420616C7265616479207573656420627920796F PUSH0 DUP3 ADD MSTORE PUSH32 0x757220696E737469747574696F6E000000000000000000000000000000000000 PUSH1 0x20 DUP3 ADD MSTORE POP JUMP JUMPDEST PUSH0 PUSH2 0x27EB PUSH1 0x2E DUP4 PUSH2 0x1E21 JUMP JUMPDEST SWAP2 POP PUSH2 0x27F6 DUP3 PUSH2 0x2791 JUMP JUMPDEST PUSH1 0x40 DUP3 ADD SWAP1 POP SWAP2 SWAP1 POP JUMP JUMPDEST PUSH0 PUSH1 0x20 DUP3 ADD SWAP1 POP DUP2 DUP2 SUB PUSH0 DUP4 ADD MSTORE PUSH2 0x2818 DUP2 PUSH2 0x27DF JUMP JUMPDEST SWAP1 POP SWAP2 SWAP1 POP JUMP JUMPDEST PUSH0 DUP2 SWAP1 POP DUP2 PUSH0 MSTORE PUSH1 0x20 PUSH0 KECCAK256 SWAP1 POP SWAP2 SWAP1 POP JUMP JUMPDEST PUSH0 PUSH1 0x20 PUSH1 0x1F DUP4 ADD DIV SWAP1 POP SWAP2 SWAP1 POP JUMP JUMPDEST PUSH0 DUP3 DUP3 SHL SWAP1 POP SWAP3 SWAP2 POP POP JUMP JUMPDEST PUSH0 PUSH1 0x8 DUP4 MUL PUSH2 0x287B PUSH32 0xFFFFFFFFFFFFFFFFFFFFFFFFFFFFFFFFFFFFFFFFFFFFFFFFFFFFFFFFFFFFFFFF DUP3 PUSH2 0x2840 JUMP JUMPDEST PUSH2 0x2885 DUP7 DUP4 PUSH2 0x2840 JUMP JUMPDEST SWAP6 POP DUP1 NOT DUP5 AND SWAP4 POP DUP1 DUP7 AND DUP5 OR SWAP3 POP POP POP SWAP4 SWAP3 POP POP POP JUMP JUMPDEST PUSH0 DUP2 SWAP1 POP SWAP2 SWAP1 POP JUMP JUMPDEST PUSH0 PUSH2 0x28C0 PUSH2 0x28BB PUSH2 0x28B6 DUP5 PUSH2 0x1D97 JUMP JUMPDEST PUSH2 0x289D JUMP JUMPDEST PUSH2 0x1D97 JUMP JUMPDEST SWAP1 POP SWAP2 SWAP1 POP JUMP JUMPDEST PUSH0 DUP2 SWAP1 POP SWAP2 SWAP1 POP JUMP JUMPDEST PUSH2 0x28D9 DUP4 PUSH2 0x28A6 JUMP JUMPDEST PUSH2 0x28ED PUSH2 0x28E5 DUP3 PUSH2 0x28C7 JUMP JUMPDEST DUP5 DUP5 SLOAD PUSH2 0x284C JUMP JUMPDEST DUP3 SSTORE POP POP POP POP JUMP JUMPDEST PUSH0 PUSH0 SWAP1 POP SWAP1 JUMP JUMPDEST PUSH2 0x2904 PUSH2 0x28F5 JUMP JUMPDEST PUSH2 0x290F DUP2 DUP5 DUP5 PUSH2 0x28D0 JUMP JUMPDEST POP POP POP JUMP JUMPDEST JUMPDEST DUP2 DUP2 LT ISZERO PUSH2 0x2932 JUMPI PUSH2 0x2927 PUSH0 DUP3 PUSH2 0x28FC JUMP JUMPDEST PUSH1 0x1 DUP2 ADD SWAP1 POP PUSH2 0x2915 JUMP JUMPDEST POP POP JUMP JUMPDEST PUSH1 0x1F DUP3 GT ISZERO PUSH2 0x2977 JUMPI PUSH2 0x2948 DUP2 PUSH2 0x281F JUMP JUMPDEST PUSH2 0x2951 DUP5 PUSH2 0x2831 JUMP JUMPDEST DUP2 ADD PUSH1 0x20 DUP6 LT ISZERO PUSH2 0x2960 JUMPI DUP2 SWAP1 POP JUMPDEST PUSH2 0x2974 PUSH2 0x296C DUP6 PUSH2 0x2831 JUMP JUMPDEST DUP4 ADD DUP3 PUSH2 0x2914 JUMP JUMPDEST POP POP JUMPDEST POP POP POP JUMP JUMPDEST PUSH0 DUP3 DUP3 SHR SWAP1 POP SWAP3 SWAP2 POP POP JUMP JUMPDEST PUSH0 PUSH2 0x2997 PUSH0 NOT DUP5 PUSH1 0x8 MUL PUSH2 0x297C JUMP JUMPDEST NOT DUP1 DUP4 AND SWAP2 POP POP SWAP3 SWAP2 POP POP JUMP JUMPDEST PUSH0 PUSH2 0x29AF DUP4 DUP4 PUSH2 0x2988 JUMP JUMPDEST SWAP2 POP DUP3 PUSH1 0x2 MUL DUP3 OR SWAP1 POP SWAP3 SWAP2 POP POP JUMP JUMPDEST PUSH2 0x29C8 DUP3 PUSH2 0x1E17 JUMP JUMPDEST PUSH8 0xFFFFFFFFFFFFFFFF DUP2 GT ISZERO PUSH2 0x29E1 JUMPI PUSH2 0x29E0 PUSH2 0x1F1B JUMP JUMPDEST JUMPDEST PUSH2 0x29EB DUP3 SLOAD PUSH2 0x2614 JUMP JUMPDEST PUSH2 0x29F6 DUP3 DUP3 DUP6 PUSH2 0x2936 JUMP JUMPDEST PUSH0 PUSH1 0x20 SWAP1 POP PUSH1 0x1F DUP4 GT PUSH1 0x1 DUP2 EQ PUSH2 0x2A27 JUMPI PUSH0 DUP5 ISZERO PUSH2 0x2A15 JUMPI DUP3 DUP8 ADD MLOAD SWAP1 POP JUMPDEST PUSH2 0x2A1F DUP6 DUP3 PUSH2 0x29A4 JUMP JUMPDEST DUP7 SSTORE POP PUSH2 0x2A86 JUMP JUMPDEST PUSH1 0x1F NOT DUP5 AND PUSH2 0x2A35 DUP7 PUSH2 0x281F JUMP JUMPDEST PUSH0 JUMPDEST DUP3 DUP2 LT ISZERO PUSH2 0x2A5C JUMPI DUP5 DUP10 ADD MLOAD DUP3 SSTORE PUSH1 0x1 DUP3 ADD SWAP2 POP PUSH1 0x20 DUP6 ADD SWAP5 POP PUSH1 0x20 DUP2 ADD SWAP1 POP PUSH2 0x2A37 JUMP JUMPDEST DUP7 DUP4 LT ISZERO PUSH2 0x2A79 JUMPI DUP5 DUP10 ADD MLOAD PUSH2 0x2A75 PUSH1 0x1F DUP10 AND DUP3 PUSH2 0x2988 JUMP JUMPDEST DUP4 SSTORE POP JUMPDEST PUSH1 0x1 PUSH1 0x2 DUP9 MUL ADD DUP9 SSTORE POP POP POP JUMPDEST POP POP POP POP POP POP JUMP JUMPDEST PUSH32 0x43726564656E7469616C206E6F7420666F756E64000000000000000000000000 PUSH0 DUP3 ADD MSTORE POP JUMP JUMPDEST PUSH0 PUSH2 0x2AC2 PUSH1 0x14 DUP4 PUSH2 0x1E21 JUMP JUMPDEST SWAP2 POP PUSH2 0x2ACD DUP3 PUSH2 0x2A8E JUMP JUMPDEST PUSH1 0x20 DUP3 ADD SWAP1 POP SWAP2 SWAP1 POP JUMP JUMPDEST PUSH0 PUSH1 0x20 DUP3 ADD SWAP1 POP DUP2 DUP2 SUB PUSH0 DUP4 ADD MSTORE PUSH2 0x2AEF DUP2 PUSH2 0x2AB6 JUMP JUMPDEST SWAP1 POP SWAP2 SWAP1 POP JUMP INVALID LOG2 PUSH5 0x6970667358 0x22 SLT KECCAK256 EXTCODEHASH 0xB7 SGT 0x27 PUSH8 0x41DF6A9E5974A393 0xD0 CALLVALUE SAR DUP4 SIGNEXTEND 0xB6 JUMPDEST XOR 0xD4 SWAP14 RJUMPI 0xF6F5 PUSH0 DUP14 0xBD CALLDATALOAD PUSH3 0x896473 PUSH16 0x6C634300081E00330000000000000000 "
				},
				"gasEstimates": {
					"creation": {
						"codeDepositCost": "2210400",
						"executionCost": "infinite",
						"totalCost": "infinite"
					},
					"external": {
						"adminContract()": "infinite",
						"authorizeInstitution(address)": "infinite",
						"authorizedInstitutions(address)": "2878",
						"cidToCredentialId(string)": "infinite",
						"cidToIssuer(string)": "infinite",
						"credentials(address,string)": "infinite",
						"getCredential(address,string)": "infinite",
						"getCredentialByCID(string)": "infinite",
						"getInstitutionCredentials(address)": "infinite",
						"getStudentCredentialsFull(address)": "infinite",
						"institutionCredentials(address,uint256)": "infinite",
						"issueCredential(string,address,string,string,string)": "infinite",
						"revokeInstitution(address)": "infinite",
						"studentCredentials(address,uint256)": "infinite"
					}
				},
				"methodIdentifiers": {
					"adminContract()": "c05c5e94",
					"authorizeInstitution(address)": "bd4d8bcb",
					"authorizedInstitutions(address)": "16b784fe",
					"cidToCredentialId(string)": "d28adb23",
					"cidToIssuer(string)": "9b7c79a2",
					"credentials(address,string)": "dbd30262",
					"getCredential(address,string)": "2f4b5ad3",
					"getCredentialByCID(string)": "c57efc5d",
					"getInstitutionCredentials(address)": "4e83e59a",
					"getStudentCredentialsFull(address)": "45117177",
					"institutionCredentials(address,uint256)": "55bedcbb",
					"issueCredential(string,address,string,string,string)": "76978529",
					"revokeInstitution(address)": "1c67494e",
					"studentCredentials(address,uint256)": "0dd308cd"
				}
			},
			"storageLayout": {
				"storage": [
					{
						"astId": 25,
						"contract": "new-contracts/EduVerify.sol:EduVerify",
						"label": "authorizedInstitutions",
						"offset": 0,
						"slot": "0",
						"type": "t_mapping(t_address,t_bool)"
					},
					{
						"astId": 32,
						"contract": "new-contracts/EduVerify.sol:EduVerify",
						"label": "credentials",
						"offset": 0,
						"slot": "1",
						"type": "t_mapping(t_address,t_mapping(t_string_memory_ptr,t_struct(Credential)14_storage))"
					},
					{
						"astId": 37,
						"contract": "new-contracts/EduVerify.sol:EduVerify",
						"label": "institutionCredentials",
						"offset": 0,
						"slot": "2",
						"type": "t_mapping(t_address,t_array(t_string_storage)dyn_storage)"
					},
					{
						"astId": 41,
						"contract": "new-contracts/EduVerify.sol:EduVerify",
						"label": "cidToIssuer",
						"offset": 0,
						"slot": "3",
						"type": "t_mapping(t_string_memory_ptr,t_address)"
					},
					{
						"astId": 45,
						"contract": "new-contracts/EduVerify.sol:EduVerify",
						"label": "cidToCredentialId",
						"offset": 0,
						"slot": "4",
						"type": "t_mapping(t_string_memory_ptr,t_string_storage)"
					},
					{
						"astId": 51,
						"contract": "new-contracts/EduVerify.sol:EduVerify",
						"label": "studentCredentials",
						"offset": 0,
						"slot": "5",
						"type": "t_mapping(t_address,t_array(t_struct(CredentialReference)19_storage)dyn_storage)"
					}
				],
				"types": {
					"t_address": {
						"encoding": "inplace",
						"label": "address",
						"numberOfBytes": "20"
					},
					"t_array(t_string_storage)dyn_storage": {
						"base": "t_string_storage",
						"encoding": "dynamic_array",
						"label": "string[]",
						"numberOfBytes": "32"
					},
					"t_array(t_struct(CredentialReference)19_storage)dyn_storage": {
						"base": "t_struct(CredentialReference)19_storage",
						"encoding": "dynamic_array",
						"label": "struct EduVerify.CredentialReference[]",
						"numberOfBytes": "32"
					},
					"t_bool": {
						"encoding": "inplace",
						"label": "bool",
						"numberOfBytes": "1"
					},
					"t_mapping(t_address,t_array(t_string_storage)dyn_storage)": {
						"encoding": "mapping",
						"key": "t_address",
						"label": "mapping(address => string[])",
						"numberOfBytes": "32",
						"value": "t_array(t_string_storage)dyn_storage"
					},
					"t_mapping(t_address,t_array(t_struct(CredentialReference)19_storage)dyn_storage)": {
						"encoding": "mapping",
						"key": "t_address",
						"label": "mapping(address => struct EduVerify.CredentialReference[])",
						"numberOfBytes": "32",
						"value": "t_array(t_struct(CredentialReference)19_storage)dyn_storage"
					},
					"t_mapping(t_address,t_bool)": {
						"encoding": "mapping",
						"key": "t_address",
						"label": "mapping(address => bool)",
						"numberOfBytes": "32",
						"value": "t_bool"
					},
					"t_mapping(t_address,t_mapping(t_string_memory_ptr,t_struct(Credential)14_storage))": {
						"encoding": "mapping",
						"key": "t_address",
						"label": "mapping(address => mapping(string => struct EduVerify.Credential))",
						"numberOfBytes": "32",
						"value": "t_mapping(t_string_memory_ptr,t_struct(Credential)14_storage)"
					},
					"t_mapping(t_string_memory_ptr,t_address)": {
						"encoding": "mapping",
						"key": "t_string_memory_ptr",
						"label": "mapping(string => address)",
						"numberOfBytes": "32",
						"value": "t_address"
					},
					"t_mapping(t_string_memory_ptr,t_string_storage)": {
						"encoding": "mapping",
						"key": "t_string_memory_ptr",
						"label": "mapping(string => string)",
						"numberOfBytes": "32",
						"value": "t_string_storage"
					},
					"t_mapping(t_string_memory_ptr,t_struct(Credential)14_storage)": {
						"encoding": "mapping",
						"key": "t_string_memory_ptr",
						"label": "mapping(string => struct EduVerify.Credential)",
						"numberOfBytes": "32",
						"value": "t_struct(Credential)14_storage"
					},
					"t_string_memory_ptr": {
						"encoding": "bytes",
						"label": "string",
						"numberOfBytes": "32"
					},
					"t_string_storage": {
						"encoding": "bytes",
						"label": "string",
						"numberOfBytes": "32"
					},
					"t_struct(Credential)14_storage": {
						"encoding": "inplace",
						"label": "struct EduVerify.Credential",
						"members": [
							{
								"astId": 3,
								"contract": "new-contracts/EduVerify.sol:EduVerify",
								"label": "institution",
								"offset": 0,
								"slot": "0",
								"type": "t_string_storage"
							},
							{
								"astId": 5,
								"contract": "new-contracts/EduVerify.sol:EduVerify",
								"label": "degree",
								"offset": 0,
								"slot": "1",
								"type": "t_string_storage"
							},
							{
								"astId": 7,
								"contract": "new-contracts/EduVerify.sol:EduVerify",
								"label": "issueDate",
								"offset": 0,
								"slot": "2",
								"type": "t_uint256"
							},
							{
								"astId": 9,
								"contract": "new-contracts/EduVerify.sol:EduVerify",
								"label": "cid",
								"offset": 0,
								"slot": "3",
								"type": "t_string_storage"
							},
							{
								"astId": 11,
								"contract": "new-contracts/EduVerify.sol:EduVerify",
								"label": "issuer",
								"offset": 0,
								"slot": "4",
								"type": "t_address"
							},
							{
								"astId": 13,
								"contract": "new-contracts/EduVerify.sol:EduVerify",
								"label": "studentAddress",
								"offset": 0,
								"slot": "5",
								"type": "t_address"
							}
						],
						"numberOfBytes": "192"
					},
					"t_struct(CredentialReference)19_storage": {
						"encoding": "inplace",
						"label": "struct EduVerify.CredentialReference",
						"members": [
							{
								"astId": 16,
								"contract": "new-contracts/EduVerify.sol:EduVerify",
								"label": "issuer",
								"offset": 0,
								"slot": "0",
								"type": "t_address"
							},
							{
								"astId": 18,
								"contract": "new-contracts/EduVerify.sol:EduVerify",
								"label": "credentialId",
								"offset": 0,
								"slot": "1",
								"type": "t_string_storage"
							}
						],
						"numberOfBytes": "64"
					},
					"t_uint256": {
						"encoding": "inplace",
						"label": "uint256",
						"numberOfBytes": "32"
					}
				}
			},
			"userdoc": {
				"kind": "user",
				"methods": {},
				"version": 1
			}
		}
	}
}