{
	"data": {
		"bytecode": {
			"linkReferences": {},
			"object": "60a0604052348015600e575f5ffd5b50604051611bfe380380611bfe833981016040819052602b91603b565b6001600160a01b03166080526066565b5f60208284031215604a575f5ffd5b81516001600160a01b0381168114605f575f5ffd5b9392505050565b608051611b7261008c5f395f8181610251015281816103930152610f2a0152611b725ff3fe608060405234801561000f575f5ffd5b50600436106100e5575f3560e01c80637697852911610088578063c05c5e9411610063578063c05c5e941461024c578063c57efc5d14610273578063d28adb2314610286578063dbd3026214610299575f5ffd5b806376978529146101da5780639b7c79a2146101ed578063bd4d8bcb14610239575f5ffd5b80632f4b5ad3116100c35780632f4b5ad31461015a578063451171771461017a5780634e83e59a1461019a57806355bedcbb146101ba575f5ffd5b80630dd308cd146100e957806316b784fe146101135780631c67494e14610145575b5f5ffd5b6100fc6100f736600461158a565b6102be565b60405161010a9291906115e0565b60405180910390f35b61013561012136600461160b565b5f6020819052908152604090205460ff1681565b604051901515815260200161010a565b61015861015336600461160b565b610388565b005b61016d6101683660046116ca565b61043e565b60405161010a9190611795565b61018d61018836600461160b565b610668565b60405161010a91906117a7565b6101ad6101a836600461160b565b610a6c565b60405161010a919061180a565b6101cd6101c836600461158a565b610b56565b60405161010a9190611861565b6101586101e8366004611873565b610c07565b6102216101fb36600461193c565b80516020818301810180516003825292820191909301209152546001600160a01b031681565b6040516001600160a01b03909116815260200161010a565b61015861024736600461160b565b610f1f565b6102217f000000000000000000000000000000000000000000000000000000000000000081565b61016d61028136600461193c565b610fd3565b6101cd61029436600461193c565b611318565b6102ac6102a73660046116ca565b61133c565b60405161010a9695949392919061196e565b6005602052815f5260405f2081815481106102d7575f80fd5b5f918252602090912060029091020180546001820180546001600160a01b039092169450919250610307906119d3565b80601f0160208091040260200160405190810160405280929190818152602001828054610333906119d3565b801561037e5780601f106103555761010080835404028352916020019161037e565b820191905f5260205f20905b81548152906001019060200180831161036157829003601f168201915b5050505050905082565b336001600160a01b037f000000000000000000000000000000000000000000000000000000000000000016146103f65760405162461bcd60e51b815260206004820152600e60248201526d139bdd08185d5d1a1bdc9a5e995960921b60448201526064015b60405180910390fd5b6001600160a01b0381165f81815260208190526040808220805460ff19169055517f5f2c961a0db2d72fa01bfae36aaca642457678d9c63adaca86c8cb1b3d1230f49190a250565b61044661152a565b6001600160a01b0383165f9081526001602052604090819020905161046c908490611a0b565b90815260200160405180910390206040518060c00160405290815f82018054610494906119d3565b80601f01602080910402602001604051908101604052809291908181526020018280546104c0906119d3565b801561050b5780601f106104e25761010080835404028352916020019161050b565b820191905f5260205f20905b8154815290600101906020018083116104ee57829003601f168201915b50505050508152602001600182018054610524906119d3565b80601f0160208091040260200160405190810160405280929190818152602001828054610550906119d3565b801561059b5780601f106105725761010080835404028352916020019161059b565b820191905f5260205f20905b81548152906001019060200180831161057e57829003601f168201915b50505050508152602001600282015481526020016003820180546105be906119d3565b80601f01602080910402602001604051908101604052809291908181526020018280546105ea906119d3565b80156106355780601f1061060c57610100808354040283529160200191610635565b820191905f5260205f20905b81548152906001019060200180831161061857829003601f168201915b505050918352505060048201546001600160a01b0390811660208301526005909201549091166040909101529392505050565b6001600160a01b0381165f908152600560209081526040808320805482518185028101850190935280835260609493849084015b82821015610772575f848152602090819020604080518082019091526002850290910180546001600160a01b0316825260018101805492939192918401916106e3906119d3565b80601f016020809104026020016040519081016040528092919081815260200182805461070f906119d3565b801561075a5780601f106107315761010080835404028352916020019161075a565b820191905f5260205f20905b81548152906001019060200180831161073d57829003601f168201915b5050505050815250508152602001906001019061069c565b5050505090505f815167ffffffffffffffff8111156107935761079361162b565b6040519080825280602002602001820160405280156107cc57816020015b6107b961152a565b8152602001906001900390816107b15790505b5082519091505f5b81811015610a625760015f8583815181106107f1576107f1611a21565b60200260200101515f01516001600160a01b03166001600160a01b031681526020019081526020015f2084828151811061082d5761082d611a21565b6020026020010151602001516040516108469190611a0b565b90815260200160405180910390206040518060c00160405290815f8201805461086e906119d3565b80601f016020809104026020016040519081016040528092919081815260200182805461089a906119d3565b80156108e55780601f106108bc576101008083540402835291602001916108e5565b820191905f5260205f20905b8154815290600101906020018083116108c857829003601f168201915b505050505081526020016001820180546108fe906119d3565b80601f016020809104026020016040519081016040528092919081815260200182805461092a906119d3565b80156109755780601f1061094c57610100808354040283529160200191610975565b820191905f5260205f20905b81548152906001019060200180831161095857829003601f168201915b5050505050815260200160028201548152602001600382018054610998906119d3565b80601f01602080910402602001604051908101604052809291908181526020018280546109c4906119d3565b8015610a0f5780601f106109e657610100808354040283529160200191610a0f565b820191905f5260205f20905b8154815290600101906020018083116109f257829003601f168201915b505050918352505060048201546001600160a01b0390811660208301526005909201549091166040909101528351849083908110610a4f57610a4f611a21565b60209081029190910101526001016107d4565b5090949350505050565b6001600160a01b0381165f908152600260209081526040808320805482518185028101850190935280835260609492939192909184015b82821015610b4b578382905f5260205f20018054610ac0906119d3565b80601f0160208091040260200160405190810160405280929190818152602001828054610aec906119d3565b8015610b375780601f10610b0e57610100808354040283529160200191610b37565b820191905f5260205f20905b815481529060010190602001808311610b1a57829003601f168201915b505050505081526020019060010190610aa3565b505050509050919050565b6002602052815f5260405f208181548110610b6f575f80fd5b905f5260205f20015f91509150508054610b88906119d3565b80601f0160208091040260200160405190810160405280929190818152602001828054610bb4906119d3565b8015610bff5780601f10610bd657610100808354040283529160200191610bff565b820191905f5260205f20905b815481529060010190602001808311610be257829003601f168201915b505050505081565b335f9081526020819052604090205460ff16610c655760405162461bcd60e51b815260206004820152601a60248201527f496e737469747574696f6e206e6f7420617574686f72697a656400000000000060448201526064016103ed565b335f90815260016020526040908190209051610c82908790611a0b565b90815260200160405180910390206001018054610c9e906119d3565b159050610d045760405162461bcd60e51b815260206004820152602e60248201527f43726564656e7469616c20494420616c7265616479207573656420627920796f60448201526d3ab91034b739ba34ba3aba34b7b760911b60648201526084016103ed565b6040805160c081018252848152602080820185905242828401526060820184905233608083018190526001600160a01b03881660a08401525f90815260019091528290209151909190610d58908890611a0b565b90815260405190819003602001902081518190610d759082611a81565b5060208201516001820190610d8a9082611a81565b506040820151600282015560608201516003820190610da99082611a81565b5060808201516004820180546001600160a01b03199081166001600160a01b039384161790915560a0909301516005928301805485169183169190911790558681165f9081526020928352604080822081518083019092523382528185018b81528154600181810184559285529590932082516002909602018054909616949093169390931784555191929190820190610e439082611a81565b5050335f908152600260209081526040822080546001810182559083529120019050610e6f8682611a81565b5084600482604051610e819190611a0b565b90815260200160405180910390209081610e9b9190611a81565b5033600382604051610ead9190611a0b565b90815260405190819003602001812080546001600160a01b039384166001600160a01b0319909116179055908516903390610ee9908890611a0b565b604051908190038120907f754a5531e45cd3b12a4ad1e6573de002f31131ea821a89fe02613e3e93f99f33905f90a45050505050565b336001600160a01b037f00000000000000000000000000000000000000000000000000000000000000001614610f885760405162461bcd60e51b815260206004820152600e60248201526d139bdd08185d5d1a1bdc9a5e995960921b60448201526064016103ed565b6001600160a01b0381165f81815260208190526040808220805460ff19166001179055517f2aef8a157b05c49aaaeebd094bf2b10b2b90835af1fd87c288f6effa9a6a24349190a250565b610fdb61152a565b5f600383604051610fec9190611a0b565b908152604051908190036020019020546001600160a01b031690508061104b5760405162461bcd60e51b815260206004820152601460248201527310dc9959195b9d1a585b081b9bdd08199bdd5b9960621b60448201526064016103ed565b5f60048460405161105c9190611a0b565b90815260200160405180910390208054611075906119d3565b80601f01602080910402602001604051908101604052809291908181526020018280546110a1906119d3565b80156110ec5780601f106110c3576101008083540402835291602001916110ec565b820191905f5260205f20905b8154815290600101906020018083116110cf57829003601f168201915b5050506001600160a01b0385165f908152600160205260409081902090519394509261111b9250849150611a0b565b90815260200160405180910390206040518060c00160405290815f82018054611143906119d3565b80601f016020809104026020016040519081016040528092919081815260200182805461116f906119d3565b80156111ba5780601f10611191576101008083540402835291602001916111ba565b820191905f5260205f20905b81548152906001019060200180831161119d57829003601f168201915b505050505081526020016001820180546111d3906119d3565b80601f01602080910402602001604051908101604052809291908181526020018280546111ff906119d3565b801561124a5780601f106112215761010080835404028352916020019161124a565b820191905f5260205f20905b81548152906001019060200180831161122d57829003601f168201915b505050505081526020016002820154815260200160038201805461126d906119d3565b80601f0160208091040260200160405190810160405280929190818152602001828054611299906119d3565b80156112e45780601f106112bb576101008083540402835291602001916112e4565b820191905f5260205f20905b8154815290600101906020018083116112c757829003601f168201915b505050918352505060048201546001600160a01b039081166020830152600590920154909116604090910152949350505050565b805160208183018101805160048252928201919093012091528054610b88906119d3565b600160209081525f92835260409092208151808301840180519281529084019290930191909120915280548190611372906119d3565b80601f016020809104026020016040519081016040528092919081815260200182805461139e906119d3565b80156113e95780601f106113c0576101008083540402835291602001916113e9565b820191905f5260205f20905b8154815290600101906020018083116113cc57829003601f168201915b5050505050908060010180546113fe906119d3565b80601f016020809104026020016040519081016040528092919081815260200182805461142a906119d3565b80156114755780601f1061144c57610100808354040283529160200191611475565b820191905f5260205f20905b81548152906001019060200180831161145857829003601f168201915b505050505090806002015490806003018054611490906119d3565b80601f01602080910402602001604051908101604052809291908181526020018280546114bc906119d3565b80156115075780601f106114de57610100808354040283529160200191611507565b820191905f5260205f20905b8154815290600101906020018083116114ea57829003601f168201915b50505050600483015460059093015491926001600160a01b039081169216905086565b6040518060c0016040528060608152602001606081526020015f8152602001606081526020015f6001600160a01b031681526020015f6001600160a01b031681525090565b80356001600160a01b0381168114611585575f5ffd5b919050565b5f5f6040838503121561159b575f5ffd5b6115a48361156f565b946020939093013593505050565b5f81518084528060208401602086015e5f602082860101526020601f19601f83011685010191505092915050565b6001600160a01b03831681526040602082018190525f90611603908301846115b2565b949350505050565b5f6020828403121561161b575f5ffd5b6116248261156f565b9392505050565b634e487b7160e01b5f52604160045260245ffd5b5f82601f83011261164e575f5ffd5b813567ffffffffffffffff8111156116685761166861162b565b604051601f8201601f19908116603f0116810167ffffffffffffffff811182821017156116975761169761162b565b6040528181528382016020018510156116ae575f5ffd5b816020850160208301375f918101602001919091529392505050565b5f5f604083850312156116db575f5ffd5b6116e48361156f565b9150602083013567ffffffffffffffff8111156116ff575f5ffd5b61170b8582860161163f565b9150509250929050565b5f815160c0845261172960c08501826115b2565b90506020830151848203602086015261174282826115b2565b915050604083015160408501526060830151848203606086015261176682826115b2565b6080858101516001600160a01b039081169188019190915260a095860151169590940194909452509092915050565b602081525f6116246020830184611715565b5f602082016020835280845180835260408501915060408160051b8601019250602086015f5b828110156117fe57603f198786030184526117e9858351611715565b945060209384019391909101906001016117cd565b50929695505050505050565b5f602082016020835280845180835260408501915060408160051b8601019250602086015f5b828110156117fe57603f1987860301845261184c8583516115b2565b94506020938401939190910190600101611830565b602081525f61162460208301846115b2565b5f5f5f5f5f60a08688031215611887575f5ffd5b853567ffffffffffffffff81111561189d575f5ffd5b6118a98882890161163f565b9550506118b86020870161156f565b9350604086013567ffffffffffffffff8111156118d3575f5ffd5b6118df8882890161163f565b935050606086013567ffffffffffffffff8111156118fb575f5ffd5b6119078882890161163f565b925050608086013567ffffffffffffffff811115611923575f5ffd5b61192f8882890161163f565b9150509295509295909350565b5f6020828403121561194c575f5ffd5b813567ffffffffffffffff811115611962575f5ffd5b6116038482850161163f565b60c081525f61198060c08301896115b2565b828103602084015261199281896115b2565b905086604084015282810360608401526119ac81876115b2565b6001600160a01b0395861660808501529390941660a0909201919091525095945050505050565b600181811c908216806119e757607f821691505b602082108103611a0557634e487b7160e01b5f52602260045260245ffd5b50919050565b5f82518060208501845e5f920191825250919050565b634e487b7160e01b5f52603260045260245ffd5b601f821115611a7c57805f5260205f20601f840160051c81016020851015611a5a5750805b601f840160051c820191505b81811015611a79575f8155600101611a66565b50505b505050565b815167ffffffffffffffff811115611a9b57611a9b61162b565b611aaf81611aa984546119d3565b84611a35565b6020601f821160018114611ae1575f8315611aca5750848201515b5f19600385901b1c1916600184901b178455611a79565b5f84815260208120601f198516915b82811015611b105787850151825560209485019460019092019101611af0565b5084821015611b2d57868401515f19600387901b60f8161c191681555b50505050600190811b0190555056fea2646970667358221220c9a43864a5f6625429b06da7ff54d7e2e81b9b5abc1187abc6109ed158c3483a64736f6c634300081e0033",
			"opcodes": "PUSH1 0xA0 PUSH1 0x40 MSTORE CALLVALUE DUP1 ISZERO PUSH1 0xE JUMPI PUSH0 PUSH0 REVERT JUMPDEST POP PUSH1 0x40 MLOAD PUSH2 0x1BFE CODESIZE SUB DUP1 PUSH2 0x1BFE DUP4 CODECOPY DUP2 ADD PUSH1 0x40 DUP2 SWAP1 MSTORE PUSH1 0x2B SWAP2 PUSH1 0x3B JUMP JUMPDEST PUSH1 0x1 PUSH1 0x1 PUSH1 0xA0 SHL SUB AND PUSH1 0x80 MSTORE PUSH1 0x66 JUMP JUMPDEST PUSH0 PUSH1 0x20 DUP3 DUP5 SUB SLT ISZERO PUSH1 0x4A JUMPI PUSH0 PUSH0 REVERT JUMPDEST DUP2 MLOAD PUSH1 0x1 PUSH1 0x1 PUSH1 0xA0 SHL SUB DUP2 AND DUP2 EQ PUSH1 0x5F JUMPI PUSH0 PUSH0 REVERT JUMPDEST SWAP4 SWAP3 POP POP POP JUMP JUMPDEST PUSH1 0x80 MLOAD PUSH2 0x1B72 PUSH2 0x8C PUSH0 CODECOPY PUSH0 DUP2 DUP2 PUSH2 0x251 ADD MSTORE DUP2 DUP2 PUSH2 0x393 ADD MSTORE PUSH2 0xF2A ADD MSTORE PUSH2 0x1B72 PUSH0 RETURN INVALID PUSH1 0x80 PUSH1 0x40 MSTORE CALLVALUE DUP1 ISZERO PUSH2 0xF JUMPI PUSH0 PUSH0 REVERT JUMPDEST POP PUSH1 0x4 CALLDATASIZE LT PUSH2 0xE5 JUMPI PUSH0 CALLDATALOAD PUSH1 0xE0 SHR DUP1 PUSH4 0x76978529 GT PUSH2 0x88 JUMPI DUP1 PUSH4 0xC05C5E94 GT PUSH2 0x63 JUMPI DUP1 PUSH4 0xC05C5E94 EQ PUSH2 0x24C JUMPI DUP1 PUSH4 0xC57EFC5D EQ PUSH2 0x273 JUMPI DUP1 PUSH4 0xD28ADB23 EQ PUSH2 0x286 JUMPI DUP1 PUSH4 0xDBD30262 EQ PUSH2 0x299 JUMPI PUSH0 PUSH0 REVERT JUMPDEST DUP1 PUSH4 0x76978529 EQ PUSH2 0x1DA JUMPI DUP1 PUSH4 0x9B7C79A2 EQ PUSH2 0x1ED JUMPI DUP1 PUSH4 0xBD4D8BCB EQ PUSH2 0x239 JUMPI PUSH0 PUSH0 REVERT JUMPDEST DUP1 PUSH4 0x2F4B5AD3 GT PUSH2 0xC3 JUMPI DUP1 PUSH4 0x2F4B5AD3 EQ PUSH2 0x15A JUMPI DUP1 PUSH4 0x45117177 EQ PUSH2 0x17A JUMPI DUP1 PUSH4 0x4E83E59A EQ PUSH2 0x19A JUMPI DUP1 PUSH4 0x55BEDCBB EQ PUSH2 0x1BA JUMPI PUSH0 PUSH0 REVERT JUMPDEST DUP1 PUSH4 0xDD308CD EQ PUSH2 0xE9 JUMPI DUP1 PUSH4 0x16B784FE EQ PUSH2 0x113 JUMPI DUP1 PUSH4 0x1C67494E EQ PUSH2 0x145 JUMPI JUMPDEST PUSH0 PUSH0 REVERT JUMPDEST PUSH2 0xFC PUSH2 0xF7 CALLDATASIZE PUSH1 0x4 PUSH2 0x158A JUMP JUMPDEST PUSH2 0x2BE JUMP JUMPDEST PUSH1 0x40 MLOAD PUSH2 0x10A SWAP3 SWAP2 SWAP1 PUSH2 0x15E0 JUMP JUMPDEST PUSH1 0x40 MLOAD DUP1 SWAP2 SUB SWAP1 RETURN JUMPDEST PUSH2 0x135 PUSH2 0x121 CALLDATASIZE PUSH1 0x4 PUSH2 0x160B JUMP JUMPDEST PUSH0 PUSH1 0x20 DUP2 SWAP1 MSTORE SWAP1 DUP2 MSTORE PUSH1 0x40 SWAP1 KECCAK256 SLOAD PUSH1 0xFF AND DUP2 JUMP JUMPDEST PUSH1 0x40 MLOAD SWAP1 ISZERO ISZERO DUP2 MSTORE PUSH1 0x20 ADD PUSH2 0x10A JUMP JUMPDEST PUSH2 0x158 PUSH2 0x153 CALLDATASIZE PUSH1 0x4 PUSH2 0x160B JUMP JUMPDEST PUSH2 0x388 JUMP JUMPDEST STOP JUMPDEST PUSH2 0x16D PUSH2 0x168 CALLDATASIZE PUSH1 0x4 PUSH2 0x16CA JUMP JUMPDEST PUSH2 0x43E JUMP JUMPDEST PUSH1 0x40 MLOAD PUSH2 0x10A SWAP2 SWAP1 PUSH2 0x1795 JUMP JUMPDEST PUSH2 0x18D PUSH2 0x188 CALLDATASIZE PUSH1 0x4 PUSH2 0x160B JUMP JUMPDEST PUSH2 0x668 JUMP JUMPDEST PUSH1 0x40 MLOAD PUSH2 0x10A SWAP2 SWAP1 PUSH2 0x17A7 JUMP JUMPDEST PUSH2 0x1AD PUSH2 0x1A8 CALLDATASIZE PUSH1 0x4 PUSH2 0x160B JUMP JUMPDEST PUSH2 0xA6C JUMP JUMPDEST PUSH1 0x40 MLOAD PUSH2 0x10A SWAP2 SWAP1 PUSH2 0x180A JUMP JUMPDEST PUSH2 0x1CD PUSH2 0x1C8 CALLDATASIZE PUSH1 0x4 PUSH2 0x158A JUMP JUMPDEST PUSH2 0xB56 JUMP JUMPDEST PUSH1 0x40 MLOAD PUSH2 0x10A SWAP2 SWAP1 PUSH2 0x1861 JUMP JUMPDEST PUSH2 0x158 PUSH2 0x1E8 CALLDATASIZE PUSH1 0x4 PUSH2 0x1873 JUMP JUMPDEST PUSH2 0xC07 JUMP JUMPDEST PUSH2 0x221 PUSH2 0x1FB CALLDATASIZE PUSH1 0x4 PUSH2 0x193C JUMP JUMPDEST DUP1 MLOAD PUSH1 0x20 DUP2 DUP4 ADD DUP2 ADD DUP1 MLOAD PUSH1 0x3 DUP3 MSTORE SWAP3 DUP3 ADD SWAP2 SWAP1 SWAP4 ADD KECCAK256 SWAP2 MSTORE SLOAD PUSH1 0x1 PUSH1 0x1 PUSH1 0xA0 SHL SUB AND DUP2 JUMP JUMPDEST PUSH1 0x40 MLOAD PUSH1 0x1 PUSH1 0x1 PUSH1 0xA0 SHL SUB SWAP1 SWAP2 AND DUP2 MSTORE PUSH1 0x20 ADD PUSH2 0x10A JUMP JUMPDEST PUSH2 0x158 PUSH2 0x247 CALLDATASIZE PUSH1 0x4 PUSH2 0x160B JUMP JUMPDEST PUSH2 0xF1F JUMP JUMPDEST PUSH2 0x221 PUSH32 0x0 DUP2 JUMP JUMPDEST PUSH2 0x16D PUSH2 0x281 CALLDATASIZE PUSH1 0x4 PUSH2 0x193C JUMP JUMPDEST PUSH2 0xFD3 JUMP JUMPDEST PUSH2 0x1CD PUSH2 0x294 CALLDATASIZE PUSH1 0x4 PUSH2 0x193C JUMP JUMPDEST PUSH2 0x1318 JUMP JUMPDEST PUSH2 0x2AC PUSH2 0x2A7 CALLDATASIZE PUSH1 0x4 PUSH2 0x16CA JUMP JUMPDEST PUSH2 0x133C JUMP JUMPDEST PUSH1 0x40 MLOAD PUSH2 0x10A SWAP7 SWAP6 SWAP5 SWAP4 SWAP3 SWAP2 SWAP1 PUSH2 0x196E JUMP JUMPDEST PUSH1 0x5 PUSH1 0x20 MSTORE DUP2 PUSH0 MSTORE PUSH1 0x40 PUSH0 KECCAK256 DUP2 DUP2 SLOAD DUP2 LT PUSH2 0x2D7 JUMPI PUSH0 DUP1 REVERT JUMPDEST PUSH0 SWAP2 DUP3 MSTORE PUSH1 0x20 SWAP1 SWAP2 KECCAK256 PUSH1 0x2 SWAP1 SWAP2 MUL ADD DUP1 SLOAD PUSH1 0x1 DUP3 ADD DUP1 SLOAD PUSH1 0x1 PUSH1 0x1 PUSH1 0xA0 SHL SUB SWAP1 SWAP3 AND SWAP5 POP SWAP2 SWAP3 POP PUSH2 0x307 SWAP1 PUSH2 0x19D3 JUMP JUMPDEST DUP1 PUSH1 0x1F ADD PUSH1 0x20 DUP1 SWAP2 DIV MUL PUSH1 0x20 ADD PUSH1 0x40 MLOAD SWAP1 DUP2 ADD PUSH1 0x40 MSTORE DUP1 SWAP3 SWAP2 SWAP1 DUP2 DUP2 MSTORE PUSH1 0x20 ADD DUP3 DUP1 SLOAD PUSH2 0x333 SWAP1 PUSH2 0x19D3 JUMP JUMPDEST DUP1 ISZERO PUSH2 0x37E JUMPI DUP1 PUSH1 0x1F LT PUSH2 0x355 JUMPI PUSH2 0x100 DUP1 DUP4 SLOAD DIV MUL DUP4 MSTORE SWAP2 PUSH1 0x20 ADD SWAP2 PUSH2 0x37E JUMP JUMPDEST DUP3 ADD SWAP2 SWAP1 PUSH0 MSTORE PUSH1 0x20 PUSH0 KECCAK256 SWAP1 JUMPDEST DUP2 SLOAD DUP2 MSTORE SWAP1 PUSH1 0x1 ADD SWAP1 PUSH1 0x20 ADD DUP1 DUP4 GT PUSH2 0x361 JUMPI DUP3 SWAP1 SUB PUSH1 0x1F AND DUP3 ADD SWAP2 JUMPDEST POP POP POP POP POP SWAP1 POP DUP3 JUMP JUMPDEST CALLER PUSH1 0x1 PUSH1 0x1 PUSH1 0xA0 SHL SUB PUSH32 0x0 AND EQ PUSH2 0x3F6 JUMPI PUSH1 0x40 MLOAD PUSH3 0x461BCD PUSH1 0xE5 SHL DUP2 MSTORE PUSH1 0x20 PUSH1 0x4 DUP3 ADD MSTORE PUSH1 0xE PUSH1 0x24 DUP3 ADD MSTORE PUSH14 0x139BDD08185D5D1A1BDC9A5E9959 PUSH1 0x92 SHL PUSH1 0x44 DUP3 ADD MSTORE PUSH1 0x64 ADD JUMPDEST PUSH1 0x40 MLOAD DUP1 SWAP2 SUB SWAP1 REVERT JUMPDEST PUSH1 0x1 PUSH1 0x1 PUSH1 0xA0 SHL SUB DUP2 AND PUSH0 DUP2 DUP2 MSTORE PUSH1 0x20 DUP2 SWAP1 MSTORE PUSH1 0x40 DUP1 DUP3 KECCAK256 DUP1 SLOAD PUSH1 0xFF NOT AND SWAP1 SSTORE MLOAD PUSH32 0x5F2C961A0DB2D72FA01BFAE36AACA642457678D9C63ADACA86C8CB1B3D1230F4 SWAP2 SWAP1 LOG2 POP JUMP JUMPDEST PUSH2 0x446 PUSH2 0x152A JUMP JUMPDEST PUSH1 0x1 PUSH1 0x1 PUSH1 0xA0 SHL SUB DUP4 AND PUSH0 SWAP1 DUP2 MSTORE PUSH1 0x1 PUSH1 0x20 MSTORE PUSH1 0x40 SWAP1 DUP2 SWAP1 KECCAK256 SWAP1 MLOAD PUSH2 0x46C SWAP1 DUP5 SWAP1 PUSH2 0x1A0B JUMP JUMPDEST SWAP1 DUP2 MSTORE PUSH1 0x20 ADD PUSH1 0x40 MLOAD DUP1 SWAP2 SUB SWAP1 KECCAK256 PUSH1 0x40 MLOAD DUP1 PUSH1 0xC0 ADD PUSH1 0x40 MSTORE SWAP1 DUP2 PUSH0 DUP3 ADD DUP1 SLOAD PUSH2 0x494 SWAP1 PUSH2 0x19D3 JUMP JUMPDEST DUP1 PUSH1 0x1F ADD PUSH1 0x20 DUP1 SWAP2 DIV MUL PUSH1 0x20 ADD PUSH1 0x40 MLOAD SWAP1 DUP2 ADD PUSH1 0x40 MSTORE DUP1 SWAP3 SWAP2 SWAP1 DUP2 DUP2 MSTORE PUSH1 0x20 ADD DUP3 DUP1 SLOAD PUSH2 0x4C0 SWAP1 PUSH2 0x19D3 JUMP JUMPDEST DUP1 ISZERO PUSH2 0x50B JUMPI DUP1 PUSH1 0x1F LT PUSH2 0x4E2 JUMPI PUSH2 0x100 DUP1 DUP4 SLOAD DIV MUL DUP4 MSTORE SWAP2 PUSH1 0x20 ADD SWAP2 PUSH2 0x50B JUMP JUMPDEST DUP3 ADD SWAP2 SWAP1 PUSH0 MSTORE PUSH1 0x20 PUSH0 KECCAK256 SWAP1 JUMPDEST DUP2 SLOAD DUP2 MSTORE SWAP1 PUSH1 0x1 ADD SWAP1 PUSH1 0x20 ADD DUP1 DUP4 GT PUSH2 0x4EE JUMPI DUP3 SWAP1 SUB PUSH1 0x1F AND DUP3 ADD SWAP2 JUMPDEST POP POP POP POP POP DUP2 MSTORE PUSH1 0x20 ADD PUSH1 0x1 DUP3 ADD DUP1 SLOAD PUSH2 0x524 SWAP1 PUSH2 0x19D3 JUMP JUMPDEST DUP1 PUSH1 0x1F ADD PUSH1 0x20 DUP1 SWAP2 DIV MUL PUSH1 0x20 ADD PUSH1 0x40 MLOAD SWAP1 DUP2 ADD PUSH1 0x40 MSTORE DUP1 SWAP3 SWAP2 SWAP1 DUP2 DUP2 MSTORE PUSH1 0x20 ADD DUP3 DUP1 SLOAD PUSH2 0x550 SWAP1 PUSH2 0x19D3 JUMP JUMPDEST DUP1 ISZERO PUSH2 0x59B JUMPI DUP1 PUSH1 0x1F LT PUSH2 0x572 JUMPI PUSH2 0x100 DUP1 DUP4 SLOAD DIV MUL DUP4 MSTORE SWAP2 PUSH1 0x20 ADD SWAP2 PUSH2 0x59B JUMP JUMPDEST DUP3 ADD SWAP2 SWAP1 PUSH0 MSTORE PUSH1 0x20 PUSH0 KECCAK256 SWAP1 JUMPDEST DUP2 SLOAD DUP2 MSTORE SWAP1 PUSH1 0x1 ADD SWAP1 PUSH1 0x20 ADD DUP1 DUP4 GT PUSH2 0x57E JUMPI DUP3 SWAP1 SUB PUSH1 0x1F AND DUP3 ADD SWAP2 JUMPDEST POP POP POP POP POP DUP2 MSTORE PUSH1 0x20 ADD PUSH1 0x2 DUP3 ADD SLOAD DUP2 MSTORE PUSH1 0x20 ADD PUSH1 0x3 DUP3 ADD DUP1 SLOAD PUSH2 0x5BE SWAP1 PUSH2 0x19D3 JUMP JUMPDEST DUP1 PUSH1 0x1F ADD PUSH1 0x20 DUP1 SWAP2 DIV MUL PUSH1 0x20 ADD PUSH1 0x40 MLOAD SWAP1 DUP2 ADD PUSH1 0x40 MSTORE DUP1 SWAP3 SWAP2 SWAP1 DUP2 DUP2 MSTORE PUSH1 0x20 ADD DUP3 DUP1 SLOAD PUSH2 0x5EA SWAP1 PUSH2 0x19D3 JUMP JUMPDEST DUP1 ISZERO PUSH2 0x635 JUMPI DUP1 PUSH1 0x1F LT PUSH2 0x60C JUMPI PUSH2 0x100 DUP1 DUP4 SLOAD DIV MUL DUP4 MSTORE SWAP2 PUSH1 0x20 ADD SWAP2 PUSH2 0x635 JUMP JUMPDEST DUP3 ADD SWAP2 SWAP1 PUSH0 MSTORE PUSH1 0x20 PUSH0 KECCAK256 SWAP1 JUMPDEST DUP2 SLOAD DUP2 MSTORE SWAP1 PUSH1 0x1 ADD SWAP1 PUSH1 0x20 ADD DUP1 DUP4 GT PUSH2 0x618 JUMPI DUP3 SWAP1 SUB PUSH1 0x1F AND DUP3 ADD SWAP2 JUMPDEST POP POP POP SWAP2 DUP4 MSTORE POP POP PUSH1 0x4 DUP3 ADD SLOAD PUSH1 0x1 PUSH1 0x1 PUSH1 0xA0 SHL SUB SWAP1 DUP2 AND PUSH1 0x20 DUP4 ADD MSTORE PUSH1 0x5 SWAP1 SWAP3 ADD SLOAD SWAP1 SWAP2 AND PUSH1 0x40 SWAP1 SWAP2 ADD MSTORE SWAP4 SWAP3 POP POP POP JUMP JUMPDEST PUSH1 0x1 PUSH1 0x1 PUSH1 0xA0 SHL SUB DUP2 AND PUSH0 SWAP1 DUP2 MSTORE PUSH1 0x5 PUSH1 0x20 SWAP1 DUP2 MSTORE PUSH1 0x40 DUP1 DUP4 KECCAK256 DUP1 SLOAD DUP3 MLOAD DUP2 DUP6 MUL DUP2 ADD DUP6 ADD SWAP1 SWAP4 MSTORE DUP1 DUP4 MSTORE PUSH1 0x60 SWAP5 SWAP4 DUP5 SWAP1 DUP5 ADD JUMPDEST DUP3 DUP3 LT ISZERO PUSH2 0x772 JUMPI PUSH0 DUP5 DUP2 MSTORE PUSH1 0x20 SWAP1 DUP2 SWAP1 KECCAK256 PUSH1 0x40 DUP1 MLOAD DUP1 DUP3 ADD SWAP1 SWAP2 MSTORE PUSH1 0x2 DUP6 MUL SWAP1 SWAP2 ADD DUP1 SLOAD PUSH1 0x1 PUSH1 0x1 PUSH1 0xA0 SHL SUB AND DUP3 MSTORE PUSH1 0x1 DUP2 ADD DUP1 SLOAD SWAP3 SWAP4 SWAP2 SWAP3 SWAP2 DUP5 ADD SWAP2 PUSH2 0x6E3 SWAP1 PUSH2 0x19D3 JUMP JUMPDEST DUP1 PUSH1 0x1F ADD PUSH1 0x20 DUP1 SWAP2 DIV MUL PUSH1 0x20 ADD PUSH1 0x40 MLOAD SWAP1 DUP2 ADD PUSH1 0x40 MSTORE DUP1 SWAP3 SWAP2 SWAP1 DUP2 DUP2 MSTORE PUSH1 0x20 ADD DUP3 DUP1 SLOAD PUSH2 0x70F SWAP1 PUSH2 0x19D3 JUMP JUMPDEST DUP1 ISZERO PUSH2 0x75A JUMPI DUP1 PUSH1 0x1F LT PUSH2 0x731 JUMPI PUSH2 0x100 DUP1 DUP4 SLOAD DIV MUL DUP4 MSTORE SWAP2 PUSH1 0x20 ADD SWAP2 PUSH2 0x75A JUMP JUMPDEST DUP3 ADD SWAP2 SWAP1 PUSH0 MSTORE PUSH1 0x20 PUSH0 KECCAK256 SWAP1 JUMPDEST DUP2 SLOAD DUP2 MSTORE SWAP1 PUSH1 0x1 ADD SWAP1 PUSH1 0x20 ADD DUP1 DUP4 GT PUSH2 0x73D JUMPI DUP3 SWAP1 SUB PUSH1 0x1F AND DUP3 ADD SWAP2 JUMPDEST POP POP POP POP POP DUP2 MSTORE POP POP DUP2 MSTORE PUSH1 0x20 ADD SWAP1 PUSH1 0x1 ADD SWAP1 PUSH2 0x69C JUMP JUMPDEST POP POP POP POP SWAP1 POP PUSH0 DUP2 MLOAD PUSH8 0xFFFFFFFFFFFFFFFF DUP2 GT ISZERO PUSH2 0x793 JUMPI PUSH2 0x793 PUSH2 0x162B JUMP JUMPDEST PUSH1 0x40 MLOAD SWAP1 DUP1 DUP3 MSTORE DUP1 PUSH1 0x20 MUL PUSH1 0x20 ADD DUP3 ADD PUSH1 0x40 MSTORE DUP1 ISZERO PUSH2 0x7CC JUMPI DUP2 PUSH1 0x20 ADD JUMPDEST PUSH2 0x7B9 PUSH2 0x152A JUMP JUMPDEST DUP2 MSTORE PUSH1 0x20 ADD SWAP1 PUSH1 0x1 SWAP1 SUB SWAP1 DUP2 PUSH2 0x7B1 JUMPI SWAP1 POP JUMPDEST POP DUP3 MLOAD SWAP1 SWAP2 POP PUSH0 JUMPDEST DUP2 DUP2 LT ISZERO PUSH2 0xA62 JUMPI PUSH1 0x1 PUSH0 DUP6 DUP4 DUP2 MLOAD DUP2 LT PUSH2 0x7F1 JUMPI PUSH2 0x7F1 PUSH2 0x1A21 JUMP JUMPDEST PUSH1 0x20 MUL PUSH1 0x20 ADD ADD MLOAD PUSH0 ADD MLOAD PUSH1 0x1 PUSH1 0x1 PUSH1 0xA0 SHL SUB AND PUSH1 0x1 PUSH1 0x1 PUSH1 0xA0 SHL SUB AND DUP2 MSTORE PUSH1 0x20 ADD SWAP1 DUP2 MSTORE PUSH1 0x20 ADD PUSH0 KECCAK256 DUP5 DUP3 DUP2 MLOAD DUP2 LT PUSH2 0x82D JUMPI PUSH2 0x82D PUSH2 0x1A21 JUMP JUMPDEST PUSH1 0x20 MUL PUSH1 0x20 ADD ADD MLOAD PUSH1 0x20 ADD MLOAD PUSH1 0x40 MLOAD PUSH2 0x846 SWAP2 SWAP1 PUSH2 0x1A0B JUMP JUMPDEST SWAP1 DUP2 MSTORE PUSH1 0x20 ADD PUSH1 0x40 MLOAD DUP1 SWAP2 SUB SWAP1 KECCAK256 PUSH1 0x40 MLOAD DUP1 PUSH1 0xC0 ADD PUSH1 0x40 MSTORE SWAP1 DUP2 PUSH0 DUP3 ADD DUP1 SLOAD PUSH2 0x86E SWAP1 PUSH2 0x19D3 JUMP JUMPDEST DUP1 PUSH1 0x1F ADD PUSH1 0x20 DUP1 SWAP2 DIV MUL PUSH1 0x20 ADD PUSH1 0x40 MLOAD SWAP1 DUP2 ADD PUSH1 0x40 MSTORE DUP1 SWAP3 SWAP2 SWAP1 DUP2 DUP2 MSTORE PUSH1 0x20 ADD DUP3 DUP1 SLOAD PUSH2 0x89A SWAP1 PUSH2 0x19D3 JUMP JUMPDEST DUP1 ISZERO PUSH2 0x8E5 JUMPI DUP1 PUSH1 0x1F LT PUSH2 0x8BC JUMPI PUSH2 0x100 DUP1 DUP4 SLOAD DIV MUL DUP4 MSTORE SWAP2 PUSH1 0x20 ADD SWAP2 PUSH2 0x8E5 JUMP JUMPDEST DUP3 ADD SWAP2 SWAP1 PUSH0 MSTORE PUSH1 0x20 PUSH0 KECCAK256 SWAP1 JUMPDEST DUP2 SLOAD DUP2 MSTORE SWAP1 PUSH1 0x1 ADD SWAP1 PUSH1 0x20 ADD DUP1 DUP4 GT PUSH2 0x8C8 JUMPI DUP3 SWAP1 SUB PUSH1 0x1F AND DUP3 ADD SWAP2 JUMPDEST POP POP POP POP POP DUP2 MSTORE PUSH1 0x20 ADD PUSH1 0x1 DUP3 ADD DUP1 SLOAD PUSH2 0x8FE SWAP1 PUSH2 0x19D3 JUMP JUMPDEST DUP1 PUSH1 0x1F ADD PUSH1 0x20 DUP1 SWAP2 DIV MUL PUSH1 0x20 ADD PUSH1 0x40 MLOAD SWAP1 DUP2 ADD PUSH1 0x40 MSTORE DUP1 SWAP3 SWAP2 SWAP1 DUP2 DUP2 MSTORE PUSH1 0x20 ADD DUP3 DUP1 SLOAD PUSH2 0x92A SWAP1 PUSH2 0x19D3 JUMP JUMPDEST DUP1 ISZERO PUSH2 0x975 JUMPI DUP1 PUSH1 0x1F LT PUSH2 0x94C JUMPI PUSH2 0x100 DUP1 DUP4 SLOAD DIV MUL DUP4 MSTORE SWAP2 PUSH1 0x20 ADD SWAP2 PUSH2 0x975 JUMP JUMPDEST DUP3 ADD SWAP2 SWAP1 PUSH0 MSTORE PUSH1 0x20 PUSH0 KECCAK256 SWAP1 JUMPDEST DUP2 SLOAD DUP2 MSTORE SWAP1 PUSH1 0x1 ADD SWAP1 PUSH1 0x20 ADD DUP1 DUP4 GT PUSH2 0x958 JUMPI DUP3 SWAP1 SUB PUSH1 0x1F AND DUP3 ADD SWAP2 JUMPDEST POP POP POP POP POP DUP2 MSTORE PUSH1 0x20 ADD PUSH1 0x2 DUP3 ADD SLOAD DUP2 MSTORE PUSH1 0x20 ADD PUSH1 0x3 DUP3 ADD DUP1 SLOAD PUSH2 0x998 SWAP1 PUSH2 0x19D3 JUMP JUMPDEST DUP1 PUSH1 0x1F ADD PUSH1 0x20 DUP1 SWAP2 DIV MUL PUSH1 0x20 ADD PUSH1 0x40 MLOAD SWAP1 DUP2 ADD PUSH1 0x40 MSTORE DUP1 SWAP3 SWAP2 SWAP1 DUP2 DUP2 MSTORE PUSH1 0x20 ADD DUP3 DUP1 SLOAD PUSH2 0x9C4 SWAP1 PUSH2 0x19D3 JUMP JUMPDEST DUP1 ISZERO PUSH2 0xA0F JUMPI DUP1 PUSH1 0x1F LT PUSH2 0x9E6 JUMPI PUSH2 0x100 DUP1 DUP4 SLOAD DIV MUL DUP4 MSTORE SWAP2 PUSH1 0x20 ADD SWAP2 PUSH2 0xA0F JUMP JUMPDEST DUP3 ADD SWAP2 SWAP1 PUSH0 MSTORE PUSH1 0x20 PUSH0 KECCAK256 SWAP1 JUMPDEST DUP2 SLOAD DUP2 MSTORE SWAP1 PUSH1 0x1 ADD SWAP1 PUSH1 0x20 ADD DUP1 DUP4 GT PUSH2 0x9F2 JUMPI DUP3 SWAP1 SUB PUSH1 0x1F AND DUP3 ADD SWAP2 JUMPDEST POP POP POP SWAP2 DUP4 MSTORE POP POP PUSH1 0x4 DUP3 ADD SLOAD PUSH1 0x1 PUSH1 0x1 PUSH1 0xA0 SHL SUB SWAP1 DUP2 AND PUSH1 0x20 DUP4 ADD MSTORE PUSH1 0x5 SWAP1 SWAP3 ADD SLOAD SWAP1 SWAP2 AND PUSH1 0x40 SWAP1 SWAP2 ADD MSTORE DUP4 MLOAD DUP5 SWAP1 DUP4 SWAP1 DUP2 LT PUSH2 0xA4F JUMPI PUSH2 0xA4F PUSH2 0x1A21 JUMP JUMPDEST PUSH1 0x20 SWAP1 DUP2 MUL SWAP2 SWAP1 SWAP2 ADD ADD MSTORE PUSH1 0x1 ADD PUSH2 0x7D4 JUMP JUMPDEST POP SWAP1 SWAP5 SWAP4 POP POP POP POP JUMP JUMPDEST PUSH1 0x1 PUSH1 0x1 PUSH1 0xA0 SHL SUB DUP2 AND PUSH0 SWAP1 DUP2 MSTORE PUSH1 0x2 PUSH1 0x20 SWAP1 DUP2 MSTORE PUSH1 0x40 DUP1 DUP4 KECCAK256 DUP1 SLOAD DUP3 MLOAD DUP2 DUP6 MUL DUP2 ADD DUP6 ADD SWAP1 SWAP4 MSTORE DUP1 DUP4 MSTORE PUSH1 0x60 SWAP5 SWAP3 SWAP4 SWAP2 SWAP3 SWAP1 SWAP2 DUP5 ADD JUMPDEST DUP3 DUP3 LT ISZERO PUSH2 0xB4B JUMPI DUP4 DUP3 SWAP1 PUSH0 MSTORE PUSH1 0x20 PUSH0 KECCAK256 ADD DUP1 SLOAD PUSH2 0xAC0 SWAP1 PUSH2 0x19D3 JUMP JUMPDEST DUP1 PUSH1 0x1F ADD PUSH1 0x20 DUP1 SWAP2 DIV MUL PUSH1 0x20 ADD PUSH1 0x40 MLOAD SWAP1 DUP2 ADD PUSH1 0x40 MSTORE DUP1 SWAP3 SWAP2 SWAP1 DUP2 DUP2 MSTORE PUSH1 0x20 ADD DUP3 DUP1 SLOAD PUSH2 0xAEC SWAP1 PUSH2 0x19D3 JUMP JUMPDEST DUP1 ISZERO PUSH2 0xB37 JUMPI DUP1 PUSH1 0x1F LT PUSH2 0xB0E JUMPI PUSH2 0x100 DUP1 DUP4 SLOAD DIV MUL DUP4 MSTORE SWAP2 PUSH1 0x20 ADD SWAP2 PUSH2 0xB37 JUMP JUMPDEST DUP3 ADD SWAP2 SWAP1 PUSH0 MSTORE PUSH1 0x20 PUSH0 KECCAK256 SWAP1 JUMPDEST DUP2 SLOAD DUP2 MSTORE SWAP1 PUSH1 0x1 ADD SWAP1 PUSH1 0x20 ADD DUP1 DUP4 GT PUSH2 0xB1A JUMPI DUP3 SWAP1 SUB PUSH1 0x1F AND DUP3 ADD SWAP2 JUMPDEST POP POP POP POP POP DUP2 MSTORE PUSH1 0x20 ADD SWAP1 PUSH1 0x1 ADD SWAP1 PUSH2 0xAA3 JUMP JUMPDEST POP POP POP POP SWAP1 POP SWAP2 SWAP1 POP JUMP JUMPDEST PUSH1 0x2 PUSH1 0x20 MSTORE DUP2 PUSH0 MSTORE PUSH1 0x40 PUSH0 KECCAK256 DUP2 DUP2 SLOAD DUP2 LT PUSH2 0xB6F JUMPI PUSH0 DUP1 REVERT JUMPDEST SWAP1 PUSH0 MSTORE PUSH1 0x20 PUSH0 KECCAK256 ADD PUSH0 SWAP2 POP SWAP2 POP POP DUP1 SLOAD PUSH2 0xB88 SWAP1 PUSH2 0x19D3 JUMP JUMPDEST DUP1 PUSH1 0x1F ADD PUSH1 0x20 DUP1 SWAP2 DIV MUL PUSH1 0x20 ADD PUSH1 0x40 MLOAD SWAP1 DUP2 ADD PUSH1 0x40 MSTORE DUP1 SWAP3 SWAP2 SWAP1 DUP2 DUP2 MSTORE PUSH1 0x20 ADD DUP3 DUP1 SLOAD PUSH2 0xBB4 SWAP1 PUSH2 0x19D3 JUMP JUMPDEST DUP1 ISZERO PUSH2 0xBFF JUMPI DUP1 PUSH1 0x1F LT PUSH2 0xBD6 JUMPI PUSH2 0x100 DUP1 DUP4 SLOAD DIV MUL DUP4 MSTORE SWAP2 PUSH1 0x20 ADD SWAP2 PUSH2 0xBFF JUMP JUMPDEST DUP3 ADD SWAP2 SWAP1 PUSH0 MSTORE PUSH1 0x20 PUSH0 KECCAK256 SWAP1 JUMPDEST DUP2 SLOAD DUP2 MSTORE SWAP1 PUSH1 0x1 ADD SWAP1 PUSH1 0x20 ADD DUP1 DUP4 GT PUSH2 0xBE2 JUMPI DUP3 SWAP1 SUB PUSH1 0x1F AND DUP3 ADD SWAP2 JUMPDEST POP POP POP POP POP DUP2 JUMP JUMPDEST CALLER PUSH0 SWAP1 DUP2 MSTORE PUSH1 0x20 DUP2 SWAP1 MSTORE PUSH1 0x40 SWAP1 KECCAK256 SLOAD PUSH1 0xFF AND PUSH2 0xC65 JUMPI PUSH1 0x40 MLOAD PUSH3 0x461BCD PUSH1 0xE5 SHL DUP2 MSTORE PUSH1 0x20 PUSH1 0x4 DUP3 ADD MSTORE PUSH1 0x1A PUSH1 0x24 DUP3 ADD MSTORE PUSH32 0x496E737469747574696F6E206E6F7420617574686F72697A6564000000000000 PUSH1 0x44 DUP3 ADD MSTORE PUSH1 0x64 ADD PUSH2 0x3ED JUMP JUMPDEST CALLER PUSH0 SWAP1 DUP2 MSTORE PUSH1 0x1 PUSH1 0x20 MSTORE PUSH1 0x40 SWAP1 DUP2 SWAP1 KECCAK256 SWAP1 MLOAD PUSH2 0xC82 SWAP1 DUP8 SWAP1 PUSH2 0x1A0B JUMP JUMPDEST SWAP1 DUP2 MSTORE PUSH1 0x20 ADD PUSH1 0x40 MLOAD DUP1 SWAP2 SUB SWAP1 KECCAK256 PUSH1 0x1 ADD DUP1 SLOAD PUSH2 0xC9E SWAP1 PUSH2 0x19D3 JUMP JUMPDEST ISZERO SWAP1 POP PUSH2 0xD04 JUMPI PUSH1 0x40 MLOAD PUSH3 0x461BCD PUSH1 0xE5 SHL DUP2 MSTORE PUSH1 0x20 PUSH1 0x4 DUP3 ADD MSTORE PUSH1 0x2E PUSH1 0x24 DUP3 ADD MSTORE PUSH32 0x43726564656E7469616C20494420616C7265616479207573656420627920796F PUSH1 0x44 DUP3 ADD MSTORE PUSH14 0x3AB91034B739BA34BA3ABA34B7B7 PUSH1 0x91 SHL PUSH1 0x64 DUP3 ADD MSTORE PUSH1 0x84 ADD PUSH2 0x3ED JUMP JUMPDEST PUSH1 0x40 DUP1 MLOAD PUSH1 0xC0 DUP2 ADD DUP3 MSTORE DUP5 DUP2 MSTORE PUSH1 0x20 DUP1 DUP3 ADD DUP6 SWAP1 MSTORE TIMESTAMP DUP3 DUP5 ADD MSTORE PUSH1 0x60 DUP3 ADD DUP5 SWAP1 MSTORE CALLER PUSH1 0x80 DUP4 ADD DUP2 SWAP1 MSTORE PUSH1 0x1 PUSH1 0x1 PUSH1 0xA0 SHL SUB DUP9 AND PUSH1 0xA0 DUP5 ADD MSTORE PUSH0 SWAP1 DUP2 MSTORE PUSH1 0x1 SWAP1 SWAP2 MSTORE DUP3 SWAP1 KECCAK256 SWAP2 MLOAD SWAP1 SWAP2 SWAP1 PUSH2 0xD58 SWAP1 DUP9 SWAP1 PUSH2 0x1A0B JUMP JUMPDEST SWAP1 DUP2 MSTORE PUSH1 0x40 MLOAD SWAP1 DUP2 SWAP1 SUB PUSH1 0x20 ADD SWAP1 KECCAK256 DUP2 MLOAD DUP2 SWAP1 PUSH2 0xD75 SWAP1 DUP3 PUSH2 0x1A81 JUMP JUMPDEST POP PUSH1 0x20 DUP3 ADD MLOAD PUSH1 0x1 DUP3 ADD SWAP1 PUSH2 0xD8A SWAP1 DUP3 PUSH2 0x1A81 JUMP JUMPDEST POP PUSH1 0x40 DUP3 ADD MLOAD PUSH1 0x2 DUP3 ADD SSTORE PUSH1 0x60 DUP3 ADD MLOAD PUSH1 0x3 DUP3 ADD SWAP1 PUSH2 0xDA9 SWAP1 DUP3 PUSH2 0x1A81 JUMP JUMPDEST POP PUSH1 0x80 DUP3 ADD MLOAD PUSH1 0x4 DUP3 ADD DUP1 SLOAD PUSH1 0x1 PUSH1 0x1 PUSH1 0xA0 SHL SUB NOT SWAP1 DUP2 AND PUSH1 0x1 PUSH1 0x1 PUSH1 0xA0 SHL SUB SWAP4 DUP5 AND OR SWAP1 SWAP2 SSTORE PUSH1 0xA0 SWAP1 SWAP4 ADD MLOAD PUSH1 0x5 SWAP3 DUP4 ADD DUP1 SLOAD DUP6 AND SWAP2 DUP4 AND SWAP2 SWAP1 SWAP2 OR SWAP1 SSTORE DUP7 DUP2 AND PUSH0 SWAP1 DUP2 MSTORE PUSH1 0x20 SWAP3 DUP4 MSTORE PUSH1 0x40 DUP1 DUP3 KECCAK256 DUP2 MLOAD DUP1 DUP4 ADD SWAP1 SWAP3 MSTORE CALLER DUP3 MSTORE DUP2 DUP6 ADD DUP12 DUP2 MSTORE DUP2 SLOAD PUSH1 0x1 DUP2 DUP2 ADD DUP5 SSTORE SWAP3 DUP6 MSTORE SWAP6 SWAP1 SWAP4 KECCAK256 DUP3 MLOAD PUSH1 0x2 SWAP1 SWAP7 MUL ADD DUP1 SLOAD SWAP1 SWAP7 AND SWAP5 SWAP1 SWAP4 AND SWAP4 SWAP1 SWAP4 OR DUP5 SSTORE MLOAD SWAP2 SWAP3 SWAP2 SWAP1 DUP3 ADD SWAP1 PUSH2 0xE43 SWAP1 DUP3 PUSH2 0x1A81 JUMP JUMPDEST POP POP CALLER PUSH0 SWAP1 DUP2 MSTORE PUSH1 0x2 PUSH1 0x20 SWAP1 DUP2 MSTORE PUSH1 0x40 DUP3 KECCAK256 DUP1 SLOAD PUSH1 0x1 DUP2 ADD DUP3 SSTORE SWAP1 DUP4 MSTORE SWAP2 KECCAK256 ADD SWAP1 POP PUSH2 0xE6F DUP7 DUP3 PUSH2 0x1A81 JUMP JUMPDEST POP DUP5 PUSH1 0x4 DUP3 PUSH1 0x40 MLOAD PUSH2 0xE81 SWAP2 SWAP1 PUSH2 0x1A0B JUMP JUMPDEST SWAP1 DUP2 MSTORE PUSH1 0x20 ADD PUSH1 0x40 MLOAD DUP1 SWAP2 SUB SWAP1 KECCAK256 SWAP1 DUP2 PUSH2 0xE9B SWAP2 SWAP1 PUSH2 0x1A81 JUMP JUMPDEST POP CALLER PUSH1 0x3 DUP3 PUSH1 0x40 MLOAD PUSH2 0xEAD SWAP2 SWAP1 PUSH2 0x1A0B JUMP JUMPDEST SWAP1 DUP2 MSTORE PUSH1 0x40 MLOAD SWAP1 DUP2 SWAP1 SUB PUSH1 0x20 ADD DUP2 KECCAK256 DUP1 SLOAD PUSH1 0x1 PUSH1 0x1 PUSH1 0xA0 SHL SUB SWAP4 DUP5 AND PUSH1 0x1 PUSH1 0x1 PUSH1 0xA0 SHL SUB NOT SWAP1 SWAP2 AND OR SWAP1 SSTORE SWAP1 DUP6 AND SWAP1 CALLER SWAP1 PUSH2 0xEE9 SWAP1 DUP9 SWAP1 PUSH2 0x1A0B JUMP JUMPDEST PUSH1 0x40 MLOAD SWAP1 DUP2 SWAP1 SUB DUP2 KECCAK256 SWAP1 PUSH32 0x754A5531E45CD3B12A4AD1E6573DE002F31131EA821A89FE02613E3E93F99F33 SWAP1 PUSH0 SWAP1 LOG4 POP POP POP POP POP JUMP JUMPDEST CALLER PUSH1 0x1 PUSH1 0x1 PUSH1 0xA0 SHL SUB PUSH32 0x0 AND EQ PUSH2 0xF88 JUMPI PUSH1 0x40 MLOAD PUSH3 0x461BCD PUSH1 0xE5 SHL DUP2 MSTORE PUSH1 0x20 PUSH1 0x4 DUP3 ADD MSTORE PUSH1 0xE PUSH1 0x24 DUP3 ADD MSTORE PUSH14 0x139BDD08185D5D1A1BDC9A5E9959 PUSH1 0x92 SHL PUSH1 0x44 DUP3 ADD MSTORE PUSH1 0x64 ADD PUSH2 0x3ED JUMP JUMPDEST PUSH1 0x1 PUSH1 0x1 PUSH1 0xA0 SHL SUB DUP2 AND PUSH0 DUP2 DUP2 MSTORE PUSH1 0x20 DUP2 SWAP1 MSTORE PUSH1 0x40 DUP1 DUP3 KECCAK256 DUP1 SLOAD PUSH1 0xFF NOT AND PUSH1 0x1 OR SWAP1 SSTORE MLOAD PUSH32 0x2AEF8A157B05C49AAAEEBD094BF2B10B2B90835AF1FD87C288F6EFFA9A6A2434 SWAP2 SWAP1 LOG2 POP JUMP JUMPDEST PUSH2 0xFDB PUSH2 0x152A JUMP JUMPDEST PUSH0 PUSH1 0x3 DUP4 PUSH1 0x40 MLOAD PUSH2 0xFEC SWAP2 SWAP1 PUSH2 0x1A0B JUMP JUMPDEST SWAP1 DUP2 MSTORE PUSH1 0x40 MLOAD SWAP1 DUP2 SWAP1 SUB PUSH1 0x20 ADD SWAP1 KECCAK256 SLOAD PUSH1 0x1 PUSH1 0x1 PUSH1 0xA0 SHL SUB AND SWAP1 POP DUP1 PUSH2 0x104B JUMPI PUSH1 0x40 MLOAD PUSH3 0x461BCD PUSH1 0xE5 SHL DUP2 MSTORE PUSH1 0x20 PUSH1 0x4 DUP3 ADD MSTORE PUSH1 0x14 PUSH1 0x24 DUP3 ADD MSTORE PUSH20 0x10DC9959195B9D1A585B081B9BDD08199BDD5B99 PUSH1 0x62 SHL PUSH1 0x44 DUP3 ADD MSTORE PUSH1 0x64 ADD PUSH2 0x3ED JUMP JUMPDEST PUSH0 PUSH1 0x4 DUP5 PUSH1 0x40 MLOAD PUSH2 0x105C SWAP2 SWAP1 PUSH2 0x1A0B JUMP JUMPDEST SWAP1 DUP2 MSTORE PUSH1 0x20 ADD PUSH1 0x40 MLOAD DUP1 SWAP2 SUB SWAP1 KECCAK256 DUP1 SLOAD PUSH2 0x1075 SWAP1 PUSH2 0x19D3 JUMP JUMPDEST DUP1 PUSH1 0x1F ADD PUSH1 0x20 DUP1 SWAP2 DIV MUL PUSH1 0x20 ADD PUSH1 0x40 MLOAD SWAP1 DUP2 ADD PUSH1 0x40 MSTORE DUP1 SWAP3 SWAP2 SWAP1 DUP2 DUP2 MSTORE PUSH1 0x20 ADD DUP3 DUP1 SLOAD PUSH2 0x10A1 SWAP1 PUSH2 0x19D3 JUMP JUMPDEST DUP1 ISZERO PUSH2 0x10EC JUMPI DUP1 PUSH1 0x1F LT PUSH2 0x10C3 JUMPI PUSH2 0x100 DUP1 DUP4 SLOAD DIV MUL DUP4 MSTORE SWAP2 PUSH1 0x20 ADD SWAP2 PUSH2 0x10EC JUMP JUMPDEST DUP3 ADD SWAP2 SWAP1 PUSH0 MSTORE PUSH1 0x20 PUSH0 KECCAK256 SWAP1 JUMPDEST DUP2 SLOAD DUP2 MSTORE SWAP1 PUSH1 0x1 ADD SWAP1 PUSH1 0x20 ADD DUP1 DUP4 GT PUSH2 0x10CF JUMPI DUP3 SWAP1 SUB PUSH1 0x1F AND DUP3 ADD SWAP2 JUMPDEST POP POP POP PUSH1 0x1 PUSH1 0x1 PUSH1 0xA0 SHL SUB DUP6 AND PUSH0 SWAP1 DUP2 MSTORE PUSH1 0x1 PUSH1 0x20 MSTORE PUSH1 0x40 SWAP1 DUP2 SWAP1 KECCAK256 SWAP1 MLOAD SWAP4 SWAP5 POP SWAP3 PUSH2 0x111B SWAP3 POP DUP5 SWAP2 POP PUSH2 0x1A0B JUMP JUMPDEST SWAP1 DUP2 MSTORE PUSH1 0x20 ADD PUSH1 0x40 MLOAD DUP1 SWAP2 SUB SWAP1 KECCAK256 PUSH1 0x40 MLOAD DUP1 PUSH1 0xC0 ADD PUSH1 0x40 MSTORE SWAP1 DUP2 PUSH0 DUP3 ADD DUP1 SLOAD PUSH2 0x1143 SWAP1 PUSH2 0x19D3 JUMP JUMPDEST DUP1 PUSH1 0x1F ADD PUSH1 0x20 DUP1 SWAP2 DIV MUL PUSH1 0x20 ADD PUSH1 0x40 MLOAD SWAP1 DUP2 ADD PUSH1 0x40 MSTORE DUP1 SWAP3 SWAP2 SWAP1 DUP2 DUP2 MSTORE PUSH1 0x20 ADD DUP3 DUP1 SLOAD PUSH2 0x116F SWAP1 PUSH2 0x19D3 JUMP JUMPDEST DUP1 ISZERO PUSH2 0x11BA JUMPI DUP1 PUSH1 0x1F LT PUSH2 0x1191 JUMPI PUSH2 0x100 DUP1 DUP4 SLOAD DIV MUL DUP4 MSTORE SWAP2 PUSH1 0x20 ADD SWAP2 PUSH2 0x11BA JUMP JUMPDEST DUP3 ADD SWAP2 SWAP1 PUSH0 MSTORE PUSH1 0x20 PUSH0 KECCAK256 SWAP1 JUMPDEST DUP2 SLOAD DUP2 MSTORE SWAP1 PUSH1 0x1 ADD SWAP1 PUSH1 0x20 ADD DUP1 DUP4 GT PUSH2 0x119D JUMPI DUP3 SWAP1 SUB PUSH1 0x1F AND DUP3 ADD SWAP2 JUMPDEST POP POP POP POP POP DUP2 MSTORE PUSH1 0x20 ADD PUSH1 0x1 DUP3 ADD DUP1 SLOAD PUSH2 0x11D3 SWAP1 PUSH2 0x19D3 JUMP JUMPDEST DUP1 PUSH1 0x1F ADD PUSH1 0x20 DUP1 SWAP2 DIV MUL PUSH1 0x20 ADD PUSH1 0x40 MLOAD SWAP1 DUP2 ADD PUSH1 0x40 MSTORE DUP1 SWAP3 SWAP2 SWAP1 DUP2 DUP2 MSTORE PUSH1 0x20 ADD DUP3 DUP1 SLOAD PUSH2 0x11FF SWAP1 PUSH2 0x19D3 JUMP JUMPDEST DUP1 ISZERO PUSH2 0x124A JUMPI DUP1 PUSH1 0x1F LT PUSH2 0x1221 JUMPI PUSH2 0x100 DUP1 DUP4 SLOAD DIV MUL DUP4 MSTORE SWAP2 PUSH1 0x20 ADD SWAP2 PUSH2 0x124A JUMP JUMPDEST DUP3 ADD SWAP2 SWAP1 PUSH0 MSTORE PUSH1 0x20 PUSH0 KECCAK256 SWAP1 JUMPDEST DUP2 SLOAD DUP2 MSTORE SWAP1 PUSH1 0x1 ADD SWAP1 PUSH1 0x20 ADD DUP1 DUP4 GT PUSH2 0x122D JUMPI DUP3 SWAP1 SUB PUSH1 0x1F AND DUP3 ADD SWAP2 JUMPDEST POP POP POP POP POP DUP2 MSTORE PUSH1 0x20 ADD PUSH1 0x2 DUP3 ADD SLOAD DUP2 MSTORE PUSH1 0x20 ADD PUSH1 0x3 DUP3 ADD DUP1 SLOAD PUSH2 0x126D SWAP1 PUSH2 0x19D3 JUMP JUMPDEST DUP1 PUSH1 0x1F ADD PUSH1 0x20 DUP1 SWAP2 DIV MUL PUSH1 0x20 ADD PUSH1 0x40 MLOAD SWAP1 DUP2 ADD PUSH1 0x40 MSTORE DUP1 SWAP3 SWAP2 SWAP1 DUP2 DUP2 MSTORE PUSH1 0x20 ADD DUP3 DUP1 SLOAD PUSH2 0x1299 SWAP1 PUSH2 0x19D3 JUMP JUMPDEST DUP1 ISZERO PUSH2 0x12E4 JUMPI DUP1 PUSH1 0x1F LT PUSH2 0x12BB JUMPI PUSH2 0x100 DUP1 DUP4 SLOAD DIV MUL DUP4 MSTORE SWAP2 PUSH1 0x20 ADD SWAP2 PUSH2 0x12E4 JUMP JUMPDEST DUP3 ADD SWAP2 SWAP1 PUSH0 MSTORE PUSH1 0x20 PUSH0 KECCAK256 SWAP1 JUMPDEST DUP2 SLOAD DUP2 MSTORE SWAP1 PUSH1 0x1 ADD SWAP1 PUSH1 0x20 ADD DUP1 DUP4 GT PUSH2 0x12C7 JUMPI DUP3 SWAP1 SUB PUSH1 0x1F AND DUP3 ADD SWAP2 JUMPDEST POP POP POP SWAP2 DUP4 MSTORE POP POP PUSH1 0x4 DUP3 ADD SLOAD PUSH1 0x1 PUSH1 0x1 PUSH1 0xA0 SHL SUB SWAP1 DUP2 AND PUSH1 0x20 DUP4 ADD MSTORE PUSH1 0x5 SWAP1 SWAP3 ADD SLOAD SWAP1 SWAP2 AND PUSH1 0x40 SWAP1 SWAP2 ADD MSTORE SWAP5 SWAP4 POP POP POP POP JUMP JUMPDEST DUP1 MLOAD PUSH1 0x20 DUP2 DUP4 ADD DUP2 ADD DUP1 MLOAD PUSH1 0x4 DUP3 MSTORE SWAP3 DUP3 ADD SWAP2 SWAP1 SWAP4 ADD KECCAK256 SWAP2 MSTORE DUP1 SLOAD PUSH2 0xB88 SWAP1 PUSH2 0x19D3 JUMP JUMPDEST PUSH1 0x1 PUSH1 0x20 SWAP1 DUP2 MSTORE PUSH0 SWAP3 DUP4 MSTORE PUSH1 0x40 SWAP1 SWAP3 KECCAK256 DUP2 MLOAD DUP1 DUP4 ADD DUP5 ADD DUP1 MLOAD SWAP3 DUP2 MSTORE SWAP1 DUP5 ADD SWAP3 SWAP1 SWAP4 ADD SWAP2 SWAP1 SWAP2 KECCAK256 SWAP2 MSTORE DUP1 SLOAD DUP2 SWAP1 PUSH2 0x1372 SWAP1 PUSH2 0x19D3 JUMP JUMPDEST DUP1 PUSH1 0x1F ADD PUSH1 0x20 DUP1 SWAP2 DIV MUL PUSH1 0x20 ADD PUSH1 0x40 MLOAD SWAP1 DUP2 ADD PUSH1 0x40 MSTORE DUP1 SWAP3 SWAP2 SWAP1 DUP2 DUP2 MSTORE PUSH1 0x20 ADD DUP3 DUP1 SLOAD PUSH2 0x139E SWAP1 PUSH2 0x19D3 JUMP JUMPDEST DUP1 ISZERO PUSH2 0x13E9 JUMPI DUP1 PUSH1 0x1F LT PUSH2 0x13C0 JUMPI PUSH2 0x100 DUP1 DUP4 SLOAD DIV MUL DUP4 MSTORE SWAP2 PUSH1 0x20 ADD SWAP2 PUSH2 0x13E9 JUMP JUMPDEST DUP3 ADD SWAP2 SWAP1 PUSH0 MSTORE PUSH1 0x20 PUSH0 KECCAK256 SWAP1 JUMPDEST DUP2 SLOAD DUP2 MSTORE SWAP1 PUSH1 0x1 ADD SWAP1 PUSH1 0x20 ADD DUP1 DUP4 GT PUSH2 0x13CC JUMPI DUP3 SWAP1 SUB PUSH1 0x1F AND DUP3 ADD SWAP2 JUMPDEST POP POP POP POP POP SWAP1 DUP1 PUSH1 0x1 ADD DUP1 SLOAD PUSH2 0x13FE SWAP1 PUSH2 0x19D3 JUMP JUMPDEST DUP1 PUSH1 0x1F ADD PUSH1 0x20 DUP1 SWAP2 DIV MUL PUSH1 0x20 ADD PUSH1 0x40 MLOAD SWAP1 DUP2 ADD PUSH1 0x40 MSTORE DUP1 SWAP3 SWAP2 SWAP1 DUP2 DUP2 MSTORE PUSH1 0x20 ADD DUP3 DUP1 SLOAD PUSH2 0x142A SWAP1 PUSH2 0x19D3 JUMP JUMPDEST DUP1 ISZERO PUSH2 0x1475 JUMPI DUP1 PUSH1 0x1F LT PUSH2 0x144C JUMPI PUSH2 0x100 DUP1 DUP4 SLOAD DIV MUL DUP4 MSTORE SWAP2 PUSH1 0x20 ADD SWAP2 PUSH2 0x1475 JUMP JUMPDEST DUP3 ADD SWAP2 SWAP1 PUSH0 MSTORE PUSH1 0x20 PUSH0 KECCAK256 SWAP1 JUMPDEST DUP2 SLOAD DUP2 MSTORE SWAP1 PUSH1 0x1 ADD SWAP1 PUSH1 0x20 ADD DUP1 DUP4 GT PUSH2 0x1458 JUMPI DUP3 SWAP1 SUB PUSH1 0x1F AND DUP3 ADD SWAP2 JUMPDEST POP POP POP POP POP SWAP1 DUP1 PUSH1 0x2 ADD SLOAD SWAP1 DUP1 PUSH1 0x3 ADD DUP1 SLOAD PUSH2 0x1490 SWAP1 PUSH2 0x19D3 JUMP JUMPDEST DUP1 PUSH1 0x1F ADD PUSH1 0x20 DUP1 SWAP2 DIV MUL PUSH1 0x20 ADD PUSH1 0x40 MLOAD SWAP1 DUP2 ADD PUSH1 0x40 MSTORE DUP1 SWAP3 SWAP2 SWAP1 DUP2 DUP2 MSTORE PUSH1 0x20 ADD DUP3 DUP1 SLOAD PUSH2 0x14BC SWAP1 PUSH2 0x19D3 JUMP JUMPDEST DUP1 ISZERO PUSH2 0x1507 JUMPI DUP1 PUSH1 0x1F LT PUSH2 0x14DE JUMPI PUSH2 0x100 DUP1 DUP4 SLOAD DIV MUL DUP4 MSTORE SWAP2 PUSH1 0x20 ADD SWAP2 PUSH2 0x1507 JUMP JUMPDEST DUP3 ADD SWAP2 SWAP1 PUSH0 MSTORE PUSH1 0x20 PUSH0 KECCAK256 SWAP1 JUMPDEST DUP2 SLOAD DUP2 MSTORE SWAP1 PUSH1 0x1 ADD SWAP1 PUSH1 0x20 ADD DUP1 DUP4 GT PUSH2 0x14EA JUMPI DUP3 SWAP1 SUB PUSH1 0x1F AND DUP3 ADD SWAP2 JUMPDEST POP POP POP POP PUSH1 0x4 DUP4 ADD SLOAD PUSH1 0x5 SWAP1 SWAP4 ADD SLOAD SWAP2 SWAP3 PUSH1 0x1 PUSH1 0x1 PUSH1 0xA0 SHL SUB SWAP1 DUP2 AND SWAP3 AND SWAP1 POP DUP7 JUMP JUMPDEST PUSH1 0x40 MLOAD DUP1 PUSH1 0xC0 ADD PUSH1 0x40 MSTORE DUP1 PUSH1 0x60 DUP2 MSTORE PUSH1 0x20 ADD PUSH1 0x60 DUP2 MSTORE PUSH1 0x20 ADD PUSH0 DUP2 MSTORE PUSH1 0x20 ADD PUSH1 0x60 DUP2 MSTORE PUSH1 0x20 ADD PUSH0 PUSH1 0x1 PUSH1 0x1 PUSH1 0xA0 SHL SUB AND DUP2 MSTORE PUSH1 0x20 ADD PUSH0 PUSH1 0x1 PUSH1 0x1 PUSH1 0xA0 SHL SUB AND DUP2 MSTORE POP SWAP1 JUMP JUMPDEST DUP1 CALLDATALOAD PUSH1 0x1 PUSH1 0x1 PUSH1 0xA0 SHL SUB DUP2 AND DUP2 EQ PUSH2 0x1585 JUMPI PUSH0 PUSH0 REVERT JUMPDEST SWAP2 SWAP1 POP JUMP JUMPDEST PUSH0 PUSH0 PUSH1 0x40 DUP4 DUP6 SUB SLT ISZERO PUSH2 0x159B JUMPI PUSH0 PUSH0 REVERT JUMPDEST PUSH2 0x15A4 DUP4 PUSH2 0x156F JUMP JUMPDEST SWAP5 PUSH1 0x20 SWAP4 SWAP1 SWAP4 ADD CALLDATALOAD SWAP4 POP POP POP JUMP JUMPDEST PUSH0 DUP2 MLOAD DUP1 DUP5 MSTORE DUP1 PUSH1 0x20 DUP5 ADD PUSH1 0x20 DUP7 ADD MCOPY PUSH0 PUSH1 0x20 DUP3 DUP7 ADD ADD MSTORE PUSH1 0x20 PUSH1 0x1F NOT PUSH1 0x1F DUP4 ADD AND DUP6 ADD ADD SWAP2 POP POP SWAP3 SWAP2 POP POP JUMP JUMPDEST PUSH1 0x1 PUSH1 0x1 PUSH1 0xA0 SHL SUB DUP4 AND DUP2 MSTORE PUSH1 0x40 PUSH1 0x20 DUP3 ADD DUP2 SWAP1 MSTORE PUSH0 SWAP1 PUSH2 0x1603 SWAP1 DUP4 ADD DUP5 PUSH2 0x15B2 JUMP JUMPDEST SWAP5 SWAP4 POP POP POP POP JUMP JUMPDEST PUSH0 PUSH1 0x20 DUP3 DUP5 SUB SLT ISZERO PUSH2 0x161B JUMPI PUSH0 PUSH0 REVERT JUMPDEST PUSH2 0x1624 DUP3 PUSH2 0x156F JUMP JUMPDEST SWAP4 SWAP3 POP POP POP JUMP JUMPDEST PUSH4 0x4E487B71 PUSH1 0xE0 SHL PUSH0 MSTORE PUSH1 0x41 PUSH1 0x4 MSTORE PUSH1 0x24 PUSH0 REVERT JUMPDEST PUSH0 DUP3 PUSH1 0x1F DUP4 ADD SLT PUSH2 0x164E JUMPI PUSH0 PUSH0 REVERT JUMPDEST DUP2 CALLDATALOAD PUSH8 0xFFFFFFFFFFFFFFFF DUP2 GT ISZERO PUSH2 0x1668 JUMPI PUSH2 0x1668 PUSH2 0x162B JUMP JUMPDEST PUSH1 0x40 MLOAD PUSH1 0x1F DUP3 ADD PUSH1 0x1F NOT SWAP1 DUP2 AND PUSH1 0x3F ADD AND DUP2 ADD PUSH8 0xFFFFFFFFFFFFFFFF DUP2 GT DUP3 DUP3 LT OR ISZERO PUSH2 0x1697 JUMPI PUSH2 0x1697 PUSH2 0x162B JUMP JUMPDEST PUSH1 0x40 MSTORE DUP2 DUP2 MSTORE DUP4 DUP3 ADD PUSH1 0x20 ADD DUP6 LT ISZERO PUSH2 0x16AE JUMPI PUSH0 PUSH0 REVERT JUMPDEST DUP2 PUSH1 0x20 DUP6 ADD PUSH1 0x20 DUP4 ADD CALLDATACOPY PUSH0 SWAP2 DUP2 ADD PUSH1 0x20 ADD SWAP2 SWAP1 SWAP2 MSTORE SWAP4 SWAP3 POP POP POP JUMP JUMPDEST PUSH0 PUSH0 PUSH1 0x40 DUP4 DUP6 SUB SLT ISZERO PUSH2 0x16DB JUMPI PUSH0 PUSH0 REVERT JUMPDEST PUSH2 0x16E4 DUP4 PUSH2 0x156F JUMP JUMPDEST SWAP2 POP PUSH1 0x20 DUP4 ADD CALLDATALOAD PUSH8 0xFFFFFFFFFFFFFFFF DUP2 GT ISZERO PUSH2 0x16FF JUMPI PUSH0 PUSH0 REVERT JUMPDEST PUSH2 0x170B DUP6 DUP3 DUP7 ADD PUSH2 0x163F JUMP JUMPDEST SWAP2 POP POP SWAP3 POP SWAP3 SWAP1 POP JUMP JUMPDEST PUSH0 DUP2 MLOAD PUSH1 0xC0 DUP5 MSTORE PUSH2 0x1729 PUSH1 0xC0 DUP6 ADD DUP3 PUSH2 0x15B2 JUMP JUMPDEST SWAP1 POP PUSH1 0x20 DUP4 ADD MLOAD DUP5 DUP3 SUB PUSH1 0x20 DUP7 ADD MSTORE PUSH2 0x1742 DUP3 DUP3 PUSH2 0x15B2 JUMP JUMPDEST SWAP2 POP POP PUSH1 0x40 DUP4 ADD MLOAD PUSH1 0x40 DUP6 ADD MSTORE PUSH1 0x60 DUP4 ADD MLOAD DUP5 DUP3 SUB PUSH1 0x60 DUP7 ADD MSTORE PUSH2 0x1766 DUP3 DUP3 PUSH2 0x15B2 JUMP JUMPDEST PUSH1 0x80 DUP6 DUP2 ADD MLOAD PUSH1 0x1 PUSH1 0x1 PUSH1 0xA0 SHL SUB SWAP1 DUP2 AND SWAP2 DUP9 ADD SWAP2 SWAP1 SWAP2 MSTORE PUSH1 0xA0 SWAP6 DUP7 ADD MLOAD AND SWAP6 SWAP1 SWAP5 ADD SWAP5 SWAP1 SWAP5 MSTORE POP SWAP1 SWAP3 SWAP2 POP POP JUMP JUMPDEST PUSH1 0x20 DUP2 MSTORE PUSH0 PUSH2 0x1624 PUSH1 0x20 DUP4 ADD DUP5 PUSH2 0x1715 JUMP JUMPDEST PUSH0 PUSH1 0x20 DUP3 ADD PUSH1 0x20 DUP4 MSTORE DUP1 DUP5 MLOAD DUP1 DUP4 MSTORE PUSH1 0x40 DUP6 ADD SWAP2 POP PUSH1 0x40 DUP2 PUSH1 0x5 SHL DUP7 ADD ADD SWAP3 POP PUSH1 0x20 DUP7 ADD PUSH0 JUMPDEST DUP3 DUP2 LT ISZERO PUSH2 0x17FE JUMPI PUSH1 0x3F NOT DUP8 DUP7 SUB ADD DUP5 MSTORE PUSH2 0x17E9 DUP6 DUP4 MLOAD PUSH2 0x1715 JUMP JUMPDEST SWAP5 POP PUSH1 0x20 SWAP4 DUP5 ADD SWAP4 SWAP2 SWAP1 SWAP2 ADD SWAP1 PUSH1 0x1 ADD PUSH2 0x17CD JUMP JUMPDEST POP SWAP3 SWAP7 SWAP6 POP POP POP POP POP POP JUMP JUMPDEST PUSH0 PUSH1 0x20 DUP3 ADD PUSH1 0x20 DUP4 MSTORE DUP1 DUP5 MLOAD DUP1 DUP4 MSTORE PUSH1 0x40 DUP6 ADD SWAP2 POP PUSH1 0x40 DUP2 PUSH1 0x5 SHL DUP7 ADD ADD SWAP3 POP PUSH1 0x20 DUP7 ADD PUSH0 JUMPDEST DUP3 DUP2 LT ISZERO PUSH2 0x17FE JUMPI PUSH1 0x3F NOT DUP8 DUP7 SUB ADD DUP5 MSTORE PUSH2 0x184C DUP6 DUP4 MLOAD PUSH2 0x15B2 JUMP JUMPDEST SWAP5 POP PUSH1 0x20 SWAP4 DUP5 ADD SWAP4 SWAP2 SWAP1 SWAP2 ADD SWAP1 PUSH1 0x1 ADD PUSH2 0x1830 JUMP JUMPDEST PUSH1 0x20 DUP2 MSTORE PUSH0 PUSH2 0x1624 PUSH1 0x20 DUP4 ADD DUP5 PUSH2 0x15B2 JUMP JUMPDEST PUSH0 PUSH0 PUSH0 PUSH0 PUSH0 PUSH1 0xA0 DUP7 DUP9 SUB SLT ISZERO PUSH2 0x1887 JUMPI PUSH0 PUSH0 REVERT JUMPDEST DUP6 CALLDATALOAD PUSH8 0xFFFFFFFFFFFFFFFF DUP2 GT ISZERO PUSH2 0x189D JUMPI PUSH0 PUSH0 REVERT JUMPDEST PUSH2 0x18A9 DUP9 DUP3 DUP10 ADD PUSH2 0x163F JUMP JUMPDEST SWAP6 POP POP PUSH2 0x18B8 PUSH1 0x20 DUP8 ADD PUSH2 0x156F JUMP JUMPDEST SWAP4 POP PUSH1 0x40 DUP7 ADD CALLDATALOAD PUSH8 0xFFFFFFFFFFFFFFFF DUP2 GT ISZERO PUSH2 0x18D3 JUMPI PUSH0 PUSH0 REVERT JUMPDEST PUSH2 0x18DF DUP9 DUP3 DUP10 ADD PUSH2 0x163F JUMP JUMPDEST SWAP4 POP POP PUSH1 0x60 DUP7 ADD CALLDATALOAD PUSH8 0xFFFFFFFFFFFFFFFF DUP2 GT ISZERO PUSH2 0x18FB JUMPI PUSH0 PUSH0 REVERT JUMPDEST PUSH2 0x1907 DUP9 DUP3 DUP10 ADD PUSH2 0x163F JUMP JUMPDEST SWAP3 POP POP PUSH1 0x80 DUP7 ADD CALLDATALOAD PUSH8 0xFFFFFFFFFFFFFFFF DUP2 GT ISZERO PUSH2 0x1923 JUMPI PUSH0 PUSH0 REVERT JUMPDEST PUSH2 0x192F DUP9 DUP3 DUP10 ADD PUSH2 0x163F JUMP JUMPDEST SWAP2 POP POP SWAP3 SWAP6 POP SWAP3 SWAP6 SWAP1 SWAP4 POP JUMP JUMPDEST PUSH0 PUSH1 0x20 DUP3 DUP5 SUB SLT ISZERO PUSH2 0x194C JUMPI PUSH0 PUSH0 REVERT JUMPDEST DUP2 CALLDATALOAD PUSH8 0xFFFFFFFFFFFFFFFF DUP2 GT ISZERO PUSH2 0x1962 JUMPI PUSH0 PUSH0 REVERT JUMPDEST PUSH2 0x1603 DUP5 DUP3 DUP6 ADD PUSH2 0x163F JUMP JUMPDEST PUSH1 0xC0 DUP2 MSTORE PUSH0 PUSH2 0x1980 PUSH1 0xC0 DUP4 ADD DUP10 PUSH2 0x15B2 JUMP JUMPDEST DUP3 DUP2 SUB PUSH1 0x20 DUP5 ADD MSTORE PUSH2 0x1992 DUP2 DUP10 PUSH2 0x15B2 JUMP JUMPDEST SWAP1 POP DUP7 PUSH1 0x40 DUP5 ADD MSTORE DUP3 DUP2 SUB PUSH1 0x60 DUP5 ADD MSTORE PUSH2 0x19AC DUP2 DUP8 PUSH2 0x15B2 JUMP JUMPDEST PUSH1 0x1 PUSH1 0x1 PUSH1 0xA0 SHL SUB SWAP6 DUP7 AND PUSH1 0x80 DUP6 ADD MSTORE SWAP4 SWAP1 SWAP5 AND PUSH1 0xA0 SWAP1 SWAP3 ADD SWAP2 SWAP1 SWAP2 MSTORE POP SWAP6 SWAP5 POP POP POP POP POP JUMP JUMPDEST PUSH1 0x1 DUP2 DUP2 SHR SWAP1 DUP3 AND DUP1 PUSH2 0x19E7 JUMPI PUSH1 0x7F DUP3 AND SWAP2 POP JUMPDEST PUSH1 0x20 DUP3 LT DUP2 SUB PUSH2 0x1A05 JUMPI PUSH4 0x4E487B71 PUSH1 0xE0 SHL PUSH0 MSTORE PUSH1 0x22 PUSH1 0x4 MSTORE PUSH1 0x24 PUSH0 REVERT JUMPDEST POP SWAP2 SWAP1 POP JUMP JUMPDEST PUSH0 DUP3 MLOAD DUP1 PUSH1 0x20 DUP6 ADD DUP5 MCOPY PUSH0 SWAP3 ADD SWAP2 DUP3 MSTORE POP SWAP2 SWAP1 POP JUMP JUMPDEST PUSH4 0x4E487B71 PUSH1 0xE0 SHL PUSH0 MSTORE PUSH1 0x32 PUSH1 0x4 MSTORE PUSH1 0x24 PUSH0 REVERT JUMPDEST PUSH1 0x1F DUP3 GT ISZERO PUSH2 0x1A7C JUMPI DUP1 PUSH0 MSTORE PUSH1 0x20 PUSH0 KECCAK256 PUSH1 0x1F DUP5 ADD PUSH1 0x5 SHR DUP2 ADD PUSH1 0x20 DUP6 LT ISZERO PUSH2 0x1A5A JUMPI POP DUP1 JUMPDEST PUSH1 0x1F DUP5 ADD PUSH1 0x5 SHR DUP3 ADD SWAP2 POP JUMPDEST DUP2 DUP2 LT ISZERO PUSH2 0x1A79 JUMPI PUSH0 DUP2 SSTORE PUSH1 0x1 ADD PUSH2 0x1A66 JUMP JUMPDEST POP POP JUMPDEST POP POP POP JUMP JUMPDEST DUP2 MLOAD PUSH8 0xFFFFFFFFFFFFFFFF DUP2 GT ISZERO PUSH2 0x1A9B JUMPI PUSH2 0x1A9B PUSH2 0x162B JUMP JUMPDEST PUSH2 0x1AAF DUP2 PUSH2 0x1AA9 DUP5 SLOAD PUSH2 0x19D3 JUMP JUMPDEST DUP5 PUSH2 0x1A35 JUMP JUMPDEST PUSH1 0x20 PUSH1 0x1F DUP3 GT PUSH1 0x1 DUP2 EQ PUSH2 0x1AE1 JUMPI PUSH0 DUP4 ISZERO PUSH2 0x1ACA JUMPI POP DUP5 DUP3 ADD MLOAD JUMPDEST PUSH0 NOT PUSH1 0x3 DUP6 SWAP1 SHL SHR NOT AND PUSH1 0x1 DUP5 SWAP1 SHL OR DUP5 SSTORE PUSH2 0x1A79 JUMP JUMPDEST PUSH0 DUP5 DUP2 MSTORE PUSH1 0x20 DUP2 KECCAK256 PUSH1 0x1F NOT DUP6 AND SWAP2 JUMPDEST DUP3 DUP2 LT ISZERO PUSH2 0x1B10 JUMPI DUP8 DUP6 ADD MLOAD DUP3 SSTORE PUSH1 0x20 SWAP5 DUP6 ADD SWAP5 PUSH1 0x1 SWAP1 SWAP3 ADD SWAP2 ADD PUSH2 0x1AF0 JUMP JUMPDEST POP DUP5 DUP3 LT ISZERO PUSH2 0x1B2D JUMPI DUP7 DUP5 ADD MLOAD PUSH0 NOT PUSH1 0x3 DUP8 SWAP1 SHL PUSH1 0xF8 AND SHR NOT AND DUP2 SSTORE JUMPDEST POP POP POP POP PUSH1 0x1 SWAP1 DUP2 SHL ADD SWAP1 SSTORE POP JUMP INVALID LOG2 PUSH5 0x6970667358 0x22 SLT KECCAK256 0xC9 LOG4 CODESIZE PUSH5 0xA5F6625429 0xB0 PUSH14 0xA7FF54D7E2E81B9B5ABC1187ABC6 LT SWAP15 DATALOADN 0x58C3 BASEFEE GASPRICE PUSH5 0x736F6C6343 STOP ADDMOD 0x1E STOP CALLER "
		},
		"gasEstimates": {
			"creation": {
				"codeDepositCost": "1405200",
				"executionCost": "infinite",
				"totalCost": "infinite"
			},
			"external": {
				"adminContract()": "infinite",
				"authorizeInstitution(address)": "infinite",
				"authorizedInstitutions(address)": "2577",
				"cidToCredentialId(string)": "infinite",
				"cidToIssuer(string)": "infinite",
				"credentials(address,string)": "infinite",
				"getCredential(address,string)": "infinite",
				"getCredentialByCID(string)": "infinite",
				"getInstitutionCredentials(address)": "infinite",
				"getStudentCredentialsFull(address)": "infinite",
				"institutionCredentials(address,uint256)": "infinite",
				"issueCredential(string,address,string,string,string)": "infinite",
				"revokeInstitution(address)": "infinite",
				"studentCredentials(address,uint256)": "infinite"
			}
		},
		"methodIdentifiers": {
			"adminContract()": "c05c5e94",
			"authorizeInstitution(address)": "bd4d8bcb",
			"authorizedInstitutions(address)": "16b784fe",
			"cidToCredentialId(string)": "d28adb23",
			"cidToIssuer(string)": "9b7c79a2",
			"credentials(address,string)": "dbd30262",
			"getCredential(address,string)": "2f4b5ad3",
			"getCredentialByCID(string)": "c57efc5d",
			"getInstitutionCredentials(address)": "4e83e59a",
			"getStudentCredentialsFull(address)": "45117177",
			"institutionCredentials(address,uint256)": "55bedcbb",
			"issueCredential(string,address,string,string,string)": "76978529",
			"revokeInstitution(address)": "1c67494e",
			"studentCredentials(address,uint256)": "0dd308cd"
		}
	},
	"abi": [
		{
			"inputs": [
				{
					"internalType": "address",
					"name": "_adminContract",
					"type": "address"
				}
			],
			"stateMutability": "nonpayable",
			"type": "constructor"
		},
		{
			"anonymous": false,
			"inputs": [
				{
					"indexed": true,
					"internalType": "string",
					"name": "credentialId",
					"type": "string"
				},
				{
					"indexed": true,
					"internalType": "address",
					"name": "issuer",
					"type": "address"
				},
				{
					"indexed": true,
					"internalType": "address",
					"name": "student",
					"type": "address"
				}
			],
			"name": "CredentialIssued",
			"type": "event"
		},
		{
			"anonymous": false,
			"inputs": [
				{
					"indexed": true,
					"internalType": "address",
					"name": "institution",
					"type": "address"
				}
			],
			"name": "InstitutionAuthorized",
			"type": "event"
		},
		{
			"anonymous": false,
			"inputs": [
				{
					"indexed": true,
					"internalType": "address",
					"name": "institution",
					"type": "address"
				}
			],
			"name": "InstitutionRevoked",
			"type": "event"
		},
		{
			"inputs": [],
			"name": "adminContract",
			"outputs": [
				{
					"internalType": "address",
					"name": "",
					"type": "address"
				}
			],
			"stateMutability": "view",
			"type": "function"
		},
		{
			"inputs": [
				{
					"internalType": "address",
					"name": "institution",
					"type": "address"
				}
			],
			"name": "authorizeInstitution",
			"outputs": [],
			"stateMutability": "nonpayable",
			"type": "function"
		},
		{
			"inputs": [
				{
					"internalType": "address",
					"name": "",
					"type": "address"
				}
			],
			"name": "authorizedInstitutions",
			"outputs": [
				{
					"internalType": "bool",
					"name": "",
					"type": "bool"
				}
			],
			"stateMutability": "view",
			"type": "function"
		},
		{
			"inputs": [
				{
					"internalType": "string",
					"name": "",
					"type": "string"
				}
			],
			"name": "cidToCredentialId",
			"outputs": [
				{
					"internalType": "string",
					"name": "",
					"type": "string"
				}
			],
			"stateMutability": "view",
			"type": "function"
		},
		{
			"inputs": [
				{
					"internalType": "string",
					"name": "",
					"type": "string"
				}
			],
			"name": "cidToIssuer",
			"outputs": [
				{
					"internalType": "address",
					"name": "",
					"type": "address"
				}
			],
			"stateMutability": "view",
			"type": "function"
		},
		{
			"inputs": [
				{
					"internalType": "address",
					"name": "",
					"type": "address"
				},
				{
					"internalType": "string",
					"name": "",
					"type": "string"
				}
			],
			"name": "credentials",
			"outputs": [
				{
					"internalType": "string",
					"name": "institution",
					"type": "string"
				},
				{
					"internalType": "string",
					"name": "degree",
					"type": "string"
				},
				{
					"internalType": "uint256",
					"name": "issueDate",
					"type": "uint256"
				},
				{
					"internalType": "string",
					"name": "cid",
					"type": "string"
				},
				{
					"internalType": "address",
					"name": "issuer",
					"type": "address"
				},
				{
					"internalType": "address",
					"name": "studentAddress",
					"type": "address"
				}
			],
			"stateMutability": "view",
			"type": "function"
		},
		{
			"inputs": [
				{
					"internalType": "address",
					"name": "issuer",
					"type": "address"
				},
				{
					"internalType": "string",
					"name": "credentialId",
					"type": "string"
				}
			],
			"name": "getCredential",
			"outputs": [
				{
					"components": [
						{
							"internalType": "string",
							"name": "institution",
							"type": "string"
						},
						{
							"internalType": "string",
							"name": "degree",
							"type": "string"
						},
						{
							"internalType": "uint256",
							"name": "issueDate",
							"type": "uint256"
						},
						{
							"internalType": "string",
							"name": "cid",
							"type": "string"
						},
						{
							"internalType": "address",
							"name": "issuer",
							"type": "address"
						},
						{
							"internalType": "address",
							"name": "studentAddress",
							"type": "address"
						}
					],
					"internalType": "struct EduVerify.Credential",
					"name": "",
					"type": "tuple"
				}
			],
			"stateMutability": "view",
			"type": "function"
		},
		{
			"inputs": [
				{
					"internalType": "string",
					"name": "cid",
					"type": "string"
				}
			],
			"name": "getCredentialByCID",
			"outputs": [
				{
					"components": [
						{
							"internalType": "string",
							"name": "institution",
							"type": "string"
						},
						{
							"internalType": "string",
							"name": "degree",
							"type": "string"
						},
						{
							"internalType": "uint256",
							"name": "issueDate",
							"type": "uint256"
						},
						{
							"internalType": "string",
							"name": "cid",
							"type": "string"
						},
						{
							"internalType": "address",
							"name": "issuer",
							"type": "address"
						},
						{
							"internalType": "address",
							"name": "studentAddress",
							"type": "address"
						}
					],
					"internalType": "struct EduVerify.Credential",
					"name": "",
					"type": "tuple"
				}
			],
			"stateMutability": "view",
			"type": "function"
		},
		{
			"inputs": [
				{
					"internalType": "address",
					"name": "institution",
					"type": "address"
				}
			],
			"name": "getInstitutionCredentials",
			"outputs": [
				{
					"internalType": "string[]",
					"name": "",
					"type": "string[]"
				}
			],
			"stateMutability": "view",
			"type": "function"
		},
		{
			"inputs": [
				{
					"internalType": "address",
					"name": "student",
					"type": "address"
				}
			],
			"name": "getStudentCredentialsFull",
			"outputs": [
				{
					"components": [
						{
							"internalType": "string",
							"name": "institution",
							"type": "string"
						},
						{
							"internalType": "string",
							"name": "degree",
							"type": "string"
						},
						{
							"internalType": "uint256",
							"name": "issueDate",
							"type": "uint256"
						},
						{
							"internalType": "string",
							"name": "cid",
							"type": "string"
						},
						{
							"internalType": "address",
							"name": "issuer",
							"type": "address"
						},
						{
							"internalType": "address",
							"name": "studentAddress",
							"type": "address"
						}
					],
					"internalType": "struct EduVerify.Credential[]",
					"name": "",
					"type": "tuple[]"
				}
			],
			"stateMutability": "view",
			"type": "function"
		},
		{
			"inputs": [
				{
					"internalType": "address",
					"name": "",
					"type": "address"
				},
				{
					"internalType": "uint256",
					"name": "",
					"type": "uint256"
				}
			],
			"name": "institutionCredentials",
			"outputs": [
				{
					"internalType": "string",
					"name": "",
					"type": "string"
				}
			],
			"stateMutability": "view",
			"type": "function"
		},
		{
			"inputs": [
				{
					"internalType": "string",
					"name": "credentialId",
					"type": "string"
				},
				{
					"internalType": "address",
					"name": "studentAddress",
					"type": "address"
				},
				{
					"internalType": "string",
					"name": "institution",
					"type": "string"
				},
				{
					"internalType": "string",
					"name": "degree",
					"type": "string"
				},
				{
					"internalType": "string",
					"name": "cid",
					"type": "string"
				}
			],
			"name": "issueCredential",
			"outputs": [],
			"stateMutability": "nonpayable",
			"type": "function"
		},
		{
			"inputs": [
				{
					"internalType": "address",
					"name": "institution",
					"type": "address"
				}
			],
			"name": "revokeInstitution",
			"outputs": [],
			"stateMutability": "nonpayable",
			"type": "function"
		},
		{
			"inputs": [
				{
					"internalType": "address",
					"name": "",
					"type": "address"
				},
				{
					"internalType": "uint256",
					"name": "",
					"type": "uint256"
				}
			],
			"name": "studentCredentials",
			"outputs": [
				{
					"internalType": "address",
					"name": "issuer",
					"type": "address"
				},
				{
					"internalType": "string",
					"name": "credentialId",
					"type": "string"
				}
			],
			"stateMutability": "view",
			"type": "function"
		}
	]
}